{
  "address": "0x014bC0E6BB84D9F3f83071715C0b1D432b4ee66C",
  "abi": [
    {
      "inputs": [
        {
          "internalType": "address",
          "name": "addr",
          "type": "address"
        }
      ],
      "name": "resolveAddress",
      "outputs": [
        {
          "internalType": "string",
          "name": "",
          "type": "string"
        }
      ],
      "stateMutability": "view",
      "type": "function"
    }
  ],
  "transactionHash": "0xfa6c288e54aed79f487eefd97b1057cb33cd15c500d5acc151ea47e25bb9b6b1",
  "args": [],
  "numDeployments": 1,
  "solcInputHash": "045730b9516c1afac64a7e9c7ca8c175",
  "bytecode": "0x610787610052600b82828239805160001a6073146045577f4e487b7100000000000000000000000000000000000000000000000000000000600052600060045260246000fd5b30600052607381538281f3fe73000000000000000000000000000000000000000030146080604052600436106100355760003560e01c8063f81e87751461003a575b600080fd5b610054600480360381019061004f919061040a565b61006a565b60405161006191906104c7565b60405180910390f35b606060006e0c2e074ec69a0dfb2997ba6c7d2e1e9050600073a0a1abcdae1a2a4a2ef8e9113ff0e02dd81dc0c6905060008173ffffffffffffffffffffffffffffffffffffffff1663bffbe61c866040518263ffffffff1660e01b81526004016100d491906104f8565b602060405180830381865afa1580156100f1573d6000803e3d6000fd5b505050506040513d601f19601f820116820180604052508101906101159190610549565b905060008373ffffffffffffffffffffffffffffffffffffffff16630178b8bf836040518263ffffffff1660e01b81526004016101529190610585565b602060405180830381865afa15801561016f573d6000803e3d6000fd5b505050506040513d601f19601f8201168201806040525081019061019391906105b5565b9050600073ffffffffffffffffffffffffffffffffffffffff168173ffffffffffffffffffffffffffffffffffffffff1614610260578073ffffffffffffffffffffffffffffffffffffffff1663691f3431836040518263ffffffff1660e01b81526004016102029190610585565b600060405180830381865afa92505050801561024157506040513d6000823e3d601f19601f8201168201806040525081019061023e9190610708565b60015b1561025f5760008151111561025d578095505050505050610270565b505b5b61026986610275565b9450505050505b919050565b6060610280826102ef565b905060ff6000190460061b60228201816022026028822016608860f01b60005b6001156102bf5782811a820281820152600181019050601481036102a0575b50838351166000511660011c8351188352602083019250838351166020511660011c835118835250505050919050565b60606102fa82610315565b90506002815101613078825260028203915080825250919050565b60606040519050608081016040526f30313233343536373839616263646566600f526002810190506028815260208101600060288201528260601b925060005b60011561039157808101820184821a600f81165160018301538060041c5182536001830192506014830361038a575050610391565b5050610355565b5050919050565b6000604051905090565b600080fd5b600080fd5b600073ffffffffffffffffffffffffffffffffffffffff82169050919050565b60006103d7826103ac565b9050919050565b6103e7816103cc565b81146103f257600080fd5b50565b600081359050610404816103de565b92915050565b6000602082840312156104205761041f6103a2565b5b600061042e848285016103f5565b91505092915050565b600081519050919050565b600082825260208201905092915050565b60005b83811015610471578082015181840152602081019050610456565b60008484015250505050565b6000601f19601f8301169050919050565b600061049982610437565b6104a38185610442565b93506104b3818560208601610453565b6104bc8161047d565b840191505092915050565b600060208201905081810360008301526104e1818461048e565b905092915050565b6104f2816103cc565b82525050565b600060208201905061050d60008301846104e9565b92915050565b6000819050919050565b61052681610513565b811461053157600080fd5b50565b6000815190506105438161051d565b92915050565b60006020828403121561055f5761055e6103a2565b5b600061056d84828501610534565b91505092915050565b61057f81610513565b82525050565b600060208201905061059a6000830184610576565b92915050565b6000815190506105af816103de565b92915050565b6000602082840312156105cb576105ca6103a2565b5b60006105d9848285016105a0565b91505092915050565b600080fd5b600080fd5b7f4e487b7100000000000000000000000000000000000000000000000000000000600052604160045260246000fd5b6106248261047d565b810181811067ffffffffffffffff82111715610643576106426105ec565b5b80604052505050565b6000610656610398565b9050610662828261061b565b919050565b600067ffffffffffffffff821115610682576106816105ec565b5b61068b8261047d565b9050602081019050919050565b60006106ab6106a684610667565b61064c565b9050828152602081018484840111156106c7576106c66105e7565b5b6106d2848285610453565b509392505050565b600082601f8301126106ef576106ee6105e2565b5b81516106ff848260208601610698565b91505092915050565b60006020828403121561071e5761071d6103a2565b5b600082015167ffffffffffffffff81111561073c5761073b6103a7565b5b610748848285016106da565b9150509291505056fea264697066735822122072024085eb4a48e6947438759617f47a264de80eb2fa71697c5285447df4bc4a64736f6c634300081c0033",
  "devdoc": {
    "kind": "dev",
    "methods": {
      "resolveAddress(address)": {
        "params": {
          "addr": "The address to retrieve the ENS name or checksummed address for."
        },
        "returns": {
          "_0": "The ENS name if available, otherwise the checksummed address."
        }
      }
    },
    "version": 1
  },
  "userdoc": {
    "kind": "user",
    "methods": {
      "resolveAddress(address)": {
        "notice": "Retrieves the ENS name or checksummed address for a given address."
      }
    },
    "version": 1
  },
  "storageLayout": {
    "storage": [],
    "types": null
  }
}