{
  "address": "0xFa463a13F67737CaAB6430fEEbf8f4a0E0D48AA6",
  "abi": [
    {
      "inputs": [],
      "stateMutability": "nonpayable",
      "type": "constructor"
    },
    {
      "inputs": [
        {
          "internalType": "address",
          "name": "owner",
          "type": "address"
        }
      ],
      "name": "OwnableInvalidOwner",
      "type": "error"
    },
    {
      "inputs": [
        {
          "internalType": "address",
          "name": "account",
          "type": "address"
        }
      ],
      "name": "OwnableUnauthorizedAccount",
      "type": "error"
    },
    {
      "anonymous": false,
      "inputs": [
        {
          "indexed": true,
          "internalType": "address",
          "name": "previousOwner",
          "type": "address"
        },
        {
          "indexed": true,
          "internalType": "address",
          "name": "newOwner",
          "type": "address"
        }
      ],
      "name": "OwnershipTransferred",
      "type": "event"
    },
    {
      "inputs": [],
      "name": "addresses",
      "outputs": [
        {
          "internalType": "address[]",
          "name": "",
          "type": "address[]"
        }
      ],
      "stateMutability": "view",
      "type": "function"
    },
    {
      "inputs": [],
      "name": "authors",
      "outputs": [
        {
          "internalType": "string[]",
          "name": "authors_",
          "type": "string[]"
        }
      ],
      "stateMutability": "view",
      "type": "function"
    },
    {
      "inputs": [],
      "name": "html",
      "outputs": [
        {
          "internalType": "string",
          "name": "html",
          "type": "string"
        }
      ],
      "stateMutability": "view",
      "type": "function"
    },
    {
      "inputs": [],
      "name": "owner",
      "outputs": [
        {
          "internalType": "address",
          "name": "",
          "type": "address"
        }
      ],
      "stateMutability": "view",
      "type": "function"
    },
    {
      "inputs": [],
      "name": "renounceOwnership",
      "outputs": [],
      "stateMutability": "nonpayable",
      "type": "function"
    },
    {
      "inputs": [
        {
          "internalType": "string",
          "name": "_author",
          "type": "string"
        }
      ],
      "name": "setAuthor",
      "outputs": [],
      "stateMutability": "nonpayable",
      "type": "function"
    },
    {
      "inputs": [
        {
          "internalType": "string",
          "name": "_text",
          "type": "string"
        }
      ],
      "name": "setTextPt1",
      "outputs": [],
      "stateMutability": "nonpayable",
      "type": "function"
    },
    {
      "inputs": [
        {
          "internalType": "string",
          "name": "_text",
          "type": "string"
        }
      ],
      "name": "setTextPt2",
      "outputs": [],
      "stateMutability": "nonpayable",
      "type": "function"
    },
    {
      "inputs": [
        {
          "internalType": "string",
          "name": "_title",
          "type": "string"
        }
      ],
      "name": "setTitle",
      "outputs": [],
      "stateMutability": "nonpayable",
      "type": "function"
    },
    {
      "inputs": [
        {
          "internalType": "string[]",
          "name": "_urls",
          "type": "string[]"
        }
      ],
      "name": "setUrls",
      "outputs": [],
      "stateMutability": "nonpayable",
      "type": "function"
    },
    {
      "inputs": [],
      "name": "text",
      "outputs": [
        {
          "internalType": "string",
          "name": "",
          "type": "string"
        }
      ],
      "stateMutability": "view",
      "type": "function"
    },
    {
      "inputs": [],
      "name": "title",
      "outputs": [
        {
          "internalType": "string",
          "name": "",
          "type": "string"
        }
      ],
      "stateMutability": "view",
      "type": "function"
    },
    {
      "inputs": [
        {
          "internalType": "address",
          "name": "newOwner",
          "type": "address"
        }
      ],
      "name": "transferOwnership",
      "outputs": [],
      "stateMutability": "nonpayable",
      "type": "function"
    },
    {
      "inputs": [],
      "name": "urls",
      "outputs": [
        {
          "internalType": "string[]",
          "name": "",
          "type": "string[]"
        }
      ],
      "stateMutability": "view",
      "type": "function"
    }
  ],
  "transactionHash": "0x2d78359cc8c5c17baac41a1a74c41053f7c609252b091c0fb30617f461ef9869",
  "args": [],
  "numDeployments": 3,
  "solcInputHash": "19f409b47ff878bf088b008f733cf30d",
  "bytecode": "0x60806040526040518060400160405280600781526020017f6d616c74656672000000000000000000000000000000000000000000000000008152506004908161004891906103f2565b5034801561005557600080fd5b5033600073ffffffffffffffffffffffffffffffffffffffff168173ffffffffffffffffffffffffffffffffffffffff16036100c95760006040517f1e4fbdf70000000000000000000000000000000000000000000000000000000081526004016100c09190610505565b60405180910390fd5b6100d8816100de60201b60201c565b50610520565b60008060009054906101000a900473ffffffffffffffffffffffffffffffffffffffff169050816000806101000a81548173ffffffffffffffffffffffffffffffffffffffff021916908373ffffffffffffffffffffffffffffffffffffffff1602179055508173ffffffffffffffffffffffffffffffffffffffff168173ffffffffffffffffffffffffffffffffffffffff167f8be0079c531659141344cd1fd0a4f28419497f9722a3daafe3b4186f6b6457e060405160405180910390a35050565b600081519050919050565b7f4e487b7100000000000000000000000000000000000000000000000000000000600052604160045260246000fd5b7f4e487b7100000000000000000000000000000000000000000000000000000000600052602260045260246000fd5b6000600282049050600182168061022357607f821691505b602082108103610236576102356101dc565b5b50919050565b60008190508160005260206000209050919050565b60006020601f8301049050919050565b600082821b905092915050565b60006008830261029e7fffffffffffffffffffffffffffffffffffffffffffffffffffffffffffffffff82610261565b6102a88683610261565b95508019841693508086168417925050509392505050565b6000819050919050565b6000819050919050565b60006102ef6102ea6102e5846102c0565b6102ca565b6102c0565b9050919050565b6000819050919050565b610309836102d4565b61031d610315826102f6565b84845461026e565b825550505050565b600090565b610332610325565b61033d818484610300565b505050565b5b818110156103615761035660008261032a565b600181019050610343565b5050565b601f8211156103a6576103778161023c565b61038084610251565b8101602085101561038f578190505b6103a361039b85610251565b830182610342565b50505b505050565b600082821c905092915050565b60006103c9600019846008026103ab565b1980831691505092915050565b60006103e283836103b8565b9150826002028217905092915050565b6103fb826101a2565b67ffffffffffffffff811115610414576104136101ad565b5b61041e825461020b565b610429828285610365565b600060209050601f83116001811461045c576000841561044a578287015190505b61045485826103d6565b8655506104bc565b601f19841661046a8661023c565b60005b828110156104925784890151825560018201915060208501945060208101905061046d565b868310156104af57848901516104ab601f8916826103b8565b8355505b6001600288020188555050505b505050505050565b600073ffffffffffffffffffffffffffffffffffffffff82169050919050565b60006104ef826104c4565b9050919050565b6104ff816104e4565b82525050565b600060208201905061051a60008301846104f6565b92915050565b61191d8061052f6000396000f3fe608060405234801561001057600080fd5b50600436106100ea5760003560e01c80636cc895a91161008c5780638da5cb5b116100665780638da5cb5b146101ff578063b4207d781461021d578063da0321cd14610239578063f2fde38b14610257576100ea565b80636cc895a9146101bd578063715018a6146101d957806372910be0146101e3576100ea565b80632c73dc4a116100c85780632c73dc4a1461014757806333c34ac3146101655780633fe14e03146101835780634a79d50c1461019f576100ea565b8063037598b5146100ef5780631f1bd6921461010b57806328411ae114610129575b600080fd5b61010960048036038101906101049190610e38565b610273565b005b6101136102c7565b6040516101209190610f00565b60405180910390f35b61013161041e565b60405161013e919061102e565b60405180910390f35b61014f61051e565b60405161015c919061102e565b60405180910390f35b61016d6105f7565b60405161017a9190610f00565b60405180910390f35b61019d60048036038101906101989190610e38565b610792565b005b6101a76107ad565b6040516101b49190610f00565b60405180910390f35b6101d760048036038101906101d29190611136565b61083f565b005b6101e1610861565b005b6101fd60048036038101906101f89190610e38565b610875565b005b610207610890565b60405161021491906111c0565b60405180910390f35b61023760048036038101906102329190610e38565b6108b9565b005b61024161090d565b60405161024e9190611299565b60405180910390f35b610271600480360381019061026c91906112e7565b6109b3565b005b61027b610a39565b61028481610ac0565b600260006101000a81548173ffffffffffffffffffffffffffffffffffffffff021916908373ffffffffffffffffffffffffffffffffffffffff16021790555050565b6060600073ffffffffffffffffffffffffffffffffffffffff16600160009054906101000a900473ffffffffffffffffffffffffffffffffffffffff1673ffffffffffffffffffffffffffffffffffffffff16036103365760405180602001604052806000815250905061041b565b610361600160009054906101000a900473ffffffffffffffffffffffffffffffffffffffff16610b07565b600073ffffffffffffffffffffffffffffffffffffffff16600260009054906101000a900473ffffffffffffffffffffffffffffffffffffffff1673ffffffffffffffffffffffffffffffffffffffff16146103e7576103e2600260009054906101000a900473ffffffffffffffffffffffffffffffffffffffff16610b07565b6103f8565b604051806020016040528060008152505b604051602001610409929190611350565b60405160208183030381529060405290505b90565b6060600167ffffffffffffffff81111561043b5761043a610d0d565b5b60405190808252806020026020018201604052801561046e57816020015b60608152602001906001900390816104595790505b5090506004805461047e906113a3565b80601f01602080910402602001604051908101604052809291908181526020018280546104aa906113a3565b80156104f75780601f106104cc576101008083540402835291602001916104f7565b820191906000526020600020905b8154815290600101906020018083116104da57829003601f168201915b5050505050816000815181106105105761050f6113d4565b5b602002602001018190525090565b60606005805480602002602001604051908101604052809291908181526020016000905b828210156105ee578382906000526020600020018054610561906113a3565b80601f016020809104026020016040519081016040528092919081815260200182805461058d906113a3565b80156105da5780601f106105af576101008083540402835291602001916105da565b820191906000526020600020905b8154815290600101906020018083116105bd57829003601f168201915b505050505081526020019060010190610542565b50505050905090565b6060600361060361041e565b600081518110610616576106156113d4565b5b6020026020010151600073ffffffffffffffffffffffffffffffffffffffff16600160009054906101000a900473ffffffffffffffffffffffffffffffffffffffff1673ffffffffffffffffffffffffffffffffffffffff161461075b5761069f600160009054906101000a900473ffffffffffffffffffffffffffffffffffffffff16610b07565b600073ffffffffffffffffffffffffffffffffffffffff16600260009054906101000a900473ffffffffffffffffffffffffffffffffffffffff1673ffffffffffffffffffffffffffffffffffffffff161461072557610720600260009054906101000a900473ffffffffffffffffffffffffffffffffffffffff16610b07565b610736565b604051806020016040528060008152505b604051602001610747929190611350565b60405160208183030381529060405261076c565b604051806020016040528060008152505b60405160200161077e939291906115cb565b604051602081830303815290604052905090565b61079a610a39565b80600490816107a99190611815565b5050565b6060600380546107bc906113a3565b80601f01602080910402602001604051908101604052809291908181526020018280546107e8906113a3565b80156108355780601f1061080a57610100808354040283529160200191610835565b820191906000526020600020905b81548152906001019060200180831161081857829003601f168201915b5050505050905090565b610847610a39565b806005908051906020019061085d929190610c04565b5050565b610869610a39565b6108736000610b38565b565b61087d610a39565b806003908161088c9190611815565b5050565b60008060009054906101000a900473ffffffffffffffffffffffffffffffffffffffff16905090565b6108c1610a39565b6108ca81610ac0565b600160006101000a81548173ffffffffffffffffffffffffffffffffffffffff021916908373ffffffffffffffffffffffffffffffffffffffff16021790555050565b60606000600167ffffffffffffffff81111561092c5761092b610d0d565b5b60405190808252806020026020018201604052801561095a5781602001602082028036833780820191505090505b5090503081600081518110610972576109716113d4565b5b602002602001019073ffffffffffffffffffffffffffffffffffffffff16908173ffffffffffffffffffffffffffffffffffffffff16815250508091505090565b6109bb610a39565b600073ffffffffffffffffffffffffffffffffffffffff168173ffffffffffffffffffffffffffffffffffffffff1603610a2d5760006040517f1e4fbdf7000000000000000000000000000000000000000000000000000000008152600401610a2491906111c0565b60405180910390fd5b610a3681610b38565b50565b610a41610bfc565b73ffffffffffffffffffffffffffffffffffffffff16610a5f610890565b73ffffffffffffffffffffffffffffffffffffffff1614610abe57610a82610bfc565b6040517f118cdaa7000000000000000000000000000000000000000000000000000000008152600401610ab591906111c0565b60405180910390fd5b565b600081518060401b6bfe61000180600a3d393df3000161fffe8211840152600b8101601584016000f0915081610afe5763301164256000526004601cfd5b80835250919050565b6060604051905064ffffffffff6001833b0316602181016000601f8401853c80825260408201810160405250919050565b60008060009054906101000a900473ffffffffffffffffffffffffffffffffffffffff169050816000806101000a81548173ffffffffffffffffffffffffffffffffffffffff021916908373ffffffffffffffffffffffffffffffffffffffff1602179055508173ffffffffffffffffffffffffffffffffffffffff168173ffffffffffffffffffffffffffffffffffffffff167f8be0079c531659141344cd1fd0a4f28419497f9722a3daafe3b4186f6b6457e060405160405180910390a35050565b600033905090565b828054828255906000526020600020908101928215610c4c579160200282015b82811115610c4b578251829081610c3b9190611815565b5091602001919060010190610c24565b5b509050610c599190610c5d565b5090565b5b80821115610c7d5760008181610c749190610c81565b50600101610c5e565b5090565b508054610c8d906113a3565b6000825580601f10610c9f5750610cbe565b601f016020900490600052602060002090810190610cbd9190610cc1565b5b50565b5b80821115610cda576000816000905550600101610cc2565b5090565b6000604051905090565b600080fd5b600080fd5b600080fd5b600080fd5b6000601f19601f8301169050919050565b7f4e487b7100000000000000000000000000000000000000000000000000000000600052604160045260246000fd5b610d4582610cfc565b810181811067ffffffffffffffff82111715610d6457610d63610d0d565b5b80604052505050565b6000610d77610cde565b9050610d838282610d3c565b919050565b600067ffffffffffffffff821115610da357610da2610d0d565b5b610dac82610cfc565b9050602081019050919050565b82818337600083830152505050565b6000610ddb610dd684610d88565b610d6d565b905082815260208101848484011115610df757610df6610cf7565b5b610e02848285610db9565b509392505050565b600082601f830112610e1f57610e1e610cf2565b5b8135610e2f848260208601610dc8565b91505092915050565b600060208284031215610e4e57610e4d610ce8565b5b600082013567ffffffffffffffff811115610e6c57610e6b610ced565b5b610e7884828501610e0a565b91505092915050565b600081519050919050565b600082825260208201905092915050565b60005b83811015610ebb578082015181840152602081019050610ea0565b60008484015250505050565b6000610ed282610e81565b610edc8185610e8c565b9350610eec818560208601610e9d565b610ef581610cfc565b840191505092915050565b60006020820190508181036000830152610f1a8184610ec7565b905092915050565b600081519050919050565b600082825260208201905092915050565b6000819050602082019050919050565b600082825260208201905092915050565b6000610f6a82610e81565b610f748185610f4e565b9350610f84818560208601610e9d565b610f8d81610cfc565b840191505092915050565b6000610fa48383610f5f565b905092915050565b6000602082019050919050565b6000610fc482610f22565b610fce8185610f2d565b935083602082028501610fe085610f3e565b8060005b8581101561101c5784840389528151610ffd8582610f98565b945061100883610fac565b925060208a01995050600181019050610fe4565b50829750879550505050505092915050565b600060208201905081810360008301526110488184610fb9565b905092915050565b600067ffffffffffffffff82111561106b5761106a610d0d565b5b602082029050602081019050919050565b600080fd5b600061109461108f84611050565b610d6d565b905080838252602082019050602084028301858111156110b7576110b661107c565b5b835b818110156110fe57803567ffffffffffffffff8111156110dc576110db610cf2565b5b8086016110e98982610e0a565b855260208501945050506020810190506110b9565b5050509392505050565b600082601f83011261111d5761111c610cf2565b5b813561112d848260208601611081565b91505092915050565b60006020828403121561114c5761114b610ce8565b5b600082013567ffffffffffffffff81111561116a57611169610ced565b5b61117684828501611108565b91505092915050565b600073ffffffffffffffffffffffffffffffffffffffff82169050919050565b60006111aa8261117f565b9050919050565b6111ba8161119f565b82525050565b60006020820190506111d560008301846111b1565b92915050565b600081519050919050565b600082825260208201905092915050565b6000819050602082019050919050565b6112108161119f565b82525050565b60006112228383611207565b60208301905092915050565b6000602082019050919050565b6000611246826111db565b61125081856111e6565b935061125b836111f7565b8060005b8381101561128c5781516112738882611216565b975061127e8361122e565b92505060018101905061125f565b5085935050505092915050565b600060208201905081810360008301526112b3818461123b565b905092915050565b6112c48161119f565b81146112cf57600080fd5b50565b6000813590506112e1816112bb565b92915050565b6000602082840312156112fd576112fc610ce8565b5b600061130b848285016112d2565b91505092915050565b600081905092915050565b600061132a82610e81565b6113348185611314565b9350611344818560208601610e9d565b80840191505092915050565b600061135c828561131f565b9150611368828461131f565b91508190509392505050565b7f4e487b7100000000000000000000000000000000000000000000000000000000600052602260045260246000fd5b600060028204905060018216806113bb57607f821691505b6020821081036113ce576113cd611374565b5b50919050565b7f4e487b7100000000000000000000000000000000000000000000000000000000600052603260045260246000fd5b7f3c68313e00000000000000000000000000000000000000000000000000000000815250565b60008190508160005260206000209050919050565b6000815461144b816113a3565b6114558186611314565b945060018216600081146114705760018114611485576114b8565b60ff19831686528115158202860193506114b8565b61148e85611429565b60005b838110156114b057815481890152600182019150602081019050611491565b838801955050505b50505092915050565b7f3c2f68313e000000000000000000000000000000000000000000000000000000815250565b7f3c62723e3c62723e3c62723e0000000000000000000000000000000000000000815250565b7f3c68323e3c693e5772697474656e206279200000000000000000000000000000815250565b7f3c2f693e3c2f68323e0000000000000000000000000000000000000000000000815250565b7f3c62723e3c62723e000000000000000000000000000000000000000000000000815250565b7f3c6469763e000000000000000000000000000000000000000000000000000000815250565b7f3c2f6469763e0000000000000000000000000000000000000000000000000000815250565b60006115d682611403565b6004820191506115e6828661143e565b91506115f1826114c1565b600582019150611600826114e7565b600c8201915061160f8261150d565b60128201915061161f828561131f565b915061162a82611533565b60098201915061163982611559565b6008820191506116488261157f565b600582019150611658828461131f565b9150611663826115a5565b600682019150819050949350505050565b60006020601f8301049050919050565b600082821b905092915050565b6000600883026116c17fffffffffffffffffffffffffffffffffffffffffffffffffffffffffffffffff82611684565b6116cb8683611684565b95508019841693508086168417925050509392505050565b6000819050919050565b6000819050919050565b600061171261170d611708846116e3565b6116ed565b6116e3565b9050919050565b6000819050919050565b61172c836116f7565b61174061173882611719565b848454611691565b825550505050565b600090565b611755611748565b611760818484611723565b505050565b5b818110156117845761177960008261174d565b600181019050611766565b5050565b601f8211156117c95761179a81611429565b6117a384611674565b810160208510156117b2578190505b6117c66117be85611674565b830182611765565b50505b505050565b600082821c905092915050565b60006117ec600019846008026117ce565b1980831691505092915050565b600061180583836117db565b9150826002028217905092915050565b61181e82610e81565b67ffffffffffffffff81111561183757611836610d0d565b5b61184182546113a3565b61184c828285611788565b600060209050601f83116001811461187f576000841561186d578287015190505b61187785826117f9565b8655506118df565b601f19841661188d86611429565b60005b828110156118b557848901518255600182019150602085019450602081019050611890565b868310156118d257848901516118ce601f8916826117db565b8355505b6001600288020188555050505b50505050505056fea2646970667358221220a24704288042bd9e6cb53d750e02a43572e863f417d0d67c2644448011acc5e664736f6c634300081c0033",
  "devdoc": {
    "errors": {
      "OwnableInvalidOwner(address)": [
        {
          "details": "The owner is not a valid owner account. (eg. `address(0)`)"
        }
      ],
      "OwnableUnauthorizedAccount(address)": [
        {
          "details": "The caller account is not authorized to perform an operation."
        }
      ]
    },
    "kind": "dev",
    "methods": {
      "owner()": {
        "details": "Returns the address of the current owner."
      },
      "renounceOwnership()": {
        "details": "Leaves the contract without owner. It will not be possible to call `onlyOwner` functions. Can only be called by the current owner. NOTE: Renouncing ownership will leave the contract without an owner, thereby disabling any functionality that is only available to the owner."
      },
      "transferOwnership(address)": {
        "details": "Transfers ownership of the contract to a new account (`newOwner`). Can only be called by the current owner."
      }
    },
    "version": 1
  },
  "userdoc": {
    "kind": "user",
    "methods": {},
    "version": 1
  },
  "storageLayout": {
    "storage": [
      {
        "astId": 224,
        "contract": "contracts/Essay.sol:Essay",
        "label": "_owner",
        "offset": 0,
        "slot": "0",
        "type": "t_address"
      },
      {
        "astId": 489,
        "contract": "contracts/Essay.sol:Essay",
        "label": "pointer1",
        "offset": 0,
        "slot": "1",
        "type": "t_address"
      },
      {
        "astId": 491,
        "contract": "contracts/Essay.sol:Essay",
        "label": "pointer2",
        "offset": 0,
        "slot": "2",
        "type": "t_address"
      },
      {
        "astId": 493,
        "contract": "contracts/Essay.sol:Essay",
        "label": "t",
        "offset": 0,
        "slot": "3",
        "type": "t_string_storage"
      },
      {
        "astId": 496,
        "contract": "contracts/Essay.sol:Essay",
        "label": "a",
        "offset": 0,
        "slot": "4",
        "type": "t_string_storage"
      },
      {
        "astId": 499,
        "contract": "contracts/Essay.sol:Essay",
        "label": "u",
        "offset": 0,
        "slot": "5",
        "type": "t_array(t_string_storage)dyn_storage"
      }
    ],
    "types": {
      "t_address": {
        "encoding": "inplace",
        "label": "address",
        "numberOfBytes": "20"
      },
      "t_array(t_string_storage)dyn_storage": {
        "base": "t_string_storage",
        "encoding": "dynamic_array",
        "label": "string[]",
        "numberOfBytes": "32"
      },
      "t_string_storage": {
        "encoding": "bytes",
        "label": "string",
        "numberOfBytes": "32"
      }
    }
  }
}