{
  "address": "0x2823b245E777cF98fF32C4703358e3510707CC1f",
  "abi": [
    {
      "inputs": [],
      "stateMutability": "nonpayable",
      "type": "constructor"
    },
    {
      "inputs": [],
      "name": "AlreadyInitialized",
      "type": "error"
    },
    {
      "inputs": [],
      "name": "NewOwnerIsZeroAddress",
      "type": "error"
    },
    {
      "inputs": [],
      "name": "NoHandoverRequest",
      "type": "error"
    },
    {
      "inputs": [],
      "name": "Unauthorized",
      "type": "error"
    },
    {
      "anonymous": false,
      "inputs": [
        {
          "indexed": true,
          "internalType": "address",
          "name": "pendingOwner",
          "type": "address"
        }
      ],
      "name": "OwnershipHandoverCanceled",
      "type": "event"
    },
    {
      "anonymous": false,
      "inputs": [
        {
          "indexed": true,
          "internalType": "address",
          "name": "pendingOwner",
          "type": "address"
        }
      ],
      "name": "OwnershipHandoverRequested",
      "type": "event"
    },
    {
      "anonymous": false,
      "inputs": [
        {
          "indexed": true,
          "internalType": "address",
          "name": "oldOwner",
          "type": "address"
        },
        {
          "indexed": true,
          "internalType": "address",
          "name": "newOwner",
          "type": "address"
        }
      ],
      "name": "OwnershipTransferred",
      "type": "event"
    },
    {
      "inputs": [],
      "name": "addresses",
      "outputs": [
        {
          "internalType": "address[]",
          "name": "",
          "type": "address[]"
        }
      ],
      "stateMutability": "view",
      "type": "function"
    },
    {
      "inputs": [],
      "name": "authors",
      "outputs": [
        {
          "internalType": "string[]",
          "name": "authors_",
          "type": "string[]"
        }
      ],
      "stateMutability": "view",
      "type": "function"
    },
    {
      "inputs": [],
      "name": "cancelOwnershipHandover",
      "outputs": [],
      "stateMutability": "payable",
      "type": "function"
    },
    {
      "inputs": [
        {
          "internalType": "address",
          "name": "pendingOwner",
          "type": "address"
        }
      ],
      "name": "completeOwnershipHandover",
      "outputs": [],
      "stateMutability": "payable",
      "type": "function"
    },
    {
      "inputs": [],
      "name": "html",
      "outputs": [
        {
          "internalType": "string",
          "name": "html",
          "type": "string"
        }
      ],
      "stateMutability": "view",
      "type": "function"
    },
    {
      "inputs": [],
      "name": "owner",
      "outputs": [
        {
          "internalType": "address",
          "name": "result",
          "type": "address"
        }
      ],
      "stateMutability": "view",
      "type": "function"
    },
    {
      "inputs": [
        {
          "internalType": "address",
          "name": "pendingOwner",
          "type": "address"
        }
      ],
      "name": "ownershipHandoverExpiresAt",
      "outputs": [
        {
          "internalType": "uint256",
          "name": "result",
          "type": "uint256"
        }
      ],
      "stateMutability": "view",
      "type": "function"
    },
    {
      "inputs": [],
      "name": "renounceOwnership",
      "outputs": [],
      "stateMutability": "payable",
      "type": "function"
    },
    {
      "inputs": [],
      "name": "requestOwnershipHandover",
      "outputs": [],
      "stateMutability": "payable",
      "type": "function"
    },
    {
      "inputs": [
        {
          "internalType": "string",
          "name": "_author",
          "type": "string"
        }
      ],
      "name": "setAuthor",
      "outputs": [],
      "stateMutability": "nonpayable",
      "type": "function"
    },
    {
      "inputs": [
        {
          "internalType": "string",
          "name": "_text",
          "type": "string"
        }
      ],
      "name": "setTextPt1",
      "outputs": [],
      "stateMutability": "nonpayable",
      "type": "function"
    },
    {
      "inputs": [
        {
          "internalType": "string",
          "name": "_text",
          "type": "string"
        }
      ],
      "name": "setTextPt2",
      "outputs": [],
      "stateMutability": "nonpayable",
      "type": "function"
    },
    {
      "inputs": [
        {
          "internalType": "string",
          "name": "_title",
          "type": "string"
        }
      ],
      "name": "setTitle",
      "outputs": [],
      "stateMutability": "nonpayable",
      "type": "function"
    },
    {
      "inputs": [
        {
          "internalType": "string[]",
          "name": "_urls",
          "type": "string[]"
        }
      ],
      "name": "setUrls",
      "outputs": [],
      "stateMutability": "nonpayable",
      "type": "function"
    },
    {
      "inputs": [],
      "name": "text",
      "outputs": [
        {
          "internalType": "string",
          "name": "",
          "type": "string"
        }
      ],
      "stateMutability": "view",
      "type": "function"
    },
    {
      "inputs": [],
      "name": "title",
      "outputs": [
        {
          "internalType": "string",
          "name": "",
          "type": "string"
        }
      ],
      "stateMutability": "view",
      "type": "function"
    },
    {
      "inputs": [
        {
          "internalType": "address",
          "name": "newOwner",
          "type": "address"
        }
      ],
      "name": "transferOwnership",
      "outputs": [],
      "stateMutability": "payable",
      "type": "function"
    },
    {
      "inputs": [],
      "name": "urls",
      "outputs": [
        {
          "internalType": "string[]",
          "name": "",
          "type": "string[]"
        }
      ],
      "stateMutability": "view",
      "type": "function"
    }
  ],
  "transactionHash": "0x74615f204a90e2fed7e2e010a5c8367de6a5da7812dd15c9d3f15c256f979fd0",
  "args": [],
  "numDeployments": 4,
  "solcInputHash": "9d50ad9a0c3c9bb1300410f38f0c6082",
  "bytecode": "0x60806040526040518060400160405280600781526020017f6d616c74656672000000000000000000000000000000000000000000000000008152506003908161004891906103a0565b5034801561005557600080fd5b506100653361006a60201b60201c565b610472565b61007861014b60201b60201c565b156100f3577fffffffffffffffffffffffffffffffffffffffffffffffffffffffff748739278054156100b357630dc149f06000526004601cfd5b8160601b60601c9150811560ff1b821781558160007f8be0079c531659141344cd1fd0a4f28419497f9722a3daafe3b4186f6b6457e0600080a350610148565b8060601b60601c9050807fffffffffffffffffffffffffffffffffffffffffffffffffffffffff74873927558060007f8be0079c531659141344cd1fd0a4f28419497f9722a3daafe3b4186f6b6457e0600080a35b50565b600090565b600081519050919050565b7f4e487b7100000000000000000000000000000000000000000000000000000000600052604160045260246000fd5b7f4e487b7100000000000000000000000000000000000000000000000000000000600052602260045260246000fd5b600060028204905060018216806101d157607f821691505b6020821081036101e4576101e361018a565b5b50919050565b60008190508160005260206000209050919050565b60006020601f8301049050919050565b600082821b905092915050565b60006008830261024c7fffffffffffffffffffffffffffffffffffffffffffffffffffffffffffffffff8261020f565b610256868361020f565b95508019841693508086168417925050509392505050565b6000819050919050565b6000819050919050565b600061029d6102986102938461026e565b610278565b61026e565b9050919050565b6000819050919050565b6102b783610282565b6102cb6102c3826102a4565b84845461021c565b825550505050565b600090565b6102e06102d3565b6102eb8184846102ae565b505050565b5b8181101561030f576103046000826102d8565b6001810190506102f1565b5050565b601f82111561035457610325816101ea565b61032e846101ff565b8101602085101561033d578190505b610351610349856101ff565b8301826102f0565b50505b505050565b600082821c905092915050565b600061037760001984600802610359565b1980831691505092915050565b60006103908383610366565b9150826002028217905092915050565b6103a982610150565b67ffffffffffffffff8111156103c2576103c161015b565b5b6103cc82546101b9565b6103d7828285610313565b600060209050601f83116001811461040a57600084156103f8578287015190505b6104028582610384565b86555061046a565b601f198416610418866101ea565b60005b828110156104405784890151825560018201915060208501945060208101905061041b565b8683101561045d5784890151610459601f891682610366565b8355505b6001600288020188555050505b505050505050565b611ab3806104816000396000f3fe6080604052600436106101095760003560e01c80636cc895a911610095578063b4207d7811610064578063b4207d78146102d2578063da0321cd146102fb578063f04e283e14610326578063f2fde38b14610342578063fee81cf41461035e57610109565b80636cc895a91461024b578063715018a61461027457806372910be01461027e5780638da5cb5b146102a757610109565b80632c73dc4a116100dc5780632c73dc4a1461019757806333c34ac3146101c25780633fe14e03146101ed5780634a79d50c1461021657806354d1f13d1461024157610109565b8063037598b51461010e5780631f1bd69214610137578063256929621461016257806328411ae11461016c575b600080fd5b34801561011a57600080fd5b5061013560048036038101906101309190610fa4565b61039b565b005b34801561014357600080fd5b5061014c6103ef565b604051610159919061106c565b60405180910390f35b61016a610542565b005b34801561017857600080fd5b50610181610596565b60405161018e919061119a565b60405180910390f35b3480156101a357600080fd5b506101ac610696565b6040516101b9919061119a565b60405180910390f35b3480156101ce57600080fd5b506101d761076f565b6040516101e4919061106c565b60405180910390f35b3480156101f957600080fd5b50610214600480360381019061020f9190610fa4565b610906565b005b34801561022257600080fd5b5061022b610921565b604051610238919061106c565b60405180910390f35b6102496109b3565b005b34801561025757600080fd5b50610272600480360381019061026d91906112a2565b6109ef565b005b61027c610a11565b005b34801561028a57600080fd5b506102a560048036038101906102a09190610fa4565b610a25565b005b3480156102b357600080fd5b506102bc610a40565b6040516102c9919061132c565b60405180910390f35b3480156102de57600080fd5b506102f960048036038101906102f49190610fa4565b610a69565b005b34801561030757600080fd5b50610310610abc565b60405161031d9190611405565b60405180910390f35b610340600480360381019061033b9190611453565b610b62565b005b61035c60048036038101906103579190611453565b610ba3565b005b34801561036a57600080fd5b5061038560048036038101906103809190611453565b610bcd565b6040516103929190611499565b60405180910390f35b6103a3610be8565b6103ac81610c20565b600160006101000a81548173ffffffffffffffffffffffffffffffffffffffff021916908373ffffffffffffffffffffffffffffffffffffffff16021790555050565b6060600073ffffffffffffffffffffffffffffffffffffffff1660008054906101000a900473ffffffffffffffffffffffffffffffffffffffff1673ffffffffffffffffffffffffffffffffffffffff160361045c5760405180602001604052806000815250905061053f565b61048560008054906101000a900473ffffffffffffffffffffffffffffffffffffffff16610c67565b600073ffffffffffffffffffffffffffffffffffffffff16600160009054906101000a900473ffffffffffffffffffffffffffffffffffffffff1673ffffffffffffffffffffffffffffffffffffffff161461050b57610506600160009054906101000a900473ffffffffffffffffffffffffffffffffffffffff16610c67565b61051c565b604051806020016040528060008152505b60405160200161052d9291906114f0565b60405160208183030381529060405290505b90565b600061054c610c98565b67ffffffffffffffff164201905063389a75e1600c5233600052806020600c2055337fdbf36a107da19e49527a7176a1babf963b4b0ff8cde35ee35d6cd8f1f9ac7e1d600080a250565b6060600167ffffffffffffffff8111156105b3576105b2610e79565b5b6040519080825280602002602001820160405280156105e657816020015b60608152602001906001900390816105d15790505b509050600380546105f690611543565b80601f016020809104026020016040519081016040528092919081815260200182805461062290611543565b801561066f5780601f106106445761010080835404028352916020019161066f565b820191906000526020600020905b81548152906001019060200180831161065257829003601f168201915b50505050508160008151811061068857610687611574565b5b602002602001018190525090565b60606004805480602002602001604051908101604052809291908181526020016000905b828210156107665783829060005260206000200180546106d990611543565b80601f016020809104026020016040519081016040528092919081815260200182805461070590611543565b80156107525780601f1061072757610100808354040283529160200191610752565b820191906000526020600020905b81548152906001019060200180831161073557829003601f168201915b5050505050815260200190600101906106ba565b50505050905090565b6060600261077b610596565b60008151811061078e5761078d611574565b5b6020026020010151600073ffffffffffffffffffffffffffffffffffffffff1660008054906101000a900473ffffffffffffffffffffffffffffffffffffffff1673ffffffffffffffffffffffffffffffffffffffff16146108cf5761081360008054906101000a900473ffffffffffffffffffffffffffffffffffffffff16610c67565b600073ffffffffffffffffffffffffffffffffffffffff16600160009054906101000a900473ffffffffffffffffffffffffffffffffffffffff1673ffffffffffffffffffffffffffffffffffffffff161461089957610894600160009054906101000a900473ffffffffffffffffffffffffffffffffffffffff16610c67565b6108aa565b604051806020016040528060008152505b6040516020016108bb9291906114f0565b6040516020818303038152906040526108e0565b604051806020016040528060008152505b6040516020016108f29392919061176b565b604051602081830303815290604052905090565b61090e610be8565b806003908161091d91906119ab565b5050565b60606002805461093090611543565b80601f016020809104026020016040519081016040528092919081815260200182805461095c90611543565b80156109a95780601f1061097e576101008083540402835291602001916109a9565b820191906000526020600020905b81548152906001019060200180831161098c57829003601f168201915b5050505050905090565b63389a75e1600c523360005260006020600c2055337ffa7b8eab7da67f412cc9575ed43464468f9bfbae89d1675917346ca6d8fe3c92600080a2565b6109f7610be8565b8060049080519060200190610a0d929190610d70565b5050565b610a19610be8565b610a236000610ca3565b565b610a2d610be8565b8060029081610a3c91906119ab565b5050565b60007fffffffffffffffffffffffffffffffffffffffffffffffffffffffff7487392754905090565b610a71610be8565b610a7a81610c20565b6000806101000a81548173ffffffffffffffffffffffffffffffffffffffff021916908373ffffffffffffffffffffffffffffffffffffffff16021790555050565b60606000600167ffffffffffffffff811115610adb57610ada610e79565b5b604051908082528060200260200182016040528015610b095781602001602082028036833780820191505090505b5090503081600081518110610b2157610b20611574565b5b602002602001019073ffffffffffffffffffffffffffffffffffffffff16908173ffffffffffffffffffffffffffffffffffffffff16815250508091505090565b610b6a610be8565b63389a75e1600c52806000526020600c208054421115610b9257636f5e88186000526004601cfd5b6000815550610ba081610ca3565b50565b610bab610be8565b8060601b610bc157637448fbae6000526004601cfd5b610bca81610ca3565b50565b600063389a75e1600c52816000526020600c20549050919050565b7fffffffffffffffffffffffffffffffffffffffffffffffffffffffff74873927543314610c1e576382b429006000526004601cfd5b565b600081518060401b6bfe61000180600a3d393df3000161fffe8211840152600b8101601584016000f0915081610c5e5763301164256000526004601cfd5b80835250919050565b6060604051905064ffffffffff6001833b0316602181016000601f8401853c80825260408201810160405250919050565b60006202a300905090565b610cab610d6b565b15610d11577fffffffffffffffffffffffffffffffffffffffffffffffffffffffff748739278160601b60601c91508181547f8be0079c531659141344cd1fd0a4f28419497f9722a3daafe3b4186f6b6457e0600080a3811560ff1b8217815550610d68565b7fffffffffffffffffffffffffffffffffffffffffffffffffffffffff748739278160601b60601c91508181547f8be0079c531659141344cd1fd0a4f28419497f9722a3daafe3b4186f6b6457e0600080a3818155505b50565b600090565b828054828255906000526020600020908101928215610db8579160200282015b82811115610db7578251829081610da791906119ab565b5091602001919060010190610d90565b5b509050610dc59190610dc9565b5090565b5b80821115610de95760008181610de09190610ded565b50600101610dca565b5090565b508054610df990611543565b6000825580601f10610e0b5750610e2a565b601f016020900490600052602060002090810190610e299190610e2d565b5b50565b5b80821115610e46576000816000905550600101610e2e565b5090565b6000604051905090565b600080fd5b600080fd5b600080fd5b600080fd5b6000601f19601f8301169050919050565b7f4e487b7100000000000000000000000000000000000000000000000000000000600052604160045260246000fd5b610eb182610e68565b810181811067ffffffffffffffff82111715610ed057610ecf610e79565b5b80604052505050565b6000610ee3610e4a565b9050610eef8282610ea8565b919050565b600067ffffffffffffffff821115610f0f57610f0e610e79565b5b610f1882610e68565b9050602081019050919050565b82818337600083830152505050565b6000610f47610f4284610ef4565b610ed9565b905082815260208101848484011115610f6357610f62610e63565b5b610f6e848285610f25565b509392505050565b600082601f830112610f8b57610f8a610e5e565b5b8135610f9b848260208601610f34565b91505092915050565b600060208284031215610fba57610fb9610e54565b5b600082013567ffffffffffffffff811115610fd857610fd7610e59565b5b610fe484828501610f76565b91505092915050565b600081519050919050565b600082825260208201905092915050565b60005b8381101561102757808201518184015260208101905061100c565b60008484015250505050565b600061103e82610fed565b6110488185610ff8565b9350611058818560208601611009565b61106181610e68565b840191505092915050565b600060208201905081810360008301526110868184611033565b905092915050565b600081519050919050565b600082825260208201905092915050565b6000819050602082019050919050565b600082825260208201905092915050565b60006110d682610fed565b6110e081856110ba565b93506110f0818560208601611009565b6110f981610e68565b840191505092915050565b600061111083836110cb565b905092915050565b6000602082019050919050565b60006111308261108e565b61113a8185611099565b93508360208202850161114c856110aa565b8060005b8581101561118857848403895281516111698582611104565b945061117483611118565b925060208a01995050600181019050611150565b50829750879550505050505092915050565b600060208201905081810360008301526111b48184611125565b905092915050565b600067ffffffffffffffff8211156111d7576111d6610e79565b5b602082029050602081019050919050565b600080fd5b60006112006111fb846111bc565b610ed9565b90508083825260208201905060208402830185811115611223576112226111e8565b5b835b8181101561126a57803567ffffffffffffffff81111561124857611247610e5e565b5b8086016112558982610f76565b85526020850194505050602081019050611225565b5050509392505050565b600082601f83011261128957611288610e5e565b5b81356112998482602086016111ed565b91505092915050565b6000602082840312156112b8576112b7610e54565b5b600082013567ffffffffffffffff8111156112d6576112d5610e59565b5b6112e284828501611274565b91505092915050565b600073ffffffffffffffffffffffffffffffffffffffff82169050919050565b6000611316826112eb565b9050919050565b6113268161130b565b82525050565b6000602082019050611341600083018461131d565b92915050565b600081519050919050565b600082825260208201905092915050565b6000819050602082019050919050565b61137c8161130b565b82525050565b600061138e8383611373565b60208301905092915050565b6000602082019050919050565b60006113b282611347565b6113bc8185611352565b93506113c783611363565b8060005b838110156113f85781516113df8882611382565b97506113ea8361139a565b9250506001810190506113cb565b5085935050505092915050565b6000602082019050818103600083015261141f81846113a7565b905092915050565b6114308161130b565b811461143b57600080fd5b50565b60008135905061144d81611427565b92915050565b60006020828403121561146957611468610e54565b5b60006114778482850161143e565b91505092915050565b6000819050919050565b61149381611480565b82525050565b60006020820190506114ae600083018461148a565b92915050565b600081905092915050565b60006114ca82610fed565b6114d481856114b4565b93506114e4818560208601611009565b80840191505092915050565b60006114fc82856114bf565b915061150882846114bf565b91508190509392505050565b7f4e487b7100000000000000000000000000000000000000000000000000000000600052602260045260246000fd5b6000600282049050600182168061155b57607f821691505b60208210810361156e5761156d611514565b5b50919050565b7f4e487b7100000000000000000000000000000000000000000000000000000000600052603260045260246000fd5b7f3c68313e00000000000000000000000000000000000000000000000000000000815250565b60008190508160005260206000209050919050565b600081546115eb81611543565b6115f581866114b4565b94506001821660008114611610576001811461162557611658565b60ff1983168652811515820286019350611658565b61162e856115c9565b60005b8381101561165057815481890152600182019150602081019050611631565b838801955050505b50505092915050565b7f3c2f68313e000000000000000000000000000000000000000000000000000000815250565b7f3c62722f3e3c62722f3e3c62722f3e0000000000000000000000000000000000815250565b7f3c68323e3c693e5772697474656e206279200000000000000000000000000000815250565b7f3c2f693e3c2f68323e0000000000000000000000000000000000000000000000815250565b7f3c62722f3e3c62722f3e00000000000000000000000000000000000000000000815250565b7f3c6469763e000000000000000000000000000000000000000000000000000000815250565b7f3c2f6469763e0000000000000000000000000000000000000000000000000000815250565b6000611776826115a3565b60048201915061178682866115de565b915061179182611661565b6005820191506117a082611687565b600f820191506117af826116ad565b6012820191506117bf82856114bf565b91506117ca826116d3565b6009820191506117d9826116f9565b600a820191506117e88261171f565b6005820191506117f882846114bf565b915061180382611745565b600682019150819050949350505050565b60006020601f8301049050919050565b600082821b905092915050565b6000600883026118617fffffffffffffffffffffffffffffffffffffffffffffffffffffffffffffffff82611824565b61186b8683611824565b95508019841693508086168417925050509392505050565b6000819050919050565b60006118a86118a361189e84611480565b611883565b611480565b9050919050565b6000819050919050565b6118c28361188d565b6118d66118ce826118af565b848454611831565b825550505050565b600090565b6118eb6118de565b6118f68184846118b9565b505050565b5b8181101561191a5761190f6000826118e3565b6001810190506118fc565b5050565b601f82111561195f57611930816115c9565b61193984611814565b81016020851015611948578190505b61195c61195485611814565b8301826118fb565b50505b505050565b600082821c905092915050565b600061198260001984600802611964565b1980831691505092915050565b600061199b8383611971565b9150826002028217905092915050565b6119b482610fed565b67ffffffffffffffff8111156119cd576119cc610e79565b5b6119d78254611543565b6119e282828561191e565b600060209050601f831160018114611a155760008415611a03578287015190505b611a0d858261198f565b865550611a75565b601f198416611a23866115c9565b60005b82811015611a4b57848901518255600182019150602085019450602081019050611a26565b86831015611a685784890151611a64601f891682611971565b8355505b6001600288020188555050505b50505050505056fea2646970667358221220cbe772fee00db4799cd54c99265ac4e6f525c42fc3d5eb1716162bd19555597864736f6c634300081c0033",
  "devdoc": {
    "errors": {
      "AlreadyInitialized()": [
        {
          "details": "Cannot double-initialize."
        }
      ],
      "NewOwnerIsZeroAddress()": [
        {
          "details": "The `newOwner` cannot be the zero address."
        }
      ],
      "NoHandoverRequest()": [
        {
          "details": "The `pendingOwner` does not have a valid handover request."
        }
      ],
      "Unauthorized()": [
        {
          "details": "The caller is not authorized to call the function."
        }
      ]
    },
    "events": {
      "OwnershipHandoverCanceled(address)": {
        "details": "The ownership handover to `pendingOwner` has been canceled."
      },
      "OwnershipHandoverRequested(address)": {
        "details": "An ownership handover to `pendingOwner` has been requested."
      },
      "OwnershipTransferred(address,address)": {
        "details": "The ownership is transferred from `oldOwner` to `newOwner`. This event is intentionally kept the same as OpenZeppelin's Ownable to be compatible with indexers and [EIP-173](https://eips.ethereum.org/EIPS/eip-173), despite it not being as lightweight as a single argument event."
      }
    },
    "kind": "dev",
    "methods": {
      "cancelOwnershipHandover()": {
        "details": "Cancels the two-step ownership handover to the caller, if any."
      },
      "completeOwnershipHandover(address)": {
        "details": "Allows the owner to complete the two-step ownership handover to `pendingOwner`. Reverts if there is no existing ownership handover requested by `pendingOwner`."
      },
      "owner()": {
        "details": "Returns the owner of the contract."
      },
      "ownershipHandoverExpiresAt(address)": {
        "details": "Returns the expiry timestamp for the two-step ownership handover to `pendingOwner`."
      },
      "renounceOwnership()": {
        "details": "Allows the owner to renounce their ownership."
      },
      "requestOwnershipHandover()": {
        "details": "Request a two-step ownership handover to the caller. The request will automatically expire in 48 hours (172800 seconds) by default."
      },
      "transferOwnership(address)": {
        "details": "Allows the owner to transfer the ownership to `newOwner`."
      }
    },
    "version": 1
  },
  "userdoc": {
    "kind": "user",
    "methods": {},
    "version": 1
  },
  "storageLayout": {
    "storage": [
      {
        "astId": 311,
        "contract": "contracts/Essay.sol:Essay",
        "label": "pointer1",
        "offset": 0,
        "slot": "0",
        "type": "t_address"
      },
      {
        "astId": 313,
        "contract": "contracts/Essay.sol:Essay",
        "label": "pointer2",
        "offset": 0,
        "slot": "1",
        "type": "t_address"
      },
      {
        "astId": 315,
        "contract": "contracts/Essay.sol:Essay",
        "label": "t",
        "offset": 0,
        "slot": "2",
        "type": "t_string_storage"
      },
      {
        "astId": 318,
        "contract": "contracts/Essay.sol:Essay",
        "label": "a",
        "offset": 0,
        "slot": "3",
        "type": "t_string_storage"
      },
      {
        "astId": 321,
        "contract": "contracts/Essay.sol:Essay",
        "label": "u",
        "offset": 0,
        "slot": "4",
        "type": "t_array(t_string_storage)dyn_storage"
      }
    ],
    "types": {
      "t_address": {
        "encoding": "inplace",
        "label": "address",
        "numberOfBytes": "20"
      },
      "t_array(t_string_storage)dyn_storage": {
        "base": "t_string_storage",
        "encoding": "dynamic_array",
        "label": "string[]",
        "numberOfBytes": "32"
      },
      "t_string_storage": {
        "encoding": "bytes",
        "label": "string",
        "numberOfBytes": "32"
      }
    }
  }
}