{
  "address": "0xe2bD8Db092BcCE6e8Ef2032A3877ef03Fc735823",
  "abi": [
    {
      "inputs": [],
      "stateMutability": "nonpayable",
      "type": "constructor"
    },
    {
      "inputs": [],
      "name": "AlreadyInitialized",
      "type": "error"
    },
    {
      "inputs": [],
      "name": "NewOwnerIsZeroAddress",
      "type": "error"
    },
    {
      "inputs": [],
      "name": "NoHandoverRequest",
      "type": "error"
    },
    {
      "inputs": [],
      "name": "Unauthorized",
      "type": "error"
    },
    {
      "anonymous": false,
      "inputs": [
        {
          "indexed": true,
          "internalType": "address",
          "name": "pendingOwner",
          "type": "address"
        }
      ],
      "name": "OwnershipHandoverCanceled",
      "type": "event"
    },
    {
      "anonymous": false,
      "inputs": [
        {
          "indexed": true,
          "internalType": "address",
          "name": "pendingOwner",
          "type": "address"
        }
      ],
      "name": "OwnershipHandoverRequested",
      "type": "event"
    },
    {
      "anonymous": false,
      "inputs": [
        {
          "indexed": true,
          "internalType": "address",
          "name": "oldOwner",
          "type": "address"
        },
        {
          "indexed": true,
          "internalType": "address",
          "name": "newOwner",
          "type": "address"
        }
      ],
      "name": "OwnershipTransferred",
      "type": "event"
    },
    {
      "inputs": [],
      "name": "addresses",
      "outputs": [
        {
          "internalType": "address[]",
          "name": "",
          "type": "address[]"
        }
      ],
      "stateMutability": "view",
      "type": "function"
    },
    {
      "inputs": [],
      "name": "authors",
      "outputs": [
        {
          "internalType": "string[]",
          "name": "authors_",
          "type": "string[]"
        }
      ],
      "stateMutability": "view",
      "type": "function"
    },
    {
      "inputs": [],
      "name": "cancelOwnershipHandover",
      "outputs": [],
      "stateMutability": "payable",
      "type": "function"
    },
    {
      "inputs": [
        {
          "internalType": "address",
          "name": "pendingOwner",
          "type": "address"
        }
      ],
      "name": "completeOwnershipHandover",
      "outputs": [],
      "stateMutability": "payable",
      "type": "function"
    },
    {
      "inputs": [],
      "name": "html",
      "outputs": [
        {
          "internalType": "string",
          "name": "html",
          "type": "string"
        }
      ],
      "stateMutability": "view",
      "type": "function"
    },
    {
      "inputs": [],
      "name": "owner",
      "outputs": [
        {
          "internalType": "address",
          "name": "result",
          "type": "address"
        }
      ],
      "stateMutability": "view",
      "type": "function"
    },
    {
      "inputs": [
        {
          "internalType": "address",
          "name": "pendingOwner",
          "type": "address"
        }
      ],
      "name": "ownershipHandoverExpiresAt",
      "outputs": [
        {
          "internalType": "uint256",
          "name": "result",
          "type": "uint256"
        }
      ],
      "stateMutability": "view",
      "type": "function"
    },
    {
      "inputs": [],
      "name": "renounceOwnership",
      "outputs": [],
      "stateMutability": "payable",
      "type": "function"
    },
    {
      "inputs": [],
      "name": "requestOwnershipHandover",
      "outputs": [],
      "stateMutability": "payable",
      "type": "function"
    },
    {
      "inputs": [
        {
          "internalType": "string",
          "name": "_author",
          "type": "string"
        }
      ],
      "name": "setAuthor",
      "outputs": [],
      "stateMutability": "nonpayable",
      "type": "function"
    },
    {
      "inputs": [
        {
          "internalType": "string",
          "name": "_text",
          "type": "string"
        }
      ],
      "name": "setText",
      "outputs": [],
      "stateMutability": "nonpayable",
      "type": "function"
    },
    {
      "inputs": [
        {
          "internalType": "string",
          "name": "_title",
          "type": "string"
        }
      ],
      "name": "setTitle",
      "outputs": [],
      "stateMutability": "nonpayable",
      "type": "function"
    },
    {
      "inputs": [
        {
          "internalType": "string[]",
          "name": "_urls",
          "type": "string[]"
        }
      ],
      "name": "setUrls",
      "outputs": [],
      "stateMutability": "nonpayable",
      "type": "function"
    },
    {
      "inputs": [],
      "name": "text",
      "outputs": [
        {
          "internalType": "string",
          "name": "",
          "type": "string"
        }
      ],
      "stateMutability": "view",
      "type": "function"
    },
    {
      "inputs": [],
      "name": "title",
      "outputs": [
        {
          "internalType": "string",
          "name": "",
          "type": "string"
        }
      ],
      "stateMutability": "view",
      "type": "function"
    },
    {
      "inputs": [
        {
          "internalType": "address",
          "name": "newOwner",
          "type": "address"
        }
      ],
      "name": "transferOwnership",
      "outputs": [],
      "stateMutability": "payable",
      "type": "function"
    },
    {
      "inputs": [],
      "name": "urls",
      "outputs": [
        {
          "internalType": "string[]",
          "name": "",
          "type": "string[]"
        }
      ],
      "stateMutability": "view",
      "type": "function"
    }
  ],
  "transactionHash": "0x2672fb954ecccd4e4686883bd641ee7197213248dabd54c1354e35f69acdfbce",
  "args": [],
  "numDeployments": 3,
  "solcInputHash": "d2ab2470e668b964ce3d9f64e720954f",
  "bytecode": "0x60806040526040518060400160405280600781526020017f6d616c74656672000000000000000000000000000000000000000000000000008152506002908161004891906103a0565b5034801561005557600080fd5b506100653361006a60201b60201c565b610472565b61007861014b60201b60201c565b156100f3577fffffffffffffffffffffffffffffffffffffffffffffffffffffffff748739278054156100b357630dc149f06000526004601cfd5b8160601b60601c9150811560ff1b821781558160007f8be0079c531659141344cd1fd0a4f28419497f9722a3daafe3b4186f6b6457e0600080a350610148565b8060601b60601c9050807fffffffffffffffffffffffffffffffffffffffffffffffffffffffff74873927558060007f8be0079c531659141344cd1fd0a4f28419497f9722a3daafe3b4186f6b6457e0600080a35b50565b600090565b600081519050919050565b7f4e487b7100000000000000000000000000000000000000000000000000000000600052604160045260246000fd5b7f4e487b7100000000000000000000000000000000000000000000000000000000600052602260045260246000fd5b600060028204905060018216806101d157607f821691505b6020821081036101e4576101e361018a565b5b50919050565b60008190508160005260206000209050919050565b60006020601f8301049050919050565b600082821b905092915050565b60006008830261024c7fffffffffffffffffffffffffffffffffffffffffffffffffffffffffffffffff8261020f565b610256868361020f565b95508019841693508086168417925050509392505050565b6000819050919050565b6000819050919050565b600061029d6102986102938461026e565b610278565b61026e565b9050919050565b6000819050919050565b6102b783610282565b6102cb6102c3826102a4565b84845461021c565b825550505050565b600090565b6102e06102d3565b6102eb8184846102ae565b505050565b5b8181101561030f576103046000826102d8565b6001810190506102f1565b5050565b601f82111561035457610325816101ea565b61032e846101ff565b8101602085101561033d578190505b610351610349856101ff565b8301826102f0565b50505b505050565b600082821c905092915050565b600061037760001984600802610359565b1980831691505092915050565b60006103908383610366565b9150826002028217905092915050565b6103a982610150565b67ffffffffffffffff8111156103c2576103c161015b565b5b6103cc82546101b9565b6103d7828285610313565b600060209050601f83116001811461040a57600084156103f8578287015190505b6104028582610384565b86555061046a565b601f198416610418866101ea565b60005b828110156104405784890151825560018201915060208501945060208101905061041b565b8683101561045d5784890151610459601f891682610366565b8355505b6001600288020188555050505b505050505050565b611873806104816000396000f3fe6080604052600436106100fe5760003560e01c80635d3a1f9d116100955780638da5cb5b116100645780638da5cb5b1461029c578063da0321cd146102c7578063f04e283e146102f2578063f2fde38b1461030e578063fee81cf41461032a576100fe565b80635d3a1f9d146102175780636cc895a914610240578063715018a61461026957806372910be014610273576100fe565b806333c34ac3116100d157806333c34ac31461018e5780633fe14e03146101b95780634a79d50c146101e257806354d1f13d1461020d576100fe565b80631f1bd69214610103578063256929621461012e57806328411ae1146101385780632c73dc4a14610163575b600080fd5b34801561010f57600080fd5b50610118610367565b6040516101259190610ce4565b60405180910390f35b610136610403565b005b34801561014457600080fd5b5061014d610457565b60405161015a9190610e12565b60405180910390f35b34801561016f57600080fd5b50610178610557565b6040516101859190610e12565b60405180910390f35b34801561019a57600080fd5b506101a3610630565b6040516101b09190610ce4565b60405180910390f35b3480156101c557600080fd5b506101e060048036038101906101db9190610f7d565b610710565b005b3480156101ee57600080fd5b506101f761072b565b6040516102049190610ce4565b60405180910390f35b6102156107bd565b005b34801561022357600080fd5b5061023e60048036038101906102399190610f7d565b6107f9565b005b34801561024c57600080fd5b50610267600480360381019061026291906110ac565b61084c565b005b61027161086e565b005b34801561027f57600080fd5b5061029a60048036038101906102959190610f7d565b610882565b005b3480156102a857600080fd5b506102b161089d565b6040516102be9190611136565b60405180910390f35b3480156102d357600080fd5b506102dc6108c6565b6040516102e9919061120f565b60405180910390f35b61030c6004803603810190610307919061125d565b61096c565b005b6103286004803603810190610323919061125d565b6109ad565b005b34801561033657600080fd5b50610351600480360381019061034c919061125d565b6109d7565b60405161035e91906112a3565b60405180910390f35b6060600073ffffffffffffffffffffffffffffffffffffffff1660008054906101000a900473ffffffffffffffffffffffffffffffffffffffff1673ffffffffffffffffffffffffffffffffffffffff16036103d457604051806020016040528060008152509050610400565b6103fd60008054906101000a900473ffffffffffffffffffffffffffffffffffffffff166109f2565b90505b90565b600061040d610a23565b67ffffffffffffffff164201905063389a75e1600c5233600052806020600c2055337fdbf36a107da19e49527a7176a1babf963b4b0ff8cde35ee35d6cd8f1f9ac7e1d600080a250565b6060600167ffffffffffffffff81111561047457610473610e52565b5b6040519080825280602002602001820160405280156104a757816020015b60608152602001906001900390816104925790505b509050600280546104b7906112ed565b80601f01602080910402602001604051908101604052809291908181526020018280546104e3906112ed565b80156105305780601f1061050557610100808354040283529160200191610530565b820191906000526020600020905b81548152906001019060200180831161051357829003601f168201915b5050505050816000815181106105495761054861131e565b5b602002602001018190525090565b60606003805480602002602001604051908101604052809291908181526020016000905b8282101561062757838290600052602060002001805461059a906112ed565b80601f01602080910402602001604051908101604052809291908181526020018280546105c6906112ed565b80156106135780601f106105e857610100808354040283529160200191610613565b820191906000526020600020905b8154815290600101906020018083116105f657829003601f168201915b50505050508152602001906001019061057b565b50505050905090565b6060600161063c610457565b60008151811061064f5761064e61131e565b5b6020026020010151600073ffffffffffffffffffffffffffffffffffffffff1660008054906101000a900473ffffffffffffffffffffffffffffffffffffffff1673ffffffffffffffffffffffffffffffffffffffff16146106d9576106d460008054906101000a900473ffffffffffffffffffffffffffffffffffffffff166109f2565b6106ea565b604051806020016040528060008152505b6040516020016106fc9392919061152b565b604051602081830303815290604052905090565b610718610a2e565b8060029081610727919061176b565b5050565b60606001805461073a906112ed565b80601f0160208091040260200160405190810160405280929190818152602001828054610766906112ed565b80156107b35780601f10610788576101008083540402835291602001916107b3565b820191906000526020600020905b81548152906001019060200180831161079657829003601f168201915b5050505050905090565b63389a75e1600c523360005260006020600c2055337ffa7b8eab7da67f412cc9575ed43464468f9bfbae89d1675917346ca6d8fe3c92600080a2565b610801610a2e565b61080a81610a66565b6000806101000a81548173ffffffffffffffffffffffffffffffffffffffff021916908373ffffffffffffffffffffffffffffffffffffffff16021790555050565b610854610a2e565b806003908051906020019061086a929190610b7a565b5050565b610876610a2e565b6108806000610aad565b565b61088a610a2e565b8060019081610899919061176b565b5050565b60007fffffffffffffffffffffffffffffffffffffffffffffffffffffffff7487392754905090565b60606000600167ffffffffffffffff8111156108e5576108e4610e52565b5b6040519080825280602002602001820160405280156109135781602001602082028036833780820191505090505b509050308160008151811061092b5761092a61131e565b5b602002602001019073ffffffffffffffffffffffffffffffffffffffff16908173ffffffffffffffffffffffffffffffffffffffff16815250508091505090565b610974610a2e565b63389a75e1600c52806000526020600c20805442111561099c57636f5e88186000526004601cfd5b60008155506109aa81610aad565b50565b6109b5610a2e565b8060601b6109cb57637448fbae6000526004601cfd5b6109d481610aad565b50565b600063389a75e1600c52816000526020600c20549050919050565b6060604051905064ffffffffff6001833b0316602181016000601f8401853c80825260408201810160405250919050565b60006202a300905090565b7fffffffffffffffffffffffffffffffffffffffffffffffffffffffff74873927543314610a64576382b429006000526004601cfd5b565b600081518060401b6bfe61000180600a3d393df3000161fffe8211840152600b8101601584016000f0915081610aa45763301164256000526004601cfd5b80835250919050565b610ab5610b75565b15610b1b577fffffffffffffffffffffffffffffffffffffffffffffffffffffffff748739278160601b60601c91508181547f8be0079c531659141344cd1fd0a4f28419497f9722a3daafe3b4186f6b6457e0600080a3811560ff1b8217815550610b72565b7fffffffffffffffffffffffffffffffffffffffffffffffffffffffff748739278160601b60601c91508181547f8be0079c531659141344cd1fd0a4f28419497f9722a3daafe3b4186f6b6457e0600080a3818155505b50565b600090565b828054828255906000526020600020908101928215610bc2579160200282015b82811115610bc1578251829081610bb1919061176b565b5091602001919060010190610b9a565b5b509050610bcf9190610bd3565b5090565b5b80821115610bf35760008181610bea9190610bf7565b50600101610bd4565b5090565b508054610c03906112ed565b6000825580601f10610c155750610c34565b601f016020900490600052602060002090810190610c339190610c37565b5b50565b5b80821115610c50576000816000905550600101610c38565b5090565b600081519050919050565b600082825260208201905092915050565b60005b83811015610c8e578082015181840152602081019050610c73565b60008484015250505050565b6000601f19601f8301169050919050565b6000610cb682610c54565b610cc08185610c5f565b9350610cd0818560208601610c70565b610cd981610c9a565b840191505092915050565b60006020820190508181036000830152610cfe8184610cab565b905092915050565b600081519050919050565b600082825260208201905092915050565b6000819050602082019050919050565b600082825260208201905092915050565b6000610d4e82610c54565b610d588185610d32565b9350610d68818560208601610c70565b610d7181610c9a565b840191505092915050565b6000610d888383610d43565b905092915050565b6000602082019050919050565b6000610da882610d06565b610db28185610d11565b935083602082028501610dc485610d22565b8060005b85811015610e005784840389528151610de18582610d7c565b9450610dec83610d90565b925060208a01995050600181019050610dc8565b50829750879550505050505092915050565b60006020820190508181036000830152610e2c8184610d9d565b905092915050565b6000604051905090565b600080fd5b600080fd5b600080fd5b600080fd5b7f4e487b7100000000000000000000000000000000000000000000000000000000600052604160045260246000fd5b610e8a82610c9a565b810181811067ffffffffffffffff82111715610ea957610ea8610e52565b5b80604052505050565b6000610ebc610e34565b9050610ec88282610e81565b919050565b600067ffffffffffffffff821115610ee857610ee7610e52565b5b610ef182610c9a565b9050602081019050919050565b82818337600083830152505050565b6000610f20610f1b84610ecd565b610eb2565b905082815260208101848484011115610f3c57610f3b610e4d565b5b610f47848285610efe565b509392505050565b600082601f830112610f6457610f63610e48565b5b8135610f74848260208601610f0d565b91505092915050565b600060208284031215610f9357610f92610e3e565b5b600082013567ffffffffffffffff811115610fb157610fb0610e43565b5b610fbd84828501610f4f565b91505092915050565b600067ffffffffffffffff821115610fe157610fe0610e52565b5b602082029050602081019050919050565b600080fd5b600061100a61100584610fc6565b610eb2565b9050808382526020820190506020840283018581111561102d5761102c610ff2565b5b835b8181101561107457803567ffffffffffffffff81111561105257611051610e48565b5b80860161105f8982610f4f565b8552602085019450505060208101905061102f565b5050509392505050565b600082601f83011261109357611092610e48565b5b81356110a3848260208601610ff7565b91505092915050565b6000602082840312156110c2576110c1610e3e565b5b600082013567ffffffffffffffff8111156110e0576110df610e43565b5b6110ec8482850161107e565b91505092915050565b600073ffffffffffffffffffffffffffffffffffffffff82169050919050565b6000611120826110f5565b9050919050565b61113081611115565b82525050565b600060208201905061114b6000830184611127565b92915050565b600081519050919050565b600082825260208201905092915050565b6000819050602082019050919050565b61118681611115565b82525050565b6000611198838361117d565b60208301905092915050565b6000602082019050919050565b60006111bc82611151565b6111c6818561115c565b93506111d18361116d565b8060005b838110156112025781516111e9888261118c565b97506111f4836111a4565b9250506001810190506111d5565b5085935050505092915050565b6000602082019050818103600083015261122981846111b1565b905092915050565b61123a81611115565b811461124557600080fd5b50565b60008135905061125781611231565b92915050565b60006020828403121561127357611272610e3e565b5b600061128184828501611248565b91505092915050565b6000819050919050565b61129d8161128a565b82525050565b60006020820190506112b86000830184611294565b92915050565b7f4e487b7100000000000000000000000000000000000000000000000000000000600052602260045260246000fd5b6000600282049050600182168061130557607f821691505b602082108103611318576113176112be565b5b50919050565b7f4e487b7100000000000000000000000000000000000000000000000000000000600052603260045260246000fd5b7f3c68313e00000000000000000000000000000000000000000000000000000000815250565b600081905092915050565b60008190508160005260206000209050919050565b600081546113a0816112ed565b6113aa8186611373565b945060018216600081146113c557600181146113da5761140d565b60ff198316865281151582028601935061140d565b6113e38561137e565b60005b83811015611405578154818901526001820191506020810190506113e6565b838801955050505b50505092915050565b7f3c2f68313e000000000000000000000000000000000000000000000000000000815250565b7f3c62722f3e000000000000000000000000000000000000000000000000000000815250565b7f3c68323e00000000000000000000000000000000000000000000000000000000815250565b600061149382610c54565b61149d8185611373565b93506114ad818560208601610c70565b80840191505092915050565b7f3c2f68323e000000000000000000000000000000000000000000000000000000815250565b7f3c6469763e000000000000000000000000000000000000000000000000000000815250565b7f3c2f6469763e0000000000000000000000000000000000000000000000000000815250565b60006115368261134d565b6004820191506115468286611393565b915061155182611416565b6005820191506115608261143c565b60058201915061156f82611462565b60048201915061157f8285611488565b915061158a826114b9565b6005820191506115998261143c565b6005820191506115a8826114df565b6005820191506115b88284611488565b91506115c382611505565b600682019150819050949350505050565b60006020601f8301049050919050565b600082821b905092915050565b6000600883026116217fffffffffffffffffffffffffffffffffffffffffffffffffffffffffffffffff826115e4565b61162b86836115e4565b95508019841693508086168417925050509392505050565b6000819050919050565b600061166861166361165e8461128a565b611643565b61128a565b9050919050565b6000819050919050565b6116828361164d565b61169661168e8261166f565b8484546115f1565b825550505050565b600090565b6116ab61169e565b6116b6818484611679565b505050565b5b818110156116da576116cf6000826116a3565b6001810190506116bc565b5050565b601f82111561171f576116f08161137e565b6116f9846115d4565b81016020851015611708578190505b61171c611714856115d4565b8301826116bb565b50505b505050565b600082821c905092915050565b600061174260001984600802611724565b1980831691505092915050565b600061175b8383611731565b9150826002028217905092915050565b61177482610c54565b67ffffffffffffffff81111561178d5761178c610e52565b5b61179782546112ed565b6117a28282856116de565b600060209050601f8311600181146117d557600084156117c3578287015190505b6117cd858261174f565b865550611835565b601f1984166117e38661137e565b60005b8281101561180b578489015182556001820191506020850194506020810190506117e6565b868310156118285784890151611824601f891682611731565b8355505b6001600288020188555050505b50505050505056fea264697066735822122003408da14f26f62de930778a2f5e7309dfbcfff44c7ef2f03939cdb647aa046d64736f6c634300081c0033",
  "devdoc": {
    "errors": {
      "AlreadyInitialized()": [
        {
          "details": "Cannot double-initialize."
        }
      ],
      "NewOwnerIsZeroAddress()": [
        {
          "details": "The `newOwner` cannot be the zero address."
        }
      ],
      "NoHandoverRequest()": [
        {
          "details": "The `pendingOwner` does not have a valid handover request."
        }
      ],
      "Unauthorized()": [
        {
          "details": "The caller is not authorized to call the function."
        }
      ]
    },
    "events": {
      "OwnershipHandoverCanceled(address)": {
        "details": "The ownership handover to `pendingOwner` has been canceled."
      },
      "OwnershipHandoverRequested(address)": {
        "details": "An ownership handover to `pendingOwner` has been requested."
      },
      "OwnershipTransferred(address,address)": {
        "details": "The ownership is transferred from `oldOwner` to `newOwner`. This event is intentionally kept the same as OpenZeppelin's Ownable to be compatible with indexers and [EIP-173](https://eips.ethereum.org/EIPS/eip-173), despite it not being as lightweight as a single argument event."
      }
    },
    "kind": "dev",
    "methods": {
      "cancelOwnershipHandover()": {
        "details": "Cancels the two-step ownership handover to the caller, if any."
      },
      "completeOwnershipHandover(address)": {
        "details": "Allows the owner to complete the two-step ownership handover to `pendingOwner`. Reverts if there is no existing ownership handover requested by `pendingOwner`."
      },
      "owner()": {
        "details": "Returns the owner of the contract."
      },
      "ownershipHandoverExpiresAt(address)": {
        "details": "Returns the expiry timestamp for the two-step ownership handover to `pendingOwner`."
      },
      "renounceOwnership()": {
        "details": "Allows the owner to renounce their ownership."
      },
      "requestOwnershipHandover()": {
        "details": "Request a two-step ownership handover to the caller. The request will automatically expire in 48 hours (172800 seconds) by default."
      },
      "transferOwnership(address)": {
        "details": "Allows the owner to transfer the ownership to `newOwner`."
      }
    },
    "version": 1
  },
  "userdoc": {
    "kind": "user",
    "methods": {},
    "version": 1
  },
  "storageLayout": {
    "storage": [
      {
        "astId": 10,
        "contract": "contracts/Essay.sol:Essay",
        "label": "pointer",
        "offset": 0,
        "slot": "0",
        "type": "t_address"
      },
      {
        "astId": 12,
        "contract": "contracts/Essay.sol:Essay",
        "label": "t",
        "offset": 0,
        "slot": "1",
        "type": "t_string_storage"
      },
      {
        "astId": 15,
        "contract": "contracts/Essay.sol:Essay",
        "label": "a",
        "offset": 0,
        "slot": "2",
        "type": "t_string_storage"
      },
      {
        "astId": 18,
        "contract": "contracts/Essay.sol:Essay",
        "label": "u",
        "offset": 0,
        "slot": "3",
        "type": "t_array(t_string_storage)dyn_storage"
      }
    ],
    "types": {
      "t_address": {
        "encoding": "inplace",
        "label": "address",
        "numberOfBytes": "20"
      },
      "t_array(t_string_storage)dyn_storage": {
        "base": "t_string_storage",
        "encoding": "dynamic_array",
        "label": "string[]",
        "numberOfBytes": "32"
      },
      "t_string_storage": {
        "encoding": "bytes",
        "label": "string",
        "numberOfBytes": "32"
      }
    }
  }
}