{
  "address": "0x7063373b9C51A8e70a63a3b08C3ba7615B1B818e",
  "abi": [
    {
      "inputs": [
        {
          "internalType": "address",
          "name": "_garden",
          "type": "address"
        }
      ],
      "stateMutability": "nonpayable",
      "type": "constructor"
    },
    {
      "inputs": [
        {
          "internalType": "address",
          "name": "owner",
          "type": "address"
        }
      ],
      "name": "OwnableInvalidOwner",
      "type": "error"
    },
    {
      "inputs": [
        {
          "internalType": "address",
          "name": "account",
          "type": "address"
        }
      ],
      "name": "OwnableUnauthorizedAccount",
      "type": "error"
    },
    {
      "anonymous": false,
      "inputs": [
        {
          "indexed": true,
          "internalType": "address",
          "name": "previousOwner",
          "type": "address"
        },
        {
          "indexed": true,
          "internalType": "address",
          "name": "newOwner",
          "type": "address"
        }
      ],
      "name": "OwnershipTransferred",
      "type": "event"
    },
    {
      "inputs": [],
      "name": "garden",
      "outputs": [
        {
          "internalType": "address",
          "name": "",
          "type": "address"
        }
      ],
      "stateMutability": "view",
      "type": "function"
    },
    {
      "inputs": [],
      "name": "owner",
      "outputs": [
        {
          "internalType": "address",
          "name": "",
          "type": "address"
        }
      ],
      "stateMutability": "view",
      "type": "function"
    },
    {
      "inputs": [],
      "name": "renounceOwnership",
      "outputs": [],
      "stateMutability": "nonpayable",
      "type": "function"
    },
    {
      "inputs": [
        {
          "internalType": "address",
          "name": "newOwner",
          "type": "address"
        }
      ],
      "name": "transferOwnership",
      "outputs": [],
      "stateMutability": "nonpayable",
      "type": "function"
    },
    {
      "inputs": [
        {
          "internalType": "address",
          "name": "_to",
          "type": "address"
        }
      ],
      "name": "withdraw",
      "outputs": [],
      "stateMutability": "nonpayable",
      "type": "function"
    }
  ],
  "transactionHash": "0x04e90c2408c4cc10363f6d7afb4cb7b24102f0f0686afb231f2ab944ec71367f",
  "args": [
    "0x6CDb67AeA00347f82Aa1cc926D8B006E9385c83B"
  ],
  "numDeployments": 1,
  "solcInputHash": "5b074e6fd57e6abce186925027563721",
  "bytecode": "0x60a060405234801561001057600080fd5b5060405161072838038061072883398181016040528101906100329190610216565b33600073ffffffffffffffffffffffffffffffffffffffff168173ffffffffffffffffffffffffffffffffffffffff16036100a55760006040517f1e4fbdf700000000000000000000000000000000000000000000000000000000815260040161009c9190610252565b60405180910390fd5b6100b4816100ef60201b60201c565b508073ffffffffffffffffffffffffffffffffffffffff1660808173ffffffffffffffffffffffffffffffffffffffff16815250505061026d565b60008060009054906101000a900473ffffffffffffffffffffffffffffffffffffffff169050816000806101000a81548173ffffffffffffffffffffffffffffffffffffffff021916908373ffffffffffffffffffffffffffffffffffffffff1602179055508173ffffffffffffffffffffffffffffffffffffffff168173ffffffffffffffffffffffffffffffffffffffff167f8be0079c531659141344cd1fd0a4f28419497f9722a3daafe3b4186f6b6457e060405160405180910390a35050565b600080fd5b600073ffffffffffffffffffffffffffffffffffffffff82169050919050565b60006101e3826101b8565b9050919050565b6101f3816101d8565b81146101fe57600080fd5b50565b600081519050610210816101ea565b92915050565b60006020828403121561022c5761022b6101b3565b5b600061023a84828501610201565b91505092915050565b61024c816101d8565b82525050565b60006020820190506102676000830184610243565b92915050565b60805161049a61028e6000396000818160e40152610172015261049a6000f3fe608060405234801561001057600080fd5b50600436106100575760003560e01c806351cff8d91461005c57806356ba88b814610078578063715018a6146100965780638da5cb5b146100a0578063f2fde38b146100be575b600080fd5b6100766004803603810190610071919061040d565b6100da565b005b610080610170565b60405161008d9190610449565b60405180910390f35b61009e610194565b005b6100a86101a8565b6040516100b59190610449565b60405180910390f35b6100d860048036038101906100d3919061040d565b6101d1565b005b6100e2610257565b7f000000000000000000000000000000000000000000000000000000000000000073ffffffffffffffffffffffffffffffffffffffff166351cff8d9826040518263ffffffff1660e01b815260040161013b9190610449565b600060405180830381600087803b15801561015557600080fd5b505af1158015610169573d6000803e3d6000fd5b5050505050565b7f000000000000000000000000000000000000000000000000000000000000000081565b61019c610257565b6101a660006102de565b565b60008060009054906101000a900473ffffffffffffffffffffffffffffffffffffffff16905090565b6101d9610257565b600073ffffffffffffffffffffffffffffffffffffffff168173ffffffffffffffffffffffffffffffffffffffff160361024b5760006040517f1e4fbdf70000000000000000000000000000000000000000000000000000000081526004016102429190610449565b60405180910390fd5b610254816102de565b50565b61025f6103a2565b73ffffffffffffffffffffffffffffffffffffffff1661027d6101a8565b73ffffffffffffffffffffffffffffffffffffffff16146102dc576102a06103a2565b6040517f118cdaa70000000000000000000000000000000000000000000000000000000081526004016102d39190610449565b60405180910390fd5b565b60008060009054906101000a900473ffffffffffffffffffffffffffffffffffffffff169050816000806101000a81548173ffffffffffffffffffffffffffffffffffffffff021916908373ffffffffffffffffffffffffffffffffffffffff1602179055508173ffffffffffffffffffffffffffffffffffffffff168173ffffffffffffffffffffffffffffffffffffffff167f8be0079c531659141344cd1fd0a4f28419497f9722a3daafe3b4186f6b6457e060405160405180910390a35050565b600033905090565b600080fd5b600073ffffffffffffffffffffffffffffffffffffffff82169050919050565b60006103da826103af565b9050919050565b6103ea816103cf565b81146103f557600080fd5b50565b600081359050610407816103e1565b92915050565b600060208284031215610423576104226103aa565b5b6000610431848285016103f8565b91505092915050565b610443816103cf565b82525050565b600060208201905061045e600083018461043a565b9291505056fea2646970667358221220a1d90de88884515618f3ffc8fad1b3f875a75c2dd6149182e3377f887c15553664736f6c634300081c0033",
  "devdoc": {
    "errors": {
      "OwnableInvalidOwner(address)": [
        {
          "details": "The owner is not a valid owner account. (eg. `address(0)`)"
        }
      ],
      "OwnableUnauthorizedAccount(address)": [
        {
          "details": "The caller account is not authorized to perform an operation."
        }
      ]
    },
    "kind": "dev",
    "methods": {
      "owner()": {
        "details": "Returns the address of the current owner."
      },
      "renounceOwnership()": {
        "details": "Leaves the contract without owner. It will not be possible to call `onlyOwner` functions. Can only be called by the current owner. NOTE: Renouncing ownership will leave the contract without an owner, thereby disabling any functionality that is only available to the owner."
      },
      "transferOwnership(address)": {
        "details": "Transfers ownership of the contract to a new account (`newOwner`). Can only be called by the current owner."
      }
    },
    "version": 1
  },
  "userdoc": {
    "kind": "user",
    "methods": {},
    "version": 1
  },
  "storageLayout": {
    "storage": [
      {
        "astId": 8,
        "contract": "contracts/ExternalWithdraw.sol:ExternalWithdraw",
        "label": "_owner",
        "offset": 0,
        "slot": "0",
        "type": "t_address"
      }
    ],
    "types": {
      "t_address": {
        "encoding": "inplace",
        "label": "address",
        "numberOfBytes": "20"
      }
    }
  }
}