{
  "address": "0x637325aD659749575342DDC756F4b4D5CDfdd6bB",
  "abi": [
    {
      "inputs": [
        {
          "internalType": "address[]",
          "name": "_sculptures",
          "type": "address[]"
        },
        {
          "internalType": "address",
          "name": "_render",
          "type": "address"
        },
        {
          "internalType": "address",
          "name": "_data",
          "type": "address"
        }
      ],
      "stateMutability": "nonpayable",
      "type": "constructor"
    },
    {
      "inputs": [],
      "name": "AlreadyInitialized",
      "type": "error"
    },
    {
      "inputs": [],
      "name": "NewOwnerIsZeroAddress",
      "type": "error"
    },
    {
      "inputs": [],
      "name": "NoHandoverRequest",
      "type": "error"
    },
    {
      "inputs": [],
      "name": "Unauthorized",
      "type": "error"
    },
    {
      "anonymous": false,
      "inputs": [
        {
          "indexed": true,
          "internalType": "address",
          "name": "pendingOwner",
          "type": "address"
        }
      ],
      "name": "OwnershipHandoverCanceled",
      "type": "event"
    },
    {
      "anonymous": false,
      "inputs": [
        {
          "indexed": true,
          "internalType": "address",
          "name": "pendingOwner",
          "type": "address"
        }
      ],
      "name": "OwnershipHandoverRequested",
      "type": "event"
    },
    {
      "anonymous": false,
      "inputs": [
        {
          "indexed": true,
          "internalType": "address",
          "name": "oldOwner",
          "type": "address"
        },
        {
          "indexed": true,
          "internalType": "address",
          "name": "newOwner",
          "type": "address"
        }
      ],
      "name": "OwnershipTransferred",
      "type": "event"
    },
    {
      "stateMutability": "payable",
      "type": "fallback"
    },
    {
      "inputs": [],
      "name": "addresses",
      "outputs": [
        {
          "internalType": "address[]",
          "name": "",
          "type": "address[]"
        }
      ],
      "stateMutability": "view",
      "type": "function"
    },
    {
      "inputs": [],
      "name": "authors",
      "outputs": [
        {
          "internalType": "string[]",
          "name": "",
          "type": "string[]"
        }
      ],
      "stateMutability": "view",
      "type": "function"
    },
    {
      "inputs": [],
      "name": "cancelOwnershipHandover",
      "outputs": [],
      "stateMutability": "payable",
      "type": "function"
    },
    {
      "inputs": [
        {
          "internalType": "address",
          "name": "pendingOwner",
          "type": "address"
        }
      ],
      "name": "completeOwnershipHandover",
      "outputs": [],
      "stateMutability": "payable",
      "type": "function"
    },
    {
      "inputs": [],
      "name": "data",
      "outputs": [
        {
          "internalType": "address",
          "name": "",
          "type": "address"
        }
      ],
      "stateMutability": "view",
      "type": "function"
    },
    {
      "inputs": [
        {
          "internalType": "uint256",
          "name": "flowerId",
          "type": "uint256"
        }
      ],
      "name": "flower",
      "outputs": [
        {
          "internalType": "address",
          "name": "",
          "type": "address"
        }
      ],
      "stateMutability": "view",
      "type": "function"
    },
    {
      "inputs": [
        {
          "internalType": "uint256",
          "name": "flowerId",
          "type": "uint256"
        }
      ],
      "name": "flowerInfo",
      "outputs": [
        {
          "internalType": "address",
          "name": "planter",
          "type": "address"
        },
        {
          "internalType": "uint256",
          "name": "timestamp",
          "type": "uint256"
        }
      ],
      "stateMutability": "view",
      "type": "function"
    },
    {
      "inputs": [
        {
          "internalType": "uint256",
          "name": "flowerId",
          "type": "uint256"
        }
      ],
      "name": "flowerPlantedAt",
      "outputs": [
        {
          "internalType": "uint256",
          "name": "",
          "type": "uint256"
        }
      ],
      "stateMutability": "view",
      "type": "function"
    },
    {
      "inputs": [],
      "name": "flowers",
      "outputs": [
        {
          "internalType": "uint256",
          "name": "",
          "type": "uint256"
        }
      ],
      "stateMutability": "view",
      "type": "function"
    },
    {
      "inputs": [
        {
          "internalType": "address",
          "name": "planter",
          "type": "address"
        }
      ],
      "name": "flowersPlanted",
      "outputs": [
        {
          "internalType": "uint256",
          "name": "",
          "type": "uint256"
        }
      ],
      "stateMutability": "view",
      "type": "function"
    },
    {
      "inputs": [],
      "name": "getSculptures",
      "outputs": [
        {
          "internalType": "address[]",
          "name": "",
          "type": "address[]"
        }
      ],
      "stateMutability": "view",
      "type": "function"
    },
    {
      "inputs": [],
      "name": "guests",
      "outputs": [
        {
          "internalType": "uint256",
          "name": "",
          "type": "uint256"
        }
      ],
      "stateMutability": "view",
      "type": "function"
    },
    {
      "inputs": [],
      "name": "html",
      "outputs": [
        {
          "internalType": "string",
          "name": "",
          "type": "string"
        }
      ],
      "stateMutability": "view",
      "type": "function"
    },
    {
      "inputs": [],
      "name": "owner",
      "outputs": [
        {
          "internalType": "address",
          "name": "result",
          "type": "address"
        }
      ],
      "stateMutability": "view",
      "type": "function"
    },
    {
      "inputs": [
        {
          "internalType": "address",
          "name": "pendingOwner",
          "type": "address"
        }
      ],
      "name": "ownershipHandoverExpiresAt",
      "outputs": [
        {
          "internalType": "uint256",
          "name": "result",
          "type": "uint256"
        }
      ],
      "stateMutability": "view",
      "type": "function"
    },
    {
      "inputs": [],
      "name": "render",
      "outputs": [
        {
          "internalType": "address",
          "name": "",
          "type": "address"
        }
      ],
      "stateMutability": "view",
      "type": "function"
    },
    {
      "inputs": [],
      "name": "renounceOwnership",
      "outputs": [],
      "stateMutability": "payable",
      "type": "function"
    },
    {
      "inputs": [
        {
          "internalType": "string[]",
          "name": "resource",
          "type": "string[]"
        },
        {
          "components": [
            {
              "internalType": "string",
              "name": "key",
              "type": "string"
            },
            {
              "internalType": "string",
              "name": "value",
              "type": "string"
            }
          ],
          "internalType": "struct KeyValue[]",
          "name": "params",
          "type": "tuple[]"
        }
      ],
      "name": "request",
      "outputs": [
        {
          "internalType": "uint256",
          "name": "statusCode",
          "type": "uint256"
        },
        {
          "internalType": "string",
          "name": "body",
          "type": "string"
        },
        {
          "components": [
            {
              "internalType": "string",
              "name": "key",
              "type": "string"
            },
            {
              "internalType": "string",
              "name": "value",
              "type": "string"
            }
          ],
          "internalType": "struct KeyValue[]",
          "name": "headers",
          "type": "tuple[]"
        }
      ],
      "stateMutability": "view",
      "type": "function"
    },
    {
      "inputs": [],
      "name": "requestOwnershipHandover",
      "outputs": [],
      "stateMutability": "payable",
      "type": "function"
    },
    {
      "inputs": [],
      "name": "resolveMode",
      "outputs": [
        {
          "internalType": "bytes32",
          "name": "",
          "type": "bytes32"
        }
      ],
      "stateMutability": "view",
      "type": "function"
    },
    {
      "inputs": [
        {
          "internalType": "uint256",
          "name": "",
          "type": "uint256"
        }
      ],
      "name": "sculptures",
      "outputs": [
        {
          "internalType": "address",
          "name": "",
          "type": "address"
        }
      ],
      "stateMutability": "view",
      "type": "function"
    },
    {
      "inputs": [
        {
          "internalType": "address[]",
          "name": "_sculptures",
          "type": "address[]"
        }
      ],
      "name": "setSculptures",
      "outputs": [],
      "stateMutability": "nonpayable",
      "type": "function"
    },
    {
      "inputs": [],
      "name": "text",
      "outputs": [
        {
          "internalType": "string",
          "name": "",
          "type": "string"
        }
      ],
      "stateMutability": "view",
      "type": "function"
    },
    {
      "inputs": [],
      "name": "title",
      "outputs": [
        {
          "internalType": "string",
          "name": "",
          "type": "string"
        }
      ],
      "stateMutability": "pure",
      "type": "function"
    },
    {
      "inputs": [
        {
          "internalType": "address",
          "name": "newOwner",
          "type": "address"
        }
      ],
      "name": "transferOwnership",
      "outputs": [],
      "stateMutability": "payable",
      "type": "function"
    },
    {
      "inputs": [],
      "name": "urls",
      "outputs": [
        {
          "internalType": "string[]",
          "name": "",
          "type": "string[]"
        }
      ],
      "stateMutability": "view",
      "type": "function"
    },
    {
      "inputs": [
        {
          "internalType": "address",
          "name": "_to",
          "type": "address"
        }
      ],
      "name": "withdraw",
      "outputs": [],
      "stateMutability": "nonpayable",
      "type": "function"
    },
    {
      "stateMutability": "payable",
      "type": "receive"
    }
  ],
  "transactionHash": "0x9039888dc8a085f842bc5af8bb40c002d035168d6da40d5daa65d301aaf52daf",
  "args": [
    [],
    "0xf02674a49BF07C1921Ff987aa567094D0790d2Cf",
    "0xbED5aAF0B0777D37DB472096420C3138acE07AdA"
  ],
  "numDeployments": 5,
  "solcInputHash": "1c01cfee9f0ba7277eaa415810a3667d",
  "bytecode": "0x60c060405234801561001057600080fd5b506040516132a53803806132a583398181016040528101906100329190610420565b610041336100c860201b60201c565b82600590805190602001906100579291906101ae565b508173ffffffffffffffffffffffffffffffffffffffff1660a08173ffffffffffffffffffffffffffffffffffffffff16815250508073ffffffffffffffffffffffffffffffffffffffff1660808173ffffffffffffffffffffffffffffffffffffffff168152505050505061048f565b6100d66101a960201b60201c565b15610151577fffffffffffffffffffffffffffffffffffffffffffffffffffffffff7487392780541561011157630dc149f06000526004601cfd5b8160601b60601c9150811560ff1b821781558160007f8be0079c531659141344cd1fd0a4f28419497f9722a3daafe3b4186f6b6457e0600080a3506101a6565b8060601b60601c9050807fffffffffffffffffffffffffffffffffffffffffffffffffffffffff74873927558060007f8be0079c531659141344cd1fd0a4f28419497f9722a3daafe3b4186f6b6457e0600080a35b50565b600090565b828054828255906000526020600020908101928215610227579160200282015b828111156102265782518260006101000a81548173ffffffffffffffffffffffffffffffffffffffff021916908373ffffffffffffffffffffffffffffffffffffffff160217905550916020019190600101906101ce565b5b5090506102349190610238565b5090565b5b80821115610251576000816000905550600101610239565b5090565b6000604051905090565b600080fd5b600080fd5b600080fd5b6000601f19601f8301169050919050565b7f4e487b7100000000000000000000000000000000000000000000000000000000600052604160045260246000fd5b6102b78261026e565b810181811067ffffffffffffffff821117156102d6576102d561027f565b5b80604052505050565b60006102e9610255565b90506102f582826102ae565b919050565b600067ffffffffffffffff8211156103155761031461027f565b5b602082029050602081019050919050565b600080fd5b600073ffffffffffffffffffffffffffffffffffffffff82169050919050565b60006103568261032b565b9050919050565b6103668161034b565b811461037157600080fd5b50565b6000815190506103838161035d565b92915050565b600061039c610397846102fa565b6102df565b905080838252602082019050602084028301858111156103bf576103be610326565b5b835b818110156103e857806103d48882610374565b8452602084019350506020810190506103c1565b5050509392505050565b600082601f83011261040757610406610269565b5b8151610417848260208601610389565b91505092915050565b6000806000606084860312156104395761043861025f565b5b600084015167ffffffffffffffff81111561045757610456610264565b5b610463868287016103f2565b935050602061047486828701610374565b925050604061048586828701610374565b9150509250925092565b60805160a051612dc76104de600039600081816108f601528181610e7d0152818161134d01526118130152600081816109a601528181610d2501528181610de201526111980152612dc76000f3fe6080604052600436106101a05760003560e01c806355735c5e116100ec578063d607497a1161008a578063dd473fae11610064578063dd473fae146107b4578063f04e283e146107df578063f2fde38b146107fb578063fee81cf41461081757610308565b8063d607497a14610721578063da0321cd1461074c578063dc6062fa1461077757610308565b806373d4a13a116100c657806373d4a13a146106505780637e0b1cb51461067b5780638da5cb5b146106b8578063ca6590f7146106e357610308565b806355735c5e146105f0578063706e3da21461061b578063715018a61461064657610308565b806328411ae1116101595780633c655fe3116101335780633c655fe3146105555780634a79d50c1461059257806351cff8d9146105bd57806354d1f13d146105e657610308565b806328411ae1146104d45780632c73dc4a146104ff57806333c34ac31461052a57610308565b8063032a7290146103cf5780630a8ee81d146103f85780630ed40c26146104235780631374c460146104605780631f1bd6921461049f57806325692962146104ca57610308565b3661030857662386f26fc100003410610306576000662386f26fc10000346101c89190611bb8565b90506000600260003373ffffffffffffffffffffffffffffffffffffffff1673ffffffffffffffffffffffffffffffffffffffff168152602001908152602001600020540361022a576001600081548092919061022490611be9565b91905055505b80600260003373ffffffffffffffffffffffffffffffffffffffff1673ffffffffffffffffffffffffffffffffffffffff16815260200190815260200160002060008282546102799190611c31565b92505081905550806000808282546102919190611c31565b9250508190555033600360008054815260200190815260200160002060006101000a81548173ffffffffffffffffffffffffffffffffffffffff021916908373ffffffffffffffffffffffffffffffffffffffff16021790555042600460008054815260200190815260200160002081905550505b005b6103936040516024016040516020818303038152906040527f33c34ac3000000000000000000000000000000000000000000000000000000007bffffffffffffffffffffffffffffffffffffffffffffffffffffffff19166020820180517bffffffffffffffffffffffffffffffffffffffffffffffffffffffff8381831617835250505050610854565b6040517f08c379a00000000000000000000000000000000000000000000000000000000081526004016103c69190611cf5565b60405180910390fd5b3480156103db57600080fd5b506103f660048036038101906103f19190611ed1565b61087a565b005b34801561040457600080fd5b5061040d61089c565b60405161041a9190611f29565b60405180910390f35b34801561042f57600080fd5b5061044a60048036038101906104459190611f44565b6108a6565b6040516104579190611f29565b60405180910390f35b34801561046c57600080fd5b506104876004803603810190610482919061227a565b6108ef565b60405161049693929190612442565b60405180910390f35b3480156104ab57600080fd5b506104b46109a2565b6040516104c19190611cf5565b60405180910390f35b6104d2610a3d565b005b3480156104e057600080fd5b506104e9610a91565b6040516104f69190612549565b60405180910390f35b34801561050b57600080fd5b50610514610dde565b6040516105219190612549565b60405180910390f35b34801561053657600080fd5b5061053f610e79565b60405161054c9190611cf5565b60405180910390f35b34801561056157600080fd5b5061057c60048036038101906105779190612597565b610f14565b6040516105899190611f29565b60405180910390f35b34801561059e57600080fd5b506105a7610fba565b6040516105b49190611cf5565b60405180910390f35b3480156105c957600080fd5b506105e460048036038101906105df9190611f44565b610ff7565b005b6105ee6110af565b005b3480156105fc57600080fd5b506106056110eb565b6040516106129190612682565b60405180910390f35b34801561062757600080fd5b50610630611179565b60405161063d9190611f29565b60405180910390f35b61064e611182565b005b34801561065c57600080fd5b50610665611196565b60405161067291906126b3565b60405180910390f35b34801561068757600080fd5b506106a2600480360381019061069d9190612597565b6111ba565b6040516106af91906126b3565b60405180910390f35b3480156106c457600080fd5b506106cd6111f9565b6040516106da91906126b3565b60405180910390f35b3480156106ef57600080fd5b5061070a60048036038101906107059190612597565b611222565b6040516107189291906126ce565b60405180910390f35b34801561072d57600080fd5b5061073661134b565b60405161074391906126b3565b60405180910390f35b34801561075857600080fd5b5061076161136f565b60405161076e9190612682565b60405180910390f35b34801561078357600080fd5b5061079e60048036038101906107999190612597565b6116fd565b6040516107ab91906126b3565b60405180910390f35b3480156107c057600080fd5b506107c961180f565b6040516107d69190612710565b60405180910390f35b6107f960048036038101906107f49190611f44565b6118a5565b005b61081560048036038101906108109190611f44565b6118e6565b005b34801561082357600080fd5b5061083e60048036038101906108399190611f44565b611910565b60405161084b9190611f29565b60405180910390f35b606061085f8261192b565b90506002815101613078825260028203915080825250919050565b610882611999565b8060059080519060200190610898929190611aa9565b5050565b6000600154905090565b6000600260008373ffffffffffffffffffffffffffffffffffffffff1673ffffffffffffffffffffffffffffffffffffffff168152602001908152602001600020549050919050565b60006060807f000000000000000000000000000000000000000000000000000000000000000073ffffffffffffffffffffffffffffffffffffffff16631374c46086866040518363ffffffff1660e01b815260040161094f92919061272b565b600060405180830381865afa15801561096c573d6000803e3d6000fd5b505050506040513d6000823e3d601f19601f820116820180604052508101906109959190612924565b9250925092509250925092565b60607f000000000000000000000000000000000000000000000000000000000000000073ffffffffffffffffffffffffffffffffffffffff16631f1bd6926040518163ffffffff1660e01b8152600401600060405180830381865afa158015610a0f573d6000803e3d6000fd5b505050506040513d6000823e3d601f19601f82011682018060405250810190610a3891906129af565b905090565b6000610a476119d1565b67ffffffffffffffff164201905063389a75e1600c5233600052806020600c2055337fdbf36a107da19e49527a7176a1babf963b4b0ff8cde35ee35d6cd8f1f9ac7e1d600080a250565b606060006001905060005b600580549050811015610b9557600060058281548110610abf57610abe6129f8565b5b9060005260206000200160009054906101000a900473ffffffffffffffffffffffffffffffffffffffff1673ffffffffffffffffffffffffffffffffffffffff166328411ae16040518163ffffffff1660e01b8152600401600060405180830381865afa158015610b34573d6000803e3d6000fd5b505050506040513d6000823e3d601f19601f82011682018060405250810190610b5d9190612adc565b905060005b8151811015610b86578380610b7690611be9565b9450508080600101915050610b62565b50508080600101915050610a9c565b5060008167ffffffffffffffff811115610bb257610bb1611d30565b5b604051908082528060200260200182016040528015610be557816020015b6060815260200190600190039081610bd05790505b509050600080600090505b600580549050811015610d2257600060058281548110610c1357610c126129f8565b5b9060005260206000200160009054906101000a900473ffffffffffffffffffffffffffffffffffffffff1673ffffffffffffffffffffffffffffffffffffffff166328411ae16040518163ffffffff1660e01b8152600401600060405180830381865afa158015610c88573d6000803e3d6000fd5b505050506040513d6000823e3d601f19601f82011682018060405250810190610cb19190612adc565b905060005b8151811015610d1357818181518110610cd257610cd16129f8565b5b6020026020010151858581518110610ced57610cec6129f8565b5b60200260200101819052508380610d0390611be9565b9450508080600101915050610cb6565b50508080600101915050610bf0565b507f000000000000000000000000000000000000000000000000000000000000000073ffffffffffffffffffffffffffffffffffffffff16635fb4ed2a6040518163ffffffff1660e01b8152600401600060405180830381865afa158015610d8e573d6000803e3d6000fd5b505050506040513d6000823e3d601f19601f82011682018060405250810190610db791906129af565b828281518110610dca57610dc96129f8565b5b602002602001018190525081935050505090565b60607f000000000000000000000000000000000000000000000000000000000000000073ffffffffffffffffffffffffffffffffffffffff16632c73dc4a6040518163ffffffff1660e01b8152600401600060405180830381865afa158015610e4b573d6000803e3d6000fd5b505050506040513d6000823e3d601f19601f82011682018060405250810190610e749190612adc565b905090565b60607f000000000000000000000000000000000000000000000000000000000000000073ffffffffffffffffffffffffffffffffffffffff166333c34ac36040518163ffffffff1660e01b8152600401600060405180830381865afa158015610ee6573d6000803e3d6000fd5b505050506040513d6000823e3d601f19601f82011682018060405250810190610f0f91906129af565b905090565b6000816000108015610f2857506000548211155b610f67576040517f08c379a0000000000000000000000000000000000000000000000000000000008152600401610f5e90612b71565b60405180910390fd5b5b6000548211610f9f576000600460008481526020019081526020016000205403610f9f578180610f9790611be9565b925050610f68565b60046000838152602001908152602001600020549050919050565b60606040518060400160405280601f81526020017f576f726c6420436f6d7075746572205363756c70747572652047617264656e00815250905090565b610fff611999565b60008173ffffffffffffffffffffffffffffffffffffffff164760405161102590612bc2565b60006040518083038185875af1925050503d8060008114611062576040519150601f19603f3d011682016040523d82523d6000602084013e611067565b606091505b50509050806110ab576040517f08c379a00000000000000000000000000000000000000000000000000000000081526004016110a290612c23565b60405180910390fd5b5050565b63389a75e1600c523360005260006020600c2055337ffa7b8eab7da67f412cc9575ed43464468f9bfbae89d1675917346ca6d8fe3c92600080a2565b6060600580548060200260200160405190810160405280929190818152602001828054801561116f57602002820191906000526020600020905b8160009054906101000a900473ffffffffffffffffffffffffffffffffffffffff1673ffffffffffffffffffffffffffffffffffffffff1681526020019060010190808311611125575b5050505050905090565b60008054905090565b61118a611999565b61119460006119dc565b565b7f000000000000000000000000000000000000000000000000000000000000000081565b600581815481106111ca57600080fd5b906000526020600020016000915054906101000a900473ffffffffffffffffffffffffffffffffffffffff1681565b60007fffffffffffffffffffffffffffffffffffffffffffffffffffffffff7487392754905090565b60008082600010801561123757506000548311155b611276576040517f08c379a000000000000000000000000000000000000000000000000000000000815260040161126d90612b71565b60405180910390fd5b5b60005483116112fa57600073ffffffffffffffffffffffffffffffffffffffff166003600085815260200190815260200160002060009054906101000a900473ffffffffffffffffffffffffffffffffffffffff1673ffffffffffffffffffffffffffffffffffffffff16036112fa5782806112f290611be9565b935050611277565b6003600084815260200190815260200160002060009054906101000a900473ffffffffffffffffffffffffffffffffffffffff16600460008581526020019081526020016000205491509150915091565b7f000000000000000000000000000000000000000000000000000000000000000081565b606060006001905060005b6005805490508110156114735760006005828154811061139d5761139c6129f8565b5b9060005260206000200160009054906101000a900473ffffffffffffffffffffffffffffffffffffffff1673ffffffffffffffffffffffffffffffffffffffff1663da0321cd6040518163ffffffff1660e01b8152600401600060405180830381865afa158015611412573d6000803e3d6000fd5b505050506040513d6000823e3d601f19601f8201168201806040525081019061143b9190612cef565b905060005b815181101561146457838061145490611be9565b9450508080600101915050611440565b5050808060010191505061137a565b5060008167ffffffffffffffff8111156114905761148f611d30565b5b6040519080825280602002602001820160405280156114be5781602001602082028036833780820191505090505b50905060006001905030826000815181106114dc576114db6129f8565b5b602002602001019073ffffffffffffffffffffffffffffffffffffffff16908173ffffffffffffffffffffffffffffffffffffffff168152505060005b6005805490508110156116f35760006005828154811061153c5761153b6129f8565b5b9060005260206000200160009054906101000a900473ffffffffffffffffffffffffffffffffffffffff16905060008173ffffffffffffffffffffffffffffffffffffffff1663da0321cd6040518163ffffffff1660e01b8152600401600060405180830381865afa1580156115b6573d6000803e3d6000fd5b505050506040513d6000823e3d601f19601f820116820180604052508101906115df9190612cef565b905060005b81518110156116e3578273ffffffffffffffffffffffffffffffffffffffff1663da0321cd6040518163ffffffff1660e01b8152600401600060405180830381865afa158015611638573d6000803e3d6000fd5b505050506040513d6000823e3d601f19601f820116820180604052508101906116619190612cef565b8181518110611673576116726129f8565b5b602002602001015186868151811061168e5761168d6129f8565b5b602002602001019073ffffffffffffffffffffffffffffffffffffffff16908173ffffffffffffffffffffffffffffffffffffffff168152505084806116d390611be9565b95505080806001019150506115e4565b5050508080600101915050611519565b5081935050505090565b600081600010801561171157506000548211155b611750576040517f08c379a000000000000000000000000000000000000000000000000000000000815260040161174790612b71565b60405180910390fd5b5b60005482116117d457600073ffffffffffffffffffffffffffffffffffffffff166003600084815260200190815260200160002060009054906101000a900473ffffffffffffffffffffffffffffffffffffffff1673ffffffffffffffffffffffffffffffffffffffff16036117d45781806117cc90611be9565b925050611751565b6003600083815260200190815260200160002060009054906101000a900473ffffffffffffffffffffffffffffffffffffffff169050919050565b60007f000000000000000000000000000000000000000000000000000000000000000073ffffffffffffffffffffffffffffffffffffffff1663dd473fae6040518163ffffffff1660e01b8152600401602060405180830381865afa15801561187c573d6000803e3d6000fd5b505050506040513d601f19601f820116820180604052508101906118a09190612d64565b905090565b6118ad611999565b63389a75e1600c52806000526020600c2080544211156118d557636f5e88186000526004601cfd5b60008155506118e3816119dc565b50565b6118ee611999565b8060601b61190457637448fbae6000526004601cfd5b61190d816119dc565b50565b600063389a75e1600c52816000526020600c20549050919050565b60608151600260405101915080810182526f30313233343536373839616263646566600f52602082018184015b80851461198657600185019450600f855116516001830153600f855160041c16518253600282019150611958565b6000825260208201604052505050919050565b7fffffffffffffffffffffffffffffffffffffffffffffffffffffffff748739275433146119cf576382b429006000526004601cfd5b565b60006202a300905090565b6119e4611aa4565b15611a4a577fffffffffffffffffffffffffffffffffffffffffffffffffffffffff748739278160601b60601c91508181547f8be0079c531659141344cd1fd0a4f28419497f9722a3daafe3b4186f6b6457e0600080a3811560ff1b8217815550611aa1565b7fffffffffffffffffffffffffffffffffffffffffffffffffffffffff748739278160601b60601c91508181547f8be0079c531659141344cd1fd0a4f28419497f9722a3daafe3b4186f6b6457e0600080a3818155505b50565b600090565b828054828255906000526020600020908101928215611b22579160200282015b82811115611b215782518260006101000a81548173ffffffffffffffffffffffffffffffffffffffff021916908373ffffffffffffffffffffffffffffffffffffffff16021790555091602001919060010190611ac9565b5b509050611b2f9190611b33565b5090565b5b80821115611b4c576000816000905550600101611b34565b5090565b6000819050919050565b7f4e487b7100000000000000000000000000000000000000000000000000000000600052601260045260246000fd5b7f4e487b7100000000000000000000000000000000000000000000000000000000600052601160045260246000fd5b6000611bc382611b50565b9150611bce83611b50565b925082611bde57611bdd611b5a565b5b828204905092915050565b6000611bf482611b50565b91507fffffffffffffffffffffffffffffffffffffffffffffffffffffffffffffffff8203611c2657611c25611b89565b5b600182019050919050565b6000611c3c82611b50565b9150611c4783611b50565b9250828201905080821115611c5f57611c5e611b89565b5b92915050565b600081519050919050565b600082825260208201905092915050565b60005b83811015611c9f578082015181840152602081019050611c84565b60008484015250505050565b6000601f19601f8301169050919050565b6000611cc782611c65565b611cd18185611c70565b9350611ce1818560208601611c81565b611cea81611cab565b840191505092915050565b60006020820190508181036000830152611d0f8184611cbc565b905092915050565b6000604051905090565b600080fd5b600080fd5b600080fd5b7f4e487b7100000000000000000000000000000000000000000000000000000000600052604160045260246000fd5b611d6882611cab565b810181811067ffffffffffffffff82111715611d8757611d86611d30565b5b80604052505050565b6000611d9a611d17565b9050611da68282611d5f565b919050565b600067ffffffffffffffff821115611dc657611dc5611d30565b5b602082029050602081019050919050565b600080fd5b600073ffffffffffffffffffffffffffffffffffffffff82169050919050565b6000611e0782611ddc565b9050919050565b611e1781611dfc565b8114611e2257600080fd5b50565b600081359050611e3481611e0e565b92915050565b6000611e4d611e4884611dab565b611d90565b90508083825260208201905060208402830185811115611e7057611e6f611dd7565b5b835b81811015611e995780611e858882611e25565b845260208401935050602081019050611e72565b5050509392505050565b600082601f830112611eb857611eb7611d2b565b5b8135611ec8848260208601611e3a565b91505092915050565b600060208284031215611ee757611ee6611d21565b5b600082013567ffffffffffffffff811115611f0557611f04611d26565b5b611f1184828501611ea3565b91505092915050565b611f2381611b50565b82525050565b6000602082019050611f3e6000830184611f1a565b92915050565b600060208284031215611f5a57611f59611d21565b5b6000611f6884828501611e25565b91505092915050565b600067ffffffffffffffff821115611f8c57611f8b611d30565b5b602082029050602081019050919050565b600080fd5b600067ffffffffffffffff821115611fbd57611fbc611d30565b5b611fc682611cab565b9050602081019050919050565b82818337600083830152505050565b6000611ff5611ff084611fa2565b611d90565b90508281526020810184848401111561201157612010611f9d565b5b61201c848285611fd3565b509392505050565b600082601f83011261203957612038611d2b565b5b8135612049848260208601611fe2565b91505092915050565b600061206561206084611f71565b611d90565b9050808382526020820190506020840283018581111561208857612087611dd7565b5b835b818110156120cf57803567ffffffffffffffff8111156120ad576120ac611d2b565b5b8086016120ba8982612024565b8552602085019450505060208101905061208a565b5050509392505050565b600082601f8301126120ee576120ed611d2b565b5b81356120fe848260208601612052565b91505092915050565b600067ffffffffffffffff82111561212257612121611d30565b5b602082029050602081019050919050565b600080fd5b600080fd5b60006040828403121561215357612152612133565b5b61215d6040611d90565b9050600082013567ffffffffffffffff81111561217d5761217c612138565b5b61218984828501612024565b600083015250602082013567ffffffffffffffff8111156121ad576121ac612138565b5b6121b984828501612024565b60208301525092915050565b60006121d86121d384612107565b611d90565b905080838252602082019050602084028301858111156121fb576121fa611dd7565b5b835b8181101561224257803567ffffffffffffffff8111156122205761221f611d2b565b5b80860161222d898261213d565b855260208501945050506020810190506121fd565b5050509392505050565b600082601f83011261226157612260611d2b565b5b81356122718482602086016121c5565b91505092915050565b6000806040838503121561229157612290611d21565b5b600083013567ffffffffffffffff8111156122af576122ae611d26565b5b6122bb858286016120d9565b925050602083013567ffffffffffffffff8111156122dc576122db611d26565b5b6122e88582860161224c565b9150509250929050565b600081519050919050565b600082825260208201905092915050565b6000819050602082019050919050565b600082825260208201905092915050565b600061233a82611c65565b612344818561231e565b9350612354818560208601611c81565b61235d81611cab565b840191505092915050565b60006040830160008301518482036000860152612385828261232f565b9150506020830151848203602086015261239f828261232f565b9150508091505092915050565b60006123b88383612368565b905092915050565b6000602082019050919050565b60006123d8826122f2565b6123e281856122fd565b9350836020820285016123f48561230e565b8060005b85811015612430578484038952815161241185826123ac565b945061241c836123c0565b925060208a019950506001810190506123f8565b50829750879550505050505092915050565b60006060820190506124576000830186611f1a565b81810360208301526124698185611cbc565b9050818103604083015261247d81846123cd565b9050949350505050565b600081519050919050565b600082825260208201905092915050565b6000819050602082019050919050565b60006124bf838361232f565b905092915050565b6000602082019050919050565b60006124df82612487565b6124e98185612492565b9350836020820285016124fb856124a3565b8060005b85811015612537578484038952815161251885826124b3565b9450612523836124c7565b925060208a019950506001810190506124ff565b50829750879550505050505092915050565b6000602082019050818103600083015261256381846124d4565b905092915050565b61257481611b50565b811461257f57600080fd5b50565b6000813590506125918161256b565b92915050565b6000602082840312156125ad576125ac611d21565b5b60006125bb84828501612582565b91505092915050565b600081519050919050565b600082825260208201905092915050565b6000819050602082019050919050565b6125f981611dfc565b82525050565b600061260b83836125f0565b60208301905092915050565b6000602082019050919050565b600061262f826125c4565b61263981856125cf565b9350612644836125e0565b8060005b8381101561267557815161265c88826125ff565b975061266783612617565b925050600181019050612648565b5085935050505092915050565b6000602082019050818103600083015261269c8184612624565b905092915050565b6126ad81611dfc565b82525050565b60006020820190506126c860008301846126a4565b92915050565b60006040820190506126e360008301856126a4565b6126f06020830184611f1a565b9392505050565b6000819050919050565b61270a816126f7565b82525050565b60006020820190506127256000830184612701565b92915050565b6000604082019050818103600083015261274581856124d4565b9050818103602083015261275981846123cd565b90509392505050565b6000815190506127718161256b565b92915050565b600061278a61278584611fa2565b611d90565b9050828152602081018484840111156127a6576127a5611f9d565b5b6127b1848285611c81565b509392505050565b600082601f8301126127ce576127cd611d2b565b5b81516127de848260208601612777565b91505092915050565b6000604082840312156127fd576127fc612133565b5b6128076040611d90565b9050600082015167ffffffffffffffff81111561282757612826612138565b5b612833848285016127b9565b600083015250602082015167ffffffffffffffff81111561285757612856612138565b5b612863848285016127b9565b60208301525092915050565b600061288261287d84612107565b611d90565b905080838252602082019050602084028301858111156128a5576128a4611dd7565b5b835b818110156128ec57805167ffffffffffffffff8111156128ca576128c9611d2b565b5b8086016128d789826127e7565b855260208501945050506020810190506128a7565b5050509392505050565b600082601f83011261290b5761290a611d2b565b5b815161291b84826020860161286f565b91505092915050565b60008060006060848603121561293d5761293c611d21565b5b600061294b86828701612762565b935050602084015167ffffffffffffffff81111561296c5761296b611d26565b5b612978868287016127b9565b925050604084015167ffffffffffffffff81111561299957612998611d26565b5b6129a5868287016128f6565b9150509250925092565b6000602082840312156129c5576129c4611d21565b5b600082015167ffffffffffffffff8111156129e3576129e2611d26565b5b6129ef848285016127b9565b91505092915050565b7f4e487b7100000000000000000000000000000000000000000000000000000000600052603260045260246000fd5b6000612a3a612a3584611f71565b611d90565b90508083825260208201905060208402830185811115612a5d57612a5c611dd7565b5b835b81811015612aa457805167ffffffffffffffff811115612a8257612a81611d2b565b5b808601612a8f89826127b9565b85526020850194505050602081019050612a5f565b5050509392505050565b600082601f830112612ac357612ac2611d2b565b5b8151612ad3848260208601612a27565b91505092915050565b600060208284031215612af257612af1611d21565b5b600082015167ffffffffffffffff811115612b1057612b0f611d26565b5b612b1c84828501612aae565b91505092915050565b7f496e646578206f7574206f6620626f756e647300000000000000000000000000600082015250565b6000612b5b601383611c70565b9150612b6682612b25565b602082019050919050565b60006020820190508181036000830152612b8a81612b4e565b9050919050565b600081905092915050565b50565b6000612bac600083612b91565b9150612bb782612b9c565b600082019050919050565b6000612bcd82612b9f565b9150819050919050565b7f4661696c656420746f2077697468647261770000000000000000000000000000600082015250565b6000612c0d601283611c70565b9150612c1882612bd7565b602082019050919050565b60006020820190508181036000830152612c3c81612c00565b9050919050565b600081519050612c5281611e0e565b92915050565b6000612c6b612c6684611dab565b611d90565b90508083825260208201905060208402830185811115612c8e57612c8d611dd7565b5b835b81811015612cb75780612ca38882612c43565b845260208401935050602081019050612c90565b5050509392505050565b600082601f830112612cd657612cd5611d2b565b5b8151612ce6848260208601612c58565b91505092915050565b600060208284031215612d0557612d04611d21565b5b600082015167ffffffffffffffff811115612d2357612d22611d26565b5b612d2f84828501612cc1565b91505092915050565b612d41816126f7565b8114612d4c57600080fd5b50565b600081519050612d5e81612d38565b92915050565b600060208284031215612d7a57612d79611d21565b5b6000612d8884828501612d4f565b9150509291505056fea2646970667358221220f070ccd824e834d0a4fc8f3d1aa7cc196ec11e3dca21a1d72389ad5ff4587d9264736f6c634300081c0033",
  "devdoc": {
    "errors": {
      "AlreadyInitialized()": [
        {
          "details": "Cannot double-initialize."
        }
      ],
      "NewOwnerIsZeroAddress()": [
        {
          "details": "The `newOwner` cannot be the zero address."
        }
      ],
      "NoHandoverRequest()": [
        {
          "details": "The `pendingOwner` does not have a valid handover request."
        }
      ],
      "Unauthorized()": [
        {
          "details": "The caller is not authorized to call the function."
        }
      ]
    },
    "events": {
      "OwnershipHandoverCanceled(address)": {
        "details": "The ownership handover to `pendingOwner` has been canceled."
      },
      "OwnershipHandoverRequested(address)": {
        "details": "An ownership handover to `pendingOwner` has been requested."
      },
      "OwnershipTransferred(address,address)": {
        "details": "The ownership is transferred from `oldOwner` to `newOwner`. This event is intentionally kept the same as OpenZeppelin's Ownable to be compatible with indexers and [EIP-173](https://eips.ethereum.org/EIPS/eip-173), despite it not being as lightweight as a single argument event."
      }
    },
    "kind": "dev",
    "methods": {
      "cancelOwnershipHandover()": {
        "details": "Cancels the two-step ownership handover to the caller, if any."
      },
      "completeOwnershipHandover(address)": {
        "details": "Allows the owner to complete the two-step ownership handover to `pendingOwner`. Reverts if there is no existing ownership handover requested by `pendingOwner`."
      },
      "owner()": {
        "details": "Returns the owner of the contract."
      },
      "ownershipHandoverExpiresAt(address)": {
        "details": "Returns the expiry timestamp for the two-step ownership handover to `pendingOwner`."
      },
      "renounceOwnership()": {
        "details": "Allows the owner to renounce their ownership."
      },
      "requestOwnershipHandover()": {
        "details": "Request a two-step ownership handover to the caller. The request will automatically expire in 48 hours (172800 seconds) by default."
      },
      "transferOwnership(address)": {
        "details": "Allows the owner to transfer the ownership to `newOwner`."
      }
    },
    "version": 1
  },
  "userdoc": {
    "kind": "user",
    "methods": {},
    "version": 1
  },
  "storageLayout": {
    "storage": [
      {
        "astId": 224,
        "contract": "contracts/Garden.sol:Garden",
        "label": "totalFlowers",
        "offset": 0,
        "slot": "0",
        "type": "t_uint256"
      },
      {
        "astId": 226,
        "contract": "contracts/Garden.sol:Garden",
        "label": "totalGuests",
        "offset": 0,
        "slot": "1",
        "type": "t_uint256"
      },
      {
        "astId": 230,
        "contract": "contracts/Garden.sol:Garden",
        "label": "flowersPlantedBy",
        "offset": 0,
        "slot": "2",
        "type": "t_mapping(t_address,t_uint256)"
      },
      {
        "astId": 234,
        "contract": "contracts/Garden.sol:Garden",
        "label": "flowerBy",
        "offset": 0,
        "slot": "3",
        "type": "t_mapping(t_uint256,t_address)"
      },
      {
        "astId": 238,
        "contract": "contracts/Garden.sol:Garden",
        "label": "flowerTimestamp",
        "offset": 0,
        "slot": "4",
        "type": "t_mapping(t_uint256,t_uint256)"
      },
      {
        "astId": 500,
        "contract": "contracts/Garden.sol:Garden",
        "label": "sculptures",
        "offset": 0,
        "slot": "5",
        "type": "t_array(t_address)dyn_storage"
      }
    ],
    "types": {
      "t_address": {
        "encoding": "inplace",
        "label": "address",
        "numberOfBytes": "20"
      },
      "t_array(t_address)dyn_storage": {
        "base": "t_address",
        "encoding": "dynamic_array",
        "label": "address[]",
        "numberOfBytes": "32"
      },
      "t_mapping(t_address,t_uint256)": {
        "encoding": "mapping",
        "key": "t_address",
        "label": "mapping(address => uint256)",
        "numberOfBytes": "32",
        "value": "t_uint256"
      },
      "t_mapping(t_uint256,t_address)": {
        "encoding": "mapping",
        "key": "t_uint256",
        "label": "mapping(uint256 => address)",
        "numberOfBytes": "32",
        "value": "t_address"
      },
      "t_mapping(t_uint256,t_uint256)": {
        "encoding": "mapping",
        "key": "t_uint256",
        "label": "mapping(uint256 => uint256)",
        "numberOfBytes": "32",
        "value": "t_uint256"
      },
      "t_uint256": {
        "encoding": "inplace",
        "label": "uint256",
        "numberOfBytes": "32"
      }
    }
  }
}