{
  "address": "0xa02DfA12d87403D4F1A3FC3acFb02fbEb4f97F88",
  "abi": [
    {
      "inputs": [
        {
          "internalType": "address",
          "name": "garden",
          "type": "address"
        },
        {
          "internalType": "address",
          "name": "essayContract",
          "type": "address"
        },
        {
          "internalType": "address",
          "name": "data",
          "type": "address"
        }
      ],
      "name": "html",
      "outputs": [
        {
          "internalType": "string",
          "name": "html",
          "type": "string"
        }
      ],
      "stateMutability": "view",
      "type": "function"
    }
  ],
  "transactionHash": "0x07efdc0fcd95409f6b2f1c74f76d501260f91960bce5f5ead4abd10fc802db07",
  "args": [],
  "numDeployments": 10,
  "solcInputHash": "48f0c2c1cda509cf534b4d27d4dfdd3b",
  "bytecode": "0x6131b8610052600b82828239805160001a6073146045577f4e487b7100000000000000000000000000000000000000000000000000000000600052600060045260246000fd5b30600052607381538281f3fe73000000000000000000000000000000000000000030146080604052600436106100355760003560e01c80634b1f91571461003a575b600080fd5b610054600480360381019061004f91906118bd565b61006a565b60405161006191906119a0565b60405180910390f35b606060008473ffffffffffffffffffffffffffffffffffffffff166355735c5e6040518163ffffffff1660e01b8152600401600060405180830381865afa1580156100b9573d6000803e3d6000fd5b505050506040513d6000823e3d601f19601f820116820180604052508101906100e29190611b1f565b9050818573ffffffffffffffffffffffffffffffffffffffff16634a79d50c6040518163ffffffff1660e01b8152600401600060405180830381865afa158015610130573d6000803e3d6000fd5b505050506040513d6000823e3d601f19601f820116820180604052508101906101599190611c0e565b60405160200161016a929190611f65565b604051602081830303815290604052915060005b81518110156102925781818151811061019a5761019961204f565b5b602002602001015173ffffffffffffffffffffffffffffffffffffffff166328411ae16040518163ffffffff1660e01b8152600401600060405180830381865afa92505050801561020e57506040513d6000823e3d601f19601f8201168201806040525081019061020b919061215f565b60015b610239578260405160200161022391906121ce565b6040516020818303038152906040529250610285565b6000815111156102835783816000815181106102585761025761204f565b5b602002602001015160405160200161027192919061221a565b60405160208183030381529060405293505b505b808060010191505061017e565b508161029d86610fdb565b8473ffffffffffffffffffffffffffffffffffffffff166322e032766040518163ffffffff1660e01b8152600401600060405180830381865afa1580156102e8573d6000803e3d6000fd5b505050506040513d6000823e3d601f19601f820116820180604052508101906103119190611c0e565b8573ffffffffffffffffffffffffffffffffffffffff16635fb4ed2a6040518163ffffffff1660e01b8152600401600060405180830381865afa15801561035c573d6000803e3d6000fd5b505050506040513d6000823e3d601f19601f820116820180604052508101906103859190611c0e565b8673ffffffffffffffffffffffffffffffffffffffff1663beb469e56040518163ffffffff1660e01b8152600401600060405180830381865afa1580156103d0573d6000803e3d6000fd5b505050506040513d6000823e3d601f19601f820116820180604052508101906103f99190611c0e565b8773ffffffffffffffffffffffffffffffffffffffff1663265724906040518163ffffffff1660e01b8152600401600060405180830381865afa158015610444573d6000803e3d6000fd5b505050506040513d6000823e3d601f19601f8201168201806040525081019061046d9190611c0e565b8873ffffffffffffffffffffffffffffffffffffffff16631ed7fd296040518163ffffffff1660e01b8152600401600060405180830381865afa1580156104b8573d6000803e3d6000fd5b505050506040513d6000823e3d601f19601f820116820180604052508101906104e19190611c0e565b8973ffffffffffffffffffffffffffffffffffffffff16638951695d6040518163ffffffff1660e01b8152600401600060405180830381865afa15801561052c573d6000803e3d6000fd5b505050506040513d6000823e3d601f19601f820116820180604052508101906105559190611c0e565b8b73ffffffffffffffffffffffffffffffffffffffff16634a79d50c6040518163ffffffff1660e01b8152600401600060405180830381865afa1580156105a0573d6000803e3d6000fd5b505050506040513d6000823e3d601f19601f820116820180604052508101906105c99190611c0e565b8b73ffffffffffffffffffffffffffffffffffffffff1663ba2978ac6040518163ffffffff1660e01b8152600401600060405180830381865afa158015610614573d6000803e3d6000fd5b505050506040513d6000823e3d601f19601f8201168201806040525081019061063d9190611c0e565b8c73ffffffffffffffffffffffffffffffffffffffff1663ede749bd6040518163ffffffff1660e01b8152600401600060405180830381865afa158015610688573d6000803e3d6000fd5b505050506040513d6000823e3d601f19601f820116820180604052508101906106b19190611c0e565b6040516020016106cb9b9a999897969594939291906126e7565b6040516020818303038152906040529150816040516020016106ed9190612954565b6040516020818303038152906040529150818573ffffffffffffffffffffffffffffffffffffffff16631f1bd6926040518163ffffffff1660e01b8152600401600060405180830381865afa15801561074a573d6000803e3d6000fd5b505050506040513d6000823e3d601f19601f820116820180604052508101906107739190611c0e565b6040516020016107849291906129d5565b604051602081830303815290604052915060005b8151811015610de65760008282815181106107b6576107b561204f565b5b60200260200101519050836040516020016107d19190612a17565b60405160208183030381529060405293508073ffffffffffffffffffffffffffffffffffffffff166328411ae16040518163ffffffff1660e01b8152600401600060405180830381865afa92505050801561084f57506040513d6000823e3d601f19601f8201168201806040525081019061084c919061215f565b60015b61087a57836040516020016108649190612a63565b6040516020818303038152906040529350610948565b60008151111561094657846040516020016108959190612aaf565b604051602081830303815290604052945060005b81518110156109225760008282815181106108c7576108c661204f565b5b602002602001015151031561091557858282815181106108ea576108e961204f565b5b602002602001015160405160200161090392919061221a565b60405160208183030381529060405295505b80806001019150506108a9565b50846040516020016109349190612afb565b60405160208183030381529060405294505b505b8073ffffffffffffffffffffffffffffffffffffffff16634a79d50c6040518163ffffffff1660e01b8152600401600060405180830381865afa9250505080156109b557506040513d6000823e3d601f19601f820116820180604052508101906109b29190611c0e565b60015b6109e057836040516020016109ca9190612b47565b6040516020818303038152906040529350610a38565b600081511115610a135784816040516020016109fd929190612bb9565b6040516020818303038152906040529450610a36565b84604051602001610a249190612b47565b60405160208183030381529060405294505b505b8073ffffffffffffffffffffffffffffffffffffffff1663da0321cd6040518163ffffffff1660e01b8152600401600060405180830381865afa925050508015610aa557506040513d6000823e3d601f19601f82011682018060405250810190610aa29190611b1f565b60015b610af45783610acd848481518110610ac057610abf61204f565b5b6020026020010151610fdb565b604051602001610ade929190612c47565b6040516020818303038152906040529350610ba5565b600081511115610ba35784604051602001610b0f9190612c89565b604051602081830303815290604052945060005b8151811015610b7f5785610b50838381518110610b4357610b4261204f565b5b6020026020010151610fdb565b604051602001610b61929190612cfb565b60405160208183030381529060405295508080600101915050610b23565b5084604051602001610b919190612d63565b60405160208183030381529060405294505b505b8073ffffffffffffffffffffffffffffffffffffffff16632c73dc4a6040518163ffffffff1660e01b8152600401600060405180830381865afa925050508015610c1257506040513d6000823e3d601f19601f82011682018060405250810190610c0f919061215f565b60015b15610ced57600081511115610ceb5784604051602001610c329190612c89565b604051602081830303815290604052945060005b8151811015610cc7576000828281518110610c6457610c6361204f565b5b6020026020010151510315610cba5785610c97838381518110610c8a57610c8961204f565b5b6020026020010151611055565b604051602001610ca892919061221a565b60405160208183030381529060405295505b8080600101915050610c46565b5084604051602001610cd99190612d63565b60405160208183030381529060405294505b505b8073ffffffffffffffffffffffffffffffffffffffff16631f1bd6926040518163ffffffff1660e01b8152600401600060405180830381865afa925050508015610d5a57506040513d6000823e3d601f19601f82011682018060405250810190610d579190611c0e565b60015b610d855783604051602001610d6f9190612dfb565b6040516020818303038152906040529350610db6565b600081511115610db4578481604051602001610da2929190612e69565b60405160208183030381529060405294505b505b83604051602001610dc79190612eab565b6040516020818303038152906040529350508080600101915050610798565b508173deAF069091e30FFe2a5b0708f5217298089e0dff63ec34c7a8876040518263ffffffff1660e01b8152600401610e1f9190612ee0565b600060405180830381865af4158015610e3c573d6000803e3d6000fd5b505050506040513d6000823e3d601f19601f82011682018060405250810190610e659190611c0e565b604051602001610e76929190612efb565b604051602081830303815290604052915081610e914361108e565b610e9a30610fdb565b604051602001610eac93929190612fdd565b604051602081830303815290604052915081604051602001610ece9190613037565b604051602081830303815290604052915073E18103E22B4e90E75bcF6a91Cb6DD5630b65585263125a507b838773ffffffffffffffffffffffffffffffffffffffff16634a79d50c6040518163ffffffff1660e01b8152600401600060405180830381865afa158015610f45573d6000803e3d6000fd5b505050506040513d6000823e3d601f19601f82011682018060405250810190610f6e9190611c0e565b6040518363ffffffff1660e01b8152600401610f8b92919061305d565b600060405180830381865af4158015610fa8573d6000803e3d6000fd5b505050506040513d6000823e3d601f19601f82011682018060405250810190610fd19190611c0e565b9150509392505050565b6060610fe6826110df565b905060ff6000190460061b60228201816022026028822016608860f01b60005b6001156110255782811a82028182015260018101905060148103611006575b50838351166000511660011c8351188352602083019250838351166020511660011c835118835250505050919050565b6060600061106283611105565b90508281604051602001611077929190613094565b604051602081830303815290604052915050919050565b60606080604051019050602081016040526000815280600019835b6001156110ca578184019350600a81066030018453600a81049050806110a9575b50828203602084039350808452505050919050565b60606110ea826117c8565b90506002815101613078825260028203915080825250919050565b606060008290506000815190506000808290506005831015801561118857507f6400000000000000000000000000000000000000000000000000000000000000846000815181106111595761115861204f565b5b602001015160f81c60f81b7effffffffffffffffffffffffffffffffffffffffffffffffffffffffffffff1916145b80156111f357507f6100000000000000000000000000000000000000000000000000000000000000846001815181106111c4576111c361204f565b5b602001015160f81c60f81b7effffffffffffffffffffffffffffffffffffffffffffffffffffffffffffff1916145b801561125e57507f74000000000000000000000000000000000000000000000000000000000000008460028151811061122f5761122e61204f565b5b602001015160f81c60f81b7effffffffffffffffffffffffffffffffffffffffffffffffffffffffffffff1916145b80156112c957507f61000000000000000000000000000000000000000000000000000000000000008460038151811061129a5761129961204f565b5b602001015160f81c60f81b7effffffffffffffffffffffffffffffffffffffffffffffffffffffffffffff1916145b801561133457507f3a00000000000000000000000000000000000000000000000000000000000000846004815181106113055761130461204f565b5b602001015160f81c60f81b7effffffffffffffffffffffffffffffffffffffffffffffffffffffffffffff1916145b156113c9576000600590505b838110156113c3577f2c0000000000000000000000000000000000000000000000000000000000000085828151811061137c5761137b61204f565b5b602001015160f81c60f81b7effffffffffffffffffffffffffffffffffffffffffffffffffffffffffffff1916036113b6578091506113c3565b8080600101915050611340565b506116d8565b60005b6002846113d9919061311a565b811015611554577f3a000000000000000000000000000000000000000000000000000000000000008582815181106114145761141361204f565b5b602001015160f81c60f81b7effffffffffffffffffffffffffffffffffffffffffffffffffffffffffffff19161480156114b857507f2f0000000000000000000000000000000000000000000000000000000000000085600183611478919061314e565b815181106114895761148861204f565b5b602001015160f81c60f81b7effffffffffffffffffffffffffffffffffffffffffffffffffffffffffffff1916145b801561152e57507f2f00000000000000000000000000000000000000000000000000000000000000856002836114ee919061314e565b815181106114ff576114fe61204f565b5b602001015160f81c60f81b7effffffffffffffffffffffffffffffffffffffffffffffffffffffffffffff1916145b1561154757600381611540919061314e565b9250611554565b80806001019150506113cc565b5060008290505b83811015611648577f3f000000000000000000000000000000000000000000000000000000000000008582815181106115975761159661204f565b5b602001015160f81c60f81b7effffffffffffffffffffffffffffffffffffffffffffffffffffffffffffff1916148061162e57507f23000000000000000000000000000000000000000000000000000000000000008582815181106115ff576115fe61204f565b5b602001015160f81c60f81b7effffffffffffffffffffffffffffffffffffffffffffffffffffffffffffff1916145b1561163b57809150611648565b808060010191505061155b565b5081811180156116c257507f2f0000000000000000000000000000000000000000000000000000000000000084600183611682919061311a565b815181106116935761169261204f565b5b602001015160f81c60f81b7effffffffffffffffffffffffffffffffffffffffffffffffffffffffffffff1916145b156116d7576001816116d4919061311a565b90505b5b600082826116e6919061311a565b67ffffffffffffffff8111156116ff576116fe6119c7565b5b6040519080825280601f01601f1916602001820160405280156117315781602001600182028036833780820191505090505b50905060008390505b828110156117ba578581815181106117555761175461204f565b5b602001015160f81c60f81b82858361176d919061311a565b8151811061177e5761177d61204f565b5b60200101907effffffffffffffffffffffffffffffffffffffffffffffffffffffffffffff1916908160001a905350808060010191505061173a565b508095505050505050919050565b60606040519050608081016040526f30313233343536373839616263646566600f526002810190506028815260208101600060288201528260601b925060005b60011561184457808101820184821a600f81165160018301538060041c5182536001830192506014830361183d575050611844565b5050611808565b5050919050565b6000604051905090565b600080fd5b600080fd5b600073ffffffffffffffffffffffffffffffffffffffff82169050919050565b600061188a8261185f565b9050919050565b61189a8161187f565b81146118a557600080fd5b50565b6000813590506118b781611891565b92915050565b6000806000606084860312156118d6576118d5611855565b5b60006118e4868287016118a8565b93505060206118f5868287016118a8565b9250506040611906868287016118a8565b9150509250925092565b600081519050919050565b600082825260208201905092915050565b60005b8381101561194a57808201518184015260208101905061192f565b60008484015250505050565b6000601f19601f8301169050919050565b600061197282611910565b61197c818561191b565b935061198c81856020860161192c565b61199581611956565b840191505092915050565b600060208201905081810360008301526119ba8184611967565b905092915050565b600080fd5b7f4e487b7100000000000000000000000000000000000000000000000000000000600052604160045260246000fd5b6119ff82611956565b810181811067ffffffffffffffff82111715611a1e57611a1d6119c7565b5b80604052505050565b6000611a3161184b565b9050611a3d82826119f6565b919050565b600067ffffffffffffffff821115611a5d57611a5c6119c7565b5b602082029050602081019050919050565b600080fd5b600081519050611a8281611891565b92915050565b6000611a9b611a9684611a42565b611a27565b90508083825260208201905060208402830185811115611abe57611abd611a6e565b5b835b81811015611ae75780611ad38882611a73565b845260208401935050602081019050611ac0565b5050509392505050565b600082601f830112611b0657611b056119c2565b5b8151611b16848260208601611a88565b91505092915050565b600060208284031215611b3557611b34611855565b5b600082015167ffffffffffffffff811115611b5357611b5261185a565b5b611b5f84828501611af1565b91505092915050565b600080fd5b600067ffffffffffffffff821115611b8857611b876119c7565b5b611b9182611956565b9050602081019050919050565b6000611bb1611bac84611b6d565b611a27565b905082815260208101848484011115611bcd57611bcc611b68565b5b611bd884828561192c565b509392505050565b600082601f830112611bf557611bf46119c2565b5b8151611c05848260208601611b9e565b91505092915050565b600060208284031215611c2457611c23611855565b5b600082015167ffffffffffffffff811115611c4257611c4161185a565b5b611c4e84828501611be0565b91505092915050565b600081905092915050565b6000611c6d82611910565b611c778185611c57565b9350611c8781856020860161192c565b80840191505092915050565b7f3c64697620636c6173733d2263223e0000000000000000000000000000000000815250565b7f3c64697620636c6173733d2277223e0000000000000000000000000000000000815250565b7f3c64697620636c6173733d22732067223e000000000000000000000000000000815250565b7f3c70726520636c6173733d2267617264656e223e000000000000000000000000815250565b7f20202020202020e29a982020202020202020202020202020202020202020e29a60008201527f980a000000000000000000000000000000000000000000000000000000000000602082015250565b6000611d87602283611c57565b9150611d9282611d2b565b602282019050919050565b7f20202020202020202020202020e29a980a000000000000000000000000000000815250565b7fe29a982020202020202020202020202020202020202020202020e29a9820202060008201527f202020202020e29a980a00000000000000000000000000000000000000000000602082015250565b6000611e1f602a83611c57565b9150611e2a82611dc3565b602a82019050919050565b7f2020202020202020e29a98202020202020202020e29a980a0000000000000000815250565b7f202020e29a98202020202020202020202020202020202020202020202020202060008201527fe29a980a00000000000000000000000000000000000000000000000000000000602082015250565b6000611eb7602483611c57565b9150611ec282611e5b565b602482019050919050565b7f3c2f7072653e0000000000000000000000000000000000000000000000000000815250565b7f3c6272202f3e3c6272202f3e0000000000000000000000000000000000000000815250565b7f3c68313e00000000000000000000000000000000000000000000000000000000815250565b7f3c2f68313e0a0000000000000000000000000000000000000000000000000000815250565b6000611f718285611c62565b9150611f7c82611c93565b600f82019150611f8b82611cb9565b600f82019150611f9a82611cdf565b601182019150611fa982611d05565b601482019150611fb882611d7a565b9150611fc382611d9d565b601182019150611fd282611e12565b9150611fdd82611e35565b601882019150611fec82611eaa565b9150611ff782611ecd565b60068201915061200682611ef3565b600c8201915061201582611f19565b6004820191506120258284611c62565b915061203082611f3f565b60068201915061203f82611ef3565b600c820191508190509392505050565b7f4e487b7100000000000000000000000000000000000000000000000000000000600052603260045260246000fd5b600067ffffffffffffffff821115612099576120986119c7565b5b602082029050602081019050919050565b60006120bd6120b88461207e565b611a27565b905080838252602082019050602084028301858111156120e0576120df611a6e565b5b835b8181101561212757805167ffffffffffffffff811115612105576121046119c2565b5b8086016121128982611be0565b855260208501945050506020810190506120e2565b5050509392505050565b600082601f830112612146576121456119c2565b5b81516121568482602086016120aa565b91505092915050565b60006020828403121561217557612174611855565b5b600082015167ffffffffffffffff8111156121935761219261185a565b5b61219f84828501612131565b91505092915050565b7f4d697373696e673c62722f3e0000000000000000000000000000000000000000815250565b60006121da8284611c62565b91506121e5826121a8565b600c8201915081905092915050565b7f3c62722f3e000000000000000000000000000000000000000000000000000000815250565b60006122268285611c62565b91506122328284611c62565b915061223d826121f4565b6005820191508190509392505050565b7f3c683220636c6173733d2261223e000000000000000000000000000000000000815250565b7f3c2f68323e3c6272202f3e000000000000000000000000000000000000000000815250565b7f202020202020e29a9820202020202020202020202020202020202020202020e260008201527f9a980a0000000000000000000000000000000000000000000000000000000000602082015250565b60006122f5602383611c57565b915061230082612299565b602382019050919050565b7f2020202020202020202020202020e29a980a0000000000000000000000000000815250565b7f20e29a98202020202020202020202020202020202020202020e29a982020202060008201527f2020202020e29a980a0000000000000000000000000000000000000000000000602082015250565b600061238d602983611c57565b915061239882612331565b602982019050919050565b7f20202020202020202020e29a98202020202020e29a980a000000000000000000815250565b7f2020202020e29a98202020202020202020202020202020202020202020e29a9860008201527f0a00000000000000000000000000000000000000000000000000000000000000602082015250565b6000612425602183611c57565b9150612430826123c9565b602182019050919050565b7f3c2f7072653e3c6272202f3e0000000000000000000000000000000000000000815250565b7f3c703e0000000000000000000000000000000000000000000000000000000000815250565b7f4120636f6e74726163742073686f772063757261746564206279200000000000815250565b7f3c6120687265663d220000000000000000000000000000000000000000000000815250565b7f22207461726765743d225f626c616e6b222072656c3d226e6f6f70656e65722060008201527f6e6f7265666572726572223e0000000000000000000000000000000000000000602082015250565b600061252f602c83611c57565b915061253a826124d3565b602c82019050919050565b7f3c2f613e3c62722f3e0000000000000000000000000000000000000000000000815250565b7f77697468207370656369616c207468616e6b7320746f20000000000000000000815250565b7f3c2f613e20616e64200000000000000000000000000000000000000000000000815250565b7f222072656c3d226e6f6f70656e6572206e6f726566657272657222207461726760008201527f65743d225f626c616e6b223e0000000000000000000000000000000000000000602082015250565b6000612613602c83611c57565b915061261e826125b7565b602c82019050919050565b7f3c2f613e00000000000000000000000000000000000000000000000000000000815250565b7f3c62722f3e3c62722f3e00000000000000000000000000000000000000000000815250565b7f3c6120687265663d222f6573736179223e000000000000000000000000000000815250565b7f3c2f613e206279203c6120687265663d22000000000000000000000000000000815250565b7f3c2f703e3c6272202f3e3c6272202f3e00000000000000000000000000000000815250565b60006126f3828e611c62565b91506126fe82611ef3565b600c8201915061270d8261224d565b600e8201915061271d828d611c62565b915061272882612273565b600b8201915061273782611d05565b601482019150612746826122e8565b91506127518261230b565b60128201915061276082612380565b915061276b826123a3565b60178201915061277a82612418565b91506127858261243b565b600c8201915061279482612461565b6003820191506127a382612487565b601b820191506127b2826124ad565b6009820191506127c2828c611c62565b91506127cd82612522565b91506127d9828b611c62565b91506127e482612545565b6009820191506127f38261256b565b601782019150612802826124ad565b600982019150612812828a611c62565b915061281d82612522565b91506128298289611c62565b915061283482612591565b600982019150612843826124ad565b6009820191506128538288611c62565b915061285e82612606565b915061286a8287611c62565b915061287582612629565b6004820191506128848261264f565b600a8201915061289382612675565b6011820191506128a38286611c62565b91506128ae8261269b565b6011820191506128be8285611c62565b91506128c982612522565b91506128d58284611c62565b91506128e082612629565b6004820191506128ef826126c1565b6010820191508190509c9b505050505050505050505050565b7f3c6272202f3e3c2f6469763e0000000000000000000000000000000000000000815250565b7f3c64697620636c6173733d2270223ee286933c2f6469763e3c2f6469763e0000815250565b60006129608284611c62565b915061296b82612908565b600c8201915061297a8261292e565b601e8201915081905092915050565b7f3c64697620636c6173733d2277223e3c64697620636c6173733d2273223e0000815250565b7f3c2f6469763e3c2f6469763e0000000000000000000000000000000000000000815250565b60006129e18285611c62565b91506129ec82612989565b601e820191506129fc8284611c62565b9150612a07826129af565b600c820191508190509392505050565b6000612a238284611c62565b9150612a2e82612989565b601e8201915081905092915050565b7f3c68323e3c693e4d697373696e673c2f693e3c2f68323e000000000000000000815250565b6000612a6f8284611c62565b9150612a7a82612a3d565b60178201915081905092915050565b7f3c68323e00000000000000000000000000000000000000000000000000000000815250565b6000612abb8284611c62565b9150612ac682612a89565b60048201915081905092915050565b7f3c2f68323e000000000000000000000000000000000000000000000000000000815250565b6000612b078284611c62565b9150612b1282612ad5565b60058201915081905092915050565b7f3c68333e3c693e556e7469746c65643c2f693e3c2f68333e0000000000000000815250565b6000612b538284611c62565b9150612b5e82612b21565b60188201915081905092915050565b7f3c68333e3c693e00000000000000000000000000000000000000000000000000815250565b7f3c2f693e3c2f68333e0000000000000000000000000000000000000000000000815250565b6000612bc58285611c62565b9150612bd082612b6d565b600782019150612be08284611c62565b9150612beb82612b93565b6009820191508190509392505050565b7f3c703e3c7370616e20636c6173733d2761273e00000000000000000000000000815250565b7f3c2f7370616e3e3c2f703e000000000000000000000000000000000000000000815250565b6000612c538285611c62565b9150612c5e82612bfb565b601382019150612c6e8284611c62565b9150612c7982612c21565b600b820191508190509392505050565b6000612c958284611c62565b9150612ca082612461565b60038201915081905092915050565b7f3c7370616e20636c6173733d2261223e00000000000000000000000000000000815250565b7f3c2f7370616e3e3c62722f3e0000000000000000000000000000000000000000815250565b6000612d078285611c62565b9150612d1282612caf565b601082019150612d228284611c62565b9150612d2d82612cd5565b600c820191508190509392505050565b7f3c2f703e00000000000000000000000000000000000000000000000000000000815250565b6000612d6f8284611c62565b9150612d7a82612d3d565b60048201915081905092915050565b7f3c64697620636c6173733d2274223e3c693e436f6e747261637420526576657260008201527f7465643c2f693e3c2f6469763e00000000000000000000000000000000000000602082015250565b6000612de5602d83611c57565b9150612df082612d89565b602d82019050919050565b6000612e078284611c62565b9150612e1282612dd8565b915081905092915050565b7f3c64697620636c6173733d2274223e0000000000000000000000000000000000815250565b7f3c2f6469763e0000000000000000000000000000000000000000000000000000815250565b6000612e758285611c62565b9150612e8082612e1d565b600f82019150612e908284611c62565b9150612e9b82612e43565b6006820191508190509392505050565b6000612eb78284611c62565b9150612ec2826129af565b600c8201915081905092915050565b612eda8161187f565b82525050565b6000602082019050612ef56000830184612ed1565b92915050565b6000612f078285611c62565b9150612f138284611c62565b91508190509392505050565b7f3c64697620636c6173733d2269223e47656e65726174656420696e20626c6f6360008201527f6b20000000000000000000000000000000000000000000000000000000000000602082015250565b6000612f7b602283611c57565b9150612f8682612f1f565b602282019050919050565b7f2066726f6d203c7370616e20636c6173733d2261223e00000000000000000000815250565b7f3c7370616e3e3c2f6469763e0000000000000000000000000000000000000000815250565b6000612fe98286611c62565b9150612ff482612f6e565b91506130008285611c62565b915061300b82612f91565b60168201915061301b8284611c62565b915061302682612fb7565b600c82019150819050949350505050565b60006130438284611c62565b915061304e82612e43565b60068201915081905092915050565b600060408201905081810360008301526130778185611967565b9050818103602083015261308b8184611967565b90509392505050565b600061309f826124ad565b6009820191506130af8285611c62565b91506130ba82612522565b91506130c68284611c62565b91506130d182612629565b6004820191508190509392505050565b6000819050919050565b7f4e487b7100000000000000000000000000000000000000000000000000000000600052601160045260246000fd5b6000613125826130e1565b9150613130836130e1565b9250828203905081811115613148576131476130eb565b5b92915050565b6000613159826130e1565b9150613164836130e1565b925082820190508082111561317c5761317b6130eb565b5b9291505056fea2646970667358221220689cd2868daea7f261b344b9c105cc6ce26d2399c0f96665f0db3e1bd57e1a3d64736f6c634300081c0033",
  "deployedBytecode": "0x73000000000000000000000000000000000000000030146080604052600436106100355760003560e01c80634b1f91571461003a575b600080fd5b610054600480360381019061004f91906118bd565b61006a565b60405161006191906119a0565b60405180910390f35b606060008473ffffffffffffffffffffffffffffffffffffffff166355735c5e6040518163ffffffff1660e01b8152600401600060405180830381865afa1580156100b9573d6000803e3d6000fd5b505050506040513d6000823e3d601f19601f820116820180604052508101906100e29190611b1f565b9050818573ffffffffffffffffffffffffffffffffffffffff16634a79d50c6040518163ffffffff1660e01b8152600401600060405180830381865afa158015610130573d6000803e3d6000fd5b505050506040513d6000823e3d601f19601f820116820180604052508101906101599190611c0e565b60405160200161016a929190611f65565b604051602081830303815290604052915060005b81518110156102925781818151811061019a5761019961204f565b5b602002602001015173ffffffffffffffffffffffffffffffffffffffff166328411ae16040518163ffffffff1660e01b8152600401600060405180830381865afa92505050801561020e57506040513d6000823e3d601f19601f8201168201806040525081019061020b919061215f565b60015b610239578260405160200161022391906121ce565b6040516020818303038152906040529250610285565b6000815111156102835783816000815181106102585761025761204f565b5b602002602001015160405160200161027192919061221a565b60405160208183030381529060405293505b505b808060010191505061017e565b508161029d86610fdb565b8473ffffffffffffffffffffffffffffffffffffffff166322e032766040518163ffffffff1660e01b8152600401600060405180830381865afa1580156102e8573d6000803e3d6000fd5b505050506040513d6000823e3d601f19601f820116820180604052508101906103119190611c0e565b8573ffffffffffffffffffffffffffffffffffffffff16635fb4ed2a6040518163ffffffff1660e01b8152600401600060405180830381865afa15801561035c573d6000803e3d6000fd5b505050506040513d6000823e3d601f19601f820116820180604052508101906103859190611c0e565b8673ffffffffffffffffffffffffffffffffffffffff1663beb469e56040518163ffffffff1660e01b8152600401600060405180830381865afa1580156103d0573d6000803e3d6000fd5b505050506040513d6000823e3d601f19601f820116820180604052508101906103f99190611c0e565b8773ffffffffffffffffffffffffffffffffffffffff1663265724906040518163ffffffff1660e01b8152600401600060405180830381865afa158015610444573d6000803e3d6000fd5b505050506040513d6000823e3d601f19601f8201168201806040525081019061046d9190611c0e565b8873ffffffffffffffffffffffffffffffffffffffff16631ed7fd296040518163ffffffff1660e01b8152600401600060405180830381865afa1580156104b8573d6000803e3d6000fd5b505050506040513d6000823e3d601f19601f820116820180604052508101906104e19190611c0e565b8973ffffffffffffffffffffffffffffffffffffffff16638951695d6040518163ffffffff1660e01b8152600401600060405180830381865afa15801561052c573d6000803e3d6000fd5b505050506040513d6000823e3d601f19601f820116820180604052508101906105559190611c0e565b8b73ffffffffffffffffffffffffffffffffffffffff16634a79d50c6040518163ffffffff1660e01b8152600401600060405180830381865afa1580156105a0573d6000803e3d6000fd5b505050506040513d6000823e3d601f19601f820116820180604052508101906105c99190611c0e565b8b73ffffffffffffffffffffffffffffffffffffffff1663ba2978ac6040518163ffffffff1660e01b8152600401600060405180830381865afa158015610614573d6000803e3d6000fd5b505050506040513d6000823e3d601f19601f8201168201806040525081019061063d9190611c0e565b8c73ffffffffffffffffffffffffffffffffffffffff1663ede749bd6040518163ffffffff1660e01b8152600401600060405180830381865afa158015610688573d6000803e3d6000fd5b505050506040513d6000823e3d601f19601f820116820180604052508101906106b19190611c0e565b6040516020016106cb9b9a999897969594939291906126e7565b6040516020818303038152906040529150816040516020016106ed9190612954565b6040516020818303038152906040529150818573ffffffffffffffffffffffffffffffffffffffff16631f1bd6926040518163ffffffff1660e01b8152600401600060405180830381865afa15801561074a573d6000803e3d6000fd5b505050506040513d6000823e3d601f19601f820116820180604052508101906107739190611c0e565b6040516020016107849291906129d5565b604051602081830303815290604052915060005b8151811015610de65760008282815181106107b6576107b561204f565b5b60200260200101519050836040516020016107d19190612a17565b60405160208183030381529060405293508073ffffffffffffffffffffffffffffffffffffffff166328411ae16040518163ffffffff1660e01b8152600401600060405180830381865afa92505050801561084f57506040513d6000823e3d601f19601f8201168201806040525081019061084c919061215f565b60015b61087a57836040516020016108649190612a63565b6040516020818303038152906040529350610948565b60008151111561094657846040516020016108959190612aaf565b604051602081830303815290604052945060005b81518110156109225760008282815181106108c7576108c661204f565b5b602002602001015151031561091557858282815181106108ea576108e961204f565b5b602002602001015160405160200161090392919061221a565b60405160208183030381529060405295505b80806001019150506108a9565b50846040516020016109349190612afb565b60405160208183030381529060405294505b505b8073ffffffffffffffffffffffffffffffffffffffff16634a79d50c6040518163ffffffff1660e01b8152600401600060405180830381865afa9250505080156109b557506040513d6000823e3d601f19601f820116820180604052508101906109b29190611c0e565b60015b6109e057836040516020016109ca9190612b47565b6040516020818303038152906040529350610a38565b600081511115610a135784816040516020016109fd929190612bb9565b6040516020818303038152906040529450610a36565b84604051602001610a249190612b47565b60405160208183030381529060405294505b505b8073ffffffffffffffffffffffffffffffffffffffff1663da0321cd6040518163ffffffff1660e01b8152600401600060405180830381865afa925050508015610aa557506040513d6000823e3d601f19601f82011682018060405250810190610aa29190611b1f565b60015b610af45783610acd848481518110610ac057610abf61204f565b5b6020026020010151610fdb565b604051602001610ade929190612c47565b6040516020818303038152906040529350610ba5565b600081511115610ba35784604051602001610b0f9190612c89565b604051602081830303815290604052945060005b8151811015610b7f5785610b50838381518110610b4357610b4261204f565b5b6020026020010151610fdb565b604051602001610b61929190612cfb565b60405160208183030381529060405295508080600101915050610b23565b5084604051602001610b919190612d63565b60405160208183030381529060405294505b505b8073ffffffffffffffffffffffffffffffffffffffff16632c73dc4a6040518163ffffffff1660e01b8152600401600060405180830381865afa925050508015610c1257506040513d6000823e3d601f19601f82011682018060405250810190610c0f919061215f565b60015b15610ced57600081511115610ceb5784604051602001610c329190612c89565b604051602081830303815290604052945060005b8151811015610cc7576000828281518110610c6457610c6361204f565b5b6020026020010151510315610cba5785610c97838381518110610c8a57610c8961204f565b5b6020026020010151611055565b604051602001610ca892919061221a565b60405160208183030381529060405295505b8080600101915050610c46565b5084604051602001610cd99190612d63565b60405160208183030381529060405294505b505b8073ffffffffffffffffffffffffffffffffffffffff16631f1bd6926040518163ffffffff1660e01b8152600401600060405180830381865afa925050508015610d5a57506040513d6000823e3d601f19601f82011682018060405250810190610d579190611c0e565b60015b610d855783604051602001610d6f9190612dfb565b6040516020818303038152906040529350610db6565b600081511115610db4578481604051602001610da2929190612e69565b60405160208183030381529060405294505b505b83604051602001610dc79190612eab565b6040516020818303038152906040529350508080600101915050610798565b508173__$ca51aa8e2edcae42c91725d8ecb472c6ac$__63ec34c7a8876040518263ffffffff1660e01b8152600401610e1f9190612ee0565b600060405180830381865af4158015610e3c573d6000803e3d6000fd5b505050506040513d6000823e3d601f19601f82011682018060405250810190610e659190611c0e565b604051602001610e76929190612efb565b604051602081830303815290604052915081610e914361108e565b610e9a30610fdb565b604051602001610eac93929190612fdd565b604051602081830303815290604052915081604051602001610ece9190613037565b604051602081830303815290604052915073__$705ec615c2bf63f1eb4a27fa032a340997$__63125a507b838773ffffffffffffffffffffffffffffffffffffffff16634a79d50c6040518163ffffffff1660e01b8152600401600060405180830381865afa158015610f45573d6000803e3d6000fd5b505050506040513d6000823e3d601f19601f82011682018060405250810190610f6e9190611c0e565b6040518363ffffffff1660e01b8152600401610f8b92919061305d565b600060405180830381865af4158015610fa8573d6000803e3d6000fd5b505050506040513d6000823e3d601f19601f82011682018060405250810190610fd19190611c0e565b9150509392505050565b6060610fe6826110df565b905060ff6000190460061b60228201816022026028822016608860f01b60005b6001156110255782811a82028182015260018101905060148103611006575b50838351166000511660011c8351188352602083019250838351166020511660011c835118835250505050919050565b6060600061106283611105565b90508281604051602001611077929190613094565b604051602081830303815290604052915050919050565b60606080604051019050602081016040526000815280600019835b6001156110ca578184019350600a81066030018453600a81049050806110a9575b50828203602084039350808452505050919050565b60606110ea826117c8565b90506002815101613078825260028203915080825250919050565b606060008290506000815190506000808290506005831015801561118857507f6400000000000000000000000000000000000000000000000000000000000000846000815181106111595761115861204f565b5b602001015160f81c60f81b7effffffffffffffffffffffffffffffffffffffffffffffffffffffffffffff1916145b80156111f357507f6100000000000000000000000000000000000000000000000000000000000000846001815181106111c4576111c361204f565b5b602001015160f81c60f81b7effffffffffffffffffffffffffffffffffffffffffffffffffffffffffffff1916145b801561125e57507f74000000000000000000000000000000000000000000000000000000000000008460028151811061122f5761122e61204f565b5b602001015160f81c60f81b7effffffffffffffffffffffffffffffffffffffffffffffffffffffffffffff1916145b80156112c957507f61000000000000000000000000000000000000000000000000000000000000008460038151811061129a5761129961204f565b5b602001015160f81c60f81b7effffffffffffffffffffffffffffffffffffffffffffffffffffffffffffff1916145b801561133457507f3a00000000000000000000000000000000000000000000000000000000000000846004815181106113055761130461204f565b5b602001015160f81c60f81b7effffffffffffffffffffffffffffffffffffffffffffffffffffffffffffff1916145b156113c9576000600590505b838110156113c3577f2c0000000000000000000000000000000000000000000000000000000000000085828151811061137c5761137b61204f565b5b602001015160f81c60f81b7effffffffffffffffffffffffffffffffffffffffffffffffffffffffffffff1916036113b6578091506113c3565b8080600101915050611340565b506116d8565b60005b6002846113d9919061311a565b811015611554577f3a000000000000000000000000000000000000000000000000000000000000008582815181106114145761141361204f565b5b602001015160f81c60f81b7effffffffffffffffffffffffffffffffffffffffffffffffffffffffffffff19161480156114b857507f2f0000000000000000000000000000000000000000000000000000000000000085600183611478919061314e565b815181106114895761148861204f565b5b602001015160f81c60f81b7effffffffffffffffffffffffffffffffffffffffffffffffffffffffffffff1916145b801561152e57507f2f00000000000000000000000000000000000000000000000000000000000000856002836114ee919061314e565b815181106114ff576114fe61204f565b5b602001015160f81c60f81b7effffffffffffffffffffffffffffffffffffffffffffffffffffffffffffff1916145b1561154757600381611540919061314e565b9250611554565b80806001019150506113cc565b5060008290505b83811015611648577f3f000000000000000000000000000000000000000000000000000000000000008582815181106115975761159661204f565b5b602001015160f81c60f81b7effffffffffffffffffffffffffffffffffffffffffffffffffffffffffffff1916148061162e57507f23000000000000000000000000000000000000000000000000000000000000008582815181106115ff576115fe61204f565b5b602001015160f81c60f81b7effffffffffffffffffffffffffffffffffffffffffffffffffffffffffffff1916145b1561163b57809150611648565b808060010191505061155b565b5081811180156116c257507f2f0000000000000000000000000000000000000000000000000000000000000084600183611682919061311a565b815181106116935761169261204f565b5b602001015160f81c60f81b7effffffffffffffffffffffffffffffffffffffffffffffffffffffffffffff1916145b156116d7576001816116d4919061311a565b90505b5b600082826116e6919061311a565b67ffffffffffffffff8111156116ff576116fe6119c7565b5b6040519080825280601f01601f1916602001820160405280156117315781602001600182028036833780820191505090505b50905060008390505b828110156117ba578581815181106117555761175461204f565b5b602001015160f81c60f81b82858361176d919061311a565b8151811061177e5761177d61204f565b5b60200101907effffffffffffffffffffffffffffffffffffffffffffffffffffffffffffff1916908160001a905350808060010191505061173a565b508095505050505050919050565b60606040519050608081016040526f30313233343536373839616263646566600f526002810190506028815260208101600060288201528260601b925060005b60011561184457808101820184821a600f81165160018301538060041c5182536001830192506014830361183d575050611844565b5050611808565b5050919050565b6000604051905090565b600080fd5b600080fd5b600073ffffffffffffffffffffffffffffffffffffffff82169050919050565b600061188a8261185f565b9050919050565b61189a8161187f565b81146118a557600080fd5b50565b6000813590506118b781611891565b92915050565b6000806000606084860312156118d6576118d5611855565b5b60006118e4868287016118a8565b93505060206118f5868287016118a8565b9250506040611906868287016118a8565b9150509250925092565b600081519050919050565b600082825260208201905092915050565b60005b8381101561194a57808201518184015260208101905061192f565b60008484015250505050565b6000601f19601f8301169050919050565b600061197282611910565b61197c818561191b565b935061198c81856020860161192c565b61199581611956565b840191505092915050565b600060208201905081810360008301526119ba8184611967565b905092915050565b600080fd5b7f4e487b7100000000000000000000000000000000000000000000000000000000600052604160045260246000fd5b6119ff82611956565b810181811067ffffffffffffffff82111715611a1e57611a1d6119c7565b5b80604052505050565b6000611a3161184b565b9050611a3d82826119f6565b919050565b600067ffffffffffffffff821115611a5d57611a5c6119c7565b5b602082029050602081019050919050565b600080fd5b600081519050611a8281611891565b92915050565b6000611a9b611a9684611a42565b611a27565b90508083825260208201905060208402830185811115611abe57611abd611a6e565b5b835b81811015611ae75780611ad38882611a73565b845260208401935050602081019050611ac0565b5050509392505050565b600082601f830112611b0657611b056119c2565b5b8151611b16848260208601611a88565b91505092915050565b600060208284031215611b3557611b34611855565b5b600082015167ffffffffffffffff811115611b5357611b5261185a565b5b611b5f84828501611af1565b91505092915050565b600080fd5b600067ffffffffffffffff821115611b8857611b876119c7565b5b611b9182611956565b9050602081019050919050565b6000611bb1611bac84611b6d565b611a27565b905082815260208101848484011115611bcd57611bcc611b68565b5b611bd884828561192c565b509392505050565b600082601f830112611bf557611bf46119c2565b5b8151611c05848260208601611b9e565b91505092915050565b600060208284031215611c2457611c23611855565b5b600082015167ffffffffffffffff811115611c4257611c4161185a565b5b611c4e84828501611be0565b91505092915050565b600081905092915050565b6000611c6d82611910565b611c778185611c57565b9350611c8781856020860161192c565b80840191505092915050565b7f3c64697620636c6173733d2263223e0000000000000000000000000000000000815250565b7f3c64697620636c6173733d2277223e0000000000000000000000000000000000815250565b7f3c64697620636c6173733d22732067223e000000000000000000000000000000815250565b7f3c70726520636c6173733d2267617264656e223e000000000000000000000000815250565b7f20202020202020e29a982020202020202020202020202020202020202020e29a60008201527f980a000000000000000000000000000000000000000000000000000000000000602082015250565b6000611d87602283611c57565b9150611d9282611d2b565b602282019050919050565b7f20202020202020202020202020e29a980a000000000000000000000000000000815250565b7fe29a982020202020202020202020202020202020202020202020e29a9820202060008201527f202020202020e29a980a00000000000000000000000000000000000000000000602082015250565b6000611e1f602a83611c57565b9150611e2a82611dc3565b602a82019050919050565b7f2020202020202020e29a98202020202020202020e29a980a0000000000000000815250565b7f202020e29a98202020202020202020202020202020202020202020202020202060008201527fe29a980a00000000000000000000000000000000000000000000000000000000602082015250565b6000611eb7602483611c57565b9150611ec282611e5b565b602482019050919050565b7f3c2f7072653e0000000000000000000000000000000000000000000000000000815250565b7f3c6272202f3e3c6272202f3e0000000000000000000000000000000000000000815250565b7f3c68313e00000000000000000000000000000000000000000000000000000000815250565b7f3c2f68313e0a0000000000000000000000000000000000000000000000000000815250565b6000611f718285611c62565b9150611f7c82611c93565b600f82019150611f8b82611cb9565b600f82019150611f9a82611cdf565b601182019150611fa982611d05565b601482019150611fb882611d7a565b9150611fc382611d9d565b601182019150611fd282611e12565b9150611fdd82611e35565b601882019150611fec82611eaa565b9150611ff782611ecd565b60068201915061200682611ef3565b600c8201915061201582611f19565b6004820191506120258284611c62565b915061203082611f3f565b60068201915061203f82611ef3565b600c820191508190509392505050565b7f4e487b7100000000000000000000000000000000000000000000000000000000600052603260045260246000fd5b600067ffffffffffffffff821115612099576120986119c7565b5b602082029050602081019050919050565b60006120bd6120b88461207e565b611a27565b905080838252602082019050602084028301858111156120e0576120df611a6e565b5b835b8181101561212757805167ffffffffffffffff811115612105576121046119c2565b5b8086016121128982611be0565b855260208501945050506020810190506120e2565b5050509392505050565b600082601f830112612146576121456119c2565b5b81516121568482602086016120aa565b91505092915050565b60006020828403121561217557612174611855565b5b600082015167ffffffffffffffff8111156121935761219261185a565b5b61219f84828501612131565b91505092915050565b7f4d697373696e673c62722f3e0000000000000000000000000000000000000000815250565b60006121da8284611c62565b91506121e5826121a8565b600c8201915081905092915050565b7f3c62722f3e000000000000000000000000000000000000000000000000000000815250565b60006122268285611c62565b91506122328284611c62565b915061223d826121f4565b6005820191508190509392505050565b7f3c683220636c6173733d2261223e000000000000000000000000000000000000815250565b7f3c2f68323e3c6272202f3e000000000000000000000000000000000000000000815250565b7f202020202020e29a9820202020202020202020202020202020202020202020e260008201527f9a980a0000000000000000000000000000000000000000000000000000000000602082015250565b60006122f5602383611c57565b915061230082612299565b602382019050919050565b7f2020202020202020202020202020e29a980a0000000000000000000000000000815250565b7f20e29a98202020202020202020202020202020202020202020e29a982020202060008201527f2020202020e29a980a0000000000000000000000000000000000000000000000602082015250565b600061238d602983611c57565b915061239882612331565b602982019050919050565b7f20202020202020202020e29a98202020202020e29a980a000000000000000000815250565b7f2020202020e29a98202020202020202020202020202020202020202020e29a9860008201527f0a00000000000000000000000000000000000000000000000000000000000000602082015250565b6000612425602183611c57565b9150612430826123c9565b602182019050919050565b7f3c2f7072653e3c6272202f3e0000000000000000000000000000000000000000815250565b7f3c703e0000000000000000000000000000000000000000000000000000000000815250565b7f4120636f6e74726163742073686f772063757261746564206279200000000000815250565b7f3c6120687265663d220000000000000000000000000000000000000000000000815250565b7f22207461726765743d225f626c616e6b222072656c3d226e6f6f70656e65722060008201527f6e6f7265666572726572223e0000000000000000000000000000000000000000602082015250565b600061252f602c83611c57565b915061253a826124d3565b602c82019050919050565b7f3c2f613e3c62722f3e0000000000000000000000000000000000000000000000815250565b7f77697468207370656369616c207468616e6b7320746f20000000000000000000815250565b7f3c2f613e20616e64200000000000000000000000000000000000000000000000815250565b7f222072656c3d226e6f6f70656e6572206e6f726566657272657222207461726760008201527f65743d225f626c616e6b223e0000000000000000000000000000000000000000602082015250565b6000612613602c83611c57565b915061261e826125b7565b602c82019050919050565b7f3c2f613e00000000000000000000000000000000000000000000000000000000815250565b7f3c62722f3e3c62722f3e00000000000000000000000000000000000000000000815250565b7f3c6120687265663d222f6573736179223e000000000000000000000000000000815250565b7f3c2f613e206279203c6120687265663d22000000000000000000000000000000815250565b7f3c2f703e3c6272202f3e3c6272202f3e00000000000000000000000000000000815250565b60006126f3828e611c62565b91506126fe82611ef3565b600c8201915061270d8261224d565b600e8201915061271d828d611c62565b915061272882612273565b600b8201915061273782611d05565b601482019150612746826122e8565b91506127518261230b565b60128201915061276082612380565b915061276b826123a3565b60178201915061277a82612418565b91506127858261243b565b600c8201915061279482612461565b6003820191506127a382612487565b601b820191506127b2826124ad565b6009820191506127c2828c611c62565b91506127cd82612522565b91506127d9828b611c62565b91506127e482612545565b6009820191506127f38261256b565b601782019150612802826124ad565b600982019150612812828a611c62565b915061281d82612522565b91506128298289611c62565b915061283482612591565b600982019150612843826124ad565b6009820191506128538288611c62565b915061285e82612606565b915061286a8287611c62565b915061287582612629565b6004820191506128848261264f565b600a8201915061289382612675565b6011820191506128a38286611c62565b91506128ae8261269b565b6011820191506128be8285611c62565b91506128c982612522565b91506128d58284611c62565b91506128e082612629565b6004820191506128ef826126c1565b6010820191508190509c9b505050505050505050505050565b7f3c6272202f3e3c2f6469763e0000000000000000000000000000000000000000815250565b7f3c64697620636c6173733d2270223ee286933c2f6469763e3c2f6469763e0000815250565b60006129608284611c62565b915061296b82612908565b600c8201915061297a8261292e565b601e8201915081905092915050565b7f3c64697620636c6173733d2277223e3c64697620636c6173733d2273223e0000815250565b7f3c2f6469763e3c2f6469763e0000000000000000000000000000000000000000815250565b60006129e18285611c62565b91506129ec82612989565b601e820191506129fc8284611c62565b9150612a07826129af565b600c820191508190509392505050565b6000612a238284611c62565b9150612a2e82612989565b601e8201915081905092915050565b7f3c68323e3c693e4d697373696e673c2f693e3c2f68323e000000000000000000815250565b6000612a6f8284611c62565b9150612a7a82612a3d565b60178201915081905092915050565b7f3c68323e00000000000000000000000000000000000000000000000000000000815250565b6000612abb8284611c62565b9150612ac682612a89565b60048201915081905092915050565b7f3c2f68323e000000000000000000000000000000000000000000000000000000815250565b6000612b078284611c62565b9150612b1282612ad5565b60058201915081905092915050565b7f3c68333e3c693e556e7469746c65643c2f693e3c2f68333e0000000000000000815250565b6000612b538284611c62565b9150612b5e82612b21565b60188201915081905092915050565b7f3c68333e3c693e00000000000000000000000000000000000000000000000000815250565b7f3c2f693e3c2f68333e0000000000000000000000000000000000000000000000815250565b6000612bc58285611c62565b9150612bd082612b6d565b600782019150612be08284611c62565b9150612beb82612b93565b6009820191508190509392505050565b7f3c703e3c7370616e20636c6173733d2761273e00000000000000000000000000815250565b7f3c2f7370616e3e3c2f703e000000000000000000000000000000000000000000815250565b6000612c538285611c62565b9150612c5e82612bfb565b601382019150612c6e8284611c62565b9150612c7982612c21565b600b820191508190509392505050565b6000612c958284611c62565b9150612ca082612461565b60038201915081905092915050565b7f3c7370616e20636c6173733d2261223e00000000000000000000000000000000815250565b7f3c2f7370616e3e3c62722f3e0000000000000000000000000000000000000000815250565b6000612d078285611c62565b9150612d1282612caf565b601082019150612d228284611c62565b9150612d2d82612cd5565b600c820191508190509392505050565b7f3c2f703e00000000000000000000000000000000000000000000000000000000815250565b6000612d6f8284611c62565b9150612d7a82612d3d565b60048201915081905092915050565b7f3c64697620636c6173733d2274223e3c693e436f6e747261637420526576657260008201527f7465643c2f693e3c2f6469763e00000000000000000000000000000000000000602082015250565b6000612de5602d83611c57565b9150612df082612d89565b602d82019050919050565b6000612e078284611c62565b9150612e1282612dd8565b915081905092915050565b7f3c64697620636c6173733d2274223e0000000000000000000000000000000000815250565b7f3c2f6469763e0000000000000000000000000000000000000000000000000000815250565b6000612e758285611c62565b9150612e8082612e1d565b600f82019150612e908284611c62565b9150612e9b82612e43565b6006820191508190509392505050565b6000612eb78284611c62565b9150612ec2826129af565b600c8201915081905092915050565b612eda8161187f565b82525050565b6000602082019050612ef56000830184612ed1565b92915050565b6000612f078285611c62565b9150612f138284611c62565b91508190509392505050565b7f3c64697620636c6173733d2269223e47656e65726174656420696e20626c6f6360008201527f6b20000000000000000000000000000000000000000000000000000000000000602082015250565b6000612f7b602283611c57565b9150612f8682612f1f565b602282019050919050565b7f2066726f6d203c7370616e20636c6173733d2261223e00000000000000000000815250565b7f3c7370616e3e3c2f6469763e0000000000000000000000000000000000000000815250565b6000612fe98286611c62565b9150612ff482612f6e565b91506130008285611c62565b915061300b82612f91565b60168201915061301b8284611c62565b915061302682612fb7565b600c82019150819050949350505050565b60006130438284611c62565b915061304e82612e43565b60068201915081905092915050565b600060408201905081810360008301526130778185611967565b9050818103602083015261308b8184611967565b90509392505050565b600061309f826124ad565b6009820191506130af8285611c62565b91506130ba82612522565b91506130c68284611c62565b91506130d182612629565b6004820191508190509392505050565b6000819050919050565b7f4e487b7100000000000000000000000000000000000000000000000000000000600052601160045260246000fd5b6000613125826130e1565b9150613130836130e1565b9250828203905081811115613148576131476130eb565b5b92915050565b6000613159826130e1565b9150613164836130e1565b925082820190508082111561317c5761317b6130eb565b5b9291505056fea2646970667358221220689cd2868daea7f261b344b9c105cc6ce26d2399c0f96665f0db3e1bd57e1a3d64736f6c634300081c0033",
  "libraries": {
    "GardenHTML": "0xE18103E22B4e90E75bcF6a91Cb6DD5630b655852",
    "GardenContributions": "0xdeAF069091e30FFe2a5b0708f5217298089e0dff"
  },
  "devdoc": {
    "kind": "dev",
    "methods": {},
    "version": 1
  },
  "userdoc": {
    "kind": "user",
    "methods": {},
    "version": 1
  },
  "storageLayout": {
    "storage": [],
    "types": null
  }
}