{
  "address": "0xD833fA819b9504Bb87c823E089D5a7DE4AF48ae4",
  "abi": [
    {
      "inputs": [
        {
          "internalType": "address",
          "name": "_garden",
          "type": "address"
        },
        {
          "internalType": "address",
          "name": "_essayContract",
          "type": "address"
        },
        {
          "internalType": "address",
          "name": "_data",
          "type": "address"
        }
      ],
      "stateMutability": "nonpayable",
      "type": "constructor"
    },
    {
      "inputs": [],
      "name": "data",
      "outputs": [
        {
          "internalType": "address",
          "name": "",
          "type": "address"
        }
      ],
      "stateMutability": "view",
      "type": "function"
    },
    {
      "inputs": [],
      "name": "essay",
      "outputs": [
        {
          "internalType": "string",
          "name": "",
          "type": "string"
        }
      ],
      "stateMutability": "view",
      "type": "function"
    },
    {
      "inputs": [],
      "name": "essayContract",
      "outputs": [
        {
          "internalType": "address",
          "name": "",
          "type": "address"
        }
      ],
      "stateMutability": "view",
      "type": "function"
    },
    {
      "inputs": [],
      "name": "garden",
      "outputs": [
        {
          "internalType": "address",
          "name": "",
          "type": "address"
        }
      ],
      "stateMutability": "view",
      "type": "function"
    },
    {
      "inputs": [],
      "name": "html",
      "outputs": [
        {
          "internalType": "string",
          "name": "",
          "type": "string"
        }
      ],
      "stateMutability": "view",
      "type": "function"
    },
    {
      "inputs": [],
      "name": "index",
      "outputs": [
        {
          "internalType": "string",
          "name": "",
          "type": "string"
        }
      ],
      "stateMutability": "view",
      "type": "function"
    },
    {
      "inputs": [
        {
          "internalType": "string[]",
          "name": "resource",
          "type": "string[]"
        },
        {
          "components": [
            {
              "internalType": "string",
              "name": "key",
              "type": "string"
            },
            {
              "internalType": "string",
              "name": "value",
              "type": "string"
            }
          ],
          "internalType": "struct KeyValue[]",
          "name": "params",
          "type": "tuple[]"
        }
      ],
      "name": "request",
      "outputs": [
        {
          "internalType": "uint256",
          "name": "statusCode",
          "type": "uint256"
        },
        {
          "internalType": "string",
          "name": "body",
          "type": "string"
        },
        {
          "components": [
            {
              "internalType": "string",
              "name": "key",
              "type": "string"
            },
            {
              "internalType": "string",
              "name": "value",
              "type": "string"
            }
          ],
          "internalType": "struct KeyValue[]",
          "name": "headers",
          "type": "tuple[]"
        }
      ],
      "stateMutability": "view",
      "type": "function"
    },
    {
      "inputs": [],
      "name": "resolveMode",
      "outputs": [
        {
          "internalType": "bytes32",
          "name": "",
          "type": "bytes32"
        }
      ],
      "stateMutability": "pure",
      "type": "function"
    }
  ],
  "transactionHash": "0x4fee81c6dbc544f935979494f019e4c4a6ee9fcda963cbb6183734a25afcabda",
  "args": [
    "0xb58ad9f7130103c74BcFc9DFdc0eF243011be17a",
    "0xe2bD8Db092BcCE6e8Ef2032A3877ef03Fc735823",
    "0xbED5aAF0B0777D37DB472096420C3138acE07AdA"
  ],
  "numDeployments": 20,
  "solcInputHash": "1571e043a92984576c66345f59acaf63",
  "bytecode": "0x60e060405234801561001057600080fd5b50604051611bd2380380611bd283398181016040528101906100329190610139565b8273ffffffffffffffffffffffffffffffffffffffff1660808173ffffffffffffffffffffffffffffffffffffffff16815250508173ffffffffffffffffffffffffffffffffffffffff1660a08173ffffffffffffffffffffffffffffffffffffffff16815250508073ffffffffffffffffffffffffffffffffffffffff1660c08173ffffffffffffffffffffffffffffffffffffffff168152505050505061018c565b600080fd5b600073ffffffffffffffffffffffffffffffffffffffff82169050919050565b6000610106826100db565b9050919050565b610116816100fb565b811461012157600080fd5b50565b6000815190506101338161010d565b92915050565b600080600060608486031215610152576101516100d6565b5b600061016086828701610124565b935050602061017186828701610124565b925050604061018286828701610124565b9150509250925092565b60805160a05160c0516119e66101ec6000396000818161087f0152610a2601526000818161085e0152818161095501526109de0152600081816104ff015281816105a40152818161083d015281816109340152610a0201526119e66000f3fe608060405234801561001057600080fd5b50600436106100885760003560e01c806344e2e23b1161005b57806344e2e23b1461011957806356ba88b81461013757806373d4a13a14610155578063dd473fae1461017357610088565b80631374c4601461008d5780632986c0e5146100bf57806333c34ac3146100dd578063427158f6146100fb575b600080fd5b6100a760048036038101906100a29190611042565b610191565b6040516100b6939291906112a2565b60405180910390f35b6100c761081f565b6040516100d491906112e7565b60405180910390f35b6100e5610907565b6040516100f291906112e7565b60405180910390f35b610103610916565b60405161011091906112e7565b60405180910390f35b6101216109dc565b60405161012e919061134a565b60405180910390f35b61013f610a00565b60405161014c919061134a565b60405180910390f35b61015d610a24565b60405161016a919061134a565b60405180910390f35b61017b610a48565b604051610188919061137e565b60405180910390f35b600060608060008551036102bb576101a761081f565b915060c89250600167ffffffffffffffff8111156101c8576101c7610cb9565b5b60405190808252806020026020018201604052801561020157816020015b6101ee610c75565b8152602001906001900390816101e65790505b5090506040518060400160405280600c81526020017f436f6e74656e742d5479706500000000000000000000000000000000000000008152508160008151811061024e5761024d611399565b5b6020026020010151600001819052506040518060400160405280601881526020017f746578742f68746d6c3b20636861727365743d7574662d380000000000000000815250816000815181106102a7576102a6611399565b5b602002602001015160200181905250610818565b6001855114801561033057506040516020016102d69061141f565b6040516020818303038152906040528051906020012085600081518110610300576102ff611399565b5b60200260200101516040516020016103189190611465565b60405160208183030381529060405280519060200120145b156104515761033d610916565b915060c89250600167ffffffffffffffff81111561035e5761035d610cb9565b5b60405190808252806020026020018201604052801561039757816020015b610384610c75565b81526020019060019003908161037c5790505b5090506040518060400160405280600c81526020017f436f6e74656e742d547970650000000000000000000000000000000000000000815250816000815181106103e4576103e3611399565b5b6020026020010151600001819052506040518060400160405280601881526020017f746578742f68746d6c3b20636861727365743d7574662d3800000000000000008152508160008151811061043d5761043c611399565b5b602002602001015160200181905250610818565b600285511480156104c6575060405160200161046c906114c8565b604051602081830303815290604052805190602001208560008151811061049657610495611399565b5b60200260200101516040516020016104ae9190611465565b60405160208183030381529060405280519060200120145b156108125760006104f1866001815181106104e4576104e3611399565b5b6020026020010151610a70565b9050600181108061058f57507f000000000000000000000000000000000000000000000000000000000000000073ffffffffffffffffffffffffffffffffffffffff1663706e3da26040518163ffffffff1660e01b8152600401602060405180830381865afa158015610568573d6000803e3d6000fd5b505050506040513d601f19601f8201168201806040525081019061058c9190611509565b81115b1561059f57610194935050610818565b6000807f000000000000000000000000000000000000000000000000000000000000000073ffffffffffffffffffffffffffffffffffffffff1663ca6590f7846040518263ffffffff1660e01b81526004016105fb9190611536565b6040805180830381865afa158015610617573d6000803e3d6000fd5b505050506040513d601f19601f8201168201806040525081019061063b919061157d565b9150915060607377Eb3ca440f1dd19147fdBc58eb35b775fe31Ba363f81e8775846040518263ffffffff1660e01b815260040161067891906115cc565b600060405180830381865af49250505080156106b757506040513d6000823e3d601f19601f820116820180604052508101906106b49190611657565b60015b6106cb576106c483610b01565b90506106d0565b809150505b806106da83610b7b565b6040516020016106eb92919061181c565b604051602081830303815290604052955060c89650600167ffffffffffffffff81111561071b5761071a610cb9565b5b60405190808252806020026020018201604052801561075457816020015b610741610c75565b8152602001906001900390816107395790505b5094506040518060400160405280600c81526020017f436f6e74656e742d547970650000000000000000000000000000000000000000815250856000815181106107a1576107a0611399565b5b6020026020010151600001819052506040518060400160405280601081526020017f6170706c69636174696f6e2f6a736f6e00000000000000000000000000000000815250856000815181106107fa576107f9611399565b5b60200260200101516020018190525050505050610818565b61019492505b9250925092565b606073d09F8F8d3C16a900882d079CB48C559cdd11629E634b1f91577f00000000000000000000000000000000000000000000000000000000000000007f00000000000000000000000000000000000000000000000000000000000000007f00000000000000000000000000000000000000000000000000000000000000006040518463ffffffff1660e01b81526004016108bc93929190611877565b600060405180830381865af41580156108d9573d6000803e3d6000fd5b505050506040513d6000823e3d601f19601f820116820180604052508101906109029190611657565b905090565b606061091161081f565b905090565b6060736755a6978A58AfC2c4a1bb6f52aA087C193043e56329d556c67f00000000000000000000000000000000000000000000000000000000000000007f00000000000000000000000000000000000000000000000000000000000000006040518363ffffffff1660e01b81526004016109919291906118ae565b600060405180830381865af41580156109ae573d6000803e3d6000fd5b505050506040513d6000823e3d601f19601f820116820180604052508101906109d79190611657565b905090565b7f000000000000000000000000000000000000000000000000000000000000000081565b7f000000000000000000000000000000000000000000000000000000000000000081565b7f000000000000000000000000000000000000000000000000000000000000000081565b60007f3532313900000000000000000000000000000000000000000000000000000000905090565b6000808290506000915060005b8151811015610afa576000828281518110610a9b57610a9a611399565b5b602001015160f81c60f81b60f81c60ff16905060308110158015610ac0575060398111155b15610aec57603081610ad29190611906565b600a85610adf919061193a565b610ae9919061197c565b93505b508080600101915050610a7d565b5050919050565b6060610b0c82610bcc565b905060ff6000190460061b60228201816022026028822016608860f01b60005b600115610b4b5782811a82028182015260018101905060148103610b2c575b50838351166000511660011c8351188352602083019250838351166020511660011c835118835250505050919050565b60606080604051019050602081016040526000815280600019835b600115610bb7578184019350600a81066030018453600a8104905080610b96575b50828203602084039350808452505050919050565b6060610bd782610bf2565b90506002815101613078825260028203915080825250919050565b60606040519050608081016040526f30313233343536373839616263646566600f526002810190506028815260208101600060288201528260601b925060005b600115610c6e57808101820184821a600f81165160018301538060041c51825360018301925060148303610c67575050610c6e565b5050610c32565b5050919050565b604051806040016040528060608152602001606081525090565b6000604051905090565b600080fd5b600080fd5b600080fd5b6000601f19601f8301169050919050565b7f4e487b7100000000000000000000000000000000000000000000000000000000600052604160045260246000fd5b610cf182610ca8565b810181811067ffffffffffffffff82111715610d1057610d0f610cb9565b5b80604052505050565b6000610d23610c8f565b9050610d2f8282610ce8565b919050565b600067ffffffffffffffff821115610d4f57610d4e610cb9565b5b602082029050602081019050919050565b600080fd5b600080fd5b600067ffffffffffffffff821115610d8557610d84610cb9565b5b610d8e82610ca8565b9050602081019050919050565b82818337600083830152505050565b6000610dbd610db884610d6a565b610d19565b905082815260208101848484011115610dd957610dd8610d65565b5b610de4848285610d9b565b509392505050565b600082601f830112610e0157610e00610ca3565b5b8135610e11848260208601610daa565b91505092915050565b6000610e2d610e2884610d34565b610d19565b90508083825260208201905060208402830185811115610e5057610e4f610d60565b5b835b81811015610e9757803567ffffffffffffffff811115610e7557610e74610ca3565b5b808601610e828982610dec565b85526020850194505050602081019050610e52565b5050509392505050565b600082601f830112610eb657610eb5610ca3565b5b8135610ec6848260208601610e1a565b91505092915050565b600067ffffffffffffffff821115610eea57610ee9610cb9565b5b602082029050602081019050919050565b600080fd5b600080fd5b600060408284031215610f1b57610f1a610efb565b5b610f256040610d19565b9050600082013567ffffffffffffffff811115610f4557610f44610f00565b5b610f5184828501610dec565b600083015250602082013567ffffffffffffffff811115610f7557610f74610f00565b5b610f8184828501610dec565b60208301525092915050565b6000610fa0610f9b84610ecf565b610d19565b90508083825260208201905060208402830185811115610fc357610fc2610d60565b5b835b8181101561100a57803567ffffffffffffffff811115610fe857610fe7610ca3565b5b808601610ff58982610f05565b85526020850194505050602081019050610fc5565b5050509392505050565b600082601f83011261102957611028610ca3565b5b8135611039848260208601610f8d565b91505092915050565b6000806040838503121561105957611058610c99565b5b600083013567ffffffffffffffff81111561107757611076610c9e565b5b61108385828601610ea1565b925050602083013567ffffffffffffffff8111156110a4576110a3610c9e565b5b6110b085828601611014565b9150509250929050565b6000819050919050565b6110cd816110ba565b82525050565b600081519050919050565b600082825260208201905092915050565b60005b8381101561110d5780820151818401526020810190506110f2565b60008484015250505050565b6000611124826110d3565b61112e81856110de565b935061113e8185602086016110ef565b61114781610ca8565b840191505092915050565b600081519050919050565b600082825260208201905092915050565b6000819050602082019050919050565b600082825260208201905092915050565b600061119a826110d3565b6111a4818561117e565b93506111b48185602086016110ef565b6111bd81610ca8565b840191505092915050565b600060408301600083015184820360008601526111e5828261118f565b915050602083015184820360208601526111ff828261118f565b9150508091505092915050565b600061121883836111c8565b905092915050565b6000602082019050919050565b600061123882611152565b611242818561115d565b9350836020820285016112548561116e565b8060005b858110156112905784840389528151611271858261120c565b945061127c83611220565b925060208a01995050600181019050611258565b50829750879550505050505092915050565b60006060820190506112b760008301866110c4565b81810360208301526112c98185611119565b905081810360408301526112dd818461122d565b9050949350505050565b600060208201905081810360008301526113018184611119565b905092915050565b600073ffffffffffffffffffffffffffffffffffffffff82169050919050565b600061133482611309565b9050919050565b61134481611329565b82525050565b600060208201905061135f600083018461133b565b92915050565b6000819050919050565b61137881611365565b82525050565b6000602082019050611393600083018461136f565b92915050565b7f4e487b7100000000000000000000000000000000000000000000000000000000600052603260045260246000fd5b600081905092915050565b7f6573736179000000000000000000000000000000000000000000000000000000600082015250565b60006114096005836113c8565b9150611414826113d3565b600582019050919050565b600061142a826113fc565b9150819050919050565b600061143f826110d3565b61144981856113c8565b93506114598185602086016110ef565b80840191505092915050565b60006114718284611434565b915081905092915050565b7f666c6f7765720000000000000000000000000000000000000000000000000000600082015250565b60006114b26006836113c8565b91506114bd8261147c565b600682019050919050565b60006114d3826114a5565b9150819050919050565b6114e6816110ba565b81146114f157600080fd5b50565b600081519050611503816114dd565b92915050565b60006020828403121561151f5761151e610c99565b5b600061152d848285016114f4565b91505092915050565b600060208201905061154b60008301846110c4565b92915050565b61155a81611329565b811461156557600080fd5b50565b60008151905061157781611551565b92915050565b6000806040838503121561159457611593610c99565b5b60006115a285828601611568565b92505060206115b3858286016114f4565b9150509250929050565b6115c681611329565b82525050565b60006020820190506115e160008301846115bd565b92915050565b60006115fa6115f584610d6a565b610d19565b90508281526020810184848401111561161657611615610d65565b5b6116218482856110ef565b509392505050565b600082601f83011261163e5761163d610ca3565b5b815161164e8482602086016115e7565b91505092915050565b60006020828403121561166d5761166c610c99565b5b600082015167ffffffffffffffff81111561168b5761168a610c9e565b5b61169784828501611629565b91505092915050565b7f7b00000000000000000000000000000000000000000000000000000000000000600082015250565b60006116d66001836113c8565b91506116e1826116a0565b600182019050919050565b7f22706c616e746572223a20220000000000000000000000000000000000000000600082015250565b6000611722600c836113c8565b915061172d826116ec565b600c82019050919050565b7f222c000000000000000000000000000000000000000000000000000000000000600082015250565b600061176e6002836113c8565b915061177982611738565b600282019050919050565b7f2274696d657374616d70223a2000000000000000000000000000000000000000600082015250565b60006117ba600d836113c8565b91506117c582611784565b600d82019050919050565b7f7d00000000000000000000000000000000000000000000000000000000000000600082015250565b60006118066001836113c8565b9150611811826117d0565b600182019050919050565b6000611827826116c9565b915061183282611715565b915061183e8285611434565b915061184982611761565b9150611854826117ad565b91506118608284611434565b915061186b826117f9565b91508190509392505050565b600060608201905061188c60008301866115bd565b61189960208301856115bd565b6118a660408301846115bd565b949350505050565b60006040820190506118c360008301856115bd565b6118d060208301846115bd565b9392505050565b7f4e487b7100000000000000000000000000000000000000000000000000000000600052601160045260246000fd5b6000611911826110ba565b915061191c836110ba565b9250828203905081811115611934576119336118d7565b5b92915050565b6000611945826110ba565b9150611950836110ba565b925082820261195e816110ba565b91508282048414831517611975576119746118d7565b5b5092915050565b6000611987826110ba565b9150611992836110ba565b92508282019050808211156119aa576119a96118d7565b5b9291505056fea264697066735822122036b4b14bf7a5330b956437bf4a359aac25df9f8887fbed0415af93feedd55e5264736f6c634300081c0033",
  "deployedBytecode": "0x608060405234801561001057600080fd5b50600436106100885760003560e01c806344e2e23b1161005b57806344e2e23b1461011957806356ba88b81461013757806373d4a13a14610155578063dd473fae1461017357610088565b80631374c4601461008d5780632986c0e5146100bf57806333c34ac3146100dd578063427158f6146100fb575b600080fd5b6100a760048036038101906100a29190611042565b610191565b6040516100b6939291906112a2565b60405180910390f35b6100c761081f565b6040516100d491906112e7565b60405180910390f35b6100e5610907565b6040516100f291906112e7565b60405180910390f35b610103610916565b60405161011091906112e7565b60405180910390f35b6101216109dc565b60405161012e919061134a565b60405180910390f35b61013f610a00565b60405161014c919061134a565b60405180910390f35b61015d610a24565b60405161016a919061134a565b60405180910390f35b61017b610a48565b604051610188919061137e565b60405180910390f35b600060608060008551036102bb576101a761081f565b915060c89250600167ffffffffffffffff8111156101c8576101c7610cb9565b5b60405190808252806020026020018201604052801561020157816020015b6101ee610c75565b8152602001906001900390816101e65790505b5090506040518060400160405280600c81526020017f436f6e74656e742d5479706500000000000000000000000000000000000000008152508160008151811061024e5761024d611399565b5b6020026020010151600001819052506040518060400160405280601881526020017f746578742f68746d6c3b20636861727365743d7574662d380000000000000000815250816000815181106102a7576102a6611399565b5b602002602001015160200181905250610818565b6001855114801561033057506040516020016102d69061141f565b6040516020818303038152906040528051906020012085600081518110610300576102ff611399565b5b60200260200101516040516020016103189190611465565b60405160208183030381529060405280519060200120145b156104515761033d610916565b915060c89250600167ffffffffffffffff81111561035e5761035d610cb9565b5b60405190808252806020026020018201604052801561039757816020015b610384610c75565b81526020019060019003908161037c5790505b5090506040518060400160405280600c81526020017f436f6e74656e742d547970650000000000000000000000000000000000000000815250816000815181106103e4576103e3611399565b5b6020026020010151600001819052506040518060400160405280601881526020017f746578742f68746d6c3b20636861727365743d7574662d3800000000000000008152508160008151811061043d5761043c611399565b5b602002602001015160200181905250610818565b600285511480156104c6575060405160200161046c906114c8565b604051602081830303815290604052805190602001208560008151811061049657610495611399565b5b60200260200101516040516020016104ae9190611465565b60405160208183030381529060405280519060200120145b156108125760006104f1866001815181106104e4576104e3611399565b5b6020026020010151610a70565b9050600181108061058f57507f000000000000000000000000000000000000000000000000000000000000000073ffffffffffffffffffffffffffffffffffffffff1663706e3da26040518163ffffffff1660e01b8152600401602060405180830381865afa158015610568573d6000803e3d6000fd5b505050506040513d601f19601f8201168201806040525081019061058c9190611509565b81115b1561059f57610194935050610818565b6000807f000000000000000000000000000000000000000000000000000000000000000073ffffffffffffffffffffffffffffffffffffffff1663ca6590f7846040518263ffffffff1660e01b81526004016105fb9190611536565b6040805180830381865afa158015610617573d6000803e3d6000fd5b505050506040513d601f19601f8201168201806040525081019061063b919061157d565b91509150606073__$655cb50d0ad591db5cd566859be4f15046$__63f81e8775846040518263ffffffff1660e01b815260040161067891906115cc565b600060405180830381865af49250505080156106b757506040513d6000823e3d601f19601f820116820180604052508101906106b49190611657565b60015b6106cb576106c483610b01565b90506106d0565b809150505b806106da83610b7b565b6040516020016106eb92919061181c565b604051602081830303815290604052955060c89650600167ffffffffffffffff81111561071b5761071a610cb9565b5b60405190808252806020026020018201604052801561075457816020015b610741610c75565b8152602001906001900390816107395790505b5094506040518060400160405280600c81526020017f436f6e74656e742d547970650000000000000000000000000000000000000000815250856000815181106107a1576107a0611399565b5b6020026020010151600001819052506040518060400160405280601081526020017f6170706c69636174696f6e2f6a736f6e00000000000000000000000000000000815250856000815181106107fa576107f9611399565b5b60200260200101516020018190525050505050610818565b61019492505b9250925092565b606073__$7531b48486b6d7892bec015ad64a2c3bb0$__634b1f91577f00000000000000000000000000000000000000000000000000000000000000007f00000000000000000000000000000000000000000000000000000000000000007f00000000000000000000000000000000000000000000000000000000000000006040518463ffffffff1660e01b81526004016108bc93929190611877565b600060405180830381865af41580156108d9573d6000803e3d6000fd5b505050506040513d6000823e3d601f19601f820116820180604052508101906109029190611657565b905090565b606061091161081f565b905090565b606073__$094c53470426255b393b1a5adcf3976b93$__6329d556c67f00000000000000000000000000000000000000000000000000000000000000007f00000000000000000000000000000000000000000000000000000000000000006040518363ffffffff1660e01b81526004016109919291906118ae565b600060405180830381865af41580156109ae573d6000803e3d6000fd5b505050506040513d6000823e3d601f19601f820116820180604052508101906109d79190611657565b905090565b7f000000000000000000000000000000000000000000000000000000000000000081565b7f000000000000000000000000000000000000000000000000000000000000000081565b7f000000000000000000000000000000000000000000000000000000000000000081565b60007f3532313900000000000000000000000000000000000000000000000000000000905090565b6000808290506000915060005b8151811015610afa576000828281518110610a9b57610a9a611399565b5b602001015160f81c60f81b60f81c60ff16905060308110158015610ac0575060398111155b15610aec57603081610ad29190611906565b600a85610adf919061193a565b610ae9919061197c565b93505b508080600101915050610a7d565b5050919050565b6060610b0c82610bcc565b905060ff6000190460061b60228201816022026028822016608860f01b60005b600115610b4b5782811a82028182015260018101905060148103610b2c575b50838351166000511660011c8351188352602083019250838351166020511660011c835118835250505050919050565b60606080604051019050602081016040526000815280600019835b600115610bb7578184019350600a81066030018453600a8104905080610b96575b50828203602084039350808452505050919050565b6060610bd782610bf2565b90506002815101613078825260028203915080825250919050565b60606040519050608081016040526f30313233343536373839616263646566600f526002810190506028815260208101600060288201528260601b925060005b600115610c6e57808101820184821a600f81165160018301538060041c51825360018301925060148303610c67575050610c6e565b5050610c32565b5050919050565b604051806040016040528060608152602001606081525090565b6000604051905090565b600080fd5b600080fd5b600080fd5b6000601f19601f8301169050919050565b7f4e487b7100000000000000000000000000000000000000000000000000000000600052604160045260246000fd5b610cf182610ca8565b810181811067ffffffffffffffff82111715610d1057610d0f610cb9565b5b80604052505050565b6000610d23610c8f565b9050610d2f8282610ce8565b919050565b600067ffffffffffffffff821115610d4f57610d4e610cb9565b5b602082029050602081019050919050565b600080fd5b600080fd5b600067ffffffffffffffff821115610d8557610d84610cb9565b5b610d8e82610ca8565b9050602081019050919050565b82818337600083830152505050565b6000610dbd610db884610d6a565b610d19565b905082815260208101848484011115610dd957610dd8610d65565b5b610de4848285610d9b565b509392505050565b600082601f830112610e0157610e00610ca3565b5b8135610e11848260208601610daa565b91505092915050565b6000610e2d610e2884610d34565b610d19565b90508083825260208201905060208402830185811115610e5057610e4f610d60565b5b835b81811015610e9757803567ffffffffffffffff811115610e7557610e74610ca3565b5b808601610e828982610dec565b85526020850194505050602081019050610e52565b5050509392505050565b600082601f830112610eb657610eb5610ca3565b5b8135610ec6848260208601610e1a565b91505092915050565b600067ffffffffffffffff821115610eea57610ee9610cb9565b5b602082029050602081019050919050565b600080fd5b600080fd5b600060408284031215610f1b57610f1a610efb565b5b610f256040610d19565b9050600082013567ffffffffffffffff811115610f4557610f44610f00565b5b610f5184828501610dec565b600083015250602082013567ffffffffffffffff811115610f7557610f74610f00565b5b610f8184828501610dec565b60208301525092915050565b6000610fa0610f9b84610ecf565b610d19565b90508083825260208201905060208402830185811115610fc357610fc2610d60565b5b835b8181101561100a57803567ffffffffffffffff811115610fe857610fe7610ca3565b5b808601610ff58982610f05565b85526020850194505050602081019050610fc5565b5050509392505050565b600082601f83011261102957611028610ca3565b5b8135611039848260208601610f8d565b91505092915050565b6000806040838503121561105957611058610c99565b5b600083013567ffffffffffffffff81111561107757611076610c9e565b5b61108385828601610ea1565b925050602083013567ffffffffffffffff8111156110a4576110a3610c9e565b5b6110b085828601611014565b9150509250929050565b6000819050919050565b6110cd816110ba565b82525050565b600081519050919050565b600082825260208201905092915050565b60005b8381101561110d5780820151818401526020810190506110f2565b60008484015250505050565b6000611124826110d3565b61112e81856110de565b935061113e8185602086016110ef565b61114781610ca8565b840191505092915050565b600081519050919050565b600082825260208201905092915050565b6000819050602082019050919050565b600082825260208201905092915050565b600061119a826110d3565b6111a4818561117e565b93506111b48185602086016110ef565b6111bd81610ca8565b840191505092915050565b600060408301600083015184820360008601526111e5828261118f565b915050602083015184820360208601526111ff828261118f565b9150508091505092915050565b600061121883836111c8565b905092915050565b6000602082019050919050565b600061123882611152565b611242818561115d565b9350836020820285016112548561116e565b8060005b858110156112905784840389528151611271858261120c565b945061127c83611220565b925060208a01995050600181019050611258565b50829750879550505050505092915050565b60006060820190506112b760008301866110c4565b81810360208301526112c98185611119565b905081810360408301526112dd818461122d565b9050949350505050565b600060208201905081810360008301526113018184611119565b905092915050565b600073ffffffffffffffffffffffffffffffffffffffff82169050919050565b600061133482611309565b9050919050565b61134481611329565b82525050565b600060208201905061135f600083018461133b565b92915050565b6000819050919050565b61137881611365565b82525050565b6000602082019050611393600083018461136f565b92915050565b7f4e487b7100000000000000000000000000000000000000000000000000000000600052603260045260246000fd5b600081905092915050565b7f6573736179000000000000000000000000000000000000000000000000000000600082015250565b60006114096005836113c8565b9150611414826113d3565b600582019050919050565b600061142a826113fc565b9150819050919050565b600061143f826110d3565b61144981856113c8565b93506114598185602086016110ef565b80840191505092915050565b60006114718284611434565b915081905092915050565b7f666c6f7765720000000000000000000000000000000000000000000000000000600082015250565b60006114b26006836113c8565b91506114bd8261147c565b600682019050919050565b60006114d3826114a5565b9150819050919050565b6114e6816110ba565b81146114f157600080fd5b50565b600081519050611503816114dd565b92915050565b60006020828403121561151f5761151e610c99565b5b600061152d848285016114f4565b91505092915050565b600060208201905061154b60008301846110c4565b92915050565b61155a81611329565b811461156557600080fd5b50565b60008151905061157781611551565b92915050565b6000806040838503121561159457611593610c99565b5b60006115a285828601611568565b92505060206115b3858286016114f4565b9150509250929050565b6115c681611329565b82525050565b60006020820190506115e160008301846115bd565b92915050565b60006115fa6115f584610d6a565b610d19565b90508281526020810184848401111561161657611615610d65565b5b6116218482856110ef565b509392505050565b600082601f83011261163e5761163d610ca3565b5b815161164e8482602086016115e7565b91505092915050565b60006020828403121561166d5761166c610c99565b5b600082015167ffffffffffffffff81111561168b5761168a610c9e565b5b61169784828501611629565b91505092915050565b7f7b00000000000000000000000000000000000000000000000000000000000000600082015250565b60006116d66001836113c8565b91506116e1826116a0565b600182019050919050565b7f22706c616e746572223a20220000000000000000000000000000000000000000600082015250565b6000611722600c836113c8565b915061172d826116ec565b600c82019050919050565b7f222c000000000000000000000000000000000000000000000000000000000000600082015250565b600061176e6002836113c8565b915061177982611738565b600282019050919050565b7f2274696d657374616d70223a2000000000000000000000000000000000000000600082015250565b60006117ba600d836113c8565b91506117c582611784565b600d82019050919050565b7f7d00000000000000000000000000000000000000000000000000000000000000600082015250565b60006118066001836113c8565b9150611811826117d0565b600182019050919050565b6000611827826116c9565b915061183282611715565b915061183e8285611434565b915061184982611761565b9150611854826117ad565b91506118608284611434565b915061186b826117f9565b91508190509392505050565b600060608201905061188c60008301866115bd565b61189960208301856115bd565b6118a660408301846115bd565b949350505050565b60006040820190506118c360008301856115bd565b6118d060208301846115bd565b9392505050565b7f4e487b7100000000000000000000000000000000000000000000000000000000600052601160045260246000fd5b6000611911826110ba565b915061191c836110ba565b9250828203905081811115611934576119336118d7565b5b92915050565b6000611945826110ba565b9150611950836110ba565b925082820261195e816110ba565b91508282048414831517611975576119746118d7565b5b5092915050565b6000611987826110ba565b9150611992836110ba565b92508282019050808211156119aa576119a96118d7565b5b9291505056fea264697066735822122036b4b14bf7a5330b956437bf4a359aac25df9f8887fbed0415af93feedd55e5264736f6c634300081c0033",
  "libraries": {
    "GardenIndex": "0xd09F8F8d3C16a900882d079CB48C559cdd11629E",
    "GardenEssay": "0x6755a6978A58AfC2c4a1bb6f52aA087C193043e5",
    "ENSResolver": "0x77Eb3ca440f1dd19147fdBc58eb35b775fe31Ba3"
  },
  "devdoc": {
    "kind": "dev",
    "methods": {
      "request(string[],(string,string)[])": {
        "params": {
          "params": "The query parameters. (e.g. \"?asdf=1234&foo=bar\" turns in to `[{ key: \"asdf\", value: \"1234\" }, { key: \"foo\", value: \"bar\" }]`)",
          "resource": "The resource to request (e.g. \"/asdf/1234\" turns in to `[\"asdf\", \"1234\"]`)"
        },
        "returns": {
          "body": "               The body of the response",
          "headers": "            A list of header names (e.g. [{ key: \"Content-Type\", value: \"application/json\" }])",
          "statusCode": "         The HTTP status code (e.g. 200)"
        }
      },
      "resolveMode()": {
        "returns": {
          "_0": "resolveMode         The mode of the resolver (e.g. 5219)"
        }
      }
    },
    "version": 1
  },
  "userdoc": {
    "kind": "user",
    "methods": {
      "request(string[],(string,string)[])": {
        "notice": "Send an HTTP GET-like request to this contract"
      },
      "resolveMode()": {
        "notice": "returns the resolve mode of the contract"
      }
    },
    "version": 1
  },
  "storageLayout": {
    "storage": [],
    "types": null
  }
}