{
  "address": "0x7e2c9fB6C397d033db5Ced337356e1E547F29914",
  "abi": [
    {
      "inputs": [
        {
          "internalType": "address[]",
          "name": "_sculptures",
          "type": "address[]"
        },
        {
          "internalType": "address",
          "name": "_render",
          "type": "address"
        }
      ],
      "stateMutability": "nonpayable",
      "type": "constructor"
    },
    {
      "inputs": [],
      "name": "AlreadyInitialized",
      "type": "error"
    },
    {
      "inputs": [],
      "name": "NewOwnerIsZeroAddress",
      "type": "error"
    },
    {
      "inputs": [],
      "name": "NoHandoverRequest",
      "type": "error"
    },
    {
      "inputs": [],
      "name": "Unauthorized",
      "type": "error"
    },
    {
      "anonymous": false,
      "inputs": [
        {
          "indexed": true,
          "internalType": "address",
          "name": "contributor",
          "type": "address"
        },
        {
          "indexed": false,
          "internalType": "uint256",
          "name": "amount",
          "type": "uint256"
        }
      ],
      "name": "ContributionMade",
      "type": "event"
    },
    {
      "anonymous": false,
      "inputs": [
        {
          "indexed": true,
          "internalType": "address",
          "name": "pendingOwner",
          "type": "address"
        }
      ],
      "name": "OwnershipHandoverCanceled",
      "type": "event"
    },
    {
      "anonymous": false,
      "inputs": [
        {
          "indexed": true,
          "internalType": "address",
          "name": "pendingOwner",
          "type": "address"
        }
      ],
      "name": "OwnershipHandoverRequested",
      "type": "event"
    },
    {
      "anonymous": false,
      "inputs": [
        {
          "indexed": true,
          "internalType": "address",
          "name": "oldOwner",
          "type": "address"
        },
        {
          "indexed": true,
          "internalType": "address",
          "name": "newOwner",
          "type": "address"
        }
      ],
      "name": "OwnershipTransferred",
      "type": "event"
    },
    {
      "stateMutability": "payable",
      "type": "fallback"
    },
    {
      "inputs": [],
      "name": "addresses",
      "outputs": [
        {
          "internalType": "address[]",
          "name": "",
          "type": "address[]"
        }
      ],
      "stateMutability": "view",
      "type": "function"
    },
    {
      "inputs": [],
      "name": "authors",
      "outputs": [
        {
          "internalType": "string[]",
          "name": "",
          "type": "string[]"
        }
      ],
      "stateMutability": "view",
      "type": "function"
    },
    {
      "inputs": [],
      "name": "cancelOwnershipHandover",
      "outputs": [],
      "stateMutability": "payable",
      "type": "function"
    },
    {
      "inputs": [
        {
          "internalType": "address",
          "name": "pendingOwner",
          "type": "address"
        }
      ],
      "name": "completeOwnershipHandover",
      "outputs": [],
      "stateMutability": "payable",
      "type": "function"
    },
    {
      "inputs": [],
      "name": "contributed",
      "outputs": [
        {
          "internalType": "uint256",
          "name": "",
          "type": "uint256"
        }
      ],
      "stateMutability": "view",
      "type": "function"
    },
    {
      "inputs": [
        {
          "internalType": "uint256",
          "name": "",
          "type": "uint256"
        }
      ],
      "name": "contributions",
      "outputs": [
        {
          "internalType": "uint256",
          "name": "",
          "type": "uint256"
        }
      ],
      "stateMutability": "view",
      "type": "function"
    },
    {
      "inputs": [],
      "name": "getContributed",
      "outputs": [
        {
          "internalType": "uint256",
          "name": "",
          "type": "uint256"
        }
      ],
      "stateMutability": "view",
      "type": "function"
    },
    {
      "inputs": [
        {
          "internalType": "uint256",
          "name": "index",
          "type": "uint256"
        }
      ],
      "name": "getContribution",
      "outputs": [
        {
          "internalType": "address",
          "name": "contributor",
          "type": "address"
        },
        {
          "internalType": "uint256",
          "name": "amount",
          "type": "uint256"
        }
      ],
      "stateMutability": "view",
      "type": "function"
    },
    {
      "inputs": [],
      "name": "getSculptures",
      "outputs": [
        {
          "internalType": "address[]",
          "name": "",
          "type": "address[]"
        }
      ],
      "stateMutability": "view",
      "type": "function"
    },
    {
      "inputs": [],
      "name": "html",
      "outputs": [
        {
          "internalType": "string",
          "name": "",
          "type": "string"
        }
      ],
      "stateMutability": "view",
      "type": "function"
    },
    {
      "inputs": [],
      "name": "owner",
      "outputs": [
        {
          "internalType": "address",
          "name": "result",
          "type": "address"
        }
      ],
      "stateMutability": "view",
      "type": "function"
    },
    {
      "inputs": [
        {
          "internalType": "address",
          "name": "pendingOwner",
          "type": "address"
        }
      ],
      "name": "ownershipHandoverExpiresAt",
      "outputs": [
        {
          "internalType": "uint256",
          "name": "result",
          "type": "uint256"
        }
      ],
      "stateMutability": "view",
      "type": "function"
    },
    {
      "inputs": [],
      "name": "render",
      "outputs": [
        {
          "internalType": "address",
          "name": "",
          "type": "address"
        }
      ],
      "stateMutability": "view",
      "type": "function"
    },
    {
      "inputs": [],
      "name": "renounceOwnership",
      "outputs": [],
      "stateMutability": "payable",
      "type": "function"
    },
    {
      "inputs": [],
      "name": "requestOwnershipHandover",
      "outputs": [],
      "stateMutability": "payable",
      "type": "function"
    },
    {
      "inputs": [
        {
          "internalType": "uint256",
          "name": "",
          "type": "uint256"
        }
      ],
      "name": "sculptures",
      "outputs": [
        {
          "internalType": "address",
          "name": "",
          "type": "address"
        }
      ],
      "stateMutability": "view",
      "type": "function"
    },
    {
      "inputs": [
        {
          "internalType": "address[]",
          "name": "_sculptures",
          "type": "address[]"
        }
      ],
      "name": "setSculptures",
      "outputs": [],
      "stateMutability": "nonpayable",
      "type": "function"
    },
    {
      "inputs": [],
      "name": "sign",
      "outputs": [],
      "stateMutability": "payable",
      "type": "function"
    },
    {
      "inputs": [],
      "name": "text",
      "outputs": [
        {
          "internalType": "string",
          "name": "",
          "type": "string"
        }
      ],
      "stateMutability": "view",
      "type": "function"
    },
    {
      "inputs": [],
      "name": "title",
      "outputs": [
        {
          "internalType": "string",
          "name": "",
          "type": "string"
        }
      ],
      "stateMutability": "pure",
      "type": "function"
    },
    {
      "inputs": [
        {
          "internalType": "address",
          "name": "newOwner",
          "type": "address"
        }
      ],
      "name": "transferOwnership",
      "outputs": [],
      "stateMutability": "payable",
      "type": "function"
    },
    {
      "inputs": [],
      "name": "urls",
      "outputs": [
        {
          "internalType": "string[]",
          "name": "",
          "type": "string[]"
        }
      ],
      "stateMutability": "view",
      "type": "function"
    },
    {
      "stateMutability": "payable",
      "type": "receive"
    }
  ],
  "transactionHash": "0xae8757b747ab54a777978b96e88aafa989c16c595970248126399f1a988ff176",
  "args": [
    [],
    "0x13c47C96ac4b6609d82Df405BB95DB8750c63fB6"
  ],
  "numDeployments": 1,
  "solcInputHash": "eca08ed8c36e265bf2ba8a3d00ef776d",
  "bytecode": "0x60a060405234801561001057600080fd5b50604051611f9b380380611f9b833981810160405281019061003291906103eb565b8160009080519060200190610048929190610179565b508073ffffffffffffffffffffffffffffffffffffffff1660808173ffffffffffffffffffffffffffffffffffffffff168152505061008c3361009360201b60201c565b5050610447565b6100a161017460201b60201c565b1561011c577fffffffffffffffffffffffffffffffffffffffffffffffffffffffff748739278054156100dc57630dc149f06000526004601cfd5b8160601b60601c9150811560ff1b821781558160007f8be0079c531659141344cd1fd0a4f28419497f9722a3daafe3b4186f6b6457e0600080a350610171565b8060601b60601c9050807fffffffffffffffffffffffffffffffffffffffffffffffffffffffff74873927558060007f8be0079c531659141344cd1fd0a4f28419497f9722a3daafe3b4186f6b6457e0600080a35b50565b600090565b8280548282559060005260206000209081019282156101f2579160200282015b828111156101f15782518260006101000a81548173ffffffffffffffffffffffffffffffffffffffff021916908373ffffffffffffffffffffffffffffffffffffffff16021790555091602001919060010190610199565b5b5090506101ff9190610203565b5090565b5b8082111561021c576000816000905550600101610204565b5090565b6000604051905090565b600080fd5b600080fd5b600080fd5b6000601f19601f8301169050919050565b7f4e487b7100000000000000000000000000000000000000000000000000000000600052604160045260246000fd5b61028282610239565b810181811067ffffffffffffffff821117156102a1576102a061024a565b5b80604052505050565b60006102b4610220565b90506102c08282610279565b919050565b600067ffffffffffffffff8211156102e0576102df61024a565b5b602082029050602081019050919050565b600080fd5b600073ffffffffffffffffffffffffffffffffffffffff82169050919050565b6000610321826102f6565b9050919050565b61033181610316565b811461033c57600080fd5b50565b60008151905061034e81610328565b92915050565b6000610367610362846102c5565b6102aa565b9050808382526020820190506020840283018581111561038a576103896102f1565b5b835b818110156103b3578061039f888261033f565b84526020840193505060208101905061038c565b5050509392505050565b600082601f8301126103d2576103d1610234565b5b81516103e2848260208601610354565b91505092915050565b600080604083850312156104025761040161022a565b5b600083015167ffffffffffffffff8111156104205761041f61022f565b5b61042c858286016103bd565b925050602061043d8582860161033f565b9150509250929050565b608051611b2b6104706000396000818161014a015281816109e70152610c380152611b2b6000f3fe6080604052600436106101395760003560e01c806355735c5e116100ab578063cef422541161006f578063cef4225414610466578063d607497a146104a4578063da0321cd146104cf578063f04e283e146104fa578063f2fde38b14610516578063fee81cf41461053257610148565b806355735c5e1461039e578063715018a6146103c95780637e0b1cb5146103d35780638da5cb5b14610410578063a23fb7a31461043b57610148565b806328411ae1116100fd57806328411ae1146102de5780632c73dc4a146103095780632ca151221461033457806333c34ac31461033e5780634a79d50c1461036957806354d1f13d1461039457610148565b8063032a729014610218578063112f1907146102415780631cee07001461026c5780631f1bd692146102a957806325692962146102d457610148565b366101485761014661056f565b005b7f000000000000000000000000000000000000000000000000000000000000000073ffffffffffffffffffffffffffffffffffffffff166333c34ac36040518163ffffffff1660e01b8152600401600060405180830381865afa1580156101b3573d6000803e3d6000fd5b505050506040513d6000823e3d601f19601f820116820180604052508101906101dc91906111e6565b6040517f08c379a000000000000000000000000000000000000000000000000000000000815260040161020f9190611284565b60405180910390fd5b34801561022457600080fd5b5061023f600480360381019061023a91906113cc565b610670565b005b34801561024d57600080fd5b50610256610692565b604051610263919061142e565b60405180910390f35b34801561027857600080fd5b50610293600480360381019061028e9190611475565b610698565b6040516102a0919061142e565b60405180910390f35b3480156102b557600080fd5b506102be6106b0565b6040516102cb9190611284565b60405180910390f35b6102dc6106ed565b005b3480156102ea57600080fd5b506102f3610741565b60405161030091906115ae565b60405180910390f35b34801561031557600080fd5b5061031e6109d9565b60405161032b91906115ae565b60405180910390f35b61033c61056f565b005b34801561034a57600080fd5b506103536109e3565b6040516103609190611284565b60405180910390f35b34801561037557600080fd5b5061037e610a7e565b60405161038b9190611284565b60405180910390f35b61039c610abb565b005b3480156103aa57600080fd5b506103b3610af7565b6040516103c0919061168e565b60405180910390f35b6103d1610b85565b005b3480156103df57600080fd5b506103fa60048036038101906103f59190611475565b610b99565b60405161040791906116bf565b60405180910390f35b34801561041c57600080fd5b50610425610bd8565b60405161043291906116bf565b60405180910390f35b34801561044757600080fd5b50610450610c01565b60405161045d919061142e565b60405180910390f35b34801561047257600080fd5b5061048d60048036038101906104889190611475565b610c0b565b60405161049b9291906116da565b60405180910390f35b3480156104b057600080fd5b506104b9610c36565b6040516104c691906116bf565b60405180910390f35b3480156104db57600080fd5b506104e4610c5a565b6040516104f1919061168e565b60405180910390f35b610514600480360381019061050f9190611703565b610e34565b005b610530600480360381019061052b9190611703565b610e75565b005b34801561053e57600080fd5b5061055960048036038101906105549190611703565b610e9f565b604051610566919061142e565b60405180910390f35b662386f26fc100003410156105b9576040517f08c379a00000000000000000000000000000000000000000000000000000000081526004016105b09061177c565b60405180910390fd5b60018060008282546105cb91906117cb565b925050819055506000662386f26fc10000346105e7919061182e565b90503373ffffffffffffffffffffffffffffffffffffffff1660a082901b17600260006001548152602001908152602001600020819055503373ffffffffffffffffffffffffffffffffffffffff167f6770260ea820d2f539364e7617e021543aaf6d192f2fd2a47c20db6bd99a4eb934604051610665919061142e565b60405180910390a250565b610678610eba565b806000908051906020019061068e929190610fca565b5050565b60015481565b60026020528060005260406000206000915090505481565b60606040518060400160405280601781526020017f686572652062652065786869626974696f6e2074657874000000000000000000815250905090565b60006106f7610ef2565b67ffffffffffffffff164201905063389a75e1600c5233600052806020600c2055337fdbf36a107da19e49527a7176a1babf963b4b0ff8cde35ee35d6cd8f1f9ac7e1d600080a250565b6060600080600090505b60008054905081101561084357600080828154811061076d5761076c61185f565b5b9060005260206000200160009054906101000a900473ffffffffffffffffffffffffffffffffffffffff1673ffffffffffffffffffffffffffffffffffffffff166328411ae16040518163ffffffff1660e01b8152600401600060405180830381865afa1580156107e2573d6000803e3d6000fd5b505050506040513d6000823e3d601f19601f8201168201806040525081019061080b919061196f565b905060005b8151811015610834578380610824906119b8565b9450508080600101915050610810565b5050808060010191505061074b565b5060008167ffffffffffffffff8111156108605761085f6110a0565b5b60405190808252806020026020018201604052801561089357816020015b606081526020019060019003908161087e5790505b509050600080600090505b6000805490508110156109cf5760008082815481106108c0576108bf61185f565b5b9060005260206000200160009054906101000a900473ffffffffffffffffffffffffffffffffffffffff1673ffffffffffffffffffffffffffffffffffffffff166328411ae16040518163ffffffff1660e01b8152600401600060405180830381865afa158015610935573d6000803e3d6000fd5b505050506040513d6000823e3d601f19601f8201168201806040525081019061095e919061196f565b905060005b81518110156109c05781818151811061097f5761097e61185f565b5b602002602001015185858151811061099a5761099961185f565b5b602002602001018190525083806109b0906119b8565b9450508080600101915050610963565b5050808060010191505061089e565b5081935050505090565b6060808091505090565b60607f000000000000000000000000000000000000000000000000000000000000000073ffffffffffffffffffffffffffffffffffffffff166333c34ac36040518163ffffffff1660e01b8152600401600060405180830381865afa158015610a50573d6000803e3d6000fd5b505050506040513d6000823e3d601f19601f82011682018060405250810190610a7991906111e6565b905090565b60606040518060400160405280601f81526020017f576f726c6420436f6d7075746572205363756c70747572652047617264656e00815250905090565b63389a75e1600c523360005260006020600c2055337ffa7b8eab7da67f412cc9575ed43464468f9bfbae89d1675917346ca6d8fe3c92600080a2565b60606000805480602002602001604051908101604052809291908181526020018280548015610b7b57602002820191906000526020600020905b8160009054906101000a900473ffffffffffffffffffffffffffffffffffffffff1673ffffffffffffffffffffffffffffffffffffffff1681526020019060010190808311610b31575b5050505050905090565b610b8d610eba565b610b976000610efd565b565b60008181548110610ba957600080fd5b906000526020600020016000915054906101000a900473ffffffffffffffffffffffffffffffffffffffff1681565b60007fffffffffffffffffffffffffffffffffffffffffffffffffffffffff7487392754905090565b6000600154905090565b60008060006002600085815260200190815260200160002054905080925060a081901c915050915091565b7f000000000000000000000000000000000000000000000000000000000000000081565b60608060005b600080549050811015610e2c576000808281548110610c8257610c8161185f565b5b9060005260206000200160009054906101000a900473ffffffffffffffffffffffffffffffffffffffff16905060008173ffffffffffffffffffffffffffffffffffffffff1663da0321cd6040518163ffffffff1660e01b8152600401600060405180830381865afa158015610cfc573d6000803e3d6000fd5b505050506040513d6000823e3d601f19601f82011682018060405250810190610d259190611aac565b905060005b8151811015610e1c578273ffffffffffffffffffffffffffffffffffffffff1663da0321cd6040518163ffffffff1660e01b8152600401600060405180830381865afa158015610d7e573d6000803e3d6000fd5b505050506040513d6000823e3d601f19601f82011682018060405250810190610da79190611aac565b8181518110610db957610db861185f565b5b602002602001015185865181518110610dd557610dd461185f565b5b602002602001019073ffffffffffffffffffffffffffffffffffffffff16908173ffffffffffffffffffffffffffffffffffffffff16815250508080600101915050610d2a565b5050508080600101915050610c60565b508091505090565b610e3c610eba565b63389a75e1600c52806000526020600c208054421115610e6457636f5e88186000526004601cfd5b6000815550610e7281610efd565b50565b610e7d610eba565b8060601b610e9357637448fbae6000526004601cfd5b610e9c81610efd565b50565b600063389a75e1600c52816000526020600c20549050919050565b7fffffffffffffffffffffffffffffffffffffffffffffffffffffffff74873927543314610ef0576382b429006000526004601cfd5b565b60006202a300905090565b610f05610fc5565b15610f6b577fffffffffffffffffffffffffffffffffffffffffffffffffffffffff748739278160601b60601c91508181547f8be0079c531659141344cd1fd0a4f28419497f9722a3daafe3b4186f6b6457e0600080a3811560ff1b8217815550610fc2565b7fffffffffffffffffffffffffffffffffffffffffffffffffffffffff748739278160601b60601c91508181547f8be0079c531659141344cd1fd0a4f28419497f9722a3daafe3b4186f6b6457e0600080a3818155505b50565b600090565b828054828255906000526020600020908101928215611043579160200282015b828111156110425782518260006101000a81548173ffffffffffffffffffffffffffffffffffffffff021916908373ffffffffffffffffffffffffffffffffffffffff16021790555091602001919060010190610fea565b5b5090506110509190611054565b5090565b5b8082111561106d576000816000905550600101611055565b5090565b6000604051905090565b600080fd5b600080fd5b600080fd5b600080fd5b6000601f19601f8301169050919050565b7f4e487b7100000000000000000000000000000000000000000000000000000000600052604160045260246000fd5b6110d88261108f565b810181811067ffffffffffffffff821117156110f7576110f66110a0565b5b80604052505050565b600061110a611071565b905061111682826110cf565b919050565b600067ffffffffffffffff821115611136576111356110a0565b5b61113f8261108f565b9050602081019050919050565b60005b8381101561116a57808201518184015260208101905061114f565b60008484015250505050565b60006111896111848461111b565b611100565b9050828152602081018484840111156111a5576111a461108a565b5b6111b084828561114c565b509392505050565b600082601f8301126111cd576111cc611085565b5b81516111dd848260208601611176565b91505092915050565b6000602082840312156111fc576111fb61107b565b5b600082015167ffffffffffffffff81111561121a57611219611080565b5b611226848285016111b8565b91505092915050565b600081519050919050565b600082825260208201905092915050565b60006112568261122f565b611260818561123a565b935061127081856020860161114c565b6112798161108f565b840191505092915050565b6000602082019050818103600083015261129e818461124b565b905092915050565b600067ffffffffffffffff8211156112c1576112c06110a0565b5b602082029050602081019050919050565b600080fd5b600073ffffffffffffffffffffffffffffffffffffffff82169050919050565b6000611302826112d7565b9050919050565b611312816112f7565b811461131d57600080fd5b50565b60008135905061132f81611309565b92915050565b6000611348611343846112a6565b611100565b9050808382526020820190506020840283018581111561136b5761136a6112d2565b5b835b8181101561139457806113808882611320565b84526020840193505060208101905061136d565b5050509392505050565b600082601f8301126113b3576113b2611085565b5b81356113c3848260208601611335565b91505092915050565b6000602082840312156113e2576113e161107b565b5b600082013567ffffffffffffffff811115611400576113ff611080565b5b61140c8482850161139e565b91505092915050565b6000819050919050565b61142881611415565b82525050565b6000602082019050611443600083018461141f565b92915050565b61145281611415565b811461145d57600080fd5b50565b60008135905061146f81611449565b92915050565b60006020828403121561148b5761148a61107b565b5b600061149984828501611460565b91505092915050565b600081519050919050565b600082825260208201905092915050565b6000819050602082019050919050565b600082825260208201905092915050565b60006114ea8261122f565b6114f481856114ce565b935061150481856020860161114c565b61150d8161108f565b840191505092915050565b600061152483836114df565b905092915050565b6000602082019050919050565b6000611544826114a2565b61154e81856114ad565b935083602082028501611560856114be565b8060005b8581101561159c578484038952815161157d8582611518565b94506115888361152c565b925060208a01995050600181019050611564565b50829750879550505050505092915050565b600060208201905081810360008301526115c88184611539565b905092915050565b600081519050919050565b600082825260208201905092915050565b6000819050602082019050919050565b611605816112f7565b82525050565b600061161783836115fc565b60208301905092915050565b6000602082019050919050565b600061163b826115d0565b61164581856115db565b9350611650836115ec565b8060005b83811015611681578151611668888261160b565b975061167383611623565b925050600181019050611654565b5085935050505092915050565b600060208201905081810360008301526116a88184611630565b905092915050565b6116b9816112f7565b82525050565b60006020820190506116d460008301846116b0565b92915050565b60006040820190506116ef60008301856116b0565b6116fc602083018461141f565b9392505050565b6000602082840312156117195761171861107b565b5b600061172784828501611320565b91505092915050565b7f436f6e74726962757465206174206c6561737420302e30310000000000000000600082015250565b600061176660188361123a565b915061177182611730565b602082019050919050565b6000602082019050818103600083015261179581611759565b9050919050565b7f4e487b7100000000000000000000000000000000000000000000000000000000600052601160045260246000fd5b60006117d682611415565b91506117e183611415565b92508282019050808211156117f9576117f861179c565b5b92915050565b7f4e487b7100000000000000000000000000000000000000000000000000000000600052601260045260246000fd5b600061183982611415565b915061184483611415565b925082611854576118536117ff565b5b828204905092915050565b7f4e487b7100000000000000000000000000000000000000000000000000000000600052603260045260246000fd5b600067ffffffffffffffff8211156118a9576118a86110a0565b5b602082029050602081019050919050565b60006118cd6118c88461188e565b611100565b905080838252602082019050602084028301858111156118f0576118ef6112d2565b5b835b8181101561193757805167ffffffffffffffff81111561191557611914611085565b5b80860161192289826111b8565b855260208501945050506020810190506118f2565b5050509392505050565b600082601f83011261195657611955611085565b5b81516119668482602086016118ba565b91505092915050565b6000602082840312156119855761198461107b565b5b600082015167ffffffffffffffff8111156119a3576119a2611080565b5b6119af84828501611941565b91505092915050565b60006119c382611415565b91507fffffffffffffffffffffffffffffffffffffffffffffffffffffffffffffffff82036119f5576119f461179c565b5b600182019050919050565b600081519050611a0f81611309565b92915050565b6000611a28611a23846112a6565b611100565b90508083825260208201905060208402830185811115611a4b57611a4a6112d2565b5b835b81811015611a745780611a608882611a00565b845260208401935050602081019050611a4d565b5050509392505050565b600082601f830112611a9357611a92611085565b5b8151611aa3848260208601611a15565b91505092915050565b600060208284031215611ac257611ac161107b565b5b600082015167ffffffffffffffff811115611ae057611adf611080565b5b611aec84828501611a7e565b9150509291505056fea2646970667358221220ad4a21a368e949cfa6839345788296db5c42346a0c719a35f60f27bc507a87a464736f6c634300081b0033",
  "devdoc": {
    "errors": {
      "AlreadyInitialized()": [
        {
          "details": "Cannot double-initialize."
        }
      ],
      "NewOwnerIsZeroAddress()": [
        {
          "details": "The `newOwner` cannot be the zero address."
        }
      ],
      "NoHandoverRequest()": [
        {
          "details": "The `pendingOwner` does not have a valid handover request."
        }
      ],
      "Unauthorized()": [
        {
          "details": "The caller is not authorized to call the function."
        }
      ]
    },
    "events": {
      "OwnershipHandoverCanceled(address)": {
        "details": "The ownership handover to `pendingOwner` has been canceled."
      },
      "OwnershipHandoverRequested(address)": {
        "details": "An ownership handover to `pendingOwner` has been requested."
      },
      "OwnershipTransferred(address,address)": {
        "details": "The ownership is transferred from `oldOwner` to `newOwner`. This event is intentionally kept the same as OpenZeppelin's Ownable to be compatible with indexers and [EIP-173](https://eips.ethereum.org/EIPS/eip-173), despite it not being as lightweight as a single argument event."
      }
    },
    "kind": "dev",
    "methods": {
      "cancelOwnershipHandover()": {
        "details": "Cancels the two-step ownership handover to the caller, if any."
      },
      "completeOwnershipHandover(address)": {
        "details": "Allows the owner to complete the two-step ownership handover to `pendingOwner`. Reverts if there is no existing ownership handover requested by `pendingOwner`."
      },
      "owner()": {
        "details": "Returns the owner of the contract."
      },
      "ownershipHandoverExpiresAt(address)": {
        "details": "Returns the expiry timestamp for the two-step ownership handover to `pendingOwner`."
      },
      "renounceOwnership()": {
        "details": "Allows the owner to renounce their ownership."
      },
      "requestOwnershipHandover()": {
        "details": "Request a two-step ownership handover to the caller. The request will automatically expire in 48 hours (172800 seconds) by default."
      },
      "transferOwnership(address)": {
        "details": "Allows the owner to transfer the ownership to `newOwner`."
      }
    },
    "version": 1
  },
  "userdoc": {
    "kind": "user",
    "methods": {
      "sign()": {
        "notice": "Contribute and plant a tree in the garden"
      }
    },
    "version": 1
  },
  "storageLayout": {
    "storage": [
      {
        "astId": 11,
        "contract": "contracts/Garden.sol:Garden",
        "label": "sculptures",
        "offset": 0,
        "slot": "0",
        "type": "t_array(t_address)dyn_storage"
      },
      {
        "astId": 315,
        "contract": "contracts/Garden.sol:Garden",
        "label": "contributed",
        "offset": 0,
        "slot": "1",
        "type": "t_uint256"
      },
      {
        "astId": 319,
        "contract": "contracts/Garden.sol:Garden",
        "label": "contributions",
        "offset": 0,
        "slot": "2",
        "type": "t_mapping(t_uint256,t_uint256)"
      }
    ],
    "types": {
      "t_address": {
        "encoding": "inplace",
        "label": "address",
        "numberOfBytes": "20"
      },
      "t_array(t_address)dyn_storage": {
        "base": "t_address",
        "encoding": "dynamic_array",
        "label": "address[]",
        "numberOfBytes": "32"
      },
      "t_mapping(t_uint256,t_uint256)": {
        "encoding": "mapping",
        "key": "t_uint256",
        "label": "mapping(uint256 => uint256)",
        "numberOfBytes": "32",
        "value": "t_uint256"
      },
      "t_uint256": {
        "encoding": "inplace",
        "label": "uint256",
        "numberOfBytes": "32"
      }
    }
  }
}