{
  "address": "0xb5315E17C509dE0753B32f35f3bbc0f47f339a21",
  "abi": [
    {
      "inputs": [
        {
          "internalType": "address",
          "name": "_garden",
          "type": "address"
        },
        {
          "internalType": "address",
          "name": "_essayContract",
          "type": "address"
        }
      ],
      "stateMutability": "nonpayable",
      "type": "constructor"
    },
    {
      "inputs": [],
      "name": "essay",
      "outputs": [
        {
          "internalType": "string",
          "name": "html",
          "type": "string"
        }
      ],
      "stateMutability": "view",
      "type": "function"
    },
    {
      "inputs": [],
      "name": "essayContract",
      "outputs": [
        {
          "internalType": "address",
          "name": "",
          "type": "address"
        }
      ],
      "stateMutability": "view",
      "type": "function"
    },
    {
      "inputs": [],
      "name": "garden",
      "outputs": [
        {
          "internalType": "address",
          "name": "",
          "type": "address"
        }
      ],
      "stateMutability": "view",
      "type": "function"
    },
    {
      "inputs": [],
      "name": "html",
      "outputs": [
        {
          "internalType": "string",
          "name": "",
          "type": "string"
        }
      ],
      "stateMutability": "view",
      "type": "function"
    },
    {
      "inputs": [],
      "name": "index",
      "outputs": [
        {
          "internalType": "string",
          "name": "html",
          "type": "string"
        }
      ],
      "stateMutability": "view",
      "type": "function"
    },
    {
      "inputs": [
        {
          "internalType": "string[]",
          "name": "resource",
          "type": "string[]"
        },
        {
          "components": [
            {
              "internalType": "string",
              "name": "key",
              "type": "string"
            },
            {
              "internalType": "string",
              "name": "value",
              "type": "string"
            }
          ],
          "internalType": "struct KeyValue[]",
          "name": "params",
          "type": "tuple[]"
        }
      ],
      "name": "request",
      "outputs": [
        {
          "internalType": "uint256",
          "name": "statusCode",
          "type": "uint256"
        },
        {
          "internalType": "string",
          "name": "body",
          "type": "string"
        },
        {
          "components": [
            {
              "internalType": "string",
              "name": "key",
              "type": "string"
            },
            {
              "internalType": "string",
              "name": "value",
              "type": "string"
            }
          ],
          "internalType": "struct KeyValue[]",
          "name": "headers",
          "type": "tuple[]"
        }
      ],
      "stateMutability": "view",
      "type": "function"
    },
    {
      "inputs": [],
      "name": "resolveMode",
      "outputs": [
        {
          "internalType": "bytes32",
          "name": "",
          "type": "bytes32"
        }
      ],
      "stateMutability": "pure",
      "type": "function"
    }
  ],
  "transactionHash": "0xa5e0c09804fe6683b76130e29f412025294b5bc2bd6a33f6c1d2366f630c23a5",
  "args": [
    "0x789BC8604E3F44a08f563Fba64d5c85797D67E7f",
    "0x7d819DB667f3e5c3029B160b947C35A917913B0f"
  ],
  "numDeployments": 9,
  "solcInputHash": "76d0ecf2fc0b0118c734b8f0b202ec62",
  "bytecode": "0x60c060405234801561001057600080fd5b5060405161582038038061582083398181016040528101906100329190610104565b8173ffffffffffffffffffffffffffffffffffffffff1660808173ffffffffffffffffffffffffffffffffffffffff16815250508073ffffffffffffffffffffffffffffffffffffffff1660a08173ffffffffffffffffffffffffffffffffffffffff16815250505050610144565b600080fd5b600073ffffffffffffffffffffffffffffffffffffffff82169050919050565b60006100d1826100a6565b9050919050565b6100e1816100c6565b81146100ec57600080fd5b50565b6000815190506100fe816100d8565b92915050565b6000806040838503121561011b5761011a6100a1565b5b6000610129858286016100ef565b925050602061013a858286016100ef565b9150509250929050565b60805160a05161565c6101c4600039600081816106ca0152818161131901526114e701526000818161043b015281816104d2015281816106a4015281816107bf01528181610ecb01528181610ef601528181610f990152818161103c0152818161117201528181611282015281816113ea015261150b015261565c6000f3fe608060405234801561001057600080fd5b506004361061007d5760003560e01c8063427158f61161005b578063427158f6146100f057806344e2e23b1461010e57806356ba88b81461012c578063dd473fae1461014a5761007d565b80631374c460146100825780632986c0e5146100b457806333c34ac3146100d2575b600080fd5b61009c60048036038101906100979190611e66565b610168565b6040516100ab939291906120c6565b60405180910390f35b6100bc610435565b6040516100c9919061210b565b60405180910390f35b6100da61126d565b6040516100e7919061210b565b60405180910390f35b6100f861127c565b604051610105919061210b565b60405180910390f35b6101166114e5565b604051610123919061216e565b60405180910390f35b610134611509565b604051610141919061216e565b60405180910390f35b61015261152d565b60405161015f91906121a2565b60405180910390f35b600060608060008551036102925761017e610435565b915060c89250600167ffffffffffffffff81111561019f5761019e611add565b5b6040519080825280602002602001820160405280156101d857816020015b6101c5611a99565b8152602001906001900390816101bd5790505b5090506040518060400160405280600c81526020017f436f6e74656e742d54797065000000000000000000000000000000000000000081525081600081518110610225576102246121bd565b5b6020026020010151600001819052506040518060400160405280601881526020017f746578742f68746d6c3b20636861727365743d7574662d3800000000000000008152508160008151811061027e5761027d6121bd565b5b60200260200101516020018190525061042e565b6001855114801561030757506040516020016102ad90612243565b60405160208183030381529060405280519060200120856000815181106102d7576102d66121bd565b5b60200260200101516040516020016102ef9190612289565b60405160208183030381529060405280519060200120145b156104285761031461127c565b915060c89250600167ffffffffffffffff81111561033557610334611add565b5b60405190808252806020026020018201604052801561036e57816020015b61035b611a99565b8152602001906001900390816103535790505b5090506040518060400160405280600c81526020017f436f6e74656e742d547970650000000000000000000000000000000000000000815250816000815181106103bb576103ba6121bd565b5b6020026020010151600001819052506040518060400160405280601881526020017f746578742f68746d6c3b20636861727365743d7574662d38000000000000000081525081600081518110610414576104136121bd565b5b60200260200101516020018190525061042e565b61019492505b9250925092565b606060007f000000000000000000000000000000000000000000000000000000000000000073ffffffffffffffffffffffffffffffffffffffff166355735c5e6040518163ffffffff1660e01b8152600401600060405180830381865afa1580156104a4573d6000803e3d6000fd5b505050506040513d6000823e3d601f19601f820116820180604052508101906104cd919061238f565b9050817f000000000000000000000000000000000000000000000000000000000000000073ffffffffffffffffffffffffffffffffffffffff16634a79d50c6040518163ffffffff1660e01b8152600401600060405180830381865afa15801561053b573d6000803e3d6000fd5b505050506040513d6000823e3d601f19601f820116820180604052508101906105649190612448565b604051602001610575929190612763565b604051602081830303815290604052915060005b815181101561069d578181815181106105a5576105a46121bd565b5b602002602001015173ffffffffffffffffffffffffffffffffffffffff166328411ae16040518163ffffffff1660e01b8152600401600060405180830381865afa92505050801561061957506040513d6000823e3d601f19601f820116820180604052508101906106169190612902565b60015b610644578260405160200161062e9190612971565b6040516020818303038152906040529250610690565b60008151111561068e578381600081518110610663576106626121bd565b5b602002602001015160405160200161067c9291906129bd565b60405160208183030381529060405293505b505b8080600101915050610589565b50816106c87f0000000000000000000000000000000000000000000000000000000000000000611555565b7f000000000000000000000000000000000000000000000000000000000000000073ffffffffffffffffffffffffffffffffffffffff166328411ae16040518163ffffffff1660e01b8152600401600060405180830381865afa158015610733573d6000803e3d6000fd5b505050506040513d6000823e3d601f19601f8201168201806040525081019061075c9190612902565b60008151811061076f5761076e6121bd565b5b602002602001015160405160200161078993929190612f48565b6040516020818303038152906040529150816040516020016107ab91906130ca565b6040516020818303038152906040529150817f000000000000000000000000000000000000000000000000000000000000000073ffffffffffffffffffffffffffffffffffffffff16631f1bd6926040518163ffffffff1660e01b8152600401600060405180830381865afa158015610828573d6000803e3d6000fd5b505050506040513d6000823e3d601f19601f820116820180604052508101906108519190612448565b6040516020016108629291906131bd565b604051602081830303815290604052915060005b8151811015610ec4576000828281518110610894576108936121bd565b5b60200260200101519050836040516020016108af9190613230565b60405160208183030381529060405293508073ffffffffffffffffffffffffffffffffffffffff166328411ae16040518163ffffffff1660e01b8152600401600060405180830381865afa92505050801561092d57506040513d6000823e3d601f19601f8201168201806040525081019061092a9190612902565b60015b6109585783604051602001610942919061327c565b6040516020818303038152906040529350610a26565b600081511115610a24578460405160200161097391906132a2565b604051602081830303815290604052945060005b8151811015610a005760008282815181106109a5576109a46121bd565b5b60200260200101515103156109f357858282815181106109c8576109c76121bd565b5b60200260200101516040516020016109e19291906129bd565b60405160208183030381529060405295505b8080600101915050610987565b5084604051602001610a1291906132ee565b60405160208183030381529060405294505b505b8073ffffffffffffffffffffffffffffffffffffffff16634a79d50c6040518163ffffffff1660e01b8152600401600060405180830381865afa925050508015610a9357506040513d6000823e3d601f19601f82011682018060405250810190610a909190612448565b60015b610abe5783604051602001610aa8919061333a565b6040516020818303038152906040529350610b16565b600081511115610af1578481604051602001610adb9291906133ac565b6040516020818303038152906040529450610b14565b84604051602001610b02919061333a565b60405160208183030381529060405294505b505b8073ffffffffffffffffffffffffffffffffffffffff1663da0321cd6040518163ffffffff1660e01b8152600401600060405180830381865afa925050508015610b8357506040513d6000823e3d601f19601f82011682018060405250810190610b80919061238f565b60015b610bd25783610bab848481518110610b9e57610b9d6121bd565b5b6020026020010151611555565b604051602001610bbc92919061343a565b6040516020818303038152906040529350610c83565b600081511115610c815784604051602001610bed919061347c565b604051602081830303815290604052945060005b8151811015610c5d5785610c2e838381518110610c2157610c206121bd565b5b6020026020010151611555565b604051602001610c3f9291906134ee565b60405160208183030381529060405295508080600101915050610c01565b5084604051602001610c6f9190613556565b60405160208183030381529060405294505b505b8073ffffffffffffffffffffffffffffffffffffffff16632c73dc4a6040518163ffffffff1660e01b8152600401600060405180830381865afa925050508015610cf057506040513d6000823e3d601f19601f82011682018060405250810190610ced9190612902565b60015b15610dcb57600081511115610dc95784604051602001610d10919061347c565b604051602081830303815290604052945060005b8151811015610da5576000828281518110610d4257610d416121bd565b5b6020026020010151510315610d985785610d75838381518110610d6857610d676121bd565b5b602002602001015161157b565b604051602001610d869291906129bd565b60405160208183030381529060405295505b8080600101915050610d24565b5084604051602001610db79190613556565b60405160208183030381529060405294505b505b8073ffffffffffffffffffffffffffffffffffffffff16631f1bd6926040518163ffffffff1660e01b8152600401600060405180830381865afa925050508015610e3857506040513d6000823e3d601f19601f82011682018060405250810190610e359190612448565b60015b610e635783604051602001610e4d91906135ee565b6040516020818303038152906040529350610e94565b600081511115610e92578481604051602001610e8092919061365c565b60405160208183030381529060405294505b505b83604051602001610ea591906136c4565b6040516020818303038152906040529350508080600101915050610876565b5081610eef7f0000000000000000000000000000000000000000000000000000000000000000611555565b610f9260057f000000000000000000000000000000000000000000000000000000000000000073ffffffffffffffffffffffffffffffffffffffff16630a8ee81d6040518163ffffffff1660e01b8152600401602060405180830381865afa158015610f5f573d6000803e3d6000fd5b505050506040513d601f19601f82011682018060405250810190610f839190613716565b610f8d9190613772565b6115b4565b61103560c87f000000000000000000000000000000000000000000000000000000000000000073ffffffffffffffffffffffffffffffffffffffff1663706e3da26040518163ffffffff1660e01b8152600401602060405180830381865afa158015611002573d6000803e3d6000fd5b505050506040513d601f19601f820116820180604052508101906110269190613716565b6110309190613772565b6115b4565b6110d860c87f000000000000000000000000000000000000000000000000000000000000000073ffffffffffffffffffffffffffffffffffffffff1663706e3da26040518163ffffffff1660e01b8152600401602060405180830381865afa1580156110a5573d6000803e3d6000fd5b505050506040513d601f19601f820116820180604052508101906110c99190613716565b6110d39190613772565b6115b4565b6040516020016110ec959493929190614b64565b604051602081830303815290604052915081611107436115b4565b61111030611555565b60405160200161112293929190614fbc565b6040516020818303038152906040529150816040516020016111449190615016565b60405160208183030381529060405291507325d9de198DB46375eCc71f7D554Cc5dBdf24C14C63125a507b837f000000000000000000000000000000000000000000000000000000000000000073ffffffffffffffffffffffffffffffffffffffff16634a79d50c6040518163ffffffff1660e01b8152600401600060405180830381865afa1580156111db573d6000803e3d6000fd5b505050506040513d6000823e3d601f19601f820116820180604052508101906112049190612448565b6040518363ffffffff1660e01b8152600401611221929190615086565b600060405180830381865af415801561123e573d6000803e3d6000fd5b505050506040513d6000823e3d601f19601f820116820180604052508101906112679190612448565b91505090565b6060611277610435565b905090565b606060007f000000000000000000000000000000000000000000000000000000000000000073ffffffffffffffffffffffffffffffffffffffff166355735c5e6040518163ffffffff1660e01b8152600401600060405180830381865afa1580156112eb573d6000803e3d6000fd5b505050506040513d6000823e3d601f19601f82011682018060405250810190611314919061238f565b9050817f000000000000000000000000000000000000000000000000000000000000000073ffffffffffffffffffffffffffffffffffffffff166333c34ac36040518163ffffffff1660e01b8152600401600060405180830381865afa158015611382573d6000803e3d6000fd5b505050506040513d6000823e3d601f19601f820116820180604052508101906113ab9190612448565b6040516020016113bc929190615427565b60405160208183030381529060405291507325d9de198DB46375eCc71f7D554Cc5dBdf24C14C63125a507b837f000000000000000000000000000000000000000000000000000000000000000073ffffffffffffffffffffffffffffffffffffffff16634a79d50c6040518163ffffffff1660e01b8152600401600060405180830381865afa158015611453573d6000803e3d6000fd5b505050506040513d6000823e3d601f19601f8201168201806040525081019061147c9190612448565b6040518363ffffffff1660e01b8152600401611499929190615086565b600060405180830381865af41580156114b6573d6000803e3d6000fd5b505050506040513d6000823e3d601f19601f820116820180604052508101906114df9190612448565b91505090565b7f000000000000000000000000000000000000000000000000000000000000000081565b7f000000000000000000000000000000000000000000000000000000000000000081565b60007f3532313900000000000000000000000000000000000000000000000000000000905090565b606061156082611605565b90506002815101613078825260028203915080825250919050565b6060600061158883611688565b9050828160405160200161159d9291906155a5565b604051602081830303815290604052915050919050565b60606080604051019050602081016040526000815280600019835b6001156115f0578184019350600a81066030018453600a81049050806115cf575b50828203602084039350808452505050919050565b60606040519050608081016040526f30313233343536373839616263646566600f526002810190506028815260208101600060288201528260601b925060005b60011561168157808101820184821a600f81165160018301538060041c5182536001830192506014830361167a575050611681565b5050611645565b5050919050565b6060600082905060008151905060008082905060005b6002846116ab91906155f2565b811015611826577f3a000000000000000000000000000000000000000000000000000000000000008582815181106116e6576116e56121bd565b5b602001015160f81c60f81b7effffffffffffffffffffffffffffffffffffffffffffffffffffffffffffff191614801561178a57507f2f000000000000000000000000000000000000000000000000000000000000008560018361174a9190613772565b8151811061175b5761175a6121bd565b5b602001015160f81c60f81b7effffffffffffffffffffffffffffffffffffffffffffffffffffffffffffff1916145b801561180057507f2f00000000000000000000000000000000000000000000000000000000000000856002836117c09190613772565b815181106117d1576117d06121bd565b5b602001015160f81c60f81b7effffffffffffffffffffffffffffffffffffffffffffffffffffffffffffff1916145b15611819576003816118129190613772565b9250611826565b808060010191505061169e565b5060008290505b8381101561191a577f3f00000000000000000000000000000000000000000000000000000000000000858281518110611869576118686121bd565b5b602001015160f81c60f81b7effffffffffffffffffffffffffffffffffffffffffffffffffffffffffffff1916148061190057507f23000000000000000000000000000000000000000000000000000000000000008582815181106118d1576118d06121bd565b5b602001015160f81c60f81b7effffffffffffffffffffffffffffffffffffffffffffffffffffffffffffff1916145b1561190d5780915061191a565b808060010191505061182d565b50818111801561199457507f2f000000000000000000000000000000000000000000000000000000000000008460018361195491906155f2565b81518110611965576119646121bd565b5b602001015160f81c60f81b7effffffffffffffffffffffffffffffffffffffffffffffffffffffffffffff1916145b156119a9576001816119a691906155f2565b90505b600082826119b791906155f2565b67ffffffffffffffff8111156119d0576119cf611add565b5b6040519080825280601f01601f191660200182016040528015611a025781602001600182028036833780820191505090505b50905060008390505b82811015611a8b57858181518110611a2657611a256121bd565b5b602001015160f81c60f81b828583611a3e91906155f2565b81518110611a4f57611a4e6121bd565b5b60200101907effffffffffffffffffffffffffffffffffffffffffffffffffffffffffffff1916908160001a9053508080600101915050611a0b565b508095505050505050919050565b604051806040016040528060608152602001606081525090565b6000604051905090565b600080fd5b600080fd5b600080fd5b6000601f19601f8301169050919050565b7f4e487b7100000000000000000000000000000000000000000000000000000000600052604160045260246000fd5b611b1582611acc565b810181811067ffffffffffffffff82111715611b3457611b33611add565b5b80604052505050565b6000611b47611ab3565b9050611b538282611b0c565b919050565b600067ffffffffffffffff821115611b7357611b72611add565b5b602082029050602081019050919050565b600080fd5b600080fd5b600067ffffffffffffffff821115611ba957611ba8611add565b5b611bb282611acc565b9050602081019050919050565b82818337600083830152505050565b6000611be1611bdc84611b8e565b611b3d565b905082815260208101848484011115611bfd57611bfc611b89565b5b611c08848285611bbf565b509392505050565b600082601f830112611c2557611c24611ac7565b5b8135611c35848260208601611bce565b91505092915050565b6000611c51611c4c84611b58565b611b3d565b90508083825260208201905060208402830185811115611c7457611c73611b84565b5b835b81811015611cbb57803567ffffffffffffffff811115611c9957611c98611ac7565b5b808601611ca68982611c10565b85526020850194505050602081019050611c76565b5050509392505050565b600082601f830112611cda57611cd9611ac7565b5b8135611cea848260208601611c3e565b91505092915050565b600067ffffffffffffffff821115611d0e57611d0d611add565b5b602082029050602081019050919050565b600080fd5b600080fd5b600060408284031215611d3f57611d3e611d1f565b5b611d496040611b3d565b9050600082013567ffffffffffffffff811115611d6957611d68611d24565b5b611d7584828501611c10565b600083015250602082013567ffffffffffffffff811115611d9957611d98611d24565b5b611da584828501611c10565b60208301525092915050565b6000611dc4611dbf84611cf3565b611b3d565b90508083825260208201905060208402830185811115611de757611de6611b84565b5b835b81811015611e2e57803567ffffffffffffffff811115611e0c57611e0b611ac7565b5b808601611e198982611d29565b85526020850194505050602081019050611de9565b5050509392505050565b600082601f830112611e4d57611e4c611ac7565b5b8135611e5d848260208601611db1565b91505092915050565b60008060408385031215611e7d57611e7c611abd565b5b600083013567ffffffffffffffff811115611e9b57611e9a611ac2565b5b611ea785828601611cc5565b925050602083013567ffffffffffffffff811115611ec857611ec7611ac2565b5b611ed485828601611e38565b9150509250929050565b6000819050919050565b611ef181611ede565b82525050565b600081519050919050565b600082825260208201905092915050565b60005b83811015611f31578082015181840152602081019050611f16565b60008484015250505050565b6000611f4882611ef7565b611f528185611f02565b9350611f62818560208601611f13565b611f6b81611acc565b840191505092915050565b600081519050919050565b600082825260208201905092915050565b6000819050602082019050919050565b600082825260208201905092915050565b6000611fbe82611ef7565b611fc88185611fa2565b9350611fd8818560208601611f13565b611fe181611acc565b840191505092915050565b600060408301600083015184820360008601526120098282611fb3565b915050602083015184820360208601526120238282611fb3565b9150508091505092915050565b600061203c8383611fec565b905092915050565b6000602082019050919050565b600061205c82611f76565b6120668185611f81565b93508360208202850161207885611f92565b8060005b858110156120b457848403895281516120958582612030565b94506120a083612044565b925060208a0199505060018101905061207c565b50829750879550505050505092915050565b60006060820190506120db6000830186611ee8565b81810360208301526120ed8185611f3d565b905081810360408301526121018184612051565b9050949350505050565b600060208201905081810360008301526121258184611f3d565b905092915050565b600073ffffffffffffffffffffffffffffffffffffffff82169050919050565b60006121588261212d565b9050919050565b6121688161214d565b82525050565b6000602082019050612183600083018461215f565b92915050565b6000819050919050565b61219c81612189565b82525050565b60006020820190506121b76000830184612193565b92915050565b7f4e487b7100000000000000000000000000000000000000000000000000000000600052603260045260246000fd5b600081905092915050565b7f6573736179000000000000000000000000000000000000000000000000000000600082015250565b600061222d6005836121ec565b9150612238826121f7565b600582019050919050565b600061224e82612220565b9150819050919050565b600061226382611ef7565b61226d81856121ec565b935061227d818560208601611f13565b80840191505092915050565b60006122958284612258565b915081905092915050565b600067ffffffffffffffff8211156122bb576122ba611add565b5b602082029050602081019050919050565b6122d58161214d565b81146122e057600080fd5b50565b6000815190506122f2816122cc565b92915050565b600061230b612306846122a0565b611b3d565b9050808382526020820190506020840283018581111561232e5761232d611b84565b5b835b81811015612357578061234388826122e3565b845260208401935050602081019050612330565b5050509392505050565b600082601f83011261237657612375611ac7565b5b81516123868482602086016122f8565b91505092915050565b6000602082840312156123a5576123a4611abd565b5b600082015167ffffffffffffffff8111156123c3576123c2611ac2565b5b6123cf84828501612361565b91505092915050565b60006123eb6123e684611b8e565b611b3d565b90508281526020810184848401111561240757612406611b89565b5b612412848285611f13565b509392505050565b600082601f83011261242f5761242e611ac7565b5b815161243f8482602086016123d8565b91505092915050565b60006020828403121561245e5761245d611abd565b5b600082015167ffffffffffffffff81111561247c5761247b611ac2565b5b6124888482850161241a565b91505092915050565b7f3c64697620636c6173733d2263223e0000000000000000000000000000000000815250565b7f3c64697620636c6173733d2277223e0000000000000000000000000000000000815250565b7f3c64697620636c6173733d22732067223e000000000000000000000000000000815250565b7f3c70726520636c6173733d2267617264656e223e000000000000000000000000815250565b7f20202020202020e29a982020202020202020202020202020202020202020e29a60008201527f980a000000000000000000000000000000000000000000000000000000000000602082015250565b60006125856022836121ec565b915061259082612529565b602282019050919050565b7f20202020202020202020202020e29a980a000000000000000000000000000000815250565b7fe29a982020202020202020202020202020202020202020202020e29a9820202060008201527f202020202020e29a980a00000000000000000000000000000000000000000000602082015250565b600061261d602a836121ec565b9150612628826125c1565b602a82019050919050565b7f2020202020202020e29a98202020202020202020e29a980a0000000000000000815250565b7f202020e29a98202020202020202020202020202020202020202020202020202060008201527fe29a980a00000000000000000000000000000000000000000000000000000000602082015250565b60006126b56024836121ec565b91506126c082612659565b602482019050919050565b7f3c2f7072653e0000000000000000000000000000000000000000000000000000815250565b7f3c6272202f3e3c6272202f3e0000000000000000000000000000000000000000815250565b7f3c68313e00000000000000000000000000000000000000000000000000000000815250565b7f3c2f68313e0a0000000000000000000000000000000000000000000000000000815250565b600061276f8285612258565b915061277a82612491565b600f82019150612789826124b7565b600f82019150612798826124dd565b6011820191506127a782612503565b6014820191506127b682612578565b91506127c18261259b565b6011820191506127d082612610565b91506127db82612633565b6018820191506127ea826126a8565b91506127f5826126cb565b600682019150612804826126f1565b600c8201915061281382612717565b6004820191506128238284612258565b915061282e8261273d565b60068201915061283d826126f1565b600c820191508190509392505050565b600061286061285b84611b58565b611b3d565b9050808382526020820190506020840283018581111561288357612882611b84565b5b835b818110156128ca57805167ffffffffffffffff8111156128a8576128a7611ac7565b5b8086016128b5898261241a565b85526020850194505050602081019050612885565b5050509392505050565b600082601f8301126128e9576128e8611ac7565b5b81516128f984826020860161284d565b91505092915050565b60006020828403121561291857612917611abd565b5b600082015167ffffffffffffffff81111561293657612935611ac2565b5b612942848285016128d4565b91505092915050565b7f4d697373696e673c62722f3e0000000000000000000000000000000000000000815250565b600061297d8284612258565b91506129888261294b565b600c8201915081905092915050565b7f3c62722f3e000000000000000000000000000000000000000000000000000000815250565b60006129c98285612258565b91506129d58284612258565b91506129e082612997565b6005820191508190509392505050565b7f3c68323e00000000000000000000000000000000000000000000000000000000815250565b7f3c2f68323e3c6272202f3e000000000000000000000000000000000000000000815250565b7f202020202020e29a9820202020202020202020202020202020202020202020e260008201527f9a980a0000000000000000000000000000000000000000000000000000000000602082015250565b6000612a986023836121ec565b9150612aa382612a3c565b602382019050919050565b7f2020202020202020202020202020e29a980a0000000000000000000000000000815250565b7f20e29a98202020202020202020202020202020202020202020e29a982020202060008201527f2020202020e29a980a0000000000000000000000000000000000000000000000602082015250565b6000612b306029836121ec565b9150612b3b82612ad4565b602982019050919050565b7f20202020202020202020e29a98202020202020e29a980a000000000000000000815250565b7f2020202020e29a98202020202020202020202020202020202020202020e29a9860008201527f0a00000000000000000000000000000000000000000000000000000000000000602082015250565b6000612bc86021836121ec565b9150612bd382612b6c565b602182019050919050565b7f3c2f7072653e3c6272202f3e0000000000000000000000000000000000000000815250565b7f3c703e0000000000000000000000000000000000000000000000000000000000815250565b7f4120636f6e74726163742073686f772063757261746564206279200000000000815250565b7f3c6120687265663d2268747470733a2f2f30786666662e6c6f7665222074617260008201527f6765743d225f626c616e6b222072656c3d226e6f6f70656e6572206e6f72656660208201527f6572726572223e30786666663c2f613e3c62722f3e0000000000000000000000604082015250565b6000612cd26055836121ec565b9150612cdd82612c50565b605582019050919050565b7f77697468207370656369616c207468616e6b7320746f20000000000000000000815250565b7f3c6120687265663d2268747470733a2f2f782e636f6d2f7373736c756b65312260008201527f207461726765743d225f626c616e6b222072656c3d226e6f6f70656e6572206e60208201527f6f7265666572726572223e7373736c756b653c2f613e20616e64203c6120687260408201527f65663d2268747470733a2f2f782e636f6d2f307831313364222072656c3d226e60608201527f6f6f70656e6572206e6f726566657272657222207461726765743d225f626c6160808201527f6e6b223e3131333c2f613e00000000000000000000000000000000000000000060a082015250565b6000612e0260ab836121ec565b9150612e0d82612d0e565b60ab82019050919050565b7f3c62722f3e3c62722f3e00000000000000000000000000000000000000000000815250565b7f3c6120687265663d222f6573736179223e45737361793c2f613e206279203c6160008201527f20687265663d2268747470733a2f2f782e636f6d2f6d616c746566725f65746860208201527f22207461726765743d225f626c616e6b222072656c3d226e6f6f70656e65722060408201527f6e6f7265666572726572223e0000000000000000000000000000000000000000606082015250565b6000612ee6606c836121ec565b9150612ef182612e3e565b606c82019050919050565b7f3c2f613e00000000000000000000000000000000000000000000000000000000815250565b7f3c2f703e3c6272202f3e3c6272202f3e00000000000000000000000000000000815250565b6000612f548286612258565b9150612f5f826126f1565b600c82019150612f6e826129f0565b600482019150612f7e8285612258565b9150612f8982612a16565b600b82019150612f9882612503565b601482019150612fa782612a8b565b9150612fb282612aae565b601282019150612fc182612b23565b9150612fcc82612b46565b601782019150612fdb82612bbb565b9150612fe682612bde565b600c82019150612ff582612c04565b60038201915061300482612c2a565b601b8201915061301382612cc5565b915061301e82612ce8565b60178201915061302d82612df5565b915061303882612e18565b600a8201915061304782612ed9565b91506130538284612258565b915061305e82612efc565b60048201915061306d82612f22565b601082019150819050949350505050565b7f3c6272202f3e3c2f6469763e0000000000000000000000000000000000000000815250565b7f3c64697620636c6173733d2270223ee286933c2f6469763e3c2f6469763e0000815250565b60006130d68284612258565b91506130e18261307e565b600c820191506130f0826130a4565b601e8201915081905092915050565b7f3c64697620636c6173733d2277223e3c64697620636c6173733d2273223e3c7060008201527f3e00000000000000000000000000000000000000000000000000000000000000602082015250565b600061315b6021836121ec565b9150613166826130ff565b602182019050919050565b7f3c62722f3e3c62722f3e202d2030786666660000000000000000000000000000815250565b7f3c2f703e3c2f6469763e3c2f6469763e00000000000000000000000000000000815250565b60006131c98285612258565b91506131d48261314e565b91506131e08284612258565b91506131eb82613171565b6012820191506131fa82613197565b6010820191508190509392505050565b7f3c64697620636c6173733d2277223e3c64697620636c6173733d2273223e0000815250565b600061323c8284612258565b91506132478261320a565b601e8201915081905092915050565b7f3c68323e3c693e4d697373696e673c2f693e3c2f68323e000000000000000000815250565b60006132888284612258565b915061329382613256565b60178201915081905092915050565b60006132ae8284612258565b91506132b9826129f0565b60048201915081905092915050565b7f3c2f68323e000000000000000000000000000000000000000000000000000000815250565b60006132fa8284612258565b9150613305826132c8565b60058201915081905092915050565b7f3c68333e3c693e556e7469746c65643c2f693e3c2f68333e0000000000000000815250565b60006133468284612258565b915061335182613314565b60188201915081905092915050565b7f3c68333e3c693e00000000000000000000000000000000000000000000000000815250565b7f3c2f693e3c2f68333e0000000000000000000000000000000000000000000000815250565b60006133b88285612258565b91506133c382613360565b6007820191506133d38284612258565b91506133de82613386565b6009820191508190509392505050565b7f3c703e3c7370616e20636c6173733d2761273e00000000000000000000000000815250565b7f3c2f7370616e3e3c2f703e000000000000000000000000000000000000000000815250565b60006134468285612258565b9150613451826133ee565b6013820191506134618284612258565b915061346c82613414565b600b820191508190509392505050565b60006134888284612258565b915061349382612c04565b60038201915081905092915050565b7f3c7370616e20636c6173733d2261223e00000000000000000000000000000000815250565b7f3c2f7370616e3e3c62722f3e0000000000000000000000000000000000000000815250565b60006134fa8285612258565b9150613505826134a2565b6010820191506135158284612258565b9150613520826134c8565b600c820191508190509392505050565b7f3c2f703e00000000000000000000000000000000000000000000000000000000815250565b60006135628284612258565b915061356d82613530565b60048201915081905092915050565b7f3c64697620636c6173733d2274223e3c693e436f6e747261637420526576657260008201527f7465643c2f693e3c2f6469763e00000000000000000000000000000000000000602082015250565b60006135d8602d836121ec565b91506135e38261357c565b602d82019050919050565b60006135fa8284612258565b9150613605826135cb565b915081905092915050565b7f3c64697620636c6173733d2274223e0000000000000000000000000000000000815250565b7f3c2f6469763e0000000000000000000000000000000000000000000000000000815250565b60006136688285612258565b915061367382613610565b600f820191506136838284612258565b915061368e82613636565b6006820191508190509392505050565b7f3c2f6469763e3c2f6469763e0000000000000000000000000000000000000000815250565b60006136d08284612258565b91506136db8261369e565b600c8201915081905092915050565b6136f381611ede565b81146136fe57600080fd5b50565b600081519050613710816136ea565b92915050565b60006020828403121561372c5761372b611abd565b5b600061373a84828501613701565b91505092915050565b7f4e487b7100000000000000000000000000000000000000000000000000000000600052601160045260246000fd5b600061377d82611ede565b915061378883611ede565b92508282019050808211156137a05761379f613743565b5b92915050565b7f3c6469762069643d226669656c64312220636c6173733d226669656c64223e3c60008201527f2f6469763e3c62722f3e3c62722f3e3c62722f3e000000000000000000000000602082015250565b60006138026034836121ec565b915061380d826137a6565b603482019050919050565b7f3c70207374796c653d22746578742d616c69676e3a63656e7465723b223e0000815250565b7f4775657374626f6f6b0000000000000000000000000000000000000000000000815250565b7f596f75206d6179206c65617665206120666c6f7765722068657265206279207360008201527f656e64696e6720302e30312045544820286f72206d756c7469706c657320746860208201527f6572656f66293c62722f3e20746f207468652073686f7720636f6e747261637460408201527f2061742000000000000000000000000000000000000000000000000000000000606082015250565b600061390c6064836121ec565b915061391782613864565b606482019050919050565b7f20677565737473206861766520706c616e746564200000000000000000000000815250565b7f20666c6f77657273000000000000000000000000000000000000000000000000815250565b7f3c2f703e3c62722f3e3c62722f3e3c62722f3e00000000000000000000000000815250565b7f3c6469762069643d226669656c64322220636c6173733d226669656c64223e3c60008201527f2f6469763e000000000000000000000000000000000000000000000000000000602082015250565b60006139f06025836121ec565b91506139fb82613994565b602582019050919050565b7f3c7363726970743e000000000000000000000000000000000000000000000000815250565b7f282829203d3e207b000000000000000000000000000000000000000000000000815250565b7f636f6e737420666c6f77657273203d2000000000000000000000000000000000815250565b7f3b66756e6374696f6e2063616c63756c6174655468726573686f6c6428706c6160008201527f6e74656429207b00000000000000000000000000000000000000000000000000602082015250565b6000613ad46027836121ec565b9150613adf82613a78565b602782019050919050565b7f636f6e7374206d696e203d2033302c206d6178203d20333030302c206c6f776560008201527f72203d20302e39392c20686967686572203d20302e363b000000000000000000602082015250565b6000613b466037836121ec565b9150613b5182613aea565b603782019050919050565b7f69662028706c616e746564203c3d206d696e292072657475726e206c6f77657260008201527f3b00000000000000000000000000000000000000000000000000000000000000602082015250565b6000613bb86021836121ec565b9150613bc382613b5c565b602182019050919050565b7f69662028706c616e746564203e3d206d6178292072657475726e20686967686560008201527f723b000000000000000000000000000000000000000000000000000000000000602082015250565b6000613c2a6022836121ec565b9150613c3582613bce565b602282019050919050565b7f636f6e7374206e6f726d616c697a6564203d2028706c616e746564202d206d6960008201527f6e29202f20286d6178202d206d696e293b000000000000000000000000000000602082015250565b6000613c9c6031836121ec565b9150613ca782613c40565b603182019050919050565b7f636f6e7374206c6f6756616c7565203d204d6174682e6c6f6731302831202b2060008201527f6e6f726d616c697a6564202a20283130202d203129293b000000000000000000602082015250565b6000613d0e6037836121ec565b9150613d1982613cb2565b603782019050919050565b7f72657475726e20686967686572202b20286c6f776572202d206869676865722960008201527f202a202831202d206c6f6756616c7565293b0000000000000000000000000000602082015250565b6000613d806032836121ec565b9150613d8b82613d24565b603282019050919050565b7f7d00000000000000000000000000000000000000000000000000000000000000815250565b7f66756e6374696f6e206973436f6e646974696f6e4d657428706c616e7465642c60008201527f2076616c29207b00000000000000000000000000000000000000000000000000602082015250565b6000613e186027836121ec565b9150613e2382613dbc565b602782019050919050565b7f636f6e7374207468726573686f6c64203d2063616c63756c617465546872657360008201527f686f6c6428706c616e746564293b000000000000000000000000000000000000602082015250565b6000613e8a602e836121ec565b9150613e9582613e2e565b602e82019050919050565b7f72657475726e2076616c203e207468726573686f6c64207c7c2076616c203c2060008201527f2d7468726573686f6c643b000000000000000000000000000000000000000000602082015250565b6000613efc602b836121ec565b9150613f0782613ea0565b602b82019050919050565b7f66756e6374696f6e20677269644e6f69736528782c207a2c207365656429207b815250565b7f20202020766172206e203d202831363139202a2078202b203331333337202a2060008201527f7a202b2031303133202a207365656429202620307837666666666666663b0000602082015250565b6000613f94603e836121ec565b9150613f9f82613f38565b603e82019050919050565b7f202020206e203d20426967496e7428286e203e3e20313329205e206e293b0000815250565b7f202020206e203d206e202a20286e202a206e202a2036303439336e202b20313960008201527f3939303330336e29202b20313337363331323538396e3b000000000000000000602082015250565b600061402c6037836121ec565b915061403782613fd0565b603782019050919050565b7f202020206e203d207061727365496e74286e2e746f537472696e672832292e7360008201527f6c696365282d3331292c2032293b000000000000000000000000000000000000602082015250565b600061409e602e836121ec565b91506140a982614042565b602e82019050919050565b7f2020202072657475726e2031202d206e202f20313037333734313832343b0000815250565b7f636f6e7374207769647468203d2039303b000000000000000000000000000000815250565b7f6c6574206c696e6573203d205b22225d2c20636f756e746572203d20302c207060008201527f6c616e746564203d20303b000000000000000000000000000000000000000000602082015250565b600061415c602b836121ec565b915061416782614100565b602b82019050919050565b7f7768696c652028706c616e746564203c20666c6f7765727329207b0000000000815250565b7f20202020636f6e73742076616c203d20677269644e6f69736528636f756e746560008201527f7220252077696474682c204d6174682e666c6f6f7228636f756e746572202f2060208201527f7769647468292c20307866293b00000000000000000000000000000000000000604082015250565b600061421a604d836121ec565b915061422582614198565b604d82019050919050565b7f20202020696620286973436f6e646974696f6e4d657428706c616e7465642c2060008201527f76616c2900000000000000000000000000000000000000000000000000000000602082015250565b600061428c6024836121ec565b915061429782614230565b602482019050919050565b7f29207b0000000000000000000000000000000000000000000000000000000000815250565b7f20202020202020206c696e65735b4d6174682e666c6f6f7228636f756e74657260008201527f202f207769647468295d202b3d20603c6120687265663d2223247b706c616e7460208201527f65642b317d2220646174612d666c6f7765722d69643d22247b706c616e74656460408201527f2b317d223ee29a983c2f613e603b000000000000000000000000000000000000606082015250565b6000614370606e836121ec565b915061437b826142c8565b606e82019050919050565b7f706c616e7465642b2b3b00000000000000000000000000000000000000000000815250565b7f202020207d20656c7365207b206c696e65735b4d6174682e666c6f6f7228636f60008201527f756e746572202f207769647468295d202b3d202220223b207d00000000000000602082015250565b60006144086039836121ec565b9150614413826143ac565b603982019050919050565b7f2020202069662028636f756e7465722025207769647468203d3d20287769647460008201527f682d312920262620706c616e746564203c20666c6f7765727329207b206c696e60208201527f65732e70757368282222293b207d000000000000000000000000000000000000604082015250565b60006144a0604e836121ec565b91506144ab8261441e565b604e82019050919050565b7f20202020636f756e7465722b2b3b7d0000000000000000000000000000000000815250565b7f6c696e6573203d206c696e65732e72656475636528286163632c206c696e652960008201527f203d3e207b20696620286c696e652e7472696d28292e6c656e677468203e203060208201527f29206163632e70757368286c696e65293b2072657475726e206163633b207d2c60408201527f205b5d293b000000000000000000000000000000000000000000000000000000606082015250565b60006145846065836121ec565b915061458f826144dc565b606582019050919050565b7f66756e6374696f6e20617272616e6765507972616d696428617272617929207b815250565b7f202020206c657420726573756c74203d205b5d2c206f6464203d205b5d2c206560008201527f76656e203d205b5d3b0000000000000000000000000000000000000000000000602082015250565b600061461c6029836121ec565b9150614627826145c0565b602982019050919050565b7f20202020666f7220286c65742069203d20303b2069203c2061727261792e6c6560008201527f6e6774683b20692b2b29207b0000000000000000000000000000000000000000602082015250565b600061468e602c836121ec565b915061469982614632565b602c82019050919050565b7f2020202020202020696620286920252032203d3d203129207b00000000000000815250565b7f2020202020202020202020206576656e2e707573682861727261795b695d293b815250565b7f20202020202020207d20656c7365207b00000000000000000000000000000000815250565b7f2020202020202020202020206f64642e707573682861727261795b695d293b00815250565b7f20202020202020207d0000000000000000000000000000000000000000000000815250565b7f202020207d000000000000000000000000000000000000000000000000000000815250565b7f20202020726573756c74203d206f64642e636f6e636174286576656e2e72657660008201527f657273652829293b000000000000000000000000000000000000000000000000602082015250565b60006147e46028836121ec565b91506147ef82614788565b602882019050919050565b7f2020202072657475726e20726573756c743b0000000000000000000000000000815250565b7f646f63756d656e742e717565727953656c6563746f722822236669656c64312260008201527f292e696e6e657248544d4c203d206c696e65732e736c69636528302c4d61746860208201527f2e6d696e28372c4d6174682e6365696c286c696e65732e6c656e6774682f322960408201527f29292e6a6f696e28225c6e22293b000000000000000000000000000000000000606082015250565b60006148c8606e836121ec565b91506148d382614820565b606e82019050919050565b7f646f63756d656e742e717565727953656c6563746f722822236669656c64322260008201527f292e696e6e657248544d4c203d206c696e65732e736c696365284d6174682e6d60208201527f696e28372c4d6174682e6365696c286c696e65732e6c656e6774682f3229292960408201527f2e6a6f696e28225c6e22293b0000000000000000000000000000000000000000606082015250565b6000614986606c836121ec565b9150614991826148de565b606c82019050919050565b7f646f63756d656e742e717565727953656c6563746f72416c6c28222e6669656c60008201527f6422292e666f72456163682828656c29203d3e20656c2e6164644576656e744c60208201527f697374656e65722822636c69636b222c20286529203d3e207b00000000000000604082015250565b6000614a1e6059836121ec565b9150614a298261499c565b605982019050919050565b7f20202020636f6e737420666c6f7765724964203d20652e7461726765742e646160008201527f74617365742e666c6f77657249643b0000000000000000000000000000000000602082015250565b6000614a90602f836121ec565b9150614a9b82614a34565b602f82019050919050565b7f2020202069662028666c6f776572496429207b00000000000000000000000000815250565b7f2020202020202020652e70726576656e7444656661756c7428293b202020207d815250565b7f7d29293b00000000000000000000000000000000000000000000000000000000815250565b7f7d2928293b2f2a494946452a2f00000000000000000000000000000000000000815250565b7f3c2f7363726970743e0000000000000000000000000000000000000000000000815250565b6000614b708288612258565b9150614b7b8261320a565b601e82019150614b8a826137f5565b9150614b9582613818565b601e82019150614ba48261383e565b600982019150614bb382612e18565b600a82019150614bc2826138ff565b9150614bce8287612258565b9150614bd982612e18565b600a82019150614be98286612258565b9150614bf482613922565b601582019150614c048285612258565b9150614c0f82613948565b600882019150614c1e8261396e565b601382019150614c2d826139e3565b9150614c3882613a06565b600882019150614c4782613a2c565b600882019150614c5682613a52565b601082019150614c668284612258565b9150614c7182613ac7565b9150614c7c82613b39565b9150614c8782613bab565b9150614c9282613c1d565b9150614c9d82613c8f565b9150614ca882613d01565b9150614cb382613d73565b9150614cbe82613d96565b600182019150614ccd82613e0b565b9150614cd882613e7d565b9150614ce382613eef565b9150614cee82613d96565b600182019150614cfd82613f12565b602082019150614d0c82613f87565b9150614d1782613faa565b601e82019150614d268261401f565b9150614d3182614091565b9150614d3c826140b4565b601e82019150614d4b82613d96565b600182019150614d5a826140da565b601182019150614d698261414f565b9150614d7482614172565b601b82019150614d838261420d565b9150614d8e8261427f565b9150614d99826142a2565b600382019150614da882614363565b9150614db382614386565b600a82019150614dc2826143fb565b9150614dcd82614493565b9150614dd8826144b6565b600f82019150614de782614577565b9150614df28261459a565b602082019150614e018261460f565b9150614e0c82614681565b9150614e17826146a4565b601982019150614e26826146ca565b602082019150614e35826146f0565b601082019150614e4482614716565b601f82019150614e538261473c565b600982019150614e6282614762565b600582019150614e71826147d7565b9150614e7c826147fa565b601282019150614e8b82613d96565b600182019150614e9a826148bb565b9150614ea582614979565b9150614eb082614a11565b9150614ebb82614a83565b9150614ec682614aa6565b601382019150614ed582614acc565b602082019150614ee482614af2565b600482019150614ef382614b18565b600d82019150614f0282614b3e565b600982019150614f118261369e565b600c820191508190509695505050505050565b7f3c64697620636c6173733d2269223e47656e65726174656420696e20626c6f6360008201527f6b20000000000000000000000000000000000000000000000000000000000000602082015250565b6000614f806022836121ec565b9150614f8b82614f24565b602282019050919050565b7f2066726f6d200000000000000000000000000000000000000000000000000000815250565b6000614fc88286612258565b9150614fd382614f73565b9150614fdf8285612258565b9150614fea82614f96565b600682019150614ffa8284612258565b915061500582613636565b600682019150819050949350505050565b60006150228284612258565b915061502d82613636565b60068201915081905092915050565b600082825260208201905092915050565b600061505882611ef7565b615062818561503c565b9350615072818560208601611f13565b61507b81611acc565b840191505092915050565b600060408201905081810360008301526150a0818561504d565b905081810360208301526150b4818461504d565b90509392505050565b7f3c64697620636c6173733d2263206573736179223e3c64697620636c6173733d60008201527f2277223e3c64697620636c6173733d22732067223e0000000000000000000000602082015250565b60006151196035836121ec565b9150615124826150bd565b603582019050919050565b7f3c703e3c693e54686973207465787420776173207075626c697368656420617360008201527f2070617274206f662074686520636f6e74726163742073686f773a203c61206860208201527f7265663d222f22207374796c653d22646973706c61793a20626c6f636b223e5760408201527f6f726c6420436f6d7075746572205363756c70747572652047617264656e3c2f60608201527f613e3c2f693e3c2f703e00000000000000000000000000000000000000000000608082015250565b60006151fd608a836121ec565b91506152088261512f565b608a82019050919050565b7fe29a980000000000000000000000000000000000000000000000000000000000815250565b7f3c62722f3e3c62722f3e3c62722f3e0000000000000000000000000000000000815250565b7f3c61727469636c653e0000000000000000000000000000000000000000000000815250565b7f3c2f61727469636c653e00000000000000000000000000000000000000000000815250565b7f3c703e3c693e56696577207468652065786869626974696f6e2061743a203c6160008201527f20687265663d222f22207374796c653d22646973706c61793a20626c6f636b2260208201527f3e576f726c6420436f6d7075746572205363756c70747572652047617264656e60408201527f3c2f613e3c2f693e3c2f703e0000000000000000000000000000000000000000606082015250565b6000615353606c836121ec565b915061535e826152ab565b606c82019050919050565b7f3c2f6469763e3c2f6469763e3c2f6469763e0000000000000000000000000000815250565b7f3c64697620636c6173733d2266223e3c6120687265663d222f22207374796c6560008201527f3d22746578742d6465636f726174696f6e3a206e6f6e653b223ee29a983c2f6160208201527f3e3c2f6469763e00000000000000000000000000000000000000000000000000604082015250565b60006154116047836121ec565b915061541c8261538f565b604782019050919050565b60006154338285612258565b915061543e8261510c565b9150615449826151f0565b915061545482612997565b60058201915061546382615213565b60038201915061547282615239565b600f820191506154818261525f565b6009820191506154918284612258565b915061549c82615285565b600a820191506154ab82612e18565b600a820191506154ba82615213565b6003820191506154c982612e18565b600a820191506154d882615346565b91506154e382612997565b6005820191506154f282615369565b60128201915061550182615404565b91508190509392505050565b7f3c6120687265663d220000000000000000000000000000000000000000000000815250565b7f22207461726765743d225f626c616e6b222072656c3d226e6f6f70656e65722060008201527f6e6f7265666572726572223e0000000000000000000000000000000000000000602082015250565b600061558f602c836121ec565b915061559a82615533565b602c82019050919050565b60006155b08261550d565b6009820191506155c08285612258565b91506155cb82615582565b91506155d78284612258565b91506155e282612efc565b6004820191508190509392505050565b60006155fd82611ede565b915061560883611ede565b92508282039050818111156156205761561f613743565b5b9291505056fea264697066735822122065c8674c74d68942a2fd4d58ce82a70c9e1501702a6ac93c49e430d1eb5b8d4164736f6c634300081c0033",
  "deployedBytecode": "0x608060405234801561001057600080fd5b506004361061007d5760003560e01c8063427158f61161005b578063427158f6146100f057806344e2e23b1461010e57806356ba88b81461012c578063dd473fae1461014a5761007d565b80631374c460146100825780632986c0e5146100b457806333c34ac3146100d2575b600080fd5b61009c60048036038101906100979190611e66565b610168565b6040516100ab939291906120c6565b60405180910390f35b6100bc610435565b6040516100c9919061210b565b60405180910390f35b6100da61126d565b6040516100e7919061210b565b60405180910390f35b6100f861127c565b604051610105919061210b565b60405180910390f35b6101166114e5565b604051610123919061216e565b60405180910390f35b610134611509565b604051610141919061216e565b60405180910390f35b61015261152d565b60405161015f91906121a2565b60405180910390f35b600060608060008551036102925761017e610435565b915060c89250600167ffffffffffffffff81111561019f5761019e611add565b5b6040519080825280602002602001820160405280156101d857816020015b6101c5611a99565b8152602001906001900390816101bd5790505b5090506040518060400160405280600c81526020017f436f6e74656e742d54797065000000000000000000000000000000000000000081525081600081518110610225576102246121bd565b5b6020026020010151600001819052506040518060400160405280601881526020017f746578742f68746d6c3b20636861727365743d7574662d3800000000000000008152508160008151811061027e5761027d6121bd565b5b60200260200101516020018190525061042e565b6001855114801561030757506040516020016102ad90612243565b60405160208183030381529060405280519060200120856000815181106102d7576102d66121bd565b5b60200260200101516040516020016102ef9190612289565b60405160208183030381529060405280519060200120145b156104285761031461127c565b915060c89250600167ffffffffffffffff81111561033557610334611add565b5b60405190808252806020026020018201604052801561036e57816020015b61035b611a99565b8152602001906001900390816103535790505b5090506040518060400160405280600c81526020017f436f6e74656e742d547970650000000000000000000000000000000000000000815250816000815181106103bb576103ba6121bd565b5b6020026020010151600001819052506040518060400160405280601881526020017f746578742f68746d6c3b20636861727365743d7574662d38000000000000000081525081600081518110610414576104136121bd565b5b60200260200101516020018190525061042e565b61019492505b9250925092565b606060007f000000000000000000000000000000000000000000000000000000000000000073ffffffffffffffffffffffffffffffffffffffff166355735c5e6040518163ffffffff1660e01b8152600401600060405180830381865afa1580156104a4573d6000803e3d6000fd5b505050506040513d6000823e3d601f19601f820116820180604052508101906104cd919061238f565b9050817f000000000000000000000000000000000000000000000000000000000000000073ffffffffffffffffffffffffffffffffffffffff16634a79d50c6040518163ffffffff1660e01b8152600401600060405180830381865afa15801561053b573d6000803e3d6000fd5b505050506040513d6000823e3d601f19601f820116820180604052508101906105649190612448565b604051602001610575929190612763565b604051602081830303815290604052915060005b815181101561069d578181815181106105a5576105a46121bd565b5b602002602001015173ffffffffffffffffffffffffffffffffffffffff166328411ae16040518163ffffffff1660e01b8152600401600060405180830381865afa92505050801561061957506040513d6000823e3d601f19601f820116820180604052508101906106169190612902565b60015b610644578260405160200161062e9190612971565b6040516020818303038152906040529250610690565b60008151111561068e578381600081518110610663576106626121bd565b5b602002602001015160405160200161067c9291906129bd565b60405160208183030381529060405293505b505b8080600101915050610589565b50816106c87f0000000000000000000000000000000000000000000000000000000000000000611555565b7f000000000000000000000000000000000000000000000000000000000000000073ffffffffffffffffffffffffffffffffffffffff166328411ae16040518163ffffffff1660e01b8152600401600060405180830381865afa158015610733573d6000803e3d6000fd5b505050506040513d6000823e3d601f19601f8201168201806040525081019061075c9190612902565b60008151811061076f5761076e6121bd565b5b602002602001015160405160200161078993929190612f48565b6040516020818303038152906040529150816040516020016107ab91906130ca565b6040516020818303038152906040529150817f000000000000000000000000000000000000000000000000000000000000000073ffffffffffffffffffffffffffffffffffffffff16631f1bd6926040518163ffffffff1660e01b8152600401600060405180830381865afa158015610828573d6000803e3d6000fd5b505050506040513d6000823e3d601f19601f820116820180604052508101906108519190612448565b6040516020016108629291906131bd565b604051602081830303815290604052915060005b8151811015610ec4576000828281518110610894576108936121bd565b5b60200260200101519050836040516020016108af9190613230565b60405160208183030381529060405293508073ffffffffffffffffffffffffffffffffffffffff166328411ae16040518163ffffffff1660e01b8152600401600060405180830381865afa92505050801561092d57506040513d6000823e3d601f19601f8201168201806040525081019061092a9190612902565b60015b6109585783604051602001610942919061327c565b6040516020818303038152906040529350610a26565b600081511115610a24578460405160200161097391906132a2565b604051602081830303815290604052945060005b8151811015610a005760008282815181106109a5576109a46121bd565b5b60200260200101515103156109f357858282815181106109c8576109c76121bd565b5b60200260200101516040516020016109e19291906129bd565b60405160208183030381529060405295505b8080600101915050610987565b5084604051602001610a1291906132ee565b60405160208183030381529060405294505b505b8073ffffffffffffffffffffffffffffffffffffffff16634a79d50c6040518163ffffffff1660e01b8152600401600060405180830381865afa925050508015610a9357506040513d6000823e3d601f19601f82011682018060405250810190610a909190612448565b60015b610abe5783604051602001610aa8919061333a565b6040516020818303038152906040529350610b16565b600081511115610af1578481604051602001610adb9291906133ac565b6040516020818303038152906040529450610b14565b84604051602001610b02919061333a565b60405160208183030381529060405294505b505b8073ffffffffffffffffffffffffffffffffffffffff1663da0321cd6040518163ffffffff1660e01b8152600401600060405180830381865afa925050508015610b8357506040513d6000823e3d601f19601f82011682018060405250810190610b80919061238f565b60015b610bd25783610bab848481518110610b9e57610b9d6121bd565b5b6020026020010151611555565b604051602001610bbc92919061343a565b6040516020818303038152906040529350610c83565b600081511115610c815784604051602001610bed919061347c565b604051602081830303815290604052945060005b8151811015610c5d5785610c2e838381518110610c2157610c206121bd565b5b6020026020010151611555565b604051602001610c3f9291906134ee565b60405160208183030381529060405295508080600101915050610c01565b5084604051602001610c6f9190613556565b60405160208183030381529060405294505b505b8073ffffffffffffffffffffffffffffffffffffffff16632c73dc4a6040518163ffffffff1660e01b8152600401600060405180830381865afa925050508015610cf057506040513d6000823e3d601f19601f82011682018060405250810190610ced9190612902565b60015b15610dcb57600081511115610dc95784604051602001610d10919061347c565b604051602081830303815290604052945060005b8151811015610da5576000828281518110610d4257610d416121bd565b5b6020026020010151510315610d985785610d75838381518110610d6857610d676121bd565b5b602002602001015161157b565b604051602001610d869291906129bd565b60405160208183030381529060405295505b8080600101915050610d24565b5084604051602001610db79190613556565b60405160208183030381529060405294505b505b8073ffffffffffffffffffffffffffffffffffffffff16631f1bd6926040518163ffffffff1660e01b8152600401600060405180830381865afa925050508015610e3857506040513d6000823e3d601f19601f82011682018060405250810190610e359190612448565b60015b610e635783604051602001610e4d91906135ee565b6040516020818303038152906040529350610e94565b600081511115610e92578481604051602001610e8092919061365c565b60405160208183030381529060405294505b505b83604051602001610ea591906136c4565b6040516020818303038152906040529350508080600101915050610876565b5081610eef7f0000000000000000000000000000000000000000000000000000000000000000611555565b610f9260057f000000000000000000000000000000000000000000000000000000000000000073ffffffffffffffffffffffffffffffffffffffff16630a8ee81d6040518163ffffffff1660e01b8152600401602060405180830381865afa158015610f5f573d6000803e3d6000fd5b505050506040513d601f19601f82011682018060405250810190610f839190613716565b610f8d9190613772565b6115b4565b61103560c87f000000000000000000000000000000000000000000000000000000000000000073ffffffffffffffffffffffffffffffffffffffff1663706e3da26040518163ffffffff1660e01b8152600401602060405180830381865afa158015611002573d6000803e3d6000fd5b505050506040513d601f19601f820116820180604052508101906110269190613716565b6110309190613772565b6115b4565b6110d860c87f000000000000000000000000000000000000000000000000000000000000000073ffffffffffffffffffffffffffffffffffffffff1663706e3da26040518163ffffffff1660e01b8152600401602060405180830381865afa1580156110a5573d6000803e3d6000fd5b505050506040513d601f19601f820116820180604052508101906110c99190613716565b6110d39190613772565b6115b4565b6040516020016110ec959493929190614b64565b604051602081830303815290604052915081611107436115b4565b61111030611555565b60405160200161112293929190614fbc565b6040516020818303038152906040529150816040516020016111449190615016565b604051602081830303815290604052915073__$705ec615c2bf63f1eb4a27fa032a340997$__63125a507b837f000000000000000000000000000000000000000000000000000000000000000073ffffffffffffffffffffffffffffffffffffffff16634a79d50c6040518163ffffffff1660e01b8152600401600060405180830381865afa1580156111db573d6000803e3d6000fd5b505050506040513d6000823e3d601f19601f820116820180604052508101906112049190612448565b6040518363ffffffff1660e01b8152600401611221929190615086565b600060405180830381865af415801561123e573d6000803e3d6000fd5b505050506040513d6000823e3d601f19601f820116820180604052508101906112679190612448565b91505090565b6060611277610435565b905090565b606060007f000000000000000000000000000000000000000000000000000000000000000073ffffffffffffffffffffffffffffffffffffffff166355735c5e6040518163ffffffff1660e01b8152600401600060405180830381865afa1580156112eb573d6000803e3d6000fd5b505050506040513d6000823e3d601f19601f82011682018060405250810190611314919061238f565b9050817f000000000000000000000000000000000000000000000000000000000000000073ffffffffffffffffffffffffffffffffffffffff166333c34ac36040518163ffffffff1660e01b8152600401600060405180830381865afa158015611382573d6000803e3d6000fd5b505050506040513d6000823e3d601f19601f820116820180604052508101906113ab9190612448565b6040516020016113bc929190615427565b604051602081830303815290604052915073__$705ec615c2bf63f1eb4a27fa032a340997$__63125a507b837f000000000000000000000000000000000000000000000000000000000000000073ffffffffffffffffffffffffffffffffffffffff16634a79d50c6040518163ffffffff1660e01b8152600401600060405180830381865afa158015611453573d6000803e3d6000fd5b505050506040513d6000823e3d601f19601f8201168201806040525081019061147c9190612448565b6040518363ffffffff1660e01b8152600401611499929190615086565b600060405180830381865af41580156114b6573d6000803e3d6000fd5b505050506040513d6000823e3d601f19601f820116820180604052508101906114df9190612448565b91505090565b7f000000000000000000000000000000000000000000000000000000000000000081565b7f000000000000000000000000000000000000000000000000000000000000000081565b60007f3532313900000000000000000000000000000000000000000000000000000000905090565b606061156082611605565b90506002815101613078825260028203915080825250919050565b6060600061158883611688565b9050828160405160200161159d9291906155a5565b604051602081830303815290604052915050919050565b60606080604051019050602081016040526000815280600019835b6001156115f0578184019350600a81066030018453600a81049050806115cf575b50828203602084039350808452505050919050565b60606040519050608081016040526f30313233343536373839616263646566600f526002810190506028815260208101600060288201528260601b925060005b60011561168157808101820184821a600f81165160018301538060041c5182536001830192506014830361167a575050611681565b5050611645565b5050919050565b6060600082905060008151905060008082905060005b6002846116ab91906155f2565b811015611826577f3a000000000000000000000000000000000000000000000000000000000000008582815181106116e6576116e56121bd565b5b602001015160f81c60f81b7effffffffffffffffffffffffffffffffffffffffffffffffffffffffffffff191614801561178a57507f2f000000000000000000000000000000000000000000000000000000000000008560018361174a9190613772565b8151811061175b5761175a6121bd565b5b602001015160f81c60f81b7effffffffffffffffffffffffffffffffffffffffffffffffffffffffffffff1916145b801561180057507f2f00000000000000000000000000000000000000000000000000000000000000856002836117c09190613772565b815181106117d1576117d06121bd565b5b602001015160f81c60f81b7effffffffffffffffffffffffffffffffffffffffffffffffffffffffffffff1916145b15611819576003816118129190613772565b9250611826565b808060010191505061169e565b5060008290505b8381101561191a577f3f00000000000000000000000000000000000000000000000000000000000000858281518110611869576118686121bd565b5b602001015160f81c60f81b7effffffffffffffffffffffffffffffffffffffffffffffffffffffffffffff1916148061190057507f23000000000000000000000000000000000000000000000000000000000000008582815181106118d1576118d06121bd565b5b602001015160f81c60f81b7effffffffffffffffffffffffffffffffffffffffffffffffffffffffffffff1916145b1561190d5780915061191a565b808060010191505061182d565b50818111801561199457507f2f000000000000000000000000000000000000000000000000000000000000008460018361195491906155f2565b81518110611965576119646121bd565b5b602001015160f81c60f81b7effffffffffffffffffffffffffffffffffffffffffffffffffffffffffffff1916145b156119a9576001816119a691906155f2565b90505b600082826119b791906155f2565b67ffffffffffffffff8111156119d0576119cf611add565b5b6040519080825280601f01601f191660200182016040528015611a025781602001600182028036833780820191505090505b50905060008390505b82811015611a8b57858181518110611a2657611a256121bd565b5b602001015160f81c60f81b828583611a3e91906155f2565b81518110611a4f57611a4e6121bd565b5b60200101907effffffffffffffffffffffffffffffffffffffffffffffffffffffffffffff1916908160001a9053508080600101915050611a0b565b508095505050505050919050565b604051806040016040528060608152602001606081525090565b6000604051905090565b600080fd5b600080fd5b600080fd5b6000601f19601f8301169050919050565b7f4e487b7100000000000000000000000000000000000000000000000000000000600052604160045260246000fd5b611b1582611acc565b810181811067ffffffffffffffff82111715611b3457611b33611add565b5b80604052505050565b6000611b47611ab3565b9050611b538282611b0c565b919050565b600067ffffffffffffffff821115611b7357611b72611add565b5b602082029050602081019050919050565b600080fd5b600080fd5b600067ffffffffffffffff821115611ba957611ba8611add565b5b611bb282611acc565b9050602081019050919050565b82818337600083830152505050565b6000611be1611bdc84611b8e565b611b3d565b905082815260208101848484011115611bfd57611bfc611b89565b5b611c08848285611bbf565b509392505050565b600082601f830112611c2557611c24611ac7565b5b8135611c35848260208601611bce565b91505092915050565b6000611c51611c4c84611b58565b611b3d565b90508083825260208201905060208402830185811115611c7457611c73611b84565b5b835b81811015611cbb57803567ffffffffffffffff811115611c9957611c98611ac7565b5b808601611ca68982611c10565b85526020850194505050602081019050611c76565b5050509392505050565b600082601f830112611cda57611cd9611ac7565b5b8135611cea848260208601611c3e565b91505092915050565b600067ffffffffffffffff821115611d0e57611d0d611add565b5b602082029050602081019050919050565b600080fd5b600080fd5b600060408284031215611d3f57611d3e611d1f565b5b611d496040611b3d565b9050600082013567ffffffffffffffff811115611d6957611d68611d24565b5b611d7584828501611c10565b600083015250602082013567ffffffffffffffff811115611d9957611d98611d24565b5b611da584828501611c10565b60208301525092915050565b6000611dc4611dbf84611cf3565b611b3d565b90508083825260208201905060208402830185811115611de757611de6611b84565b5b835b81811015611e2e57803567ffffffffffffffff811115611e0c57611e0b611ac7565b5b808601611e198982611d29565b85526020850194505050602081019050611de9565b5050509392505050565b600082601f830112611e4d57611e4c611ac7565b5b8135611e5d848260208601611db1565b91505092915050565b60008060408385031215611e7d57611e7c611abd565b5b600083013567ffffffffffffffff811115611e9b57611e9a611ac2565b5b611ea785828601611cc5565b925050602083013567ffffffffffffffff811115611ec857611ec7611ac2565b5b611ed485828601611e38565b9150509250929050565b6000819050919050565b611ef181611ede565b82525050565b600081519050919050565b600082825260208201905092915050565b60005b83811015611f31578082015181840152602081019050611f16565b60008484015250505050565b6000611f4882611ef7565b611f528185611f02565b9350611f62818560208601611f13565b611f6b81611acc565b840191505092915050565b600081519050919050565b600082825260208201905092915050565b6000819050602082019050919050565b600082825260208201905092915050565b6000611fbe82611ef7565b611fc88185611fa2565b9350611fd8818560208601611f13565b611fe181611acc565b840191505092915050565b600060408301600083015184820360008601526120098282611fb3565b915050602083015184820360208601526120238282611fb3565b9150508091505092915050565b600061203c8383611fec565b905092915050565b6000602082019050919050565b600061205c82611f76565b6120668185611f81565b93508360208202850161207885611f92565b8060005b858110156120b457848403895281516120958582612030565b94506120a083612044565b925060208a0199505060018101905061207c565b50829750879550505050505092915050565b60006060820190506120db6000830186611ee8565b81810360208301526120ed8185611f3d565b905081810360408301526121018184612051565b9050949350505050565b600060208201905081810360008301526121258184611f3d565b905092915050565b600073ffffffffffffffffffffffffffffffffffffffff82169050919050565b60006121588261212d565b9050919050565b6121688161214d565b82525050565b6000602082019050612183600083018461215f565b92915050565b6000819050919050565b61219c81612189565b82525050565b60006020820190506121b76000830184612193565b92915050565b7f4e487b7100000000000000000000000000000000000000000000000000000000600052603260045260246000fd5b600081905092915050565b7f6573736179000000000000000000000000000000000000000000000000000000600082015250565b600061222d6005836121ec565b9150612238826121f7565b600582019050919050565b600061224e82612220565b9150819050919050565b600061226382611ef7565b61226d81856121ec565b935061227d818560208601611f13565b80840191505092915050565b60006122958284612258565b915081905092915050565b600067ffffffffffffffff8211156122bb576122ba611add565b5b602082029050602081019050919050565b6122d58161214d565b81146122e057600080fd5b50565b6000815190506122f2816122cc565b92915050565b600061230b612306846122a0565b611b3d565b9050808382526020820190506020840283018581111561232e5761232d611b84565b5b835b81811015612357578061234388826122e3565b845260208401935050602081019050612330565b5050509392505050565b600082601f83011261237657612375611ac7565b5b81516123868482602086016122f8565b91505092915050565b6000602082840312156123a5576123a4611abd565b5b600082015167ffffffffffffffff8111156123c3576123c2611ac2565b5b6123cf84828501612361565b91505092915050565b60006123eb6123e684611b8e565b611b3d565b90508281526020810184848401111561240757612406611b89565b5b612412848285611f13565b509392505050565b600082601f83011261242f5761242e611ac7565b5b815161243f8482602086016123d8565b91505092915050565b60006020828403121561245e5761245d611abd565b5b600082015167ffffffffffffffff81111561247c5761247b611ac2565b5b6124888482850161241a565b91505092915050565b7f3c64697620636c6173733d2263223e0000000000000000000000000000000000815250565b7f3c64697620636c6173733d2277223e0000000000000000000000000000000000815250565b7f3c64697620636c6173733d22732067223e000000000000000000000000000000815250565b7f3c70726520636c6173733d2267617264656e223e000000000000000000000000815250565b7f20202020202020e29a982020202020202020202020202020202020202020e29a60008201527f980a000000000000000000000000000000000000000000000000000000000000602082015250565b60006125856022836121ec565b915061259082612529565b602282019050919050565b7f20202020202020202020202020e29a980a000000000000000000000000000000815250565b7fe29a982020202020202020202020202020202020202020202020e29a9820202060008201527f202020202020e29a980a00000000000000000000000000000000000000000000602082015250565b600061261d602a836121ec565b9150612628826125c1565b602a82019050919050565b7f2020202020202020e29a98202020202020202020e29a980a0000000000000000815250565b7f202020e29a98202020202020202020202020202020202020202020202020202060008201527fe29a980a00000000000000000000000000000000000000000000000000000000602082015250565b60006126b56024836121ec565b91506126c082612659565b602482019050919050565b7f3c2f7072653e0000000000000000000000000000000000000000000000000000815250565b7f3c6272202f3e3c6272202f3e0000000000000000000000000000000000000000815250565b7f3c68313e00000000000000000000000000000000000000000000000000000000815250565b7f3c2f68313e0a0000000000000000000000000000000000000000000000000000815250565b600061276f8285612258565b915061277a82612491565b600f82019150612789826124b7565b600f82019150612798826124dd565b6011820191506127a782612503565b6014820191506127b682612578565b91506127c18261259b565b6011820191506127d082612610565b91506127db82612633565b6018820191506127ea826126a8565b91506127f5826126cb565b600682019150612804826126f1565b600c8201915061281382612717565b6004820191506128238284612258565b915061282e8261273d565b60068201915061283d826126f1565b600c820191508190509392505050565b600061286061285b84611b58565b611b3d565b9050808382526020820190506020840283018581111561288357612882611b84565b5b835b818110156128ca57805167ffffffffffffffff8111156128a8576128a7611ac7565b5b8086016128b5898261241a565b85526020850194505050602081019050612885565b5050509392505050565b600082601f8301126128e9576128e8611ac7565b5b81516128f984826020860161284d565b91505092915050565b60006020828403121561291857612917611abd565b5b600082015167ffffffffffffffff81111561293657612935611ac2565b5b612942848285016128d4565b91505092915050565b7f4d697373696e673c62722f3e0000000000000000000000000000000000000000815250565b600061297d8284612258565b91506129888261294b565b600c8201915081905092915050565b7f3c62722f3e000000000000000000000000000000000000000000000000000000815250565b60006129c98285612258565b91506129d58284612258565b91506129e082612997565b6005820191508190509392505050565b7f3c68323e00000000000000000000000000000000000000000000000000000000815250565b7f3c2f68323e3c6272202f3e000000000000000000000000000000000000000000815250565b7f202020202020e29a9820202020202020202020202020202020202020202020e260008201527f9a980a0000000000000000000000000000000000000000000000000000000000602082015250565b6000612a986023836121ec565b9150612aa382612a3c565b602382019050919050565b7f2020202020202020202020202020e29a980a0000000000000000000000000000815250565b7f20e29a98202020202020202020202020202020202020202020e29a982020202060008201527f2020202020e29a980a0000000000000000000000000000000000000000000000602082015250565b6000612b306029836121ec565b9150612b3b82612ad4565b602982019050919050565b7f20202020202020202020e29a98202020202020e29a980a000000000000000000815250565b7f2020202020e29a98202020202020202020202020202020202020202020e29a9860008201527f0a00000000000000000000000000000000000000000000000000000000000000602082015250565b6000612bc86021836121ec565b9150612bd382612b6c565b602182019050919050565b7f3c2f7072653e3c6272202f3e0000000000000000000000000000000000000000815250565b7f3c703e0000000000000000000000000000000000000000000000000000000000815250565b7f4120636f6e74726163742073686f772063757261746564206279200000000000815250565b7f3c6120687265663d2268747470733a2f2f30786666662e6c6f7665222074617260008201527f6765743d225f626c616e6b222072656c3d226e6f6f70656e6572206e6f72656660208201527f6572726572223e30786666663c2f613e3c62722f3e0000000000000000000000604082015250565b6000612cd26055836121ec565b9150612cdd82612c50565b605582019050919050565b7f77697468207370656369616c207468616e6b7320746f20000000000000000000815250565b7f3c6120687265663d2268747470733a2f2f782e636f6d2f7373736c756b65312260008201527f207461726765743d225f626c616e6b222072656c3d226e6f6f70656e6572206e60208201527f6f7265666572726572223e7373736c756b653c2f613e20616e64203c6120687260408201527f65663d2268747470733a2f2f782e636f6d2f307831313364222072656c3d226e60608201527f6f6f70656e6572206e6f726566657272657222207461726765743d225f626c6160808201527f6e6b223e3131333c2f613e00000000000000000000000000000000000000000060a082015250565b6000612e0260ab836121ec565b9150612e0d82612d0e565b60ab82019050919050565b7f3c62722f3e3c62722f3e00000000000000000000000000000000000000000000815250565b7f3c6120687265663d222f6573736179223e45737361793c2f613e206279203c6160008201527f20687265663d2268747470733a2f2f782e636f6d2f6d616c746566725f65746860208201527f22207461726765743d225f626c616e6b222072656c3d226e6f6f70656e65722060408201527f6e6f7265666572726572223e0000000000000000000000000000000000000000606082015250565b6000612ee6606c836121ec565b9150612ef182612e3e565b606c82019050919050565b7f3c2f613e00000000000000000000000000000000000000000000000000000000815250565b7f3c2f703e3c6272202f3e3c6272202f3e00000000000000000000000000000000815250565b6000612f548286612258565b9150612f5f826126f1565b600c82019150612f6e826129f0565b600482019150612f7e8285612258565b9150612f8982612a16565b600b82019150612f9882612503565b601482019150612fa782612a8b565b9150612fb282612aae565b601282019150612fc182612b23565b9150612fcc82612b46565b601782019150612fdb82612bbb565b9150612fe682612bde565b600c82019150612ff582612c04565b60038201915061300482612c2a565b601b8201915061301382612cc5565b915061301e82612ce8565b60178201915061302d82612df5565b915061303882612e18565b600a8201915061304782612ed9565b91506130538284612258565b915061305e82612efc565b60048201915061306d82612f22565b601082019150819050949350505050565b7f3c6272202f3e3c2f6469763e0000000000000000000000000000000000000000815250565b7f3c64697620636c6173733d2270223ee286933c2f6469763e3c2f6469763e0000815250565b60006130d68284612258565b91506130e18261307e565b600c820191506130f0826130a4565b601e8201915081905092915050565b7f3c64697620636c6173733d2277223e3c64697620636c6173733d2273223e3c7060008201527f3e00000000000000000000000000000000000000000000000000000000000000602082015250565b600061315b6021836121ec565b9150613166826130ff565b602182019050919050565b7f3c62722f3e3c62722f3e202d2030786666660000000000000000000000000000815250565b7f3c2f703e3c2f6469763e3c2f6469763e00000000000000000000000000000000815250565b60006131c98285612258565b91506131d48261314e565b91506131e08284612258565b91506131eb82613171565b6012820191506131fa82613197565b6010820191508190509392505050565b7f3c64697620636c6173733d2277223e3c64697620636c6173733d2273223e0000815250565b600061323c8284612258565b91506132478261320a565b601e8201915081905092915050565b7f3c68323e3c693e4d697373696e673c2f693e3c2f68323e000000000000000000815250565b60006132888284612258565b915061329382613256565b60178201915081905092915050565b60006132ae8284612258565b91506132b9826129f0565b60048201915081905092915050565b7f3c2f68323e000000000000000000000000000000000000000000000000000000815250565b60006132fa8284612258565b9150613305826132c8565b60058201915081905092915050565b7f3c68333e3c693e556e7469746c65643c2f693e3c2f68333e0000000000000000815250565b60006133468284612258565b915061335182613314565b60188201915081905092915050565b7f3c68333e3c693e00000000000000000000000000000000000000000000000000815250565b7f3c2f693e3c2f68333e0000000000000000000000000000000000000000000000815250565b60006133b88285612258565b91506133c382613360565b6007820191506133d38284612258565b91506133de82613386565b6009820191508190509392505050565b7f3c703e3c7370616e20636c6173733d2761273e00000000000000000000000000815250565b7f3c2f7370616e3e3c2f703e000000000000000000000000000000000000000000815250565b60006134468285612258565b9150613451826133ee565b6013820191506134618284612258565b915061346c82613414565b600b820191508190509392505050565b60006134888284612258565b915061349382612c04565b60038201915081905092915050565b7f3c7370616e20636c6173733d2261223e00000000000000000000000000000000815250565b7f3c2f7370616e3e3c62722f3e0000000000000000000000000000000000000000815250565b60006134fa8285612258565b9150613505826134a2565b6010820191506135158284612258565b9150613520826134c8565b600c820191508190509392505050565b7f3c2f703e00000000000000000000000000000000000000000000000000000000815250565b60006135628284612258565b915061356d82613530565b60048201915081905092915050565b7f3c64697620636c6173733d2274223e3c693e436f6e747261637420526576657260008201527f7465643c2f693e3c2f6469763e00000000000000000000000000000000000000602082015250565b60006135d8602d836121ec565b91506135e38261357c565b602d82019050919050565b60006135fa8284612258565b9150613605826135cb565b915081905092915050565b7f3c64697620636c6173733d2274223e0000000000000000000000000000000000815250565b7f3c2f6469763e0000000000000000000000000000000000000000000000000000815250565b60006136688285612258565b915061367382613610565b600f820191506136838284612258565b915061368e82613636565b6006820191508190509392505050565b7f3c2f6469763e3c2f6469763e0000000000000000000000000000000000000000815250565b60006136d08284612258565b91506136db8261369e565b600c8201915081905092915050565b6136f381611ede565b81146136fe57600080fd5b50565b600081519050613710816136ea565b92915050565b60006020828403121561372c5761372b611abd565b5b600061373a84828501613701565b91505092915050565b7f4e487b7100000000000000000000000000000000000000000000000000000000600052601160045260246000fd5b600061377d82611ede565b915061378883611ede565b92508282019050808211156137a05761379f613743565b5b92915050565b7f3c6469762069643d226669656c64312220636c6173733d226669656c64223e3c60008201527f2f6469763e3c62722f3e3c62722f3e3c62722f3e000000000000000000000000602082015250565b60006138026034836121ec565b915061380d826137a6565b603482019050919050565b7f3c70207374796c653d22746578742d616c69676e3a63656e7465723b223e0000815250565b7f4775657374626f6f6b0000000000000000000000000000000000000000000000815250565b7f596f75206d6179206c65617665206120666c6f7765722068657265206279207360008201527f656e64696e6720302e30312045544820286f72206d756c7469706c657320746860208201527f6572656f66293c62722f3e20746f207468652073686f7720636f6e747261637460408201527f2061742000000000000000000000000000000000000000000000000000000000606082015250565b600061390c6064836121ec565b915061391782613864565b606482019050919050565b7f20677565737473206861766520706c616e746564200000000000000000000000815250565b7f20666c6f77657273000000000000000000000000000000000000000000000000815250565b7f3c2f703e3c62722f3e3c62722f3e3c62722f3e00000000000000000000000000815250565b7f3c6469762069643d226669656c64322220636c6173733d226669656c64223e3c60008201527f2f6469763e000000000000000000000000000000000000000000000000000000602082015250565b60006139f06025836121ec565b91506139fb82613994565b602582019050919050565b7f3c7363726970743e000000000000000000000000000000000000000000000000815250565b7f282829203d3e207b000000000000000000000000000000000000000000000000815250565b7f636f6e737420666c6f77657273203d2000000000000000000000000000000000815250565b7f3b66756e6374696f6e2063616c63756c6174655468726573686f6c6428706c6160008201527f6e74656429207b00000000000000000000000000000000000000000000000000602082015250565b6000613ad46027836121ec565b9150613adf82613a78565b602782019050919050565b7f636f6e7374206d696e203d2033302c206d6178203d20333030302c206c6f776560008201527f72203d20302e39392c20686967686572203d20302e363b000000000000000000602082015250565b6000613b466037836121ec565b9150613b5182613aea565b603782019050919050565b7f69662028706c616e746564203c3d206d696e292072657475726e206c6f77657260008201527f3b00000000000000000000000000000000000000000000000000000000000000602082015250565b6000613bb86021836121ec565b9150613bc382613b5c565b602182019050919050565b7f69662028706c616e746564203e3d206d6178292072657475726e20686967686560008201527f723b000000000000000000000000000000000000000000000000000000000000602082015250565b6000613c2a6022836121ec565b9150613c3582613bce565b602282019050919050565b7f636f6e7374206e6f726d616c697a6564203d2028706c616e746564202d206d6960008201527f6e29202f20286d6178202d206d696e293b000000000000000000000000000000602082015250565b6000613c9c6031836121ec565b9150613ca782613c40565b603182019050919050565b7f636f6e7374206c6f6756616c7565203d204d6174682e6c6f6731302831202b2060008201527f6e6f726d616c697a6564202a20283130202d203129293b000000000000000000602082015250565b6000613d0e6037836121ec565b9150613d1982613cb2565b603782019050919050565b7f72657475726e20686967686572202b20286c6f776572202d206869676865722960008201527f202a202831202d206c6f6756616c7565293b0000000000000000000000000000602082015250565b6000613d806032836121ec565b9150613d8b82613d24565b603282019050919050565b7f7d00000000000000000000000000000000000000000000000000000000000000815250565b7f66756e6374696f6e206973436f6e646974696f6e4d657428706c616e7465642c60008201527f2076616c29207b00000000000000000000000000000000000000000000000000602082015250565b6000613e186027836121ec565b9150613e2382613dbc565b602782019050919050565b7f636f6e7374207468726573686f6c64203d2063616c63756c617465546872657360008201527f686f6c6428706c616e746564293b000000000000000000000000000000000000602082015250565b6000613e8a602e836121ec565b9150613e9582613e2e565b602e82019050919050565b7f72657475726e2076616c203e207468726573686f6c64207c7c2076616c203c2060008201527f2d7468726573686f6c643b000000000000000000000000000000000000000000602082015250565b6000613efc602b836121ec565b9150613f0782613ea0565b602b82019050919050565b7f66756e6374696f6e20677269644e6f69736528782c207a2c207365656429207b815250565b7f20202020766172206e203d202831363139202a2078202b203331333337202a2060008201527f7a202b2031303133202a207365656429202620307837666666666666663b0000602082015250565b6000613f94603e836121ec565b9150613f9f82613f38565b603e82019050919050565b7f202020206e203d20426967496e7428286e203e3e20313329205e206e293b0000815250565b7f202020206e203d206e202a20286e202a206e202a2036303439336e202b20313960008201527f3939303330336e29202b20313337363331323538396e3b000000000000000000602082015250565b600061402c6037836121ec565b915061403782613fd0565b603782019050919050565b7f202020206e203d207061727365496e74286e2e746f537472696e672832292e7360008201527f6c696365282d3331292c2032293b000000000000000000000000000000000000602082015250565b600061409e602e836121ec565b91506140a982614042565b602e82019050919050565b7f2020202072657475726e2031202d206e202f20313037333734313832343b0000815250565b7f636f6e7374207769647468203d2039303b000000000000000000000000000000815250565b7f6c6574206c696e6573203d205b22225d2c20636f756e746572203d20302c207060008201527f6c616e746564203d20303b000000000000000000000000000000000000000000602082015250565b600061415c602b836121ec565b915061416782614100565b602b82019050919050565b7f7768696c652028706c616e746564203c20666c6f7765727329207b0000000000815250565b7f20202020636f6e73742076616c203d20677269644e6f69736528636f756e746560008201527f7220252077696474682c204d6174682e666c6f6f7228636f756e746572202f2060208201527f7769647468292c20307866293b00000000000000000000000000000000000000604082015250565b600061421a604d836121ec565b915061422582614198565b604d82019050919050565b7f20202020696620286973436f6e646974696f6e4d657428706c616e7465642c2060008201527f76616c2900000000000000000000000000000000000000000000000000000000602082015250565b600061428c6024836121ec565b915061429782614230565b602482019050919050565b7f29207b0000000000000000000000000000000000000000000000000000000000815250565b7f20202020202020206c696e65735b4d6174682e666c6f6f7228636f756e74657260008201527f202f207769647468295d202b3d20603c6120687265663d2223247b706c616e7460208201527f65642b317d2220646174612d666c6f7765722d69643d22247b706c616e74656460408201527f2b317d223ee29a983c2f613e603b000000000000000000000000000000000000606082015250565b6000614370606e836121ec565b915061437b826142c8565b606e82019050919050565b7f706c616e7465642b2b3b00000000000000000000000000000000000000000000815250565b7f202020207d20656c7365207b206c696e65735b4d6174682e666c6f6f7228636f60008201527f756e746572202f207769647468295d202b3d202220223b207d00000000000000602082015250565b60006144086039836121ec565b9150614413826143ac565b603982019050919050565b7f2020202069662028636f756e7465722025207769647468203d3d20287769647460008201527f682d312920262620706c616e746564203c20666c6f7765727329207b206c696e60208201527f65732e70757368282222293b207d000000000000000000000000000000000000604082015250565b60006144a0604e836121ec565b91506144ab8261441e565b604e82019050919050565b7f20202020636f756e7465722b2b3b7d0000000000000000000000000000000000815250565b7f6c696e6573203d206c696e65732e72656475636528286163632c206c696e652960008201527f203d3e207b20696620286c696e652e7472696d28292e6c656e677468203e203060208201527f29206163632e70757368286c696e65293b2072657475726e206163633b207d2c60408201527f205b5d293b000000000000000000000000000000000000000000000000000000606082015250565b60006145846065836121ec565b915061458f826144dc565b606582019050919050565b7f66756e6374696f6e20617272616e6765507972616d696428617272617929207b815250565b7f202020206c657420726573756c74203d205b5d2c206f6464203d205b5d2c206560008201527f76656e203d205b5d3b0000000000000000000000000000000000000000000000602082015250565b600061461c6029836121ec565b9150614627826145c0565b602982019050919050565b7f20202020666f7220286c65742069203d20303b2069203c2061727261792e6c6560008201527f6e6774683b20692b2b29207b0000000000000000000000000000000000000000602082015250565b600061468e602c836121ec565b915061469982614632565b602c82019050919050565b7f2020202020202020696620286920252032203d3d203129207b00000000000000815250565b7f2020202020202020202020206576656e2e707573682861727261795b695d293b815250565b7f20202020202020207d20656c7365207b00000000000000000000000000000000815250565b7f2020202020202020202020206f64642e707573682861727261795b695d293b00815250565b7f20202020202020207d0000000000000000000000000000000000000000000000815250565b7f202020207d000000000000000000000000000000000000000000000000000000815250565b7f20202020726573756c74203d206f64642e636f6e636174286576656e2e72657660008201527f657273652829293b000000000000000000000000000000000000000000000000602082015250565b60006147e46028836121ec565b91506147ef82614788565b602882019050919050565b7f2020202072657475726e20726573756c743b0000000000000000000000000000815250565b7f646f63756d656e742e717565727953656c6563746f722822236669656c64312260008201527f292e696e6e657248544d4c203d206c696e65732e736c69636528302c4d61746860208201527f2e6d696e28372c4d6174682e6365696c286c696e65732e6c656e6774682f322960408201527f29292e6a6f696e28225c6e22293b000000000000000000000000000000000000606082015250565b60006148c8606e836121ec565b91506148d382614820565b606e82019050919050565b7f646f63756d656e742e717565727953656c6563746f722822236669656c64322260008201527f292e696e6e657248544d4c203d206c696e65732e736c696365284d6174682e6d60208201527f696e28372c4d6174682e6365696c286c696e65732e6c656e6774682f3229292960408201527f2e6a6f696e28225c6e22293b0000000000000000000000000000000000000000606082015250565b6000614986606c836121ec565b9150614991826148de565b606c82019050919050565b7f646f63756d656e742e717565727953656c6563746f72416c6c28222e6669656c60008201527f6422292e666f72456163682828656c29203d3e20656c2e6164644576656e744c60208201527f697374656e65722822636c69636b222c20286529203d3e207b00000000000000604082015250565b6000614a1e6059836121ec565b9150614a298261499c565b605982019050919050565b7f20202020636f6e737420666c6f7765724964203d20652e7461726765742e646160008201527f74617365742e666c6f77657249643b0000000000000000000000000000000000602082015250565b6000614a90602f836121ec565b9150614a9b82614a34565b602f82019050919050565b7f2020202069662028666c6f776572496429207b00000000000000000000000000815250565b7f2020202020202020652e70726576656e7444656661756c7428293b202020207d815250565b7f7d29293b00000000000000000000000000000000000000000000000000000000815250565b7f7d2928293b2f2a494946452a2f00000000000000000000000000000000000000815250565b7f3c2f7363726970743e0000000000000000000000000000000000000000000000815250565b6000614b708288612258565b9150614b7b8261320a565b601e82019150614b8a826137f5565b9150614b9582613818565b601e82019150614ba48261383e565b600982019150614bb382612e18565b600a82019150614bc2826138ff565b9150614bce8287612258565b9150614bd982612e18565b600a82019150614be98286612258565b9150614bf482613922565b601582019150614c048285612258565b9150614c0f82613948565b600882019150614c1e8261396e565b601382019150614c2d826139e3565b9150614c3882613a06565b600882019150614c4782613a2c565b600882019150614c5682613a52565b601082019150614c668284612258565b9150614c7182613ac7565b9150614c7c82613b39565b9150614c8782613bab565b9150614c9282613c1d565b9150614c9d82613c8f565b9150614ca882613d01565b9150614cb382613d73565b9150614cbe82613d96565b600182019150614ccd82613e0b565b9150614cd882613e7d565b9150614ce382613eef565b9150614cee82613d96565b600182019150614cfd82613f12565b602082019150614d0c82613f87565b9150614d1782613faa565b601e82019150614d268261401f565b9150614d3182614091565b9150614d3c826140b4565b601e82019150614d4b82613d96565b600182019150614d5a826140da565b601182019150614d698261414f565b9150614d7482614172565b601b82019150614d838261420d565b9150614d8e8261427f565b9150614d99826142a2565b600382019150614da882614363565b9150614db382614386565b600a82019150614dc2826143fb565b9150614dcd82614493565b9150614dd8826144b6565b600f82019150614de782614577565b9150614df28261459a565b602082019150614e018261460f565b9150614e0c82614681565b9150614e17826146a4565b601982019150614e26826146ca565b602082019150614e35826146f0565b601082019150614e4482614716565b601f82019150614e538261473c565b600982019150614e6282614762565b600582019150614e71826147d7565b9150614e7c826147fa565b601282019150614e8b82613d96565b600182019150614e9a826148bb565b9150614ea582614979565b9150614eb082614a11565b9150614ebb82614a83565b9150614ec682614aa6565b601382019150614ed582614acc565b602082019150614ee482614af2565b600482019150614ef382614b18565b600d82019150614f0282614b3e565b600982019150614f118261369e565b600c820191508190509695505050505050565b7f3c64697620636c6173733d2269223e47656e65726174656420696e20626c6f6360008201527f6b20000000000000000000000000000000000000000000000000000000000000602082015250565b6000614f806022836121ec565b9150614f8b82614f24565b602282019050919050565b7f2066726f6d200000000000000000000000000000000000000000000000000000815250565b6000614fc88286612258565b9150614fd382614f73565b9150614fdf8285612258565b9150614fea82614f96565b600682019150614ffa8284612258565b915061500582613636565b600682019150819050949350505050565b60006150228284612258565b915061502d82613636565b60068201915081905092915050565b600082825260208201905092915050565b600061505882611ef7565b615062818561503c565b9350615072818560208601611f13565b61507b81611acc565b840191505092915050565b600060408201905081810360008301526150a0818561504d565b905081810360208301526150b4818461504d565b90509392505050565b7f3c64697620636c6173733d2263206573736179223e3c64697620636c6173733d60008201527f2277223e3c64697620636c6173733d22732067223e0000000000000000000000602082015250565b60006151196035836121ec565b9150615124826150bd565b603582019050919050565b7f3c703e3c693e54686973207465787420776173207075626c697368656420617360008201527f2070617274206f662074686520636f6e74726163742073686f773a203c61206860208201527f7265663d222f22207374796c653d22646973706c61793a20626c6f636b223e5760408201527f6f726c6420436f6d7075746572205363756c70747572652047617264656e3c2f60608201527f613e3c2f693e3c2f703e00000000000000000000000000000000000000000000608082015250565b60006151fd608a836121ec565b91506152088261512f565b608a82019050919050565b7fe29a980000000000000000000000000000000000000000000000000000000000815250565b7f3c62722f3e3c62722f3e3c62722f3e0000000000000000000000000000000000815250565b7f3c61727469636c653e0000000000000000000000000000000000000000000000815250565b7f3c2f61727469636c653e00000000000000000000000000000000000000000000815250565b7f3c703e3c693e56696577207468652065786869626974696f6e2061743a203c6160008201527f20687265663d222f22207374796c653d22646973706c61793a20626c6f636b2260208201527f3e576f726c6420436f6d7075746572205363756c70747572652047617264656e60408201527f3c2f613e3c2f693e3c2f703e0000000000000000000000000000000000000000606082015250565b6000615353606c836121ec565b915061535e826152ab565b606c82019050919050565b7f3c2f6469763e3c2f6469763e3c2f6469763e0000000000000000000000000000815250565b7f3c64697620636c6173733d2266223e3c6120687265663d222f22207374796c6560008201527f3d22746578742d6465636f726174696f6e3a206e6f6e653b223ee29a983c2f6160208201527f3e3c2f6469763e00000000000000000000000000000000000000000000000000604082015250565b60006154116047836121ec565b915061541c8261538f565b604782019050919050565b60006154338285612258565b915061543e8261510c565b9150615449826151f0565b915061545482612997565b60058201915061546382615213565b60038201915061547282615239565b600f820191506154818261525f565b6009820191506154918284612258565b915061549c82615285565b600a820191506154ab82612e18565b600a820191506154ba82615213565b6003820191506154c982612e18565b600a820191506154d882615346565b91506154e382612997565b6005820191506154f282615369565b60128201915061550182615404565b91508190509392505050565b7f3c6120687265663d220000000000000000000000000000000000000000000000815250565b7f22207461726765743d225f626c616e6b222072656c3d226e6f6f70656e65722060008201527f6e6f7265666572726572223e0000000000000000000000000000000000000000602082015250565b600061558f602c836121ec565b915061559a82615533565b602c82019050919050565b60006155b08261550d565b6009820191506155c08285612258565b91506155cb82615582565b91506155d78284612258565b91506155e282612efc565b6004820191508190509392505050565b60006155fd82611ede565b915061560883611ede565b92508282039050818111156156205761561f613743565b5b9291505056fea264697066735822122065c8674c74d68942a2fd4d58ce82a70c9e1501702a6ac93c49e430d1eb5b8d4164736f6c634300081c0033",
  "libraries": {
    "GardenHTML": "0x25d9de198DB46375eCc71f7D554Cc5dBdf24C14C"
  },
  "devdoc": {
    "kind": "dev",
    "methods": {
      "request(string[],(string,string)[])": {
        "params": {
          "params": "The query parameters. (e.g. \"?asdf=1234&foo=bar\" turns in to `[{ key: \"asdf\", value: \"1234\" }, { key: \"foo\", value: \"bar\" }]`)",
          "resource": "The resource to request (e.g. \"/asdf/1234\" turns in to `[\"asdf\", \"1234\"]`)"
        },
        "returns": {
          "body": "               The body of the response",
          "headers": "            A list of header names (e.g. [{ key: \"Content-Type\", value: \"application/json\" }])",
          "statusCode": "         The HTTP status code (e.g. 200)"
        }
      },
      "resolveMode()": {
        "returns": {
          "_0": "resolveMode         The mode of the resolver (e.g. 5219)"
        }
      }
    },
    "version": 1
  },
  "userdoc": {
    "kind": "user",
    "methods": {
      "request(string[],(string,string)[])": {
        "notice": "Send an HTTP GET-like request to this contract"
      },
      "resolveMode()": {
        "notice": "returns the resolve mode of the contract"
      }
    },
    "version": 1
  },
  "storageLayout": {
    "storage": [],
    "types": null
  }
}