{
  "address": "0xD1Ce57a48BFE4E39C627c5a0483a13a7838Bbaf6",
  "abi": [
    {
      "inputs": [
        {
          "internalType": "string",
          "name": "body",
          "type": "string"
        },
        {
          "internalType": "string",
          "name": "title",
          "type": "string"
        },
        {
          "internalType": "string",
          "name": "description",
          "type": "string"
        }
      ],
      "name": "html",
      "outputs": [
        {
          "internalType": "string",
          "name": "",
          "type": "string"
        }
      ],
      "stateMutability": "pure",
      "type": "function"
    }
  ],
  "transactionHash": "0x062eec577268525af4ed33b69924eaedca6120f4861bc15fc044af29cc549e86",
  "args": [],
  "numDeployments": 2,
  "solcInputHash": "20aa0555289e4da74883abaf655672d7",
  "bytecode": "0x611345610052600b82828239805160001a6073146045577f4e487b7100000000000000000000000000000000000000000000000000000000600052600060045260246000fd5b30600052607381538281f3fe73000000000000000000000000000000000000000030146080604052600436106100355760003560e01c8063263c92531461003a575b600080fd5b610054600480360381019061004f9190610255565b61006a565b604051610061919061037b565b60405180910390f35b606060006040518060400160405280600681526020017f3c68746d6c3e000000000000000000000000000000000000000000000000000081525090508084846040516020016100bb93929190611112565b604051602081830303815290604052905080856040516020016100df9291906112cd565b6040516020818303038152906040529050809150509392505050565b6000604051905090565b600080fd5b600080fd5b600080fd5b600080fd5b6000601f19601f8301169050919050565b7f4e487b7100000000000000000000000000000000000000000000000000000000600052604160045260246000fd5b61016282610119565b810181811067ffffffffffffffff821117156101815761018061012a565b5b80604052505050565b60006101946100fb565b90506101a08282610159565b919050565b600067ffffffffffffffff8211156101c0576101bf61012a565b5b6101c982610119565b9050602081019050919050565b82818337600083830152505050565b60006101f86101f3846101a5565b61018a565b90508281526020810184848401111561021457610213610114565b5b61021f8482856101d6565b509392505050565b600082601f83011261023c5761023b61010f565b5b813561024c8482602086016101e5565b91505092915050565b60008060006060848603121561026e5761026d610105565b5b600084013567ffffffffffffffff81111561028c5761028b61010a565b5b61029886828701610227565b935050602084013567ffffffffffffffff8111156102b9576102b861010a565b5b6102c586828701610227565b925050604084013567ffffffffffffffff8111156102e6576102e561010a565b5b6102f286828701610227565b9150509250925092565b600081519050919050565b600082825260208201905092915050565b60005b8381101561033657808201518184015260208101905061031b565b60008484015250505050565b600061034d826102fc565b6103578185610307565b9350610367818560208601610318565b61037081610119565b840191505092915050565b600060208201905081810360008301526103958184610342565b905092915050565b600081905092915050565b60006103b3826102fc565b6103bd818561039d565b93506103cd818560208601610318565b80840191505092915050565b7f3c686561643e3c6d65746120636861727365743d225554462d38223e3c6d657460008201527f61206e616d653d2276696577706f72742220636f6e74656e743d22776964746860208201527f3d6465766963652d77696474682c20696e697469616c2d7363616c653d312e3060408201527f223e000000000000000000000000000000000000000000000000000000000000606082015250565b600061048160628361039d565b915061048c826103d9565b606282019050919050565b7f3c6c696e6b2072656c3d2269636f6e2220747970653d22696d6167652f73766760008201527f2b786d6c2220687265663d22646174613a696d6167652f7376672b786d6c2c2560208201527f334373766720786d6c6e733d0000000000000000000000000000000000000000604082015250565b6000610519604c8361039d565b915061052482610497565b604c82019050919050565b7f27687474703a2f2f7777772e77332e6f72672f323030302f737667272076696560008201527f77426f783d273020302031303020313030272533452533437374796c6525334560208201527f2074657874202537422066696c6c3a202532333030303b2025374420406d656460408201527f69612028707265666572732d636f6c6f722d736368656d653a206461726b292060608201527f2537422074657874202537422066696c6c3a202532336666663b20253744202560808201527f3744202533432f7374796c652533452533437465787420793d272e39656d272060a08201527f666f6e742d73697a653d2739302725334520e29a98202533432f74657874253360c08201527f452533432f73766725334525304100000000000000000000000000000000000060e082015250565b600061066f60ee8361039d565b915061067a8261052f565b60ee82019050919050565b7f22202f3e00000000000000000000000000000000000000000000000000000000815250565b7f3c7469746c653e00000000000000000000000000000000000000000000000000815250565b7f3c2f7469746c653e000000000000000000000000000000000000000000000000815250565b7f3c6d657461206e616d653d226465736372697074696f6e2220636f6e74656e7460008201527f3d22000000000000000000000000000000000000000000000000000000000000602082015250565b600061075360228361039d565b915061075e826106f7565b602282019050919050565b7f223e000000000000000000000000000000000000000000000000000000000000815250565b7f3c2f686561643e00000000000000000000000000000000000000000000000000815250565b7f3c7374796c653e00000000000000000000000000000000000000000000000000815250565b7f2a2c202a3a3a6265666f72652c202a3a3a6166746572207b20626f782d73697a60008201527f696e673a20626f726465722d626f783b207d0000000000000000000000000000602082015250565b600061083760328361039d565b9150610842826107db565b603282019050919050565b7f68746d6c207b202d6d6f7a2d746578742d73697a652d61646a7573743a206e6f60008201527f6e653b202d7765626b69742d746578742d73697a652d61646a7573743a206e6f60208201527f6e653b20746578742d73697a652d61646a7573743a206e6f6e653b207d20687460408201527f6d6c2c20626f6479207b206d617267696e3a20303b2070616464696e673a203060608201527f3b207d20626f6479207b206d696e2d6865696768743a203130307668207d206860808201527f746d6c2c626f64792c707265207b20666f6e742d66616d696c793a2022436f7560a08201527f72696572204e6577222c2022436f7572696572222c206d6f6e6f73706163653b60c08201527f20666f6e742d73697a653a20313570783b206c696e652d6865696768743a203160e08201527f2e333b207d00000000000000000000000000000000000000000000000000000061010082015250565b60006109b56101058361039d565b91506109c08261084d565b61010582019050919050565b7f68312c68322c6833207b206d617267696e3a20303b20666f6e742d73697a653a60008201527f20696e68657269743b20666f6e742d7374796c653a20696e68657269743b206660208201527f6f6e742d7765696768743a20696e68657269743b7d0000000000000000000000604082015250565b6000610a4e60558361039d565b9150610a59826109cc565b605582019050919050565b7f2e63207b206d61782d77696474683a2038363070783b206d617267696e3a203060008201527f206175746f3b2070616464696e673a203020323070783b20626f782d73697a6960208201527f6e673a20626f726465722d626f783b207d000000000000000000000000000000604082015250565b6000610ae660518361039d565b9150610af182610a64565b605182019050919050565b7f2e632e6573736179207b206d61782d77696474683a2036323070783b207d0000815250565b7f61207b20636f6c6f723a20696e68657269743b20746578742d6465636f72617460008201527f696f6e3a20756e6465726c696e653b207d000000000000000000000000000000602082015250565b6000610b7e60318361039d565b9150610b8982610b22565b603182019050919050565b7f2e77207b20706f736974696f6e3a2072656c61746976653b206d696e2d68656960008201527f6768743a2031303076683b20646973706c61793a20666c65783b20616c69676e60208201527f2d6974656d733a2063656e7465723b2070616464696e673a203130656d20303b60408201527f207d000000000000000000000000000000000000000000000000000000000000606082015250565b6000610c3c60628361039d565b9150610c4782610b94565b606282019050919050565b7f2e73207b2077696474683a20313030253b206d61782d77696474683a2038363060008201527f70783b207d000000000000000000000000000000000000000000000000000000602082015250565b6000610cae60258361039d565b9150610cb982610c52565b602582019050919050565b7f2e733a6e6f74282e67292061207b206d61782d77696474683a20313030253b2060008201527f646973706c61793a20696e6c696e652d626c6f636b3b2077686974652d73706160208201527f63653a206e6f777261703b206f766572666c6f773a2068696464656e3b20746560408201527f78742d6f766572666c6f773a20656c6c69707369733b207d0000000000000000606082015250565b6000610d6c60788361039d565b9150610d7782610cc4565b607882019050919050565b7f2e74207b206d61782d77696474683a20313030253b206f766572666c6f772d7860008201527f3a206175746f3b206d617267696e3a2031656d20303b207d0000000000000000602082015250565b6000610dde60388361039d565b9150610de982610d82565b603882019050919050565b7f2e69207b206d617267696e3a203020302035656d3b207d000000000000000000815250565b7f2e66207b20706f736974696f6e3a2066697865643b20626f74746f6d3a20316560008201527f6d3b2072696768743a20312e33656d3b207d0000000000000000000000000000602082015250565b6000610e7660328361039d565b9150610e8182610e1a565b603282019050919050565b7f2e70207b20706f736974696f6e3a206162736f6c7574653b20626f74746f6d3a60008201527f203272656d3b206c6566743a203530253b207472616e73666f726d3a2074726160208201527f6e736c61746558282d353025293b20666f6e742d73697a653a20312e34656d3b60408201527f207d000000000000000000000000000000000000000000000000000000000000606082015250565b6000610f3460628361039d565b9150610f3f82610e8c565b606282019050919050565b7f2e6669656c64207b2077686974652d73706163653a207072653b206d6172676960008201527f6e3a2030206175746f3b206d61782d77696474683a20313030253b206f76657260208201527f666c6f772d783a206175746f3b207d0000000000000000000000000000000000604082015250565b6000610fcc604f8361039d565b9150610fd782610f4a565b604f82019050919050565b7f2e6669656c642061207b20746578742d6465636f726174696f6e3a206e6f6e6560008201527f3b207d0000000000000000000000000000000000000000000000000000000000602082015250565b600061103e60238361039d565b915061104982610fe2565b602382019050919050565b7f2e61207b206f766572666c6f773a2068696464656e3b20646973706c61793a2060008201527f696e6c696e652d626c6f636b3b206d61782d77696474683a20313030253b207460208201527f6578742d6f766572666c6f773a20656c6c69707369733b20766572746963616c60408201527f2d616c69676e3a206d6964646c653b207d3c2f7374796c653e00000000000000606082015250565b60006110fc60798361039d565b915061110782611054565b607982019050919050565b600061111e82866103a8565b915061112982610474565b91506111348261050c565b915061113f82610662565b915061114a82610685565b600482019150611159826106ab565b60078201915061116982856103a8565b9150611174826106d1565b60088201915061118382610746565b915061118f82846103a8565b915061119a82610769565b6002820191506111a98261078f565b6007820191506111b8826107b5565b6007820191506111c78261082a565b91506111d2826109a7565b91506111dd82610a41565b91506111e882610ad9565b91506111f382610afc565b601e8201915061120282610b71565b915061120d82610c2f565b915061121882610ca1565b915061122382610d5f565b915061122e82610dd1565b915061123982610df4565b60178201915061124882610e69565b915061125382610f27565b915061125e82610fbf565b915061126982611031565b9150611274826110ef565b9150819050949350505050565b7f3c626f64793e0000000000000000000000000000000000000000000000000000815250565b7f3c2f626f64793e3c2f68746d6c3e000000000000000000000000000000000000815250565b60006112d982856103a8565b91506112e482611281565b6006820191506112f482846103a8565b91506112ff826112a7565b600e82019150819050939250505056fea2646970667358221220e3ff914ad42c809d8930466fc9c74df2d67a3d9b7eb7d79643afc500b8fe60a064736f6c634300081c0033",
  "devdoc": {
    "kind": "dev",
    "methods": {},
    "version": 1
  },
  "userdoc": {
    "kind": "user",
    "methods": {},
    "version": 1
  },
  "storageLayout": {
    "storage": [],
    "types": null
  }
}