{
  "address": "0xa62F8Bcf012eF7D22D1D64E9448e99d040aDf99A",
  "abi": [
    {
      "inputs": [
        {
          "internalType": "address[]",
          "name": "_sculptures",
          "type": "address[]"
        },
        {
          "internalType": "address",
          "name": "_render",
          "type": "address"
        },
        {
          "internalType": "address",
          "name": "_data",
          "type": "address"
        }
      ],
      "stateMutability": "nonpayable",
      "type": "constructor"
    },
    {
      "inputs": [
        {
          "internalType": "address",
          "name": "owner",
          "type": "address"
        }
      ],
      "name": "OwnableInvalidOwner",
      "type": "error"
    },
    {
      "inputs": [
        {
          "internalType": "address",
          "name": "account",
          "type": "address"
        }
      ],
      "name": "OwnableUnauthorizedAccount",
      "type": "error"
    },
    {
      "anonymous": false,
      "inputs": [
        {
          "indexed": true,
          "internalType": "address",
          "name": "previousOwner",
          "type": "address"
        },
        {
          "indexed": true,
          "internalType": "address",
          "name": "newOwner",
          "type": "address"
        }
      ],
      "name": "OwnershipTransferred",
      "type": "event"
    },
    {
      "stateMutability": "payable",
      "type": "fallback"
    },
    {
      "inputs": [],
      "name": "addresses",
      "outputs": [
        {
          "internalType": "address[]",
          "name": "",
          "type": "address[]"
        }
      ],
      "stateMutability": "view",
      "type": "function"
    },
    {
      "inputs": [],
      "name": "authors",
      "outputs": [
        {
          "internalType": "string[]",
          "name": "",
          "type": "string[]"
        }
      ],
      "stateMutability": "view",
      "type": "function"
    },
    {
      "inputs": [],
      "name": "data",
      "outputs": [
        {
          "internalType": "address",
          "name": "",
          "type": "address"
        }
      ],
      "stateMutability": "view",
      "type": "function"
    },
    {
      "inputs": [
        {
          "internalType": "uint256",
          "name": "flowerId",
          "type": "uint256"
        }
      ],
      "name": "flower",
      "outputs": [
        {
          "internalType": "address",
          "name": "",
          "type": "address"
        }
      ],
      "stateMutability": "view",
      "type": "function"
    },
    {
      "inputs": [
        {
          "internalType": "uint256",
          "name": "flowerId",
          "type": "uint256"
        }
      ],
      "name": "flowerInfo",
      "outputs": [
        {
          "internalType": "address",
          "name": "planter",
          "type": "address"
        },
        {
          "internalType": "uint256",
          "name": "timestamp",
          "type": "uint256"
        }
      ],
      "stateMutability": "view",
      "type": "function"
    },
    {
      "inputs": [
        {
          "internalType": "uint256",
          "name": "flowerId",
          "type": "uint256"
        }
      ],
      "name": "flowerPlantedAt",
      "outputs": [
        {
          "internalType": "uint256",
          "name": "",
          "type": "uint256"
        }
      ],
      "stateMutability": "view",
      "type": "function"
    },
    {
      "inputs": [],
      "name": "flowers",
      "outputs": [
        {
          "internalType": "uint256",
          "name": "",
          "type": "uint256"
        }
      ],
      "stateMutability": "view",
      "type": "function"
    },
    {
      "inputs": [
        {
          "internalType": "address",
          "name": "planter",
          "type": "address"
        }
      ],
      "name": "flowersPlanted",
      "outputs": [
        {
          "internalType": "uint256",
          "name": "",
          "type": "uint256"
        }
      ],
      "stateMutability": "view",
      "type": "function"
    },
    {
      "inputs": [],
      "name": "getSculptures",
      "outputs": [
        {
          "internalType": "address[]",
          "name": "",
          "type": "address[]"
        }
      ],
      "stateMutability": "view",
      "type": "function"
    },
    {
      "inputs": [],
      "name": "guests",
      "outputs": [
        {
          "internalType": "uint256",
          "name": "",
          "type": "uint256"
        }
      ],
      "stateMutability": "view",
      "type": "function"
    },
    {
      "inputs": [],
      "name": "html",
      "outputs": [
        {
          "internalType": "string",
          "name": "",
          "type": "string"
        }
      ],
      "stateMutability": "view",
      "type": "function"
    },
    {
      "inputs": [],
      "name": "owner",
      "outputs": [
        {
          "internalType": "address",
          "name": "",
          "type": "address"
        }
      ],
      "stateMutability": "view",
      "type": "function"
    },
    {
      "inputs": [],
      "name": "render",
      "outputs": [
        {
          "internalType": "address",
          "name": "",
          "type": "address"
        }
      ],
      "stateMutability": "view",
      "type": "function"
    },
    {
      "inputs": [],
      "name": "renounceOwnership",
      "outputs": [],
      "stateMutability": "nonpayable",
      "type": "function"
    },
    {
      "inputs": [
        {
          "internalType": "string[]",
          "name": "resource",
          "type": "string[]"
        },
        {
          "components": [
            {
              "internalType": "string",
              "name": "key",
              "type": "string"
            },
            {
              "internalType": "string",
              "name": "value",
              "type": "string"
            }
          ],
          "internalType": "struct KeyValue[]",
          "name": "params",
          "type": "tuple[]"
        }
      ],
      "name": "request",
      "outputs": [
        {
          "internalType": "uint256",
          "name": "statusCode",
          "type": "uint256"
        },
        {
          "internalType": "string",
          "name": "body",
          "type": "string"
        },
        {
          "components": [
            {
              "internalType": "string",
              "name": "key",
              "type": "string"
            },
            {
              "internalType": "string",
              "name": "value",
              "type": "string"
            }
          ],
          "internalType": "struct KeyValue[]",
          "name": "headers",
          "type": "tuple[]"
        }
      ],
      "stateMutability": "view",
      "type": "function"
    },
    {
      "inputs": [],
      "name": "resolveMode",
      "outputs": [
        {
          "internalType": "bytes32",
          "name": "",
          "type": "bytes32"
        }
      ],
      "stateMutability": "view",
      "type": "function"
    },
    {
      "inputs": [
        {
          "internalType": "uint256",
          "name": "",
          "type": "uint256"
        }
      ],
      "name": "sculptures",
      "outputs": [
        {
          "internalType": "address",
          "name": "",
          "type": "address"
        }
      ],
      "stateMutability": "view",
      "type": "function"
    },
    {
      "inputs": [
        {
          "internalType": "address[]",
          "name": "_sculptures",
          "type": "address[]"
        }
      ],
      "name": "setSculptures",
      "outputs": [],
      "stateMutability": "nonpayable",
      "type": "function"
    },
    {
      "inputs": [],
      "name": "text",
      "outputs": [
        {
          "internalType": "string",
          "name": "",
          "type": "string"
        }
      ],
      "stateMutability": "view",
      "type": "function"
    },
    {
      "inputs": [],
      "name": "title",
      "outputs": [
        {
          "internalType": "string",
          "name": "",
          "type": "string"
        }
      ],
      "stateMutability": "pure",
      "type": "function"
    },
    {
      "inputs": [
        {
          "internalType": "address",
          "name": "newOwner",
          "type": "address"
        }
      ],
      "name": "transferOwnership",
      "outputs": [],
      "stateMutability": "nonpayable",
      "type": "function"
    },
    {
      "inputs": [],
      "name": "urls",
      "outputs": [
        {
          "internalType": "string[]",
          "name": "",
          "type": "string[]"
        }
      ],
      "stateMutability": "view",
      "type": "function"
    },
    {
      "inputs": [
        {
          "internalType": "address",
          "name": "_to",
          "type": "address"
        }
      ],
      "name": "withdraw",
      "outputs": [],
      "stateMutability": "nonpayable",
      "type": "function"
    },
    {
      "stateMutability": "payable",
      "type": "receive"
    }
  ],
  "transactionHash": "0x28761605ea86828d2be3c2bd1e4c19225cc64ebf7cc9fbbf57682a505c884cd4",
  "args": [
    [],
    "0xf58Cd835aEf65a6c7969F4366826e118580dF2B8",
    "0xd9b1B9f9Ec7b108924E7799Eb0B263FdB6d554C5"
  ],
  "numDeployments": 1,
  "solcInputHash": "82e76e0d6fa7fac9758e7e90de20a595",
  "bytecode": "0x60c060405234801561001057600080fd5b5060405161322938038061322983398181016040528101906100329190610472565b33600073ffffffffffffffffffffffffffffffffffffffff168173ffffffffffffffffffffffffffffffffffffffff16036100a55760006040517f1e4fbdf700000000000000000000000000000000000000000000000000000000815260040161009c91906104f0565b60405180910390fd5b6100b48161013c60201b60201c565b5082600690805190602001906100cb929190610200565b508173ffffffffffffffffffffffffffffffffffffffff1660a08173ffffffffffffffffffffffffffffffffffffffff16815250508073ffffffffffffffffffffffffffffffffffffffff1660808173ffffffffffffffffffffffffffffffffffffffff168152505050505061050b565b60008060009054906101000a900473ffffffffffffffffffffffffffffffffffffffff169050816000806101000a81548173ffffffffffffffffffffffffffffffffffffffff021916908373ffffffffffffffffffffffffffffffffffffffff1602179055508173ffffffffffffffffffffffffffffffffffffffff168173ffffffffffffffffffffffffffffffffffffffff167f8be0079c531659141344cd1fd0a4f28419497f9722a3daafe3b4186f6b6457e060405160405180910390a35050565b828054828255906000526020600020908101928215610279579160200282015b828111156102785782518260006101000a81548173ffffffffffffffffffffffffffffffffffffffff021916908373ffffffffffffffffffffffffffffffffffffffff16021790555091602001919060010190610220565b5b509050610286919061028a565b5090565b5b808211156102a357600081600090555060010161028b565b5090565b6000604051905090565b600080fd5b600080fd5b600080fd5b6000601f19601f8301169050919050565b7f4e487b7100000000000000000000000000000000000000000000000000000000600052604160045260246000fd5b610309826102c0565b810181811067ffffffffffffffff82111715610328576103276102d1565b5b80604052505050565b600061033b6102a7565b90506103478282610300565b919050565b600067ffffffffffffffff821115610367576103666102d1565b5b602082029050602081019050919050565b600080fd5b600073ffffffffffffffffffffffffffffffffffffffff82169050919050565b60006103a88261037d565b9050919050565b6103b88161039d565b81146103c357600080fd5b50565b6000815190506103d5816103af565b92915050565b60006103ee6103e98461034c565b610331565b9050808382526020820190506020840283018581111561041157610410610378565b5b835b8181101561043a578061042688826103c6565b845260208401935050602081019050610413565b5050509392505050565b600082601f830112610459576104586102bb565b5b81516104698482602086016103db565b91505092915050565b60008060006060848603121561048b5761048a6102b1565b5b600084015167ffffffffffffffff8111156104a9576104a86102b6565b5b6104b586828701610444565b93505060206104c6868287016103c6565b92505060406104d7868287016103c6565b9150509250925092565b6104ea8161039d565b82525050565b600060208201905061050560008301846104e1565b92915050565b60805160a051612ccf61055a6000396000818161084a01528181610d7d0152818161121201526116d80152600081816108fa01528181610c2501528181610ce2015261105d0152612ccf6000f3fe6080604052600436106101445760003560e01c806355735c5e116100b6578063ca6590f71161006f578063ca6590f714610683578063d607497a146106c1578063da0321cd146106ec578063dc6062fa14610717578063dd473fae14610754578063f2fde38b1461077f576102af565b806355735c5e14610583578063706e3da2146105ae578063715018a6146105d957806373d4a13a146105f05780637e0b1cb51461061b5780638da5cb5b14610658576102af565b806328411ae11161010857806328411ae1146104715780632c73dc4a1461049c57806333c34ac3146104c75780633c655fe3146104f25780634a79d50c1461052f57806351cff8d91461055a576102af565b8063032a7290146103765780630a8ee81d1461039f5780630ed40c26146103ca5780631374c460146104075780631f1bd69214610446576102af565b366102af57662386f26fc1000034106102ad576000662386f26fc100003461016c9190611ac0565b90506000600360003373ffffffffffffffffffffffffffffffffffffffff1673ffffffffffffffffffffffffffffffffffffffff16815260200190815260200160002054036101ce57600260008154809291906101c890611af1565b91905055505b80600360003373ffffffffffffffffffffffffffffffffffffffff1673ffffffffffffffffffffffffffffffffffffffff168152602001908152602001600020600082825461021d9190611b39565b9250508190555080600160008282546102369190611b39565b925050819055503360046000600154815260200190815260200160002060006101000a81548173ffffffffffffffffffffffffffffffffffffffff021916908373ffffffffffffffffffffffffffffffffffffffff1602179055504260056000600154815260200190815260200160002081905550505b005b61033a6040516024016040516020818303038152906040527f33c34ac3000000000000000000000000000000000000000000000000000000007bffffffffffffffffffffffffffffffffffffffffffffffffffffffff19166020820180517bffffffffffffffffffffffffffffffffffffffffffffffffffffffff83818316178352505050506107a8565b6040517f08c379a000000000000000000000000000000000000000000000000000000000815260040161036d9190611bfd565b60405180910390fd5b34801561038257600080fd5b5061039d60048036038101906103989190611dd9565b6107ce565b005b3480156103ab57600080fd5b506103b46107f0565b6040516103c19190611e31565b60405180910390f35b3480156103d657600080fd5b506103f160048036038101906103ec9190611e4c565b6107fa565b6040516103fe9190611e31565b60405180910390f35b34801561041357600080fd5b5061042e60048036038101906104299190612182565b610843565b60405161043d9392919061234a565b60405180910390f35b34801561045257600080fd5b5061045b6108f6565b6040516104689190611bfd565b60405180910390f35b34801561047d57600080fd5b50610486610991565b6040516104939190612451565b60405180910390f35b3480156104a857600080fd5b506104b1610cde565b6040516104be9190612451565b60405180910390f35b3480156104d357600080fd5b506104dc610d79565b6040516104e99190611bfd565b60405180910390f35b3480156104fe57600080fd5b506105196004803603810190610514919061249f565b610e14565b6040516105269190611e31565b60405180910390f35b34801561053b57600080fd5b50610544610eba565b6040516105519190611bfd565b60405180910390f35b34801561056657600080fd5b50610581600480360381019061057c9190611e4c565b610ef7565b005b34801561058f57600080fd5b50610598610faf565b6040516105a5919061258a565b60405180910390f35b3480156105ba57600080fd5b506105c361103d565b6040516105d09190611e31565b60405180910390f35b3480156105e557600080fd5b506105ee611047565b005b3480156105fc57600080fd5b5061060561105b565b60405161061291906125bb565b60405180910390f35b34801561062757600080fd5b50610642600480360381019061063d919061249f565b61107f565b60405161064f91906125bb565b60405180910390f35b34801561066457600080fd5b5061066d6110be565b60405161067a91906125bb565b60405180910390f35b34801561068f57600080fd5b506106aa60048036038101906106a5919061249f565b6110e7565b6040516106b89291906125d6565b60405180910390f35b3480156106cd57600080fd5b506106d6611210565b6040516106e391906125bb565b60405180910390f35b3480156106f857600080fd5b50610701611234565b60405161070e919061258a565b60405180910390f35b34801561072357600080fd5b5061073e6004803603810190610739919061249f565b6115c2565b60405161074b91906125bb565b60405180910390f35b34801561076057600080fd5b506107696116d4565b6040516107769190612618565b60405180910390f35b34801561078b57600080fd5b506107a660048036038101906107a19190611e4c565b61176a565b005b60606107b3826117f0565b90506002815101613078825260028203915080825250919050565b6107d661185e565b80600690805190602001906107ec9291906119b1565b5050565b6000600254905090565b6000600360008373ffffffffffffffffffffffffffffffffffffffff1673ffffffffffffffffffffffffffffffffffffffff168152602001908152602001600020549050919050565b60006060807f000000000000000000000000000000000000000000000000000000000000000073ffffffffffffffffffffffffffffffffffffffff16631374c46086866040518363ffffffff1660e01b81526004016108a3929190612633565b600060405180830381865afa1580156108c0573d6000803e3d6000fd5b505050506040513d6000823e3d601f19601f820116820180604052508101906108e9919061282c565b9250925092509250925092565b60607f000000000000000000000000000000000000000000000000000000000000000073ffffffffffffffffffffffffffffffffffffffff16631f1bd6926040518163ffffffff1660e01b8152600401600060405180830381865afa158015610963573d6000803e3d6000fd5b505050506040513d6000823e3d601f19601f8201168201806040525081019061098c91906128b7565b905090565b606060006001905060005b600680549050811015610a95576000600682815481106109bf576109be612900565b5b9060005260206000200160009054906101000a900473ffffffffffffffffffffffffffffffffffffffff1673ffffffffffffffffffffffffffffffffffffffff166328411ae16040518163ffffffff1660e01b8152600401600060405180830381865afa158015610a34573d6000803e3d6000fd5b505050506040513d6000823e3d601f19601f82011682018060405250810190610a5d91906129e4565b905060005b8151811015610a86578380610a7690611af1565b9450508080600101915050610a62565b5050808060010191505061099c565b5060008167ffffffffffffffff811115610ab257610ab1611c38565b5b604051908082528060200260200182016040528015610ae557816020015b6060815260200190600190039081610ad05790505b509050600080600090505b600680549050811015610c2257600060068281548110610b1357610b12612900565b5b9060005260206000200160009054906101000a900473ffffffffffffffffffffffffffffffffffffffff1673ffffffffffffffffffffffffffffffffffffffff166328411ae16040518163ffffffff1660e01b8152600401600060405180830381865afa158015610b88573d6000803e3d6000fd5b505050506040513d6000823e3d601f19601f82011682018060405250810190610bb191906129e4565b905060005b8151811015610c1357818181518110610bd257610bd1612900565b5b6020026020010151858581518110610bed57610bec612900565b5b60200260200101819052508380610c0390611af1565b9450508080600101915050610bb6565b50508080600101915050610af0565b507f000000000000000000000000000000000000000000000000000000000000000073ffffffffffffffffffffffffffffffffffffffff16635fb4ed2a6040518163ffffffff1660e01b8152600401600060405180830381865afa158015610c8e573d6000803e3d6000fd5b505050506040513d6000823e3d601f19601f82011682018060405250810190610cb791906128b7565b828281518110610cca57610cc9612900565b5b602002602001018190525081935050505090565b60607f000000000000000000000000000000000000000000000000000000000000000073ffffffffffffffffffffffffffffffffffffffff16632c73dc4a6040518163ffffffff1660e01b8152600401600060405180830381865afa158015610d4b573d6000803e3d6000fd5b505050506040513d6000823e3d601f19601f82011682018060405250810190610d7491906129e4565b905090565b60607f000000000000000000000000000000000000000000000000000000000000000073ffffffffffffffffffffffffffffffffffffffff166333c34ac36040518163ffffffff1660e01b8152600401600060405180830381865afa158015610de6573d6000803e3d6000fd5b505050506040513d6000823e3d601f19601f82011682018060405250810190610e0f91906128b7565b905090565b6000816000108015610e2857506001548211155b610e67576040517f08c379a0000000000000000000000000000000000000000000000000000000008152600401610e5e90612a79565b60405180910390fd5b5b6001548211610e9f576000600560008481526020019081526020016000205403610e9f578180610e9790611af1565b925050610e68565b60056000838152602001908152602001600020549050919050565b60606040518060400160405280601f81526020017f576f726c6420436f6d7075746572205363756c70747572652047617264656e00815250905090565b610eff61185e565b60008173ffffffffffffffffffffffffffffffffffffffff1647604051610f2590612aca565b60006040518083038185875af1925050503d8060008114610f62576040519150601f19603f3d011682016040523d82523d6000602084013e610f67565b606091505b5050905080610fab576040517f08c379a0000000000000000000000000000000000000000000000000000000008152600401610fa290612b2b565b60405180910390fd5b5050565b6060600680548060200260200160405190810160405280929190818152602001828054801561103357602002820191906000526020600020905b8160009054906101000a900473ffffffffffffffffffffffffffffffffffffffff1673ffffffffffffffffffffffffffffffffffffffff1681526020019060010190808311610fe9575b5050505050905090565b6000600154905090565b61104f61185e565b61105960006118e5565b565b7f000000000000000000000000000000000000000000000000000000000000000081565b6006818154811061108f57600080fd5b906000526020600020016000915054906101000a900473ffffffffffffffffffffffffffffffffffffffff1681565b60008060009054906101000a900473ffffffffffffffffffffffffffffffffffffffff16905090565b6000808260001080156110fc57506001548311155b61113b576040517f08c379a000000000000000000000000000000000000000000000000000000000815260040161113290612a79565b60405180910390fd5b5b60015483116111bf57600073ffffffffffffffffffffffffffffffffffffffff166004600085815260200190815260200160002060009054906101000a900473ffffffffffffffffffffffffffffffffffffffff1673ffffffffffffffffffffffffffffffffffffffff16036111bf5782806111b790611af1565b93505061113c565b6004600084815260200190815260200160002060009054906101000a900473ffffffffffffffffffffffffffffffffffffffff16600560008581526020019081526020016000205491509150915091565b7f000000000000000000000000000000000000000000000000000000000000000081565b606060006001905060005b6006805490508110156113385760006006828154811061126257611261612900565b5b9060005260206000200160009054906101000a900473ffffffffffffffffffffffffffffffffffffffff1673ffffffffffffffffffffffffffffffffffffffff1663da0321cd6040518163ffffffff1660e01b8152600401600060405180830381865afa1580156112d7573d6000803e3d6000fd5b505050506040513d6000823e3d601f19601f820116820180604052508101906113009190612bf7565b905060005b815181101561132957838061131990611af1565b9450508080600101915050611305565b5050808060010191505061123f565b5060008167ffffffffffffffff81111561135557611354611c38565b5b6040519080825280602002602001820160405280156113835781602001602082028036833780820191505090505b50905060006001905030826000815181106113a1576113a0612900565b5b602002602001019073ffffffffffffffffffffffffffffffffffffffff16908173ffffffffffffffffffffffffffffffffffffffff168152505060005b6006805490508110156115b85760006006828154811061140157611400612900565b5b9060005260206000200160009054906101000a900473ffffffffffffffffffffffffffffffffffffffff16905060008173ffffffffffffffffffffffffffffffffffffffff1663da0321cd6040518163ffffffff1660e01b8152600401600060405180830381865afa15801561147b573d6000803e3d6000fd5b505050506040513d6000823e3d601f19601f820116820180604052508101906114a49190612bf7565b905060005b81518110156115a8578273ffffffffffffffffffffffffffffffffffffffff1663da0321cd6040518163ffffffff1660e01b8152600401600060405180830381865afa1580156114fd573d6000803e3d6000fd5b505050506040513d6000823e3d601f19601f820116820180604052508101906115269190612bf7565b818151811061153857611537612900565b5b602002602001015186868151811061155357611552612900565b5b602002602001019073ffffffffffffffffffffffffffffffffffffffff16908173ffffffffffffffffffffffffffffffffffffffff1681525050848061159890611af1565b95505080806001019150506114a9565b50505080806001019150506113de565b5081935050505090565b60008160001080156115d657506001548211155b611615576040517f08c379a000000000000000000000000000000000000000000000000000000000815260040161160c90612a79565b60405180910390fd5b5b600154821161169957600073ffffffffffffffffffffffffffffffffffffffff166004600084815260200190815260200160002060009054906101000a900473ffffffffffffffffffffffffffffffffffffffff1673ffffffffffffffffffffffffffffffffffffffff160361169957818061169190611af1565b925050611616565b6004600083815260200190815260200160002060009054906101000a900473ffffffffffffffffffffffffffffffffffffffff169050919050565b60007f000000000000000000000000000000000000000000000000000000000000000073ffffffffffffffffffffffffffffffffffffffff1663dd473fae6040518163ffffffff1660e01b8152600401602060405180830381865afa158015611741573d6000803e3d6000fd5b505050506040513d601f19601f820116820180604052508101906117659190612c6c565b905090565b61177261185e565b600073ffffffffffffffffffffffffffffffffffffffff168173ffffffffffffffffffffffffffffffffffffffff16036117e45760006040517f1e4fbdf70000000000000000000000000000000000000000000000000000000081526004016117db91906125bb565b60405180910390fd5b6117ed816118e5565b50565b60608151600260405101915080810182526f30313233343536373839616263646566600f52602082018184015b80851461184b57600185019450600f855116516001830153600f855160041c1651825360028201915061181d565b6000825260208201604052505050919050565b6118666119a9565b73ffffffffffffffffffffffffffffffffffffffff166118846110be565b73ffffffffffffffffffffffffffffffffffffffff16146118e3576118a76119a9565b6040517f118cdaa70000000000000000000000000000000000000000000000000000000081526004016118da91906125bb565b60405180910390fd5b565b60008060009054906101000a900473ffffffffffffffffffffffffffffffffffffffff169050816000806101000a81548173ffffffffffffffffffffffffffffffffffffffff021916908373ffffffffffffffffffffffffffffffffffffffff1602179055508173ffffffffffffffffffffffffffffffffffffffff168173ffffffffffffffffffffffffffffffffffffffff167f8be0079c531659141344cd1fd0a4f28419497f9722a3daafe3b4186f6b6457e060405160405180910390a35050565b600033905090565b828054828255906000526020600020908101928215611a2a579160200282015b82811115611a295782518260006101000a81548173ffffffffffffffffffffffffffffffffffffffff021916908373ffffffffffffffffffffffffffffffffffffffff160217905550916020019190600101906119d1565b5b509050611a379190611a3b565b5090565b5b80821115611a54576000816000905550600101611a3c565b5090565b6000819050919050565b7f4e487b7100000000000000000000000000000000000000000000000000000000600052601260045260246000fd5b7f4e487b7100000000000000000000000000000000000000000000000000000000600052601160045260246000fd5b6000611acb82611a58565b9150611ad683611a58565b925082611ae657611ae5611a62565b5b828204905092915050565b6000611afc82611a58565b91507fffffffffffffffffffffffffffffffffffffffffffffffffffffffffffffffff8203611b2e57611b2d611a91565b5b600182019050919050565b6000611b4482611a58565b9150611b4f83611a58565b9250828201905080821115611b6757611b66611a91565b5b92915050565b600081519050919050565b600082825260208201905092915050565b60005b83811015611ba7578082015181840152602081019050611b8c565b60008484015250505050565b6000601f19601f8301169050919050565b6000611bcf82611b6d565b611bd98185611b78565b9350611be9818560208601611b89565b611bf281611bb3565b840191505092915050565b60006020820190508181036000830152611c178184611bc4565b905092915050565b6000604051905090565b600080fd5b600080fd5b600080fd5b7f4e487b7100000000000000000000000000000000000000000000000000000000600052604160045260246000fd5b611c7082611bb3565b810181811067ffffffffffffffff82111715611c8f57611c8e611c38565b5b80604052505050565b6000611ca2611c1f565b9050611cae8282611c67565b919050565b600067ffffffffffffffff821115611cce57611ccd611c38565b5b602082029050602081019050919050565b600080fd5b600073ffffffffffffffffffffffffffffffffffffffff82169050919050565b6000611d0f82611ce4565b9050919050565b611d1f81611d04565b8114611d2a57600080fd5b50565b600081359050611d3c81611d16565b92915050565b6000611d55611d5084611cb3565b611c98565b90508083825260208201905060208402830185811115611d7857611d77611cdf565b5b835b81811015611da15780611d8d8882611d2d565b845260208401935050602081019050611d7a565b5050509392505050565b600082601f830112611dc057611dbf611c33565b5b8135611dd0848260208601611d42565b91505092915050565b600060208284031215611def57611dee611c29565b5b600082013567ffffffffffffffff811115611e0d57611e0c611c2e565b5b611e1984828501611dab565b91505092915050565b611e2b81611a58565b82525050565b6000602082019050611e466000830184611e22565b92915050565b600060208284031215611e6257611e61611c29565b5b6000611e7084828501611d2d565b91505092915050565b600067ffffffffffffffff821115611e9457611e93611c38565b5b602082029050602081019050919050565b600080fd5b600067ffffffffffffffff821115611ec557611ec4611c38565b5b611ece82611bb3565b9050602081019050919050565b82818337600083830152505050565b6000611efd611ef884611eaa565b611c98565b905082815260208101848484011115611f1957611f18611ea5565b5b611f24848285611edb565b509392505050565b600082601f830112611f4157611f40611c33565b5b8135611f51848260208601611eea565b91505092915050565b6000611f6d611f6884611e79565b611c98565b90508083825260208201905060208402830185811115611f9057611f8f611cdf565b5b835b81811015611fd757803567ffffffffffffffff811115611fb557611fb4611c33565b5b808601611fc28982611f2c565b85526020850194505050602081019050611f92565b5050509392505050565b600082601f830112611ff657611ff5611c33565b5b8135612006848260208601611f5a565b91505092915050565b600067ffffffffffffffff82111561202a57612029611c38565b5b602082029050602081019050919050565b600080fd5b600080fd5b60006040828403121561205b5761205a61203b565b5b6120656040611c98565b9050600082013567ffffffffffffffff81111561208557612084612040565b5b61209184828501611f2c565b600083015250602082013567ffffffffffffffff8111156120b5576120b4612040565b5b6120c184828501611f2c565b60208301525092915050565b60006120e06120db8461200f565b611c98565b9050808382526020820190506020840283018581111561210357612102611cdf565b5b835b8181101561214a57803567ffffffffffffffff81111561212857612127611c33565b5b8086016121358982612045565b85526020850194505050602081019050612105565b5050509392505050565b600082601f83011261216957612168611c33565b5b81356121798482602086016120cd565b91505092915050565b6000806040838503121561219957612198611c29565b5b600083013567ffffffffffffffff8111156121b7576121b6611c2e565b5b6121c385828601611fe1565b925050602083013567ffffffffffffffff8111156121e4576121e3611c2e565b5b6121f085828601612154565b9150509250929050565b600081519050919050565b600082825260208201905092915050565b6000819050602082019050919050565b600082825260208201905092915050565b600061224282611b6d565b61224c8185612226565b935061225c818560208601611b89565b61226581611bb3565b840191505092915050565b6000604083016000830151848203600086015261228d8282612237565b915050602083015184820360208601526122a78282612237565b9150508091505092915050565b60006122c08383612270565b905092915050565b6000602082019050919050565b60006122e0826121fa565b6122ea8185612205565b9350836020820285016122fc85612216565b8060005b85811015612338578484038952815161231985826122b4565b9450612324836122c8565b925060208a01995050600181019050612300565b50829750879550505050505092915050565b600060608201905061235f6000830186611e22565b81810360208301526123718185611bc4565b9050818103604083015261238581846122d5565b9050949350505050565b600081519050919050565b600082825260208201905092915050565b6000819050602082019050919050565b60006123c78383612237565b905092915050565b6000602082019050919050565b60006123e78261238f565b6123f1818561239a565b935083602082028501612403856123ab565b8060005b8581101561243f578484038952815161242085826123bb565b945061242b836123cf565b925060208a01995050600181019050612407565b50829750879550505050505092915050565b6000602082019050818103600083015261246b81846123dc565b905092915050565b61247c81611a58565b811461248757600080fd5b50565b60008135905061249981612473565b92915050565b6000602082840312156124b5576124b4611c29565b5b60006124c38482850161248a565b91505092915050565b600081519050919050565b600082825260208201905092915050565b6000819050602082019050919050565b61250181611d04565b82525050565b600061251383836124f8565b60208301905092915050565b6000602082019050919050565b6000612537826124cc565b61254181856124d7565b935061254c836124e8565b8060005b8381101561257d5781516125648882612507565b975061256f8361251f565b925050600181019050612550565b5085935050505092915050565b600060208201905081810360008301526125a4818461252c565b905092915050565b6125b581611d04565b82525050565b60006020820190506125d060008301846125ac565b92915050565b60006040820190506125eb60008301856125ac565b6125f86020830184611e22565b9392505050565b6000819050919050565b612612816125ff565b82525050565b600060208201905061262d6000830184612609565b92915050565b6000604082019050818103600083015261264d81856123dc565b9050818103602083015261266181846122d5565b90509392505050565b60008151905061267981612473565b92915050565b600061269261268d84611eaa565b611c98565b9050828152602081018484840111156126ae576126ad611ea5565b5b6126b9848285611b89565b509392505050565b600082601f8301126126d6576126d5611c33565b5b81516126e684826020860161267f565b91505092915050565b6000604082840312156127055761270461203b565b5b61270f6040611c98565b9050600082015167ffffffffffffffff81111561272f5761272e612040565b5b61273b848285016126c1565b600083015250602082015167ffffffffffffffff81111561275f5761275e612040565b5b61276b848285016126c1565b60208301525092915050565b600061278a6127858461200f565b611c98565b905080838252602082019050602084028301858111156127ad576127ac611cdf565b5b835b818110156127f457805167ffffffffffffffff8111156127d2576127d1611c33565b5b8086016127df89826126ef565b855260208501945050506020810190506127af565b5050509392505050565b600082601f83011261281357612812611c33565b5b8151612823848260208601612777565b91505092915050565b60008060006060848603121561284557612844611c29565b5b60006128538682870161266a565b935050602084015167ffffffffffffffff81111561287457612873611c2e565b5b612880868287016126c1565b925050604084015167ffffffffffffffff8111156128a1576128a0611c2e565b5b6128ad868287016127fe565b9150509250925092565b6000602082840312156128cd576128cc611c29565b5b600082015167ffffffffffffffff8111156128eb576128ea611c2e565b5b6128f7848285016126c1565b91505092915050565b7f4e487b7100000000000000000000000000000000000000000000000000000000600052603260045260246000fd5b600061294261293d84611e79565b611c98565b9050808382526020820190506020840283018581111561296557612964611cdf565b5b835b818110156129ac57805167ffffffffffffffff81111561298a57612989611c33565b5b80860161299789826126c1565b85526020850194505050602081019050612967565b5050509392505050565b600082601f8301126129cb576129ca611c33565b5b81516129db84826020860161292f565b91505092915050565b6000602082840312156129fa576129f9611c29565b5b600082015167ffffffffffffffff811115612a1857612a17611c2e565b5b612a24848285016129b6565b91505092915050565b7f496e646578206f7574206f6620626f756e647300000000000000000000000000600082015250565b6000612a63601383611b78565b9150612a6e82612a2d565b602082019050919050565b60006020820190508181036000830152612a9281612a56565b9050919050565b600081905092915050565b50565b6000612ab4600083612a99565b9150612abf82612aa4565b600082019050919050565b6000612ad582612aa7565b9150819050919050565b7f4661696c656420746f2077697468647261770000000000000000000000000000600082015250565b6000612b15601283611b78565b9150612b2082612adf565b602082019050919050565b60006020820190508181036000830152612b4481612b08565b9050919050565b600081519050612b5a81611d16565b92915050565b6000612b73612b6e84611cb3565b611c98565b90508083825260208201905060208402830185811115612b9657612b95611cdf565b5b835b81811015612bbf5780612bab8882612b4b565b845260208401935050602081019050612b98565b5050509392505050565b600082601f830112612bde57612bdd611c33565b5b8151612bee848260208601612b60565b91505092915050565b600060208284031215612c0d57612c0c611c29565b5b600082015167ffffffffffffffff811115612c2b57612c2a611c2e565b5b612c3784828501612bc9565b91505092915050565b612c49816125ff565b8114612c5457600080fd5b50565b600081519050612c6681612c40565b92915050565b600060208284031215612c8257612c81611c29565b5b6000612c9084828501612c57565b9150509291505056fea264697066735822122057b8dca08bdc8e494c18940b4561ed5d1813f6fe3dc6524c5488aac35f3fdbdd64736f6c634300081c0033",
  "devdoc": {
    "errors": {
      "OwnableInvalidOwner(address)": [
        {
          "details": "The owner is not a valid owner account. (eg. `address(0)`)"
        }
      ],
      "OwnableUnauthorizedAccount(address)": [
        {
          "details": "The caller account is not authorized to perform an operation."
        }
      ]
    },
    "kind": "dev",
    "methods": {
      "owner()": {
        "details": "Returns the address of the current owner."
      },
      "renounceOwnership()": {
        "details": "Leaves the contract without owner. It will not be possible to call `onlyOwner` functions. Can only be called by the current owner. NOTE: Renouncing ownership will leave the contract without an owner, thereby disabling any functionality that is only available to the owner."
      },
      "transferOwnership(address)": {
        "details": "Transfers ownership of the contract to a new account (`newOwner`). Can only be called by the current owner."
      }
    },
    "version": 1
  },
  "userdoc": {
    "kind": "user",
    "methods": {},
    "version": 1
  },
  "storageLayout": {
    "storage": [
      {
        "astId": 224,
        "contract": "contracts/Garden.sol:Garden",
        "label": "_owner",
        "offset": 0,
        "slot": "0",
        "type": "t_address"
      },
      {
        "astId": 760,
        "contract": "contracts/Garden.sol:Garden",
        "label": "totalFlowers",
        "offset": 0,
        "slot": "1",
        "type": "t_uint256"
      },
      {
        "astId": 762,
        "contract": "contracts/Garden.sol:Garden",
        "label": "totalGuests",
        "offset": 0,
        "slot": "2",
        "type": "t_uint256"
      },
      {
        "astId": 766,
        "contract": "contracts/Garden.sol:Garden",
        "label": "flowersPlantedBy",
        "offset": 0,
        "slot": "3",
        "type": "t_mapping(t_address,t_uint256)"
      },
      {
        "astId": 770,
        "contract": "contracts/Garden.sol:Garden",
        "label": "flowerBy",
        "offset": 0,
        "slot": "4",
        "type": "t_mapping(t_uint256,t_address)"
      },
      {
        "astId": 774,
        "contract": "contracts/Garden.sol:Garden",
        "label": "flowerTimestamp",
        "offset": 0,
        "slot": "5",
        "type": "t_mapping(t_uint256,t_uint256)"
      },
      {
        "astId": 1036,
        "contract": "contracts/Garden.sol:Garden",
        "label": "sculptures",
        "offset": 0,
        "slot": "6",
        "type": "t_array(t_address)dyn_storage"
      }
    ],
    "types": {
      "t_address": {
        "encoding": "inplace",
        "label": "address",
        "numberOfBytes": "20"
      },
      "t_array(t_address)dyn_storage": {
        "base": "t_address",
        "encoding": "dynamic_array",
        "label": "address[]",
        "numberOfBytes": "32"
      },
      "t_mapping(t_address,t_uint256)": {
        "encoding": "mapping",
        "key": "t_address",
        "label": "mapping(address => uint256)",
        "numberOfBytes": "32",
        "value": "t_uint256"
      },
      "t_mapping(t_uint256,t_address)": {
        "encoding": "mapping",
        "key": "t_uint256",
        "label": "mapping(uint256 => address)",
        "numberOfBytes": "32",
        "value": "t_address"
      },
      "t_mapping(t_uint256,t_uint256)": {
        "encoding": "mapping",
        "key": "t_uint256",
        "label": "mapping(uint256 => uint256)",
        "numberOfBytes": "32",
        "value": "t_uint256"
      },
      "t_uint256": {
        "encoding": "inplace",
        "label": "uint256",
        "numberOfBytes": "32"
      }
    }
  }
}