{
  "address": "0x3ab8Fa7B19A95B693C720B5C2BE1184197c3c235",
  "abi": [
    {
      "inputs": [
        {
          "internalType": "address",
          "name": "garden",
          "type": "address"
        },
        {
          "internalType": "address",
          "name": "essayContract",
          "type": "address"
        },
        {
          "internalType": "address",
          "name": "data",
          "type": "address"
        }
      ],
      "name": "html",
      "outputs": [
        {
          "internalType": "string",
          "name": "html",
          "type": "string"
        }
      ],
      "stateMutability": "view",
      "type": "function"
    }
  ],
  "transactionHash": "0xd0590d6f96e3d370861a150e29b11a3664db7fb45a13dd66a9c2ab4b80c8abdc",
  "args": [],
  "numDeployments": 3,
  "solcInputHash": "c6b9b627dec8af8256ec819167147404",
  "bytecode": "0x6136ce610052600b82828239805160001a6073146045577f4e487b7100000000000000000000000000000000000000000000000000000000600052600060045260246000fd5b30600052607381538281f3fe73000000000000000000000000000000000000000030146080604052600436106100355760003560e01c80634b1f91571461003a575b600080fd5b610054600480360381019061004f919061186a565b61006a565b604051610061919061194d565b60405180910390f35b606060008473ffffffffffffffffffffffffffffffffffffffff166355735c5e6040518163ffffffff1660e01b8152600401600060405180830381865afa1580156100b9573d6000803e3d6000fd5b505050506040513d6000823e3d601f19601f820116820180604052508101906100e29190611acc565b9050818573ffffffffffffffffffffffffffffffffffffffff16634a79d50c6040518163ffffffff1660e01b8152600401600060405180830381865afa158015610130573d6000803e3d6000fd5b505050506040513d6000823e3d601f19601f820116820180604052508101906101599190611bbb565b60405160200161016a929190611f12565b604051602081830303815290604052915060005b81518110156102925781818151811061019a57610199611ffc565b5b602002602001015173ffffffffffffffffffffffffffffffffffffffff166328411ae16040518163ffffffff1660e01b8152600401600060405180830381865afa92505050801561020e57506040513d6000823e3d601f19601f8201168201806040525081019061020b919061210c565b60015b6102395782604051602001610223919061217b565b6040516020818303038152906040529250610285565b60008151111561028357838160008151811061025857610257611ffc565b5b60200260200101516040516020016102719291906121c7565b60405160208183030381529060405293505b505b808060010191505061017e565b508161029d86610f88565b8473ffffffffffffffffffffffffffffffffffffffff166322e032766040518163ffffffff1660e01b8152600401600060405180830381865afa1580156102e8573d6000803e3d6000fd5b505050506040513d6000823e3d601f19601f820116820180604052508101906103119190611bbb565b8573ffffffffffffffffffffffffffffffffffffffff16635fb4ed2a6040518163ffffffff1660e01b8152600401600060405180830381865afa15801561035c573d6000803e3d6000fd5b505050506040513d6000823e3d601f19601f820116820180604052508101906103859190611bbb565b8673ffffffffffffffffffffffffffffffffffffffff1663beb469e56040518163ffffffff1660e01b8152600401600060405180830381865afa1580156103d0573d6000803e3d6000fd5b505050506040513d6000823e3d601f19601f820116820180604052508101906103f99190611bbb565b8773ffffffffffffffffffffffffffffffffffffffff1663265724906040518163ffffffff1660e01b8152600401600060405180830381865afa158015610444573d6000803e3d6000fd5b505050506040513d6000823e3d601f19601f8201168201806040525081019061046d9190611bbb565b8873ffffffffffffffffffffffffffffffffffffffff16631ed7fd296040518163ffffffff1660e01b8152600401600060405180830381865afa1580156104b8573d6000803e3d6000fd5b505050506040513d6000823e3d601f19601f820116820180604052508101906104e19190611bbb565b8973ffffffffffffffffffffffffffffffffffffffff16638951695d6040518163ffffffff1660e01b8152600401600060405180830381865afa15801561052c573d6000803e3d6000fd5b505050506040513d6000823e3d601f19601f820116820180604052508101906105559190611bbb565b8a73ffffffffffffffffffffffffffffffffffffffff1663ba2978ac6040518163ffffffff1660e01b8152600401600060405180830381865afa1580156105a0573d6000803e3d6000fd5b505050506040513d6000823e3d601f19601f820116820180604052508101906105c99190611bbb565b8b73ffffffffffffffffffffffffffffffffffffffff1663ede749bd6040518163ffffffff1660e01b8152600401600060405180830381865afa158015610614573d6000803e3d6000fd5b505050506040513d6000823e3d601f19601f8201168201806040525081019061063d9190611bbb565b6040516020016106569a999897969594939291906126ba565b6040516020818303038152906040529150816040516020016106789190612907565b6040516020818303038152906040529150818573ffffffffffffffffffffffffffffffffffffffff16631f1bd6926040518163ffffffff1660e01b8152600401600060405180830381865afa1580156106d5573d6000803e3d6000fd5b505050506040513d6000823e3d601f19601f820116820180604052508101906106fe9190611bbb565b60405160200161070f929190612988565b604051602081830303815290604052915060005b8151811015610d7157600082828151811061074157610740611ffc565b5b602002602001015190508360405160200161075c91906129ca565b60405160208183030381529060405293508073ffffffffffffffffffffffffffffffffffffffff166328411ae16040518163ffffffff1660e01b8152600401600060405180830381865afa9250505080156107da57506040513d6000823e3d601f19601f820116820180604052508101906107d7919061210c565b60015b61080557836040516020016107ef9190612a16565b60405160208183030381529060405293506108d3565b6000815111156108d157846040516020016108209190612a62565b604051602081830303815290604052945060005b81518110156108ad57600082828151811061085257610851611ffc565b5b60200260200101515103156108a0578582828151811061087557610874611ffc565b5b602002602001015160405160200161088e9291906121c7565b60405160208183030381529060405295505b8080600101915050610834565b50846040516020016108bf9190612aae565b60405160208183030381529060405294505b505b8073ffffffffffffffffffffffffffffffffffffffff16634a79d50c6040518163ffffffff1660e01b8152600401600060405180830381865afa92505050801561094057506040513d6000823e3d601f19601f8201168201806040525081019061093d9190611bbb565b60015b61096b57836040516020016109559190612afa565b60405160208183030381529060405293506109c3565b60008151111561099e578481604051602001610988929190612b6c565b60405160208183030381529060405294506109c1565b846040516020016109af9190612afa565b60405160208183030381529060405294505b505b8073ffffffffffffffffffffffffffffffffffffffff1663da0321cd6040518163ffffffff1660e01b8152600401600060405180830381865afa925050508015610a3057506040513d6000823e3d601f19601f82011682018060405250810190610a2d9190611acc565b60015b610a7f5783610a58848481518110610a4b57610a4a611ffc565b5b6020026020010151610f88565b604051602001610a69929190612bfa565b6040516020818303038152906040529350610b30565b600081511115610b2e5784604051602001610a9a9190612c3c565b604051602081830303815290604052945060005b8151811015610b0a5785610adb838381518110610ace57610acd611ffc565b5b6020026020010151610f88565b604051602001610aec929190612cae565b60405160208183030381529060405295508080600101915050610aae565b5084604051602001610b1c9190612d16565b60405160208183030381529060405294505b505b8073ffffffffffffffffffffffffffffffffffffffff16632c73dc4a6040518163ffffffff1660e01b8152600401600060405180830381865afa925050508015610b9d57506040513d6000823e3d601f19601f82011682018060405250810190610b9a919061210c565b60015b15610c7857600081511115610c765784604051602001610bbd9190612c3c565b604051602081830303815290604052945060005b8151811015610c52576000828281518110610bef57610bee611ffc565b5b6020026020010151510315610c455785610c22838381518110610c1557610c14611ffc565b5b6020026020010151611002565b604051602001610c339291906121c7565b60405160208183030381529060405295505b8080600101915050610bd1565b5084604051602001610c649190612d16565b60405160208183030381529060405294505b505b8073ffffffffffffffffffffffffffffffffffffffff16631f1bd6926040518163ffffffff1660e01b8152600401600060405180830381865afa925050508015610ce557506040513d6000823e3d601f19601f82011682018060405250810190610ce29190611bbb565b60015b610d105783604051602001610cfa9190612dae565b6040516020818303038152906040529350610d41565b600081511115610d3f578481604051602001610d2d929190612e1c565b60405160208183030381529060405294505b505b83604051602001610d529190612e5e565b6040516020818303038152906040529350508080600101915050610723565b5081738C31E1C425f29D2fEA1F1e339198182c5B63Ab5a63ec34c7a8876040518263ffffffff1660e01b8152600401610daa9190612e93565b600060405180830381865af4158015610dc7573d6000803e3d6000fd5b505050506040513d6000823e3d601f19601f82011682018060405250810190610df09190611bbb565b604051602001610e01929190612eae565b604051602081830303815290604052915081610e1c4361103b565b610e2530610f88565b604051602001610e3793929190612f90565b604051602081830303815290604052915081604051602001610e599190612fea565b604051602081830303815290604052915081604051602001610e7b9190613484565b604051602081830303815290604052915073dE9e7d851c92367A5E520CA106F5f717D5A1e7A063125a507b838773ffffffffffffffffffffffffffffffffffffffff16634a79d50c6040518163ffffffff1660e01b8152600401600060405180830381865afa158015610ef2573d6000803e3d6000fd5b505050506040513d6000823e3d601f19601f82011682018060405250810190610f1b9190611bbb565b6040518363ffffffff1660e01b8152600401610f38929190613573565b600060405180830381865af4158015610f55573d6000803e3d6000fd5b505050506040513d6000823e3d601f19601f82011682018060405250810190610f7e9190611bbb565b9150509392505050565b6060610f938261108c565b905060ff6000190460061b60228201816022026028822016608860f01b60005b600115610fd25782811a82028182015260018101905060148103610fb3575b50838351166000511660011c8351188352602083019250838351166020511660011c835118835250505050919050565b6060600061100f836110b2565b905082816040516020016110249291906135aa565b604051602081830303815290604052915050919050565b60606080604051019050602081016040526000815280600019835b600115611077578184019350600a81066030018453600a8104905080611056575b50828203602084039350808452505050919050565b606061109782611775565b90506002815101613078825260028203915080825250919050565b606060008290506000815190506000808290506005831015801561113557507f64000000000000000000000000000000000000000000000000000000000000008460008151811061110657611105611ffc565b5b602001015160f81c60f81b7effffffffffffffffffffffffffffffffffffffffffffffffffffffffffffff1916145b80156111a057507f61000000000000000000000000000000000000000000000000000000000000008460018151811061117157611170611ffc565b5b602001015160f81c60f81b7effffffffffffffffffffffffffffffffffffffffffffffffffffffffffffff1916145b801561120b57507f7400000000000000000000000000000000000000000000000000000000000000846002815181106111dc576111db611ffc565b5b602001015160f81c60f81b7effffffffffffffffffffffffffffffffffffffffffffffffffffffffffffff1916145b801561127657507f61000000000000000000000000000000000000000000000000000000000000008460038151811061124757611246611ffc565b5b602001015160f81c60f81b7effffffffffffffffffffffffffffffffffffffffffffffffffffffffffffff1916145b80156112e157507f3a00000000000000000000000000000000000000000000000000000000000000846004815181106112b2576112b1611ffc565b5b602001015160f81c60f81b7effffffffffffffffffffffffffffffffffffffffffffffffffffffffffffff1916145b15611376576000600590505b83811015611370577f2c0000000000000000000000000000000000000000000000000000000000000085828151811061132957611328611ffc565b5b602001015160f81c60f81b7effffffffffffffffffffffffffffffffffffffffffffffffffffffffffffff19160361136357809150611370565b80806001019150506112ed565b50611685565b60005b6002846113869190613630565b811015611501577f3a000000000000000000000000000000000000000000000000000000000000008582815181106113c1576113c0611ffc565b5b602001015160f81c60f81b7effffffffffffffffffffffffffffffffffffffffffffffffffffffffffffff191614801561146557507f2f00000000000000000000000000000000000000000000000000000000000000856001836114259190613664565b8151811061143657611435611ffc565b5b602001015160f81c60f81b7effffffffffffffffffffffffffffffffffffffffffffffffffffffffffffff1916145b80156114db57507f2f000000000000000000000000000000000000000000000000000000000000008560028361149b9190613664565b815181106114ac576114ab611ffc565b5b602001015160f81c60f81b7effffffffffffffffffffffffffffffffffffffffffffffffffffffffffffff1916145b156114f4576003816114ed9190613664565b9250611501565b8080600101915050611379565b5060008290505b838110156115f5577f3f0000000000000000000000000000000000000000000000000000000000000085828151811061154457611543611ffc565b5b602001015160f81c60f81b7effffffffffffffffffffffffffffffffffffffffffffffffffffffffffffff191614806115db57507f23000000000000000000000000000000000000000000000000000000000000008582815181106115ac576115ab611ffc565b5b602001015160f81c60f81b7effffffffffffffffffffffffffffffffffffffffffffffffffffffffffffff1916145b156115e8578091506115f5565b8080600101915050611508565b50818111801561166f57507f2f000000000000000000000000000000000000000000000000000000000000008460018361162f9190613630565b815181106116405761163f611ffc565b5b602001015160f81c60f81b7effffffffffffffffffffffffffffffffffffffffffffffffffffffffffffff1916145b15611684576001816116819190613630565b90505b5b600082826116939190613630565b67ffffffffffffffff8111156116ac576116ab611974565b5b6040519080825280601f01601f1916602001820160405280156116de5781602001600182028036833780820191505090505b50905060008390505b828110156117675785818151811061170257611701611ffc565b5b602001015160f81c60f81b82858361171a9190613630565b8151811061172b5761172a611ffc565b5b60200101907effffffffffffffffffffffffffffffffffffffffffffffffffffffffffffff1916908160001a90535080806001019150506116e7565b508095505050505050919050565b60606040519050608081016040526f30313233343536373839616263646566600f526002810190506028815260208101600060288201528260601b925060005b6001156117f157808101820184821a600f81165160018301538060041c518253600183019250601483036117ea5750506117f1565b50506117b5565b5050919050565b6000604051905090565b600080fd5b600080fd5b600073ffffffffffffffffffffffffffffffffffffffff82169050919050565b60006118378261180c565b9050919050565b6118478161182c565b811461185257600080fd5b50565b6000813590506118648161183e565b92915050565b60008060006060848603121561188357611882611802565b5b600061189186828701611855565b93505060206118a286828701611855565b92505060406118b386828701611855565b9150509250925092565b600081519050919050565b600082825260208201905092915050565b60005b838110156118f75780820151818401526020810190506118dc565b60008484015250505050565b6000601f19601f8301169050919050565b600061191f826118bd565b61192981856118c8565b93506119398185602086016118d9565b61194281611903565b840191505092915050565b600060208201905081810360008301526119678184611914565b905092915050565b600080fd5b7f4e487b7100000000000000000000000000000000000000000000000000000000600052604160045260246000fd5b6119ac82611903565b810181811067ffffffffffffffff821117156119cb576119ca611974565b5b80604052505050565b60006119de6117f8565b90506119ea82826119a3565b919050565b600067ffffffffffffffff821115611a0a57611a09611974565b5b602082029050602081019050919050565b600080fd5b600081519050611a2f8161183e565b92915050565b6000611a48611a43846119ef565b6119d4565b90508083825260208201905060208402830185811115611a6b57611a6a611a1b565b5b835b81811015611a945780611a808882611a20565b845260208401935050602081019050611a6d565b5050509392505050565b600082601f830112611ab357611ab261196f565b5b8151611ac3848260208601611a35565b91505092915050565b600060208284031215611ae257611ae1611802565b5b600082015167ffffffffffffffff811115611b0057611aff611807565b5b611b0c84828501611a9e565b91505092915050565b600080fd5b600067ffffffffffffffff821115611b3557611b34611974565b5b611b3e82611903565b9050602081019050919050565b6000611b5e611b5984611b1a565b6119d4565b905082815260208101848484011115611b7a57611b79611b15565b5b611b858482856118d9565b509392505050565b600082601f830112611ba257611ba161196f565b5b8151611bb2848260208601611b4b565b91505092915050565b600060208284031215611bd157611bd0611802565b5b600082015167ffffffffffffffff811115611bef57611bee611807565b5b611bfb84828501611b8d565b91505092915050565b600081905092915050565b6000611c1a826118bd565b611c248185611c04565b9350611c348185602086016118d9565b80840191505092915050565b7f3c64697620636c6173733d2263223e0000000000000000000000000000000000815250565b7f3c64697620636c6173733d2277223e0000000000000000000000000000000000815250565b7f3c64697620636c6173733d22732067223e000000000000000000000000000000815250565b7f3c70726520636c6173733d2267617264656e223e000000000000000000000000815250565b7f20202020202020e29a982020202020202020202020202020202020202020e29a60008201527f980a000000000000000000000000000000000000000000000000000000000000602082015250565b6000611d34602283611c04565b9150611d3f82611cd8565b602282019050919050565b7f20202020202020202020202020e29a980a000000000000000000000000000000815250565b7fe29a982020202020202020202020202020202020202020202020e29a9820202060008201527f202020202020e29a980a00000000000000000000000000000000000000000000602082015250565b6000611dcc602a83611c04565b9150611dd782611d70565b602a82019050919050565b7f2020202020202020e29a98202020202020202020e29a980a0000000000000000815250565b7f202020e29a98202020202020202020202020202020202020202020202020202060008201527fe29a980a00000000000000000000000000000000000000000000000000000000602082015250565b6000611e64602483611c04565b9150611e6f82611e08565b602482019050919050565b7f3c2f7072653e0000000000000000000000000000000000000000000000000000815250565b7f3c6272202f3e3c6272202f3e0000000000000000000000000000000000000000815250565b7f3c68313e00000000000000000000000000000000000000000000000000000000815250565b7f3c2f68313e0a0000000000000000000000000000000000000000000000000000815250565b6000611f1e8285611c0f565b9150611f2982611c40565b600f82019150611f3882611c66565b600f82019150611f4782611c8c565b601182019150611f5682611cb2565b601482019150611f6582611d27565b9150611f7082611d4a565b601182019150611f7f82611dbf565b9150611f8a82611de2565b601882019150611f9982611e57565b9150611fa482611e7a565b600682019150611fb382611ea0565b600c82019150611fc282611ec6565b600482019150611fd28284611c0f565b9150611fdd82611eec565b600682019150611fec82611ea0565b600c820191508190509392505050565b7f4e487b7100000000000000000000000000000000000000000000000000000000600052603260045260246000fd5b600067ffffffffffffffff82111561204657612045611974565b5b602082029050602081019050919050565b600061206a6120658461202b565b6119d4565b9050808382526020820190506020840283018581111561208d5761208c611a1b565b5b835b818110156120d457805167ffffffffffffffff8111156120b2576120b161196f565b5b8086016120bf8982611b8d565b8552602085019450505060208101905061208f565b5050509392505050565b600082601f8301126120f3576120f261196f565b5b8151612103848260208601612057565b91505092915050565b60006020828403121561212257612121611802565b5b600082015167ffffffffffffffff8111156121405761213f611807565b5b61214c848285016120de565b91505092915050565b7f4d697373696e673c62722f3e0000000000000000000000000000000000000000815250565b60006121878284611c0f565b915061219282612155565b600c8201915081905092915050565b7f3c62722f3e000000000000000000000000000000000000000000000000000000815250565b60006121d38285611c0f565b91506121df8284611c0f565b91506121ea826121a1565b6005820191508190509392505050565b7f3c683220636c6173733d2261223e000000000000000000000000000000000000815250565b7f3c2f68323e3c6272202f3e000000000000000000000000000000000000000000815250565b7f202020202020e29a9820202020202020202020202020202020202020202020e260008201527f9a980a0000000000000000000000000000000000000000000000000000000000602082015250565b60006122a2602383611c04565b91506122ad82612246565b602382019050919050565b7f2020202020202020202020202020e29a980a0000000000000000000000000000815250565b7f20e29a98202020202020202020202020202020202020202020e29a982020202060008201527f2020202020e29a980a0000000000000000000000000000000000000000000000602082015250565b600061233a602983611c04565b9150612345826122de565b602982019050919050565b7f20202020202020202020e29a98202020202020e29a980a000000000000000000815250565b7f2020202020e29a98202020202020202020202020202020202020202020e29a9860008201527f0a00000000000000000000000000000000000000000000000000000000000000602082015250565b60006123d2602183611c04565b91506123dd82612376565b602182019050919050565b7f3c2f7072653e3c6272202f3e0000000000000000000000000000000000000000815250565b7f3c703e0000000000000000000000000000000000000000000000000000000000815250565b7f4120636f6e74726163742073686f772063757261746564206279200000000000815250565b7f3c6120687265663d220000000000000000000000000000000000000000000000815250565b7f22207461726765743d225f626c616e6b222072656c3d226e6f6f70656e65722060008201527f6e6f7265666572726572223e0000000000000000000000000000000000000000602082015250565b60006124dc602c83611c04565b91506124e782612480565b602c82019050919050565b7f3c2f613e3c62722f3e0000000000000000000000000000000000000000000000815250565b7f77697468207370656369616c207468616e6b7320746f20000000000000000000815250565b7f3c2f613e20616e64200000000000000000000000000000000000000000000000815250565b7f222072656c3d226e6f6f70656e6572206e6f726566657272657222207461726760008201527f65743d225f626c616e6b223e0000000000000000000000000000000000000000602082015250565b60006125c0602c83611c04565b91506125cb82612564565b602c82019050919050565b7f3c2f613e00000000000000000000000000000000000000000000000000000000815250565b7f3c62722f3e3c62722f3e00000000000000000000000000000000000000000000815250565b7f3c6120687265663d222f6573736179223e45737361793c2f613e206279203c6160008201527f20687265663d2200000000000000000000000000000000000000000000000000602082015250565b600061267e602783611c04565b915061268982612622565b602782019050919050565b7f3c2f703e3c6272202f3e3c6272202f3e00000000000000000000000000000000815250565b60006126c6828d611c0f565b91506126d182611ea0565b600c820191506126e0826121fa565b600e820191506126f0828c611c0f565b91506126fb82612220565b600b8201915061270a82611cb2565b60148201915061271982612295565b9150612724826122b8565b6012820191506127338261232d565b915061273e82612350565b60178201915061274d826123c5565b9150612758826123e8565b600c820191506127678261240e565b60038201915061277682612434565b601b820191506127858261245a565b600982019150612795828b611c0f565b91506127a0826124cf565b91506127ac828a611c0f565b91506127b7826124f2565b6009820191506127c682612518565b6017820191506127d58261245a565b6009820191506127e58289611c0f565b91506127f0826124cf565b91506127fc8288611c0f565b91506128078261253e565b6009820191506128168261245a565b6009820191506128268287611c0f565b9150612831826125b3565b915061283d8286611c0f565b9150612848826125d6565b600482019150612857826125fc565b600a8201915061286682612671565b91506128728285611c0f565b915061287d826124cf565b91506128898284611c0f565b9150612894826125d6565b6004820191506128a382612694565b6010820191508190509b9a5050505050505050505050565b7f3c6272202f3e3c2f6469763e0000000000000000000000000000000000000000815250565b7f3c64697620636c6173733d2270223ee286933c2f6469763e3c2f6469763e0000815250565b60006129138284611c0f565b915061291e826128bb565b600c8201915061292d826128e1565b601e8201915081905092915050565b7f3c64697620636c6173733d2277223e3c64697620636c6173733d2273223e0000815250565b7f3c2f6469763e3c2f6469763e0000000000000000000000000000000000000000815250565b60006129948285611c0f565b915061299f8261293c565b601e820191506129af8284611c0f565b91506129ba82612962565b600c820191508190509392505050565b60006129d68284611c0f565b91506129e18261293c565b601e8201915081905092915050565b7f3c68323e3c693e4d697373696e673c2f693e3c2f68323e000000000000000000815250565b6000612a228284611c0f565b9150612a2d826129f0565b60178201915081905092915050565b7f3c68323e00000000000000000000000000000000000000000000000000000000815250565b6000612a6e8284611c0f565b9150612a7982612a3c565b60048201915081905092915050565b7f3c2f68323e000000000000000000000000000000000000000000000000000000815250565b6000612aba8284611c0f565b9150612ac582612a88565b60058201915081905092915050565b7f3c68333e3c693e556e7469746c65643c2f693e3c2f68333e0000000000000000815250565b6000612b068284611c0f565b9150612b1182612ad4565b60188201915081905092915050565b7f3c68333e3c693e00000000000000000000000000000000000000000000000000815250565b7f3c2f693e3c2f68333e0000000000000000000000000000000000000000000000815250565b6000612b788285611c0f565b9150612b8382612b20565b600782019150612b938284611c0f565b9150612b9e82612b46565b6009820191508190509392505050565b7f3c703e3c7370616e20636c6173733d2761273e00000000000000000000000000815250565b7f3c2f7370616e3e3c2f703e000000000000000000000000000000000000000000815250565b6000612c068285611c0f565b9150612c1182612bae565b601382019150612c218284611c0f565b9150612c2c82612bd4565b600b820191508190509392505050565b6000612c488284611c0f565b9150612c538261240e565b60038201915081905092915050565b7f3c7370616e20636c6173733d2261223e00000000000000000000000000000000815250565b7f3c2f7370616e3e3c62722f3e0000000000000000000000000000000000000000815250565b6000612cba8285611c0f565b9150612cc582612c62565b601082019150612cd58284611c0f565b9150612ce082612c88565b600c820191508190509392505050565b7f3c2f703e00000000000000000000000000000000000000000000000000000000815250565b6000612d228284611c0f565b9150612d2d82612cf0565b60048201915081905092915050565b7f3c64697620636c6173733d2274223e3c693e436f6e747261637420526576657260008201527f7465643c2f693e3c2f6469763e00000000000000000000000000000000000000602082015250565b6000612d98602d83611c04565b9150612da382612d3c565b602d82019050919050565b6000612dba8284611c0f565b9150612dc582612d8b565b915081905092915050565b7f3c64697620636c6173733d2274223e0000000000000000000000000000000000815250565b7f3c2f6469763e0000000000000000000000000000000000000000000000000000815250565b6000612e288285611c0f565b9150612e3382612dd0565b600f82019150612e438284611c0f565b9150612e4e82612df6565b6006820191508190509392505050565b6000612e6a8284611c0f565b9150612e7582612962565b600c8201915081905092915050565b612e8d8161182c565b82525050565b6000602082019050612ea86000830184612e84565b92915050565b6000612eba8285611c0f565b9150612ec68284611c0f565b91508190509392505050565b7f3c64697620636c6173733d2269223e47656e65726174656420696e20626c6f6360008201527f6b20000000000000000000000000000000000000000000000000000000000000602082015250565b6000612f2e602283611c04565b9150612f3982612ed2565b602282019050919050565b7f2066726f6d203c7370616e20636c6173733d2261223e00000000000000000000815250565b7f3c7370616e3e3c2f6469763e0000000000000000000000000000000000000000815250565b6000612f9c8286611c0f565b9150612fa782612f21565b9150612fb38285611c0f565b9150612fbe82612f44565b601682019150612fce8284611c0f565b9150612fd982612f6a565b600c82019150819050949350505050565b6000612ff68284611c0f565b915061300182612df6565b60068201915081905092915050565b7f3c73637269707420747970653d226d6f64756c65223e00000000000000000000815250565b7f696d706f7274207b2067657444656661756c7450726f76696465722c2069734160008201527f646472657373207d2066726f6d202268747470733a2f2f63646e2e6a7364656c60208201527f6976722e6e65742f6e706d2f65746865727340362e31332e342f2b65736d223b604082015250565b60006130b8606083611c04565b91506130c382613036565b606082019050919050565b7f636f6e73742070726f7669646572203d206e65772067657444656661756c745060008201527f726f766964657228293b00000000000000000000000000000000000000000000602082015250565b600061312a602a83611c04565b9150613135826130ce565b602a82019050919050565b7f6173796e632066756e6374696f6e207265736f6c7665456e732829207b000000815250565b7f202020636f6e737420726573756c74203d2061776169742050726f6d6973652e60008201527f616c6c2800000000000000000000000000000000000000000000000000000000602082015250565b60006131c2602483611c04565b91506131cd82613166565b602482019050919050565b7f41727261792e66726f6d28646f63756d656e742e717565727953656c6563746f60008201527f72416c6c28222e616464726573732229292e6d6170286173796e632028656c2960208201527f203d3e207b000000000000000000000000000000000000000000000000000000604082015250565b600061325a604583611c04565b9150613265826131d8565b604582019050919050565b7f636f6e73742061646472657373203d20656c2e74657874436f6e74656e743b00815250565b7f6966202821697341646472657373286164647265737329292072657475726e2060008201527f616464726573733b000000000000000000000000000000000000000000000000602082015250565b60006132f2602883611c04565b91506132fd82613296565b602882019050919050565b7f636f6e7374206e616d65203d2061776169742070726f76696465722e6c6f6f6b60008201527f7570416464726573732861646472657373293b00000000000000000000000000602082015250565b6000613364603383611c04565b915061336f82613308565b603382019050919050565b7f696620286e616d652920656c2e74657874436f6e74656e74203d206e616d653b815250565b7f72657475726e206e616d65207c7c20616464726573733b000000000000000000815250565b7f7d29000000000000000000000000000000000000000000000000000000000000815250565b7f293b7d0000000000000000000000000000000000000000000000000000000000815250565b7f7265736f6c7665456e7328293b00000000000000000000000000000000000000815250565b7f77696e646f772e7265736f6c7665456e73203d207265736f6c7665456e733b00815250565b7f3c2f7363726970743e0000000000000000000000000000000000000000000000815250565b60006134908284611c0f565b915061349b82613010565b6016820191506134aa826130ab565b91506134b58261311d565b91506134c082613140565b601d820191506134cf826131b5565b91506134da8261324d565b91506134e582613270565b601f820191506134f4826132e5565b91506134ff82613357565b915061350a8261337a565b602082019150613519826133a0565b601782019150613528826133c6565b600282019150613537826133ec565b60038201915061354682613412565b600d8201915061355582613438565b601f820191506135648261345e565b60098201915081905092915050565b6000604082019050818103600083015261358d8185611914565b905081810360208301526135a18184611914565b90509392505050565b60006135b58261245a565b6009820191506135c58285611c0f565b91506135d0826124cf565b91506135dc8284611c0f565b91506135e7826125d6565b6004820191508190509392505050565b6000819050919050565b7f4e487b7100000000000000000000000000000000000000000000000000000000600052601160045260246000fd5b600061363b826135f7565b9150613646836135f7565b925082820390508181111561365e5761365d613601565b5b92915050565b600061366f826135f7565b915061367a836135f7565b925082820190508082111561369257613691613601565b5b9291505056fea264697066735822122087a8551272cab63a0e5a8dbf1c91a38dc04dbb09ae7d5c5b84732119e0b76cd464736f6c634300081c0033",
  "deployedBytecode": "0x73000000000000000000000000000000000000000030146080604052600436106100355760003560e01c80634b1f91571461003a575b600080fd5b610054600480360381019061004f919061186a565b61006a565b604051610061919061194d565b60405180910390f35b606060008473ffffffffffffffffffffffffffffffffffffffff166355735c5e6040518163ffffffff1660e01b8152600401600060405180830381865afa1580156100b9573d6000803e3d6000fd5b505050506040513d6000823e3d601f19601f820116820180604052508101906100e29190611acc565b9050818573ffffffffffffffffffffffffffffffffffffffff16634a79d50c6040518163ffffffff1660e01b8152600401600060405180830381865afa158015610130573d6000803e3d6000fd5b505050506040513d6000823e3d601f19601f820116820180604052508101906101599190611bbb565b60405160200161016a929190611f12565b604051602081830303815290604052915060005b81518110156102925781818151811061019a57610199611ffc565b5b602002602001015173ffffffffffffffffffffffffffffffffffffffff166328411ae16040518163ffffffff1660e01b8152600401600060405180830381865afa92505050801561020e57506040513d6000823e3d601f19601f8201168201806040525081019061020b919061210c565b60015b6102395782604051602001610223919061217b565b6040516020818303038152906040529250610285565b60008151111561028357838160008151811061025857610257611ffc565b5b60200260200101516040516020016102719291906121c7565b60405160208183030381529060405293505b505b808060010191505061017e565b508161029d86610f88565b8473ffffffffffffffffffffffffffffffffffffffff166322e032766040518163ffffffff1660e01b8152600401600060405180830381865afa1580156102e8573d6000803e3d6000fd5b505050506040513d6000823e3d601f19601f820116820180604052508101906103119190611bbb565b8573ffffffffffffffffffffffffffffffffffffffff16635fb4ed2a6040518163ffffffff1660e01b8152600401600060405180830381865afa15801561035c573d6000803e3d6000fd5b505050506040513d6000823e3d601f19601f820116820180604052508101906103859190611bbb565b8673ffffffffffffffffffffffffffffffffffffffff1663beb469e56040518163ffffffff1660e01b8152600401600060405180830381865afa1580156103d0573d6000803e3d6000fd5b505050506040513d6000823e3d601f19601f820116820180604052508101906103f99190611bbb565b8773ffffffffffffffffffffffffffffffffffffffff1663265724906040518163ffffffff1660e01b8152600401600060405180830381865afa158015610444573d6000803e3d6000fd5b505050506040513d6000823e3d601f19601f8201168201806040525081019061046d9190611bbb565b8873ffffffffffffffffffffffffffffffffffffffff16631ed7fd296040518163ffffffff1660e01b8152600401600060405180830381865afa1580156104b8573d6000803e3d6000fd5b505050506040513d6000823e3d601f19601f820116820180604052508101906104e19190611bbb565b8973ffffffffffffffffffffffffffffffffffffffff16638951695d6040518163ffffffff1660e01b8152600401600060405180830381865afa15801561052c573d6000803e3d6000fd5b505050506040513d6000823e3d601f19601f820116820180604052508101906105559190611bbb565b8a73ffffffffffffffffffffffffffffffffffffffff1663ba2978ac6040518163ffffffff1660e01b8152600401600060405180830381865afa1580156105a0573d6000803e3d6000fd5b505050506040513d6000823e3d601f19601f820116820180604052508101906105c99190611bbb565b8b73ffffffffffffffffffffffffffffffffffffffff1663ede749bd6040518163ffffffff1660e01b8152600401600060405180830381865afa158015610614573d6000803e3d6000fd5b505050506040513d6000823e3d601f19601f8201168201806040525081019061063d9190611bbb565b6040516020016106569a999897969594939291906126ba565b6040516020818303038152906040529150816040516020016106789190612907565b6040516020818303038152906040529150818573ffffffffffffffffffffffffffffffffffffffff16631f1bd6926040518163ffffffff1660e01b8152600401600060405180830381865afa1580156106d5573d6000803e3d6000fd5b505050506040513d6000823e3d601f19601f820116820180604052508101906106fe9190611bbb565b60405160200161070f929190612988565b604051602081830303815290604052915060005b8151811015610d7157600082828151811061074157610740611ffc565b5b602002602001015190508360405160200161075c91906129ca565b60405160208183030381529060405293508073ffffffffffffffffffffffffffffffffffffffff166328411ae16040518163ffffffff1660e01b8152600401600060405180830381865afa9250505080156107da57506040513d6000823e3d601f19601f820116820180604052508101906107d7919061210c565b60015b61080557836040516020016107ef9190612a16565b60405160208183030381529060405293506108d3565b6000815111156108d157846040516020016108209190612a62565b604051602081830303815290604052945060005b81518110156108ad57600082828151811061085257610851611ffc565b5b60200260200101515103156108a0578582828151811061087557610874611ffc565b5b602002602001015160405160200161088e9291906121c7565b60405160208183030381529060405295505b8080600101915050610834565b50846040516020016108bf9190612aae565b60405160208183030381529060405294505b505b8073ffffffffffffffffffffffffffffffffffffffff16634a79d50c6040518163ffffffff1660e01b8152600401600060405180830381865afa92505050801561094057506040513d6000823e3d601f19601f8201168201806040525081019061093d9190611bbb565b60015b61096b57836040516020016109559190612afa565b60405160208183030381529060405293506109c3565b60008151111561099e578481604051602001610988929190612b6c565b60405160208183030381529060405294506109c1565b846040516020016109af9190612afa565b60405160208183030381529060405294505b505b8073ffffffffffffffffffffffffffffffffffffffff1663da0321cd6040518163ffffffff1660e01b8152600401600060405180830381865afa925050508015610a3057506040513d6000823e3d601f19601f82011682018060405250810190610a2d9190611acc565b60015b610a7f5783610a58848481518110610a4b57610a4a611ffc565b5b6020026020010151610f88565b604051602001610a69929190612bfa565b6040516020818303038152906040529350610b30565b600081511115610b2e5784604051602001610a9a9190612c3c565b604051602081830303815290604052945060005b8151811015610b0a5785610adb838381518110610ace57610acd611ffc565b5b6020026020010151610f88565b604051602001610aec929190612cae565b60405160208183030381529060405295508080600101915050610aae565b5084604051602001610b1c9190612d16565b60405160208183030381529060405294505b505b8073ffffffffffffffffffffffffffffffffffffffff16632c73dc4a6040518163ffffffff1660e01b8152600401600060405180830381865afa925050508015610b9d57506040513d6000823e3d601f19601f82011682018060405250810190610b9a919061210c565b60015b15610c7857600081511115610c765784604051602001610bbd9190612c3c565b604051602081830303815290604052945060005b8151811015610c52576000828281518110610bef57610bee611ffc565b5b6020026020010151510315610c455785610c22838381518110610c1557610c14611ffc565b5b6020026020010151611002565b604051602001610c339291906121c7565b60405160208183030381529060405295505b8080600101915050610bd1565b5084604051602001610c649190612d16565b60405160208183030381529060405294505b505b8073ffffffffffffffffffffffffffffffffffffffff16631f1bd6926040518163ffffffff1660e01b8152600401600060405180830381865afa925050508015610ce557506040513d6000823e3d601f19601f82011682018060405250810190610ce29190611bbb565b60015b610d105783604051602001610cfa9190612dae565b6040516020818303038152906040529350610d41565b600081511115610d3f578481604051602001610d2d929190612e1c565b60405160208183030381529060405294505b505b83604051602001610d529190612e5e565b6040516020818303038152906040529350508080600101915050610723565b508173__$ca51aa8e2edcae42c91725d8ecb472c6ac$__63ec34c7a8876040518263ffffffff1660e01b8152600401610daa9190612e93565b600060405180830381865af4158015610dc7573d6000803e3d6000fd5b505050506040513d6000823e3d601f19601f82011682018060405250810190610df09190611bbb565b604051602001610e01929190612eae565b604051602081830303815290604052915081610e1c4361103b565b610e2530610f88565b604051602001610e3793929190612f90565b604051602081830303815290604052915081604051602001610e599190612fea565b604051602081830303815290604052915081604051602001610e7b9190613484565b604051602081830303815290604052915073__$705ec615c2bf63f1eb4a27fa032a340997$__63125a507b838773ffffffffffffffffffffffffffffffffffffffff16634a79d50c6040518163ffffffff1660e01b8152600401600060405180830381865afa158015610ef2573d6000803e3d6000fd5b505050506040513d6000823e3d601f19601f82011682018060405250810190610f1b9190611bbb565b6040518363ffffffff1660e01b8152600401610f38929190613573565b600060405180830381865af4158015610f55573d6000803e3d6000fd5b505050506040513d6000823e3d601f19601f82011682018060405250810190610f7e9190611bbb565b9150509392505050565b6060610f938261108c565b905060ff6000190460061b60228201816022026028822016608860f01b60005b600115610fd25782811a82028182015260018101905060148103610fb3575b50838351166000511660011c8351188352602083019250838351166020511660011c835118835250505050919050565b6060600061100f836110b2565b905082816040516020016110249291906135aa565b604051602081830303815290604052915050919050565b60606080604051019050602081016040526000815280600019835b600115611077578184019350600a81066030018453600a8104905080611056575b50828203602084039350808452505050919050565b606061109782611775565b90506002815101613078825260028203915080825250919050565b606060008290506000815190506000808290506005831015801561113557507f64000000000000000000000000000000000000000000000000000000000000008460008151811061110657611105611ffc565b5b602001015160f81c60f81b7effffffffffffffffffffffffffffffffffffffffffffffffffffffffffffff1916145b80156111a057507f61000000000000000000000000000000000000000000000000000000000000008460018151811061117157611170611ffc565b5b602001015160f81c60f81b7effffffffffffffffffffffffffffffffffffffffffffffffffffffffffffff1916145b801561120b57507f7400000000000000000000000000000000000000000000000000000000000000846002815181106111dc576111db611ffc565b5b602001015160f81c60f81b7effffffffffffffffffffffffffffffffffffffffffffffffffffffffffffff1916145b801561127657507f61000000000000000000000000000000000000000000000000000000000000008460038151811061124757611246611ffc565b5b602001015160f81c60f81b7effffffffffffffffffffffffffffffffffffffffffffffffffffffffffffff1916145b80156112e157507f3a00000000000000000000000000000000000000000000000000000000000000846004815181106112b2576112b1611ffc565b5b602001015160f81c60f81b7effffffffffffffffffffffffffffffffffffffffffffffffffffffffffffff1916145b15611376576000600590505b83811015611370577f2c0000000000000000000000000000000000000000000000000000000000000085828151811061132957611328611ffc565b5b602001015160f81c60f81b7effffffffffffffffffffffffffffffffffffffffffffffffffffffffffffff19160361136357809150611370565b80806001019150506112ed565b50611685565b60005b6002846113869190613630565b811015611501577f3a000000000000000000000000000000000000000000000000000000000000008582815181106113c1576113c0611ffc565b5b602001015160f81c60f81b7effffffffffffffffffffffffffffffffffffffffffffffffffffffffffffff191614801561146557507f2f00000000000000000000000000000000000000000000000000000000000000856001836114259190613664565b8151811061143657611435611ffc565b5b602001015160f81c60f81b7effffffffffffffffffffffffffffffffffffffffffffffffffffffffffffff1916145b80156114db57507f2f000000000000000000000000000000000000000000000000000000000000008560028361149b9190613664565b815181106114ac576114ab611ffc565b5b602001015160f81c60f81b7effffffffffffffffffffffffffffffffffffffffffffffffffffffffffffff1916145b156114f4576003816114ed9190613664565b9250611501565b8080600101915050611379565b5060008290505b838110156115f5577f3f0000000000000000000000000000000000000000000000000000000000000085828151811061154457611543611ffc565b5b602001015160f81c60f81b7effffffffffffffffffffffffffffffffffffffffffffffffffffffffffffff191614806115db57507f23000000000000000000000000000000000000000000000000000000000000008582815181106115ac576115ab611ffc565b5b602001015160f81c60f81b7effffffffffffffffffffffffffffffffffffffffffffffffffffffffffffff1916145b156115e8578091506115f5565b8080600101915050611508565b50818111801561166f57507f2f000000000000000000000000000000000000000000000000000000000000008460018361162f9190613630565b815181106116405761163f611ffc565b5b602001015160f81c60f81b7effffffffffffffffffffffffffffffffffffffffffffffffffffffffffffff1916145b15611684576001816116819190613630565b90505b5b600082826116939190613630565b67ffffffffffffffff8111156116ac576116ab611974565b5b6040519080825280601f01601f1916602001820160405280156116de5781602001600182028036833780820191505090505b50905060008390505b828110156117675785818151811061170257611701611ffc565b5b602001015160f81c60f81b82858361171a9190613630565b8151811061172b5761172a611ffc565b5b60200101907effffffffffffffffffffffffffffffffffffffffffffffffffffffffffffff1916908160001a90535080806001019150506116e7565b508095505050505050919050565b60606040519050608081016040526f30313233343536373839616263646566600f526002810190506028815260208101600060288201528260601b925060005b6001156117f157808101820184821a600f81165160018301538060041c518253600183019250601483036117ea5750506117f1565b50506117b5565b5050919050565b6000604051905090565b600080fd5b600080fd5b600073ffffffffffffffffffffffffffffffffffffffff82169050919050565b60006118378261180c565b9050919050565b6118478161182c565b811461185257600080fd5b50565b6000813590506118648161183e565b92915050565b60008060006060848603121561188357611882611802565b5b600061189186828701611855565b93505060206118a286828701611855565b92505060406118b386828701611855565b9150509250925092565b600081519050919050565b600082825260208201905092915050565b60005b838110156118f75780820151818401526020810190506118dc565b60008484015250505050565b6000601f19601f8301169050919050565b600061191f826118bd565b61192981856118c8565b93506119398185602086016118d9565b61194281611903565b840191505092915050565b600060208201905081810360008301526119678184611914565b905092915050565b600080fd5b7f4e487b7100000000000000000000000000000000000000000000000000000000600052604160045260246000fd5b6119ac82611903565b810181811067ffffffffffffffff821117156119cb576119ca611974565b5b80604052505050565b60006119de6117f8565b90506119ea82826119a3565b919050565b600067ffffffffffffffff821115611a0a57611a09611974565b5b602082029050602081019050919050565b600080fd5b600081519050611a2f8161183e565b92915050565b6000611a48611a43846119ef565b6119d4565b90508083825260208201905060208402830185811115611a6b57611a6a611a1b565b5b835b81811015611a945780611a808882611a20565b845260208401935050602081019050611a6d565b5050509392505050565b600082601f830112611ab357611ab261196f565b5b8151611ac3848260208601611a35565b91505092915050565b600060208284031215611ae257611ae1611802565b5b600082015167ffffffffffffffff811115611b0057611aff611807565b5b611b0c84828501611a9e565b91505092915050565b600080fd5b600067ffffffffffffffff821115611b3557611b34611974565b5b611b3e82611903565b9050602081019050919050565b6000611b5e611b5984611b1a565b6119d4565b905082815260208101848484011115611b7a57611b79611b15565b5b611b858482856118d9565b509392505050565b600082601f830112611ba257611ba161196f565b5b8151611bb2848260208601611b4b565b91505092915050565b600060208284031215611bd157611bd0611802565b5b600082015167ffffffffffffffff811115611bef57611bee611807565b5b611bfb84828501611b8d565b91505092915050565b600081905092915050565b6000611c1a826118bd565b611c248185611c04565b9350611c348185602086016118d9565b80840191505092915050565b7f3c64697620636c6173733d2263223e0000000000000000000000000000000000815250565b7f3c64697620636c6173733d2277223e0000000000000000000000000000000000815250565b7f3c64697620636c6173733d22732067223e000000000000000000000000000000815250565b7f3c70726520636c6173733d2267617264656e223e000000000000000000000000815250565b7f20202020202020e29a982020202020202020202020202020202020202020e29a60008201527f980a000000000000000000000000000000000000000000000000000000000000602082015250565b6000611d34602283611c04565b9150611d3f82611cd8565b602282019050919050565b7f20202020202020202020202020e29a980a000000000000000000000000000000815250565b7fe29a982020202020202020202020202020202020202020202020e29a9820202060008201527f202020202020e29a980a00000000000000000000000000000000000000000000602082015250565b6000611dcc602a83611c04565b9150611dd782611d70565b602a82019050919050565b7f2020202020202020e29a98202020202020202020e29a980a0000000000000000815250565b7f202020e29a98202020202020202020202020202020202020202020202020202060008201527fe29a980a00000000000000000000000000000000000000000000000000000000602082015250565b6000611e64602483611c04565b9150611e6f82611e08565b602482019050919050565b7f3c2f7072653e0000000000000000000000000000000000000000000000000000815250565b7f3c6272202f3e3c6272202f3e0000000000000000000000000000000000000000815250565b7f3c68313e00000000000000000000000000000000000000000000000000000000815250565b7f3c2f68313e0a0000000000000000000000000000000000000000000000000000815250565b6000611f1e8285611c0f565b9150611f2982611c40565b600f82019150611f3882611c66565b600f82019150611f4782611c8c565b601182019150611f5682611cb2565b601482019150611f6582611d27565b9150611f7082611d4a565b601182019150611f7f82611dbf565b9150611f8a82611de2565b601882019150611f9982611e57565b9150611fa482611e7a565b600682019150611fb382611ea0565b600c82019150611fc282611ec6565b600482019150611fd28284611c0f565b9150611fdd82611eec565b600682019150611fec82611ea0565b600c820191508190509392505050565b7f4e487b7100000000000000000000000000000000000000000000000000000000600052603260045260246000fd5b600067ffffffffffffffff82111561204657612045611974565b5b602082029050602081019050919050565b600061206a6120658461202b565b6119d4565b9050808382526020820190506020840283018581111561208d5761208c611a1b565b5b835b818110156120d457805167ffffffffffffffff8111156120b2576120b161196f565b5b8086016120bf8982611b8d565b8552602085019450505060208101905061208f565b5050509392505050565b600082601f8301126120f3576120f261196f565b5b8151612103848260208601612057565b91505092915050565b60006020828403121561212257612121611802565b5b600082015167ffffffffffffffff8111156121405761213f611807565b5b61214c848285016120de565b91505092915050565b7f4d697373696e673c62722f3e0000000000000000000000000000000000000000815250565b60006121878284611c0f565b915061219282612155565b600c8201915081905092915050565b7f3c62722f3e000000000000000000000000000000000000000000000000000000815250565b60006121d38285611c0f565b91506121df8284611c0f565b91506121ea826121a1565b6005820191508190509392505050565b7f3c683220636c6173733d2261223e000000000000000000000000000000000000815250565b7f3c2f68323e3c6272202f3e000000000000000000000000000000000000000000815250565b7f202020202020e29a9820202020202020202020202020202020202020202020e260008201527f9a980a0000000000000000000000000000000000000000000000000000000000602082015250565b60006122a2602383611c04565b91506122ad82612246565b602382019050919050565b7f2020202020202020202020202020e29a980a0000000000000000000000000000815250565b7f20e29a98202020202020202020202020202020202020202020e29a982020202060008201527f2020202020e29a980a0000000000000000000000000000000000000000000000602082015250565b600061233a602983611c04565b9150612345826122de565b602982019050919050565b7f20202020202020202020e29a98202020202020e29a980a000000000000000000815250565b7f2020202020e29a98202020202020202020202020202020202020202020e29a9860008201527f0a00000000000000000000000000000000000000000000000000000000000000602082015250565b60006123d2602183611c04565b91506123dd82612376565b602182019050919050565b7f3c2f7072653e3c6272202f3e0000000000000000000000000000000000000000815250565b7f3c703e0000000000000000000000000000000000000000000000000000000000815250565b7f4120636f6e74726163742073686f772063757261746564206279200000000000815250565b7f3c6120687265663d220000000000000000000000000000000000000000000000815250565b7f22207461726765743d225f626c616e6b222072656c3d226e6f6f70656e65722060008201527f6e6f7265666572726572223e0000000000000000000000000000000000000000602082015250565b60006124dc602c83611c04565b91506124e782612480565b602c82019050919050565b7f3c2f613e3c62722f3e0000000000000000000000000000000000000000000000815250565b7f77697468207370656369616c207468616e6b7320746f20000000000000000000815250565b7f3c2f613e20616e64200000000000000000000000000000000000000000000000815250565b7f222072656c3d226e6f6f70656e6572206e6f726566657272657222207461726760008201527f65743d225f626c616e6b223e0000000000000000000000000000000000000000602082015250565b60006125c0602c83611c04565b91506125cb82612564565b602c82019050919050565b7f3c2f613e00000000000000000000000000000000000000000000000000000000815250565b7f3c62722f3e3c62722f3e00000000000000000000000000000000000000000000815250565b7f3c6120687265663d222f6573736179223e45737361793c2f613e206279203c6160008201527f20687265663d2200000000000000000000000000000000000000000000000000602082015250565b600061267e602783611c04565b915061268982612622565b602782019050919050565b7f3c2f703e3c6272202f3e3c6272202f3e00000000000000000000000000000000815250565b60006126c6828d611c0f565b91506126d182611ea0565b600c820191506126e0826121fa565b600e820191506126f0828c611c0f565b91506126fb82612220565b600b8201915061270a82611cb2565b60148201915061271982612295565b9150612724826122b8565b6012820191506127338261232d565b915061273e82612350565b60178201915061274d826123c5565b9150612758826123e8565b600c820191506127678261240e565b60038201915061277682612434565b601b820191506127858261245a565b600982019150612795828b611c0f565b91506127a0826124cf565b91506127ac828a611c0f565b91506127b7826124f2565b6009820191506127c682612518565b6017820191506127d58261245a565b6009820191506127e58289611c0f565b91506127f0826124cf565b91506127fc8288611c0f565b91506128078261253e565b6009820191506128168261245a565b6009820191506128268287611c0f565b9150612831826125b3565b915061283d8286611c0f565b9150612848826125d6565b600482019150612857826125fc565b600a8201915061286682612671565b91506128728285611c0f565b915061287d826124cf565b91506128898284611c0f565b9150612894826125d6565b6004820191506128a382612694565b6010820191508190509b9a5050505050505050505050565b7f3c6272202f3e3c2f6469763e0000000000000000000000000000000000000000815250565b7f3c64697620636c6173733d2270223ee286933c2f6469763e3c2f6469763e0000815250565b60006129138284611c0f565b915061291e826128bb565b600c8201915061292d826128e1565b601e8201915081905092915050565b7f3c64697620636c6173733d2277223e3c64697620636c6173733d2273223e0000815250565b7f3c2f6469763e3c2f6469763e0000000000000000000000000000000000000000815250565b60006129948285611c0f565b915061299f8261293c565b601e820191506129af8284611c0f565b91506129ba82612962565b600c820191508190509392505050565b60006129d68284611c0f565b91506129e18261293c565b601e8201915081905092915050565b7f3c68323e3c693e4d697373696e673c2f693e3c2f68323e000000000000000000815250565b6000612a228284611c0f565b9150612a2d826129f0565b60178201915081905092915050565b7f3c68323e00000000000000000000000000000000000000000000000000000000815250565b6000612a6e8284611c0f565b9150612a7982612a3c565b60048201915081905092915050565b7f3c2f68323e000000000000000000000000000000000000000000000000000000815250565b6000612aba8284611c0f565b9150612ac582612a88565b60058201915081905092915050565b7f3c68333e3c693e556e7469746c65643c2f693e3c2f68333e0000000000000000815250565b6000612b068284611c0f565b9150612b1182612ad4565b60188201915081905092915050565b7f3c68333e3c693e00000000000000000000000000000000000000000000000000815250565b7f3c2f693e3c2f68333e0000000000000000000000000000000000000000000000815250565b6000612b788285611c0f565b9150612b8382612b20565b600782019150612b938284611c0f565b9150612b9e82612b46565b6009820191508190509392505050565b7f3c703e3c7370616e20636c6173733d2761273e00000000000000000000000000815250565b7f3c2f7370616e3e3c2f703e000000000000000000000000000000000000000000815250565b6000612c068285611c0f565b9150612c1182612bae565b601382019150612c218284611c0f565b9150612c2c82612bd4565b600b820191508190509392505050565b6000612c488284611c0f565b9150612c538261240e565b60038201915081905092915050565b7f3c7370616e20636c6173733d2261223e00000000000000000000000000000000815250565b7f3c2f7370616e3e3c62722f3e0000000000000000000000000000000000000000815250565b6000612cba8285611c0f565b9150612cc582612c62565b601082019150612cd58284611c0f565b9150612ce082612c88565b600c820191508190509392505050565b7f3c2f703e00000000000000000000000000000000000000000000000000000000815250565b6000612d228284611c0f565b9150612d2d82612cf0565b60048201915081905092915050565b7f3c64697620636c6173733d2274223e3c693e436f6e747261637420526576657260008201527f7465643c2f693e3c2f6469763e00000000000000000000000000000000000000602082015250565b6000612d98602d83611c04565b9150612da382612d3c565b602d82019050919050565b6000612dba8284611c0f565b9150612dc582612d8b565b915081905092915050565b7f3c64697620636c6173733d2274223e0000000000000000000000000000000000815250565b7f3c2f6469763e0000000000000000000000000000000000000000000000000000815250565b6000612e288285611c0f565b9150612e3382612dd0565b600f82019150612e438284611c0f565b9150612e4e82612df6565b6006820191508190509392505050565b6000612e6a8284611c0f565b9150612e7582612962565b600c8201915081905092915050565b612e8d8161182c565b82525050565b6000602082019050612ea86000830184612e84565b92915050565b6000612eba8285611c0f565b9150612ec68284611c0f565b91508190509392505050565b7f3c64697620636c6173733d2269223e47656e65726174656420696e20626c6f6360008201527f6b20000000000000000000000000000000000000000000000000000000000000602082015250565b6000612f2e602283611c04565b9150612f3982612ed2565b602282019050919050565b7f2066726f6d203c7370616e20636c6173733d2261223e00000000000000000000815250565b7f3c7370616e3e3c2f6469763e0000000000000000000000000000000000000000815250565b6000612f9c8286611c0f565b9150612fa782612f21565b9150612fb38285611c0f565b9150612fbe82612f44565b601682019150612fce8284611c0f565b9150612fd982612f6a565b600c82019150819050949350505050565b6000612ff68284611c0f565b915061300182612df6565b60068201915081905092915050565b7f3c73637269707420747970653d226d6f64756c65223e00000000000000000000815250565b7f696d706f7274207b2067657444656661756c7450726f76696465722c2069734160008201527f646472657373207d2066726f6d202268747470733a2f2f63646e2e6a7364656c60208201527f6976722e6e65742f6e706d2f65746865727340362e31332e342f2b65736d223b604082015250565b60006130b8606083611c04565b91506130c382613036565b606082019050919050565b7f636f6e73742070726f7669646572203d206e65772067657444656661756c745060008201527f726f766964657228293b00000000000000000000000000000000000000000000602082015250565b600061312a602a83611c04565b9150613135826130ce565b602a82019050919050565b7f6173796e632066756e6374696f6e207265736f6c7665456e732829207b000000815250565b7f202020636f6e737420726573756c74203d2061776169742050726f6d6973652e60008201527f616c6c2800000000000000000000000000000000000000000000000000000000602082015250565b60006131c2602483611c04565b91506131cd82613166565b602482019050919050565b7f41727261792e66726f6d28646f63756d656e742e717565727953656c6563746f60008201527f72416c6c28222e616464726573732229292e6d6170286173796e632028656c2960208201527f203d3e207b000000000000000000000000000000000000000000000000000000604082015250565b600061325a604583611c04565b9150613265826131d8565b604582019050919050565b7f636f6e73742061646472657373203d20656c2e74657874436f6e74656e743b00815250565b7f6966202821697341646472657373286164647265737329292072657475726e2060008201527f616464726573733b000000000000000000000000000000000000000000000000602082015250565b60006132f2602883611c04565b91506132fd82613296565b602882019050919050565b7f636f6e7374206e616d65203d2061776169742070726f76696465722e6c6f6f6b60008201527f7570416464726573732861646472657373293b00000000000000000000000000602082015250565b6000613364603383611c04565b915061336f82613308565b603382019050919050565b7f696620286e616d652920656c2e74657874436f6e74656e74203d206e616d653b815250565b7f72657475726e206e616d65207c7c20616464726573733b000000000000000000815250565b7f7d29000000000000000000000000000000000000000000000000000000000000815250565b7f293b7d0000000000000000000000000000000000000000000000000000000000815250565b7f7265736f6c7665456e7328293b00000000000000000000000000000000000000815250565b7f77696e646f772e7265736f6c7665456e73203d207265736f6c7665456e733b00815250565b7f3c2f7363726970743e0000000000000000000000000000000000000000000000815250565b60006134908284611c0f565b915061349b82613010565b6016820191506134aa826130ab565b91506134b58261311d565b91506134c082613140565b601d820191506134cf826131b5565b91506134da8261324d565b91506134e582613270565b601f820191506134f4826132e5565b91506134ff82613357565b915061350a8261337a565b602082019150613519826133a0565b601782019150613528826133c6565b600282019150613537826133ec565b60038201915061354682613412565b600d8201915061355582613438565b601f820191506135648261345e565b60098201915081905092915050565b6000604082019050818103600083015261358d8185611914565b905081810360208301526135a18184611914565b90509392505050565b60006135b58261245a565b6009820191506135c58285611c0f565b91506135d0826124cf565b91506135dc8284611c0f565b91506135e7826125d6565b6004820191508190509392505050565b6000819050919050565b7f4e487b7100000000000000000000000000000000000000000000000000000000600052601160045260246000fd5b600061363b826135f7565b9150613646836135f7565b925082820390508181111561365e5761365d613601565b5b92915050565b600061366f826135f7565b915061367a836135f7565b925082820190508082111561369257613691613601565b5b9291505056fea264697066735822122087a8551272cab63a0e5a8dbf1c91a38dc04dbb09ae7d5c5b84732119e0b76cd464736f6c634300081c0033",
  "libraries": {
    "GardenHTML": "0xdE9e7d851c92367A5E520CA106F5f717D5A1e7A0",
    "GardenContributions": "0x8C31E1C425f29D2fEA1F1e339198182c5B63Ab5a"
  },
  "devdoc": {
    "kind": "dev",
    "methods": {},
    "version": 1
  },
  "userdoc": {
    "kind": "user",
    "methods": {},
    "version": 1
  },
  "storageLayout": {
    "storage": [],
    "types": null
  }
}