{
  "address": "0x54E5BA3B29Ed16166504f41F81161Eec628248C9",
  "abi": [
    {
      "inputs": [
        {
          "internalType": "address",
          "name": "_garden",
          "type": "address"
        }
      ],
      "stateMutability": "nonpayable",
      "type": "constructor"
    },
    {
      "inputs": [],
      "name": "garden",
      "outputs": [
        {
          "internalType": "address",
          "name": "",
          "type": "address"
        }
      ],
      "stateMutability": "view",
      "type": "function"
    },
    {
      "inputs": [],
      "name": "html",
      "outputs": [
        {
          "internalType": "string",
          "name": "",
          "type": "string"
        }
      ],
      "stateMutability": "view",
      "type": "function"
    }
  ],
  "transactionHash": "0x2e2bc648584369a5a2d84a596c0c921cc9d1af2a4a293b06d6903c86b25d4e6d",
  "args": [
    "0x7e2c9fB6C397d033db5Ced337356e1E547F29914"
  ],
  "numDeployments": 5,
  "solcInputHash": "e9ffcf4035d7670118d30bc46f58ae3e",
  "bytecode": "0x60a060405234801561001057600080fd5b50604051612e58380380612e58833981810160405281019061003291906100cf565b8073ffffffffffffffffffffffffffffffffffffffff1660808173ffffffffffffffffffffffffffffffffffffffff1681525050506100fc565b600080fd5b600073ffffffffffffffffffffffffffffffffffffffff82169050919050565b600061009c82610071565b9050919050565b6100ac81610091565b81146100b757600080fd5b50565b6000815190506100c9816100a3565b92915050565b6000602082840312156100e5576100e461006c565b5b60006100f3848285016100ba565b91505092915050565b608051612d2d61012b60003960008181607d0152818161014e015281816102050152610a050152612d2d6000f3fe608060405234801561001057600080fd5b50600436106100365760003560e01c806333c34ac31461003b57806356ba88b814610059575b600080fd5b610043610077565b6040516100509190610ffb565b60405180910390f35b610061610a03565b60405161006e919061105e565b60405180910390f35b606060007f000000000000000000000000000000000000000000000000000000000000000073ffffffffffffffffffffffffffffffffffffffff166355735c5e6040518163ffffffff1660e01b8152600401600060405180830381865afa1580156100e6573d6000803e3d6000fd5b505050506040513d6000823e3d601f19601f8201168201806040525081019061010f9190611201565b905060006040518060400160405280600681526020017f3c68746d6c3e00000000000000000000000000000000000000000000000000008152509050807f000000000000000000000000000000000000000000000000000000000000000073ffffffffffffffffffffffffffffffffffffffff16634a79d50c6040518163ffffffff1660e01b8152600401600060405180830381865afa1580156101b7573d6000803e3d6000fd5b505050506040513d6000823e3d601f19601f820116820180604052508101906101e091906112f0565b6040516020016101f1929190611b2d565b6040516020818303038152906040529050807f000000000000000000000000000000000000000000000000000000000000000073ffffffffffffffffffffffffffffffffffffffff16634a79d50c6040518163ffffffff1660e01b8152600401600060405180830381865afa15801561026e573d6000803e3d6000fd5b505050506040513d6000823e3d601f19601f8201168201806040525081019061029791906112f0565b6040516020016102a8929190611f1f565b604051602081830303815290604052905060005b82518110156103af5760008382815181106102da576102d9612009565b5b602002602001015173ffffffffffffffffffffffffffffffffffffffff166328411ae16040518163ffffffff1660e01b8152600401600060405180830381865afa15801561032c573d6000803e3d6000fd5b505050506040513d6000823e3d601f19601f820116820180604052508101906103559190612119565b90506000815111156103a157828160008151811061037657610375612009565b5b602002602001015160405160200161038f929190612188565b60405160208183030381529060405292505b5080806001019150506102bc565b50806040516020016103c191906125bd565b6040516020818303038152906040529050806040516020016103e391906126d6565b604051602081830303815290604052905060005b82518110156109a257600083828151811061041557610414612009565b5b6020026020010151905060008173ffffffffffffffffffffffffffffffffffffffff16634a79d50c6040518163ffffffff1660e01b8152600401600060405180830381865afa15801561046c573d6000803e3d6000fd5b505050506040513d6000823e3d601f19601f8201168201806040525081019061049591906112f0565b9050836040516020016104a89190612731565b604051602081830303815290604052935060008273ffffffffffffffffffffffffffffffffffffffff166328411ae16040518163ffffffff1660e01b8152600401600060405180830381865afa158015610506573d6000803e3d6000fd5b505050506040513d6000823e3d601f19601f8201168201806040525081019061052f9190612119565b90506000815111156105fd578460405160200161054c919061277d565b604051602081830303815290604052945060005b81518110156105d957600082828151811061057e5761057d612009565b5b60200260200101515103156105cc57858282815181106105a1576105a0612009565b5b60200260200101516040516020016105ba929190612188565b60405160208183030381529060405295505b8080600101915050610560565b50846040516020016105eb91906127c9565b60405160208183030381529060405294505b60008251111561063057848260405160200161061a92919061283b565b6040516020818303038152906040529450610653565b8460405160200161064191906128a3565b60405160208183030381529060405294505b60008373ffffffffffffffffffffffffffffffffffffffff1663da0321cd6040518163ffffffff1660e01b8152600401600060405180830381865afa1580156106a0573d6000803e3d6000fd5b505050506040513d6000823e3d601f19601f820116820180604052508101906106c99190611201565b905060008151111561077a57856040516020016106e691906128e7565b604051602081830303815290604052955060005b8151811015610756578661072783838151811061071a57610719612009565b5b6020026020010151610a27565b604051602001610738929190612188565b604051602081830303815290604052965080806001019150506106fa565b5085604051602001610768919061290d565b60405160208183030381529060405295505b60008473ffffffffffffffffffffffffffffffffffffffff16632c73dc4a6040518163ffffffff1660e01b8152600401600060405180830381865afa1580156107c7573d6000803e3d6000fd5b505050506040513d6000823e3d601f19601f820116820180604052508101906107f09190612119565b90506000815111156108c6578660405160200161080d91906128e7565b604051602081830303815290604052965060005b81518110156108a257600082828151811061083f5761083e612009565b5b6020026020010151510315610895578761087283838151811061086557610864612009565b5b6020026020010151610a4d565b604051602001610883929190612188565b60405160208183030381529060405297505b8080600101915050610821565b50866040516020016108b4919061290d565b60405160208183030381529060405296505b60008573ffffffffffffffffffffffffffffffffffffffff16631f1bd6926040518163ffffffff1660e01b8152600401600060405180830381865afa158015610913573d6000803e3d6000fd5b505050506040513d6000823e3d601f19601f8201168201806040525081019061093c91906112f0565b905060008151111561096d57878160405160200161095b92919061297f565b60405160208183030381529060405297505b8760405160200161097e91906129c1565b604051602081830303815290604052975050505050505080806001019150506103f7565b50806109ad43610a86565b6109b642610a86565b6040516020016109c893929190612aa5565b6040516020818303038152906040529050806040516020016109ea9190612b25565b6040516020818303038152906040529050809250505090565b7f000000000000000000000000000000000000000000000000000000000000000081565b6060610a3282610ad7565b90506002815101613078825260028203915080825250919050565b60606000610a5a83610b5a565b90508281604051602001610a6f929190612c09565b604051602081830303815290604052915050919050565b60606080604051019050602081016040526000815280600019835b600115610ac2578184019350600a81066030018453600a8104905080610aa1575b50828203602084039350808452505050919050565b60606040519050608081016040526f30313233343536373839616263646566600f526002810190506028815260208101600060288201528260601b925060005b600115610b5357808101820184821a600f81165160018301538060041c51825360018301925060148303610b4c575050610b53565b5050610b17565b5050919050565b6060600082905060008151905060008082905060005b600284610b7d9190612c8f565b811015610cf8577f3a00000000000000000000000000000000000000000000000000000000000000858281518110610bb857610bb7612009565b5b602001015160f81c60f81b7effffffffffffffffffffffffffffffffffffffffffffffffffffffffffffff1916148015610c5c57507f2f0000000000000000000000000000000000000000000000000000000000000085600183610c1c9190612cc3565b81518110610c2d57610c2c612009565b5b602001015160f81c60f81b7effffffffffffffffffffffffffffffffffffffffffffffffffffffffffffff1916145b8015610cd257507f2f0000000000000000000000000000000000000000000000000000000000000085600283610c929190612cc3565b81518110610ca357610ca2612009565b5b602001015160f81c60f81b7effffffffffffffffffffffffffffffffffffffffffffffffffffffffffffff1916145b15610ceb57600381610ce49190612cc3565b9250610cf8565b8080600101915050610b70565b5060008290505b83811015610dec577f3f00000000000000000000000000000000000000000000000000000000000000858281518110610d3b57610d3a612009565b5b602001015160f81c60f81b7effffffffffffffffffffffffffffffffffffffffffffffffffffffffffffff19161480610dd257507f2300000000000000000000000000000000000000000000000000000000000000858281518110610da357610da2612009565b5b602001015160f81c60f81b7effffffffffffffffffffffffffffffffffffffffffffffffffffffffffffff1916145b15610ddf57809150610dec565b8080600101915050610cff565b508181118015610e6657507f2f0000000000000000000000000000000000000000000000000000000000000084600183610e269190612c8f565b81518110610e3757610e36612009565b5b602001015160f81c60f81b7effffffffffffffffffffffffffffffffffffffffffffffffffffffffffffff1916145b15610e7b57600181610e789190612c8f565b90505b60008282610e899190612c8f565b67ffffffffffffffff811115610ea257610ea1611092565b5b6040519080825280601f01601f191660200182016040528015610ed45781602001600182028036833780820191505090505b50905060008390505b82811015610f5d57858181518110610ef857610ef7612009565b5b602001015160f81c60f81b828583610f109190612c8f565b81518110610f2157610f20612009565b5b60200101907effffffffffffffffffffffffffffffffffffffffffffffffffffffffffffff1916908160001a9053508080600101915050610edd565b508095505050505050919050565b600081519050919050565b600082825260208201905092915050565b60005b83811015610fa5578082015181840152602081019050610f8a565b60008484015250505050565b6000601f19601f8301169050919050565b6000610fcd82610f6b565b610fd78185610f76565b9350610fe7818560208601610f87565b610ff081610fb1565b840191505092915050565b600060208201905081810360008301526110158184610fc2565b905092915050565b600073ffffffffffffffffffffffffffffffffffffffff82169050919050565b60006110488261101d565b9050919050565b6110588161103d565b82525050565b6000602082019050611073600083018461104f565b92915050565b6000604051905090565b600080fd5b600080fd5b600080fd5b7f4e487b7100000000000000000000000000000000000000000000000000000000600052604160045260246000fd5b6110ca82610fb1565b810181811067ffffffffffffffff821117156110e9576110e8611092565b5b80604052505050565b60006110fc611079565b905061110882826110c1565b919050565b600067ffffffffffffffff82111561112857611127611092565b5b602082029050602081019050919050565b600080fd5b6111478161103d565b811461115257600080fd5b50565b6000815190506111648161113e565b92915050565b600061117d6111788461110d565b6110f2565b905080838252602082019050602084028301858111156111a05761119f611139565b5b835b818110156111c957806111b58882611155565b8452602084019350506020810190506111a2565b5050509392505050565b600082601f8301126111e8576111e761108d565b5b81516111f884826020860161116a565b91505092915050565b60006020828403121561121757611216611083565b5b600082015167ffffffffffffffff81111561123557611234611088565b5b611241848285016111d3565b91505092915050565b600080fd5b600067ffffffffffffffff82111561126a57611269611092565b5b61127382610fb1565b9050602081019050919050565b600061129361128e8461124f565b6110f2565b9050828152602081018484840111156112af576112ae61124a565b5b6112ba848285610f87565b509392505050565b600082601f8301126112d7576112d661108d565b5b81516112e7848260208601611280565b91505092915050565b60006020828403121561130657611305611083565b5b600082015167ffffffffffffffff81111561132457611323611088565b5b611330848285016112c2565b91505092915050565b600081905092915050565b600061134f82610f6b565b6113598185611339565b9350611369818560208601610f87565b80840191505092915050565b7f3c686561643e0000000000000000000000000000000000000000000000000000815250565b7f3c6d65746120636861727365743d225554462d38223e00000000000000000000815250565b7f3c6d657461206e616d653d2276696577706f72742220636f6e74656e743d227760008201527f696474683d6465766963652d77696474682c20696e697469616c2d7363616c6560208201527f3d312e30223e0000000000000000000000000000000000000000000000000000604082015250565b6000611443604683611339565b915061144e826113c1565b604682019050919050565b7f3c7469746c653e00000000000000000000000000000000000000000000000000815250565b7f3c2f7469746c653e000000000000000000000000000000000000000000000000815250565b7f3c2f686561643e00000000000000000000000000000000000000000000000000815250565b7f3c7374796c653e00000000000000000000000000000000000000000000000000815250565b7f2a2c202a3a3a6265666f72652c202a3a3a6166746572207b20626f782d73697a60008201527f696e673a20626f726465722d626f783b207d0000000000000000000000000000602082015250565b600061154d603283611339565b9150611558826114f1565b603282019050919050565b7f68746d6c207b202d6d6f7a2d746578742d73697a652d61646a7573743a206e6f60008201527f6e653b202d7765626b69742d746578742d73697a652d61646a7573743a206e6f60208201527f6e653b20746578742d73697a652d61646a7573743a206e6f6e653b207d000000604082015250565b60006115e5605d83611339565b91506115f082611563565b605d82019050919050565b7f68746d6c2c20626f6479207b206d617267696e3a20303b2070616464696e673a60008201527f20303b207d20626f6479207b206d696e2d6865696768743a203130307668207d602082015250565b6000611657604083611339565b9150611662826115fb565b604082019050919050565b7f68746d6c2c626f64792c707265207b20666f6e742d66616d696c793a2022436f60008201527f7572696572204e6577222c2022436f7572696572222c206d6f6e6f737061636560208201527f3b20666f6e742d73697a653a20313570783b207d000000000000000000000000604082015250565b60006116ef605483611339565b91506116fa8261166d565b605482019050919050565b7f68312c68322c6833207b206d617267696e3a20303b20666f6e742d73697a653a60008201527f20696e68657269743b20666f6e742d7374796c653a20696e68657269743b206660208201527f6f6e742d7765696768743a20696e68657269743b7d0000000000000000000000604082015250565b6000611787605583611339565b915061179282611705565b605582019050919050565b7f2e63207b206d61782d77696474683a2038343070783b206d617267696e3a203060008201527f206175746f3b2070616464696e673a203020312e35656d3b20626f782d73697a60208201527f696e673a20636f6e74656e742d626f783b207d00000000000000000000000000604082015250565b600061181f605383611339565b915061182a8261179d565b605382019050919050565b7f61207b20636f6c6f723a20696e68657269743b20746578742d6465636f72617460008201527f696f6e3a20756e6465726c696e653b207d000000000000000000000000000000602082015250565b6000611891603183611339565b915061189c82611835565b603182019050919050565b7f2e77207b206d696e2d6865696768743a2031303076683b20646973706c61793a60008201527f20666c65783b20616c69676e2d6974656d733a2063656e7465723b207061646460208201527f696e673a203130656d20303b207d000000000000000000000000000000000000604082015250565b6000611929604e83611339565b9150611934826118a7565b604e82019050919050565b7f2e73207b2077696474683a20313030253b206d61782d77696474683a2038343060008201527f70783b207d000000000000000000000000000000000000000000000000000000602082015250565b600061199b602583611339565b91506119a68261193f565b602582019050919050565b7f2e733a6e6f74282e67292061207b206d61782d77696474683a20313030253b2060008201527f646973706c61793a20696e6c696e652d626c6f636b3b2077686974652d73706160208201527f63653a206e6f777261703b206f766572666c6f773a2068696464656e3b20746560408201527f78742d6f766572666c6f773a20656c6c69707369733b207d0000000000000000606082015250565b6000611a59607883611339565b9150611a64826119b1565b607882019050919050565b7f2e74207b206d61782d77696474683a20313030253b206f766572666c6f772d7860008201527f3a206175746f3b206d617267696e3a2031656d20303b207d0000000000000000602082015250565b6000611acb603883611339565b9150611ad682611a6f565b603882019050919050565b7f2e69207b206d617267696e3a203530766820302035656d3b207d000000000000815250565b7f3c2f7374796c653e000000000000000000000000000000000000000000000000815250565b6000611b398285611344565b9150611b4482611375565b600682019150611b538261139b565b601682019150611b6282611436565b9150611b6d82611459565b600782019150611b7d8284611344565b9150611b888261147f565b600882019150611b97826114a5565b600782019150611ba6826114cb565b600782019150611bb582611540565b9150611bc0826115d8565b9150611bcb8261164a565b9150611bd6826116e2565b9150611be18261177a565b9150611bec82611812565b9150611bf782611884565b9150611c028261191c565b9150611c0d8261198e565b9150611c1882611a4c565b9150611c2382611abe565b9150611c2e82611ae1565b601a82019150611c3d82611b07565b6008820191508190509392505050565b7f3c626f64793e0000000000000000000000000000000000000000000000000000815250565b7f3c64697620636c6173733d2263223e0000000000000000000000000000000000815250565b7f3c64697620636c6173733d2277223e3c64697620636c6173733d22732067223e815250565b7f3c70726520636c6173733d2267617264656e223e000000000000000000000000815250565b7f20202020202020e29a982020202020202020202020202020202020202020e29a60008201527f980a000000000000000000000000000000000000000000000000000000000000602082015250565b6000611d41602283611339565b9150611d4c82611ce5565b602282019050919050565b7f20202020202020202020202020e29a980a000000000000000000000000000000815250565b7fe29a982020202020202020202020202020202020202020202020e29a9820202060008201527f202020202020e29a980a00000000000000000000000000000000000000000000602082015250565b6000611dd9602a83611339565b9150611de482611d7d565b602a82019050919050565b7f2020202020202020e29a98202020202020202020e29a980a0000000000000000815250565b7f202020e29a98202020202020202020202020202020202020202020202020202060008201527fe29a980a00000000000000000000000000000000000000000000000000000000602082015250565b6000611e71602483611339565b9150611e7c82611e15565b602482019050919050565b7f3c2f7072653e0000000000000000000000000000000000000000000000000000815250565b7f3c6272202f3e3c6272202f3e0000000000000000000000000000000000000000815250565b7f3c68313e00000000000000000000000000000000000000000000000000000000815250565b7f3c2f68313e0a0000000000000000000000000000000000000000000000000000815250565b6000611f2b8285611344565b9150611f3682611c4d565b600682019150611f4582611c73565b600f82019150611f5482611c99565b602082019150611f6382611cbf565b601482019150611f7282611d34565b9150611f7d82611d57565b601182019150611f8c82611dcc565b9150611f9782611def565b601882019150611fa682611e64565b9150611fb182611e87565b600682019150611fc082611ead565b600c82019150611fcf82611ed3565b600482019150611fdf8284611344565b9150611fea82611ef9565b600682019150611ff982611ead565b600c820191508190509392505050565b7f4e487b7100000000000000000000000000000000000000000000000000000000600052603260045260246000fd5b600067ffffffffffffffff82111561205357612052611092565b5b602082029050602081019050919050565b600061207761207284612038565b6110f2565b9050808382526020820190506020840283018581111561209a57612099611139565b5b835b818110156120e157805167ffffffffffffffff8111156120bf576120be61108d565b5b8086016120cc89826112c2565b8552602085019450505060208101905061209c565b5050509392505050565b600082601f830112612100576120ff61108d565b5b8151612110848260208601612064565b91505092915050565b60006020828403121561212f5761212e611083565b5b600082015167ffffffffffffffff81111561214d5761214c611088565b5b612159848285016120eb565b91505092915050565b7f3c62722f3e000000000000000000000000000000000000000000000000000000815250565b60006121948285611344565b91506121a08284611344565b91506121ab82612162565b6005820191508190509392505050565b7f202020202020e29a9820202020202020202020202020202020202020202020e260008201527f9a980a0000000000000000000000000000000000000000000000000000000000602082015250565b6000612217602383611339565b9150612222826121bb565b602382019050919050565b7f2020202020202020202020202020e29a980a0000000000000000000000000000815250565b7f20e29a98202020202020202020202020202020202020202020e29a982020202060008201527f2020202020e29a980a0000000000000000000000000000000000000000000000602082015250565b60006122af602983611339565b91506122ba82612253565b602982019050919050565b7f20202020202020202020e29a98202020202020e29a980a000000000000000000815250565b7f2020202020e29a98202020202020202020202020202020202020202020e29a9860008201527f0a00000000000000000000000000000000000000000000000000000000000000602082015250565b6000612347602183611339565b9150612352826122eb565b602182019050919050565b7f3c6272202f3e0000000000000000000000000000000000000000000000000000815250565b7f3c703e0000000000000000000000000000000000000000000000000000000000815250565b7f4120636f6e74726163742073686f77206f7267616e697a656420627920000000815250565b7f3c6120687265663d2268747470733a2f2f30786666662e6c6f7665222074617260008201527f6765743d225f626c616e6b222072656c3d226e6f6f70656e6572206e6f72656660208201527f6572726572223e30786666663c2f613e3c6272202f3e00000000000000000000604082015250565b6000612451605683611339565b915061245c826123cf565b605682019050919050565b7f77697468207370656369616c207468616e6b7320746f20000000000000000000815250565b7f3c6120687265663d2268747470733a2f2f782e636f6d2f7373736c756b65312260008201527f207461726765743d225f626c616e6b222072656c3d226e6f6f70656e6572206e60208201527f6f7265666572726572223e7373736c756b653c2f613e20616e64203c6120687260408201527f65663d2268747470733a2f2f782e636f6d2f307831313364222072656c3d226e60608201527f6f6f70656e6572206e6f726566657272657222207461726765743d225f626c6160808201527f6e6b223e3131333c2f613e00000000000000000000000000000000000000000060a082015250565b600061258160ab83611339565b915061258c8261248d565b60ab82019050919050565b7f3c2f703e00000000000000000000000000000000000000000000000000000000815250565b60006125c98284611344565b91506125d482611ead565b600c820191506125e382611cbf565b6014820191506125f28261220a565b91506125fd8261222d565b60128201915061260c826122a2565b9150612617826122c5565b6017820191506126268261233a565b915061263182611e87565b6006820191506126408261235d565b60068201915061264f82612383565b60038201915061265e826123a9565b601d8201915061266d82612444565b915061267882612467565b60178201915061268782612574565b915061269282612597565b6004820191506126a182611ead565b600c8201915081905092915050565b7f3c2f6469763e3c2f6469763e0000000000000000000000000000000000000000815250565b60006126e28284611344565b91506126ed8261235d565b6006820191506126fc826126b0565b600c8201915081905092915050565b7f3c64697620636c6173733d2277223e3c64697620636c6173733d2273223e0000815250565b600061273d8284611344565b91506127488261270b565b601e8201915081905092915050565b7f3c68323e00000000000000000000000000000000000000000000000000000000815250565b60006127898284611344565b915061279482612757565b60048201915081905092915050565b7f3c2f68323e000000000000000000000000000000000000000000000000000000815250565b60006127d58284611344565b91506127e0826127a3565b60058201915081905092915050565b7f3c68333e3c693e00000000000000000000000000000000000000000000000000815250565b7f3c2f693e3c2f68333e0000000000000000000000000000000000000000000000815250565b60006128478285611344565b9150612852826127ef565b6007820191506128628284611344565b915061286d82612815565b6009820191508190509392505050565b7f556e7469746c6564000000000000000000000000000000000000000000000000815250565b60006128af8284611344565b91506128ba826127ef565b6007820191506128c98261287d565b6008820191506128d882612815565b60098201915081905092915050565b60006128f38284611344565b91506128fe82612383565b60038201915081905092915050565b60006129198284611344565b915061292482612597565b60048201915081905092915050565b7f3c64697620636c6173733d2274223e0000000000000000000000000000000000815250565b7f3c2f6469763e0000000000000000000000000000000000000000000000000000815250565b600061298b8285611344565b915061299682612933565b600f820191506129a68284611344565b91506129b182612959565b6006820191508190509392505050565b60006129cd8284611344565b91506129d8826126b0565b600c8201915081905092915050565b7f3c64697620636c6173733d2269223e47656e65726174656420617420626c6f6360008201527f6b20000000000000000000000000000000000000000000000000000000000000602082015250565b6000612a43602283611339565b9150612a4e826129e7565b602282019050919050565b7f2028000000000000000000000000000000000000000000000000000000000000815250565b7f293c2f6469763e00000000000000000000000000000000000000000000000000815250565b6000612ab18286611344565b9150612abc82612a36565b9150612ac88285611344565b9150612ad382612a59565b600282019150612ae38284611344565b9150612aee82612a7f565b600782019150819050949350505050565b7f3c2f6469763e3c2f626f64793e3c2f68746d6c3e000000000000000000000000815250565b6000612b318284611344565b9150612b3c82612aff565b60148201915081905092915050565b7f3c6120687265663d220000000000000000000000000000000000000000000000815250565b7f22207461726765743d225f626c616e6b222072656c3d226e6f6f70656e65722060008201527f6e6f7265666572726572223e0000000000000000000000000000000000000000602082015250565b6000612bcd602c83611339565b9150612bd882612b71565b602c82019050919050565b7f3c2f613e00000000000000000000000000000000000000000000000000000000815250565b6000612c1482612b4b565b600982019150612c248285611344565b9150612c2f82612bc0565b9150612c3b8284611344565b9150612c4682612be3565b6004820191508190509392505050565b6000819050919050565b7f4e487b7100000000000000000000000000000000000000000000000000000000600052601160045260246000fd5b6000612c9a82612c56565b9150612ca583612c56565b9250828203905081811115612cbd57612cbc612c60565b5b92915050565b6000612cce82612c56565b9150612cd983612c56565b9250828201905080821115612cf157612cf0612c60565b5b9291505056fea26469706673582212202d3163e7b126495afa2a4e6a391f2a7156b2f3dbfbb6265f683db2f23ac03bdc64736f6c634300081b0033",
  "devdoc": {
    "kind": "dev",
    "methods": {},
    "version": 1
  },
  "userdoc": {
    "kind": "user",
    "methods": {},
    "version": 1
  },
  "storageLayout": {
    "storage": [],
    "types": null
  }
}