{
  "address": "0x9d216BB0EdA0E3B82353869fc1b59aA701a3c1Dd",
  "abi": [
    {
      "inputs": [
        {
          "internalType": "address",
          "name": "garden",
          "type": "address"
        }
      ],
      "name": "html",
      "outputs": [
        {
          "internalType": "string",
          "name": "html",
          "type": "string"
        }
      ],
      "stateMutability": "view",
      "type": "function"
    }
  ],
  "transactionHash": "0x007937f0881137ca692372ad48ac5cc3475e28621e8d42149556e724d5f6b992",
  "args": [],
  "numDeployments": 5,
  "solcInputHash": "a701177a4147c144ba7ac90ebd223504",
  "bytecode": "0x613d3b610052600b82828239805160001a6073146045577f4e487b7100000000000000000000000000000000000000000000000000000000600052600060045260246000fd5b30600052607381538281f3fe73000000000000000000000000000000000000000030146080604052600436106100355760003560e01c8063ec34c7a81461003a575b600080fd5b610054600480360381019061004f919061053c565b61006a565b60405161006191906105f9565b60405180910390f35b606060008273ffffffffffffffffffffffffffffffffffffffff16630a8ee81d6040518163ffffffff1660e01b8152600401602060405180830381865afa1580156100b9573d6000803e3d6000fd5b505050506040513d601f19601f820116820180604052508101906100dd9190610651565b905060008373ffffffffffffffffffffffffffffffffffffffff1663706e3da26040518163ffffffff1660e01b8152600401602060405180830381865afa15801561012c573d6000803e3d6000fd5b505050506040513d601f19601f820116820180604052508101906101509190610651565b90508261015c85610356565b610165846103d0565b600185146101a8576040518060400160405280600c81526020017f20677565737473206861766500000000000000000000000000000000000000008152506101df565b6040518060400160405280600a81526020017f20677565737420686173000000000000000000000000000000000000000000008152505b6101e8856103d0565b6001861461022b576040518060400160405280600181526020017f730000000000000000000000000000000000000000000000000000000000000081525061023c565b604051806020016040528060008152505b6102b38a73ffffffffffffffffffffffffffffffffffffffff1663706e3da26040518163ffffffff1660e01b8152600401602060405180830381865afa15801561028a573d6000803e3d6000fd5b505050506040513d601f19601f820116820180604052508101906102ae9190610651565b6103d0565b8a73ffffffffffffffffffffffffffffffffffffffff16634a79d50c6040518163ffffffff1660e01b8152600401600060405180830381865afa1580156102fe573d6000803e3d6000fd5b505050506040513d6000823e3d601f19601f8201168201806040525081019061032791906107a4565b60405160200161033e98979695949392919061362d565b60405160208183030381529060405292505050919050565b606061036182610421565b905060ff6000190460061b60228201816022026028822016608860f01b60005b6001156103a05782811a82028182015260018101905060148103610381575b50838351166000511660011c8351188352602083019250838351166020511660011c835118835250505050919050565b60606080604051019050602081016040526000815280600019835b60011561040c578184019350600a81066030018453600a81049050806103eb575b50828203602084039350808452505050919050565b606061042c82610447565b90506002815101613078825260028203915080825250919050565b60606040519050608081016040526f30313233343536373839616263646566600f526002810190506028815260208101600060288201528260601b925060005b6001156104c357808101820184821a600f81165160018301538060041c518253600183019250601483036104bc5750506104c3565b5050610487565b5050919050565b6000604051905090565b600080fd5b600080fd5b600073ffffffffffffffffffffffffffffffffffffffff82169050919050565b6000610509826104de565b9050919050565b610519816104fe565b811461052457600080fd5b50565b60008135905061053681610510565b92915050565b600060208284031215610552576105516104d4565b5b600061056084828501610527565b91505092915050565b600081519050919050565b600082825260208201905092915050565b60005b838110156105a3578082015181840152602081019050610588565b60008484015250505050565b6000601f19601f8301169050919050565b60006105cb82610569565b6105d58185610574565b93506105e5818560208601610585565b6105ee816105af565b840191505092915050565b6000602082019050818103600083015261061381846105c0565b905092915050565b6000819050919050565b61062e8161061b565b811461063957600080fd5b50565b60008151905061064b81610625565b92915050565b600060208284031215610667576106666104d4565b5b60006106758482850161063c565b91505092915050565b600080fd5b600080fd5b7f4e487b7100000000000000000000000000000000000000000000000000000000600052604160045260246000fd5b6106c0826105af565b810181811067ffffffffffffffff821117156106df576106de610688565b5b80604052505050565b60006106f26104ca565b90506106fe82826106b7565b919050565b600067ffffffffffffffff82111561071e5761071d610688565b5b610727826105af565b9050602081019050919050565b600061074761074284610703565b6106e8565b90508281526020810184848401111561076357610762610683565b5b61076e848285610585565b509392505050565b600082601f83011261078b5761078a61067e565b5b815161079b848260208601610734565b91505092915050565b6000602082840312156107ba576107b96104d4565b5b600082015167ffffffffffffffff8111156107d8576107d76104d9565b5b6107e484828501610776565b91505092915050565b600081905092915050565b600061080382610569565b61080d81856107ed565b935061081d818560208601610585565b80840191505092915050565b7f3c64697620636c6173733d2277223e3c64697620636c6173733d2273223e0000815250565b7f3c6469762069643d226669656c64312220636c6173733d226669656c64223e3c60008201527f2f6469763e3c62723e3c62723e3c62723e000000000000000000000000000000602082015250565b60006108ab6031836107ed565b91506108b68261084f565b603182019050919050565b7f3c70207374796c653d22746578742d616c69676e3a63656e7465723b223e0000815250565b7f4775657374626f6f6b0000000000000000000000000000000000000000000000815250565b7f3c62723e3c62723e000000000000000000000000000000000000000000000000815250565b7f596f75206d6179206c65617665206120666c6f7765722068657265206279207360008201527f656e64696e6720302e30312045544820286f72206d756c7469706c657320746860208201527f6572656f66293c62723e20746f207468652073686f7720636f6e74726163742060408201527f6174203c7370616e20636c6173733d2261223e00000000000000000000000000606082015250565b60006109db6073836107ed565b91506109e682610933565b607382019050919050565b7f3c2f7370616e3e3c62723e3c62723e0000000000000000000000000000000000815250565b7f20706c616e746564200000000000000000000000000000000000000000000000815250565b7f20666c6f77657200000000000000000000000000000000000000000000000000815250565b7f3c2f703e3c62723e3c62723e3c62723e00000000000000000000000000000000815250565b7f3c6469762069643d226669656c64322220636c6173733d226669656c64223e3c60008201527f2f6469763e000000000000000000000000000000000000000000000000000000602082015250565b6000610ae56025836107ed565b9150610af082610a89565b602582019050919050565b7f3c7374796c653e2e746f6f6c746970207b20666f6e742d73697a653a20302e3860008201527f656d3b206261636b67726f756e643a2077686974653b20626f726465723a203160208201527f707820736f6c696420626c61636b3b2070616464696e673a20302e35656d3b2060408201527f77696474683a2032323070783b207d0000000000000000000000000000000000606082015250565b6000610ba3606f836107ed565b9150610bae82610afb565b606f82019050919050565b7f2e746f6f6c7469702e72207b20746578742d616c69676e3a2072696768743b2060008201527f7d00000000000000000000000000000000000000000000000000000000000000602082015250565b6000610c156021836107ed565b9150610c2082610bb9565b602182019050919050565b7f2e746f6f6c746970202e61646472657373207b206f766572666c6f772d77726160008201527f703a20627265616b2d776f72643b207d00000000000000000000000000000000602082015250565b6000610c876030836107ed565b9150610c9282610c2b565b603082019050919050565b7f3c2f7374796c653e000000000000000000000000000000000000000000000000815250565b7f3c7363726970743e000000000000000000000000000000000000000000000000815250565b7f646f63756d656e742e6164644576656e744c697374656e65722822444f4d436f60008201527f6e74656e744c6f61646564222c202829203d3e207b0000000000000000000000602082015250565b6000610d456035836107ed565b9150610d5082610ce9565b603582019050919050565b7f636f6e737420666c6f77657273203d2000000000000000000000000000000000815250565b7f3b00000000000000000000000000000000000000000000000000000000000000815250565b7f636f6e736f6c652e6c6f67286057656c636f6d6520746f207468652000000000815250565b7f60293b0000000000000000000000000000000000000000000000000000000000815250565b7f636f6e736f6c652e6c6f67286020e29a9820202020202020202020202020202060008201527f2020202020e29a98202020202020202020202020202020202020e29a980a0000602082015250565b6000610e4f603e836107ed565b9150610e5a82610df3565b603e82019050919050565b7f20202020202020202020202020e29a982020202020202020202020202020202060008201527f20202020202020e29a980a000000000000000000000000000000000000000000602082015250565b6000610ec1602b836107ed565b9150610ecc82610e65565b602b82019050919050565b7f20202020e29a980a000000000000000000000000000000000000000000000000815250565b7f20202020202020202020202020202020202020202020e29a982020202020202060008201527f2020202020202020202020202020e29a980a0a00000000000000000000000000602082015250565b6000610f596033836107ed565b9150610f6482610efd565b603382019050919050565b7f20202020496e697469616c697a696e672067617264656e207769746820247b6660008201527f6c6f776572737d20666c6f776572730a0a000000000000000000000000000000602082015250565b6000610fcb6031836107ed565b9150610fd682610f6f565b603182019050919050565b7f20202020202020202020202020e29a982020202020202020202020202020202060008201527f202020202020202020e29a980a00000000000000000000000000000000000000602082015250565b600061103d602d836107ed565b915061104882610fe1565b602d82019050919050565b7fe29a98202020202020202020202020202020202020202020202020e29a98202060008201527f2020202020202020202020202020202020e29a980a0000000000000000000000602082015250565b60006110af6035836107ed565b91506110ba82611053565b603582019050919050565b7f20202020e29a982020202020202020202020202020202020202020202020202060008201527f20202020202020e29a980a000000000000000000000000000000000000000000602082015250565b6000611121602b836107ed565b915061112c826110c5565b602b82019050919050565b7f20202020202020202020202020202020202020202020e29a9860293b00000000815250565b7f66756e6374696f6e2063616c63756c6174655468726573686f6c6428706c616e60008201527f74656429207b0000000000000000000000000000000000000000000000000000602082015250565b60006111b96026836107ed565b91506111c48261115d565b602682019050919050565b7f636f6e7374206d696e203d2033302c206d6178203d2031303030302c206c6f7760008201527f6572203d20302e39392c20686967686572203d20302e383b0000000000000000602082015250565b600061122b6038836107ed565b9150611236826111cf565b603882019050919050565b7f69662028706c616e746564203c3d206d696e292072657475726e206c6f77657260008201527f3b00000000000000000000000000000000000000000000000000000000000000602082015250565b600061129d6021836107ed565b91506112a882611241565b602182019050919050565b7f69662028706c616e746564203e3d206d6178292072657475726e20686967686560008201527f723b000000000000000000000000000000000000000000000000000000000000602082015250565b600061130f6022836107ed565b915061131a826112b3565b602282019050919050565b7f636f6e7374206e6f726d616c697a6564203d2028706c616e746564202d206d6960008201527f6e29202f20286d6178202d206d696e293b000000000000000000000000000000602082015250565b60006113816031836107ed565b915061138c82611325565b603182019050919050565b7f636f6e7374206c6f6756616c7565203d204d6174682e6c6f6731302831202b2060008201527f6e6f726d616c697a6564202a20283130202d203129293b000000000000000000602082015250565b60006113f36037836107ed565b91506113fe82611397565b603782019050919050565b7f72657475726e20686967686572202b20286c6f776572202d206869676865722960008201527f202a202831202d206c6f6756616c7565293b0000000000000000000000000000602082015250565b60006114656032836107ed565b915061147082611409565b603282019050919050565b7f7d00000000000000000000000000000000000000000000000000000000000000815250565b7f66756e6374696f6e206973436f6e646974696f6e4d657428706c616e7465642c60008201527f2076616c29207b00000000000000000000000000000000000000000000000000602082015250565b60006114fd6027836107ed565b9150611508826114a1565b602782019050919050565b7f636f6e7374207468726573686f6c64203d2063616c63756c617465546872657360008201527f686f6c6428706c616e746564293b000000000000000000000000000000000000602082015250565b600061156f602e836107ed565b915061157a82611513565b602e82019050919050565b7f72657475726e2076616c203e207468726573686f6c64207c7c2076616c203c2060008201527f2d7468726573686f6c643b000000000000000000000000000000000000000000602082015250565b60006115e1602b836107ed565b91506115ec82611585565b602b82019050919050565b7f66756e6374696f6e20677269644e6f69736528782c207a2c207365656429207b815250565b7f766172206e203d202831363139202a2078202b203331333337202a207a202b2060008201527f31303133202a207365656429202620307837666666666666663b000000000000602082015250565b6000611679603a836107ed565b91506116848261161d565b603a82019050919050565b7f6e203d20426967496e7428286e203e3e20313329205e206e293b000000000000815250565b7f6e203d206e202a20286e202a206e202a2036303439336e202b2031393939303360008201527f30336e29202b20313337363331323538396e3b00000000000000000000000000602082015250565b60006117116033836107ed565b915061171c826116b5565b603382019050919050565b7f6e203d207061727365496e74286e2e746f537472696e672832292e736c69636560008201527f282d3331292c2032293b00000000000000000000000000000000000000000000602082015250565b6000611783602a836107ed565b915061178e82611727565b602a82019050919050565b7f72657475726e2031202d206e202f20313037333734313832343b000000000000815250565b7f636f6e7374207769647468203d2039303b000000000000000000000000000000815250565b7f6c6574206c696e6573203d205b22225d2c20636f756e746572203d20302c207060008201527f6c616e746564203d20303b000000000000000000000000000000000000000000602082015250565b6000611841602b836107ed565b915061184c826117e5565b602b82019050919050565b7f7768696c652028706c616e746564203c20666c6f7765727329207b0000000000815250565b7f636f6e73742076616c203d20677269644e6f69736528636f756e74657220252060008201527f77696474682c204d6174682e666c6f6f7228636f756e746572202f207769647460208201527f68292c20307866293b0000000000000000000000000000000000000000000000604082015250565b60006118ff6049836107ed565b915061190a8261187d565b604982019050919050565b7f6966202876616c203e207468726573686f6c64207c7c2076616c203c202d746860008201527f726573686f6c6429207b00000000000000000000000000000000000000000000602082015250565b6000611971602a836107ed565b915061197c82611915565b602a82019050919050565b7f6c696e65735b4d6174682e666c6f6f7228636f756e746572202f20776964746860008201527f295d202b3d20603c6120687265663d2223247b706c616e7465642b317d22206960208201527f643d22666c6f7765722d247b706c616e7465642b317d22207374796c653d227060408201527f6f736974696f6e3a72656c61746976653b2220646174612d666c6f7765722d6960608201527f643d22247b706c616e7465642b317d223ee29a983c2f613e603b000000000000608082015250565b6000611a55609a836107ed565b9150611a6082611987565b609a82019050919050565b7f706c616e7465642b2b3b00000000000000000000000000000000000000000000815250565b7f7d20656c7365207b206c696e65735b4d6174682e666c6f6f7228636f756e746560008201527f72202f207769647468295d202b3d202220223b207d0000000000000000000000602082015250565b6000611aed6035836107ed565b9150611af882611a91565b603582019050919050565b7f69662028636f756e7465722025207769647468203d3d202877696474682d312960008201527f20262620706c616e746564203c20666c6f7765727329207b206c696e65732e7060208201527f757368282222293b207d00000000000000000000000000000000000000000000604082015250565b6000611b85604a836107ed565b9150611b9082611b03565b604a82019050919050565b7f636f756e7465722b2b3b7d000000000000000000000000000000000000000000815250565b7f6c696e6573203d206c696e65732e72656475636528286163632c206c696e652960008201527f203d3e207b20696620286c696e652e7472696d28292e6c656e677468203e203060208201527f29206163632e70757368286c696e65293b2072657475726e206163633b207d2c60408201527f205b5d293b000000000000000000000000000000000000000000000000000000606082015250565b6000611c696065836107ed565b9150611c7482611bc1565b606582019050919050565b7f646f63756d656e742e717565727953656c6563746f722822236669656c64312260008201527f292e696e6e657248544d4c203d206c696e65732e736c69636528302c4d61746860208201527f2e6d696e28372c4d6174682e6365696c286c696e65732e6c656e6774682f322960408201527f29292e6a6f696e28225c6e22293b000000000000000000000000000000000000606082015250565b6000611d27606e836107ed565b9150611d3282611c7f565b606e82019050919050565b7f646f63756d656e742e717565727953656c6563746f722822236669656c64322260008201527f292e696e6e657248544d4c203d206c696e65732e736c696365284d6174682e6d60208201527f696e28372c4d6174682e6365696c286c696e65732e6c656e6774682f3229292960408201527f2e6a6f696e28225c6e22293b0000000000000000000000000000000000000000606082015250565b6000611de5606c836107ed565b9150611df082611d3d565b606c82019050919050565b7f636f6e737420666c6f776572456c73203d20646f63756d656e742e717565727960008201527f53656c6563746f72416c6c28222e6669656c64206122293b0000000000000000602082015250565b6000611e576038836107ed565b9150611e6282611dfb565b603882019050919050565b7f666c6f776572456c732e666f72456163682828656c29203d3e207b0000000000815250565b7f656c2e6164644576656e744c697374656e657228226d6f757365656e7465722260008201527f2c20286529203d3e207b00000000000000000000000000000000000000000000602082015250565b6000611eef602a836107ed565b9150611efa82611e93565b602a82019050919050565b7f636f6e737420666c6f7765724964203d20652e7461726765742e64617461736560008201527f742e666c6f77657249643b000000000000000000000000000000000000000000602082015250565b6000611f61602b836107ed565b9150611f6c82611f05565b602b82019050919050565b7f69662028666c6f776572496429207b0000000000000000000000000000000000815250565b7f652e70726576656e7444656661756c7428293b73686f77546f6f6c746970286660008201527f6c6f7765724964293b0000000000000000000000000000000000000000000000602082015250565b6000611ff96029836107ed565b915061200482611f9d565b602982019050919050565b7f7d293b0000000000000000000000000000000000000000000000000000000000815250565b7f656c2e6164644576656e744c697374656e657228226d6f7573656c656176652260008201527f2c20286529203d3e207b00000000000000000000000000000000000000000000602082015250565b6000612091602a836107ed565b915061209c82612035565b602a82019050919050565b7f20202020646f63756d656e742e717565727953656c6563746f72416c6c28222e60008201527f746f6f6c74697022292e666f72456163682828656c29203d3e20656c2e72656d60208201527f6f76652829293b00000000000000000000000000000000000000000000000000604082015250565b60006121296047836107ed565b9150612134826120a7565b604782019050919050565b7f7d293b77696e646f772e6164644576656e744c697374656e657228227265736960008201527f7a65222c202829203d3e20646f63756d656e742e717565727953656c6563746f60208201527f72416c6c28222e746f6f6c74697022292e666f72456163682828656c29203d3e60408201527f20656c2e72656d6f7665282929293b0000000000000000000000000000000000606082015250565b60006121e7606f836107ed565b91506121f28261213f565b606f82019050919050565b7f646f63756d656e742e717565727953656c6563746f72416c6c28222e6669656c60008201527f6422292e666f72456163682828656c29203d3e20656c2e6164644576656e744c60208201527f697374656e657228227363726f6c6c222c202829203d3e20646f63756d656e7460408201527f2e717565727953656c6563746f72416c6c28222e746f6f6c74697022292e666f60608201527f72456163682828656c29203d3e20656c2e72656d6f766528292929293b000000608082015250565b60006122cb609d836107ed565b91506122d6826121fd565b609d82019050919050565b7f66756e6374696f6e2073686f77546f6f6c74697028666c6f776572496429207b815250565b7f646f63756d656e742e717565727953656c6563746f72416c6c28222e746f6f6c60008201527f74697022292e666f72456163682828656c29203d3e20656c2e72656d6f76652860208201527f29293b0000000000000000000000000000000000000000000000000000000000604082015250565b60006123896043836107ed565b915061239482612307565b604382019050919050565b7f636f6e737420746f6f6c746970203d20646f63756d656e742e6372656174654560008201527f6c656d656e74282264697622293b000000000000000000000000000000000000602082015250565b60006123fb602e836107ed565b91506124068261239f565b602e82019050919050565b7f746f6f6c7469702e636c6173734c6973742e6164642822746f6f6c746970222960008201527f3b00000000000000000000000000000000000000000000000000000000000000602082015250565b600061246d6021836107ed565b915061247882612411565b602182019050919050565b7f746f6f6c7469702e6964203d2022746f6f6c74697022202b20666c6f7765724960008201527f643b000000000000000000000000000000000000000000000000000000000000602082015250565b60006124df6022836107ed565b91506124ea82612483565b602282019050919050565b7f746f6f6c7469702e696e6e657248544d4c203d20604c6f6164696e6720466c6f60008201527f7765722023247b666c6f77657249647d202e2e2e603b00000000000000000000602082015250565b60006125516036836107ed565b915061255c826124f5565b603682019050919050565b7f746f6f6c7469702e7374796c652e706f736974696f6e203d20226162736f6c7560008201527f7465223b00000000000000000000000000000000000000000000000000000000602082015250565b60006125c36024836107ed565b91506125ce82612567565b602482019050919050565b7f636f6e737420666c6f776572203d20646f63756d656e742e676574456c656d6560008201527f6e74427949642822666c6f7765722d22202b20666c6f7765724964293b000000602082015250565b6000612635603d836107ed565b9150612640826125d9565b603d82019050919050565b7f636f6e737420636c69656e7452656374203d20666c6f7765722e676574426f7560008201527f6e64696e67436c69656e745265637428293b0000000000000000000000000000602082015250565b60006126a76032836107ed565b91506126b28261264b565b603282019050919050565b7f636f6e7374206f6666736574546f70203d2077696e646f772e70616765594f6660008201527f66736574207c7c20646f63756d656e742e646f63756d656e74456c656d656e7460208201527f2e7363726f6c6c546f70207c7c20646f63756d656e742e626f64792e7363726f60408201527f6c6c546f70207c7c20303b000000000000000000000000000000000000000000606082015250565b6000612765606b836107ed565b9150612770826126bd565b606b82019050919050565b7f746f6f6c7469702e7374796c652e746f70203d20636c69656e74526563742e7460008201527f6f70202b20286f6666736574546f7029202b20666c6f7765722e636c69656e7460208201527f486569676874202b20227078223b000000000000000000000000000000000000604082015250565b60006127fd604e836107ed565b91506128088261277b565b604e82019050919050565b7f636f6e7374206f66667365744c656674203d2077696e646f772e70616765584f60008201527f6666736574207c7c20646f63756d656e742e646f63756d656e74456c656d656e60208201527f742e7363726f6c6c4c656674207c7c20646f63756d656e742e626f64792e736360408201527f726f6c6c4c656674207c7c20303b000000000000000000000000000000000000606082015250565b60006128bb606e836107ed565b91506128c682612813565b606e82019050919050565b7f636f6e7374206c656674506f73203d20636c69656e74526563742e6c6566742060008201527f2b206f66667365744c6566743b00000000000000000000000000000000000000602082015250565b600061292d602d836107ed565b9150612938826128d1565b602d82019050919050565b7f746f6f6c7469702e7374796c652e6c656674203d206c656674506f73203e207760008201527f696e646f772e696e6e65725769647468202d20323530203f206c656674506f7360208201527f202d20323230202b2022707822203a206c656674506f73202b20227078223b00604082015250565b60006129c5605f836107ed565b91506129d082612943565b605f82019050919050565b7f696620286c656674506f73203e2077696e646f772e696e6e657257696474682060008201527f2d203235302920746f6f6c7469702e636c6173734c6973742e6164642822722260208201527f293b000000000000000000000000000000000000000000000000000000000000604082015250565b6000612a5d6042836107ed565b9150612a68826129db565b604282019050919050565b7f646f63756d656e742e626f64792e617070656e644368696c6428746f6f6c746960008201527f70293b0000000000000000000000000000000000000000000000000000000000602082015250565b6000612acf6023836107ed565b9150612ada82612a73565b602382019050919050565b7f6c6f6164466c6f77657228666c6f7765724964293b0000000000000000000000815250565b7f636f6e7374206665746368466c6f7765724d656d6f203d20282829203d3e207b815250565b7f20202020636f6e7374206361636865203d207b7d3b0000000000000000000000815250565b7f2020202072657475726e206173796e632066756e6374696f6e28666c6f77657260008201527f496429207b000000000000000000000000000000000000000000000000000000602082015250565b6000612bb36025836107ed565b9150612bbe82612b57565b602582019050919050565b7f20202020202020206966202863616368655b666c6f77657249645d292072657460008201527f75726e207b202e2e2e63616368655b666c6f77657249645d207d3b0000000000602082015250565b6000612c25603b836107ed565b9150612c3082612bc9565b603b82019050919050565b7f2020202020202020636f6e737420726573203d2061776169742066657463682860008201527f222f666c6f7765722f22202b20666c6f7765724964293b000000000000000000602082015250565b6000612c976037836107ed565b9150612ca282612c3b565b603782019050919050565b7f2020202020202020636f6e73742064617461203d206177616974207265732e6a60008201527f736f6e28293b0000000000000000000000000000000000000000000000000000602082015250565b6000612d096026836107ed565b9150612d1482612cad565b602682019050919050565b7f202020202020202063616368655b666c6f77657249645d203d207b202e2e2e6460008201527f617461207d3b0000000000000000000000000000000000000000000000000000602082015250565b6000612d7b6026836107ed565b9150612d8682612d1f565b602682019050919050565b7f202020202020202072657475726e20646174613b000000000000000000000000815250565b7f202020207d000000000000000000000000000000000000000000000000000000815250565b7f7d2928293b000000000000000000000000000000000000000000000000000000815250565b7f6173796e632066756e6374696f6e206c6f6164466c6f77657228666c6f77657260008201527f496429207b000000000000000000000000000000000000000000000000000000602082015250565b6000612e5f6025836107ed565b9150612e6a82612e03565b602582019050919050565b7f20202020747279207b0000000000000000000000000000000000000000000000815250565b7f2020202020202020636f6e73742064617461203d20617761697420666574636860008201527f466c6f7765724d656d6f28666c6f7765724964293b0000000000000000000000602082015250565b6000612ef76035836107ed565b9150612f0282612e9b565b603582019050919050565b7f2020202020202020636f6e736f6c652e6c6f6728604c6f6164656420466c6f7760008201527f65722023247b666c6f77657249647d602c2064617461293b0000000000000000602082015250565b6000612f696038836107ed565b9150612f7482612f0d565b603882019050919050565b7f2020202020202020636f6e737420746f6f6c746970203d20646f63756d656e7460008201527f2e676574456c656d656e74427949642822746f6f6c74697022202b20666c6f7760208201527f65724964293b0000000000000000000000000000000000000000000000000000604082015250565b60006130016046836107ed565b915061300c82612f7f565b604682019050919050565b7f20202020202020206966202821746f6f6c746970292072657475726e3b000000815250565b7f2020202020202020746f6f6c7469702e696e6e657248544d4c203d2060466c6f60008201527f7765722023247b666c6f77657249647d3c62723e203c7370616e20636c61737360208201527f3d2261646472657373223e247b646174612e706c616e7465727d3c2f7370616e60408201527f3e3c62723e20247b666f726d617454696d6528646174612e74696d657374616d60608201527f70297d603b000000000000000000000000000000000000000000000000000000608082015250565b600061310b6085836107ed565b91506131168261303d565b608582019050919050565b7f202020207d20636174636820286529207b000000000000000000000000000000815250565b7f202020202020202020636f6e736f6c652e6572726f7228224572726f72206c6f60008201527f6164696e6720666c6f776572222c2065293b0000000000000000000000000000602082015250565b60006131a36032836107ed565b91506131ae82613147565b603282019050919050565b7f66756e6374696f6e20666f726d617454696d65287429207b0000000000000000815250565b7f20202020636f6e73742064617465203d206e657720446174652874202a20313060008201527f3030293b00000000000000000000000000000000000000000000000000000000602082015250565b600061323b6024836107ed565b9150613246826131df565b602482019050919050565b7f20202020636f6e7374206f7074696f6e73203d207b206d6f6e74683a20226c6f60008201527f6e6722207d3b0000000000000000000000000000000000000000000000000000602082015250565b60006132ad6026836107ed565b91506132b882613251565b602682019050919050565b7f20202020636f6e7374206d6f6e7468203d206e657720496e746c2e446174655460008201527f696d65466f726d61742822656e2d5553222c206f7074696f6e73292e666f726d60208201527f61742864617465293b0000000000000000000000000000000000000000000000604082015250565b60006133456049836107ed565b9150613350826132c3565b604982019050919050565b7f20202020636f6e737420646179203d20646174652e6765744461746528293b00815250565b7f20202020636f6e73742079656172203d20646174652e67657446756c6c59656160008201527f7228293b00000000000000000000000000000000000000000000000000000000602082015250565b60006133dd6024836107ed565b91506133e882613381565b602482019050919050565b7f202020206c657420686f757273203d20646174652e676574486f75727328293b815250565b7f20202020636f6e7374206d696e75746573203d20646174652e6765744d696e7560008201527f74657328292e746f537472696e6728292e706164537461727428322c2022302260208201527f293b000000000000000000000000000000000000000000000000000000000000604082015250565b600061349b6042836107ed565b91506134a682613419565b604282019050919050565b7f20202020636f6e737420616d506d203d20686f757273203e3d203132203f202260008201527f706d22203a2022616d223b000000000000000000000000000000000000000000602082015250565b600061350d602b836107ed565b9150613518826134b1565b602b82019050919050565b7f20202020686f757273203d20686f7572732025203132207c7c2031323b000000815250565b7f2020202072657475726e2060247b6d6f6e74687d20247b6461797d2c20247b7960008201527f6561727d2c20247b686f7572737d3a247b6d696e757465737d247b616d506d7d60208201527f603b000000000000000000000000000000000000000000000000000000000000604082015250565b60006135cb6042836107ed565b91506135d682613549565b604282019050919050565b7f3c2f7363726970743e0000000000000000000000000000000000000000000000815250565b7f3c2f6469763e3c2f6469763e0000000000000000000000000000000000000000815250565b6000613639828b6107f8565b915061364482610829565b601e820191506136538261089e565b915061365e826108c1565b601e8201915061366d826108e7565b60098201915061367c8261090d565b60088201915061368b826109ce565b9150613697828a6107f8565b91506136a2826109f1565b600f820191506136b282896107f8565b91506136be82886107f8565b91506136c982610a17565b6009820191506136d982876107f8565b91506136e482610a3d565b6007820191506136f482866107f8565b91506136ff82610a63565b60108201915061370e82610ad8565b915061371982610b96565b915061372482610c08565b915061372f82610c7a565b915061373a82610c9d565b60088201915061374982610cc3565b60088201915061375882610d38565b915061376382610d5b565b60108201915061377382856107f8565b915061377e82610d81565b60018201915061378d82610da7565b601c8201915061379d82846107f8565b91506137a882610dcd565b6003820191506137b782610e42565b91506137c282610eb4565b91506137cd82610ed7565b6008820191506137dc82610f4c565b91506137e782610fbe565b91506137f282611030565b91506137fd826110a2565b915061380882611114565b915061381382611137565b601c82019150613822826111ac565b915061382d8261121e565b915061383882611290565b915061384382611302565b915061384e82611374565b9150613859826113e6565b915061386482611458565b915061386f8261147b565b60018201915061387e826114f0565b915061388982611562565b9150613894826115d4565b915061389f8261147b565b6001820191506138ae826115f7565b6020820191506138bd8261166c565b91506138c88261168f565b601a820191506138d782611704565b91506138e282611776565b91506138ed82611799565b601a820191506138fc8261147b565b60018201915061390b826117bf565b60118201915061391a82611834565b915061392582611857565b601b82019150613934826118f2565b915061393f82611562565b915061394a82611964565b915061395582611a48565b915061396082611a6b565b600a8201915061396f82611ae0565b915061397a82611b78565b915061398582611b9b565b600b8201915061399482611c5c565b915061399f82611d1a565b91506139aa82611dd8565b91506139b582611e4a565b91506139c082611e6d565b601b820191506139cf82611ee2565b91506139da82611f54565b91506139e582611f77565b600f820191506139f482611fec565b91506139ff8261147b565b600182019150613a0e8261200f565b600382019150613a1d82612084565b9150613a288261211c565b9150613a338261200f565b600382019150613a42826121da565b9150613a4d826122be565b9150613a58826122e1565b602082019150613a678261237c565b9150613a72826123ee565b9150613a7d82612460565b9150613a88826124d2565b9150613a9382612544565b9150613a9e826125b6565b9150613aa982612628565b9150613ab48261269a565b9150613abf82612758565b9150613aca826127f0565b9150613ad5826128ae565b9150613ae082612920565b9150613aeb826129b8565b9150613af682612a50565b9150613b0182612ac2565b9150613b0c82612ae5565b601582019150613b1b8261147b565b600182019150613b2a82612b0b565b602082019150613b3982612b31565b601582019150613b4882612ba6565b9150613b5382612c18565b9150613b5e82612c8a565b9150613b6982612cfc565b9150613b7482612d6e565b9150613b7f82612d91565b601482019150613b8e82612db7565b600582019150613b9d82612ddd565b600582019150613bac82612e52565b9150613bb782612e75565b600982019150613bc682612eea565b9150613bd182612f5c565b9150613bdc82612ff4565b9150613be782613017565b601d82019150613bf6826130fe565b9150613c0182613121565b601182019150613c1082613196565b9150613c1b82612db7565b600582019150613c2a8261147b565b600182019150613c39826131b9565b601882019150613c488261322e565b9150613c53826132a0565b9150613c5e82613338565b9150613c698261335b565b601f82019150613c78826133d0565b9150613c83826133f3565b602082019150613c928261348e565b9150613c9d82613500565b9150613ca882613523565b601d82019150613cb7826135be565b9150613cc28261147b565b600182019150613cd18261200f565b600382019150613ce0826135e1565b600982019150613cef82613607565b600c82019150819050999850505050505050505056fea2646970667358221220c4339fb0b9abdb9b6fa80a4dc5d5f7562ac3ab44a221ef668c293157b145e40d64736f6c634300081c0033",
  "devdoc": {
    "kind": "dev",
    "methods": {},
    "version": 1
  },
  "userdoc": {
    "kind": "user",
    "methods": {},
    "version": 1
  },
  "storageLayout": {
    "storage": [],
    "types": null
  }
}