{
  "address": "0xbdbA5f0681A19Ca160835de23624677982EfD3ff",
  "abi": [
    {
      "inputs": [
        {
          "internalType": "address",
          "name": "_garden",
          "type": "address"
        }
      ],
      "stateMutability": "nonpayable",
      "type": "constructor"
    },
    {
      "inputs": [],
      "name": "garden",
      "outputs": [
        {
          "internalType": "address",
          "name": "",
          "type": "address"
        }
      ],
      "stateMutability": "view",
      "type": "function"
    },
    {
      "inputs": [],
      "name": "html",
      "outputs": [
        {
          "internalType": "string",
          "name": "",
          "type": "string"
        }
      ],
      "stateMutability": "view",
      "type": "function"
    }
  ],
  "transactionHash": "0x19f3765b4228ceceffab111f4b58e64baab979103443a14d35aa78bafb4ed796",
  "args": [
    "0x28D444f480a7ecA55F4944CFF847685c631650d6"
  ],
  "numDeployments": 10,
  "solcInputHash": "4f1f080e08ca7e16fda9204f1e7f07df",
  "bytecode": "0x60a060405234801561001057600080fd5b50604051612e16380380612e16833981810160405281019061003291906100cf565b8073ffffffffffffffffffffffffffffffffffffffff1660808173ffffffffffffffffffffffffffffffffffffffff1681525050506100fc565b600080fd5b600073ffffffffffffffffffffffffffffffffffffffff82169050919050565b600061009c82610071565b9050919050565b6100ac81610091565b81146100b757600080fd5b50565b6000815190506100c9816100a3565b92915050565b6000602082840312156100e5576100e461006c565b5b60006100f3848285016100ba565b91505092915050565b608051612ceb61012b6000396000818160b60152818161016d015281816102250152610a590152612ceb6000f3fe608060405234801561001057600080fd5b50600436106100365760003560e01c806333c34ac31461003b57806356ba88b814610059575b600080fd5b610043610077565b604051610050919061104f565b60405180910390f35b610061610a57565b60405161006e91906110b2565b60405180910390f35b606060006040518060400160405280600681526020017f3c68746d6c3e00000000000000000000000000000000000000000000000000008152509050807f000000000000000000000000000000000000000000000000000000000000000073ffffffffffffffffffffffffffffffffffffffff16634a79d50c6040518163ffffffff1660e01b8152600401600060405180830381865afa15801561011f573d6000803e3d6000fd5b505050506040513d6000823e3d601f19601f820116820180604052508101906101489190611207565b604051602001610159929190611b74565b6040516020818303038152906040529050807f000000000000000000000000000000000000000000000000000000000000000073ffffffffffffffffffffffffffffffffffffffff16634a79d50c6040518163ffffffff1660e01b8152600401600060405180830381865afa1580156101d6573d6000803e3d6000fd5b505050506040513d6000823e3d601f19601f820116820180604052508101906101ff9190611207565b60405160200161021092919061216a565b604051602081830303815290604052905060007f000000000000000000000000000000000000000000000000000000000000000073ffffffffffffffffffffffffffffffffffffffff166355735c5e6040518163ffffffff1660e01b8152600401600060405180830381865afa15801561028e573d6000803e3d6000fd5b505050506040513d6000823e3d601f19601f820116820180604052508101906102b791906123a2565b905060005b81518110156109f65760008282815181106102da576102d96123eb565b5b6020026020010151905060008173ffffffffffffffffffffffffffffffffffffffff16634a79d50c6040518163ffffffff1660e01b8152600401600060405180830381865afa158015610331573d6000803e3d6000fd5b505050506040513d6000823e3d601f19601f8201168201806040525081019061035a9190611207565b90508460405160200161036d9190612440565b604051602081830303815290604052945060008273ffffffffffffffffffffffffffffffffffffffff166328411ae16040518163ffffffff1660e01b8152600401600060405180830381865afa1580156103cb573d6000803e3d6000fd5b505050506040513d6000823e3d601f19601f820116820180604052508101906103f49190612547565b90506000815111156104c2578560405160200161041191906125b6565b604051602081830303815290604052955060005b815181101561049e576000828281518110610443576104426123eb565b5b60200260200101515103156104915786828281518110610466576104656123eb565b5b602002602001015160405160200161047f929190612602565b60405160208183030381529060405296505b8080600101915050610425565b50856040516020016104b0919061265b565b60405160208183030381529060405295505b6000825111156104f55785826040516020016104df9291906126cd565b6040516020818303038152906040529550610518565b856040516020016105069190612735565b60405160208183030381529060405295505b60008373ffffffffffffffffffffffffffffffffffffffff1663da0321cd6040518163ffffffff1660e01b8152600401600060405180830381865afa158015610565573d6000803e3d6000fd5b505050506040513d6000823e3d601f19601f8201168201806040525081019061058e91906123a2565b905060008151111561063f57866040516020016105ab9190612779565b604051602081830303815290604052965060005b815181101561061b57876105ec8383815181106105df576105de6123eb565b5b6020026020010151610a7b565b6040516020016105fd929190612602565b604051602081830303815290604052975080806001019150506105bf565b508660405160200161062d919061279f565b60405160208183030381529060405296505b60008473ffffffffffffffffffffffffffffffffffffffff16632c73dc4a6040518163ffffffff1660e01b8152600401600060405180830381865afa15801561068c573d6000803e3d6000fd5b505050506040513d6000823e3d601f19601f820116820180604052508101906106b59190612547565b905060008151111561078b57876040516020016106d29190612779565b604051602081830303815290604052975060005b8151811015610767576000828281518110610704576107036123eb565b5b602002602001015151031561075a578861073783838151811061072a576107296123eb565b5b6020026020010151610aa1565b604051602001610748929190612602565b60405160208183030381529060405298505b80806001019150506106e6565b5087604051602001610779919061279f565b60405160208183030381529060405297505b60008573ffffffffffffffffffffffffffffffffffffffff16631f1bd6926040518163ffffffff1660e01b8152600401600060405180830381865afa1580156107d8573d6000803e3d6000fd5b505050506040513d6000823e3d601f19601f820116820180604052508101906108019190611207565b90506000808773ffffffffffffffffffffffffffffffffffffffff166328411ae16040518163ffffffff1660e01b8152600401600060405180830381865afa158015610851573d6000803e3d6000fd5b505050506040513d6000823e3d601f19601f8201168201806040525081019061087a9190612547565b5111801561095f575060405160200161089290612811565b604051602081830303815290604052805190602001208773ffffffffffffffffffffffffffffffffffffffff166328411ae16040518163ffffffff1660e01b8152600401600060405180830381865afa1580156108f3573d6000803e3d6000fd5b505050506040513d6000823e3d601f19601f8201168201806040525081019061091c9190612547565b60008151811061092f5761092e6123eb565b5b60200260200101516040516020016109479190612826565b60405160208183030381529060405280519060200120145b90506000825111156109c057801561099a578982604051602001610984929190612889565b60405160208183030381529060405299506109bf565b89826040516020016109ad929190612917565b60405160208183030381529060405299505b5b896040516020016109d1919061297f565b60405160208183030381529060405299505050505050505080806001019150506102bc565b5081610a0143610ada565b610a0a42610ada565b604051602001610a1c93929190612a63565b604051602081830303815290604052915081604051602001610a3e9190612ae3565b6040516020818303038152906040529150819250505090565b7f000000000000000000000000000000000000000000000000000000000000000081565b6060610a8682610b2b565b90506002815101613078825260028203915080825250919050565b60606000610aae83610bae565b90508281604051602001610ac3929190612bc7565b604051602081830303815290604052915050919050565b60606080604051019050602081016040526000815280600019835b600115610b16578184019350600a81066030018453600a8104905080610af5575b50828203602084039350808452505050919050565b60606040519050608081016040526f30313233343536373839616263646566600f526002810190506028815260208101600060288201528260601b925060005b600115610ba757808101820184821a600f81165160018301538060041c51825360018301925060148303610ba0575050610ba7565b5050610b6b565b5050919050565b6060600082905060008151905060008082905060005b600284610bd19190612c4d565b811015610d4c577f3a00000000000000000000000000000000000000000000000000000000000000858281518110610c0c57610c0b6123eb565b5b602001015160f81c60f81b7effffffffffffffffffffffffffffffffffffffffffffffffffffffffffffff1916148015610cb057507f2f0000000000000000000000000000000000000000000000000000000000000085600183610c709190612c81565b81518110610c8157610c806123eb565b5b602001015160f81c60f81b7effffffffffffffffffffffffffffffffffffffffffffffffffffffffffffff1916145b8015610d2657507f2f0000000000000000000000000000000000000000000000000000000000000085600283610ce69190612c81565b81518110610cf757610cf66123eb565b5b602001015160f81c60f81b7effffffffffffffffffffffffffffffffffffffffffffffffffffffffffffff1916145b15610d3f57600381610d389190612c81565b9250610d4c565b8080600101915050610bc4565b5060008290505b83811015610e40577f3f00000000000000000000000000000000000000000000000000000000000000858281518110610d8f57610d8e6123eb565b5b602001015160f81c60f81b7effffffffffffffffffffffffffffffffffffffffffffffffffffffffffffff19161480610e2657507f2300000000000000000000000000000000000000000000000000000000000000858281518110610df757610df66123eb565b5b602001015160f81c60f81b7effffffffffffffffffffffffffffffffffffffffffffffffffffffffffffff1916145b15610e3357809150610e40565b8080600101915050610d53565b508181118015610eba57507f2f0000000000000000000000000000000000000000000000000000000000000084600183610e7a9190612c4d565b81518110610e8b57610e8a6123eb565b5b602001015160f81c60f81b7effffffffffffffffffffffffffffffffffffffffffffffffffffffffffffff1916145b15610ecf57600181610ecc9190612c4d565b90505b60008282610edd9190612c4d565b67ffffffffffffffff811115610ef657610ef56110eb565b5b6040519080825280601f01601f191660200182016040528015610f285781602001600182028036833780820191505090505b50905060008390505b82811015610fb157858181518110610f4c57610f4b6123eb565b5b602001015160f81c60f81b828583610f649190612c4d565b81518110610f7557610f746123eb565b5b60200101907effffffffffffffffffffffffffffffffffffffffffffffffffffffffffffff1916908160001a9053508080600101915050610f31565b508095505050505050919050565b600081519050919050565b600082825260208201905092915050565b60005b83811015610ff9578082015181840152602081019050610fde565b60008484015250505050565b6000601f19601f8301169050919050565b600061102182610fbf565b61102b8185610fca565b935061103b818560208601610fdb565b61104481611005565b840191505092915050565b600060208201905081810360008301526110698184611016565b905092915050565b600073ffffffffffffffffffffffffffffffffffffffff82169050919050565b600061109c82611071565b9050919050565b6110ac81611091565b82525050565b60006020820190506110c760008301846110a3565b92915050565b6000604051905090565b600080fd5b600080fd5b600080fd5b600080fd5b7f4e487b7100000000000000000000000000000000000000000000000000000000600052604160045260246000fd5b61112382611005565b810181811067ffffffffffffffff82111715611142576111416110eb565b5b80604052505050565b60006111556110cd565b9050611161828261111a565b919050565b600067ffffffffffffffff821115611181576111806110eb565b5b61118a82611005565b9050602081019050919050565b60006111aa6111a584611166565b61114b565b9050828152602081018484840111156111c6576111c56110e6565b5b6111d1848285610fdb565b509392505050565b600082601f8301126111ee576111ed6110e1565b5b81516111fe848260208601611197565b91505092915050565b60006020828403121561121d5761121c6110d7565b5b600082015167ffffffffffffffff81111561123b5761123a6110dc565b5b611247848285016111d9565b91505092915050565b600081905092915050565b600061126682610fbf565b6112708185611250565b9350611280818560208601610fdb565b80840191505092915050565b7f3c686561643e0000000000000000000000000000000000000000000000000000815250565b7f3c6d65746120636861727365743d225554462d38223e00000000000000000000815250565b7f3c6d657461206e616d653d2276696577706f72742220636f6e74656e743d227760008201527f696474683d6465766963652d77696474682c20696e697469616c2d7363616c6560208201527f3d312e30223e0000000000000000000000000000000000000000000000000000604082015250565b600061135a604683611250565b9150611365826112d8565b604682019050919050565b7f3c7469746c653e00000000000000000000000000000000000000000000000000815250565b7f3c2f7469746c653e000000000000000000000000000000000000000000000000815250565b7f3c2f686561643e00000000000000000000000000000000000000000000000000815250565b7f3c7374796c653e00000000000000000000000000000000000000000000000000815250565b7f2a2c202a3a3a6265666f72652c202a3a3a6166746572207b20626f782d73697a60008201527f696e673a20626f726465722d626f783b207d0000000000000000000000000000602082015250565b6000611464603283611250565b915061146f82611408565b603282019050919050565b7f68746d6c207b202d6d6f7a2d746578742d73697a652d61646a7573743a206e6f60008201527f6e653b202d7765626b69742d746578742d73697a652d61646a7573743a206e6f60208201527f6e653b20746578742d73697a652d61646a7573743a206e6f6e653b207d000000604082015250565b60006114fc605d83611250565b91506115078261147a565b605d82019050919050565b7f68746d6c2c20626f6479207b206d617267696e3a20303b2070616464696e673a60008201527f20303b207d20626f6479207b206d696e2d6865696768743a203130307668207d602082015250565b600061156e604083611250565b915061157982611512565b604082019050919050565b7f68746d6c2c626f64792c707265207b20666f6e742d66616d696c793a2022436f60008201527f7572696572204e6577222c2022436f7572696572222c206d6f6e6f737061636560208201527f3b20666f6e742d73697a653a20313570783b207d000000000000000000000000604082015250565b6000611606605483611250565b915061161182611584565b605482019050919050565b7f68312c68322c6833207b206d617267696e3a20303b20666f6e742d73697a653a60008201527f20696e68657269743b20666f6e742d7374796c653a20696e68657269743b206660208201527f6f6e742d7765696768743a20696e68657269743b7d0000000000000000000000604082015250565b600061169e605583611250565b91506116a98261161c565b605582019050919050565b7f2e63207b206d61782d77696474683a2038343070783b206d617267696e3a203560008201527f656d206175746f3b2070616464696e673a20312e35656d3b207d000000000000602082015250565b6000611710603a83611250565b915061171b826116b4565b603a82019050919050565b7f406d656469612073637265656e20616e6420286d61782d77696474683a20373660008201527f30707829207b202e63207b206d617267696e3a20322e35656d206175746f3b2060208201527f7d207d0000000000000000000000000000000000000000000000000000000000604082015250565b60006117a8604383611250565b91506117b382611726565b604382019050919050565b7f61207b20636f6c6f723a20696e68657269743b20746578742d6465636f72617460008201527f696f6e3a20756e6465726c696e653b207d000000000000000000000000000000602082015250565b600061181a603183611250565b9150611825826117be565b603182019050919050565b7f2e77207b206d696e2d6865696768743a2031303076683b20646973706c61793a60008201527f20666c65783b20616c69676e2d6974656d733a2063656e7465723b20626f782d60208201527f73697a696e673a20626f726465722d626f783b2070616464696e673a2031306560408201527f6d20303b207d0000000000000000000000000000000000000000000000000000606082015250565b60006118d8606683611250565b91506118e382611830565b606682019050919050565b7f2e73207b2077696474683a20313030253b206d61782d77696474683a2038343060008201527f70783b207d000000000000000000000000000000000000000000000000000000602082015250565b600061194a602583611250565b9150611955826118ee565b602582019050919050565b7f2e732061207b20746578742d6465636f726174696f6e3a206e6f6e653b206d6160008201527f782d77696474683a20313030253b20646973706c61793a20696e6c696e652d6260208201527f6c6f636b3b2077686974652d73706163653a206e6f777261703b206f7665726660408201527f6c6f773a2068696464656e3b20746578742d6f766572666c6f773a20656c6c6960608201527f707369733b207d00000000000000000000000000000000000000000000000000608082015250565b6000611a2e608783611250565b9150611a3982611960565b608782019050919050565b7f2e74207b206d61782d77696474683a20313030253b206f766572666c6f772d7860008201527f3a207363726f6c6c3b207d000000000000000000000000000000000000000000602082015250565b6000611aa0602b83611250565b9150611aab82611a44565b602b82019050919050565b7f2e69207b206d617267696e3a203530766820302035656d3b207d000000000000815250565b7f7072652e67617264656e207b206c696e652d6865696768743a20312e333b206660008201527f6f6e742d73697a653a20312e3272656d3b7d0000000000000000000000000000602082015250565b6000611b38603283611250565b9150611b4382611adc565b603282019050919050565b7f3c2f7374796c653e000000000000000000000000000000000000000000000000815250565b6000611b80828561125b565b9150611b8b8261128c565b600682019150611b9a826112b2565b601682019150611ba98261134d565b9150611bb482611370565b600782019150611bc4828461125b565b9150611bcf82611396565b600882019150611bde826113bc565b600782019150611bed826113e2565b600782019150611bfc82611457565b9150611c07826114ef565b9150611c1282611561565b9150611c1d826115f9565b9150611c2882611691565b9150611c3382611703565b9150611c3e8261179b565b9150611c498261180d565b9150611c54826118cb565b9150611c5f8261193d565b9150611c6a82611a21565b9150611c7582611a93565b9150611c8082611ab6565b601a82019150611c8f82611b2b565b9150611c9a82611b4e565b6008820191508190509392505050565b7f3c626f64793e0000000000000000000000000000000000000000000000000000815250565b7f3c64697620636c6173733d2263223e0000000000000000000000000000000000815250565b7f3c70726520636c6173733d2267617264656e223e000000000000000000000000815250565b7f2020202020e29a980a0000000000000000000000000000000000000000000000815250565b7f2020202020202020202020202020e29a98202020202020202020e29a980a0000815250565b7f2020202020202020e29a980a0000000000000000000000000000000000000000815250565b7f202020202020202020202020202020202020202020e29a982020202020e29a9860008201527f0a00000000000000000000000000000000000000000000000000000000000000602082015250565b6000611dea602183611250565b9150611df582611d8e565b602182019050919050565b7f202020202020e29a982020202020202020e29a980a0000000000000000000000815250565b7f2020202020202020202020202020202020202020202020e29a980a0000000000815250565b7f202020202020202020202020e29a980a00000000000000000000000000000000815250565b7f202020202020202020203c2f7072653e00000000000000000000000000000000815250565b7f3c62723e3c62723e000000000000000000000000000000000000000000000000815250565b7f3c68313e00000000000000000000000000000000000000000000000000000000815250565b7f3c2f68313e3c6272202f3e3c6272202f3e000000000000000000000000000000815250565b7f3c703e0000000000000000000000000000000000000000000000000000000000815250565b7f4120636f6e74726163742073686f77206f7267616e697a656420627920000000815250565b7f3c6120687265663d2268747470733a2f2f30786666662e6c6f7665222074617260008201527f6765743d225f626c616e6b222072656c3d226e6f6f70656e6572206e6f72656660208201527f6572726572223e30786666663c2f613e3c6272202f3e7769746820737065636960408201527f616c207468616e6b7320746f2000000000000000000000000000000000000000606082015250565b6000611ffe606d83611250565b915061200982611f56565b606d82019050919050565b7f3c6120687265663d2268747470733a2f2f782e636f6d2f7373736c756b65312260008201527f207461726765743d225f626c616e6b222072656c3d226e6f6f70656e6572206e60208201527f6f7265666572726572223e7373736c756b653c2f613e20616e64203c6120687260408201527f65663d2268747470733a2f2f782e636f6d2f307831313364222072656c3d226e60608201527f6f6f70656e6572206e6f726566657272657222207461726765743d225f626c6160808201527f6e6b223e3131333c2f613e00000000000000000000000000000000000000000060a082015250565b600061210860ab83611250565b915061211382612014565b60ab82019050919050565b7f3c2f703e00000000000000000000000000000000000000000000000000000000815250565b7f3c6272202f3e0000000000000000000000000000000000000000000000000000815250565b6000612176828561125b565b915061218182611caa565b60068201915061219082611cd0565b600f8201915061219f82611cf6565b6014820191506121ae82611d1c565b6009820191506121bd82611d42565b601e820191506121cc82611d68565b600c820191506121db82611ddd565b91506121e682611e00565b6015820191506121f582611e26565b601b8201915061220482611e4c565b60108201915061221382611e72565b60108201915061222282611e98565b60088201915061223182611ebe565b600482019150612241828461125b565b915061224c82611ee4565b60118201915061225b82611f0a565b60038201915061226a82611f30565b601d8201915061227982611ff1565b9150612284826120fb565b915061228f8261211e565b60048201915061229e82612144565b6006820191508190509392505050565b600067ffffffffffffffff8211156122c9576122c86110eb565b5b602082029050602081019050919050565b600080fd5b6122e881611091565b81146122f357600080fd5b50565b600081519050612305816122df565b92915050565b600061231e612319846122ae565b61114b565b90508083825260208201905060208402830185811115612341576123406122da565b5b835b8181101561236a578061235688826122f6565b845260208401935050602081019050612343565b5050509392505050565b600082601f830112612389576123886110e1565b5b815161239984826020860161230b565b91505092915050565b6000602082840312156123b8576123b76110d7565b5b600082015167ffffffffffffffff8111156123d6576123d56110dc565b5b6123e284828501612374565b91505092915050565b7f4e487b7100000000000000000000000000000000000000000000000000000000600052603260045260246000fd5b7f3c64697620636c6173733d2277223e3c64697620636c6173733d2273223e0000815250565b600061244c828461125b565b91506124578261241a565b601e8201915081905092915050565b600067ffffffffffffffff821115612481576124806110eb565b5b602082029050602081019050919050565b60006124a56124a084612466565b61114b565b905080838252602082019050602084028301858111156124c8576124c76122da565b5b835b8181101561250f57805167ffffffffffffffff8111156124ed576124ec6110e1565b5b8086016124fa89826111d9565b855260208501945050506020810190506124ca565b5050509392505050565b600082601f83011261252e5761252d6110e1565b5b815161253e848260208601612492565b91505092915050565b60006020828403121561255d5761255c6110d7565b5b600082015167ffffffffffffffff81111561257b5761257a6110dc565b5b61258784828501612519565b91505092915050565b7f3c68323e00000000000000000000000000000000000000000000000000000000815250565b60006125c2828461125b565b91506125cd82612590565b60048201915081905092915050565b7f3c62722f3e000000000000000000000000000000000000000000000000000000815250565b600061260e828561125b565b915061261a828461125b565b9150612625826125dc565b6005820191508190509392505050565b7f3c2f68323e000000000000000000000000000000000000000000000000000000815250565b6000612667828461125b565b915061267282612635565b60058201915081905092915050565b7f3c68333e3c693e00000000000000000000000000000000000000000000000000815250565b7f3c2f693e3c2f68333e0000000000000000000000000000000000000000000000815250565b60006126d9828561125b565b91506126e482612681565b6007820191506126f4828461125b565b91506126ff826126a7565b6009820191508190509392505050565b7f556e7469746c6564000000000000000000000000000000000000000000000000815250565b6000612741828461125b565b915061274c82612681565b60078201915061275b8261270f565b60088201915061276a826126a7565b60098201915081905092915050565b6000612785828461125b565b915061279082611f0a565b60038201915081905092915050565b60006127ab828461125b565b91506127b68261211e565b60048201915081905092915050565b7f536172616820467269656e640000000000000000000000000000000000000000600082015250565b60006127fb600c83611250565b9150612806826127c5565b600c82019050919050565b600061281c826127ee565b9150819050919050565b6000612832828461125b565b915081905092915050565b7f3c64697620636c6173733d2274223e3c7072653e000000000000000000000000815250565b7f3c2f7072653e3c2f6469763e0000000000000000000000000000000000000000815250565b6000612895828561125b565b91506128a08261283d565b6014820191506128b0828461125b565b91506128bb82612863565b600c820191508190509392505050565b7f3c64697620636c6173733d2274223e3c703e0000000000000000000000000000815250565b7f3c2f703e3c2f6469763e00000000000000000000000000000000000000000000815250565b6000612923828561125b565b915061292e826128cb565b60128201915061293e828461125b565b9150612949826128f1565b600a820191508190509392505050565b7f3c2f6469763e3c2f6469763e0000000000000000000000000000000000000000815250565b600061298b828461125b565b915061299682612959565b600c8201915081905092915050565b7f3c64697620636c6173733d2269223e47656e65726174656420617420626c6f6360008201527f6b20000000000000000000000000000000000000000000000000000000000000602082015250565b6000612a01602283611250565b9150612a0c826129a5565b602282019050919050565b7f2028000000000000000000000000000000000000000000000000000000000000815250565b7f293c2f6469763e00000000000000000000000000000000000000000000000000815250565b6000612a6f828661125b565b9150612a7a826129f4565b9150612a86828561125b565b9150612a9182612a17565b600282019150612aa1828461125b565b9150612aac82612a3d565b600782019150819050949350505050565b7f3c2f6469763e3c2f626f64793e3c2f68746d6c3e000000000000000000000000815250565b6000612aef828461125b565b9150612afa82612abd565b60148201915081905092915050565b7f3c6120687265663d220000000000000000000000000000000000000000000000815250565b7f22207461726765743d225f626c616e6b222072656c3d226e6f6f70656e65722060008201527f6e6f7265666572726572223e0000000000000000000000000000000000000000602082015250565b6000612b8b602c83611250565b9150612b9682612b2f565b602c82019050919050565b7f3c2f613e00000000000000000000000000000000000000000000000000000000815250565b6000612bd282612b09565b600982019150612be2828561125b565b9150612bed82612b7e565b9150612bf9828461125b565b9150612c0482612ba1565b6004820191508190509392505050565b6000819050919050565b7f4e487b7100000000000000000000000000000000000000000000000000000000600052601160045260246000fd5b6000612c5882612c14565b9150612c6383612c14565b9250828203905081811115612c7b57612c7a612c1e565b5b92915050565b6000612c8c82612c14565b9150612c9783612c14565b9250828201905080821115612caf57612cae612c1e565b5b9291505056fea26469706673582212202db36ccab7a660e1a71318e355e0b0bcbc0204732a69c1b814d5e7bc01d094d464736f6c634300081b0033",
  "devdoc": {
    "kind": "dev",
    "methods": {},
    "version": 1
  },
  "userdoc": {
    "kind": "user",
    "methods": {},
    "version": 1
  },
  "storageLayout": {
    "storage": [],
    "types": null
  }
}