{
  "address": "0xF18bae21ef169d45aA15fB52122B559e10bfab0F",
  "abi": [
    {
      "inputs": [
        {
          "internalType": "address",
          "name": "garden",
          "type": "address"
        }
      ],
      "name": "html",
      "outputs": [
        {
          "internalType": "string",
          "name": "html",
          "type": "string"
        }
      ],
      "stateMutability": "view",
      "type": "function"
    }
  ],
  "transactionHash": "0x33852a4db4e0b8f4b01dd9057fb9b53f0e0ecda18a7308b866ec89a9475246e6",
  "args": [],
  "numDeployments": 1,
  "solcInputHash": "82e76e0d6fa7fac9758e7e90de20a595",
  "bytecode": "0x6131ad610052600b82828239805160001a6073146045577f4e487b7100000000000000000000000000000000000000000000000000000000600052600060045260246000fd5b30600052607381538281f3fe73000000000000000000000000000000000000000030146080604052600436106100355760003560e01c8063ec34c7a81461003a575b600080fd5b610054600480360381019061004f91906104b8565b61006a565b6040516100619190610575565b60405180910390f35b606060008273ffffffffffffffffffffffffffffffffffffffff16630a8ee81d6040518163ffffffff1660e01b8152600401602060405180830381865afa1580156100b9573d6000803e3d6000fd5b505050506040513d601f19601f820116820180604052508101906100dd91906105cd565b905060008373ffffffffffffffffffffffffffffffffffffffff1663706e3da26040518163ffffffff1660e01b8152600401602060405180830381865afa15801561012c573d6000803e3d6000fd5b505050506040513d601f19601f8201168201806040525081019061015091906105cd565b90508261015c856102e1565b6101658461035b565b600185146101a8576040518060400160405280600c81526020017f20677565737473206861766500000000000000000000000000000000000000008152506101df565b6040518060400160405280600a81526020017f20677565737420686173000000000000000000000000000000000000000000008152505b6101e88561035b565b6001861461022b576040518060400160405280600181526020017f730000000000000000000000000000000000000000000000000000000000000081525061023c565b604051806020016040528060008152505b6102b38a73ffffffffffffffffffffffffffffffffffffffff1663706e3da26040518163ffffffff1660e01b8152600401602060405180830381865afa15801561028a573d6000803e3d6000fd5b505050506040513d601f19601f820116820180604052508101906102ae91906105cd565b61035b565b6040516020016102c99796959493929190612c10565b60405160208183030381529060405292505050919050565b60606102ec826103ac565b905060ff6000190460061b60228201816022026028822016608860f01b60005b60011561032b5782811a8202818201526001810190506014810361030c575b50838351166000511660011c8351188352602083019250838351166020511660011c835118835250505050919050565b60606080604051019050602081016040526000815280600019835b600115610397578184019350600a81066030018453600a8104905080610376575b50828203602084039350808452505050919050565b60606103b7826103d2565b90506002815101613078825260028203915080825250919050565b60606040519050608081016040526f30313233343536373839616263646566600f526002810190506028815260208101600060288201528260601b925060005b60011561044e57808101820184821a600f81165160018301538060041c5182536001830192506014830361044757505061044e565b5050610412565b5050919050565b600080fd5b600073ffffffffffffffffffffffffffffffffffffffff82169050919050565b60006104858261045a565b9050919050565b6104958161047a565b81146104a057600080fd5b50565b6000813590506104b28161048c565b92915050565b6000602082840312156104ce576104cd610455565b5b60006104dc848285016104a3565b91505092915050565b600081519050919050565b600082825260208201905092915050565b60005b8381101561051f578082015181840152602081019050610504565b60008484015250505050565b6000601f19601f8301169050919050565b6000610547826104e5565b61055181856104f0565b9350610561818560208601610501565b61056a8161052b565b840191505092915050565b6000602082019050818103600083015261058f818461053c565b905092915050565b6000819050919050565b6105aa81610597565b81146105b557600080fd5b50565b6000815190506105c7816105a1565b92915050565b6000602082840312156105e3576105e2610455565b5b60006105f1848285016105b8565b91505092915050565b600081905092915050565b6000610610826104e5565b61061a81856105fa565b935061062a818560208601610501565b80840191505092915050565b7f3c64697620636c6173733d2277223e3c64697620636c6173733d2273223e0000815250565b7f3c6469762069643d226669656c64312220636c6173733d226669656c64223e3c60008201527f2f6469763e3c62722f3e3c62722f3e3c62722f3e000000000000000000000000602082015250565b60006106b86034836105fa565b91506106c38261065c565b603482019050919050565b7f3c70207374796c653d22746578742d616c69676e3a63656e7465723b223e0000815250565b7f4775657374626f6f6b0000000000000000000000000000000000000000000000815250565b7f3c62722f3e3c62722f3e00000000000000000000000000000000000000000000815250565b7f596f75206d6179206c65617665206120666c6f7765722068657265206279207360008201527f656e64696e6720302e30312045544820286f72206d756c7469706c657320746860208201527f6572656f66293c62722f3e20746f207468652073686f7720636f6e747261637460408201527f206174203c7370616e20636c6173733d2261223e000000000000000000000000606082015250565b60006107e86074836105fa565b91506107f382610740565b607482019050919050565b7f3c2f7370616e3e3c62722f3e3c62722f3e000000000000000000000000000000815250565b7f20706c616e746564200000000000000000000000000000000000000000000000815250565b7f20666c6f77657200000000000000000000000000000000000000000000000000815250565b7f3c2f703e3c62722f3e3c62722f3e3c62722f3e00000000000000000000000000815250565b7f3c6469762069643d226669656c64322220636c6173733d226669656c64223e3c60008201527f2f6469763e000000000000000000000000000000000000000000000000000000602082015250565b60006108f26025836105fa565b91506108fd82610896565b602582019050919050565b7f3c7374796c653e2e746f6f6c746970207b20666f6e742d73697a653a20302e3860008201527f656d3b206261636b67726f756e643a2077686974653b20626f726465723a203160208201527f707820736f6c696420626c61636b3b2070616464696e673a20302e35656d3b2060408201527f77696474683a2032323070783b207d0000000000000000000000000000000000606082015250565b60006109b0606f836105fa565b91506109bb82610908565b606f82019050919050565b7f2e746f6f6c7469702e72207b20746578742d616c69676e3a2072696768743b2060008201527f7d00000000000000000000000000000000000000000000000000000000000000602082015250565b6000610a226021836105fa565b9150610a2d826109c6565b602182019050919050565b7f2e746f6f6c746970202e61646472657373207b206f766572666c6f772d77726160008201527f703a20627265616b2d776f72643b207d00000000000000000000000000000000602082015250565b6000610a946030836105fa565b9150610a9f82610a38565b603082019050919050565b7f3c2f7374796c653e000000000000000000000000000000000000000000000000815250565b7f3c7363726970743e000000000000000000000000000000000000000000000000815250565b7f282829203d3e207b000000000000000000000000000000000000000000000000815250565b7f636f6e737420666c6f77657273203d2000000000000000000000000000000000815250565b7f3b66756e6374696f6e2063616c63756c6174655468726573686f6c6428706c6160008201527f6e74656429207b00000000000000000000000000000000000000000000000000602082015250565b6000610b9e6027836105fa565b9150610ba982610b42565b602782019050919050565b7f636f6e7374206d696e203d2033302c206d6178203d20333030302c206c6f776560008201527f72203d20302e39392c20686967686572203d20302e363b000000000000000000602082015250565b6000610c106037836105fa565b9150610c1b82610bb4565b603782019050919050565b7f69662028706c616e746564203c3d206d696e292072657475726e206c6f77657260008201527f3b00000000000000000000000000000000000000000000000000000000000000602082015250565b6000610c826021836105fa565b9150610c8d82610c26565b602182019050919050565b7f69662028706c616e746564203e3d206d6178292072657475726e20686967686560008201527f723b000000000000000000000000000000000000000000000000000000000000602082015250565b6000610cf46022836105fa565b9150610cff82610c98565b602282019050919050565b7f636f6e7374206e6f726d616c697a6564203d2028706c616e746564202d206d6960008201527f6e29202f20286d6178202d206d696e293b000000000000000000000000000000602082015250565b6000610d666031836105fa565b9150610d7182610d0a565b603182019050919050565b7f636f6e7374206c6f6756616c7565203d204d6174682e6c6f6731302831202b2060008201527f6e6f726d616c697a6564202a20283130202d203129293b000000000000000000602082015250565b6000610dd86037836105fa565b9150610de382610d7c565b603782019050919050565b7f72657475726e20686967686572202b20286c6f776572202d206869676865722960008201527f202a202831202d206c6f6756616c7565293b0000000000000000000000000000602082015250565b6000610e4a6032836105fa565b9150610e5582610dee565b603282019050919050565b7f7d00000000000000000000000000000000000000000000000000000000000000815250565b7f66756e6374696f6e206973436f6e646974696f6e4d657428706c616e7465642c60008201527f2076616c29207b00000000000000000000000000000000000000000000000000602082015250565b6000610ee26027836105fa565b9150610eed82610e86565b602782019050919050565b7f636f6e7374207468726573686f6c64203d2063616c63756c617465546872657360008201527f686f6c6428706c616e746564293b000000000000000000000000000000000000602082015250565b6000610f54602e836105fa565b9150610f5f82610ef8565b602e82019050919050565b7f72657475726e2076616c203e207468726573686f6c64207c7c2076616c203c2060008201527f2d7468726573686f6c643b000000000000000000000000000000000000000000602082015250565b6000610fc6602b836105fa565b9150610fd182610f6a565b602b82019050919050565b7f66756e6374696f6e20677269644e6f69736528782c207a2c207365656429207b815250565b7f20202020766172206e203d202831363139202a2078202b203331333337202a2060008201527f7a202b2031303133202a207365656429202620307837666666666666663b0000602082015250565b600061105e603e836105fa565b915061106982611002565b603e82019050919050565b7f202020206e203d20426967496e7428286e203e3e20313329205e206e293b0000815250565b7f202020206e203d206e202a20286e202a206e202a2036303439336e202b20313960008201527f3939303330336e29202b20313337363331323538396e3b000000000000000000602082015250565b60006110f66037836105fa565b91506111018261109a565b603782019050919050565b7f202020206e203d207061727365496e74286e2e746f537472696e672832292e7360008201527f6c696365282d3331292c2032293b000000000000000000000000000000000000602082015250565b6000611168602e836105fa565b91506111738261110c565b602e82019050919050565b7f2020202072657475726e2031202d206e202f20313037333734313832343b0000815250565b7f636f6e7374207769647468203d2039303b000000000000000000000000000000815250565b7f6c6574206c696e6573203d205b22225d2c20636f756e746572203d20302c207060008201527f6c616e746564203d20303b000000000000000000000000000000000000000000602082015250565b6000611226602b836105fa565b9150611231826111ca565b602b82019050919050565b7f7768696c652028706c616e746564203c20666c6f7765727329207b0000000000815250565b7f20202020636f6e73742076616c203d20677269644e6f69736528636f756e746560008201527f7220252077696474682c204d6174682e666c6f6f7228636f756e746572202f2060208201527f7769647468292c20307866293b00000000000000000000000000000000000000604082015250565b60006112e4604d836105fa565b91506112ef82611262565b604d82019050919050565b7f20202020696620286973436f6e646974696f6e4d657428706c616e7465642c2060008201527f76616c2900000000000000000000000000000000000000000000000000000000602082015250565b60006113566024836105fa565b9150611361826112fa565b602482019050919050565b7f29207b0000000000000000000000000000000000000000000000000000000000815250565b7f20202020202020206c696e65735b4d6174682e666c6f6f7228636f756e74657260008201527f202f207769647468295d202b3d20603c6120687265663d2223247b706c616e7460208201527f65642b317d222069643d22666c6f7765722d247b706c616e7465642b317d222060408201527f7374796c653d22706f736974696f6e3a72656c61746976653b2220646174612d60608201527f666c6f7765722d69643d22247b706c616e7465642b317d223ee29a983c2f613e60808201527f603b00000000000000000000000000000000000000000000000000000000000060a082015250565b600061148660a2836105fa565b915061149182611392565b60a282019050919050565b7f706c616e7465642b2b3b00000000000000000000000000000000000000000000815250565b7f202020207d20656c7365207b206c696e65735b4d6174682e666c6f6f7228636f60008201527f756e746572202f207769647468295d202b3d202220223b207d00000000000000602082015250565b600061151e6039836105fa565b9150611529826114c2565b603982019050919050565b7f2020202069662028636f756e7465722025207769647468203d3d20287769647460008201527f682d312920262620706c616e746564203c20666c6f7765727329207b206c696e60208201527f65732e70757368282222293b207d000000000000000000000000000000000000604082015250565b60006115b6604e836105fa565b91506115c182611534565b604e82019050919050565b7f20202020636f756e7465722b2b3b7d0000000000000000000000000000000000815250565b7f6c696e6573203d206c696e65732e72656475636528286163632c206c696e652960008201527f203d3e207b20696620286c696e652e7472696d28292e6c656e677468203e203060208201527f29206163632e70757368286c696e65293b2072657475726e206163633b207d2c60408201527f205b5d293b000000000000000000000000000000000000000000000000000000606082015250565b600061169a6065836105fa565b91506116a5826115f2565b606582019050919050565b7f646f63756d656e742e717565727953656c6563746f722822236669656c64312260008201527f292e696e6e657248544d4c203d206c696e65732e736c69636528302c4d61746860208201527f2e6d696e28372c4d6174682e6365696c286c696e65732e6c656e6774682f322960408201527f29292e6a6f696e28225c6e22293b000000000000000000000000000000000000606082015250565b6000611758606e836105fa565b9150611763826116b0565b606e82019050919050565b7f646f63756d656e742e717565727953656c6563746f722822236669656c64322260008201527f292e696e6e657248544d4c203d206c696e65732e736c696365284d6174682e6d60208201527f696e28372c4d6174682e6365696c286c696e65732e6c656e6774682f3229292960408201527f2e6a6f696e28225c6e22293b0000000000000000000000000000000000000000606082015250565b6000611816606c836105fa565b91506118218261176e565b606c82019050919050565b7f636f6e737420666c6f776572456c73203d20646f63756d656e742e717565727960008201527f53656c6563746f72416c6c28222e6669656c64206122293b0000000000000000602082015250565b60006118886038836105fa565b91506118938261182c565b603882019050919050565b7f666c6f776572456c732e666f72456163682828656c29203d3e207b0000000000815250565b7f202020656c2e6164644576656e744c697374656e657228226d6f757365656e7460008201527f6572222c20286529203d3e207b00000000000000000000000000000000000000602082015250565b6000611920602d836105fa565b915061192b826118c4565b602d82019050919050565b7f20202020202020636f6e737420666c6f7765724964203d20652e74617267657460008201527f2e646174617365742e666c6f77657249643b0000000000000000000000000000602082015250565b60006119926032836105fa565b915061199d82611936565b603282019050919050565b7f2020202020202069662028666c6f776572496429207b00000000000000000000815250565b7f2020202020202020202020652e70726576656e7444656661756c7428293b202060008201527f20202020202020202073686f77546f6f6c74697028666c6f7765724964293b00602082015250565b6000611a2a603f836105fa565b9150611a35826119ce565b603f82019050919050565b7f202020202020207d000000000000000000000000000000000000000000000000815250565b7f2020207d293b0000000000000000000000000000000000000000000000000000815250565b7f202020656c2e6164644576656e744c697374656e657228226d6f7573656c656160008201527f7665222c20286529203d3e207b00000000000000000000000000000000000000602082015250565b6000611ae8602d836105fa565b9150611af382611a8c565b602d82019050919050565b7f2020202020202020646f63756d656e742e717565727953656c6563746f72416c60008201527f6c28222e746f6f6c74697022292e666f72456163682828656c29203d3e20656c60208201527f2e72656d6f76652829293b000000000000000000000000000000000000000000604082015250565b6000611b80604b836105fa565b9150611b8b82611afe565b604b82019050919050565b7f7d293b77696e646f772e6164644576656e744c697374656e657228227265736960008201527f7a65222c202829203d3e20646f63756d656e742e717565727953656c6563746f60208201527f72416c6c28222e746f6f6c74697022292e666f72456163682828656c29203d3e60408201527f20656c2e72656d6f7665282929293b0000000000000000000000000000000000606082015250565b6000611c3e606f836105fa565b9150611c4982611b96565b606f82019050919050565b7f646f63756d656e742e717565727953656c6563746f72416c6c28222e6669656c60008201527f6422292e666f72456163682828656c29203d3e20656c2e6164644576656e744c60208201527f697374656e657228227363726f6c6c222c202829203d3e20646f63756d656e7460408201527f2e717565727953656c6563746f72416c6c28222e746f6f6c74697022292e666f60608201527f72456163682828656c29203d3e20656c2e72656d6f766528292929293b000000608082015250565b6000611d22609d836105fa565b9150611d2d82611c54565b609d82019050919050565b7f66756e6374696f6e2073686f77546f6f6c74697028666c6f776572496429207b815250565b7f20202020646f63756d656e742e717565727953656c6563746f72416c6c28222e60008201527f746f6f6c74697022292e666f72456163682828656c29203d3e20656c2e72656d60208201527f6f76652829293b00000000000000000000000000000000000000000000000000604082015250565b6000611de06047836105fa565b9150611deb82611d5e565b604782019050919050565b7f20202020636f6e737420746f6f6c746970203d20646f63756d656e742e63726560008201527f617465456c656d656e74282264697622293b0000000000000000000000000000602082015250565b6000611e526032836105fa565b9150611e5d82611df6565b603282019050919050565b7f20202020746f6f6c7469702e636c6173734c6973742e6164642822746f6f6c7460008201527f697022293b000000000000000000000000000000000000000000000000000000602082015250565b6000611ec46025836105fa565b9150611ecf82611e68565b602582019050919050565b7f20202020746f6f6c7469702e6964203d2022746f6f6c74697022202b20666c6f60008201527f77657249643b0000000000000000000000000000000000000000000000000000602082015250565b6000611f366026836105fa565b9150611f4182611eda565b602682019050919050565b7f20202020746f6f6c7469702e696e6e657248544d4c203d20604c6f6164696e6760008201527f20466c6f7765722023247b666c6f77657249647d202e2e2e603b000000000000602082015250565b6000611fa8603a836105fa565b9150611fb382611f4c565b603a82019050919050565b7f20202020746f6f6c7469702e7374796c652e706f736974696f6e203d2022616260008201527f736f6c757465223b000000000000000000000000000000000000000000000000602082015250565b600061201a6028836105fa565b915061202582611fbe565b602882019050919050565b7f20202020636f6e737420666c6f776572203d20646f63756d656e742e6765744560008201527f6c656d656e74427949642822666c6f7765722d22202b20666c6f77657249642960208201527f3b00000000000000000000000000000000000000000000000000000000000000604082015250565b60006120b26041836105fa565b91506120bd82612030565b604182019050919050565b7f20202020636f6e737420636c69656e7452656374203d20666c6f7765722e676560008201527f74426f756e64696e67436c69656e745265637428293b00000000000000000000602082015250565b60006121246036836105fa565b915061212f826120c8565b603682019050919050565b7f20202020746f6f6c7469702e7374796c652e746f70203d20636c69656e74526560008201527f63742e746f70202b20646f63756d656e742e626f64792e7363726f6c6c546f7060208201527f202b20666c6f7765722e636c69656e74486569676874202b20227078223b0000604082015250565b60006121bc605e836105fa565b91506121c78261213a565b605e82019050919050565b7f20202020636f6e7374206c656674506f73203d20636c69656e74526563742e6c60008201527f656674202b20646f63756d656e742e626f64792e7363726f6c6c4c6566743b00602082015250565b600061222e603f836105fa565b9150612239826121d2565b603f82019050919050565b7f20202020746f6f6c7469702e7374796c652e6c656674203d206c656674506f7360008201527f203e2077696e646f772e696e6e65725769647468202d20323530203f206c656660208201527f74506f73202d20323230202b2022707822203a206c656674506f73202b20227060408201527f78223b0000000000000000000000000000000000000000000000000000000000606082015250565b60006122ec6063836105fa565b91506122f782612244565b606382019050919050565b7f20202020696620286c656674506f73203e2077696e646f772e696e6e6572576960008201527f647468202d203235302920746f6f6c7469702e636c6173734c6973742e61646460208201527f28227222293b0000000000000000000000000000000000000000000000000000604082015250565b60006123846046836105fa565b915061238f82612302565b604682019050919050565b7f20202020646f63756d656e742e626f64792e617070656e644368696c6428746f60008201527f6f6c746970293b00000000000000000000000000000000000000000000000000602082015250565b60006123f66027836105fa565b91506124018261239a565b602782019050919050565b7f202020206665746368466c6f77657228666c6f7765724964293b000000000000815250565b7f6173796e632066756e6374696f6e206665746368466c6f77657228666c6f776560008201527f72496429207b0000000000000000000000000000000000000000000000000000602082015250565b600061248e6026836105fa565b915061249982612432565b602682019050919050565b7f20202020636f6e737420726573203d20617761697420666574636828222f666c60008201527f6f7765722f22202b20666c6f7765724964293b00000000000000000000000000602082015250565b60006125006033836105fa565b915061250b826124a4565b603382019050919050565b7f20202020636f6e73742064617461203d206177616974207265732e6a736f6e2860008201527f293b000000000000000000000000000000000000000000000000000000000000602082015250565b60006125726022836105fa565b915061257d82612516565b602282019050919050565b7f20202020636f6e737420746f6f6c746970203d20646f63756d656e742e67657460008201527f456c656d656e74427949642822746f6f6c74697022202b20666c6f776572496460208201527f293b000000000000000000000000000000000000000000000000000000000000604082015250565b600061260a6042836105fa565b915061261582612588565b604282019050919050565b7f202020206966202821746f6f6c746970292072657475726e20636f6e736f6c6560008201527f2e6c6f672822546f6f6c746970206e6f7420666f756e6422293b000000000000602082015250565b600061267c603a836105fa565b915061268782612620565b603a82019050919050565b7f20202020746f6f6c7469702e696e6e657248544d4c203d2060466c6f7765722060008201527f23247b666c6f77657249647d3c62722f3e203c7370616e20636c6173733d226160208201527f646472657373223e247b646174612e706c616e7465727d3c2f7370616e3e3c6260408201527f722f3e20247b666f726d617454696d6528646174612e74696d657374616d702960608201527f7d603b0000000000000000000000000000000000000000000000000000000000608082015250565b60006127606083836105fa565b915061276b82612692565b608382019050919050565b7f66756e6374696f6e20666f726d617454696d65287429207b0000000000000000815250565b7f20202020636f6e73742064617465203d206e657720446174652874202a20313060008201527f3030293b00000000000000000000000000000000000000000000000000000000602082015250565b60006127f86024836105fa565b91506128038261279c565b602482019050919050565b7f20202020636f6e7374206f7074696f6e73203d207b206d6f6e74683a20226c6f60008201527f6e6722207d3b0000000000000000000000000000000000000000000000000000602082015250565b600061286a6026836105fa565b91506128758261280e565b602682019050919050565b7f20202020636f6e7374206d6f6e7468203d206e657720496e746c2e446174655460008201527f696d65466f726d61742822656e2d5553222c206f7074696f6e73292e666f726d60208201527f61742864617465293b0000000000000000000000000000000000000000000000604082015250565b60006129026049836105fa565b915061290d82612880565b604982019050919050565b7f20202020636f6e737420646179203d20646174652e6765744461746528293b00815250565b7f20202020636f6e73742079656172203d20646174652e67657446756c6c59656160008201527f7228293b00000000000000000000000000000000000000000000000000000000602082015250565b600061299a6024836105fa565b91506129a58261293e565b602482019050919050565b7f202020206c657420686f757273203d20646174652e676574486f75727328293b815250565b7f20202020636f6e7374206d696e75746573203d20646174652e6765744d696e7560008201527f74657328292e746f537472696e6728292e706164537461727428322c2022302260208201527f293b000000000000000000000000000000000000000000000000000000000000604082015250565b6000612a586042836105fa565b9150612a63826129d6565b604282019050919050565b7f20202020636f6e737420616d506d203d20686f757273203e3d203132203f202260008201527f706d22203a2022616d223b000000000000000000000000000000000000000000602082015250565b6000612aca602b836105fa565b9150612ad582612a6e565b602b82019050919050565b7f20202020686f757273203d20686f7572732025203132207c7c2031323b000000815250565b7f2020202072657475726e2060247b6d6f6e74687d20247b6461797d2c20247b7960008201527f6561727d2c20247b686f7572737d3a247b6d696e757465737d247b616d506d7d60208201527f603b000000000000000000000000000000000000000000000000000000000000604082015250565b6000612b886042836105fa565b9150612b9382612b06565b604282019050919050565b7f7d2928293b2f2a494946452a2f00000000000000000000000000000000000000815250565b7f3c2f7363726970743e0000000000000000000000000000000000000000000000815250565b7f3c2f6469763e3c2f6469763e0000000000000000000000000000000000000000815250565b6000612c1c828a610605565b9150612c2782610636565b601e82019150612c36826106ab565b9150612c41826106ce565b601e82019150612c50826106f4565b600982019150612c5f8261071a565b600a82019150612c6e826107db565b9150612c7a8289610605565b9150612c85826107fe565b601182019150612c958288610605565b9150612ca18287610605565b9150612cac82610824565b600982019150612cbc8286610605565b9150612cc78261084a565b600782019150612cd78285610605565b9150612ce282610870565b601382019150612cf1826108e5565b9150612cfc826109a3565b9150612d0782610a15565b9150612d1282610a87565b9150612d1d82610aaa565b600882019150612d2c82610ad0565b600882019150612d3b82610af6565b600882019150612d4a82610b1c565b601082019150612d5a8284610605565b9150612d6582610b91565b9150612d7082610c03565b9150612d7b82610c75565b9150612d8682610ce7565b9150612d9182610d59565b9150612d9c82610dcb565b9150612da782610e3d565b9150612db282610e60565b600182019150612dc182610ed5565b9150612dcc82610f47565b9150612dd782610fb9565b9150612de282610e60565b600182019150612df182610fdc565b602082019150612e0082611051565b9150612e0b82611074565b601e82019150612e1a826110e9565b9150612e258261115b565b9150612e308261117e565b601e82019150612e3f82610e60565b600182019150612e4e826111a4565b601182019150612e5d82611219565b9150612e688261123c565b601b82019150612e77826112d7565b9150612e8282611349565b9150612e8d8261136c565b600382019150612e9c82611479565b9150612ea78261149c565b600a82019150612eb682611511565b9150612ec1826115a9565b9150612ecc826115cc565b600f82019150612edb8261168d565b9150612ee68261174b565b9150612ef182611809565b9150612efc8261187b565b9150612f078261189e565b601b82019150612f1682611913565b9150612f2182611985565b9150612f2c826119a8565b601682019150612f3b82611a1d565b9150612f4682611a40565b600882019150612f5582611a66565b600682019150612f6482611adb565b9150612f6f82611b73565b9150612f7a82611a66565b600682019150612f8982611c31565b9150612f9482611d15565b9150612f9f82611d38565b602082019150612fae82611dd3565b9150612fb982611e45565b9150612fc482611eb7565b9150612fcf82611f29565b9150612fda82611f9b565b9150612fe58261200d565b9150612ff0826120a5565b9150612ffb82612117565b9150613006826121af565b915061301182612221565b915061301c826122df565b915061302782612377565b9150613032826123e9565b915061303d8261240c565b601a8201915061304c82610e60565b60018201915061305b82612481565b9150613066826124f3565b915061307182612565565b915061307c826125fd565b91506130878261266f565b915061309282612753565b915061309d82610e60565b6001820191506130ac82612776565b6018820191506130bb826127eb565b91506130c68261285d565b91506130d1826128f5565b91506130dc82612918565b601f820191506130eb8261298d565b91506130f6826129b0565b60208201915061310582612a4b565b915061311082612abd565b915061311b82612ae0565b601d8201915061312a82612b7b565b915061313582610e60565b60018201915061314482612b9e565b600d8201915061315382612bc4565b60098201915061316282612bea565b600c820191508190509897505050505050505056fea2646970667358221220aaad84770ce5d41dc12c03dde185707e1cfe6e8416037c97661135353965778f64736f6c634300081c0033",
  "devdoc": {
    "kind": "dev",
    "methods": {},
    "version": 1
  },
  "userdoc": {
    "kind": "user",
    "methods": {},
    "version": 1
  },
  "storageLayout": {
    "storage": [],
    "types": null
  }
}