{
  "address": "0x789BC8604E3F44a08f563Fba64d5c85797D67E7f",
  "abi": [
    {
      "inputs": [
        {
          "internalType": "address[]",
          "name": "_sculptures",
          "type": "address[]"
        },
        {
          "internalType": "address",
          "name": "_render",
          "type": "address"
        }
      ],
      "stateMutability": "nonpayable",
      "type": "constructor"
    },
    {
      "inputs": [],
      "name": "AlreadyInitialized",
      "type": "error"
    },
    {
      "inputs": [],
      "name": "NewOwnerIsZeroAddress",
      "type": "error"
    },
    {
      "inputs": [],
      "name": "NoHandoverRequest",
      "type": "error"
    },
    {
      "inputs": [],
      "name": "Unauthorized",
      "type": "error"
    },
    {
      "anonymous": false,
      "inputs": [
        {
          "indexed": true,
          "internalType": "address",
          "name": "pendingOwner",
          "type": "address"
        }
      ],
      "name": "OwnershipHandoverCanceled",
      "type": "event"
    },
    {
      "anonymous": false,
      "inputs": [
        {
          "indexed": true,
          "internalType": "address",
          "name": "pendingOwner",
          "type": "address"
        }
      ],
      "name": "OwnershipHandoverRequested",
      "type": "event"
    },
    {
      "anonymous": false,
      "inputs": [
        {
          "indexed": true,
          "internalType": "address",
          "name": "oldOwner",
          "type": "address"
        },
        {
          "indexed": true,
          "internalType": "address",
          "name": "newOwner",
          "type": "address"
        }
      ],
      "name": "OwnershipTransferred",
      "type": "event"
    },
    {
      "stateMutability": "payable",
      "type": "fallback"
    },
    {
      "inputs": [],
      "name": "addresses",
      "outputs": [
        {
          "internalType": "address[]",
          "name": "",
          "type": "address[]"
        }
      ],
      "stateMutability": "view",
      "type": "function"
    },
    {
      "inputs": [],
      "name": "authors",
      "outputs": [
        {
          "internalType": "string[]",
          "name": "",
          "type": "string[]"
        }
      ],
      "stateMutability": "view",
      "type": "function"
    },
    {
      "inputs": [],
      "name": "cancelOwnershipHandover",
      "outputs": [],
      "stateMutability": "payable",
      "type": "function"
    },
    {
      "inputs": [
        {
          "internalType": "address",
          "name": "pendingOwner",
          "type": "address"
        }
      ],
      "name": "completeOwnershipHandover",
      "outputs": [],
      "stateMutability": "payable",
      "type": "function"
    },
    {
      "inputs": [
        {
          "internalType": "uint256",
          "name": "",
          "type": "uint256"
        }
      ],
      "name": "exhibitionUrls",
      "outputs": [
        {
          "internalType": "string",
          "name": "",
          "type": "string"
        }
      ],
      "stateMutability": "view",
      "type": "function"
    },
    {
      "inputs": [
        {
          "internalType": "uint256",
          "name": "flowerId",
          "type": "uint256"
        }
      ],
      "name": "flower",
      "outputs": [
        {
          "internalType": "address",
          "name": "",
          "type": "address"
        }
      ],
      "stateMutability": "view",
      "type": "function"
    },
    {
      "inputs": [
        {
          "internalType": "uint256",
          "name": "flowerId",
          "type": "uint256"
        }
      ],
      "name": "flowerInfo",
      "outputs": [
        {
          "internalType": "address",
          "name": "planter",
          "type": "address"
        },
        {
          "internalType": "uint256",
          "name": "timestamp",
          "type": "uint256"
        }
      ],
      "stateMutability": "view",
      "type": "function"
    },
    {
      "inputs": [
        {
          "internalType": "uint256",
          "name": "flowerId",
          "type": "uint256"
        }
      ],
      "name": "flowerPlantedAt",
      "outputs": [
        {
          "internalType": "uint256",
          "name": "",
          "type": "uint256"
        }
      ],
      "stateMutability": "view",
      "type": "function"
    },
    {
      "inputs": [],
      "name": "flowers",
      "outputs": [
        {
          "internalType": "uint256",
          "name": "",
          "type": "uint256"
        }
      ],
      "stateMutability": "view",
      "type": "function"
    },
    {
      "inputs": [
        {
          "internalType": "address",
          "name": "planter",
          "type": "address"
        }
      ],
      "name": "flowersPlanted",
      "outputs": [
        {
          "internalType": "uint256",
          "name": "",
          "type": "uint256"
        }
      ],
      "stateMutability": "view",
      "type": "function"
    },
    {
      "inputs": [],
      "name": "getSculptures",
      "outputs": [
        {
          "internalType": "address[]",
          "name": "",
          "type": "address[]"
        }
      ],
      "stateMutability": "view",
      "type": "function"
    },
    {
      "inputs": [],
      "name": "guests",
      "outputs": [
        {
          "internalType": "uint256",
          "name": "",
          "type": "uint256"
        }
      ],
      "stateMutability": "view",
      "type": "function"
    },
    {
      "inputs": [],
      "name": "html",
      "outputs": [
        {
          "internalType": "string",
          "name": "",
          "type": "string"
        }
      ],
      "stateMutability": "view",
      "type": "function"
    },
    {
      "inputs": [],
      "name": "owner",
      "outputs": [
        {
          "internalType": "address",
          "name": "result",
          "type": "address"
        }
      ],
      "stateMutability": "view",
      "type": "function"
    },
    {
      "inputs": [
        {
          "internalType": "address",
          "name": "pendingOwner",
          "type": "address"
        }
      ],
      "name": "ownershipHandoverExpiresAt",
      "outputs": [
        {
          "internalType": "uint256",
          "name": "result",
          "type": "uint256"
        }
      ],
      "stateMutability": "view",
      "type": "function"
    },
    {
      "inputs": [],
      "name": "render",
      "outputs": [
        {
          "internalType": "address",
          "name": "",
          "type": "address"
        }
      ],
      "stateMutability": "view",
      "type": "function"
    },
    {
      "inputs": [],
      "name": "renounceOwnership",
      "outputs": [],
      "stateMutability": "payable",
      "type": "function"
    },
    {
      "inputs": [
        {
          "internalType": "string[]",
          "name": "resource",
          "type": "string[]"
        },
        {
          "components": [
            {
              "internalType": "string",
              "name": "key",
              "type": "string"
            },
            {
              "internalType": "string",
              "name": "value",
              "type": "string"
            }
          ],
          "internalType": "struct KeyValue[]",
          "name": "params",
          "type": "tuple[]"
        }
      ],
      "name": "request",
      "outputs": [
        {
          "internalType": "uint256",
          "name": "statusCode",
          "type": "uint256"
        },
        {
          "internalType": "string",
          "name": "body",
          "type": "string"
        },
        {
          "components": [
            {
              "internalType": "string",
              "name": "key",
              "type": "string"
            },
            {
              "internalType": "string",
              "name": "value",
              "type": "string"
            }
          ],
          "internalType": "struct KeyValue[]",
          "name": "headers",
          "type": "tuple[]"
        }
      ],
      "stateMutability": "view",
      "type": "function"
    },
    {
      "inputs": [],
      "name": "requestOwnershipHandover",
      "outputs": [],
      "stateMutability": "payable",
      "type": "function"
    },
    {
      "inputs": [],
      "name": "resolveMode",
      "outputs": [
        {
          "internalType": "bytes32",
          "name": "",
          "type": "bytes32"
        }
      ],
      "stateMutability": "view",
      "type": "function"
    },
    {
      "inputs": [
        {
          "internalType": "uint256",
          "name": "",
          "type": "uint256"
        }
      ],
      "name": "sculptures",
      "outputs": [
        {
          "internalType": "address",
          "name": "",
          "type": "address"
        }
      ],
      "stateMutability": "view",
      "type": "function"
    },
    {
      "inputs": [
        {
          "internalType": "string[]",
          "name": "_urls",
          "type": "string[]"
        }
      ],
      "name": "setExhibitionUrls",
      "outputs": [],
      "stateMutability": "nonpayable",
      "type": "function"
    },
    {
      "inputs": [
        {
          "internalType": "address[]",
          "name": "_sculptures",
          "type": "address[]"
        }
      ],
      "name": "setSculptures",
      "outputs": [],
      "stateMutability": "nonpayable",
      "type": "function"
    },
    {
      "inputs": [
        {
          "internalType": "string",
          "name": "_text",
          "type": "string"
        }
      ],
      "name": "setText",
      "outputs": [],
      "stateMutability": "nonpayable",
      "type": "function"
    },
    {
      "inputs": [],
      "name": "text",
      "outputs": [
        {
          "internalType": "string",
          "name": "",
          "type": "string"
        }
      ],
      "stateMutability": "view",
      "type": "function"
    },
    {
      "inputs": [],
      "name": "title",
      "outputs": [
        {
          "internalType": "string",
          "name": "",
          "type": "string"
        }
      ],
      "stateMutability": "pure",
      "type": "function"
    },
    {
      "inputs": [
        {
          "internalType": "address",
          "name": "newOwner",
          "type": "address"
        }
      ],
      "name": "transferOwnership",
      "outputs": [],
      "stateMutability": "payable",
      "type": "function"
    },
    {
      "inputs": [],
      "name": "urls",
      "outputs": [
        {
          "internalType": "string[]",
          "name": "",
          "type": "string[]"
        }
      ],
      "stateMutability": "view",
      "type": "function"
    },
    {
      "inputs": [
        {
          "internalType": "address",
          "name": "_to",
          "type": "address"
        }
      ],
      "name": "withdraw",
      "outputs": [],
      "stateMutability": "nonpayable",
      "type": "function"
    },
    {
      "stateMutability": "payable",
      "type": "receive"
    }
  ],
  "transactionHash": "0xd09fcbeec75407e9ddd714bb8482bcb822893b2872cbc802088a5949e0873b4e",
  "args": [
    [],
    "0xAF917a633cccb33e3F4C083f618F388bFcC192D1"
  ],
  "numDeployments": 3,
  "solcInputHash": "324ae35969ed3552b44c13c83d765958",
  "bytecode": "0x60a060405234801561001057600080fd5b506040516137cc3803806137cc833981810160405281019061003291906103eb565b6100413361009360201b60201c565b8160059080519060200190610057929190610179565b508073ffffffffffffffffffffffffffffffffffffffff1660808173ffffffffffffffffffffffffffffffffffffffff16815250505050610447565b6100a161017460201b60201c565b1561011c577fffffffffffffffffffffffffffffffffffffffffffffffffffffffff748739278054156100dc57630dc149f06000526004601cfd5b8160601b60601c9150811560ff1b821781558160007f8be0079c531659141344cd1fd0a4f28419497f9722a3daafe3b4186f6b6457e0600080a350610171565b8060601b60601c9050807fffffffffffffffffffffffffffffffffffffffffffffffffffffffff74873927558060007f8be0079c531659141344cd1fd0a4f28419497f9722a3daafe3b4186f6b6457e0600080a35b50565b600090565b8280548282559060005260206000209081019282156101f2579160200282015b828111156101f15782518260006101000a81548173ffffffffffffffffffffffffffffffffffffffff021916908373ffffffffffffffffffffffffffffffffffffffff16021790555091602001919060010190610199565b5b5090506101ff9190610203565b5090565b5b8082111561021c576000816000905550600101610204565b5090565b6000604051905090565b600080fd5b600080fd5b600080fd5b6000601f19601f8301169050919050565b7f4e487b7100000000000000000000000000000000000000000000000000000000600052604160045260246000fd5b61028282610239565b810181811067ffffffffffffffff821117156102a1576102a061024a565b5b80604052505050565b60006102b4610220565b90506102c08282610279565b919050565b600067ffffffffffffffff8211156102e0576102df61024a565b5b602082029050602081019050919050565b600080fd5b600073ffffffffffffffffffffffffffffffffffffffff82169050919050565b6000610321826102f6565b9050919050565b61033181610316565b811461033c57600080fd5b50565b60008151905061034e81610328565b92915050565b6000610367610362846102c5565b6102aa565b9050808382526020820190506020840283018581111561038a576103896102f1565b5b835b818110156103b3578061039f888261033f565b84526020840193505060208101905061038c565b5050509392505050565b600082601f8301126103d2576103d1610234565b5b81516103e2848260208601610354565b91505092915050565b600080604083850312156104025761040161022a565b5b600083015167ffffffffffffffff8111156104205761041f61022f565b5b61042c858286016103bd565b925050602061043d8582860161033f565b9150509250929050565b60805161334e61047e600039600081816103300152818161096301528181610ecf015281816113f101526118b7015261334e6000f3fe6080604052600436106101c65760003560e01c80635d3a1f9d116100f7578063d607497a11610095578063f04e283e11610064578063f04e283e14610835578063f1cd4d4d14610851578063f2fde38b1461088e578063fee81cf4146108aa5761032e565b8063d607497a14610777578063da0321cd146107a2578063dc6062fa146107cd578063dd473fae1461080a5761032e565b80637e0b1cb5116100d15780637e0b1cb5146106a85780638da5cb5b146106e5578063a52bc7a014610710578063ca6590f7146107395761032e565b80635d3a1f9d1461064a578063706e3da214610673578063715018a61461069e5761032e565b80632c73dc4a116101645780634a79d50c1161013e5780634a79d50c146105c157806351cff8d9146105ec57806354d1f13d1461061557806355735c5e1461061f5761032e565b80632c73dc4a1461052e57806333c34ac3146105595780633c655fe3146105845761032e565b80631374c460116101a05780631374c4601461048f5780631f1bd692146104ce57806325692962146104f957806328411ae1146105035761032e565b8063032a7290146103fe5780630a8ee81d146104275780630ed40c26146104525761032e565b3661032e57662386f26fc10000341061032c576000662386f26fc10000346101ee9190611dcf565b90506000600260003373ffffffffffffffffffffffffffffffffffffffff1673ffffffffffffffffffffffffffffffffffffffff1681526020019081526020016000205403610250576001600081548092919061024a90611e00565b91905055505b80600260003373ffffffffffffffffffffffffffffffffffffffff1673ffffffffffffffffffffffffffffffffffffffff168152602001908152602001600020600082825461029f9190611e48565b92505081905550806000808282546102b79190611e48565b9250508190555033600360008054815260200190815260200160002060006101000a81548173ffffffffffffffffffffffffffffffffffffffff021916908373ffffffffffffffffffffffffffffffffffffffff16021790555042600460008054815260200190815260200160002081905550505b005b7f000000000000000000000000000000000000000000000000000000000000000073ffffffffffffffffffffffffffffffffffffffff166333c34ac36040518163ffffffff1660e01b8152600401600060405180830381865afa158015610399573d6000803e3d6000fd5b505050506040513d6000823e3d601f19601f820116820180604052508101906103c29190611ff1565b6040517f08c379a00000000000000000000000000000000000000000000000000000000081526004016103f5919061208f565b60405180910390fd5b34801561040a57600080fd5b50610425600480360381019061042091906121d7565b6108e7565b005b34801561043357600080fd5b5061043c610909565b604051610449919061222f565b60405180910390f35b34801561045e57600080fd5b506104796004803603810190610474919061224a565b610913565b604051610486919061222f565b60405180910390f35b34801561049b57600080fd5b506104b660048036038101906104b1919061254a565b61095c565b6040516104c593929190612712565b60405180910390f35b3480156104da57600080fd5b506104e3610a0f565b6040516104f0919061208f565b60405180910390f35b610501610aaf565b005b34801561050f57600080fd5b50610518610b03565b6040516105259190612819565b60405180910390f35b34801561053a57600080fd5b50610543610df2565b6040516105509190612819565b60405180910390f35b34801561056557600080fd5b5061056e610ecb565b60405161057b919061208f565b60405180910390f35b34801561059057600080fd5b506105ab60048036038101906105a69190612867565b610f66565b6040516105b8919061222f565b60405180910390f35b3480156105cd57600080fd5b506105d661100c565b6040516105e3919061208f565b60405180910390f35b3480156105f857600080fd5b50610613600480360381019061060e919061224a565b611049565b005b61061d611101565b005b34801561062b57600080fd5b5061063461113d565b6040516106419190612952565b60405180910390f35b34801561065657600080fd5b50610671600480360381019061066c9190612974565b6111cb565b005b34801561067f57600080fd5b5061068861121f565b604051610695919061222f565b60405180910390f35b6106a6611228565b005b3480156106b457600080fd5b506106cf60048036038101906106ca9190612867565b61123c565b6040516106dc91906129cc565b60405180910390f35b3480156106f157600080fd5b506106fa61127b565b60405161070791906129cc565b60405180910390f35b34801561071c57600080fd5b50610737600480360381019061073291906129e7565b6112a4565b005b34801561074557600080fd5b50610760600480360381019061075b9190612867565b6112c6565b60405161076e929190612a30565b60405180910390f35b34801561078357600080fd5b5061078c6113ef565b60405161079991906129cc565b60405180910390f35b3480156107ae57600080fd5b506107b7611413565b6040516107c49190612952565b60405180910390f35b3480156107d957600080fd5b506107f460048036038101906107ef9190612867565b6117a1565b60405161080191906129cc565b60405180910390f35b34801561081657600080fd5b5061081f6118b3565b60405161082c9190612a72565b60405180910390f35b61084f600480360381019061084a919061224a565b611949565b005b34801561085d57600080fd5b5061087860048036038101906108739190612867565b61198a565b604051610885919061208f565b60405180910390f35b6108a860048036038101906108a3919061224a565b611a36565b005b3480156108b657600080fd5b506108d160048036038101906108cc919061224a565b611a60565b6040516108de919061222f565b60405180910390f35b6108ef611a7b565b8060059080519060200190610905929190611c03565b5050565b6000600154905090565b6000600260008373ffffffffffffffffffffffffffffffffffffffff1673ffffffffffffffffffffffffffffffffffffffff168152602001908152602001600020549050919050565b60006060807f000000000000000000000000000000000000000000000000000000000000000073ffffffffffffffffffffffffffffffffffffffff16631374c46086866040518363ffffffff1660e01b81526004016109bc929190612a8d565b600060405180830381865afa1580156109d9573d6000803e3d6000fd5b505050506040513d6000823e3d601f19601f82011682018060405250810190610a029190612c16565b9250925092509250925092565b6060600073ffffffffffffffffffffffffffffffffffffffff16600660009054906101000a900473ffffffffffffffffffffffffffffffffffffffff1673ffffffffffffffffffffffffffffffffffffffff1603610a7e57604051806020016040528060008152509050610aac565b610aa9600660009054906101000a900473ffffffffffffffffffffffffffffffffffffffff16611ab3565b90505b90565b6000610ab9611ae4565b67ffffffffffffffff164201905063389a75e1600c5233600052806020600c2055337fdbf36a107da19e49527a7176a1babf963b4b0ff8cde35ee35d6cd8f1f9ac7e1d600080a250565b606060006001905060005b600580549050811015610c0757600060058281548110610b3157610b30612ca1565b5b9060005260206000200160009054906101000a900473ffffffffffffffffffffffffffffffffffffffff1673ffffffffffffffffffffffffffffffffffffffff166328411ae16040518163ffffffff1660e01b8152600401600060405180830381865afa158015610ba6573d6000803e3d6000fd5b505050506040513d6000823e3d601f19601f82011682018060405250810190610bcf9190612d85565b905060005b8151811015610bf8578380610be890611e00565b9450508080600101915050610bd4565b50508080600101915050610b0e565b5060008167ffffffffffffffff811115610c2457610c23611eab565b5b604051908082528060200260200182016040528015610c5757816020015b6060815260200190600190039081610c425790505b509050600080600090505b600580549050811015610d9457600060058281548110610c8557610c84612ca1565b5b9060005260206000200160009054906101000a900473ffffffffffffffffffffffffffffffffffffffff1673ffffffffffffffffffffffffffffffffffffffff166328411ae16040518163ffffffff1660e01b8152600401600060405180830381865afa158015610cfa573d6000803e3d6000fd5b505050506040513d6000823e3d601f19601f82011682018060405250810190610d239190612d85565b905060005b8151811015610d8557818181518110610d4457610d43612ca1565b5b6020026020010151858581518110610d5f57610d5e612ca1565b5b60200260200101819052508380610d7590611e00565b9450508080600101915050610d28565b50508080600101915050610c62565b506040518060400160405280600581526020017f3078666666000000000000000000000000000000000000000000000000000000815250828281518110610dde57610ddd612ca1565b5b602002602001018190525081935050505090565b60606007805480602002602001604051908101604052809291908181526020016000905b82821015610ec2578382906000526020600020018054610e3590612dfd565b80601f0160208091040260200160405190810160405280929190818152602001828054610e6190612dfd565b8015610eae5780601f10610e8357610100808354040283529160200191610eae565b820191906000526020600020905b815481529060010190602001808311610e9157829003601f168201915b505050505081526020019060010190610e16565b50505050905090565b60607f000000000000000000000000000000000000000000000000000000000000000073ffffffffffffffffffffffffffffffffffffffff166333c34ac36040518163ffffffff1660e01b8152600401600060405180830381865afa158015610f38573d6000803e3d6000fd5b505050506040513d6000823e3d601f19601f82011682018060405250810190610f619190611ff1565b905090565b6000816000108015610f7a57506000548211155b610fb9576040517f08c379a0000000000000000000000000000000000000000000000000000000008152600401610fb090612e7a565b60405180910390fd5b5b6000548211610ff1576000600460008481526020019081526020016000205403610ff1578180610fe990611e00565b925050610fba565b60046000838152602001908152602001600020549050919050565b60606040518060400160405280601f81526020017f576f726c6420436f6d7075746572205363756c70747572652047617264656e00815250905090565b611051611a7b565b60008173ffffffffffffffffffffffffffffffffffffffff164760405161107790612ecb565b60006040518083038185875af1925050503d80600081146110b4576040519150601f19603f3d011682016040523d82523d6000602084013e6110b9565b606091505b50509050806110fd576040517f08c379a00000000000000000000000000000000000000000000000000000000081526004016110f490612f2c565b60405180910390fd5b5050565b63389a75e1600c523360005260006020600c2055337ffa7b8eab7da67f412cc9575ed43464468f9bfbae89d1675917346ca6d8fe3c92600080a2565b606060058054806020026020016040519081016040528092919081815260200182805480156111c157602002820191906000526020600020905b8160009054906101000a900473ffffffffffffffffffffffffffffffffffffffff1673ffffffffffffffffffffffffffffffffffffffff1681526020019060010190808311611177575b5050505050905090565b6111d3611a7b565b6111dc81611aef565b600660006101000a81548173ffffffffffffffffffffffffffffffffffffffff021916908373ffffffffffffffffffffffffffffffffffffffff16021790555050565b60008054905090565b611230611a7b565b61123a6000611b36565b565b6005818154811061124c57600080fd5b906000526020600020016000915054906101000a900473ffffffffffffffffffffffffffffffffffffffff1681565b60007fffffffffffffffffffffffffffffffffffffffffffffffffffffffff7487392754905090565b6112ac611a7b565b80600790805190602001906112c2929190611c8d565b5050565b6000808260001080156112db57506000548311155b61131a576040517f08c379a000000000000000000000000000000000000000000000000000000000815260040161131190612e7a565b60405180910390fd5b5b600054831161139e57600073ffffffffffffffffffffffffffffffffffffffff166003600085815260200190815260200160002060009054906101000a900473ffffffffffffffffffffffffffffffffffffffff1673ffffffffffffffffffffffffffffffffffffffff160361139e57828061139690611e00565b93505061131b565b6003600084815260200190815260200160002060009054906101000a900473ffffffffffffffffffffffffffffffffffffffff16600460008581526020019081526020016000205491509150915091565b7f000000000000000000000000000000000000000000000000000000000000000081565b606060006001905060005b6005805490508110156115175760006005828154811061144157611440612ca1565b5b9060005260206000200160009054906101000a900473ffffffffffffffffffffffffffffffffffffffff1673ffffffffffffffffffffffffffffffffffffffff1663da0321cd6040518163ffffffff1660e01b8152600401600060405180830381865afa1580156114b6573d6000803e3d6000fd5b505050506040513d6000823e3d601f19601f820116820180604052508101906114df9190612ff8565b905060005b81518110156115085783806114f890611e00565b94505080806001019150506114e4565b5050808060010191505061141e565b5060008167ffffffffffffffff81111561153457611533611eab565b5b6040519080825280602002602001820160405280156115625781602001602082028036833780820191505090505b50905060006001905030826000815181106115805761157f612ca1565b5b602002602001019073ffffffffffffffffffffffffffffffffffffffff16908173ffffffffffffffffffffffffffffffffffffffff168152505060005b600580549050811015611797576000600582815481106115e0576115df612ca1565b5b9060005260206000200160009054906101000a900473ffffffffffffffffffffffffffffffffffffffff16905060008173ffffffffffffffffffffffffffffffffffffffff1663da0321cd6040518163ffffffff1660e01b8152600401600060405180830381865afa15801561165a573d6000803e3d6000fd5b505050506040513d6000823e3d601f19601f820116820180604052508101906116839190612ff8565b905060005b8151811015611787578273ffffffffffffffffffffffffffffffffffffffff1663da0321cd6040518163ffffffff1660e01b8152600401600060405180830381865afa1580156116dc573d6000803e3d6000fd5b505050506040513d6000823e3d601f19601f820116820180604052508101906117059190612ff8565b818151811061171757611716612ca1565b5b602002602001015186868151811061173257611731612ca1565b5b602002602001019073ffffffffffffffffffffffffffffffffffffffff16908173ffffffffffffffffffffffffffffffffffffffff1681525050848061177790611e00565b9550508080600101915050611688565b50505080806001019150506115bd565b5081935050505090565b60008160001080156117b557506000548211155b6117f4576040517f08c379a00000000000000000000000000000000000000000000000000000000081526004016117eb90612e7a565b60405180910390fd5b5b600054821161187857600073ffffffffffffffffffffffffffffffffffffffff166003600084815260200190815260200160002060009054906101000a900473ffffffffffffffffffffffffffffffffffffffff1673ffffffffffffffffffffffffffffffffffffffff160361187857818061187090611e00565b9250506117f5565b6003600083815260200190815260200160002060009054906101000a900473ffffffffffffffffffffffffffffffffffffffff169050919050565b60007f000000000000000000000000000000000000000000000000000000000000000073ffffffffffffffffffffffffffffffffffffffff1663dd473fae6040518163ffffffff1660e01b8152600401602060405180830381865afa158015611920573d6000803e3d6000fd5b505050506040513d601f19601f82011682018060405250810190611944919061306d565b905090565b611951611a7b565b63389a75e1600c52806000526020600c20805442111561197957636f5e88186000526004601cfd5b600081555061198781611b36565b50565b6007818154811061199a57600080fd5b9060005260206000200160009150905080546119b590612dfd565b80601f01602080910402602001604051908101604052809291908181526020018280546119e190612dfd565b8015611a2e5780601f10611a0357610100808354040283529160200191611a2e565b820191906000526020600020905b815481529060010190602001808311611a1157829003601f168201915b505050505081565b611a3e611a7b565b8060601b611a5457637448fbae6000526004601cfd5b611a5d81611b36565b50565b600063389a75e1600c52816000526020600c20549050919050565b7fffffffffffffffffffffffffffffffffffffffffffffffffffffffff74873927543314611ab1576382b429006000526004601cfd5b565b6060604051905064ffffffffff6001833b0316602181016000601f8401853c80825260408201810160405250919050565b60006202a300905090565b600081518060401b6bfe61000180600a3d393df3000161fffe8211840152600b8101601584016000f0915081611b2d5763301164256000526004601cfd5b80835250919050565b611b3e611bfe565b15611ba4577fffffffffffffffffffffffffffffffffffffffffffffffffffffffff748739278160601b60601c91508181547f8be0079c531659141344cd1fd0a4f28419497f9722a3daafe3b4186f6b6457e0600080a3811560ff1b8217815550611bfb565b7fffffffffffffffffffffffffffffffffffffffffffffffffffffffff748739278160601b60601c91508181547f8be0079c531659141344cd1fd0a4f28419497f9722a3daafe3b4186f6b6457e0600080a3818155505b50565b600090565b828054828255906000526020600020908101928215611c7c579160200282015b82811115611c7b5782518260006101000a81548173ffffffffffffffffffffffffffffffffffffffff021916908373ffffffffffffffffffffffffffffffffffffffff16021790555091602001919060010190611c23565b5b509050611c899190611ce6565b5090565b828054828255906000526020600020908101928215611cd5579160200282015b82811115611cd4578251829081611cc49190613246565b5091602001919060010190611cad565b5b509050611ce29190611d03565b5090565b5b80821115611cff576000816000905550600101611ce7565b5090565b5b80821115611d235760008181611d1a9190611d27565b50600101611d04565b5090565b508054611d3390612dfd565b6000825580601f10611d455750611d64565b601f016020900490600052602060002090810190611d639190611ce6565b5b50565b6000819050919050565b7f4e487b7100000000000000000000000000000000000000000000000000000000600052601260045260246000fd5b7f4e487b7100000000000000000000000000000000000000000000000000000000600052601160045260246000fd5b6000611dda82611d67565b9150611de583611d67565b925082611df557611df4611d71565b5b828204905092915050565b6000611e0b82611d67565b91507fffffffffffffffffffffffffffffffffffffffffffffffffffffffffffffffff8203611e3d57611e3c611da0565b5b600182019050919050565b6000611e5382611d67565b9150611e5e83611d67565b9250828201905080821115611e7657611e75611da0565b5b92915050565b6000604051905090565b600080fd5b600080fd5b600080fd5b600080fd5b6000601f19601f8301169050919050565b7f4e487b7100000000000000000000000000000000000000000000000000000000600052604160045260246000fd5b611ee382611e9a565b810181811067ffffffffffffffff82111715611f0257611f01611eab565b5b80604052505050565b6000611f15611e7c565b9050611f218282611eda565b919050565b600067ffffffffffffffff821115611f4157611f40611eab565b5b611f4a82611e9a565b9050602081019050919050565b60005b83811015611f75578082015181840152602081019050611f5a565b60008484015250505050565b6000611f94611f8f84611f26565b611f0b565b905082815260208101848484011115611fb057611faf611e95565b5b611fbb848285611f57565b509392505050565b600082601f830112611fd857611fd7611e90565b5b8151611fe8848260208601611f81565b91505092915050565b60006020828403121561200757612006611e86565b5b600082015167ffffffffffffffff81111561202557612024611e8b565b5b61203184828501611fc3565b91505092915050565b600081519050919050565b600082825260208201905092915050565b60006120618261203a565b61206b8185612045565b935061207b818560208601611f57565b61208481611e9a565b840191505092915050565b600060208201905081810360008301526120a98184612056565b905092915050565b600067ffffffffffffffff8211156120cc576120cb611eab565b5b602082029050602081019050919050565b600080fd5b600073ffffffffffffffffffffffffffffffffffffffff82169050919050565b600061210d826120e2565b9050919050565b61211d81612102565b811461212857600080fd5b50565b60008135905061213a81612114565b92915050565b600061215361214e846120b1565b611f0b565b90508083825260208201905060208402830185811115612176576121756120dd565b5b835b8181101561219f578061218b888261212b565b845260208401935050602081019050612178565b5050509392505050565b600082601f8301126121be576121bd611e90565b5b81356121ce848260208601612140565b91505092915050565b6000602082840312156121ed576121ec611e86565b5b600082013567ffffffffffffffff81111561220b5761220a611e8b565b5b612217848285016121a9565b91505092915050565b61222981611d67565b82525050565b60006020820190506122446000830184612220565b92915050565b6000602082840312156122605761225f611e86565b5b600061226e8482850161212b565b91505092915050565b600067ffffffffffffffff82111561229257612291611eab565b5b602082029050602081019050919050565b82818337600083830152505050565b60006122c56122c084611f26565b611f0b565b9050828152602081018484840111156122e1576122e0611e95565b5b6122ec8482856122a3565b509392505050565b600082601f83011261230957612308611e90565b5b81356123198482602086016122b2565b91505092915050565b600061233561233084612277565b611f0b565b90508083825260208201905060208402830185811115612358576123576120dd565b5b835b8181101561239f57803567ffffffffffffffff81111561237d5761237c611e90565b5b80860161238a89826122f4565b8552602085019450505060208101905061235a565b5050509392505050565b600082601f8301126123be576123bd611e90565b5b81356123ce848260208601612322565b91505092915050565b600067ffffffffffffffff8211156123f2576123f1611eab565b5b602082029050602081019050919050565b600080fd5b600080fd5b60006040828403121561242357612422612403565b5b61242d6040611f0b565b9050600082013567ffffffffffffffff81111561244d5761244c612408565b5b612459848285016122f4565b600083015250602082013567ffffffffffffffff81111561247d5761247c612408565b5b612489848285016122f4565b60208301525092915050565b60006124a86124a3846123d7565b611f0b565b905080838252602082019050602084028301858111156124cb576124ca6120dd565b5b835b8181101561251257803567ffffffffffffffff8111156124f0576124ef611e90565b5b8086016124fd898261240d565b855260208501945050506020810190506124cd565b5050509392505050565b600082601f83011261253157612530611e90565b5b8135612541848260208601612495565b91505092915050565b6000806040838503121561256157612560611e86565b5b600083013567ffffffffffffffff81111561257f5761257e611e8b565b5b61258b858286016123a9565b925050602083013567ffffffffffffffff8111156125ac576125ab611e8b565b5b6125b88582860161251c565b9150509250929050565b600081519050919050565b600082825260208201905092915050565b6000819050602082019050919050565b600082825260208201905092915050565b600061260a8261203a565b61261481856125ee565b9350612624818560208601611f57565b61262d81611e9a565b840191505092915050565b6000604083016000830151848203600086015261265582826125ff565b9150506020830151848203602086015261266f82826125ff565b9150508091505092915050565b60006126888383612638565b905092915050565b6000602082019050919050565b60006126a8826125c2565b6126b281856125cd565b9350836020820285016126c4856125de565b8060005b8581101561270057848403895281516126e1858261267c565b94506126ec83612690565b925060208a019950506001810190506126c8565b50829750879550505050505092915050565b60006060820190506127276000830186612220565b81810360208301526127398185612056565b9050818103604083015261274d818461269d565b9050949350505050565b600081519050919050565b600082825260208201905092915050565b6000819050602082019050919050565b600061278f83836125ff565b905092915050565b6000602082019050919050565b60006127af82612757565b6127b98185612762565b9350836020820285016127cb85612773565b8060005b8581101561280757848403895281516127e88582612783565b94506127f383612797565b925060208a019950506001810190506127cf565b50829750879550505050505092915050565b6000602082019050818103600083015261283381846127a4565b905092915050565b61284481611d67565b811461284f57600080fd5b50565b6000813590506128618161283b565b92915050565b60006020828403121561287d5761287c611e86565b5b600061288b84828501612852565b91505092915050565b600081519050919050565b600082825260208201905092915050565b6000819050602082019050919050565b6128c981612102565b82525050565b60006128db83836128c0565b60208301905092915050565b6000602082019050919050565b60006128ff82612894565b612909818561289f565b9350612914836128b0565b8060005b8381101561294557815161292c88826128cf565b9750612937836128e7565b925050600181019050612918565b5085935050505092915050565b6000602082019050818103600083015261296c81846128f4565b905092915050565b60006020828403121561298a57612989611e86565b5b600082013567ffffffffffffffff8111156129a8576129a7611e8b565b5b6129b4848285016122f4565b91505092915050565b6129c681612102565b82525050565b60006020820190506129e160008301846129bd565b92915050565b6000602082840312156129fd576129fc611e86565b5b600082013567ffffffffffffffff811115612a1b57612a1a611e8b565b5b612a27848285016123a9565b91505092915050565b6000604082019050612a4560008301856129bd565b612a526020830184612220565b9392505050565b6000819050919050565b612a6c81612a59565b82525050565b6000602082019050612a876000830184612a63565b92915050565b60006040820190508181036000830152612aa781856127a4565b90508181036020830152612abb818461269d565b90509392505050565b600081519050612ad38161283b565b92915050565b600060408284031215612aef57612aee612403565b5b612af96040611f0b565b9050600082015167ffffffffffffffff811115612b1957612b18612408565b5b612b2584828501611fc3565b600083015250602082015167ffffffffffffffff811115612b4957612b48612408565b5b612b5584828501611fc3565b60208301525092915050565b6000612b74612b6f846123d7565b611f0b565b90508083825260208201905060208402830185811115612b9757612b966120dd565b5b835b81811015612bde57805167ffffffffffffffff811115612bbc57612bbb611e90565b5b808601612bc98982612ad9565b85526020850194505050602081019050612b99565b5050509392505050565b600082601f830112612bfd57612bfc611e90565b5b8151612c0d848260208601612b61565b91505092915050565b600080600060608486031215612c2f57612c2e611e86565b5b6000612c3d86828701612ac4565b935050602084015167ffffffffffffffff811115612c5e57612c5d611e8b565b5b612c6a86828701611fc3565b925050604084015167ffffffffffffffff811115612c8b57612c8a611e8b565b5b612c9786828701612be8565b9150509250925092565b7f4e487b7100000000000000000000000000000000000000000000000000000000600052603260045260246000fd5b6000612ce3612cde84612277565b611f0b565b90508083825260208201905060208402830185811115612d0657612d056120dd565b5b835b81811015612d4d57805167ffffffffffffffff811115612d2b57612d2a611e90565b5b808601612d388982611fc3565b85526020850194505050602081019050612d08565b5050509392505050565b600082601f830112612d6c57612d6b611e90565b5b8151612d7c848260208601612cd0565b91505092915050565b600060208284031215612d9b57612d9a611e86565b5b600082015167ffffffffffffffff811115612db957612db8611e8b565b5b612dc584828501612d57565b91505092915050565b7f4e487b7100000000000000000000000000000000000000000000000000000000600052602260045260246000fd5b60006002820490506001821680612e1557607f821691505b602082108103612e2857612e27612dce565b5b50919050565b7f496e646578206f7574206f6620626f756e647300000000000000000000000000600082015250565b6000612e64601383612045565b9150612e6f82612e2e565b602082019050919050565b60006020820190508181036000830152612e9381612e57565b9050919050565b600081905092915050565b50565b6000612eb5600083612e9a565b9150612ec082612ea5565b600082019050919050565b6000612ed682612ea8565b9150819050919050565b7f4661696c656420746f2077697468647261770000000000000000000000000000600082015250565b6000612f16601283612045565b9150612f2182612ee0565b602082019050919050565b60006020820190508181036000830152612f4581612f09565b9050919050565b600081519050612f5b81612114565b92915050565b6000612f74612f6f846120b1565b611f0b565b90508083825260208201905060208402830185811115612f9757612f966120dd565b5b835b81811015612fc05780612fac8882612f4c565b845260208401935050602081019050612f99565b5050509392505050565b600082601f830112612fdf57612fde611e90565b5b8151612fef848260208601612f61565b91505092915050565b60006020828403121561300e5761300d611e86565b5b600082015167ffffffffffffffff81111561302c5761302b611e8b565b5b61303884828501612fca565b91505092915050565b61304a81612a59565b811461305557600080fd5b50565b60008151905061306781613041565b92915050565b60006020828403121561308357613082611e86565b5b600061309184828501613058565b91505092915050565b60008190508160005260206000209050919050565b60006020601f8301049050919050565b600082821b905092915050565b6000600883026130fc7fffffffffffffffffffffffffffffffffffffffffffffffffffffffffffffffff826130bf565b61310686836130bf565b95508019841693508086168417925050509392505050565b6000819050919050565b600061314361313e61313984611d67565b61311e565b611d67565b9050919050565b6000819050919050565b61315d83613128565b6131716131698261314a565b8484546130cc565b825550505050565b600090565b613186613179565b613191818484613154565b505050565b5b818110156131b5576131aa60008261317e565b600181019050613197565b5050565b601f8211156131fa576131cb8161309a565b6131d4846130af565b810160208510156131e3578190505b6131f76131ef856130af565b830182613196565b50505b505050565b600082821c905092915050565b600061321d600019846008026131ff565b1980831691505092915050565b6000613236838361320c565b9150826002028217905092915050565b61324f8261203a565b67ffffffffffffffff81111561326857613267611eab565b5b6132728254612dfd565b61327d8282856131b9565b600060209050601f8311600181146132b0576000841561329e578287015190505b6132a8858261322a565b865550613310565b601f1984166132be8661309a565b60005b828110156132e6578489015182556001820191506020850194506020810190506132c1565b8683101561330357848901516132ff601f89168261320c565b8355505b6001600288020188555050505b50505050505056fea2646970667358221220b7317e7868cc7d41d60c27dec76ebdef622a6964181af6ea8a40757b395eb3d864736f6c634300081c0033",
  "devdoc": {
    "errors": {
      "AlreadyInitialized()": [
        {
          "details": "Cannot double-initialize."
        }
      ],
      "NewOwnerIsZeroAddress()": [
        {
          "details": "The `newOwner` cannot be the zero address."
        }
      ],
      "NoHandoverRequest()": [
        {
          "details": "The `pendingOwner` does not have a valid handover request."
        }
      ],
      "Unauthorized()": [
        {
          "details": "The caller is not authorized to call the function."
        }
      ]
    },
    "events": {
      "OwnershipHandoverCanceled(address)": {
        "details": "The ownership handover to `pendingOwner` has been canceled."
      },
      "OwnershipHandoverRequested(address)": {
        "details": "An ownership handover to `pendingOwner` has been requested."
      },
      "OwnershipTransferred(address,address)": {
        "details": "The ownership is transferred from `oldOwner` to `newOwner`. This event is intentionally kept the same as OpenZeppelin's Ownable to be compatible with indexers and [EIP-173](https://eips.ethereum.org/EIPS/eip-173), despite it not being as lightweight as a single argument event."
      }
    },
    "kind": "dev",
    "methods": {
      "cancelOwnershipHandover()": {
        "details": "Cancels the two-step ownership handover to the caller, if any."
      },
      "completeOwnershipHandover(address)": {
        "details": "Allows the owner to complete the two-step ownership handover to `pendingOwner`. Reverts if there is no existing ownership handover requested by `pendingOwner`."
      },
      "owner()": {
        "details": "Returns the owner of the contract."
      },
      "ownershipHandoverExpiresAt(address)": {
        "details": "Returns the expiry timestamp for the two-step ownership handover to `pendingOwner`."
      },
      "renounceOwnership()": {
        "details": "Allows the owner to renounce their ownership."
      },
      "requestOwnershipHandover()": {
        "details": "Request a two-step ownership handover to the caller. The request will automatically expire in 48 hours (172800 seconds) by default."
      },
      "transferOwnership(address)": {
        "details": "Allows the owner to transfer the ownership to `newOwner`."
      }
    },
    "version": 1
  },
  "userdoc": {
    "kind": "user",
    "methods": {},
    "version": 1
  },
  "storageLayout": {
    "storage": [
      {
        "astId": 207,
        "contract": "contracts/Garden.sol:Garden",
        "label": "totalFlowers",
        "offset": 0,
        "slot": "0",
        "type": "t_uint256"
      },
      {
        "astId": 209,
        "contract": "contracts/Garden.sol:Garden",
        "label": "totalGuests",
        "offset": 0,
        "slot": "1",
        "type": "t_uint256"
      },
      {
        "astId": 213,
        "contract": "contracts/Garden.sol:Garden",
        "label": "flowersPlantedBy",
        "offset": 0,
        "slot": "2",
        "type": "t_mapping(t_address,t_uint256)"
      },
      {
        "astId": 217,
        "contract": "contracts/Garden.sol:Garden",
        "label": "flowerBy",
        "offset": 0,
        "slot": "3",
        "type": "t_mapping(t_uint256,t_address)"
      },
      {
        "astId": 221,
        "contract": "contracts/Garden.sol:Garden",
        "label": "flowerTimestamp",
        "offset": 0,
        "slot": "4",
        "type": "t_mapping(t_uint256,t_uint256)"
      },
      {
        "astId": 482,
        "contract": "contracts/Garden.sol:Garden",
        "label": "sculptures",
        "offset": 0,
        "slot": "5",
        "type": "t_array(t_address)dyn_storage"
      },
      {
        "astId": 857,
        "contract": "contracts/Garden.sol:Garden",
        "label": "exhibitionText",
        "offset": 0,
        "slot": "6",
        "type": "t_address"
      },
      {
        "astId": 902,
        "contract": "contracts/Garden.sol:Garden",
        "label": "exhibitionUrls",
        "offset": 0,
        "slot": "7",
        "type": "t_array(t_string_storage)dyn_storage"
      }
    ],
    "types": {
      "t_address": {
        "encoding": "inplace",
        "label": "address",
        "numberOfBytes": "20"
      },
      "t_array(t_address)dyn_storage": {
        "base": "t_address",
        "encoding": "dynamic_array",
        "label": "address[]",
        "numberOfBytes": "32"
      },
      "t_array(t_string_storage)dyn_storage": {
        "base": "t_string_storage",
        "encoding": "dynamic_array",
        "label": "string[]",
        "numberOfBytes": "32"
      },
      "t_mapping(t_address,t_uint256)": {
        "encoding": "mapping",
        "key": "t_address",
        "label": "mapping(address => uint256)",
        "numberOfBytes": "32",
        "value": "t_uint256"
      },
      "t_mapping(t_uint256,t_address)": {
        "encoding": "mapping",
        "key": "t_uint256",
        "label": "mapping(uint256 => address)",
        "numberOfBytes": "32",
        "value": "t_address"
      },
      "t_mapping(t_uint256,t_uint256)": {
        "encoding": "mapping",
        "key": "t_uint256",
        "label": "mapping(uint256 => uint256)",
        "numberOfBytes": "32",
        "value": "t_uint256"
      },
      "t_string_storage": {
        "encoding": "bytes",
        "label": "string",
        "numberOfBytes": "32"
      },
      "t_uint256": {
        "encoding": "inplace",
        "label": "uint256",
        "numberOfBytes": "32"
      }
    }
  }
}