{
  "address": "0x6755a6978A58AfC2c4a1bb6f52aA087C193043e5",
  "abi": [
    {
      "inputs": [
        {
          "internalType": "address",
          "name": "garden",
          "type": "address"
        },
        {
          "internalType": "address",
          "name": "essayContract",
          "type": "address"
        }
      ],
      "name": "html",
      "outputs": [
        {
          "internalType": "string",
          "name": "html",
          "type": "string"
        }
      ],
      "stateMutability": "view",
      "type": "function"
    }
  ],
  "transactionHash": "0x5952f0a3e2c7bee1ef5af0a6c00439bff747fe6c08fa759e9000f8c126c00c67",
  "args": [],
  "numDeployments": 1,
  "solcInputHash": "d2ab2470e668b964ce3d9f64e720954f",
  "bytecode": "0x610a15610052600b82828239805160001a6073146045577f4e487b7100000000000000000000000000000000000000000000000000000000600052600060045260246000fd5b30600052607381538281f3fe73000000000000000000000000000000000000000030146080604052600436106100355760003560e01c806329d556c61461003a575b600080fd5b610054600480360381019061004f919061026f565b61006a565b604051610061919061033f565b60405180910390f35b6060808273ffffffffffffffffffffffffffffffffffffffff166333c34ac36040518163ffffffff1660e01b8152600401600060405180830381865afa1580156100b8573d6000803e3d6000fd5b505050506040513d6000823e3d601f19601f820116820180604052508101906100e19190610487565b6040516020016100f29291906108c2565b604051602081830303815290604052905073dE9e7d851c92367A5E520CA106F5f717D5A1e7A063125a507b828573ffffffffffffffffffffffffffffffffffffffff16634a79d50c6040518163ffffffff1660e01b8152600401600060405180830381865afa158015610169573d6000803e3d6000fd5b505050506040513d6000823e3d601f19601f820116820180604052508101906101929190610487565b6040518363ffffffff1660e01b81526004016101af9291906109a8565b600060405180830381865af41580156101cc573d6000803e3d6000fd5b505050506040513d6000823e3d601f19601f820116820180604052508101906101f59190610487565b905092915050565b6000604051905090565b600080fd5b600080fd5b600073ffffffffffffffffffffffffffffffffffffffff82169050919050565b600061023c82610211565b9050919050565b61024c81610231565b811461025757600080fd5b50565b60008135905061026981610243565b92915050565b6000806040838503121561028657610285610207565b5b60006102948582860161025a565b92505060206102a58582860161025a565b9150509250929050565b600081519050919050565b600082825260208201905092915050565b60005b838110156102e95780820151818401526020810190506102ce565b60008484015250505050565b6000601f19601f8301169050919050565b6000610311826102af565b61031b81856102ba565b935061032b8185602086016102cb565b610334816102f5565b840191505092915050565b600060208201905081810360008301526103598184610306565b905092915050565b600080fd5b600080fd5b7f4e487b7100000000000000000000000000000000000000000000000000000000600052604160045260246000fd5b6103a3826102f5565b810181811067ffffffffffffffff821117156103c2576103c161036b565b5b80604052505050565b60006103d56101fd565b90506103e1828261039a565b919050565b600067ffffffffffffffff8211156104015761040061036b565b5b61040a826102f5565b9050602081019050919050565b600061042a610425846103e6565b6103cb565b90508281526020810184848401111561044657610445610366565b5b6104518482856102cb565b509392505050565b600082601f83011261046e5761046d610361565b5b815161047e848260208601610417565b91505092915050565b60006020828403121561049d5761049c610207565b5b600082015167ffffffffffffffff8111156104bb576104ba61020c565b5b6104c784828501610459565b91505092915050565b600081905092915050565b60006104e6826102af565b6104f081856104d0565b93506105008185602086016102cb565b80840191505092915050565b7f3c64697620636c6173733d2263206573736179223e3c64697620636c6173733d60008201527f2277223e3c64697620636c6173733d22732067223e0000000000000000000000602082015250565b60006105686035836104d0565b91506105738261050c565b603582019050919050565b7f3c703e3c693e54686973207465787420776173207075626c697368656420617360008201527f2070617274206f662074686520636f6e74726163742073686f773a203c61206860208201527f7265663d222f22207374796c653d22646973706c61793a20626c6f636b223e5760408201527f6f726c6420436f6d7075746572205363756c70747572652047617264656e3c2f60608201527f613e3c2f693e3c2f703e00000000000000000000000000000000000000000000608082015250565b600061064c608a836104d0565b91506106578261057e565b608a82019050919050565b7f3c62722f3e000000000000000000000000000000000000000000000000000000815250565b7fe29a980000000000000000000000000000000000000000000000000000000000815250565b7f3c62722f3e3c62722f3e3c62722f3e0000000000000000000000000000000000815250565b7f3c61727469636c653e0000000000000000000000000000000000000000000000815250565b7f3c2f61727469636c653e00000000000000000000000000000000000000000000815250565b7f3c62722f3e3c62722f3e00000000000000000000000000000000000000000000815250565b7f3c703e3c693e56696577207468652065786869626974696f6e2061743a203c6160008201527f20687265663d222f22207374796c653d22646973706c61793a20626c6f636b2260208201527f3e576f726c6420436f6d7075746572205363756c70747572652047617264656e60408201527f3c2f613e3c2f693e3c2f703e0000000000000000000000000000000000000000606082015250565b60006107ee606c836104d0565b91506107f982610746565b606c82019050919050565b7f3c2f6469763e3c2f6469763e3c2f6469763e0000000000000000000000000000815250565b7f3c64697620636c6173733d2266223e3c6120687265663d222f22207374796c6560008201527f3d22746578742d6465636f726174696f6e3a206e6f6e653b223ee29a983c2f6160208201527f3e3c2f6469763e00000000000000000000000000000000000000000000000000604082015250565b60006108ac6047836104d0565b91506108b78261082a565b604782019050919050565b60006108ce82856104db565b91506108d98261055b565b91506108e48261063f565b91506108ef82610662565b6005820191506108fe82610688565b60038201915061090d826106ae565b600f8201915061091c826106d4565b60098201915061092c82846104db565b9150610937826106fa565b600a8201915061094682610720565b600a8201915061095582610688565b60038201915061096482610720565b600a82019150610973826107e1565b915061097e82610662565b60058201915061098d82610804565b60128201915061099c8261089f565b91508190509392505050565b600060408201905081810360008301526109c28185610306565b905081810360208301526109d68184610306565b9050939250505056fea2646970667358221220cbf40aa8b30b6bf5135678527d9f233e79e81145d93fc357bf8f2c579eda04d964736f6c634300081c0033",
  "deployedBytecode": "0x73000000000000000000000000000000000000000030146080604052600436106100355760003560e01c806329d556c61461003a575b600080fd5b610054600480360381019061004f919061026f565b61006a565b604051610061919061033f565b60405180910390f35b6060808273ffffffffffffffffffffffffffffffffffffffff166333c34ac36040518163ffffffff1660e01b8152600401600060405180830381865afa1580156100b8573d6000803e3d6000fd5b505050506040513d6000823e3d601f19601f820116820180604052508101906100e19190610487565b6040516020016100f29291906108c2565b604051602081830303815290604052905073__$705ec615c2bf63f1eb4a27fa032a340997$__63125a507b828573ffffffffffffffffffffffffffffffffffffffff16634a79d50c6040518163ffffffff1660e01b8152600401600060405180830381865afa158015610169573d6000803e3d6000fd5b505050506040513d6000823e3d601f19601f820116820180604052508101906101929190610487565b6040518363ffffffff1660e01b81526004016101af9291906109a8565b600060405180830381865af41580156101cc573d6000803e3d6000fd5b505050506040513d6000823e3d601f19601f820116820180604052508101906101f59190610487565b905092915050565b6000604051905090565b600080fd5b600080fd5b600073ffffffffffffffffffffffffffffffffffffffff82169050919050565b600061023c82610211565b9050919050565b61024c81610231565b811461025757600080fd5b50565b60008135905061026981610243565b92915050565b6000806040838503121561028657610285610207565b5b60006102948582860161025a565b92505060206102a58582860161025a565b9150509250929050565b600081519050919050565b600082825260208201905092915050565b60005b838110156102e95780820151818401526020810190506102ce565b60008484015250505050565b6000601f19601f8301169050919050565b6000610311826102af565b61031b81856102ba565b935061032b8185602086016102cb565b610334816102f5565b840191505092915050565b600060208201905081810360008301526103598184610306565b905092915050565b600080fd5b600080fd5b7f4e487b7100000000000000000000000000000000000000000000000000000000600052604160045260246000fd5b6103a3826102f5565b810181811067ffffffffffffffff821117156103c2576103c161036b565b5b80604052505050565b60006103d56101fd565b90506103e1828261039a565b919050565b600067ffffffffffffffff8211156104015761040061036b565b5b61040a826102f5565b9050602081019050919050565b600061042a610425846103e6565b6103cb565b90508281526020810184848401111561044657610445610366565b5b6104518482856102cb565b509392505050565b600082601f83011261046e5761046d610361565b5b815161047e848260208601610417565b91505092915050565b60006020828403121561049d5761049c610207565b5b600082015167ffffffffffffffff8111156104bb576104ba61020c565b5b6104c784828501610459565b91505092915050565b600081905092915050565b60006104e6826102af565b6104f081856104d0565b93506105008185602086016102cb565b80840191505092915050565b7f3c64697620636c6173733d2263206573736179223e3c64697620636c6173733d60008201527f2277223e3c64697620636c6173733d22732067223e0000000000000000000000602082015250565b60006105686035836104d0565b91506105738261050c565b603582019050919050565b7f3c703e3c693e54686973207465787420776173207075626c697368656420617360008201527f2070617274206f662074686520636f6e74726163742073686f773a203c61206860208201527f7265663d222f22207374796c653d22646973706c61793a20626c6f636b223e5760408201527f6f726c6420436f6d7075746572205363756c70747572652047617264656e3c2f60608201527f613e3c2f693e3c2f703e00000000000000000000000000000000000000000000608082015250565b600061064c608a836104d0565b91506106578261057e565b608a82019050919050565b7f3c62722f3e000000000000000000000000000000000000000000000000000000815250565b7fe29a980000000000000000000000000000000000000000000000000000000000815250565b7f3c62722f3e3c62722f3e3c62722f3e0000000000000000000000000000000000815250565b7f3c61727469636c653e0000000000000000000000000000000000000000000000815250565b7f3c2f61727469636c653e00000000000000000000000000000000000000000000815250565b7f3c62722f3e3c62722f3e00000000000000000000000000000000000000000000815250565b7f3c703e3c693e56696577207468652065786869626974696f6e2061743a203c6160008201527f20687265663d222f22207374796c653d22646973706c61793a20626c6f636b2260208201527f3e576f726c6420436f6d7075746572205363756c70747572652047617264656e60408201527f3c2f613e3c2f693e3c2f703e0000000000000000000000000000000000000000606082015250565b60006107ee606c836104d0565b91506107f982610746565b606c82019050919050565b7f3c2f6469763e3c2f6469763e3c2f6469763e0000000000000000000000000000815250565b7f3c64697620636c6173733d2266223e3c6120687265663d222f22207374796c6560008201527f3d22746578742d6465636f726174696f6e3a206e6f6e653b223ee29a983c2f6160208201527f3e3c2f6469763e00000000000000000000000000000000000000000000000000604082015250565b60006108ac6047836104d0565b91506108b78261082a565b604782019050919050565b60006108ce82856104db565b91506108d98261055b565b91506108e48261063f565b91506108ef82610662565b6005820191506108fe82610688565b60038201915061090d826106ae565b600f8201915061091c826106d4565b60098201915061092c82846104db565b9150610937826106fa565b600a8201915061094682610720565b600a8201915061095582610688565b60038201915061096482610720565b600a82019150610973826107e1565b915061097e82610662565b60058201915061098d82610804565b60128201915061099c8261089f565b91508190509392505050565b600060408201905081810360008301526109c28185610306565b905081810360208301526109d68184610306565b9050939250505056fea2646970667358221220cbf40aa8b30b6bf5135678527d9f233e79e81145d93fc357bf8f2c579eda04d964736f6c634300081c0033",
  "libraries": {
    "GardenHTML": "0xdE9e7d851c92367A5E520CA106F5f717D5A1e7A0"
  },
  "devdoc": {
    "kind": "dev",
    "methods": {},
    "version": 1
  },
  "userdoc": {
    "kind": "user",
    "methods": {},
    "version": 1
  },
  "storageLayout": {
    "storage": [],
    "types": null
  }
}