{
  "address": "0x0717638aA6C72b3734CB05c69b9bB37442C5DeCc",
  "abi": [
    {
      "inputs": [
        {
          "internalType": "address",
          "name": "_garden",
          "type": "address"
        },
        {
          "internalType": "address",
          "name": "_essayContract",
          "type": "address"
        }
      ],
      "stateMutability": "nonpayable",
      "type": "constructor"
    },
    {
      "inputs": [],
      "name": "essay",
      "outputs": [
        {
          "internalType": "string",
          "name": "html",
          "type": "string"
        }
      ],
      "stateMutability": "view",
      "type": "function"
    },
    {
      "inputs": [],
      "name": "essayContract",
      "outputs": [
        {
          "internalType": "address",
          "name": "",
          "type": "address"
        }
      ],
      "stateMutability": "view",
      "type": "function"
    },
    {
      "inputs": [],
      "name": "garden",
      "outputs": [
        {
          "internalType": "address",
          "name": "",
          "type": "address"
        }
      ],
      "stateMutability": "view",
      "type": "function"
    },
    {
      "inputs": [],
      "name": "html",
      "outputs": [
        {
          "internalType": "string",
          "name": "",
          "type": "string"
        }
      ],
      "stateMutability": "view",
      "type": "function"
    },
    {
      "inputs": [],
      "name": "index",
      "outputs": [
        {
          "internalType": "string",
          "name": "html",
          "type": "string"
        }
      ],
      "stateMutability": "view",
      "type": "function"
    },
    {
      "inputs": [
        {
          "internalType": "string[]",
          "name": "resource",
          "type": "string[]"
        },
        {
          "components": [
            {
              "internalType": "string",
              "name": "key",
              "type": "string"
            },
            {
              "internalType": "string",
              "name": "value",
              "type": "string"
            }
          ],
          "internalType": "struct KeyValue[]",
          "name": "params",
          "type": "tuple[]"
        }
      ],
      "name": "request",
      "outputs": [
        {
          "internalType": "uint256",
          "name": "statusCode",
          "type": "uint256"
        },
        {
          "internalType": "string",
          "name": "body",
          "type": "string"
        },
        {
          "components": [
            {
              "internalType": "string",
              "name": "key",
              "type": "string"
            },
            {
              "internalType": "string",
              "name": "value",
              "type": "string"
            }
          ],
          "internalType": "struct KeyValue[]",
          "name": "headers",
          "type": "tuple[]"
        }
      ],
      "stateMutability": "view",
      "type": "function"
    },
    {
      "inputs": [],
      "name": "resolveMode",
      "outputs": [
        {
          "internalType": "bytes32",
          "name": "",
          "type": "bytes32"
        }
      ],
      "stateMutability": "pure",
      "type": "function"
    }
  ],
  "transactionHash": "0xa9a389accd80d84539aa8e61c462a48831cb2fd9d4a66a6f6b3d6ba345283ba9",
  "args": [
    "0x789BC8604E3F44a08f563Fba64d5c85797D67E7f",
    "0x7d819DB667f3e5c3029B160b947C35A917913B0f"
  ],
  "numDeployments": 8,
  "solcInputHash": "324ae35969ed3552b44c13c83d765958",
  "bytecode": "0x60c060405234801561001057600080fd5b5060405161611738038061611783398181016040528101906100329190610104565b8173ffffffffffffffffffffffffffffffffffffffff1660808173ffffffffffffffffffffffffffffffffffffffff16815250508073ffffffffffffffffffffffffffffffffffffffff1660a08173ffffffffffffffffffffffffffffffffffffffff16815250505050610144565b600080fd5b600073ffffffffffffffffffffffffffffffffffffffff82169050919050565b60006100d1826100a6565b9050919050565b6100e1816100c6565b81146100ec57600080fd5b50565b6000815190506100fe816100d8565b92915050565b6000806040838503121561011b5761011a6100a1565b5b6000610129858286016100ef565b925050602061013a858286016100ef565b9150509250929050565b60805160a051615f5a6101bd600039600081816106a90152818161114c015261121101526000818161043b015281816104d2015281816106830152818161079e01528181610e0701528181610e3201528181610ed501528181610f78015281816110b501528181611235015261136e0152615f5a6000f3fe608060405234801561001057600080fd5b506004361061007d5760003560e01c8063427158f61161005b578063427158f6146100f057806344e2e23b1461010e57806356ba88b81461012c578063dd473fae1461014a5761007d565b80631374c460146100825780632986c0e5146100b457806333c34ac3146100d2575b600080fd5b61009c60048036038101906100979190611cb0565b610168565b6040516100ab93929190611f10565b60405180910390f35b6100bc610435565b6040516100c99190611f55565b60405180910390f35b6100da6110a0565b6040516100e79190611f55565b60405180910390f35b6100f86110af565b6040516101059190611f55565b60405180910390f35b61011661120f565b6040516101239190611fb8565b60405180910390f35b610134611233565b6040516101419190611fb8565b60405180910390f35b610152611257565b60405161015f9190611fec565b60405180910390f35b600060608060008551036102925761017e610435565b915060c89250600167ffffffffffffffff81111561019f5761019e611927565b5b6040519080825280602002602001820160405280156101d857816020015b6101c56118e3565b8152602001906001900390816101bd5790505b5090506040518060400160405280600c81526020017f436f6e74656e742d5479706500000000000000000000000000000000000000008152508160008151811061022557610224612007565b5b6020026020010151600001819052506040518060400160405280601881526020017f746578742f68746d6c3b20636861727365743d7574662d3800000000000000008152508160008151811061027e5761027d612007565b5b60200260200101516020018190525061042e565b6001855114801561030757506040516020016102ad9061208d565b60405160208183030381529060405280519060200120856000815181106102d7576102d6612007565b5b60200260200101516040516020016102ef91906120d3565b60405160208183030381529060405280519060200120145b15610428576103146110af565b915060c89250600167ffffffffffffffff81111561033557610334611927565b5b60405190808252806020026020018201604052801561036e57816020015b61035b6118e3565b8152602001906001900390816103535790505b5090506040518060400160405280600c81526020017f436f6e74656e742d547970650000000000000000000000000000000000000000815250816000815181106103bb576103ba612007565b5b6020026020010151600001819052506040518060400160405280601881526020017f746578742f68746d6c3b20636861727365743d7574662d3800000000000000008152508160008151811061041457610413612007565b5b60200260200101516020018190525061042e565b61019492505b9250925092565b606060007f000000000000000000000000000000000000000000000000000000000000000073ffffffffffffffffffffffffffffffffffffffff166355735c5e6040518163ffffffff1660e01b8152600401600060405180830381865afa1580156104a4573d6000803e3d6000fd5b505050506040513d6000823e3d601f19601f820116820180604052508101906104cd91906121d9565b9050817f000000000000000000000000000000000000000000000000000000000000000073ffffffffffffffffffffffffffffffffffffffff16634a79d50c6040518163ffffffff1660e01b8152600401600060405180830381865afa15801561053b573d6000803e3d6000fd5b505050506040513d6000823e3d601f19601f820116820180604052508101906105649190612292565b6040516020016105759291906125ad565b604051602081830303815290604052915060005b815181101561067c5760008282815181106105a7576105a6612007565b5b602002602001015173ffffffffffffffffffffffffffffffffffffffff166328411ae16040518163ffffffff1660e01b8152600401600060405180830381865afa1580156105f9573d6000803e3d6000fd5b505050506040513d6000823e3d601f19601f82011682018060405250810190610622919061274c565b905060008151111561066e57838160008151811061064357610642612007565b5b602002602001015160405160200161065c9291906127bb565b60405160208183030381529060405293505b508080600101915050610589565b50816106a77f000000000000000000000000000000000000000000000000000000000000000061127f565b7f000000000000000000000000000000000000000000000000000000000000000073ffffffffffffffffffffffffffffffffffffffff166328411ae16040518163ffffffff1660e01b8152600401600060405180830381865afa158015610712573d6000803e3d6000fd5b505050506040513d6000823e3d601f19601f8201168201806040525081019061073b919061274c565b60008151811061074e5761074d612007565b5b602002602001015160405160200161076893929190612d46565b60405160208183030381529060405291508160405160200161078a9190612ec8565b6040516020818303038152906040529150817f000000000000000000000000000000000000000000000000000000000000000073ffffffffffffffffffffffffffffffffffffffff16631f1bd6926040518163ffffffff1660e01b8152600401600060405180830381865afa158015610807573d6000803e3d6000fd5b505050506040513d6000823e3d601f19601f820116820180604052508101906108309190612292565b604051602001610841929190612fbb565b604051602081830303815290604052915060005b8151811015610e0057600082828151811061087357610872612007565b5b6020026020010151905060008173ffffffffffffffffffffffffffffffffffffffff16634a79d50c6040518163ffffffff1660e01b8152600401600060405180830381865afa1580156108ca573d6000803e3d6000fd5b505050506040513d6000823e3d601f19601f820116820180604052508101906108f39190612292565b905084604051602001610906919061302e565b604051602081830303815290604052945060008273ffffffffffffffffffffffffffffffffffffffff166328411ae16040518163ffffffff1660e01b8152600401600060405180830381865afa158015610964573d6000803e3d6000fd5b505050506040513d6000823e3d601f19601f8201168201806040525081019061098d919061274c565b9050600081511115610a5b57856040516020016109aa9190613054565b604051602081830303815290604052955060005b8151811015610a375760008282815181106109dc576109db612007565b5b6020026020010151510315610a2a57868282815181106109ff576109fe612007565b5b6020026020010151604051602001610a189291906127bb565b60405160208183030381529060405296505b80806001019150506109be565b5085604051602001610a4991906130a0565b60405160208183030381529060405295505b600082511115610a8e578582604051602001610a78929190613112565b6040516020818303038152906040529550610ab1565b85604051602001610a9f919061317a565b60405160208183030381529060405295505b60008373ffffffffffffffffffffffffffffffffffffffff1663da0321cd6040518163ffffffff1660e01b8152600401600060405180830381865afa158015610afe573d6000803e3d6000fd5b505050506040513d6000823e3d601f19601f82011682018060405250810190610b2791906121d9565b9050600081511115610bd85786604051602001610b4491906131be565b604051602081830303815290604052965060005b8151811015610bb45787610b85838381518110610b7857610b77612007565b5b602002602001015161127f565b604051602001610b969291906127bb565b60405160208183030381529060405297508080600101915050610b58565b5086604051602001610bc6919061320a565b60405160208183030381529060405296505b60008473ffffffffffffffffffffffffffffffffffffffff16632c73dc4a6040518163ffffffff1660e01b8152600401600060405180830381865afa158015610c25573d6000803e3d6000fd5b505050506040513d6000823e3d601f19601f82011682018060405250810190610c4e919061274c565b9050600081511115610d245787604051602001610c6b91906131be565b604051602081830303815290604052975060005b8151811015610d00576000828281518110610c9d57610c9c612007565b5b6020026020010151510315610cf35788610cd0838381518110610cc357610cc2612007565b5b60200260200101516112a5565b604051602001610ce19291906127bb565b60405160208183030381529060405298505b8080600101915050610c7f565b5087604051602001610d12919061320a565b60405160208183030381529060405297505b60008573ffffffffffffffffffffffffffffffffffffffff16631f1bd6926040518163ffffffff1660e01b8152600401600060405180830381865afa158015610d71573d6000803e3d6000fd5b505050506040513d6000823e3d601f19601f82011682018060405250810190610d9a9190612292565b9050600081511115610dcb578881604051602001610db992919061327c565b60405160208183030381529060405298505b88604051602001610ddc91906132e4565b60405160208183030381529060405298505050505050508080600101915050610855565b5081610e2b7f000000000000000000000000000000000000000000000000000000000000000061127f565b610ece60057f000000000000000000000000000000000000000000000000000000000000000073ffffffffffffffffffffffffffffffffffffffff16630a8ee81d6040518163ffffffff1660e01b8152600401602060405180830381865afa158015610e9b573d6000803e3d6000fd5b505050506040513d601f19601f82011682018060405250810190610ebf9190613336565b610ec99190613392565b6112de565b610f7160c87f000000000000000000000000000000000000000000000000000000000000000073ffffffffffffffffffffffffffffffffffffffff1663706e3da26040518163ffffffff1660e01b8152600401602060405180830381865afa158015610f3e573d6000803e3d6000fd5b505050506040513d601f19601f82011682018060405250810190610f629190613336565b610f6c9190613392565b6112de565b61101460c87f000000000000000000000000000000000000000000000000000000000000000073ffffffffffffffffffffffffffffffffffffffff1663706e3da26040518163ffffffff1660e01b8152600401602060405180830381865afa158015610fe1573d6000803e3d6000fd5b505050506040513d601f19601f820116820180604052508101906110059190613336565b61100f9190613392565b6112de565b604051602001611028959493929190614784565b604051602081830303815290604052915081611043436112de565b61104c3061127f565b60405160200161105e93929190614bdc565b6040516020818303038152906040529150816040516020016110809190614c36565b604051602081830303815290604052915061109a8261132f565b91505090565b60606110aa610435565b905090565b606060007f000000000000000000000000000000000000000000000000000000000000000073ffffffffffffffffffffffffffffffffffffffff166355735c5e6040518163ffffffff1660e01b8152600401600060405180830381865afa15801561111e573d6000803e3d6000fd5b505050506040513d6000823e3d601f19601f8201168201806040525081019061114791906121d9565b9050817f000000000000000000000000000000000000000000000000000000000000000073ffffffffffffffffffffffffffffffffffffffff166333c34ac36040518163ffffffff1660e01b8152600401600060405180830381865afa1580156111b5573d6000803e3d6000fd5b505050506040513d6000823e3d601f19601f820116820180604052508101906111de9190612292565b6040516020016111ef929190614fc6565b60405160208183030381529060405291506112098261132f565b91505090565b7f000000000000000000000000000000000000000000000000000000000000000081565b7f000000000000000000000000000000000000000000000000000000000000000081565b60007f3532313900000000000000000000000000000000000000000000000000000000905090565b606061128a8261144f565b90506002815101613078825260028203915080825250919050565b606060006112b2836114d2565b905082816040516020016112c7929190615144565b604051602081830303815290604052915050919050565b60606080604051019050602081016040526000815280600019835b60011561131a578184019350600a81066030018453600a81049050806112f9575b50828203602084039350808452505050919050565b606060006040518060400160405280600681526020017f3c68746d6c3e00000000000000000000000000000000000000000000000000008152509050807f000000000000000000000000000000000000000000000000000000000000000073ffffffffffffffffffffffffffffffffffffffff16634a79d50c6040518163ffffffff1660e01b8152600401600060405180830381865afa1580156113d7573d6000803e3d6000fd5b505050506040513d6000823e3d601f19601f820116820180604052508101906114009190612292565b604051602001611411929190615d25565b60405160208183030381529060405290508083604051602001611435929190615eae565b604051602081830303815290604052905080915050919050565b60606040519050608081016040526f30313233343536373839616263646566600f526002810190506028815260208101600060288201528260601b925060005b6001156114cb57808101820184821a600f81165160018301538060041c518253600183019250601483036114c45750506114cb565b505061148f565b5050919050565b6060600082905060008151905060008082905060005b6002846114f59190615ef0565b811015611670577f3a000000000000000000000000000000000000000000000000000000000000008582815181106115305761152f612007565b5b602001015160f81c60f81b7effffffffffffffffffffffffffffffffffffffffffffffffffffffffffffff19161480156115d457507f2f00000000000000000000000000000000000000000000000000000000000000856001836115949190613392565b815181106115a5576115a4612007565b5b602001015160f81c60f81b7effffffffffffffffffffffffffffffffffffffffffffffffffffffffffffff1916145b801561164a57507f2f000000000000000000000000000000000000000000000000000000000000008560028361160a9190613392565b8151811061161b5761161a612007565b5b602001015160f81c60f81b7effffffffffffffffffffffffffffffffffffffffffffffffffffffffffffff1916145b156116635760038161165c9190613392565b9250611670565b80806001019150506114e8565b5060008290505b83811015611764577f3f000000000000000000000000000000000000000000000000000000000000008582815181106116b3576116b2612007565b5b602001015160f81c60f81b7effffffffffffffffffffffffffffffffffffffffffffffffffffffffffffff1916148061174a57507f230000000000000000000000000000000000000000000000000000000000000085828151811061171b5761171a612007565b5b602001015160f81c60f81b7effffffffffffffffffffffffffffffffffffffffffffffffffffffffffffff1916145b1561175757809150611764565b8080600101915050611677565b5081811180156117de57507f2f000000000000000000000000000000000000000000000000000000000000008460018361179e9190615ef0565b815181106117af576117ae612007565b5b602001015160f81c60f81b7effffffffffffffffffffffffffffffffffffffffffffffffffffffffffffff1916145b156117f3576001816117f09190615ef0565b90505b600082826118019190615ef0565b67ffffffffffffffff81111561181a57611819611927565b5b6040519080825280601f01601f19166020018201604052801561184c5781602001600182028036833780820191505090505b50905060008390505b828110156118d5578581815181106118705761186f612007565b5b602001015160f81c60f81b8285836118889190615ef0565b8151811061189957611898612007565b5b60200101907effffffffffffffffffffffffffffffffffffffffffffffffffffffffffffff1916908160001a9053508080600101915050611855565b508095505050505050919050565b604051806040016040528060608152602001606081525090565b6000604051905090565b600080fd5b600080fd5b600080fd5b6000601f19601f8301169050919050565b7f4e487b7100000000000000000000000000000000000000000000000000000000600052604160045260246000fd5b61195f82611916565b810181811067ffffffffffffffff8211171561197e5761197d611927565b5b80604052505050565b60006119916118fd565b905061199d8282611956565b919050565b600067ffffffffffffffff8211156119bd576119bc611927565b5b602082029050602081019050919050565b600080fd5b600080fd5b600067ffffffffffffffff8211156119f3576119f2611927565b5b6119fc82611916565b9050602081019050919050565b82818337600083830152505050565b6000611a2b611a26846119d8565b611987565b905082815260208101848484011115611a4757611a466119d3565b5b611a52848285611a09565b509392505050565b600082601f830112611a6f57611a6e611911565b5b8135611a7f848260208601611a18565b91505092915050565b6000611a9b611a96846119a2565b611987565b90508083825260208201905060208402830185811115611abe57611abd6119ce565b5b835b81811015611b0557803567ffffffffffffffff811115611ae357611ae2611911565b5b808601611af08982611a5a565b85526020850194505050602081019050611ac0565b5050509392505050565b600082601f830112611b2457611b23611911565b5b8135611b34848260208601611a88565b91505092915050565b600067ffffffffffffffff821115611b5857611b57611927565b5b602082029050602081019050919050565b600080fd5b600080fd5b600060408284031215611b8957611b88611b69565b5b611b936040611987565b9050600082013567ffffffffffffffff811115611bb357611bb2611b6e565b5b611bbf84828501611a5a565b600083015250602082013567ffffffffffffffff811115611be357611be2611b6e565b5b611bef84828501611a5a565b60208301525092915050565b6000611c0e611c0984611b3d565b611987565b90508083825260208201905060208402830185811115611c3157611c306119ce565b5b835b81811015611c7857803567ffffffffffffffff811115611c5657611c55611911565b5b808601611c638982611b73565b85526020850194505050602081019050611c33565b5050509392505050565b600082601f830112611c9757611c96611911565b5b8135611ca7848260208601611bfb565b91505092915050565b60008060408385031215611cc757611cc6611907565b5b600083013567ffffffffffffffff811115611ce557611ce461190c565b5b611cf185828601611b0f565b925050602083013567ffffffffffffffff811115611d1257611d1161190c565b5b611d1e85828601611c82565b9150509250929050565b6000819050919050565b611d3b81611d28565b82525050565b600081519050919050565b600082825260208201905092915050565b60005b83811015611d7b578082015181840152602081019050611d60565b60008484015250505050565b6000611d9282611d41565b611d9c8185611d4c565b9350611dac818560208601611d5d565b611db581611916565b840191505092915050565b600081519050919050565b600082825260208201905092915050565b6000819050602082019050919050565b600082825260208201905092915050565b6000611e0882611d41565b611e128185611dec565b9350611e22818560208601611d5d565b611e2b81611916565b840191505092915050565b60006040830160008301518482036000860152611e538282611dfd565b91505060208301518482036020860152611e6d8282611dfd565b9150508091505092915050565b6000611e868383611e36565b905092915050565b6000602082019050919050565b6000611ea682611dc0565b611eb08185611dcb565b935083602082028501611ec285611ddc565b8060005b85811015611efe5784840389528151611edf8582611e7a565b9450611eea83611e8e565b925060208a01995050600181019050611ec6565b50829750879550505050505092915050565b6000606082019050611f256000830186611d32565b8181036020830152611f378185611d87565b90508181036040830152611f4b8184611e9b565b9050949350505050565b60006020820190508181036000830152611f6f8184611d87565b905092915050565b600073ffffffffffffffffffffffffffffffffffffffff82169050919050565b6000611fa282611f77565b9050919050565b611fb281611f97565b82525050565b6000602082019050611fcd6000830184611fa9565b92915050565b6000819050919050565b611fe681611fd3565b82525050565b60006020820190506120016000830184611fdd565b92915050565b7f4e487b7100000000000000000000000000000000000000000000000000000000600052603260045260246000fd5b600081905092915050565b7f6573736179000000000000000000000000000000000000000000000000000000600082015250565b6000612077600583612036565b915061208282612041565b600582019050919050565b60006120988261206a565b9150819050919050565b60006120ad82611d41565b6120b78185612036565b93506120c7818560208601611d5d565b80840191505092915050565b60006120df82846120a2565b915081905092915050565b600067ffffffffffffffff82111561210557612104611927565b5b602082029050602081019050919050565b61211f81611f97565b811461212a57600080fd5b50565b60008151905061213c81612116565b92915050565b6000612155612150846120ea565b611987565b90508083825260208201905060208402830185811115612178576121776119ce565b5b835b818110156121a1578061218d888261212d565b84526020840193505060208101905061217a565b5050509392505050565b600082601f8301126121c0576121bf611911565b5b81516121d0848260208601612142565b91505092915050565b6000602082840312156121ef576121ee611907565b5b600082015167ffffffffffffffff81111561220d5761220c61190c565b5b612219848285016121ab565b91505092915050565b6000612235612230846119d8565b611987565b905082815260208101848484011115612251576122506119d3565b5b61225c848285611d5d565b509392505050565b600082601f83011261227957612278611911565b5b8151612289848260208601612222565b91505092915050565b6000602082840312156122a8576122a7611907565b5b600082015167ffffffffffffffff8111156122c6576122c561190c565b5b6122d284828501612264565b91505092915050565b7f3c64697620636c6173733d2263223e0000000000000000000000000000000000815250565b7f3c64697620636c6173733d2277223e0000000000000000000000000000000000815250565b7f3c64697620636c6173733d22732067223e000000000000000000000000000000815250565b7f3c70726520636c6173733d2267617264656e223e000000000000000000000000815250565b7f20202020202020e29a982020202020202020202020202020202020202020e29a60008201527f980a000000000000000000000000000000000000000000000000000000000000602082015250565b60006123cf602283612036565b91506123da82612373565b602282019050919050565b7f20202020202020202020202020e29a980a000000000000000000000000000000815250565b7fe29a982020202020202020202020202020202020202020202020e29a9820202060008201527f202020202020e29a980a00000000000000000000000000000000000000000000602082015250565b6000612467602a83612036565b91506124728261240b565b602a82019050919050565b7f2020202020202020e29a98202020202020202020e29a980a0000000000000000815250565b7f202020e29a98202020202020202020202020202020202020202020202020202060008201527fe29a980a00000000000000000000000000000000000000000000000000000000602082015250565b60006124ff602483612036565b915061250a826124a3565b602482019050919050565b7f3c2f7072653e0000000000000000000000000000000000000000000000000000815250565b7f3c6272202f3e3c6272202f3e0000000000000000000000000000000000000000815250565b7f3c68313e00000000000000000000000000000000000000000000000000000000815250565b7f3c2f68313e0a0000000000000000000000000000000000000000000000000000815250565b60006125b982856120a2565b91506125c4826122db565b600f820191506125d382612301565b600f820191506125e282612327565b6011820191506125f18261234d565b601482019150612600826123c2565b915061260b826123e5565b60118201915061261a8261245a565b91506126258261247d565b601882019150612634826124f2565b915061263f82612515565b60068201915061264e8261253b565b600c8201915061265d82612561565b60048201915061266d82846120a2565b915061267882612587565b6006820191506126878261253b565b600c820191508190509392505050565b60006126aa6126a5846119a2565b611987565b905080838252602082019050602084028301858111156126cd576126cc6119ce565b5b835b8181101561271457805167ffffffffffffffff8111156126f2576126f1611911565b5b8086016126ff8982612264565b855260208501945050506020810190506126cf565b5050509392505050565b600082601f83011261273357612732611911565b5b8151612743848260208601612697565b91505092915050565b60006020828403121561276257612761611907565b5b600082015167ffffffffffffffff8111156127805761277f61190c565b5b61278c8482850161271e565b91505092915050565b7f3c62722f3e000000000000000000000000000000000000000000000000000000815250565b60006127c782856120a2565b91506127d382846120a2565b91506127de82612795565b6005820191508190509392505050565b7f3c68323e00000000000000000000000000000000000000000000000000000000815250565b7f3c2f68323e3c6272202f3e000000000000000000000000000000000000000000815250565b7f202020202020e29a9820202020202020202020202020202020202020202020e260008201527f9a980a0000000000000000000000000000000000000000000000000000000000602082015250565b6000612896602383612036565b91506128a18261283a565b602382019050919050565b7f2020202020202020202020202020e29a980a0000000000000000000000000000815250565b7f20e29a98202020202020202020202020202020202020202020e29a982020202060008201527f2020202020e29a980a0000000000000000000000000000000000000000000000602082015250565b600061292e602983612036565b9150612939826128d2565b602982019050919050565b7f20202020202020202020e29a98202020202020e29a980a000000000000000000815250565b7f2020202020e29a98202020202020202020202020202020202020202020e29a9860008201527f0a00000000000000000000000000000000000000000000000000000000000000602082015250565b60006129c6602183612036565b91506129d18261296a565b602182019050919050565b7f3c2f7072653e3c6272202f3e0000000000000000000000000000000000000000815250565b7f3c703e0000000000000000000000000000000000000000000000000000000000815250565b7f4120636f6e74726163742073686f772063757261746564206279200000000000815250565b7f3c6120687265663d2268747470733a2f2f30786666662e6c6f7665222074617260008201527f6765743d225f626c616e6b222072656c3d226e6f6f70656e6572206e6f72656660208201527f6572726572223e30786666663c2f613e3c62722f3e0000000000000000000000604082015250565b6000612ad0605583612036565b9150612adb82612a4e565b605582019050919050565b7f77697468207370656369616c207468616e6b7320746f20000000000000000000815250565b7f3c6120687265663d2268747470733a2f2f782e636f6d2f7373736c756b65312260008201527f207461726765743d225f626c616e6b222072656c3d226e6f6f70656e6572206e60208201527f6f7265666572726572223e7373736c756b653c2f613e20616e64203c6120687260408201527f65663d2268747470733a2f2f782e636f6d2f307831313364222072656c3d226e60608201527f6f6f70656e6572206e6f726566657272657222207461726765743d225f626c6160808201527f6e6b223e3131333c2f613e00000000000000000000000000000000000000000060a082015250565b6000612c0060ab83612036565b9150612c0b82612b0c565b60ab82019050919050565b7f3c62722f3e3c62722f3e00000000000000000000000000000000000000000000815250565b7f3c6120687265663d222f6573736179223e45737361793c2f613e206279203c6160008201527f20687265663d2268747470733a2f2f782e636f6d2f6d616c746566725f65746860208201527f22207461726765743d225f626c616e6b222072656c3d226e6f6f70656e65722060408201527f6e6f7265666572726572223e0000000000000000000000000000000000000000606082015250565b6000612ce4606c83612036565b9150612cef82612c3c565b606c82019050919050565b7f3c2f613e00000000000000000000000000000000000000000000000000000000815250565b7f3c2f703e3c6272202f3e3c6272202f3e00000000000000000000000000000000815250565b6000612d5282866120a2565b9150612d5d8261253b565b600c82019150612d6c826127ee565b600482019150612d7c82856120a2565b9150612d8782612814565b600b82019150612d968261234d565b601482019150612da582612889565b9150612db0826128ac565b601282019150612dbf82612921565b9150612dca82612944565b601782019150612dd9826129b9565b9150612de4826129dc565b600c82019150612df382612a02565b600382019150612e0282612a28565b601b82019150612e1182612ac3565b9150612e1c82612ae6565b601782019150612e2b82612bf3565b9150612e3682612c16565b600a82019150612e4582612cd7565b9150612e5182846120a2565b9150612e5c82612cfa565b600482019150612e6b82612d20565b601082019150819050949350505050565b7f3c6272202f3e3c2f6469763e0000000000000000000000000000000000000000815250565b7f3c64697620636c6173733d2270223ee286933c2f6469763e3c2f6469763e0000815250565b6000612ed482846120a2565b9150612edf82612e7c565b600c82019150612eee82612ea2565b601e8201915081905092915050565b7f3c64697620636c6173733d2277223e3c64697620636c6173733d2273223e3c7060008201527f3e00000000000000000000000000000000000000000000000000000000000000602082015250565b6000612f59602183612036565b9150612f6482612efd565b602182019050919050565b7f3c62722f3e3c62722f3e202d2030786666660000000000000000000000000000815250565b7f3c2f703e3c2f6469763e3c2f6469763e00000000000000000000000000000000815250565b6000612fc782856120a2565b9150612fd282612f4c565b9150612fde82846120a2565b9150612fe982612f6f565b601282019150612ff882612f95565b6010820191508190509392505050565b7f3c64697620636c6173733d2277223e3c64697620636c6173733d2273223e0000815250565b600061303a82846120a2565b915061304582613008565b601e8201915081905092915050565b600061306082846120a2565b915061306b826127ee565b60048201915081905092915050565b7f3c2f68323e000000000000000000000000000000000000000000000000000000815250565b60006130ac82846120a2565b91506130b78261307a565b60058201915081905092915050565b7f3c68333e3c693e00000000000000000000000000000000000000000000000000815250565b7f3c2f693e3c2f68333e0000000000000000000000000000000000000000000000815250565b600061311e82856120a2565b9150613129826130c6565b60078201915061313982846120a2565b9150613144826130ec565b6009820191508190509392505050565b7f556e7469746c6564000000000000000000000000000000000000000000000000815250565b600061318682846120a2565b9150613191826130c6565b6007820191506131a082613154565b6008820191506131af826130ec565b60098201915081905092915050565b60006131ca82846120a2565b91506131d582612a02565b60038201915081905092915050565b7f3c2f703e00000000000000000000000000000000000000000000000000000000815250565b600061321682846120a2565b9150613221826131e4565b60048201915081905092915050565b7f3c64697620636c6173733d2274223e0000000000000000000000000000000000815250565b7f3c2f6469763e0000000000000000000000000000000000000000000000000000815250565b600061328882856120a2565b915061329382613230565b600f820191506132a382846120a2565b91506132ae82613256565b6006820191508190509392505050565b7f3c2f6469763e3c2f6469763e0000000000000000000000000000000000000000815250565b60006132f082846120a2565b91506132fb826132be565b600c8201915081905092915050565b61331381611d28565b811461331e57600080fd5b50565b6000815190506133308161330a565b92915050565b60006020828403121561334c5761334b611907565b5b600061335a84828501613321565b91505092915050565b7f4e487b7100000000000000000000000000000000000000000000000000000000600052601160045260246000fd5b600061339d82611d28565b91506133a883611d28565b92508282019050808211156133c0576133bf613363565b5b92915050565b7f3c6469762069643d226669656c64312220636c6173733d226669656c64223e3c60008201527f2f6469763e3c62722f3e3c62722f3e3c62722f3e000000000000000000000000602082015250565b6000613422603483612036565b915061342d826133c6565b603482019050919050565b7f3c70207374796c653d22746578742d616c69676e3a63656e7465723b223e0000815250565b7f4775657374626f6f6b0000000000000000000000000000000000000000000000815250565b7f596f75206d6179206c65617665206120666c6f7765722068657265206279207360008201527f656e64696e6720302e30312045544820286f72206d756c7469706c657320746860208201527f6572656f66293c62722f3e20746f207468652073686f7720636f6e747261637460408201527f2061742000000000000000000000000000000000000000000000000000000000606082015250565b600061352c606483612036565b915061353782613484565b606482019050919050565b7f20677565737473206861766520706c616e746564200000000000000000000000815250565b7f20666c6f77657273000000000000000000000000000000000000000000000000815250565b7f3c2f703e3c62722f3e3c62722f3e3c62722f3e00000000000000000000000000815250565b7f3c6469762069643d226669656c64322220636c6173733d226669656c64223e3c60008201527f2f6469763e000000000000000000000000000000000000000000000000000000602082015250565b6000613610602583612036565b915061361b826135b4565b602582019050919050565b7f3c7363726970743e000000000000000000000000000000000000000000000000815250565b7f282829203d3e207b000000000000000000000000000000000000000000000000815250565b7f636f6e737420666c6f77657273203d2000000000000000000000000000000000815250565b7f3b66756e6374696f6e2063616c63756c6174655468726573686f6c6428706c6160008201527f6e74656429207b00000000000000000000000000000000000000000000000000602082015250565b60006136f4602783612036565b91506136ff82613698565b602782019050919050565b7f636f6e7374206d696e203d2033302c206d6178203d20333030302c206c6f776560008201527f72203d20302e39392c20686967686572203d20302e363b000000000000000000602082015250565b6000613766603783612036565b91506137718261370a565b603782019050919050565b7f69662028706c616e746564203c3d206d696e292072657475726e206c6f77657260008201527f3b00000000000000000000000000000000000000000000000000000000000000602082015250565b60006137d8602183612036565b91506137e38261377c565b602182019050919050565b7f69662028706c616e746564203e3d206d6178292072657475726e20686967686560008201527f723b000000000000000000000000000000000000000000000000000000000000602082015250565b600061384a602283612036565b9150613855826137ee565b602282019050919050565b7f636f6e7374206e6f726d616c697a6564203d2028706c616e746564202d206d6960008201527f6e29202f20286d6178202d206d696e293b000000000000000000000000000000602082015250565b60006138bc603183612036565b91506138c782613860565b603182019050919050565b7f636f6e7374206c6f6756616c7565203d204d6174682e6c6f6731302831202b2060008201527f6e6f726d616c697a6564202a20283130202d203129293b000000000000000000602082015250565b600061392e603783612036565b9150613939826138d2565b603782019050919050565b7f72657475726e20686967686572202b20286c6f776572202d206869676865722960008201527f202a202831202d206c6f6756616c7565293b0000000000000000000000000000602082015250565b60006139a0603283612036565b91506139ab82613944565b603282019050919050565b7f7d00000000000000000000000000000000000000000000000000000000000000815250565b7f66756e6374696f6e206973436f6e646974696f6e4d657428706c616e7465642c60008201527f2076616c29207b00000000000000000000000000000000000000000000000000602082015250565b6000613a38602783612036565b9150613a43826139dc565b602782019050919050565b7f636f6e7374207468726573686f6c64203d2063616c63756c617465546872657360008201527f686f6c6428706c616e746564293b000000000000000000000000000000000000602082015250565b6000613aaa602e83612036565b9150613ab582613a4e565b602e82019050919050565b7f72657475726e2076616c203e207468726573686f6c64207c7c2076616c203c2060008201527f2d7468726573686f6c643b000000000000000000000000000000000000000000602082015250565b6000613b1c602b83612036565b9150613b2782613ac0565b602b82019050919050565b7f66756e6374696f6e20677269644e6f69736528782c207a2c207365656429207b815250565b7f20202020766172206e203d202831363139202a2078202b203331333337202a2060008201527f7a202b2031303133202a207365656429202620307837666666666666663b0000602082015250565b6000613bb4603e83612036565b9150613bbf82613b58565b603e82019050919050565b7f202020206e203d20426967496e7428286e203e3e20313329205e206e293b0000815250565b7f202020206e203d206e202a20286e202a206e202a2036303439336e202b20313960008201527f3939303330336e29202b20313337363331323538396e3b000000000000000000602082015250565b6000613c4c603783612036565b9150613c5782613bf0565b603782019050919050565b7f202020206e203d207061727365496e74286e2e746f537472696e672832292e7360008201527f6c696365282d3331292c2032293b000000000000000000000000000000000000602082015250565b6000613cbe602e83612036565b9150613cc982613c62565b602e82019050919050565b7f2020202072657475726e2031202d206e202f20313037333734313832343b0000815250565b7f636f6e7374207769647468203d2039303b000000000000000000000000000000815250565b7f6c6574206c696e6573203d205b22225d2c20636f756e746572203d20302c207060008201527f6c616e746564203d20303b000000000000000000000000000000000000000000602082015250565b6000613d7c602b83612036565b9150613d8782613d20565b602b82019050919050565b7f7768696c652028706c616e746564203c20666c6f7765727329207b0000000000815250565b7f20202020636f6e73742076616c203d20677269644e6f69736528636f756e746560008201527f7220252077696474682c204d6174682e666c6f6f7228636f756e746572202f2060208201527f7769647468292c20307866293b00000000000000000000000000000000000000604082015250565b6000613e3a604d83612036565b9150613e4582613db8565b604d82019050919050565b7f20202020696620286973436f6e646974696f6e4d657428706c616e7465642c2060008201527f76616c2900000000000000000000000000000000000000000000000000000000602082015250565b6000613eac602483612036565b9150613eb782613e50565b602482019050919050565b7f29207b0000000000000000000000000000000000000000000000000000000000815250565b7f20202020202020206c696e65735b4d6174682e666c6f6f7228636f756e74657260008201527f202f207769647468295d202b3d20603c6120687265663d2223247b706c616e7460208201527f65642b317d2220646174612d666c6f7765722d69643d22247b706c616e74656460408201527f2b317d223ee29a983c2f613e603b000000000000000000000000000000000000606082015250565b6000613f90606e83612036565b9150613f9b82613ee8565b606e82019050919050565b7f706c616e7465642b2b3b00000000000000000000000000000000000000000000815250565b7f202020207d20656c7365207b206c696e65735b4d6174682e666c6f6f7228636f60008201527f756e746572202f207769647468295d202b3d202220223b207d00000000000000602082015250565b6000614028603983612036565b915061403382613fcc565b603982019050919050565b7f2020202069662028636f756e7465722025207769647468203d3d20287769647460008201527f682d312920262620706c616e746564203c20666c6f7765727329207b206c696e60208201527f65732e70757368282222293b207d000000000000000000000000000000000000604082015250565b60006140c0604e83612036565b91506140cb8261403e565b604e82019050919050565b7f20202020636f756e7465722b2b3b7d0000000000000000000000000000000000815250565b7f6c696e6573203d206c696e65732e72656475636528286163632c206c696e652960008201527f203d3e207b20696620286c696e652e7472696d28292e6c656e677468203e203060208201527f29206163632e70757368286c696e65293b2072657475726e206163633b207d2c60408201527f205b5d293b000000000000000000000000000000000000000000000000000000606082015250565b60006141a4606583612036565b91506141af826140fc565b606582019050919050565b7f66756e6374696f6e20617272616e6765507972616d696428617272617929207b815250565b7f202020206c657420726573756c74203d205b5d2c206f6464203d205b5d2c206560008201527f76656e203d205b5d3b0000000000000000000000000000000000000000000000602082015250565b600061423c602983612036565b9150614247826141e0565b602982019050919050565b7f20202020666f7220286c65742069203d20303b2069203c2061727261792e6c6560008201527f6e6774683b20692b2b29207b0000000000000000000000000000000000000000602082015250565b60006142ae602c83612036565b91506142b982614252565b602c82019050919050565b7f2020202020202020696620286920252032203d3d203129207b00000000000000815250565b7f2020202020202020202020206576656e2e707573682861727261795b695d293b815250565b7f20202020202020207d20656c7365207b00000000000000000000000000000000815250565b7f2020202020202020202020206f64642e707573682861727261795b695d293b00815250565b7f20202020202020207d0000000000000000000000000000000000000000000000815250565b7f202020207d000000000000000000000000000000000000000000000000000000815250565b7f20202020726573756c74203d206f64642e636f6e636174286576656e2e72657660008201527f657273652829293b000000000000000000000000000000000000000000000000602082015250565b6000614404602883612036565b915061440f826143a8565b602882019050919050565b7f2020202072657475726e20726573756c743b0000000000000000000000000000815250565b7f646f63756d656e742e717565727953656c6563746f722822236669656c64312260008201527f292e696e6e657248544d4c203d206c696e65732e736c69636528302c4d61746860208201527f2e6d696e28372c4d6174682e6365696c286c696e65732e6c656e6774682f322960408201527f29292e6a6f696e28225c6e22293b000000000000000000000000000000000000606082015250565b60006144e8606e83612036565b91506144f382614440565b606e82019050919050565b7f646f63756d656e742e717565727953656c6563746f722822236669656c64322260008201527f292e696e6e657248544d4c203d206c696e65732e736c696365284d6174682e6d60208201527f696e28372c4d6174682e6365696c286c696e65732e6c656e6774682f3229292960408201527f2e6a6f696e28225c6e22293b0000000000000000000000000000000000000000606082015250565b60006145a6606c83612036565b91506145b1826144fe565b606c82019050919050565b7f646f63756d656e742e717565727953656c6563746f72416c6c28222e6669656c60008201527f6422292e666f72456163682828656c29203d3e20656c2e6164644576656e744c60208201527f697374656e65722822636c69636b222c20286529203d3e207b00000000000000604082015250565b600061463e605983612036565b9150614649826145bc565b605982019050919050565b7f20202020636f6e737420666c6f7765724964203d20652e7461726765742e646160008201527f74617365742e666c6f77657249643b0000000000000000000000000000000000602082015250565b60006146b0602f83612036565b91506146bb82614654565b602f82019050919050565b7f2020202069662028666c6f776572496429207b00000000000000000000000000815250565b7f2020202020202020652e70726576656e7444656661756c7428293b202020207d815250565b7f7d29293b00000000000000000000000000000000000000000000000000000000815250565b7f7d2928293b2f2a494946452a2f00000000000000000000000000000000000000815250565b7f3c2f7363726970743e0000000000000000000000000000000000000000000000815250565b600061479082886120a2565b915061479b82613008565b601e820191506147aa82613415565b91506147b582613438565b601e820191506147c48261345e565b6009820191506147d382612c16565b600a820191506147e28261351f565b91506147ee82876120a2565b91506147f982612c16565b600a8201915061480982866120a2565b915061481482613542565b60158201915061482482856120a2565b915061482f82613568565b60088201915061483e8261358e565b60138201915061484d82613603565b915061485882613626565b6008820191506148678261364c565b60088201915061487682613672565b60108201915061488682846120a2565b9150614891826136e7565b915061489c82613759565b91506148a7826137cb565b91506148b28261383d565b91506148bd826138af565b91506148c882613921565b91506148d382613993565b91506148de826139b6565b6001820191506148ed82613a2b565b91506148f882613a9d565b915061490382613b0f565b915061490e826139b6565b60018201915061491d82613b32565b60208201915061492c82613ba7565b915061493782613bca565b601e8201915061494682613c3f565b915061495182613cb1565b915061495c82613cd4565b601e8201915061496b826139b6565b60018201915061497a82613cfa565b60118201915061498982613d6f565b915061499482613d92565b601b820191506149a382613e2d565b91506149ae82613e9f565b91506149b982613ec2565b6003820191506149c882613f83565b91506149d382613fa6565b600a820191506149e28261401b565b91506149ed826140b3565b91506149f8826140d6565b600f82019150614a0782614197565b9150614a12826141ba565b602082019150614a218261422f565b9150614a2c826142a1565b9150614a37826142c4565b601982019150614a46826142ea565b602082019150614a5582614310565b601082019150614a6482614336565b601f82019150614a738261435c565b600982019150614a8282614382565b600582019150614a91826143f7565b9150614a9c8261441a565b601282019150614aab826139b6565b600182019150614aba826144db565b9150614ac582614599565b9150614ad082614631565b9150614adb826146a3565b9150614ae6826146c6565b601382019150614af5826146ec565b602082019150614b0482614712565b600482019150614b1382614738565b600d82019150614b228261475e565b600982019150614b31826132be565b600c820191508190509695505050505050565b7f3c64697620636c6173733d2269223e47656e65726174656420696e20626c6f6360008201527f6b20000000000000000000000000000000000000000000000000000000000000602082015250565b6000614ba0602283612036565b9150614bab82614b44565b602282019050919050565b7f2066726f6d200000000000000000000000000000000000000000000000000000815250565b6000614be882866120a2565b9150614bf382614b93565b9150614bff82856120a2565b9150614c0a82614bb6565b600682019150614c1a82846120a2565b9150614c2582613256565b600682019150819050949350505050565b6000614c4282846120a2565b9150614c4d82613256565b60068201915081905092915050565b7f3c64697620636c6173733d2263206573736179223e3c64697620636c6173733d60008201527f2277223e3c64697620636c6173733d22732067223e0000000000000000000000602082015250565b6000614cb8603583612036565b9150614cc382614c5c565b603582019050919050565b7f3c703e3c693e54686973207465787420776173207075626c697368656420617360008201527f2070617274206f662074686520636f6e74726163742073686f773a203c61206860208201527f7265663d222f22207374796c653d22646973706c61793a20626c6f636b223e5760408201527f6f726c6420436f6d7075746572205363756c70747572652047617264656e3c2f60608201527f613e3c2f693e3c2f703e00000000000000000000000000000000000000000000608082015250565b6000614d9c608a83612036565b9150614da782614cce565b608a82019050919050565b7fe29a980000000000000000000000000000000000000000000000000000000000815250565b7f3c62722f3e3c62722f3e3c62722f3e0000000000000000000000000000000000815250565b7f3c61727469636c653e0000000000000000000000000000000000000000000000815250565b7f3c2f61727469636c653e00000000000000000000000000000000000000000000815250565b7f3c703e3c693e56696577207468652065786869626974696f6e2061743a203c6160008201527f20687265663d222f22207374796c653d22646973706c61793a20626c6f636b2260208201527f3e576f726c6420436f6d7075746572205363756c70747572652047617264656e60408201527f3c2f613e3c2f693e3c2f703e0000000000000000000000000000000000000000606082015250565b6000614ef2606c83612036565b9150614efd82614e4a565b606c82019050919050565b7f3c2f6469763e3c2f6469763e3c2f6469763e0000000000000000000000000000815250565b7f3c64697620636c6173733d2266223e3c6120687265663d222f22207374796c6560008201527f3d22746578742d6465636f726174696f6e3a206e6f6e653b223ee29a983c2f6160208201527f3e3c2f6469763e00000000000000000000000000000000000000000000000000604082015250565b6000614fb0604783612036565b9150614fbb82614f2e565b604782019050919050565b6000614fd282856120a2565b9150614fdd82614cab565b9150614fe882614d8f565b9150614ff382612795565b60058201915061500282614db2565b60038201915061501182614dd8565b600f8201915061502082614dfe565b60098201915061503082846120a2565b915061503b82614e24565b600a8201915061504a82612c16565b600a8201915061505982614db2565b60038201915061506882612c16565b600a8201915061507782614ee5565b915061508282612795565b60058201915061509182614f08565b6012820191506150a082614fa3565b91508190509392505050565b7f3c6120687265663d220000000000000000000000000000000000000000000000815250565b7f22207461726765743d225f626c616e6b222072656c3d226e6f6f70656e65722060008201527f6e6f7265666572726572223e0000000000000000000000000000000000000000602082015250565b600061512e602c83612036565b9150615139826150d2565b602c82019050919050565b600061514f826150ac565b60098201915061515f82856120a2565b915061516a82615121565b915061517682846120a2565b915061518182612cfa565b6004820191508190509392505050565b7f3c686561643e3c6d65746120636861727365743d225554462d38223e3c6d657460008201527f61206e616d653d2276696577706f72742220636f6e74656e743d22776964746860208201527f3d6465766963652d77696474682c20696e697469616c2d7363616c653d312e3060408201527f223e000000000000000000000000000000000000000000000000000000000000606082015250565b6000615239606283612036565b915061524482615191565b606282019050919050565b7f3c6c696e6b2072656c3d2269636f6e2220747970653d22696d6167652f73766760008201527f2b786d6c2220687265663d22646174613a696d6167652f7376672b786d6c2c2560208201527f334373766720786d6c6e733d0000000000000000000000000000000000000000604082015250565b60006152d1604c83612036565b91506152dc8261524f565b604c82019050919050565b7f27687474703a2f2f7777772e77332e6f72672f323030302f737667272076696560008201527f77426f783d273020302031303020313030272533452533437374796c6525334560208201527f2074657874202537422066696c6c3a202532333030303b2025374420406d656460408201527f69612028707265666572732d636f6c6f722d736368656d653a206461726b292060608201527f2537422074657874202537422066696c6c3a202532336666663b20253744202560808201527f3744202533432f7374796c652533452533437465787420793d272e39656d272060a08201527f666f6e742d73697a653d2739302725334520e29a98202533432f74657874253360c08201527f452533432f73766725334525304100000000000000000000000000000000000060e082015250565b600061542760ee83612036565b9150615432826152e7565b60ee82019050919050565b7f22202f3e00000000000000000000000000000000000000000000000000000000815250565b7f3c7469746c653e00000000000000000000000000000000000000000000000000815250565b7f3c2f7469746c653e3c2f686561643e0000000000000000000000000000000000815250565b7f3c7374796c653e00000000000000000000000000000000000000000000000000815250565b7f2a2c202a3a3a6265666f72652c202a3a3a6166746572207b20626f782d73697a60008201527f696e673a20626f726465722d626f783b207d0000000000000000000000000000602082015250565b6000615531603283612036565b915061553c826154d5565b603282019050919050565b7f68746d6c207b202d6d6f7a2d746578742d73697a652d61646a7573743a206e6f60008201527f6e653b202d7765626b69742d746578742d73697a652d61646a7573743a206e6f60208201527f6e653b20746578742d73697a652d61646a7573743a206e6f6e653b207d20687460408201527f6d6c2c20626f6479207b206d617267696e3a20303b2070616464696e673a203060608201527f3b207d20626f6479207b206d696e2d6865696768743a203130307668207d206860808201527f746d6c2c626f64792c707265207b20666f6e742d66616d696c793a2022436f7560a08201527f72696572204e6577222c2022436f7572696572222c206d6f6e6f73706163653b60c08201527f20666f6e742d73697a653a20313570783b207d0000000000000000000000000060e082015250565b600061568760f383612036565b915061569282615547565b60f382019050919050565b7f68312c68322c6833207b206d617267696e3a20303b20666f6e742d73697a653a60008201527f20696e68657269743b20666f6e742d7374796c653a20696e68657269743b206660208201527f6f6e742d7765696768743a20696e68657269743b7d0000000000000000000000604082015250565b600061571f605583612036565b915061572a8261569d565b605582019050919050565b7f2e63207b206d61782d77696474683a2038343070783b206d617267696e3a203060008201527f206175746f3b2070616464696e673a203020312e35656d3b20626f782d73697a60208201527f696e673a20636f6e74656e742d626f783b207d00000000000000000000000000604082015250565b60006157b7605383612036565b91506157c282615735565b605382019050919050565b7f2e632e6573736179207b206d61782d77696474683a2036323070783b207d0000815250565b7f61207b20636f6c6f723a20696e68657269743b20746578742d6465636f72617460008201527f696f6e3a20756e6465726c696e653b207d000000000000000000000000000000602082015250565b600061584f603183612036565b915061585a826157f3565b603182019050919050565b7f2e77207b20706f736974696f6e3a2072656c61746976653b206d696e2d68656960008201527f6768743a2031303076683b20646973706c61793a20666c65783b20616c69676e60208201527f2d6974656d733a2063656e7465723b2070616464696e673a203130656d20303b60408201527f207d000000000000000000000000000000000000000000000000000000000000606082015250565b600061590d606283612036565b915061591882615865565b606282019050919050565b7f2e73207b2077696474683a20313030253b206d61782d77696474683a2038343060008201527f70783b207d000000000000000000000000000000000000000000000000000000602082015250565b600061597f602583612036565b915061598a82615923565b602582019050919050565b7f2e733a6e6f74282e67292061207b206d61782d77696474683a20313030253b2060008201527f646973706c61793a20696e6c696e652d626c6f636b3b2077686974652d73706160208201527f63653a206e6f777261703b206f766572666c6f773a2068696464656e3b20746560408201527f78742d6f766572666c6f773a20656c6c69707369733b207d0000000000000000606082015250565b6000615a3d607883612036565b9150615a4882615995565b607882019050919050565b7f2e74207b206d61782d77696474683a20313030253b206f766572666c6f772d7860008201527f3a206175746f3b206d617267696e3a2031656d20303b207d0000000000000000602082015250565b6000615aaf603883612036565b9150615aba82615a53565b603882019050919050565b7f2e69207b206d617267696e3a203020302035656d3b207d000000000000000000815250565b7f2e66207b20706f736974696f6e3a2066697865643b20626f74746f6d3a20316560008201527f6d3b2072696768743a20312e33656d3b207d0000000000000000000000000000602082015250565b6000615b47603283612036565b9150615b5282615aeb565b603282019050919050565b7f2e70207b20706f736974696f6e3a206162736f6c7574653b20626f74746f6d3a60008201527f203272656d3b206c6566743a203530253b207472616e73666f726d3a2074726160208201527f6e736c61746558282d353025293b20666f6e742d73697a653a20312e34656d3b60408201527f207d000000000000000000000000000000000000000000000000000000000000606082015250565b6000615c05606283612036565b9150615c1082615b5d565b606282019050919050565b7f2e6669656c64207b2077686974652d73706163653a207072653b206d6172676960008201527f6e3a2030206175746f3b207d0000000000000000000000000000000000000000602082015250565b6000615c77602c83612036565b9150615c8282615c1b565b602c82019050919050565b7f2e6669656c642061207b20746578742d6465636f726174696f6e3a206e6f6e6560008201527f3b207d0000000000000000000000000000000000000000000000000000000000602082015250565b6000615ce9602383612036565b9150615cf482615c8d565b602382019050919050565b7f3c2f7374796c653e000000000000000000000000000000000000000000000000815250565b6000615d3182856120a2565b9150615d3c8261522c565b9150615d47826152c4565b9150615d528261541a565b9150615d5d8261543d565b600482019150615d6c82615463565b600782019150615d7c82846120a2565b9150615d8782615489565b600f82019150615d96826154af565b600782019150615da582615524565b9150615db08261567a565b9150615dbb82615712565b9150615dc6826157aa565b9150615dd1826157cd565b601e82019150615de082615842565b9150615deb82615900565b9150615df682615972565b9150615e0182615a30565b9150615e0c82615aa2565b9150615e1782615ac5565b601782019150615e2682615b3a565b9150615e3182615bf8565b9150615e3c82615c6a565b9150615e4782615cdc565b9150615e5282615cff565b6008820191508190509392505050565b7f3c626f64793e0000000000000000000000000000000000000000000000000000815250565b7f3c2f626f64793e3c2f68746d6c3e000000000000000000000000000000000000815250565b6000615eba82856120a2565b9150615ec582615e62565b600682019150615ed582846120a2565b9150615ee082615e88565b600e820191508190509392505050565b6000615efb82611d28565b9150615f0683611d28565b9250828203905081811115615f1e57615f1d613363565b5b9291505056fea26469706673582212209e8324668f21a3e8eac8025021acf73f1e2aa938d43ef9ee5430ac1b8fc2ada164736f6c634300081c0033",
  "devdoc": {
    "kind": "dev",
    "methods": {
      "request(string[],(string,string)[])": {
        "params": {
          "params": "The query parameters. (e.g. \"?asdf=1234&foo=bar\" turns in to `[{ key: \"asdf\", value: \"1234\" }, { key: \"foo\", value: \"bar\" }]`)",
          "resource": "The resource to request (e.g. \"/asdf/1234\" turns in to `[\"asdf\", \"1234\"]`)"
        },
        "returns": {
          "body": "               The body of the response",
          "headers": "            A list of header names (e.g. [{ key: \"Content-Type\", value: \"application/json\" }])",
          "statusCode": "         The HTTP status code (e.g. 200)"
        }
      },
      "resolveMode()": {
        "returns": {
          "_0": "resolveMode         The mode of the resolver (e.g. 5219)"
        }
      }
    },
    "version": 1
  },
  "userdoc": {
    "kind": "user",
    "methods": {
      "request(string[],(string,string)[])": {
        "notice": "Send an HTTP GET-like request to this contract"
      },
      "resolveMode()": {
        "notice": "returns the resolve mode of the contract"
      }
    },
    "version": 1
  },
  "storageLayout": {
    "storage": [],
    "types": null
  }
}