{
  "address": "0x1807f05F3D5D7f671c630E5269d87fEa01CB43DB",
  "abi": [
    {
      "inputs": [
        {
          "internalType": "string",
          "name": "body",
          "type": "string"
        },
        {
          "internalType": "string",
          "name": "title",
          "type": "string"
        },
        {
          "internalType": "string",
          "name": "description",
          "type": "string"
        }
      ],
      "name": "html",
      "outputs": [
        {
          "internalType": "string",
          "name": "",
          "type": "string"
        }
      ],
      "stateMutability": "pure",
      "type": "function"
    }
  ],
  "transactionHash": "0x4db0206e485a2e82843710b84d4d8405c65fa391e4085cf8535fc4c4de9ca42c",
  "args": [],
  "numDeployments": 3,
  "solcInputHash": "dbb7f1c383256f1864223a5f4b954d2a",
  "bytecode": "0x6113a3610052600b82828239805160001a6073146045577f4e487b7100000000000000000000000000000000000000000000000000000000600052600060045260246000fd5b30600052607381538281f3fe73000000000000000000000000000000000000000030146080604052600436106100355760003560e01c8063263c92531461003a575b600080fd5b610054600480360381019061004f9190610255565b61006a565b604051610061919061037b565b60405180910390f35b606060006040518060400160405280601f81526020017f3c21444f43545950452068746d6c3e3c68746d6c206c616e673d22656e223e0081525090508084846040516020016100bb93929190611161565b604051602081830303815290604052905080856040516020016100df92919061132b565b6040516020818303038152906040529050809150509392505050565b6000604051905090565b600080fd5b600080fd5b600080fd5b600080fd5b6000601f19601f8301169050919050565b7f4e487b7100000000000000000000000000000000000000000000000000000000600052604160045260246000fd5b61016282610119565b810181811067ffffffffffffffff821117156101815761018061012a565b5b80604052505050565b60006101946100fb565b90506101a08282610159565b919050565b600067ffffffffffffffff8211156101c0576101bf61012a565b5b6101c982610119565b9050602081019050919050565b82818337600083830152505050565b60006101f86101f3846101a5565b61018a565b90508281526020810184848401111561021457610213610114565b5b61021f8482856101d6565b509392505050565b600082601f83011261023c5761023b61010f565b5b813561024c8482602086016101e5565b91505092915050565b60008060006060848603121561026e5761026d610105565b5b600084013567ffffffffffffffff81111561028c5761028b61010a565b5b61029886828701610227565b935050602084013567ffffffffffffffff8111156102b9576102b861010a565b5b6102c586828701610227565b925050604084013567ffffffffffffffff8111156102e6576102e561010a565b5b6102f286828701610227565b9150509250925092565b600081519050919050565b600082825260208201905092915050565b60005b8381101561033657808201518184015260208101905061031b565b60008484015250505050565b600061034d826102fc565b6103578185610307565b9350610367818560208601610318565b61037081610119565b840191505092915050565b600060208201905081810360008301526103958184610342565b905092915050565b600081905092915050565b60006103b3826102fc565b6103bd818561039d565b93506103cd818560208601610318565b80840191505092915050565b7f3c686561643e3c6d65746120636861727365743d225554462d38223e3c6d657460008201527f61206e616d653d2276696577706f72742220636f6e74656e743d22776964746860208201527f3d6465766963652d77696474682c20696e697469616c2d7363616c653d312e3060408201527f223e000000000000000000000000000000000000000000000000000000000000606082015250565b600061048160628361039d565b915061048c826103d9565b606282019050919050565b7f3c6c696e6b2072656c3d2269636f6e2220747970653d22696d6167652f73766760008201527f2b786d6c2220687265663d22646174613a696d6167652f7376672b786d6c2c2560208201527f3343737667253230786d6c6e733d000000000000000000000000000000000000604082015250565b6000610519604e8361039d565b915061052482610497565b604e82019050919050565b7f27687474703a2f2f7777772e77332e6f72672f323030302f737667272532307660008201527f696577426f783d2730253230302532303130302532303130302725334525334360208201527f7374796c652533452532307465787425323025374225323066696c6c3a25323060408201527f2532333030303b253230253744253230406d656469612532302870726566657260608201527f732d636f6c6f722d736368656d653a2532306461726b2925323025374225323060808201527f7465787425323025374225323066696c6c3a2532302532336666663b2532302560a08201527f37442532302537442532302533432f7374796c6525334525334374657874253260c08201527f30793d272e39656d27253230666f6e742d73697a653d2739302725334525323060e08201527fe29a982532302533432f746578742533452533432f737667253345253041000061010082015250565b600061069761011e8361039d565b91506106a28261052f565b61011e82019050919050565b7f223e000000000000000000000000000000000000000000000000000000000000815250565b7f3c7469746c653e00000000000000000000000000000000000000000000000000815250565b7f3c2f7469746c653e000000000000000000000000000000000000000000000000815250565b7f3c6d657461206e616d653d276465736372697074696f6e2720636f6e74656e7460008201527f3d27000000000000000000000000000000000000000000000000000000000000602082015250565b600061077c60228361039d565b915061078782610720565b602282019050919050565b7f273e000000000000000000000000000000000000000000000000000000000000815250565b7f3c7374796c653e00000000000000000000000000000000000000000000000000815250565b7f2a2c202a3a3a6265666f72652c202a3a3a6166746572207b20626f782d73697a60008201527f696e673a20626f726465722d626f783b207d0000000000000000000000000000602082015250565b600061083a60328361039d565b9150610845826107de565b603282019050919050565b7f68746d6c207b202d6d6f7a2d746578742d73697a652d61646a7573743a206e6f60008201527f6e653b202d7765626b69742d746578742d73697a652d61646a7573743a206e6f60208201527f6e653b20746578742d73697a652d61646a7573743a206e6f6e653b207d20687460408201527f6d6c2c20626f6479207b206d617267696e3a20303b2070616464696e673a203060608201527f3b207d20626f6479207b206d696e2d6865696768743a203130307668207d206860808201527f746d6c2c626f64792c707265207b20666f6e742d66616d696c793a2022436f7560a08201527f72696572204e6577222c2022436f7572696572222c206d6f6e6f73706163653b60c08201527f20666f6e742d73697a653a20313570783b206c696e652d6865696768743a203160e08201527f2e333b207d00000000000000000000000000000000000000000000000000000061010082015250565b60006109b86101058361039d565b91506109c382610850565b61010582019050919050565b7f68312c68322c6833207b206d617267696e3a20303b20666f6e742d73697a653a60008201527f20696e68657269743b20666f6e742d7374796c653a20696e68657269743b206660208201527f6f6e742d7765696768743a20696e68657269743b7d0000000000000000000000604082015250565b6000610a5160558361039d565b9150610a5c826109cf565b605582019050919050565b7f2e63207b206d61782d77696474683a2038363070783b206d617267696e3a203060008201527f206175746f3b2070616464696e673a203020323070783b20626f782d73697a6960208201527f6e673a20626f726465722d626f783b207d000000000000000000000000000000604082015250565b6000610ae960518361039d565b9150610af482610a67565b605182019050919050565b7f2e632e6573736179207b206d61782d77696474683a2036323070783b207d0000815250565b7f61207b20636f6c6f723a20696e68657269743b20746578742d6465636f72617460008201527f696f6e3a20756e6465726c696e653b207d000000000000000000000000000000602082015250565b6000610b8160318361039d565b9150610b8c82610b25565b603182019050919050565b7f2e77207b20706f736974696f6e3a2072656c61746976653b206d696e2d68656960008201527f6768743a2031303076683b20646973706c61793a20666c65783b20616c69676e60208201527f2d6974656d733a2063656e7465723b2070616464696e673a203130656d20303b60408201527f207d000000000000000000000000000000000000000000000000000000000000606082015250565b6000610c3f60628361039d565b9150610c4a82610b97565b606282019050919050565b7f2e73207b2077696474683a20313030253b206d61782d77696474683a2038363060008201527f70783b207d000000000000000000000000000000000000000000000000000000602082015250565b6000610cb160258361039d565b9150610cbc82610c55565b602582019050919050565b7f2e733a6e6f74282e67292061207b206d61782d77696474683a20313030253b2060008201527f646973706c61793a20696e6c696e652d626c6f636b3b2077686974652d73706160208201527f63653a206e6f777261703b206f766572666c6f773a2068696464656e3b20746560408201527f78742d6f766572666c6f773a20656c6c69707369733b207d0000000000000000606082015250565b6000610d6f60788361039d565b9150610d7a82610cc7565b607882019050919050565b7f2e74207b206d61782d77696474683a20313030253b206f766572666c6f772d7860008201527f3a206175746f3b206d617267696e3a2031656d20303b207d0000000000000000602082015250565b6000610de160388361039d565b9150610dec82610d85565b603882019050919050565b7f2e69207b206d617267696e3a203020302035656d3b207d000000000000000000815250565b7f2e66207b20706f736974696f6e3a2066697865643b20626f74746f6d3a20316560008201527f6d3b2072696768743a20312e33656d3b207d0000000000000000000000000000602082015250565b6000610e7960328361039d565b9150610e8482610e1d565b603282019050919050565b7f2e70207b20706f736974696f6e3a206162736f6c7574653b20626f74746f6d3a60008201527f203272656d3b206c6566743a203530253b207472616e73666f726d3a2074726160208201527f6e736c61746558282d353025293b20666f6e742d73697a653a20312e34656d3b60408201527f207d000000000000000000000000000000000000000000000000000000000000606082015250565b6000610f3760628361039d565b9150610f4282610e8f565b606282019050919050565b7f2e6669656c64207b2077686974652d73706163653a207072653b206d6172676960008201527f6e3a2030206175746f3b206d61782d77696474683a20313030253b206f76657260208201527f666c6f772d783a206175746f3b207d0000000000000000000000000000000000604082015250565b6000610fcf604f8361039d565b9150610fda82610f4d565b604f82019050919050565b7f2e6669656c642061207b20746578742d6465636f726174696f6e3a206e6f6e6560008201527f3b207d0000000000000000000000000000000000000000000000000000000000602082015250565b600061104160238361039d565b915061104c82610fe5565b602382019050919050565b7f2e61207b206f766572666c6f773a2068696464656e3b20646973706c61793a2060008201527f696e6c696e652d626c6f636b3b206d61782d77696474683a20313030253b207460208201527f6578742d6f766572666c6f773a20656c6c69707369733b20766572746963616c60408201527f2d616c69676e3a206d6964646c653b2000000000000000000000000000000000606082015250565b60006110ff60708361039d565b915061110a82611057565b607082019050919050565b7f3c2f7374796c653e000000000000000000000000000000000000000000000000815250565b7f3c2f686561643e00000000000000000000000000000000000000000000000000815250565b600061116d82866103a8565b915061117882610474565b91506111838261050c565b915061118e82610689565b9150611199826106ae565b6002820191506111a8826106d4565b6007820191506111b882856103a8565b91506111c3826106fa565b6008820191506111d28261076f565b91506111de82846103a8565b91506111e982610792565b6002820191506111f8826107b8565b6007820191506112078261082d565b9150611212826109aa565b915061121d82610a44565b915061122882610adc565b915061123382610aff565b601e8201915061124282610b74565b915061124d82610c32565b915061125882610ca4565b915061126382610d62565b915061126e82610dd4565b915061127982610df7565b60178201915061128882610e6c565b915061129382610f2a565b915061129e82610fc2565b91506112a982611034565b91506112b4826110f2565b91506112bf82611115565b6008820191506112ce8261113b565b600782019150819050949350505050565b7f3c626f64793e0000000000000000000000000000000000000000000000000000815250565b7f3c2f626f64793e3c2f68746d6c3e000000000000000000000000000000000000815250565b600061133782856103a8565b9150611342826112df565b60068201915061135282846103a8565b915061135d82611305565b600e82019150819050939250505056fea264697066735822122077f352354b88933dbc31659178fabe2accf184cc23627b2deba3d982924f170564736f6c634300081c0033",
  "devdoc": {
    "kind": "dev",
    "methods": {},
    "version": 1
  },
  "userdoc": {
    "kind": "user",
    "methods": {},
    "version": 1
  },
  "storageLayout": {
    "storage": [],
    "types": null
  }
}