{
  "address": "0x25d9de198DB46375eCc71f7D554Cc5dBdf24C14C",
  "abi": [
    {
      "inputs": [
        {
          "internalType": "string",
          "name": "body",
          "type": "string"
        },
        {
          "internalType": "string",
          "name": "title",
          "type": "string"
        }
      ],
      "name": "html",
      "outputs": [
        {
          "internalType": "string",
          "name": "",
          "type": "string"
        }
      ],
      "stateMutability": "pure",
      "type": "function"
    }
  ],
  "transactionHash": "0x91899740443d6665e44ab8c182d10235438b063c99c85d0e9e6798604365b752",
  "args": [],
  "numDeployments": 1,
  "solcInputHash": "f89a3e5d9a9ab14c6719620940f3cfcf",
  "bytecode": "0x6111f6610052600b82828239805160001a6073146045577f4e487b7100000000000000000000000000000000000000000000000000000000600052600060045260246000fd5b30600052607381538281f3fe73000000000000000000000000000000000000000030146080604052600436106100355760003560e01c8063125a507b1461003a575b600080fd5b610054600480360381019061004f9190610252565b61006a565b6040516100619190610349565b60405180910390f35b606060006040518060400160405280600681526020017f3c68746d6c3e0000000000000000000000000000000000000000000000000000815250905080836040516020016100b9929190610ff9565b604051602081830303815290604052905080846040516020016100dd92919061117e565b60405160208183030381529060405290508091505092915050565b6000604051905090565b600080fd5b600080fd5b600080fd5b600080fd5b6000601f19601f8301169050919050565b7f4e487b7100000000000000000000000000000000000000000000000000000000600052604160045260246000fd5b61015f82610116565b810181811067ffffffffffffffff8211171561017e5761017d610127565b5b80604052505050565b60006101916100f8565b905061019d8282610156565b919050565b600067ffffffffffffffff8211156101bd576101bc610127565b5b6101c682610116565b9050602081019050919050565b82818337600083830152505050565b60006101f56101f0846101a2565b610187565b90508281526020810184848401111561021157610210610111565b5b61021c8482856101d3565b509392505050565b600082601f8301126102395761023861010c565b5b81356102498482602086016101e2565b91505092915050565b6000806040838503121561026957610268610102565b5b600083013567ffffffffffffffff81111561028757610286610107565b5b61029385828601610224565b925050602083013567ffffffffffffffff8111156102b4576102b3610107565b5b6102c085828601610224565b9150509250929050565b600081519050919050565b600082825260208201905092915050565b60005b838110156103045780820151818401526020810190506102e9565b60008484015250505050565b600061031b826102ca565b61032581856102d5565b93506103358185602086016102e6565b61033e81610116565b840191505092915050565b600060208201905081810360008301526103638184610310565b905092915050565b600081905092915050565b6000610381826102ca565b61038b818561036b565b935061039b8185602086016102e6565b80840191505092915050565b7f3c686561643e3c6d65746120636861727365743d225554462d38223e3c6d657460008201527f61206e616d653d2276696577706f72742220636f6e74656e743d22776964746860208201527f3d6465766963652d77696474682c20696e697469616c2d7363616c653d312e3060408201527f223e000000000000000000000000000000000000000000000000000000000000606082015250565b600061044f60628361036b565b915061045a826103a7565b606282019050919050565b7f3c6c696e6b2072656c3d2269636f6e2220747970653d22696d6167652f73766760008201527f2b786d6c2220687265663d22646174613a696d6167652f7376672b786d6c2c2560208201527f334373766720786d6c6e733d0000000000000000000000000000000000000000604082015250565b60006104e7604c8361036b565b91506104f282610465565b604c82019050919050565b7f27687474703a2f2f7777772e77332e6f72672f323030302f737667272076696560008201527f77426f783d273020302031303020313030272533452533437374796c6525334560208201527f2074657874202537422066696c6c3a202532333030303b2025374420406d656460408201527f69612028707265666572732d636f6c6f722d736368656d653a206461726b292060608201527f2537422074657874202537422066696c6c3a202532336666663b20253744202560808201527f3744202533432f7374796c652533452533437465787420793d272e39656d272060a08201527f666f6e742d73697a653d2739302725334520e29a98202533432f74657874253360c08201527f452533432f73766725334525304100000000000000000000000000000000000060e082015250565b600061063d60ee8361036b565b9150610648826104fd565b60ee82019050919050565b7f22202f3e00000000000000000000000000000000000000000000000000000000815250565b7f3c7469746c653e00000000000000000000000000000000000000000000000000815250565b7f3c2f7469746c653e3c2f686561643e0000000000000000000000000000000000815250565b7f3c7374796c653e00000000000000000000000000000000000000000000000000815250565b7f2a2c202a3a3a6265666f72652c202a3a3a6166746572207b20626f782d73697a60008201527f696e673a20626f726465722d626f783b207d0000000000000000000000000000602082015250565b600061074760328361036b565b9150610752826106eb565b603282019050919050565b7f68746d6c207b202d6d6f7a2d746578742d73697a652d61646a7573743a206e6f60008201527f6e653b202d7765626b69742d746578742d73697a652d61646a7573743a206e6f60208201527f6e653b20746578742d73697a652d61646a7573743a206e6f6e653b207d20687460408201527f6d6c2c20626f6479207b206d617267696e3a20303b2070616464696e673a203060608201527f3b207d20626f6479207b206d696e2d6865696768743a203130307668207d206860808201527f746d6c2c626f64792c707265207b20666f6e742d66616d696c793a2022436f7560a08201527f72696572204e6577222c2022436f7572696572222c206d6f6e6f73706163653b60c08201527f20666f6e742d73697a653a20313570783b207d0000000000000000000000000060e082015250565b600061089d60f38361036b565b91506108a88261075d565b60f382019050919050565b7f68312c68322c6833207b206d617267696e3a20303b20666f6e742d73697a653a60008201527f20696e68657269743b20666f6e742d7374796c653a20696e68657269743b206660208201527f6f6e742d7765696768743a20696e68657269743b7d0000000000000000000000604082015250565b600061093560558361036b565b9150610940826108b3565b605582019050919050565b7f2e63207b206d61782d77696474683a2038343070783b206d617267696e3a203060008201527f206175746f3b2070616464696e673a203020312e35656d3b20626f782d73697a60208201527f696e673a20636f6e74656e742d626f783b207d00000000000000000000000000604082015250565b60006109cd60538361036b565b91506109d88261094b565b605382019050919050565b7f2e632e6573736179207b206d61782d77696474683a2036323070783b207d0000815250565b7f61207b20636f6c6f723a20696e68657269743b20746578742d6465636f72617460008201527f696f6e3a20756e6465726c696e653b207d000000000000000000000000000000602082015250565b6000610a6560318361036b565b9150610a7082610a09565b603182019050919050565b7f2e77207b20706f736974696f6e3a2072656c61746976653b206d696e2d68656960008201527f6768743a2031303076683b20646973706c61793a20666c65783b20616c69676e60208201527f2d6974656d733a2063656e7465723b2070616464696e673a203130656d20303b60408201527f207d000000000000000000000000000000000000000000000000000000000000606082015250565b6000610b2360628361036b565b9150610b2e82610a7b565b606282019050919050565b7f2e73207b2077696474683a20313030253b206d61782d77696474683a2038343060008201527f70783b207d000000000000000000000000000000000000000000000000000000602082015250565b6000610b9560258361036b565b9150610ba082610b39565b602582019050919050565b7f2e733a6e6f74282e67292061207b206d61782d77696474683a20313030253b2060008201527f646973706c61793a20696e6c696e652d626c6f636b3b2077686974652d73706160208201527f63653a206e6f777261703b206f766572666c6f773a2068696464656e3b20746560408201527f78742d6f766572666c6f773a20656c6c69707369733b207d0000000000000000606082015250565b6000610c5360788361036b565b9150610c5e82610bab565b607882019050919050565b7f2e74207b206d61782d77696474683a20313030253b206f766572666c6f772d7860008201527f3a206175746f3b206d617267696e3a2031656d20303b207d0000000000000000602082015250565b6000610cc560388361036b565b9150610cd082610c69565b603882019050919050565b7f2e69207b206d617267696e3a203020302035656d3b207d000000000000000000815250565b7f2e66207b20706f736974696f6e3a2066697865643b20626f74746f6d3a20316560008201527f6d3b2072696768743a20312e33656d3b207d0000000000000000000000000000602082015250565b6000610d5d60328361036b565b9150610d6882610d01565b603282019050919050565b7f2e70207b20706f736974696f6e3a206162736f6c7574653b20626f74746f6d3a60008201527f203272656d3b206c6566743a203530253b207472616e73666f726d3a2074726160208201527f6e736c61746558282d353025293b20666f6e742d73697a653a20312e34656d3b60408201527f207d000000000000000000000000000000000000000000000000000000000000606082015250565b6000610e1b60628361036b565b9150610e2682610d73565b606282019050919050565b7f2e6669656c64207b2077686974652d73706163653a207072653b206d6172676960008201527f6e3a2030206175746f3b206d61782d77696474683a20313030253b206f76657260208201527f666c6f772d783a206175746f3b207d0000000000000000000000000000000000604082015250565b6000610eb3604f8361036b565b9150610ebe82610e31565b604f82019050919050565b7f2e6669656c642061207b20746578742d6465636f726174696f6e3a206e6f6e6560008201527f3b207d0000000000000000000000000000000000000000000000000000000000602082015250565b6000610f2560238361036b565b9150610f3082610ec9565b602382019050919050565b7f2e61207b206f766572666c6f773a2068696464656e3b20646973706c61793a2060008201527f696e6c696e652d626c6f636b3b206d61782d77696474683a20313030253b207460208201527f6578742d6f766572666c6f773a20656c6c69707369733b207d3c2f7374796c6560408201527f3e00000000000000000000000000000000000000000000000000000000000000606082015250565b6000610fe360618361036b565b9150610fee82610f3b565b606182019050919050565b60006110058285610376565b915061101082610442565b915061101b826104da565b915061102682610630565b915061103182610653565b60048201915061104082610679565b6007820191506110508284610376565b915061105b8261069f565b600f8201915061106a826106c5565b6007820191506110798261073a565b915061108482610890565b915061108f82610928565b915061109a826109c0565b91506110a5826109e3565b601e820191506110b482610a58565b91506110bf82610b16565b91506110ca82610b88565b91506110d582610c46565b91506110e082610cb8565b91506110eb82610cdb565b6017820191506110fa82610d50565b915061110582610e0e565b915061111082610ea6565b915061111b82610f18565b915061112682610fd6565b91508190509392505050565b7f3c626f64793e0000000000000000000000000000000000000000000000000000815250565b7f3c2f626f64793e3c2f68746d6c3e000000000000000000000000000000000000815250565b600061118a8285610376565b915061119582611132565b6006820191506111a58284610376565b91506111b082611158565b600e82019150819050939250505056fea26469706673582212206e772b2bc1d70d0625ce44b2cf2648abb483963ec33ff137bf43fa5328435cfd64736f6c634300081c0033",
  "devdoc": {
    "kind": "dev",
    "methods": {},
    "version": 1
  },
  "userdoc": {
    "kind": "user",
    "methods": {},
    "version": 1
  },
  "storageLayout": {
    "storage": [],
    "types": null
  }
}