{
  "address": "0xbED5aAF0B0777D37DB472096420C3138acE07AdA",
  "abi": [
    {
      "inputs": [],
      "stateMutability": "nonpayable",
      "type": "constructor"
    },
    {
      "inputs": [],
      "name": "AlreadyInitialized",
      "type": "error"
    },
    {
      "inputs": [],
      "name": "NewOwnerIsZeroAddress",
      "type": "error"
    },
    {
      "inputs": [],
      "name": "NoHandoverRequest",
      "type": "error"
    },
    {
      "inputs": [],
      "name": "Unauthorized",
      "type": "error"
    },
    {
      "anonymous": false,
      "inputs": [
        {
          "indexed": true,
          "internalType": "address",
          "name": "pendingOwner",
          "type": "address"
        }
      ],
      "name": "OwnershipHandoverCanceled",
      "type": "event"
    },
    {
      "anonymous": false,
      "inputs": [
        {
          "indexed": true,
          "internalType": "address",
          "name": "pendingOwner",
          "type": "address"
        }
      ],
      "name": "OwnershipHandoverRequested",
      "type": "event"
    },
    {
      "anonymous": false,
      "inputs": [
        {
          "indexed": true,
          "internalType": "address",
          "name": "oldOwner",
          "type": "address"
        },
        {
          "indexed": true,
          "internalType": "address",
          "name": "newOwner",
          "type": "address"
        }
      ],
      "name": "OwnershipTransferred",
      "type": "event"
    },
    {
      "inputs": [],
      "name": "cancelOwnershipHandover",
      "outputs": [],
      "stateMutability": "payable",
      "type": "function"
    },
    {
      "inputs": [
        {
          "internalType": "address",
          "name": "pendingOwner",
          "type": "address"
        }
      ],
      "name": "completeOwnershipHandover",
      "outputs": [],
      "stateMutability": "payable",
      "type": "function"
    },
    {
      "inputs": [],
      "name": "fff",
      "outputs": [
        {
          "internalType": "string",
          "name": "",
          "type": "string"
        }
      ],
      "stateMutability": "view",
      "type": "function"
    },
    {
      "inputs": [],
      "name": "fffUrl",
      "outputs": [
        {
          "internalType": "string",
          "name": "",
          "type": "string"
        }
      ],
      "stateMutability": "view",
      "type": "function"
    },
    {
      "inputs": [],
      "name": "luke",
      "outputs": [
        {
          "internalType": "string",
          "name": "",
          "type": "string"
        }
      ],
      "stateMutability": "view",
      "type": "function"
    },
    {
      "inputs": [],
      "name": "lukeUrl",
      "outputs": [
        {
          "internalType": "string",
          "name": "",
          "type": "string"
        }
      ],
      "stateMutability": "view",
      "type": "function"
    },
    {
      "inputs": [],
      "name": "malte",
      "outputs": [
        {
          "internalType": "string",
          "name": "",
          "type": "string"
        }
      ],
      "stateMutability": "view",
      "type": "function"
    },
    {
      "inputs": [],
      "name": "malteUrl",
      "outputs": [
        {
          "internalType": "string",
          "name": "",
          "type": "string"
        }
      ],
      "stateMutability": "view",
      "type": "function"
    },
    {
      "inputs": [],
      "name": "oneOneThree",
      "outputs": [
        {
          "internalType": "string",
          "name": "",
          "type": "string"
        }
      ],
      "stateMutability": "view",
      "type": "function"
    },
    {
      "inputs": [],
      "name": "oneOneThreeUrl",
      "outputs": [
        {
          "internalType": "string",
          "name": "",
          "type": "string"
        }
      ],
      "stateMutability": "view",
      "type": "function"
    },
    {
      "inputs": [],
      "name": "owner",
      "outputs": [
        {
          "internalType": "address",
          "name": "result",
          "type": "address"
        }
      ],
      "stateMutability": "view",
      "type": "function"
    },
    {
      "inputs": [
        {
          "internalType": "address",
          "name": "pendingOwner",
          "type": "address"
        }
      ],
      "name": "ownershipHandoverExpiresAt",
      "outputs": [
        {
          "internalType": "uint256",
          "name": "result",
          "type": "uint256"
        }
      ],
      "stateMutability": "view",
      "type": "function"
    },
    {
      "inputs": [],
      "name": "renounceOwnership",
      "outputs": [],
      "stateMutability": "payable",
      "type": "function"
    },
    {
      "inputs": [],
      "name": "requestOwnershipHandover",
      "outputs": [],
      "stateMutability": "payable",
      "type": "function"
    },
    {
      "inputs": [
        {
          "internalType": "string[]",
          "name": "_urls",
          "type": "string[]"
        }
      ],
      "name": "setExhibitionUrls",
      "outputs": [],
      "stateMutability": "nonpayable",
      "type": "function"
    },
    {
      "inputs": [
        {
          "internalType": "string",
          "name": "_fff",
          "type": "string"
        }
      ],
      "name": "setFff",
      "outputs": [],
      "stateMutability": "nonpayable",
      "type": "function"
    },
    {
      "inputs": [
        {
          "internalType": "string",
          "name": "_fffUrl",
          "type": "string"
        }
      ],
      "name": "setFffUrl",
      "outputs": [],
      "stateMutability": "nonpayable",
      "type": "function"
    },
    {
      "inputs": [
        {
          "internalType": "string",
          "name": "_luke",
          "type": "string"
        }
      ],
      "name": "setLuke",
      "outputs": [],
      "stateMutability": "nonpayable",
      "type": "function"
    },
    {
      "inputs": [
        {
          "internalType": "string",
          "name": "_lukeUrl",
          "type": "string"
        }
      ],
      "name": "setLukeUrl",
      "outputs": [],
      "stateMutability": "nonpayable",
      "type": "function"
    },
    {
      "inputs": [
        {
          "internalType": "string",
          "name": "_malte",
          "type": "string"
        }
      ],
      "name": "setMalte",
      "outputs": [],
      "stateMutability": "nonpayable",
      "type": "function"
    },
    {
      "inputs": [
        {
          "internalType": "string",
          "name": "_malteUrl",
          "type": "string"
        }
      ],
      "name": "setMalteUrl",
      "outputs": [],
      "stateMutability": "nonpayable",
      "type": "function"
    },
    {
      "inputs": [
        {
          "internalType": "string",
          "name": "_oneOneThree",
          "type": "string"
        }
      ],
      "name": "setOneOneThree",
      "outputs": [],
      "stateMutability": "nonpayable",
      "type": "function"
    },
    {
      "inputs": [
        {
          "internalType": "string",
          "name": "_oneOneThreeUrl",
          "type": "string"
        }
      ],
      "name": "setOneOneThreeUrl",
      "outputs": [],
      "stateMutability": "nonpayable",
      "type": "function"
    },
    {
      "inputs": [
        {
          "internalType": "string",
          "name": "_text",
          "type": "string"
        }
      ],
      "name": "setText",
      "outputs": [],
      "stateMutability": "nonpayable",
      "type": "function"
    },
    {
      "inputs": [],
      "name": "text",
      "outputs": [
        {
          "internalType": "string",
          "name": "",
          "type": "string"
        }
      ],
      "stateMutability": "view",
      "type": "function"
    },
    {
      "inputs": [
        {
          "internalType": "address",
          "name": "newOwner",
          "type": "address"
        }
      ],
      "name": "transferOwnership",
      "outputs": [],
      "stateMutability": "payable",
      "type": "function"
    },
    {
      "inputs": [],
      "name": "urls",
      "outputs": [
        {
          "internalType": "string[]",
          "name": "",
          "type": "string[]"
        }
      ],
      "stateMutability": "view",
      "type": "function"
    }
  ],
  "transactionHash": "0xc5c07c0cf11edf9d6a7790d8706a9b5f94296166b590ecdbeb6db5f37f8b7f46",
  "args": [],
  "numDeployments": 1,
  "solcInputHash": "62014e6f2ef2081eaaee8806f18b3f0b",
  "bytecode": "0x60806040526040518060400160405280600581526020017f3078666666000000000000000000000000000000000000000000000000000000815250600290816100489190610583565b506040518060400160405280601681526020017f68747470733a2f2f7777772e30786666662e6c6f7665000000000000000000008152506003908161008d9190610583565b506040518060400160405280600381526020017f3131330000000000000000000000000000000000000000000000000000000000815250600490816100d29190610583565b506040518060400160405280601481526020017f68747470733a2f2f782e636f6d2f307831313364000000000000000000000000815250600590816101179190610583565b506040518060400160405280600781526020017f7373736c756b65000000000000000000000000000000000000000000000000008152506006908161015c9190610583565b506040518060400160405280601681526020017f68747470733a2f2f782e636f6d2f7373736c756b653100000000000000000000815250600790816101a19190610583565b506040518060400160405280600781526020017f6d616c7465667200000000000000000000000000000000000000000000000000815250600890816101e69190610583565b506040518060400160405280601981526020017f68747470733a2f2f782e636f6d2f6d616c746566725f657468000000000000008152506009908161022b9190610583565b5034801561023857600080fd5b506102483361024d60201b60201c565b610655565b61025b61032e60201b60201c565b156102d6577fffffffffffffffffffffffffffffffffffffffffffffffffffffffff7487392780541561029657630dc149f06000526004601cfd5b8160601b60601c9150811560ff1b821781558160007f8be0079c531659141344cd1fd0a4f28419497f9722a3daafe3b4186f6b6457e0600080a35061032b565b8060601b60601c9050807fffffffffffffffffffffffffffffffffffffffffffffffffffffffff74873927558060007f8be0079c531659141344cd1fd0a4f28419497f9722a3daafe3b4186f6b6457e0600080a35b50565b600090565b600081519050919050565b7f4e487b7100000000000000000000000000000000000000000000000000000000600052604160045260246000fd5b7f4e487b7100000000000000000000000000000000000000000000000000000000600052602260045260246000fd5b600060028204905060018216806103b457607f821691505b6020821081036103c7576103c661036d565b5b50919050565b60008190508160005260206000209050919050565b60006020601f8301049050919050565b600082821b905092915050565b60006008830261042f7fffffffffffffffffffffffffffffffffffffffffffffffffffffffffffffffff826103f2565b61043986836103f2565b95508019841693508086168417925050509392505050565b6000819050919050565b6000819050919050565b600061048061047b61047684610451565b61045b565b610451565b9050919050565b6000819050919050565b61049a83610465565b6104ae6104a682610487565b8484546103ff565b825550505050565b600090565b6104c36104b6565b6104ce818484610491565b505050565b5b818110156104f2576104e76000826104bb565b6001810190506104d4565b5050565b601f82111561053757610508816103cd565b610511846103e2565b81016020851015610520578190505b61053461052c856103e2565b8301826104d3565b50505b505050565b600082821c905092915050565b600061055a6000198460080261053c565b1980831691505092915050565b60006105738383610549565b9150826002028217905092915050565b61058c82610333565b67ffffffffffffffff8111156105a5576105a461033e565b5b6105af825461039c565b6105ba8282856104f6565b600060209050601f8311600181146105ed57600084156105db578287015190505b6105e58582610567565b86555061064d565b601f1984166105fb866103cd565b60005b82811015610623578489015182556001820191506020850194506020810190506105fe565b86831015610640578489015161063c601f891682610549565b8355505b6001600288020188555050505b505050505050565b61192c806106646000396000f3fe60806040526004361061019c5760003560e01c8063715018a6116100ec578063beb469e51161008a578063ede749bd11610064578063ede749bd14610507578063f04e283e14610532578063f2fde38b1461054e578063fee81cf41461056a5761019c565b8063beb469e51461048a578063e8f8fdb7146104b5578063ed76a6e0146104de5761019c565b80639596a158116100c65780639596a158146103e4578063a52bc7a01461040d578063b19545be14610436578063ba2978ac1461045f5761019c565b8063715018a6146103845780638951695d1461038e5780638da5cb5b146103b95761019c565b80632c73dc4a1161015957806354d1f13d1161013357806354d1f13d146102fd5780635b0cc35c146103075780635d3a1f9d146103305780635fb4ed2a146103595761019c565b80632c73dc4a146102805780633438f3b3146102ab5780634fa7b94c146102d45761019c565b80631ed7fd29146101a15780631f1bd692146101cc5780631fd7c556146101f757806322e0327614610220578063256929621461024b5780632657249014610255575b600080fd5b3480156101ad57600080fd5b506101b66105a7565b6040516101c3919061111e565b60405180910390f35b3480156101d857600080fd5b506101e1610635565b6040516101ee919061111e565b60405180910390f35b34801561020357600080fd5b5061021e60048036038101906102199190611289565b6106d1565b005b34801561022c57600080fd5b506102356106ec565b604051610242919061111e565b60405180910390f35b61025361077a565b005b34801561026157600080fd5b5061026a6107ce565b604051610277919061111e565b60405180910390f35b34801561028c57600080fd5b5061029561085c565b6040516102a291906113de565b60405180910390f35b3480156102b757600080fd5b506102d260048036038101906102cd9190611289565b610935565b005b3480156102e057600080fd5b506102fb60048036038101906102f69190611289565b610950565b005b61030561096b565b005b34801561031357600080fd5b5061032e60048036038101906103299190611289565b6109a7565b005b34801561033c57600080fd5b5061035760048036038101906103529190611289565b6109c2565b005b34801561036557600080fd5b5061036e610a15565b60405161037b919061111e565b60405180910390f35b61038c610aa3565b005b34801561039a57600080fd5b506103a3610ab7565b6040516103b0919061111e565b60405180910390f35b3480156103c557600080fd5b506103ce610b45565b6040516103db9190611441565b60405180910390f35b3480156103f057600080fd5b5061040b60048036038101906104069190611289565b610b6e565b005b34801561041957600080fd5b50610434600480360381019061042f9190611542565b610b89565b005b34801561044257600080fd5b5061045d60048036038101906104589190611289565b610bab565b005b34801561046b57600080fd5b50610474610bc6565b604051610481919061111e565b60405180910390f35b34801561049657600080fd5b5061049f610c54565b6040516104ac919061111e565b60405180910390f35b3480156104c157600080fd5b506104dc60048036038101906104d79190611289565b610ce2565b005b3480156104ea57600080fd5b5061050560048036038101906105009190611289565b610cfd565b005b34801561051357600080fd5b5061051c610d18565b604051610529919061111e565b60405180910390f35b61054c600480360381019061054791906115b7565b610da6565b005b610568600480360381019061056391906115b7565b610de7565b005b34801561057657600080fd5b50610591600480360381019061058c91906115b7565b610e11565b60405161059e91906115fd565b60405180910390f35b600580546105b490611647565b80601f01602080910402602001604051908101604052809291908181526020018280546105e090611647565b801561062d5780601f106106025761010080835404028352916020019161062d565b820191906000526020600020905b81548152906001019060200180831161061057829003601f168201915b505050505081565b6060600073ffffffffffffffffffffffffffffffffffffffff1660008054906101000a900473ffffffffffffffffffffffffffffffffffffffff1673ffffffffffffffffffffffffffffffffffffffff16036106a2576040518060200160405280600081525090506106ce565b6106cb60008054906101000a900473ffffffffffffffffffffffffffffffffffffffff16610e2c565b90505b90565b6106d9610e5d565b80600690816106e89190611824565b5050565b600380546106f990611647565b80601f016020809104026020016040519081016040528092919081815260200182805461072590611647565b80156107725780601f1061074757610100808354040283529160200191610772565b820191906000526020600020905b81548152906001019060200180831161075557829003601f168201915b505050505081565b6000610784610e95565b67ffffffffffffffff164201905063389a75e1600c5233600052806020600c2055337fdbf36a107da19e49527a7176a1babf963b4b0ff8cde35ee35d6cd8f1f9ac7e1d600080a250565b600680546107db90611647565b80601f016020809104026020016040519081016040528092919081815260200182805461080790611647565b80156108545780601f1061082957610100808354040283529160200191610854565b820191906000526020600020905b81548152906001019060200180831161083757829003601f168201915b505050505081565b60606001805480602002602001604051908101604052809291908181526020016000905b8282101561092c57838290600052602060002001805461089f90611647565b80601f01602080910402602001604051908101604052809291908181526020018280546108cb90611647565b80156109185780601f106108ed57610100808354040283529160200191610918565b820191906000526020600020905b8154815290600101906020018083116108fb57829003601f168201915b505050505081526020019060010190610880565b50505050905090565b61093d610e5d565b806008908161094c9190611824565b5050565b610958610e5d565b80600390816109679190611824565b5050565b63389a75e1600c523360005260006020600c2055337ffa7b8eab7da67f412cc9575ed43464468f9bfbae89d1675917346ca6d8fe3c92600080a2565b6109af610e5d565b80600790816109be9190611824565b5050565b6109ca610e5d565b6109d381610ea0565b6000806101000a81548173ffffffffffffffffffffffffffffffffffffffff021916908373ffffffffffffffffffffffffffffffffffffffff16021790555050565b60028054610a2290611647565b80601f0160208091040260200160405190810160405280929190818152602001828054610a4e90611647565b8015610a9b5780601f10610a7057610100808354040283529160200191610a9b565b820191906000526020600020905b815481529060010190602001808311610a7e57829003601f168201915b505050505081565b610aab610e5d565b610ab56000610ee7565b565b60048054610ac490611647565b80601f0160208091040260200160405190810160405280929190818152602001828054610af090611647565b8015610b3d5780601f10610b1257610100808354040283529160200191610b3d565b820191906000526020600020905b815481529060010190602001808311610b2057829003601f168201915b505050505081565b60007fffffffffffffffffffffffffffffffffffffffffffffffffffffffff7487392754905090565b610b76610e5d565b8060029081610b859190611824565b5050565b610b91610e5d565b8060019080519060200190610ba7929190610fb4565b5050565b610bb3610e5d565b8060099081610bc29190611824565b5050565b60098054610bd390611647565b80601f0160208091040260200160405190810160405280929190818152602001828054610bff90611647565b8015610c4c5780601f10610c2157610100808354040283529160200191610c4c565b820191906000526020600020905b815481529060010190602001808311610c2f57829003601f168201915b505050505081565b60078054610c6190611647565b80601f0160208091040260200160405190810160405280929190818152602001828054610c8d90611647565b8015610cda5780601f10610caf57610100808354040283529160200191610cda565b820191906000526020600020905b815481529060010190602001808311610cbd57829003601f168201915b505050505081565b610cea610e5d565b8060049081610cf99190611824565b5050565b610d05610e5d565b8060059081610d149190611824565b5050565b60088054610d2590611647565b80601f0160208091040260200160405190810160405280929190818152602001828054610d5190611647565b8015610d9e5780601f10610d7357610100808354040283529160200191610d9e565b820191906000526020600020905b815481529060010190602001808311610d8157829003601f168201915b505050505081565b610dae610e5d565b63389a75e1600c52806000526020600c208054421115610dd657636f5e88186000526004601cfd5b6000815550610de481610ee7565b50565b610def610e5d565b8060601b610e0557637448fbae6000526004601cfd5b610e0e81610ee7565b50565b600063389a75e1600c52816000526020600c20549050919050565b6060604051905064ffffffffff6001833b0316602181016000601f8401853c80825260408201810160405250919050565b7fffffffffffffffffffffffffffffffffffffffffffffffffffffffff74873927543314610e93576382b429006000526004601cfd5b565b60006202a300905090565b600081518060401b6bfe61000180600a3d393df3000161fffe8211840152600b8101601584016000f0915081610ede5763301164256000526004601cfd5b80835250919050565b610eef610faf565b15610f55577fffffffffffffffffffffffffffffffffffffffffffffffffffffffff748739278160601b60601c91508181547f8be0079c531659141344cd1fd0a4f28419497f9722a3daafe3b4186f6b6457e0600080a3811560ff1b8217815550610fac565b7fffffffffffffffffffffffffffffffffffffffffffffffffffffffff748739278160601b60601c91508181547f8be0079c531659141344cd1fd0a4f28419497f9722a3daafe3b4186f6b6457e0600080a3818155505b50565b600090565b828054828255906000526020600020908101928215610ffc579160200282015b82811115610ffb578251829081610feb9190611824565b5091602001919060010190610fd4565b5b509050611009919061100d565b5090565b5b8082111561102d57600081816110249190611031565b5060010161100e565b5090565b50805461103d90611647565b6000825580601f1061104f575061106e565b601f01602090049060005260206000209081019061106d9190611071565b5b50565b5b8082111561108a576000816000905550600101611072565b5090565b600081519050919050565b600082825260208201905092915050565b60005b838110156110c85780820151818401526020810190506110ad565b60008484015250505050565b6000601f19601f8301169050919050565b60006110f08261108e565b6110fa8185611099565b935061110a8185602086016110aa565b611113816110d4565b840191505092915050565b6000602082019050818103600083015261113881846110e5565b905092915050565b6000604051905090565b600080fd5b600080fd5b600080fd5b600080fd5b7f4e487b7100000000000000000000000000000000000000000000000000000000600052604160045260246000fd5b611196826110d4565b810181811067ffffffffffffffff821117156111b5576111b461115e565b5b80604052505050565b60006111c8611140565b90506111d4828261118d565b919050565b600067ffffffffffffffff8211156111f4576111f361115e565b5b6111fd826110d4565b9050602081019050919050565b82818337600083830152505050565b600061122c611227846111d9565b6111be565b90508281526020810184848401111561124857611247611159565b5b61125384828561120a565b509392505050565b600082601f8301126112705761126f611154565b5b8135611280848260208601611219565b91505092915050565b60006020828403121561129f5761129e61114a565b5b600082013567ffffffffffffffff8111156112bd576112bc61114f565b5b6112c98482850161125b565b91505092915050565b600081519050919050565b600082825260208201905092915050565b6000819050602082019050919050565b600082825260208201905092915050565b600061131a8261108e565b61132481856112fe565b93506113348185602086016110aa565b61133d816110d4565b840191505092915050565b6000611354838361130f565b905092915050565b6000602082019050919050565b6000611374826112d2565b61137e81856112dd565b935083602082028501611390856112ee565b8060005b858110156113cc57848403895281516113ad8582611348565b94506113b88361135c565b925060208a01995050600181019050611394565b50829750879550505050505092915050565b600060208201905081810360008301526113f88184611369565b905092915050565b600073ffffffffffffffffffffffffffffffffffffffff82169050919050565b600061142b82611400565b9050919050565b61143b81611420565b82525050565b60006020820190506114566000830184611432565b92915050565b600067ffffffffffffffff8211156114775761147661115e565b5b602082029050602081019050919050565b600080fd5b60006114a061149b8461145c565b6111be565b905080838252602082019050602084028301858111156114c3576114c2611488565b5b835b8181101561150a57803567ffffffffffffffff8111156114e8576114e7611154565b5b8086016114f5898261125b565b855260208501945050506020810190506114c5565b5050509392505050565b600082601f83011261152957611528611154565b5b813561153984826020860161148d565b91505092915050565b6000602082840312156115585761155761114a565b5b600082013567ffffffffffffffff8111156115765761157561114f565b5b61158284828501611514565b91505092915050565b61159481611420565b811461159f57600080fd5b50565b6000813590506115b18161158b565b92915050565b6000602082840312156115cd576115cc61114a565b5b60006115db848285016115a2565b91505092915050565b6000819050919050565b6115f7816115e4565b82525050565b600060208201905061161260008301846115ee565b92915050565b7f4e487b7100000000000000000000000000000000000000000000000000000000600052602260045260246000fd5b6000600282049050600182168061165f57607f821691505b60208210810361167257611671611618565b5b50919050565b60008190508160005260206000209050919050565b60006020601f8301049050919050565b600082821b905092915050565b6000600883026116da7fffffffffffffffffffffffffffffffffffffffffffffffffffffffffffffffff8261169d565b6116e4868361169d565b95508019841693508086168417925050509392505050565b6000819050919050565b600061172161171c611717846115e4565b6116fc565b6115e4565b9050919050565b6000819050919050565b61173b83611706565b61174f61174782611728565b8484546116aa565b825550505050565b600090565b611764611757565b61176f818484611732565b505050565b5b818110156117935761178860008261175c565b600181019050611775565b5050565b601f8211156117d8576117a981611678565b6117b28461168d565b810160208510156117c1578190505b6117d56117cd8561168d565b830182611774565b50505b505050565b600082821c905092915050565b60006117fb600019846008026117dd565b1980831691505092915050565b600061181483836117ea565b9150826002028217905092915050565b61182d8261108e565b67ffffffffffffffff8111156118465761184561115e565b5b6118508254611647565b61185b828285611797565b600060209050601f83116001811461188e576000841561187c578287015190505b6118868582611808565b8655506118ee565b601f19841661189c86611678565b60005b828110156118c45784890151825560018201915060208501945060208101905061189f565b868310156118e157848901516118dd601f8916826117ea565b8355505b6001600288020188555050505b50505050505056fea264697066735822122060912934bd5d8c8c8962d3db6cf8cec881ef0aad82b8b3adb6381ebba934c68364736f6c634300081c0033",
  "devdoc": {
    "errors": {
      "AlreadyInitialized()": [
        {
          "details": "Cannot double-initialize."
        }
      ],
      "NewOwnerIsZeroAddress()": [
        {
          "details": "The `newOwner` cannot be the zero address."
        }
      ],
      "NoHandoverRequest()": [
        {
          "details": "The `pendingOwner` does not have a valid handover request."
        }
      ],
      "Unauthorized()": [
        {
          "details": "The caller is not authorized to call the function."
        }
      ]
    },
    "events": {
      "OwnershipHandoverCanceled(address)": {
        "details": "The ownership handover to `pendingOwner` has been canceled."
      },
      "OwnershipHandoverRequested(address)": {
        "details": "An ownership handover to `pendingOwner` has been requested."
      },
      "OwnershipTransferred(address,address)": {
        "details": "The ownership is transferred from `oldOwner` to `newOwner`. This event is intentionally kept the same as OpenZeppelin's Ownable to be compatible with indexers and [EIP-173](https://eips.ethereum.org/EIPS/eip-173), despite it not being as lightweight as a single argument event."
      }
    },
    "kind": "dev",
    "methods": {
      "cancelOwnershipHandover()": {
        "details": "Cancels the two-step ownership handover to the caller, if any."
      },
      "completeOwnershipHandover(address)": {
        "details": "Allows the owner to complete the two-step ownership handover to `pendingOwner`. Reverts if there is no existing ownership handover requested by `pendingOwner`."
      },
      "owner()": {
        "details": "Returns the owner of the contract."
      },
      "ownershipHandoverExpiresAt(address)": {
        "details": "Returns the expiry timestamp for the two-step ownership handover to `pendingOwner`."
      },
      "renounceOwnership()": {
        "details": "Allows the owner to renounce their ownership."
      },
      "requestOwnershipHandover()": {
        "details": "Request a two-step ownership handover to the caller. The request will automatically expire in 48 hours (172800 seconds) by default."
      },
      "transferOwnership(address)": {
        "details": "Allows the owner to transfer the ownership to `newOwner`."
      }
    },
    "version": 1
  },
  "userdoc": {
    "kind": "user",
    "methods": {},
    "version": 1
  },
  "storageLayout": {
    "storage": [
      {
        "astId": 977,
        "contract": "contracts/Mod.sol:Mod",
        "label": "exhibitionText",
        "offset": 0,
        "slot": "0",
        "type": "t_address"
      },
      {
        "astId": 1022,
        "contract": "contracts/Mod.sol:Mod",
        "label": "exhibitionUrls",
        "offset": 0,
        "slot": "1",
        "type": "t_array(t_string_storage)dyn_storage"
      },
      {
        "astId": 1047,
        "contract": "contracts/Mod.sol:Mod",
        "label": "fff",
        "offset": 0,
        "slot": "2",
        "type": "t_string_storage"
      },
      {
        "astId": 1062,
        "contract": "contracts/Mod.sol:Mod",
        "label": "fffUrl",
        "offset": 0,
        "slot": "3",
        "type": "t_string_storage"
      },
      {
        "astId": 1077,
        "contract": "contracts/Mod.sol:Mod",
        "label": "oneOneThree",
        "offset": 0,
        "slot": "4",
        "type": "t_string_storage"
      },
      {
        "astId": 1092,
        "contract": "contracts/Mod.sol:Mod",
        "label": "oneOneThreeUrl",
        "offset": 0,
        "slot": "5",
        "type": "t_string_storage"
      },
      {
        "astId": 1107,
        "contract": "contracts/Mod.sol:Mod",
        "label": "luke",
        "offset": 0,
        "slot": "6",
        "type": "t_string_storage"
      },
      {
        "astId": 1122,
        "contract": "contracts/Mod.sol:Mod",
        "label": "lukeUrl",
        "offset": 0,
        "slot": "7",
        "type": "t_string_storage"
      },
      {
        "astId": 1137,
        "contract": "contracts/Mod.sol:Mod",
        "label": "malte",
        "offset": 0,
        "slot": "8",
        "type": "t_string_storage"
      },
      {
        "astId": 1152,
        "contract": "contracts/Mod.sol:Mod",
        "label": "malteUrl",
        "offset": 0,
        "slot": "9",
        "type": "t_string_storage"
      }
    ],
    "types": {
      "t_address": {
        "encoding": "inplace",
        "label": "address",
        "numberOfBytes": "20"
      },
      "t_array(t_string_storage)dyn_storage": {
        "base": "t_string_storage",
        "encoding": "dynamic_array",
        "label": "string[]",
        "numberOfBytes": "32"
      },
      "t_string_storage": {
        "encoding": "bytes",
        "label": "string",
        "numberOfBytes": "32"
      }
    }
  }
}