{
  "address": "0xECA438b0ad63Bb020e62278d1F0B85d1029e48bd",
  "abi": [
    {
      "inputs": [],
      "stateMutability": "nonpayable",
      "type": "constructor"
    },
    {
      "inputs": [
        {
          "internalType": "address",
          "name": "owner",
          "type": "address"
        }
      ],
      "name": "OwnableInvalidOwner",
      "type": "error"
    },
    {
      "inputs": [
        {
          "internalType": "address",
          "name": "account",
          "type": "address"
        }
      ],
      "name": "OwnableUnauthorizedAccount",
      "type": "error"
    },
    {
      "anonymous": false,
      "inputs": [
        {
          "indexed": true,
          "internalType": "address",
          "name": "previousOwner",
          "type": "address"
        },
        {
          "indexed": true,
          "internalType": "address",
          "name": "newOwner",
          "type": "address"
        }
      ],
      "name": "OwnershipTransferred",
      "type": "event"
    },
    {
      "inputs": [],
      "name": "fff",
      "outputs": [
        {
          "internalType": "string",
          "name": "",
          "type": "string"
        }
      ],
      "stateMutability": "view",
      "type": "function"
    },
    {
      "inputs": [],
      "name": "fffUrl",
      "outputs": [
        {
          "internalType": "string",
          "name": "",
          "type": "string"
        }
      ],
      "stateMutability": "view",
      "type": "function"
    },
    {
      "inputs": [],
      "name": "luke",
      "outputs": [
        {
          "internalType": "string",
          "name": "",
          "type": "string"
        }
      ],
      "stateMutability": "view",
      "type": "function"
    },
    {
      "inputs": [],
      "name": "lukeUrl",
      "outputs": [
        {
          "internalType": "string",
          "name": "",
          "type": "string"
        }
      ],
      "stateMutability": "view",
      "type": "function"
    },
    {
      "inputs": [],
      "name": "malte",
      "outputs": [
        {
          "internalType": "string",
          "name": "",
          "type": "string"
        }
      ],
      "stateMutability": "view",
      "type": "function"
    },
    {
      "inputs": [],
      "name": "malteUrl",
      "outputs": [
        {
          "internalType": "string",
          "name": "",
          "type": "string"
        }
      ],
      "stateMutability": "view",
      "type": "function"
    },
    {
      "inputs": [],
      "name": "oneOneThree",
      "outputs": [
        {
          "internalType": "string",
          "name": "",
          "type": "string"
        }
      ],
      "stateMutability": "view",
      "type": "function"
    },
    {
      "inputs": [],
      "name": "oneOneThreeUrl",
      "outputs": [
        {
          "internalType": "string",
          "name": "",
          "type": "string"
        }
      ],
      "stateMutability": "view",
      "type": "function"
    },
    {
      "inputs": [],
      "name": "owner",
      "outputs": [
        {
          "internalType": "address",
          "name": "",
          "type": "address"
        }
      ],
      "stateMutability": "view",
      "type": "function"
    },
    {
      "inputs": [],
      "name": "renounceOwnership",
      "outputs": [],
      "stateMutability": "nonpayable",
      "type": "function"
    },
    {
      "inputs": [
        {
          "internalType": "string[]",
          "name": "_urls",
          "type": "string[]"
        }
      ],
      "name": "setExhibitionUrls",
      "outputs": [],
      "stateMutability": "nonpayable",
      "type": "function"
    },
    {
      "inputs": [
        {
          "internalType": "string",
          "name": "_fff",
          "type": "string"
        }
      ],
      "name": "setFff",
      "outputs": [],
      "stateMutability": "nonpayable",
      "type": "function"
    },
    {
      "inputs": [
        {
          "internalType": "string",
          "name": "_fffUrl",
          "type": "string"
        }
      ],
      "name": "setFffUrl",
      "outputs": [],
      "stateMutability": "nonpayable",
      "type": "function"
    },
    {
      "inputs": [
        {
          "internalType": "string",
          "name": "_luke",
          "type": "string"
        }
      ],
      "name": "setLuke",
      "outputs": [],
      "stateMutability": "nonpayable",
      "type": "function"
    },
    {
      "inputs": [
        {
          "internalType": "string",
          "name": "_lukeUrl",
          "type": "string"
        }
      ],
      "name": "setLukeUrl",
      "outputs": [],
      "stateMutability": "nonpayable",
      "type": "function"
    },
    {
      "inputs": [
        {
          "internalType": "string",
          "name": "_malte",
          "type": "string"
        }
      ],
      "name": "setMalte",
      "outputs": [],
      "stateMutability": "nonpayable",
      "type": "function"
    },
    {
      "inputs": [
        {
          "internalType": "string",
          "name": "_malteUrl",
          "type": "string"
        }
      ],
      "name": "setMalteUrl",
      "outputs": [],
      "stateMutability": "nonpayable",
      "type": "function"
    },
    {
      "inputs": [
        {
          "internalType": "string",
          "name": "_oneOneThree",
          "type": "string"
        }
      ],
      "name": "setOneOneThree",
      "outputs": [],
      "stateMutability": "nonpayable",
      "type": "function"
    },
    {
      "inputs": [
        {
          "internalType": "string",
          "name": "_oneOneThreeUrl",
          "type": "string"
        }
      ],
      "name": "setOneOneThreeUrl",
      "outputs": [],
      "stateMutability": "nonpayable",
      "type": "function"
    },
    {
      "inputs": [
        {
          "internalType": "string",
          "name": "_text",
          "type": "string"
        }
      ],
      "name": "setText",
      "outputs": [],
      "stateMutability": "nonpayable",
      "type": "function"
    },
    {
      "inputs": [],
      "name": "text",
      "outputs": [
        {
          "internalType": "string",
          "name": "",
          "type": "string"
        }
      ],
      "stateMutability": "view",
      "type": "function"
    },
    {
      "inputs": [
        {
          "internalType": "address",
          "name": "newOwner",
          "type": "address"
        }
      ],
      "name": "transferOwnership",
      "outputs": [],
      "stateMutability": "nonpayable",
      "type": "function"
    },
    {
      "inputs": [],
      "name": "urls",
      "outputs": [
        {
          "internalType": "string[]",
          "name": "",
          "type": "string[]"
        }
      ],
      "stateMutability": "view",
      "type": "function"
    }
  ],
  "transactionHash": "0x1ef10aacd1d7e8772a5069fe78964c6797fefcf83bbb77b2acf409dd8203f0d1",
  "args": [],
  "numDeployments": 2,
  "solcInputHash": "20aa0555289e4da74883abaf655672d7",
  "bytecode": "0x60806040526040518060400160405280600581526020017f30786666660000000000000000000000000000000000000000000000000000008152506003908161004891906105d5565b506040518060400160405280601681526020017f68747470733a2f2f7777772e30786666662e6c6f7665000000000000000000008152506004908161008d91906105d5565b506040518060400160405280600381526020017f3131330000000000000000000000000000000000000000000000000000000000815250600590816100d291906105d5565b506040518060400160405280601481526020017f68747470733a2f2f782e636f6d2f3078313133640000000000000000000000008152506006908161011791906105d5565b506040518060400160405280600781526020017f7373736c756b65000000000000000000000000000000000000000000000000008152506007908161015c91906105d5565b506040518060400160405280601681526020017f68747470733a2f2f782e636f6d2f7373736c756b653100000000000000000000815250600890816101a191906105d5565b506040518060400160405280600781526020017f6d616c7465667200000000000000000000000000000000000000000000000000815250600990816101e691906105d5565b506040518060400160405280601981526020017f68747470733a2f2f782e636f6d2f6d616c746566725f65746800000000000000815250600a908161022b91906105d5565b5034801561023857600080fd5b5033600073ffffffffffffffffffffffffffffffffffffffff168173ffffffffffffffffffffffffffffffffffffffff16036102ac5760006040517f1e4fbdf70000000000000000000000000000000000000000000000000000000081526004016102a391906106e8565b60405180910390fd5b6102bb816102c160201b60201c565b50610703565b60008060009054906101000a900473ffffffffffffffffffffffffffffffffffffffff169050816000806101000a81548173ffffffffffffffffffffffffffffffffffffffff021916908373ffffffffffffffffffffffffffffffffffffffff1602179055508173ffffffffffffffffffffffffffffffffffffffff168173ffffffffffffffffffffffffffffffffffffffff167f8be0079c531659141344cd1fd0a4f28419497f9722a3daafe3b4186f6b6457e060405160405180910390a35050565b600081519050919050565b7f4e487b7100000000000000000000000000000000000000000000000000000000600052604160045260246000fd5b7f4e487b7100000000000000000000000000000000000000000000000000000000600052602260045260246000fd5b6000600282049050600182168061040657607f821691505b602082108103610419576104186103bf565b5b50919050565b60008190508160005260206000209050919050565b60006020601f8301049050919050565b600082821b905092915050565b6000600883026104817fffffffffffffffffffffffffffffffffffffffffffffffffffffffffffffffff82610444565b61048b8683610444565b95508019841693508086168417925050509392505050565b6000819050919050565b6000819050919050565b60006104d26104cd6104c8846104a3565b6104ad565b6104a3565b9050919050565b6000819050919050565b6104ec836104b7565b6105006104f8826104d9565b848454610451565b825550505050565b600090565b610515610508565b6105208184846104e3565b505050565b5b818110156105445761053960008261050d565b600181019050610526565b5050565b601f8211156105895761055a8161041f565b61056384610434565b81016020851015610572578190505b61058661057e85610434565b830182610525565b50505b505050565b600082821c905092915050565b60006105ac6000198460080261058e565b1980831691505092915050565b60006105c5838361059b565b9150826002028217905092915050565b6105de82610385565b67ffffffffffffffff8111156105f7576105f6610390565b5b61060182546103ee565b61060c828285610548565b600060209050601f83116001811461063f576000841561062d578287015190505b61063785826105b9565b86555061069f565b601f19841661064d8661041f565b60005b8281101561067557848901518255600182019150602085019450602081019050610650565b86831015610692578489015161068e601f89168261059b565b8355505b6001600288020188555050505b505050505050565b600073ffffffffffffffffffffffffffffffffffffffff82169050919050565b60006106d2826106a7565b9050919050565b6106e2816106c7565b82525050565b60006020820190506106fd60008301846106d9565b92915050565b6116ed806107126000396000f3fe608060405234801561001057600080fd5b506004361061014d5760003560e01c8063715018a6116100c3578063ba2978ac1161007c578063ba2978ac1461032c578063beb469e51461034a578063e8f8fdb714610368578063ed76a6e014610384578063ede749bd146103a0578063f2fde38b146103be5761014d565b8063715018a6146102925780638951695d1461029c5780638da5cb5b146102ba5780639596a158146102d8578063a52bc7a0146102f4578063b19545be146103105761014d565b80632c73dc4a116101155780632c73dc4a146101e65780633438f3b3146102045780634fa7b94c146102205780635b0cc35c1461023c5780635d3a1f9d146102585780635fb4ed2a146102745761014d565b80631ed7fd29146101525780631f1bd692146101705780631fd7c5561461018e57806322e03276146101aa57806326572490146101c8575b600080fd5b61015a6103da565b6040516101679190610f09565b60405180910390f35b610178610468565b6040516101859190610f09565b60405180910390f35b6101a860048036038101906101a39190611074565b610508565b005b6101b2610523565b6040516101bf9190610f09565b60405180910390f35b6101d06105b1565b6040516101dd9190610f09565b60405180910390f35b6101ee61063f565b6040516101fb91906111c9565b60405180910390f35b61021e60048036038101906102199190611074565b610718565b005b61023a60048036038101906102359190611074565b610733565b005b61025660048036038101906102519190611074565b61074e565b005b610272600480360381019061026d9190611074565b610769565b005b61027c6107bd565b6040516102899190610f09565b60405180910390f35b61029a61084b565b005b6102a461085f565b6040516102b19190610f09565b60405180910390f35b6102c26108ed565b6040516102cf919061122c565b60405180910390f35b6102f260048036038101906102ed9190611074565b610916565b005b61030e6004803603810190610309919061132d565b610931565b005b61032a60048036038101906103259190611074565b610953565b005b61033461096e565b6040516103419190610f09565b60405180910390f35b6103526109fc565b60405161035f9190610f09565b60405180910390f35b610382600480360381019061037d9190611074565b610a8a565b005b61039e60048036038101906103999190611074565b610aa5565b005b6103a8610ac0565b6040516103b59190610f09565b60405180910390f35b6103d860048036038101906103d391906113a2565b610b4e565b005b600680546103e7906113fe565b80601f0160208091040260200160405190810160405280929190818152602001828054610413906113fe565b80156104605780601f1061043557610100808354040283529160200191610460565b820191906000526020600020905b81548152906001019060200180831161044357829003601f168201915b505050505081565b6060600073ffffffffffffffffffffffffffffffffffffffff16600160009054906101000a900473ffffffffffffffffffffffffffffffffffffffff1673ffffffffffffffffffffffffffffffffffffffff16036104d757604051806020016040528060008152509050610505565b610502600160009054906101000a900473ffffffffffffffffffffffffffffffffffffffff16610bd4565b90505b90565b610510610c05565b806007908161051f91906115e5565b5050565b60048054610530906113fe565b80601f016020809104026020016040519081016040528092919081815260200182805461055c906113fe565b80156105a95780601f1061057e576101008083540402835291602001916105a9565b820191906000526020600020905b81548152906001019060200180831161058c57829003601f168201915b505050505081565b600780546105be906113fe565b80601f01602080910402602001604051908101604052809291908181526020018280546105ea906113fe565b80156106375780601f1061060c57610100808354040283529160200191610637565b820191906000526020600020905b81548152906001019060200180831161061a57829003601f168201915b505050505081565b60606002805480602002602001604051908101604052809291908181526020016000905b8282101561070f578382906000526020600020018054610682906113fe565b80601f01602080910402602001604051908101604052809291908181526020018280546106ae906113fe565b80156106fb5780601f106106d0576101008083540402835291602001916106fb565b820191906000526020600020905b8154815290600101906020018083116106de57829003601f168201915b505050505081526020019060010190610663565b50505050905090565b610720610c05565b806009908161072f91906115e5565b5050565b61073b610c05565b806004908161074a91906115e5565b5050565b610756610c05565b806008908161076591906115e5565b5050565b610771610c05565b61077a81610c8c565b600160006101000a81548173ffffffffffffffffffffffffffffffffffffffff021916908373ffffffffffffffffffffffffffffffffffffffff16021790555050565b600380546107ca906113fe565b80601f01602080910402602001604051908101604052809291908181526020018280546107f6906113fe565b80156108435780601f1061081857610100808354040283529160200191610843565b820191906000526020600020905b81548152906001019060200180831161082657829003601f168201915b505050505081565b610853610c05565b61085d6000610cd3565b565b6005805461086c906113fe565b80601f0160208091040260200160405190810160405280929190818152602001828054610898906113fe565b80156108e55780601f106108ba576101008083540402835291602001916108e5565b820191906000526020600020905b8154815290600101906020018083116108c857829003601f168201915b505050505081565b60008060009054906101000a900473ffffffffffffffffffffffffffffffffffffffff16905090565b61091e610c05565b806003908161092d91906115e5565b5050565b610939610c05565b806002908051906020019061094f929190610d9f565b5050565b61095b610c05565b80600a908161096a91906115e5565b5050565b600a805461097b906113fe565b80601f01602080910402602001604051908101604052809291908181526020018280546109a7906113fe565b80156109f45780601f106109c9576101008083540402835291602001916109f4565b820191906000526020600020905b8154815290600101906020018083116109d757829003601f168201915b505050505081565b60088054610a09906113fe565b80601f0160208091040260200160405190810160405280929190818152602001828054610a35906113fe565b8015610a825780601f10610a5757610100808354040283529160200191610a82565b820191906000526020600020905b815481529060010190602001808311610a6557829003601f168201915b505050505081565b610a92610c05565b8060059081610aa191906115e5565b5050565b610aad610c05565b8060069081610abc91906115e5565b5050565b60098054610acd906113fe565b80601f0160208091040260200160405190810160405280929190818152602001828054610af9906113fe565b8015610b465780601f10610b1b57610100808354040283529160200191610b46565b820191906000526020600020905b815481529060010190602001808311610b2957829003601f168201915b505050505081565b610b56610c05565b600073ffffffffffffffffffffffffffffffffffffffff168173ffffffffffffffffffffffffffffffffffffffff1603610bc85760006040517f1e4fbdf7000000000000000000000000000000000000000000000000000000008152600401610bbf919061122c565b60405180910390fd5b610bd181610cd3565b50565b6060604051905064ffffffffff6001833b0316602181016000601f8401853c80825260408201810160405250919050565b610c0d610d97565b73ffffffffffffffffffffffffffffffffffffffff16610c2b6108ed565b73ffffffffffffffffffffffffffffffffffffffff1614610c8a57610c4e610d97565b6040517f118cdaa7000000000000000000000000000000000000000000000000000000008152600401610c81919061122c565b60405180910390fd5b565b600081518060401b6bfe61000180600a3d393df3000161fffe8211840152600b8101601584016000f0915081610cca5763301164256000526004601cfd5b80835250919050565b60008060009054906101000a900473ffffffffffffffffffffffffffffffffffffffff169050816000806101000a81548173ffffffffffffffffffffffffffffffffffffffff021916908373ffffffffffffffffffffffffffffffffffffffff1602179055508173ffffffffffffffffffffffffffffffffffffffff168173ffffffffffffffffffffffffffffffffffffffff167f8be0079c531659141344cd1fd0a4f28419497f9722a3daafe3b4186f6b6457e060405160405180910390a35050565b600033905090565b828054828255906000526020600020908101928215610de7579160200282015b82811115610de6578251829081610dd691906115e5565b5091602001919060010190610dbf565b5b509050610df49190610df8565b5090565b5b80821115610e185760008181610e0f9190610e1c565b50600101610df9565b5090565b508054610e28906113fe565b6000825580601f10610e3a5750610e59565b601f016020900490600052602060002090810190610e589190610e5c565b5b50565b5b80821115610e75576000816000905550600101610e5d565b5090565b600081519050919050565b600082825260208201905092915050565b60005b83811015610eb3578082015181840152602081019050610e98565b60008484015250505050565b6000601f19601f8301169050919050565b6000610edb82610e79565b610ee58185610e84565b9350610ef5818560208601610e95565b610efe81610ebf565b840191505092915050565b60006020820190508181036000830152610f238184610ed0565b905092915050565b6000604051905090565b600080fd5b600080fd5b600080fd5b600080fd5b7f4e487b7100000000000000000000000000000000000000000000000000000000600052604160045260246000fd5b610f8182610ebf565b810181811067ffffffffffffffff82111715610fa057610f9f610f49565b5b80604052505050565b6000610fb3610f2b565b9050610fbf8282610f78565b919050565b600067ffffffffffffffff821115610fdf57610fde610f49565b5b610fe882610ebf565b9050602081019050919050565b82818337600083830152505050565b600061101761101284610fc4565b610fa9565b90508281526020810184848401111561103357611032610f44565b5b61103e848285610ff5565b509392505050565b600082601f83011261105b5761105a610f3f565b5b813561106b848260208601611004565b91505092915050565b60006020828403121561108a57611089610f35565b5b600082013567ffffffffffffffff8111156110a8576110a7610f3a565b5b6110b484828501611046565b91505092915050565b600081519050919050565b600082825260208201905092915050565b6000819050602082019050919050565b600082825260208201905092915050565b600061110582610e79565b61110f81856110e9565b935061111f818560208601610e95565b61112881610ebf565b840191505092915050565b600061113f83836110fa565b905092915050565b6000602082019050919050565b600061115f826110bd565b61116981856110c8565b93508360208202850161117b856110d9565b8060005b858110156111b757848403895281516111988582611133565b94506111a383611147565b925060208a0199505060018101905061117f565b50829750879550505050505092915050565b600060208201905081810360008301526111e38184611154565b905092915050565b600073ffffffffffffffffffffffffffffffffffffffff82169050919050565b6000611216826111eb565b9050919050565b6112268161120b565b82525050565b6000602082019050611241600083018461121d565b92915050565b600067ffffffffffffffff82111561126257611261610f49565b5b602082029050602081019050919050565b600080fd5b600061128b61128684611247565b610fa9565b905080838252602082019050602084028301858111156112ae576112ad611273565b5b835b818110156112f557803567ffffffffffffffff8111156112d3576112d2610f3f565b5b8086016112e08982611046565b855260208501945050506020810190506112b0565b5050509392505050565b600082601f83011261131457611313610f3f565b5b8135611324848260208601611278565b91505092915050565b60006020828403121561134357611342610f35565b5b600082013567ffffffffffffffff81111561136157611360610f3a565b5b61136d848285016112ff565b91505092915050565b61137f8161120b565b811461138a57600080fd5b50565b60008135905061139c81611376565b92915050565b6000602082840312156113b8576113b7610f35565b5b60006113c68482850161138d565b91505092915050565b7f4e487b7100000000000000000000000000000000000000000000000000000000600052602260045260246000fd5b6000600282049050600182168061141657607f821691505b602082108103611429576114286113cf565b5b50919050565b60008190508160005260206000209050919050565b60006020601f8301049050919050565b600082821b905092915050565b6000600883026114917fffffffffffffffffffffffffffffffffffffffffffffffffffffffffffffffff82611454565b61149b8683611454565b95508019841693508086168417925050509392505050565b6000819050919050565b6000819050919050565b60006114e26114dd6114d8846114b3565b6114bd565b6114b3565b9050919050565b6000819050919050565b6114fc836114c7565b611510611508826114e9565b848454611461565b825550505050565b600090565b611525611518565b6115308184846114f3565b505050565b5b818110156115545761154960008261151d565b600181019050611536565b5050565b601f8211156115995761156a8161142f565b61157384611444565b81016020851015611582578190505b61159661158e85611444565b830182611535565b50505b505050565b600082821c905092915050565b60006115bc6000198460080261159e565b1980831691505092915050565b60006115d583836115ab565b9150826002028217905092915050565b6115ee82610e79565b67ffffffffffffffff81111561160757611606610f49565b5b61161182546113fe565b61161c828285611558565b600060209050601f83116001811461164f576000841561163d578287015190505b61164785826115c9565b8655506116af565b601f19841661165d8661142f565b60005b8281101561168557848901518255600182019150602085019450602081019050611660565b868310156116a2578489015161169e601f8916826115ab565b8355505b6001600288020188555050505b50505050505056fea26469706673582212206e0ba19d8418e32872031a498889c2bb56ae5d985a390c8549b100aa3e65b4b964736f6c634300081c0033",
  "devdoc": {
    "errors": {
      "OwnableInvalidOwner(address)": [
        {
          "details": "The owner is not a valid owner account. (eg. `address(0)`)"
        }
      ],
      "OwnableUnauthorizedAccount(address)": [
        {
          "details": "The caller account is not authorized to perform an operation."
        }
      ]
    },
    "kind": "dev",
    "methods": {
      "owner()": {
        "details": "Returns the address of the current owner."
      },
      "renounceOwnership()": {
        "details": "Leaves the contract without owner. It will not be possible to call `onlyOwner` functions. Can only be called by the current owner. NOTE: Renouncing ownership will leave the contract without an owner, thereby disabling any functionality that is only available to the owner."
      },
      "transferOwnership(address)": {
        "details": "Transfers ownership of the contract to a new account (`newOwner`). Can only be called by the current owner."
      }
    },
    "version": 1
  },
  "userdoc": {
    "kind": "user",
    "methods": {},
    "version": 1
  },
  "storageLayout": {
    "storage": [
      {
        "astId": 224,
        "contract": "contracts/Mod.sol:Mod",
        "label": "_owner",
        "offset": 0,
        "slot": "0",
        "type": "t_address"
      },
      {
        "astId": 2908,
        "contract": "contracts/Mod.sol:Mod",
        "label": "exhibitionText",
        "offset": 0,
        "slot": "1",
        "type": "t_address"
      },
      {
        "astId": 2953,
        "contract": "contracts/Mod.sol:Mod",
        "label": "exhibitionUrls",
        "offset": 0,
        "slot": "2",
        "type": "t_array(t_string_storage)dyn_storage"
      },
      {
        "astId": 2978,
        "contract": "contracts/Mod.sol:Mod",
        "label": "fff",
        "offset": 0,
        "slot": "3",
        "type": "t_string_storage"
      },
      {
        "astId": 2993,
        "contract": "contracts/Mod.sol:Mod",
        "label": "fffUrl",
        "offset": 0,
        "slot": "4",
        "type": "t_string_storage"
      },
      {
        "astId": 3008,
        "contract": "contracts/Mod.sol:Mod",
        "label": "oneOneThree",
        "offset": 0,
        "slot": "5",
        "type": "t_string_storage"
      },
      {
        "astId": 3023,
        "contract": "contracts/Mod.sol:Mod",
        "label": "oneOneThreeUrl",
        "offset": 0,
        "slot": "6",
        "type": "t_string_storage"
      },
      {
        "astId": 3038,
        "contract": "contracts/Mod.sol:Mod",
        "label": "luke",
        "offset": 0,
        "slot": "7",
        "type": "t_string_storage"
      },
      {
        "astId": 3053,
        "contract": "contracts/Mod.sol:Mod",
        "label": "lukeUrl",
        "offset": 0,
        "slot": "8",
        "type": "t_string_storage"
      },
      {
        "astId": 3068,
        "contract": "contracts/Mod.sol:Mod",
        "label": "malte",
        "offset": 0,
        "slot": "9",
        "type": "t_string_storage"
      },
      {
        "astId": 3083,
        "contract": "contracts/Mod.sol:Mod",
        "label": "malteUrl",
        "offset": 0,
        "slot": "10",
        "type": "t_string_storage"
      }
    ],
    "types": {
      "t_address": {
        "encoding": "inplace",
        "label": "address",
        "numberOfBytes": "20"
      },
      "t_array(t_string_storage)dyn_storage": {
        "base": "t_string_storage",
        "encoding": "dynamic_array",
        "label": "string[]",
        "numberOfBytes": "32"
      },
      "t_string_storage": {
        "encoding": "bytes",
        "label": "string",
        "numberOfBytes": "32"
      }
    }
  }
}