{
  "address": "0xea7A817577231B8B08CC8EB3f9438FD118d00D3D",
  "abi": [
    {
      "inputs": [
        {
          "internalType": "uint32",
          "name": "x",
          "type": "uint32"
        },
        {
          "internalType": "uint32",
          "name": "y",
          "type": "uint32"
        },
        {
          "internalType": "uint32",
          "name": "seed",
          "type": "uint32"
        },
        {
          "internalType": "uint32",
          "name": "scale",
          "type": "uint32"
        }
      ],
      "name": "computePerlin",
      "outputs": [
        {
          "internalType": "uint256",
          "name": "",
          "type": "uint256"
        }
      ],
      "stateMutability": "view",
      "type": "function"
    },
    {
      "inputs": [
        {
          "internalType": "uint32",
          "name": "x",
          "type": "uint32"
        },
        {
          "internalType": "uint32",
          "name": "y",
          "type": "uint32"
        },
        {
          "internalType": "uint32",
          "name": "scale",
          "type": "uint32"
        }
      ],
      "name": "getCorners",
      "outputs": [
        {
          "internalType": "uint32[2][4]",
          "name": "",
          "type": "uint32[2][4]"
        }
      ],
      "stateMutability": "pure",
      "type": "function"
    },
    {
      "inputs": [
        {
          "internalType": "uint32",
          "name": "x",
          "type": "uint32"
        },
        {
          "internalType": "uint32",
          "name": "y",
          "type": "uint32"
        },
        {
          "internalType": "uint32",
          "name": "scale",
          "type": "uint32"
        },
        {
          "internalType": "uint32",
          "name": "seed",
          "type": "uint32"
        }
      ],
      "name": "getGradientAt",
      "outputs": [
        {
          "internalType": "int16[2]",
          "name": "",
          "type": "int16[2]"
        }
      ],
      "stateMutability": "view",
      "type": "function"
    },
    {
      "inputs": [
        {
          "internalType": "uint32",
          "name": "x",
          "type": "uint32"
        },
        {
          "internalType": "uint32",
          "name": "y",
          "type": "uint32"
        },
        {
          "internalType": "uint32",
          "name": "scale",
          "type": "uint32"
        },
        {
          "internalType": "uint32",
          "name": "seed",
          "type": "uint32"
        }
      ],
      "name": "getSingleScalePerlin",
      "outputs": [
        {
          "internalType": "int128",
          "name": "",
          "type": "int128"
        }
      ],
      "stateMutability": "view",
      "type": "function"
    },
    {
      "inputs": [
        {
          "internalType": "uint32",
          "name": "cornerX",
          "type": "uint32"
        },
        {
          "internalType": "uint32",
          "name": "cornerY",
          "type": "uint32"
        },
        {
          "internalType": "uint32",
          "name": "x",
          "type": "uint32"
        },
        {
          "internalType": "uint32",
          "name": "y",
          "type": "uint32"
        },
        {
          "internalType": "uint32",
          "name": "scale",
          "type": "uint32"
        }
      ],
      "name": "getWeight",
      "outputs": [
        {
          "internalType": "uint64",
          "name": "",
          "type": "uint64"
        }
      ],
      "stateMutability": "pure",
      "type": "function"
    },
    {
      "inputs": [
        {
          "internalType": "int128",
          "name": "x",
          "type": "int128"
        }
      ],
      "name": "smoothStep",
      "outputs": [
        {
          "internalType": "int128",
          "name": "",
          "type": "int128"
        }
      ],
      "stateMutability": "pure",
      "type": "function"
    }
  ],
  "transactionHash": "0x7b72f79eee337e4e0458c04bc455aba787e850fa55467059df433d4409d1307e",
  "args": [],
  "numDeployments": 2,
  "solcInputHash": "f18fa6e93d223df61289a0a0a415e623",
  "bytecode": "0x611d1e610052600b82828239805160001a6073146045577f4e487b7100000000000000000000000000000000000000000000000000000000600052600060045260246000fd5b30600052607381538281f3fe730000000000000000000000000000000000000000301460806040526004361061006c5760003560e01c8063229d05881461007157806322efde0a146100a157806393f32993146100d1578063b9576c3514610101578063d15eb0d514610131578063e707518714610161575b600080fd5b61008b600480360381019061008691906110bf565b610191565b604051610098919061113f565b60405180910390f35b6100bb60048036038101906100b691906110bf565b610291565b6040516100c89190611176565b60405180910390f35b6100eb60048036038101906100e691906110bf565b6104b8565b6040516100f89190611249565b60405180910390f35b61011b60048036038101906101169190611264565b610991565b6040516101289190611302565b60405180910390f35b61014b6004803603810190610146919061131d565b610a81565b60405161015891906114b7565b60405180910390f35b61017b600480360381019061017691906114ff565b610bc7565b6040516101889190611176565b60405180910390f35b60008061019e6000610bd1565b905060005b60038160ff1610156101f05760006101d488888460026101c3919061169b565b886101ce91906116e6565b89610291565b90506101e08382610bf4565b92505080806001019150506101a3565b506102128161020d888860018861020791906116e6565b89610291565b610bf4565b9050610227816102226004610bd1565b610c5b565b905060006102706102518361024c600260406102439190611760565b61ffff16610bd1565b610ce4565b61026b600260406102629190611760565b61ffff16610bd1565b610bf4565b905061027b81610d4f565b67ffffffffffffffff1692505050949350505050565b60008061029f868686610a81565b90506000805b60048160ff16101561047f576000838260ff16600481106102c9576102c8611791565b5b6020020151905060006040518060400160405280836000600281106102f1576102f0611791565b5b60200201518c61030191906117cd565b60030b60030b8152602001836001600281106103205761031f611791565b5b60200201518b61033091906117cd565b60030b60030b815250905060006103798360006002811061035457610353611791565b5b60200201518460016002811061036d5761036c611791565b5b60200201518b8b6104b8565b905060008160016002811061039157610390611791565b5b602002015160010b836001600281106103ad576103ac611791565b5b602002015160030b6103bf9190611836565b826000600281106103d3576103d2611791565b5b602002015160010b846000600281106103ef576103ee611791565b5b602002015160030b6104019190611836565b61040b9190611873565b9050600061044c8560006002811061042657610425611791565b5b60200201518660016002811061043f5761043e611791565b5b60200201518f8f8f610991565b90508160070b8160070b61046091906118d3565b8761046b9190611910565b9650505050505080806001019150506102a5565b506104ac81600f0b60038760030b6104979190611a71565b6103e860010b6104a79190611add565b610d70565b92505050949350505050565b6104c061100d565b60006010868686866040516020016104db9493929190611b8b565b6040516020818303038152906040528051906020012060001c6104fe9190611bd9565b9050600060405180610200016040528060405180604001604052806103e860010b60010b8152602001600060010b60010b8152508152602001604051806040016040528061039b60010b60010b815260200161017e60010b60010b815250815260200160405180604001604052806102c360010b60010b81526020016102c360010b60010b8152508152602001604051806040016040528061017e60010b60010b815260200161039b60010b60010b81525081526020016040518060400160405280600060010b60010b81526020016103e860010b60010b815250815260200160405180604001604052807ffffffffffffffffffffffffffffffffffffffffffffffffffffffffffffffe8160010b60010b815260200161039b60010b60010b815250815260200160405180604001604052807ffffffffffffffffffffffffffffffffffffffffffffffffffffffffffffffd3c60010b60010b81526020016102c360010b60010b815250815260200160405180604001604052807ffffffffffffffffffffffffffffffffffffffffffffffffffffffffffffffc6460010b60010b815260200161017e60010b60010b815250815260200160405180604001604052807ffffffffffffffffffffffffffffffffffffffffffffffffffffffffffffffc1860010b60010b8152602001600060010b60010b815250815260200160405180604001604052807ffffffffffffffffffffffffffffffffffffffffffffffffffffffffffffffc6460010b60010b81526020017ffffffffffffffffffffffffffffffffffffffffffffffffffffffffffffffe8160010b60010b815250815260200160405180604001604052807ffffffffffffffffffffffffffffffffffffffffffffffffffffffffffffffd3c60010b60010b81526020017ffffffffffffffffffffffffffffffffffffffffffffffffffffffffffffffd3c60010b60010b815250815260200160405180604001604052807ffffffffffffffffffffffffffffffffffffffffffffffffffffffffffffffe8160010b60010b81526020017ffffffffffffffffffffffffffffffffffffffffffffffffffffffffffffffc6460010b60010b815250815260200160405180604001604052807fffffffffffffffffffffffffffffffffffffffffffffffffffffffffffffffff60010b60010b81526020017ffffffffffffffffffffffffffffffffffffffffffffffffffffffffffffffc1860010b60010b8152508152602001604051806040016040528061017e60010b60010b81526020017ffffffffffffffffffffffffffffffffffffffffffffffffffffffffffffffc6460010b60010b815250815260200160405180604001604052806102c360010b60010b81526020017ffffffffffffffffffffffffffffffffffffffffffffffffffffffffffffffd3c60010b60010b8152508152602001604051806040016040528061039b60010b60010b81526020017ffffffffffffffffffffffffffffffffffffffffffffffffffffffffffffffe8160010b60010b81525081525090508082601081106109805761097f611791565b5b602002015192505050949350505050565b600080600190508463ffffffff168763ffffffff1611156109db5784876109b89190611c0a565b836109c39190611c0a565b63ffffffff16816109d49190611c42565b9050610a06565b86856109e79190611c0a565b836109f29190611c0a565b63ffffffff1681610a039190611c42565b90505b8363ffffffff168663ffffffff161115610a49578386610a269190611c0a565b83610a319190611c0a565b63ffffffff1681610a429190611c42565b9050610a74565b8584610a559190611c0a565b83610a609190611c0a565b63ffffffff1681610a719190611c42565b90505b8091505095945050505050565b610a8961102f565b6000828386610a989190611c7f565b610aa291906116e6565b90506000838486610ab39190611c7f565b610abd91906116e6565b9050604051806080016040528060405180604001604052808563ffffffff1663ffffffff1681526020018463ffffffff1663ffffffff16815250815260200160405180604001604052808786610b139190611cb0565b63ffffffff1663ffffffff1681526020018463ffffffff1663ffffffff16815250815260200160405180604001604052808786610b509190611cb0565b63ffffffff1663ffffffff1681526020018785610b6d9190611cb0565b63ffffffff1663ffffffff16815250815260200160405180604001604052808563ffffffff1663ffffffff1681526020018785610baa9190611cb0565b63ffffffff1663ffffffff16815250815250925050509392505050565b6000819050919050565b6000677fffffffffffffff821115610be857600080fd5b604082901b9050919050565b60008082600f0b84600f0b0190507fffffffffffffffffffffffffffffffff80000000000000000000000000000000600f0b8112158015610c4857506f7fffffffffffffffffffffffffffffff600f0b8113155b610c5157600080fd5b8091505092915050565b60008082600f0b03610c6c57600080fd5b600082600f0b604085600f0b901b81610c8857610c87611731565b5b0590507fffffffffffffffffffffffffffffffff80000000000000000000000000000000600f0b8112158015610cd157506f7fffffffffffffffffffffffffffffff600f0b8113155b610cda57600080fd5b8091505092915050565b600080604083600f0b85600f0b02901d90507fffffffffffffffffffffffffffffffff80000000000000000000000000000000600f0b8112158015610d3c57506f7fffffffffffffffffffffffffffffff600f0b8113155b610d4557600080fd5b8091505092915050565b60008082600f0b1215610d6157600080fd5b604082600f0b901d9050919050565b6000808203610d7e57600080fd5b600080841215610d9357836000039350600190505b6000831215610da757826000039250801590505b6000610db38585610e32565b90508115610df7576f80000000000000000000000000000000816fffffffffffffffffffffffffffffffff161115610dea57600080fd5b8060000392505050610e2c565b6f7fffffffffffffffffffffffffffffff816fffffffffffffffffffffffffffffffff161115610e2657600080fd5b80925050505b92915050565b6000808203610e4057600080fd5b600077ffffffffffffffffffffffffffffffffffffffffffffffff8411610e7d5782604085901b81610e7557610e74611731565b5b049050610fe6565b600060c09050600060c086901c90506401000000008110610ea657602081901c90506020820191505b620100008110610ebe57601081901c90506010820191505b6101008110610ed557600881901c90506008820191505b60108110610eeb57600481901c90506004820191505b60048110610f0157600281901c90506002820191505b60028110610f10576001820191505b600160bf830360018703901c018260ff0387901b81610f3257610f31611731565b5b0492506fffffffffffffffffffffffffffffffff831115610f5257600080fd5b6000608086901c8402905060006fffffffffffffffffffffffffffffffff871685029050600060c089901c9050600060408a901b905082811015610f97576001820391505b8281039050608084901b925082811015610fb2576001820391505b8281039050608084901c8214610fc9576001610fdb565b888181610fd957610fd8611731565b5b045b870196505050505050505b6fffffffffffffffffffffffffffffffff81111561100357600080fd5b8091505092915050565b6040518060400160405280600290602082028036833780820191505090505090565b60405180608001604052806004905b61104661105c565b81526020019060019003908161103e5790505090565b6040518060400160405280600290602082028036833780820191505090505090565b600080fd5b600063ffffffff82169050919050565b61109c81611083565b81146110a757600080fd5b50565b6000813590506110b981611093565b92915050565b600080600080608085870312156110d9576110d861107e565b5b60006110e7878288016110aa565b94505060206110f8878288016110aa565b9350506040611109878288016110aa565b925050606061111a878288016110aa565b91505092959194509250565b6000819050919050565b61113981611126565b82525050565b60006020820190506111546000830184611130565b92915050565b600081600f0b9050919050565b6111708161115a565b82525050565b600060208201905061118b6000830184611167565b92915050565b600060029050919050565b600081905092915050565b6000819050919050565b60008160010b9050919050565b6111c7816111b1565b82525050565b60006111d983836111be565b60208301905092915050565b6000602082019050919050565b6111fb81611191565b611205818461119c565b9250611210826111a7565b8060005b8381101561124157815161122887826111cd565b9650611233836111e5565b925050600181019050611214565b505050505050565b600060408201905061125e60008301846111f2565b92915050565b600080600080600060a086880312156112805761127f61107e565b5b600061128e888289016110aa565b955050602061129f888289016110aa565b94505060406112b0888289016110aa565b93505060606112c1888289016110aa565b92505060806112d2888289016110aa565b9150509295509295909350565b600067ffffffffffffffff82169050919050565b6112fc816112df565b82525050565b600060208201905061131760008301846112f3565b92915050565b6000806000606084860312156113365761133561107e565b5b6000611344868287016110aa565b9350506020611355868287016110aa565b9250506040611366868287016110aa565b9150509250925092565b600060049050919050565b600081905092915050565b6000819050919050565b600060029050919050565b600081905092915050565b6000819050919050565b6113b981611083565b82525050565b60006113cb83836113b0565b60208301905092915050565b6000602082019050919050565b6113ed81611390565b6113f7818461139b565b9250611402826113a6565b8060005b8381101561143357815161141a87826113bf565b9650611425836113d7565b925050600181019050611406565b505050505050565b600061144783836113e4565b60408301905092915050565b6000602082019050919050565b61146981611370565b611473818461137b565b925061147e82611386565b8060005b838110156114af578151611496878261143b565b96506114a183611453565b925050600181019050611482565b505050505050565b6000610100820190506114cd6000830184611460565b92915050565b6114dc8161115a565b81146114e757600080fd5b50565b6000813590506114f9816114d3565b92915050565b6000602082840312156115155761151461107e565b5b6000611523848285016114ea565b91505092915050565b7f4e487b7100000000000000000000000000000000000000000000000000000000600052601160045260246000fd5b60008160011c9050919050565b6000808291508390505b60018511156115b25780860481111561158e5761158d61152c565b5b600185161561159d5780820291505b80810290506115ab8561155b565b9450611572565b94509492505050565b6000826115cb5760019050611687565b816115d95760009050611687565b81600181146115ef57600281146115f957611628565b6001915050611687565b60ff84111561160b5761160a61152c565b5b8360020a9150848211156116225761162161152c565b5b50611687565b5060208310610133831016604e8410600b841016171561165d5782820a9050838111156116585761165761152c565b5b611687565b61166a8484846001611568565b925090508184048111156116815761168061152c565b5b81810290505b9392505050565b600060ff82169050919050565b60006116a682611126565b91506116b18361168e565b92506116de7fffffffffffffffffffffffffffffffffffffffffffffffffffffffffffffffff84846115bb565b905092915050565b60006116f182611083565b91506116fc83611083565b925082820261170a81611083565b915080821461171c5761171b61152c565b5b5092915050565b600061ffff82169050919050565b7f4e487b7100000000000000000000000000000000000000000000000000000000600052601260045260246000fd5b600061176b82611723565b915061177683611723565b92508261178657611785611731565b5b828204905092915050565b7f4e487b7100000000000000000000000000000000000000000000000000000000600052603260045260246000fd5b60008160030b9050919050565b60006117d8826117c0565b91506117e3836117c0565b92508282039050637fffffff81137fffffffffffffffffffffffffffffffffffffffffffffffffffffffff80000000821217156118235761182261152c565b5b92915050565b60008160070b9050919050565b600061184182611829565b915061184c83611829565b925082820261185a81611829565b915080821461186c5761186b61152c565b5b5092915050565b600061187e82611829565b915061188983611829565b925082820190507fffffffffffffffffffffffffffffffffffffffffffffffff80000000000000008112677fffffffffffffff821317156118cd576118cc61152c565b5b92915050565b60006118de8261115a565b91506118e98361115a565b92508282026118f78161115a565b91508082146119095761190861152c565b5b5092915050565b600061191b8261115a565b91506119268361115a565b925082820190507fffffffffffffffffffffffffffffffff8000000000000000000000000000000081126f7fffffffffffffffffffffffffffffff821317156119725761197161152c565b5b92915050565b60008260008114611990576001811461199a576119a3565b6001915050611a5f565b82915050611a5f565b50816119b25760009050611a5f565b6001905060008213600181146119cf57600081146119e7576119fb565b8286048311156119e2576119e161152c565b5b6119fb565b8286058312156119fa576119f961152c565b5b5b506001831615611a09578190505b8182029150611a178361155b565b9250611a2585848484611568565b925090508185048111600082131615611a4157611a4061152c565b5b8184058112600082121615611a5957611a5861152c565b5b81810290505b949350505050565b6000819050919050565b6000611a7c82611a67565b9150611a878361168e565b9250611ad57f7fffffffffffffffffffffffffffffffffffffffffffffffffffffffffffffff7f80000000000000000000000000000000000000000000000000000000000000008585611978565b905092915050565b6000611ae882611a67565b9150611af383611a67565b9250828202611b0181611a67565b91507f80000000000000000000000000000000000000000000000000000000000000008414600084121615611b3957611b3861152c565b5b8282058414831517611b4e57611b4d61152c565b5b5092915050565b60008160e01b9050919050565b6000611b6d82611b55565b9050919050565b611b85611b8082611083565b611b62565b82525050565b6000611b978287611b74565b600482019150611ba78286611b74565b600482019150611bb78285611b74565b600482019150611bc78284611b74565b60048201915081905095945050505050565b6000611be482611126565b9150611bef83611126565b925082611bff57611bfe611731565b5b828206905092915050565b6000611c1582611083565b9150611c2083611083565b9250828203905063ffffffff811115611c3c57611c3b61152c565b5b92915050565b6000611c4d826112df565b9150611c58836112df565b9250828202611c66816112df565b9150808214611c7857611c7761152c565b5b5092915050565b6000611c8a82611083565b9150611c9583611083565b925082611ca557611ca4611731565b5b828204905092915050565b6000611cbb82611083565b9150611cc683611083565b9250828201905063ffffffff811115611ce257611ce161152c565b5b9291505056fea2646970667358221220d81605b64aa96a83ce1b8cbdb5b36a973a4b879a8c104e60cee6ed2f20624bca64736f6c634300081c0033",
  "devdoc": {
    "kind": "dev",
    "methods": {},
    "version": 1
  },
  "userdoc": {
    "kind": "user",
    "methods": {},
    "version": 1
  },
  "storageLayout": {
    "storage": [],
    "types": null
  }
}