{
  "address": "0x176AC0759D233c1Be702Fc451391C7eBae2b5991",
  "abi": [
    {
      "inputs": [],
      "name": "addresses",
      "outputs": [
        {
          "internalType": "address[]",
          "name": "",
          "type": "address[]"
        }
      ],
      "stateMutability": "view",
      "type": "function"
    },
    {
      "inputs": [],
      "name": "authors",
      "outputs": [
        {
          "internalType": "string[]",
          "name": "",
          "type": "string[]"
        }
      ],
      "stateMutability": "view",
      "type": "function"
    },
    {
      "inputs": [],
      "name": "text",
      "outputs": [
        {
          "internalType": "string",
          "name": "",
          "type": "string"
        }
      ],
      "stateMutability": "view",
      "type": "function"
    },
    {
      "inputs": [],
      "name": "title",
      "outputs": [
        {
          "internalType": "string",
          "name": "",
          "type": "string"
        }
      ],
      "stateMutability": "pure",
      "type": "function"
    },
    {
      "inputs": [],
      "name": "urls",
      "outputs": [
        {
          "internalType": "string[]",
          "name": "urls",
          "type": "string[]"
        }
      ],
      "stateMutability": "view",
      "type": "function"
    }
  ],
  "transactionHash": "0xf1c63cb10171574dd2f97670bdf8a0f9f932bfbe3f6cad63519697974fd167e0",
  "args": [],
  "numDeployments": 1,
  "solcInputHash": "f3fc584818beee76494d2d247bd727a7",
  "bytecode": "0x6080604052348015600f57600080fd5b506106178061001f6000396000f3fe608060405234801561001057600080fd5b50600436106100575760003560e01c80631f1bd6921461005c57806328411ae11461007a5780632c73dc4a146100985780634a79d50c146100b6578063da0321cd146100d4575b600080fd5b6100646100f2565b6040516100719190610321565b60405180910390f35b6100826100f7565b60405161008f919061044f565b60405180910390f35b6100a06101a8565b6040516100ad919061044f565b60405180910390f35b6100be6101ad565b6040516100cb9190610321565b60405180910390f35b6100dc6101ea565b6040516100e99190610561565b60405180910390f35b606090565b60606000600167ffffffffffffffff81111561011657610115610583565b5b60405190808252806020026020018201604052801561014957816020015b60608152602001906001900390816101345790505b5090506040518060400160405280600781526020017f30786861696b750000000000000000000000000000000000000000000000000081525081600081518110610196576101956105b2565b5b60200260200101819052508091505090565b606090565b60606040518060400160405280601681526020017f556e7469746c65642028506c616365686f6c6465722900000000000000000000815250905090565b60606000600167ffffffffffffffff81111561020957610208610583565b5b6040519080825280602002602001820160405280156102375781602001602082028036833780820191505090505b5090506000816000815181106102505761024f6105b2565b5b602002602001019073ffffffffffffffffffffffffffffffffffffffff16908173ffffffffffffffffffffffffffffffffffffffff16815250508091505090565b600081519050919050565b600082825260208201905092915050565b60005b838110156102cb5780820151818401526020810190506102b0565b60008484015250505050565b6000601f19601f8301169050919050565b60006102f382610291565b6102fd818561029c565b935061030d8185602086016102ad565b610316816102d7565b840191505092915050565b6000602082019050818103600083015261033b81846102e8565b905092915050565b600081519050919050565b600082825260208201905092915050565b6000819050602082019050919050565b600082825260208201905092915050565b600061038b82610291565b610395818561036f565b93506103a58185602086016102ad565b6103ae816102d7565b840191505092915050565b60006103c58383610380565b905092915050565b6000602082019050919050565b60006103e582610343565b6103ef818561034e565b9350836020820285016104018561035f565b8060005b8581101561043d578484038952815161041e85826103b9565b9450610429836103cd565b925060208a01995050600181019050610405565b50829750879550505050505092915050565b6000602082019050818103600083015261046981846103da565b905092915050565b600081519050919050565b600082825260208201905092915050565b6000819050602082019050919050565b600073ffffffffffffffffffffffffffffffffffffffff82169050919050565b60006104c88261049d565b9050919050565b6104d8816104bd565b82525050565b60006104ea83836104cf565b60208301905092915050565b6000602082019050919050565b600061050e82610471565b610518818561047c565b93506105238361048d565b8060005b8381101561055457815161053b88826104de565b9750610546836104f6565b925050600181019050610527565b5085935050505092915050565b6000602082019050818103600083015261057b8184610503565b905092915050565b7f4e487b7100000000000000000000000000000000000000000000000000000000600052604160045260246000fd5b7f4e487b7100000000000000000000000000000000000000000000000000000000600052603260045260246000fdfea264697066735822122021523e79cfa35c1ab98bc1066673c7c1aa068ea6cc10b12387bea08a8e859e9564736f6c634300081b0033",
  "devdoc": {
    "kind": "dev",
    "methods": {},
    "version": 1
  },
  "userdoc": {
    "kind": "user",
    "methods": {},
    "version": 1
  },
  "storageLayout": {
    "storage": [],
    "types": null
  }
}