{
  "address": "0x30051B765528C53F6e9aed53e2e872deB1e8f2d6",
  "abi": [
    {
      "inputs": [],
      "stateMutability": "nonpayable",
      "type": "constructor"
    },
    {
      "inputs": [
        {
          "internalType": "address",
          "name": "owner",
          "type": "address"
        }
      ],
      "name": "OwnableInvalidOwner",
      "type": "error"
    },
    {
      "inputs": [
        {
          "internalType": "address",
          "name": "account",
          "type": "address"
        }
      ],
      "name": "OwnableUnauthorizedAccount",
      "type": "error"
    },
    {
      "anonymous": false,
      "inputs": [
        {
          "indexed": true,
          "internalType": "address",
          "name": "previousOwner",
          "type": "address"
        },
        {
          "indexed": true,
          "internalType": "address",
          "name": "newOwner",
          "type": "address"
        }
      ],
      "name": "OwnershipTransferred",
      "type": "event"
    },
    {
      "inputs": [],
      "name": "addresses",
      "outputs": [
        {
          "internalType": "address[]",
          "name": "",
          "type": "address[]"
        }
      ],
      "stateMutability": "view",
      "type": "function"
    },
    {
      "inputs": [],
      "name": "authors",
      "outputs": [
        {
          "internalType": "string[]",
          "name": "",
          "type": "string[]"
        }
      ],
      "stateMutability": "pure",
      "type": "function"
    },
    {
      "inputs": [
        {
          "internalType": "address payable",
          "name": "newGardenAddress",
          "type": "address"
        }
      ],
      "name": "configure",
      "outputs": [],
      "stateMutability": "nonpayable",
      "type": "function"
    },
    {
      "inputs": [
        {
          "internalType": "uint256",
          "name": "workIndex",
          "type": "uint256"
        },
        {
          "internalType": "uint8",
          "name": "critique",
          "type": "uint8"
        }
      ],
      "name": "critiqueWork",
      "outputs": [],
      "stateMutability": "nonpayable",
      "type": "function"
    },
    {
      "inputs": [],
      "name": "owner",
      "outputs": [
        {
          "internalType": "address",
          "name": "",
          "type": "address"
        }
      ],
      "stateMutability": "view",
      "type": "function"
    },
    {
      "inputs": [],
      "name": "renounceOwnership",
      "outputs": [],
      "stateMutability": "nonpayable",
      "type": "function"
    },
    {
      "inputs": [],
      "name": "text",
      "outputs": [
        {
          "internalType": "string",
          "name": "",
          "type": "string"
        }
      ],
      "stateMutability": "view",
      "type": "function"
    },
    {
      "inputs": [],
      "name": "title",
      "outputs": [
        {
          "internalType": "string",
          "name": "",
          "type": "string"
        }
      ],
      "stateMutability": "pure",
      "type": "function"
    },
    {
      "inputs": [
        {
          "internalType": "address",
          "name": "newOwner",
          "type": "address"
        }
      ],
      "name": "transferOwnership",
      "outputs": [],
      "stateMutability": "nonpayable",
      "type": "function"
    },
    {
      "inputs": [],
      "name": "urls",
      "outputs": [
        {
          "internalType": "string[]",
          "name": "",
          "type": "string[]"
        }
      ],
      "stateMutability": "view",
      "type": "function"
    }
  ],
  "transactionHash": "0x141e59e5eb8e971b926bf35e157204947c04144d34f41a3542e91b397a5c369b",
  "args": [],
  "numDeployments": 1,
  "solcInputHash": "3f6ba811f11a509f36bd1d8f26577234",
  "bytecode": "0x60806040526040518061020001604052806040518060400160405280600f81526020017f746f74616c6c7920617765736f6d65000000000000000000000000000000000081525081526020016040518060400160405280601281526020017f656e746972656c7920657863656c6c656e74000000000000000000000000000081525081526020016040518060400160405280601a81526020017f7472616e7363656e64656e746c792066617363696e6174696e6700000000000081525081526020016040518060400160405280601581526020017f636f6d706c6574656c7920696e7472696775696e67000000000000000000000081525081526020016040518060400160405280600d81526020017f646565706c79206d6f76696e670000000000000000000000000000000000000081525081526020016040518060400160405280601481526020017f70726f666f756e646c7920616666656374696e6700000000000000000000000081525081526020016040518060400160405280600e81526020017f67726f756e64627265616b696e6700000000000000000000000000000000000081525081526020016040518060400160405280600781526020017f736f20637574650000000000000000000000000000000000000000000000000081525081526020016040518060400160405280600c81526020017f746f7465732061646f726273000000000000000000000000000000000000000081525081526020016040518060400160405280601381526020017f737472696b696e676c792070726f666f756e640000000000000000000000000081525081526020016040518060400160405280601481526020017f747269756d7068616e746c7920736b696c66756c00000000000000000000000081525081526020016040518060400160405280600c81526020017f6120726576656c6174696f6e000000000000000000000000000000000000000081525081526020016040518060400160405280601581526020017f756e69676e6f7261626c79206272696c6c69616e74000000000000000000000081525081526020016040518060400160405280601181526020017f74686f756768742070726f766f6b696e6700000000000000000000000000000081525081526020016040518060400160405280601a81526020017f696e74656c6c65637475616c6c79207374696d756c6174696e6700000000000081525081526020016040518060400160405280601481526020017f76697375616c6c79207374696d756c6174696e6700000000000000000000000081525081525060019060106103ce929190610528565b503480156103db57600080fd5b5033600073ffffffffffffffffffffffffffffffffffffffff168173ffffffffffffffffffffffffffffffffffffffff160361044f5760006040517f1e4fbdf70000000000000000000000000000000000000000000000000000000081526004016104469190610636565b60405180910390fd5b61045e8161046460201b60201c565b50610973565b60008060009054906101000a900473ffffffffffffffffffffffffffffffffffffffff169050816000806101000a81548173ffffffffffffffffffffffffffffffffffffffff021916908373ffffffffffffffffffffffffffffffffffffffff1602179055508173ffffffffffffffffffffffffffffffffffffffff168173ffffffffffffffffffffffffffffffffffffffff167f8be0079c531659141344cd1fd0a4f28419497f9722a3daafe3b4186f6b6457e060405160405180910390a35050565b8260108101928215610563579160200282015b8281111561056257825182908161055291906108a1565b509160200191906001019061053b565b5b5090506105709190610574565b5090565b5b80821115610594576000818161058b9190610598565b50600101610575565b5090565b5080546105a4906106ba565b6000825580601f106105b657506105d5565b601f0160209004906000526020600020908101906105d491906105d8565b5b50565b5b808211156105f15760008160009055506001016105d9565b5090565b600073ffffffffffffffffffffffffffffffffffffffff82169050919050565b6000610620826105f5565b9050919050565b61063081610615565b82525050565b600060208201905061064b6000830184610627565b92915050565b600081519050919050565b7f4e487b7100000000000000000000000000000000000000000000000000000000600052604160045260246000fd5b7f4e487b7100000000000000000000000000000000000000000000000000000000600052602260045260246000fd5b600060028204905060018216806106d257607f821691505b6020821081036106e5576106e461068b565b5b50919050565b60008190508160005260206000209050919050565b60006020601f8301049050919050565b600082821b905092915050565b60006008830261074d7fffffffffffffffffffffffffffffffffffffffffffffffffffffffffffffffff82610710565b6107578683610710565b95508019841693508086168417925050509392505050565b6000819050919050565b6000819050919050565b600061079e6107996107948461076f565b610779565b61076f565b9050919050565b6000819050919050565b6107b883610783565b6107cc6107c4826107a5565b84845461071d565b825550505050565b600090565b6107e16107d4565b6107ec8184846107af565b505050565b5b81811015610810576108056000826107d9565b6001810190506107f2565b5050565b601f82111561085557610826816106eb565b61082f84610700565b8101602085101561083e578190505b61085261084a85610700565b8301826107f1565b50505b505050565b600082821c905092915050565b60006108786000198460080261085a565b1980831691505092915050565b60006108918383610867565b9150826002028217905092915050565b6108aa82610651565b67ffffffffffffffff8111156108c3576108c261065c565b5b6108cd82546106ba565b6108d8828285610814565b600060209050601f83116001811461090b57600084156108f9578287015190505b6109038582610885565b86555061096b565b601f198416610919866106eb565b60005b828110156109415784890151825560018201915060208501945060208101905061091c565b8683101561095e578489015161095a601f891682610867565b8355505b6001600288020188555050505b505050505050565b611e68806109826000396000f3fe608060405234801561001057600080fd5b506004361061009e5760003560e01c8063715018a611610066578063715018a61461013757806375cb2672146101415780638da5cb5b1461015d578063da0321cd1461017b578063f2fde38b146101995761009e565b8063061b65b5146100a35780631f1bd692146100bf57806328411ae1146100dd5780632c73dc4a146100fb5780634a79d50c14610119575b600080fd5b6100bd60048036038101906100b891906110c0565b6101b5565b005b6100c761044a565b6040516100d49190611190565b60405180910390f35b6100e5610459565b6040516100f291906112be565b60405180910390f35b61010361050a565b60405161011091906112be565b60405180910390f35b61012161050f565b60405161012e9190611190565b60405180910390f35b61013f610534565b005b61015b6004803603810190610156919061133e565b610548565b005b610165610804565b604051610172919061138c565b60405180910390f35b61018361082d565b6040516101909190611465565b60405180910390f35b6101b360048036038101906101ae91906114b3565b6108d3565b005b6000601260009054906101000a900473ffffffffffffffffffffffffffffffffffffffff16905060008173ffffffffffffffffffffffffffffffffffffffff166355735c5e6040518163ffffffff1660e01b8152600401600060405180830381865afa158015610229573d6000803e3d6000fd5b505050506040513d6000823e3d601f19601f82011682018060405250810190610252919061163d565b905080518410610297576040517f08c379a000000000000000000000000000000000000000000000000000000000815260040161028e906116f8565b60405180910390fd5b60008185815181106102ac576102ab611718565b5b60200260200101519050600073ffffffffffffffffffffffffffffffffffffffff168173ffffffffffffffffffffffffffffffffffffffff1603610325576040517f08c379a000000000000000000000000000000000000000000000000000000000815260040161031c906116f8565b60405180910390fd5b60108460ff161061036b576040517f08c379a0000000000000000000000000000000000000000000000000000000008152600401610362906117b9565b60405180910390fd5b60405180604001604052803373ffffffffffffffffffffffffffffffffffffffff1681526020018560ff16815250601160008373ffffffffffffffffffffffffffffffffffffffff1673ffffffffffffffffffffffffffffffffffffffff16815260200190815260200160002060008201518160000160006101000a81548173ffffffffffffffffffffffffffffffffffffffff021916908373ffffffffffffffffffffffffffffffffffffffff16021790555060208201518160000160146101000a81548160ff021916908360ff1602179055509050505050505050565b6060610454610959565b905090565b60606000600167ffffffffffffffff811115610478576104776114e5565b5b6040519080825280602002602001820160405280156104ab57816020015b60608152602001906001900390816104965790505b5090506040518060400160405280601181526020017f52686561204d7965727320657420616c2e000000000000000000000000000000815250816000815181106104f8576104f7611718565b5b60200260200101819052508091505090565b606090565b6060604051602001610520906117ff565b604051602081830303815290604052905090565b61053c610b1a565b6105466000610ba1565b565b610550610b1a565b80601260006101000a81548173ffffffffffffffffffffffffffffffffffffffff021916908373ffffffffffffffffffffffffffffffffffffffff1602179055506000601260009054906101000a900473ffffffffffffffffffffffffffffffffffffffff169050600033905060008273ffffffffffffffffffffffffffffffffffffffff166355735c5e6040518163ffffffff1660e01b8152600401600060405180830381865afa15801561060a573d6000803e3d6000fd5b505050506040513d6000823e3d601f19601f82011682018060405250810190610633919061163d565b905060005b81518110156107fd57600073ffffffffffffffffffffffffffffffffffffffff16601160008484815181106106705761066f611718565b5b602002602001015173ffffffffffffffffffffffffffffffffffffffff1673ffffffffffffffffffffffffffffffffffffffff16815260200190815260200160002060000160009054906101000a900473ffffffffffffffffffffffffffffffffffffffff1673ffffffffffffffffffffffffffffffffffffffff16036107f05760405180604001604052808473ffffffffffffffffffffffffffffffffffffffff1681526020016010836107259190611847565b60ff168152506011600084848151811061074257610741611718565b5b602002602001015173ffffffffffffffffffffffffffffffffffffffff1673ffffffffffffffffffffffffffffffffffffffff16815260200190815260200160002060008201518160000160006101000a81548173ffffffffffffffffffffffffffffffffffffffff021916908373ffffffffffffffffffffffffffffffffffffffff16021790555060208201518160000160146101000a81548160ff021916908360ff1602179055509050505b8080600101915050610638565b5050505050565b60008060009054906101000a900473ffffffffffffffffffffffffffffffffffffffff16905090565b60606000600167ffffffffffffffff81111561084c5761084b6114e5565b5b60405190808252806020026020018201604052801561087a5781602001602082028036833780820191505090505b509050308160008151811061089257610891611718565b5b602002602001019073ffffffffffffffffffffffffffffffffffffffff16908173ffffffffffffffffffffffffffffffffffffffff16815250508091505090565b6108db610b1a565b600073ffffffffffffffffffffffffffffffffffffffff168173ffffffffffffffffffffffffffffffffffffffff160361094d5760006040517f1e4fbdf7000000000000000000000000000000000000000000000000000000008152600401610944919061138c565b60405180910390fd5b61095681610ba1565b50565b60606000601260009054906101000a900473ffffffffffffffffffffffffffffffffffffffff16905060008173ffffffffffffffffffffffffffffffffffffffff166355735c5e6040518163ffffffff1660e01b8152600401600060405180830381865afa1580156109cf573d6000803e3d6000fd5b505050506040513d6000823e3d601f19601f820116820180604052508101906109f8919061163d565b9050600060405180602001604052806000815250905060005b8251811015610b10576000838281518110610a2f57610a2e611718565b5b602002602001015190506000601160008373ffffffffffffffffffffffffffffffffffffffff1673ffffffffffffffffffffffffffffffffffffffff1681526020019081526020016000209050600073ffffffffffffffffffffffffffffffffffffffff168160000160009054906101000a900473ffffffffffffffffffffffffffffffffffffffff1673ffffffffffffffffffffffffffffffffffffffff1614610b015783610ade83610c65565b604051602001610aef9291906118b4565b60405160208183030381529060405293505b50508080600101915050610a11565b5080935050505090565b610b22610f12565b73ffffffffffffffffffffffffffffffffffffffff16610b40610804565b73ffffffffffffffffffffffffffffffffffffffff1614610b9f57610b63610f12565b6040517f118cdaa7000000000000000000000000000000000000000000000000000000008152600401610b96919061138c565b60405180910390fd5b565b60008060009054906101000a900473ffffffffffffffffffffffffffffffffffffffff169050816000806101000a81548173ffffffffffffffffffffffffffffffffffffffff021916908373ffffffffffffffffffffffffffffffffffffffff1602179055508173ffffffffffffffffffffffffffffffffffffffff168173ffffffffffffffffffffffffffffffffffffffff167f8be0079c531659141344cd1fd0a4f28419497f9722a3daafe3b4186f6b6457e060405160405180910390a35050565b606060008290506000601160008573ffffffffffffffffffffffffffffffffffffffff1673ffffffffffffffffffffffffffffffffffffffff1681526020019081526020016000206040518060400160405290816000820160009054906101000a900473ffffffffffffffffffffffffffffffffffffffff1673ffffffffffffffffffffffffffffffffffffffff1673ffffffffffffffffffffffffffffffffffffffff1681526020016000820160149054906101000a900460ff1660ff1660ff16815250509050606073014bC0E6BB84D9F3f83071715C0b1D432b4ee66C63f81e877583600001516040518263ffffffff1660e01b8152600401610d6a91906118e7565b600060405180830381865af4925050508015610da957506040513d6000823e3d601f19601f82011682018060405250810190610da691906119a8565b60015b610dc157610dba8260000151610f1a565b9050610dc6565b809150505b808373ffffffffffffffffffffffffffffffffffffffff16634a79d50c6040518163ffffffff1660e01b8152600401600060405180830381865afa158015610e12573d6000803e3d6000fd5b505050506040513d6000823e3d601f19601f82011682018060405250810190610e3b91906119a8565b8473ffffffffffffffffffffffffffffffffffffffff166328411ae16040518163ffffffff1660e01b8152600401600060405180830381865afa158015610e86573d6000803e3d6000fd5b505050506040513d6000823e3d601f19601f82011682018060405250810190610eaf9190611ad2565b600081518110610ec257610ec1611718565b5b60200260200101516001856020015160ff1660108110610ee557610ee4611718565b5b01604051602001610ef99493929190611db5565b6040516020818303038152906040529350505050919050565b600033905090565b6060610f2582610f94565b905060ff6000190460061b60228201816022026028822016608860f01b60005b600115610f645782811a82028182015260018101905060148103610f45575b50838351166000511660011c8351188352602083019250838351166020511660011c835118835250505050919050565b6060610f9f82610fba565b90506002815101613078825260028203915080825250919050565b60606040519050608081016040526f30313233343536373839616263646566600f526002810190506028815260208101600060288201528260601b925060005b60011561103657808101820184821a600f81165160018301538060041c5182536001830192506014830361102f575050611036565b5050610ffa565b5050919050565b6000604051905090565b600080fd5b600080fd5b6000819050919050565b61106481611051565b811461106f57600080fd5b50565b6000813590506110818161105b565b92915050565b600060ff82169050919050565b61109d81611087565b81146110a857600080fd5b50565b6000813590506110ba81611094565b92915050565b600080604083850312156110d7576110d6611047565b5b60006110e585828601611072565b92505060206110f6858286016110ab565b9150509250929050565b600081519050919050565b600082825260208201905092915050565b60005b8381101561113a57808201518184015260208101905061111f565b60008484015250505050565b6000601f19601f8301169050919050565b600061116282611100565b61116c818561110b565b935061117c81856020860161111c565b61118581611146565b840191505092915050565b600060208201905081810360008301526111aa8184611157565b905092915050565b600081519050919050565b600082825260208201905092915050565b6000819050602082019050919050565b600082825260208201905092915050565b60006111fa82611100565b61120481856111de565b935061121481856020860161111c565b61121d81611146565b840191505092915050565b600061123483836111ef565b905092915050565b6000602082019050919050565b6000611254826111b2565b61125e81856111bd565b935083602082028501611270856111ce565b8060005b858110156112ac578484038952815161128d8582611228565b94506112988361123c565b925060208a01995050600181019050611274565b50829750879550505050505092915050565b600060208201905081810360008301526112d88184611249565b905092915050565b600073ffffffffffffffffffffffffffffffffffffffff82169050919050565b600061130b826112e0565b9050919050565b61131b81611300565b811461132657600080fd5b50565b60008135905061133881611312565b92915050565b60006020828403121561135457611353611047565b5b600061136284828501611329565b91505092915050565b6000611376826112e0565b9050919050565b6113868161136b565b82525050565b60006020820190506113a1600083018461137d565b92915050565b600081519050919050565b600082825260208201905092915050565b6000819050602082019050919050565b6113dc8161136b565b82525050565b60006113ee83836113d3565b60208301905092915050565b6000602082019050919050565b6000611412826113a7565b61141c81856113b2565b9350611427836113c3565b8060005b8381101561145857815161143f88826113e2565b975061144a836113fa565b92505060018101905061142b565b5085935050505092915050565b6000602082019050818103600083015261147f8184611407565b905092915050565b6114908161136b565b811461149b57600080fd5b50565b6000813590506114ad81611487565b92915050565b6000602082840312156114c9576114c8611047565b5b60006114d78482850161149e565b91505092915050565b600080fd5b7f4e487b7100000000000000000000000000000000000000000000000000000000600052604160045260246000fd5b61151d82611146565b810181811067ffffffffffffffff8211171561153c5761153b6114e5565b5b80604052505050565b600061154f61103d565b905061155b8282611514565b919050565b600067ffffffffffffffff82111561157b5761157a6114e5565b5b602082029050602081019050919050565b600080fd5b6000815190506115a081611487565b92915050565b60006115b96115b484611560565b611545565b905080838252602082019050602084028301858111156115dc576115db61158c565b5b835b8181101561160557806115f18882611591565b8452602084019350506020810190506115de565b5050509392505050565b600082601f830112611624576116236114e0565b5b81516116348482602086016115a6565b91505092915050565b60006020828403121561165357611652611047565b5b600082015167ffffffffffffffff8111156116715761167061104c565b5b61167d8482850161160f565b91505092915050565b7f696e76616c696420776f726b2028776173207468652067617264656e2063686160008201527f6e6765643f290000000000000000000000000000000000000000000000000000602082015250565b60006116e260268361110b565b91506116ed82611686565b604082019050919050565b60006020820190508181036000830152611711816116d5565b9050919050565b7f4e487b7100000000000000000000000000000000000000000000000000000000600052603260045260246000fd5b7f696e76616c696420637269746963616c206f70696e696f6e2028696e6469636560008201527f73207374617274206174207a65726f2900000000000000000000000000000000602082015250565b60006117a360308361110b565b91506117ae82611747565b604082019050919050565b600060208201905081810360008301526117d281611796565b9050919050565b7f4372697469717565206f6620546869732053686f770000000000000000000000815250565b600061180a826117d9565b601582019150819050919050565b7f4e487b7100000000000000000000000000000000000000000000000000000000600052601260045260246000fd5b600061185282611051565b915061185d83611051565b92508261186d5761186c611818565b5b828206905092915050565b600081905092915050565b600061188e82611100565b6118988185611878565b93506118a881856020860161111c565b80840191505092915050565b60006118c08285611883565b91506118cc8284611883565b91508190509392505050565b6118e18161136b565b82525050565b60006020820190506118fc60008301846118d8565b92915050565b600080fd5b600067ffffffffffffffff821115611922576119216114e5565b5b61192b82611146565b9050602081019050919050565b600061194b61194684611907565b611545565b90508281526020810184848401111561196757611966611902565b5b61197284828561111c565b509392505050565b600082601f83011261198f5761198e6114e0565b5b815161199f848260208601611938565b91505092915050565b6000602082840312156119be576119bd611047565b5b600082015167ffffffffffffffff8111156119dc576119db61104c565b5b6119e88482850161197a565b91505092915050565b600067ffffffffffffffff821115611a0c57611a0b6114e5565b5b602082029050602081019050919050565b6000611a30611a2b846119f1565b611545565b90508083825260208201905060208402830185811115611a5357611a5261158c565b5b835b81811015611a9a57805167ffffffffffffffff811115611a7857611a776114e0565b5b808601611a85898261197a565b85526020850194505050602081019050611a55565b5050509392505050565b600082601f830112611ab957611ab86114e0565b5b8151611ac9848260208601611a1d565b91505092915050565b600060208284031215611ae857611ae7611047565b5b600082015167ffffffffffffffff811115611b0657611b0561104c565b5b611b1284828501611aa4565b91505092915050565b7f3c703e3c7370616e20636c6173733d2261646472657373223e00000000000000815250565b7f3c2f7370616e3e207468696e6b732074686174203c693e3c7370616e2073747960008201527f6c653d2277686974652d73706163653a206e6f777261703b223e000000000000602082015250565b6000611b9d603a83611878565b9150611ba882611b41565b603a82019050919050565b7f3c2f7370616e3e3c2f693e203c7370616e207374796c653d2277686974652d7360008201527f706163653a206e6f777261703b223e6279200000000000000000000000000000602082015250565b6000611c0f603283611878565b9150611c1a82611bb3565b603282019050919050565b7f3c2f7370616e3e206973203c7370616e207374796c653d2277686974652d737060008201527f6163653a206e6f777261703b223e000000000000000000000000000000000000602082015250565b6000611c81602e83611878565b9150611c8c82611c25565b602e82019050919050565b7f4e487b7100000000000000000000000000000000000000000000000000000000600052602260045260246000fd5b60006002820490506001821680611cde57607f821691505b602082108103611cf157611cf0611c97565b5b50919050565b60008190508160005260206000209050919050565b60008154611d1981611cc6565b611d238186611878565b94506001821660008114611d3e5760018114611d5357611d86565b60ff1983168652811515820286019350611d86565b611d5c85611cf7565b60005b83811015611d7e57815481890152600182019150602081019050611d5f565b838801955050505b50505092915050565b7f2e3c2f7370616e3e3c2f703e0a00000000000000000000000000000000000000815250565b6000611dc082611b1b565b601982019150611dd08287611883565b9150611ddb82611b90565b9150611de78286611883565b9150611df282611c02565b9150611dfe8285611883565b9150611e0982611c74565b9150611e158284611d0c565b9150611e2082611d8f565b600d820191508190509594505050505056fea26469706673582212205431151536e0be03fe09e09038d8f0597560efc74ca7ae61693bce652d36af0a64736f6c634300081c0033",
  "deployedBytecode": "0x608060405234801561001057600080fd5b506004361061009e5760003560e01c8063715018a611610066578063715018a61461013757806375cb2672146101415780638da5cb5b1461015d578063da0321cd1461017b578063f2fde38b146101995761009e565b8063061b65b5146100a35780631f1bd692146100bf57806328411ae1146100dd5780632c73dc4a146100fb5780634a79d50c14610119575b600080fd5b6100bd60048036038101906100b891906110c0565b6101b5565b005b6100c761044a565b6040516100d49190611190565b60405180910390f35b6100e5610459565b6040516100f291906112be565b60405180910390f35b61010361050a565b60405161011091906112be565b60405180910390f35b61012161050f565b60405161012e9190611190565b60405180910390f35b61013f610534565b005b61015b6004803603810190610156919061133e565b610548565b005b610165610804565b604051610172919061138c565b60405180910390f35b61018361082d565b6040516101909190611465565b60405180910390f35b6101b360048036038101906101ae91906114b3565b6108d3565b005b6000601260009054906101000a900473ffffffffffffffffffffffffffffffffffffffff16905060008173ffffffffffffffffffffffffffffffffffffffff166355735c5e6040518163ffffffff1660e01b8152600401600060405180830381865afa158015610229573d6000803e3d6000fd5b505050506040513d6000823e3d601f19601f82011682018060405250810190610252919061163d565b905080518410610297576040517f08c379a000000000000000000000000000000000000000000000000000000000815260040161028e906116f8565b60405180910390fd5b60008185815181106102ac576102ab611718565b5b60200260200101519050600073ffffffffffffffffffffffffffffffffffffffff168173ffffffffffffffffffffffffffffffffffffffff1603610325576040517f08c379a000000000000000000000000000000000000000000000000000000000815260040161031c906116f8565b60405180910390fd5b60108460ff161061036b576040517f08c379a0000000000000000000000000000000000000000000000000000000008152600401610362906117b9565b60405180910390fd5b60405180604001604052803373ffffffffffffffffffffffffffffffffffffffff1681526020018560ff16815250601160008373ffffffffffffffffffffffffffffffffffffffff1673ffffffffffffffffffffffffffffffffffffffff16815260200190815260200160002060008201518160000160006101000a81548173ffffffffffffffffffffffffffffffffffffffff021916908373ffffffffffffffffffffffffffffffffffffffff16021790555060208201518160000160146101000a81548160ff021916908360ff1602179055509050505050505050565b6060610454610959565b905090565b60606000600167ffffffffffffffff811115610478576104776114e5565b5b6040519080825280602002602001820160405280156104ab57816020015b60608152602001906001900390816104965790505b5090506040518060400160405280601181526020017f52686561204d7965727320657420616c2e000000000000000000000000000000815250816000815181106104f8576104f7611718565b5b60200260200101819052508091505090565b606090565b6060604051602001610520906117ff565b604051602081830303815290604052905090565b61053c610b1a565b6105466000610ba1565b565b610550610b1a565b80601260006101000a81548173ffffffffffffffffffffffffffffffffffffffff021916908373ffffffffffffffffffffffffffffffffffffffff1602179055506000601260009054906101000a900473ffffffffffffffffffffffffffffffffffffffff169050600033905060008273ffffffffffffffffffffffffffffffffffffffff166355735c5e6040518163ffffffff1660e01b8152600401600060405180830381865afa15801561060a573d6000803e3d6000fd5b505050506040513d6000823e3d601f19601f82011682018060405250810190610633919061163d565b905060005b81518110156107fd57600073ffffffffffffffffffffffffffffffffffffffff16601160008484815181106106705761066f611718565b5b602002602001015173ffffffffffffffffffffffffffffffffffffffff1673ffffffffffffffffffffffffffffffffffffffff16815260200190815260200160002060000160009054906101000a900473ffffffffffffffffffffffffffffffffffffffff1673ffffffffffffffffffffffffffffffffffffffff16036107f05760405180604001604052808473ffffffffffffffffffffffffffffffffffffffff1681526020016010836107259190611847565b60ff168152506011600084848151811061074257610741611718565b5b602002602001015173ffffffffffffffffffffffffffffffffffffffff1673ffffffffffffffffffffffffffffffffffffffff16815260200190815260200160002060008201518160000160006101000a81548173ffffffffffffffffffffffffffffffffffffffff021916908373ffffffffffffffffffffffffffffffffffffffff16021790555060208201518160000160146101000a81548160ff021916908360ff1602179055509050505b8080600101915050610638565b5050505050565b60008060009054906101000a900473ffffffffffffffffffffffffffffffffffffffff16905090565b60606000600167ffffffffffffffff81111561084c5761084b6114e5565b5b60405190808252806020026020018201604052801561087a5781602001602082028036833780820191505090505b509050308160008151811061089257610891611718565b5b602002602001019073ffffffffffffffffffffffffffffffffffffffff16908173ffffffffffffffffffffffffffffffffffffffff16815250508091505090565b6108db610b1a565b600073ffffffffffffffffffffffffffffffffffffffff168173ffffffffffffffffffffffffffffffffffffffff160361094d5760006040517f1e4fbdf7000000000000000000000000000000000000000000000000000000008152600401610944919061138c565b60405180910390fd5b61095681610ba1565b50565b60606000601260009054906101000a900473ffffffffffffffffffffffffffffffffffffffff16905060008173ffffffffffffffffffffffffffffffffffffffff166355735c5e6040518163ffffffff1660e01b8152600401600060405180830381865afa1580156109cf573d6000803e3d6000fd5b505050506040513d6000823e3d601f19601f820116820180604052508101906109f8919061163d565b9050600060405180602001604052806000815250905060005b8251811015610b10576000838281518110610a2f57610a2e611718565b5b602002602001015190506000601160008373ffffffffffffffffffffffffffffffffffffffff1673ffffffffffffffffffffffffffffffffffffffff1681526020019081526020016000209050600073ffffffffffffffffffffffffffffffffffffffff168160000160009054906101000a900473ffffffffffffffffffffffffffffffffffffffff1673ffffffffffffffffffffffffffffffffffffffff1614610b015783610ade83610c65565b604051602001610aef9291906118b4565b60405160208183030381529060405293505b50508080600101915050610a11565b5080935050505090565b610b22610f12565b73ffffffffffffffffffffffffffffffffffffffff16610b40610804565b73ffffffffffffffffffffffffffffffffffffffff1614610b9f57610b63610f12565b6040517f118cdaa7000000000000000000000000000000000000000000000000000000008152600401610b96919061138c565b60405180910390fd5b565b60008060009054906101000a900473ffffffffffffffffffffffffffffffffffffffff169050816000806101000a81548173ffffffffffffffffffffffffffffffffffffffff021916908373ffffffffffffffffffffffffffffffffffffffff1602179055508173ffffffffffffffffffffffffffffffffffffffff168173ffffffffffffffffffffffffffffffffffffffff167f8be0079c531659141344cd1fd0a4f28419497f9722a3daafe3b4186f6b6457e060405160405180910390a35050565b606060008290506000601160008573ffffffffffffffffffffffffffffffffffffffff1673ffffffffffffffffffffffffffffffffffffffff1681526020019081526020016000206040518060400160405290816000820160009054906101000a900473ffffffffffffffffffffffffffffffffffffffff1673ffffffffffffffffffffffffffffffffffffffff1673ffffffffffffffffffffffffffffffffffffffff1681526020016000820160149054906101000a900460ff1660ff1660ff16815250509050606073__$655cb50d0ad591db5cd566859be4f15046$__63f81e877583600001516040518263ffffffff1660e01b8152600401610d6a91906118e7565b600060405180830381865af4925050508015610da957506040513d6000823e3d601f19601f82011682018060405250810190610da691906119a8565b60015b610dc157610dba8260000151610f1a565b9050610dc6565b809150505b808373ffffffffffffffffffffffffffffffffffffffff16634a79d50c6040518163ffffffff1660e01b8152600401600060405180830381865afa158015610e12573d6000803e3d6000fd5b505050506040513d6000823e3d601f19601f82011682018060405250810190610e3b91906119a8565b8473ffffffffffffffffffffffffffffffffffffffff166328411ae16040518163ffffffff1660e01b8152600401600060405180830381865afa158015610e86573d6000803e3d6000fd5b505050506040513d6000823e3d601f19601f82011682018060405250810190610eaf9190611ad2565b600081518110610ec257610ec1611718565b5b60200260200101516001856020015160ff1660108110610ee557610ee4611718565b5b01604051602001610ef99493929190611db5565b6040516020818303038152906040529350505050919050565b600033905090565b6060610f2582610f94565b905060ff6000190460061b60228201816022026028822016608860f01b60005b600115610f645782811a82028182015260018101905060148103610f45575b50838351166000511660011c8351188352602083019250838351166020511660011c835118835250505050919050565b6060610f9f82610fba565b90506002815101613078825260028203915080825250919050565b60606040519050608081016040526f30313233343536373839616263646566600f526002810190506028815260208101600060288201528260601b925060005b60011561103657808101820184821a600f81165160018301538060041c5182536001830192506014830361102f575050611036565b5050610ffa565b5050919050565b6000604051905090565b600080fd5b600080fd5b6000819050919050565b61106481611051565b811461106f57600080fd5b50565b6000813590506110818161105b565b92915050565b600060ff82169050919050565b61109d81611087565b81146110a857600080fd5b50565b6000813590506110ba81611094565b92915050565b600080604083850312156110d7576110d6611047565b5b60006110e585828601611072565b92505060206110f6858286016110ab565b9150509250929050565b600081519050919050565b600082825260208201905092915050565b60005b8381101561113a57808201518184015260208101905061111f565b60008484015250505050565b6000601f19601f8301169050919050565b600061116282611100565b61116c818561110b565b935061117c81856020860161111c565b61118581611146565b840191505092915050565b600060208201905081810360008301526111aa8184611157565b905092915050565b600081519050919050565b600082825260208201905092915050565b6000819050602082019050919050565b600082825260208201905092915050565b60006111fa82611100565b61120481856111de565b935061121481856020860161111c565b61121d81611146565b840191505092915050565b600061123483836111ef565b905092915050565b6000602082019050919050565b6000611254826111b2565b61125e81856111bd565b935083602082028501611270856111ce565b8060005b858110156112ac578484038952815161128d8582611228565b94506112988361123c565b925060208a01995050600181019050611274565b50829750879550505050505092915050565b600060208201905081810360008301526112d88184611249565b905092915050565b600073ffffffffffffffffffffffffffffffffffffffff82169050919050565b600061130b826112e0565b9050919050565b61131b81611300565b811461132657600080fd5b50565b60008135905061133881611312565b92915050565b60006020828403121561135457611353611047565b5b600061136284828501611329565b91505092915050565b6000611376826112e0565b9050919050565b6113868161136b565b82525050565b60006020820190506113a1600083018461137d565b92915050565b600081519050919050565b600082825260208201905092915050565b6000819050602082019050919050565b6113dc8161136b565b82525050565b60006113ee83836113d3565b60208301905092915050565b6000602082019050919050565b6000611412826113a7565b61141c81856113b2565b9350611427836113c3565b8060005b8381101561145857815161143f88826113e2565b975061144a836113fa565b92505060018101905061142b565b5085935050505092915050565b6000602082019050818103600083015261147f8184611407565b905092915050565b6114908161136b565b811461149b57600080fd5b50565b6000813590506114ad81611487565b92915050565b6000602082840312156114c9576114c8611047565b5b60006114d78482850161149e565b91505092915050565b600080fd5b7f4e487b7100000000000000000000000000000000000000000000000000000000600052604160045260246000fd5b61151d82611146565b810181811067ffffffffffffffff8211171561153c5761153b6114e5565b5b80604052505050565b600061154f61103d565b905061155b8282611514565b919050565b600067ffffffffffffffff82111561157b5761157a6114e5565b5b602082029050602081019050919050565b600080fd5b6000815190506115a081611487565b92915050565b60006115b96115b484611560565b611545565b905080838252602082019050602084028301858111156115dc576115db61158c565b5b835b8181101561160557806115f18882611591565b8452602084019350506020810190506115de565b5050509392505050565b600082601f830112611624576116236114e0565b5b81516116348482602086016115a6565b91505092915050565b60006020828403121561165357611652611047565b5b600082015167ffffffffffffffff8111156116715761167061104c565b5b61167d8482850161160f565b91505092915050565b7f696e76616c696420776f726b2028776173207468652067617264656e2063686160008201527f6e6765643f290000000000000000000000000000000000000000000000000000602082015250565b60006116e260268361110b565b91506116ed82611686565b604082019050919050565b60006020820190508181036000830152611711816116d5565b9050919050565b7f4e487b7100000000000000000000000000000000000000000000000000000000600052603260045260246000fd5b7f696e76616c696420637269746963616c206f70696e696f6e2028696e6469636560008201527f73207374617274206174207a65726f2900000000000000000000000000000000602082015250565b60006117a360308361110b565b91506117ae82611747565b604082019050919050565b600060208201905081810360008301526117d281611796565b9050919050565b7f4372697469717565206f6620546869732053686f770000000000000000000000815250565b600061180a826117d9565b601582019150819050919050565b7f4e487b7100000000000000000000000000000000000000000000000000000000600052601260045260246000fd5b600061185282611051565b915061185d83611051565b92508261186d5761186c611818565b5b828206905092915050565b600081905092915050565b600061188e82611100565b6118988185611878565b93506118a881856020860161111c565b80840191505092915050565b60006118c08285611883565b91506118cc8284611883565b91508190509392505050565b6118e18161136b565b82525050565b60006020820190506118fc60008301846118d8565b92915050565b600080fd5b600067ffffffffffffffff821115611922576119216114e5565b5b61192b82611146565b9050602081019050919050565b600061194b61194684611907565b611545565b90508281526020810184848401111561196757611966611902565b5b61197284828561111c565b509392505050565b600082601f83011261198f5761198e6114e0565b5b815161199f848260208601611938565b91505092915050565b6000602082840312156119be576119bd611047565b5b600082015167ffffffffffffffff8111156119dc576119db61104c565b5b6119e88482850161197a565b91505092915050565b600067ffffffffffffffff821115611a0c57611a0b6114e5565b5b602082029050602081019050919050565b6000611a30611a2b846119f1565b611545565b90508083825260208201905060208402830185811115611a5357611a5261158c565b5b835b81811015611a9a57805167ffffffffffffffff811115611a7857611a776114e0565b5b808601611a85898261197a565b85526020850194505050602081019050611a55565b5050509392505050565b600082601f830112611ab957611ab86114e0565b5b8151611ac9848260208601611a1d565b91505092915050565b600060208284031215611ae857611ae7611047565b5b600082015167ffffffffffffffff811115611b0657611b0561104c565b5b611b1284828501611aa4565b91505092915050565b7f3c703e3c7370616e20636c6173733d2261646472657373223e00000000000000815250565b7f3c2f7370616e3e207468696e6b732074686174203c693e3c7370616e2073747960008201527f6c653d2277686974652d73706163653a206e6f777261703b223e000000000000602082015250565b6000611b9d603a83611878565b9150611ba882611b41565b603a82019050919050565b7f3c2f7370616e3e3c2f693e203c7370616e207374796c653d2277686974652d7360008201527f706163653a206e6f777261703b223e6279200000000000000000000000000000602082015250565b6000611c0f603283611878565b9150611c1a82611bb3565b603282019050919050565b7f3c2f7370616e3e206973203c7370616e207374796c653d2277686974652d737060008201527f6163653a206e6f777261703b223e000000000000000000000000000000000000602082015250565b6000611c81602e83611878565b9150611c8c82611c25565b602e82019050919050565b7f4e487b7100000000000000000000000000000000000000000000000000000000600052602260045260246000fd5b60006002820490506001821680611cde57607f821691505b602082108103611cf157611cf0611c97565b5b50919050565b60008190508160005260206000209050919050565b60008154611d1981611cc6565b611d238186611878565b94506001821660008114611d3e5760018114611d5357611d86565b60ff1983168652811515820286019350611d86565b611d5c85611cf7565b60005b83811015611d7e57815481890152600182019150602081019050611d5f565b838801955050505b50505092915050565b7f2e3c2f7370616e3e3c2f703e0a00000000000000000000000000000000000000815250565b6000611dc082611b1b565b601982019150611dd08287611883565b9150611ddb82611b90565b9150611de78286611883565b9150611df282611c02565b9150611dfe8285611883565b9150611e0982611c74565b9150611e158284611d0c565b9150611e2082611d8f565b600d820191508190509594505050505056fea26469706673582212205431151536e0be03fe09e09038d8f0597560efc74ca7ae61693bce652d36af0a64736f6c634300081c0033",
  "libraries": {
    "ENSResolver": "0x014bC0E6BB84D9F3f83071715C0b1D432b4ee66C"
  },
  "devdoc": {
    "errors": {
      "OwnableInvalidOwner(address)": [
        {
          "details": "The owner is not a valid owner account. (eg. `address(0)`)"
        }
      ],
      "OwnableUnauthorizedAccount(address)": [
        {
          "details": "The caller account is not authorized to perform an operation."
        }
      ]
    },
    "kind": "dev",
    "methods": {
      "owner()": {
        "details": "Returns the address of the current owner."
      },
      "renounceOwnership()": {
        "details": "Leaves the contract without owner. It will not be possible to call `onlyOwner` functions. Can only be called by the current owner. NOTE: Renouncing ownership will leave the contract without an owner, thereby disabling any functionality that is only available to the owner."
      },
      "transferOwnership(address)": {
        "details": "Transfers ownership of the contract to a new account (`newOwner`). Can only be called by the current owner."
      }
    },
    "version": 1
  },
  "userdoc": {
    "kind": "user",
    "methods": {},
    "version": 1
  },
  "storageLayout": {
    "storage": [
      {
        "astId": 224,
        "contract": "contracts/ShowCritique.sol:ShowCritique",
        "label": "_owner",
        "offset": 0,
        "slot": "0",
        "type": "t_address"
      },
      {
        "astId": 1460,
        "contract": "contracts/ShowCritique.sol:ShowCritique",
        "label": "OPINIONS",
        "offset": 0,
        "slot": "1",
        "type": "t_array(t_string_storage)16_storage"
      },
      {
        "astId": 1465,
        "contract": "contracts/ShowCritique.sol:ShowCritique",
        "label": "critiques",
        "offset": 0,
        "slot": "17",
        "type": "t_mapping(t_address,t_struct(Critique)1436_storage)"
      },
      {
        "astId": 1467,
        "contract": "contracts/ShowCritique.sol:ShowCritique",
        "label": "gardenAddress",
        "offset": 0,
        "slot": "18",
        "type": "t_address_payable"
      }
    ],
    "types": {
      "t_address": {
        "encoding": "inplace",
        "label": "address",
        "numberOfBytes": "20"
      },
      "t_address_payable": {
        "encoding": "inplace",
        "label": "address payable",
        "numberOfBytes": "20"
      },
      "t_array(t_string_storage)16_storage": {
        "base": "t_string_storage",
        "encoding": "inplace",
        "label": "string[16]",
        "numberOfBytes": "512"
      },
      "t_mapping(t_address,t_struct(Critique)1436_storage)": {
        "encoding": "mapping",
        "key": "t_address",
        "label": "mapping(address => struct ShowCritique.Critique)",
        "numberOfBytes": "32",
        "value": "t_struct(Critique)1436_storage"
      },
      "t_string_storage": {
        "encoding": "bytes",
        "label": "string",
        "numberOfBytes": "32"
      },
      "t_struct(Critique)1436_storage": {
        "encoding": "inplace",
        "label": "struct ShowCritique.Critique",
        "members": [
          {
            "astId": 1433,
            "contract": "contracts/ShowCritique.sol:ShowCritique",
            "label": "critic",
            "offset": 0,
            "slot": "0",
            "type": "t_address"
          },
          {
            "astId": 1435,
            "contract": "contracts/ShowCritique.sol:ShowCritique",
            "label": "critique",
            "offset": 20,
            "slot": "0",
            "type": "t_uint8"
          }
        ],
        "numberOfBytes": "32"
      },
      "t_uint8": {
        "encoding": "inplace",
        "label": "uint8",
        "numberOfBytes": "1"
      }
    }
  }
}