{
  "address": "0x3bF65c9E3eE42f5E3eCF258345582F4Ba79C80A2",
  "abi": [
    {
      "inputs": [],
      "stateMutability": "nonpayable",
      "type": "constructor"
    },
    {
      "inputs": [],
      "name": "AlreadyInitialized",
      "type": "error"
    },
    {
      "inputs": [],
      "name": "NewOwnerIsZeroAddress",
      "type": "error"
    },
    {
      "inputs": [],
      "name": "NoHandoverRequest",
      "type": "error"
    },
    {
      "inputs": [],
      "name": "Unauthorized",
      "type": "error"
    },
    {
      "anonymous": false,
      "inputs": [
        {
          "indexed": true,
          "internalType": "address",
          "name": "pendingOwner",
          "type": "address"
        }
      ],
      "name": "OwnershipHandoverCanceled",
      "type": "event"
    },
    {
      "anonymous": false,
      "inputs": [
        {
          "indexed": true,
          "internalType": "address",
          "name": "pendingOwner",
          "type": "address"
        }
      ],
      "name": "OwnershipHandoverRequested",
      "type": "event"
    },
    {
      "anonymous": false,
      "inputs": [
        {
          "indexed": true,
          "internalType": "address",
          "name": "oldOwner",
          "type": "address"
        },
        {
          "indexed": true,
          "internalType": "address",
          "name": "newOwner",
          "type": "address"
        }
      ],
      "name": "OwnershipTransferred",
      "type": "event"
    },
    {
      "inputs": [],
      "name": "addresses",
      "outputs": [
        {
          "internalType": "address[]",
          "name": "",
          "type": "address[]"
        }
      ],
      "stateMutability": "view",
      "type": "function"
    },
    {
      "inputs": [],
      "name": "authors",
      "outputs": [
        {
          "internalType": "string[]",
          "name": "",
          "type": "string[]"
        }
      ],
      "stateMutability": "view",
      "type": "function"
    },
    {
      "inputs": [],
      "name": "cancelOwnershipHandover",
      "outputs": [],
      "stateMutability": "payable",
      "type": "function"
    },
    {
      "inputs": [
        {
          "internalType": "address",
          "name": "pendingOwner",
          "type": "address"
        }
      ],
      "name": "completeOwnershipHandover",
      "outputs": [],
      "stateMutability": "payable",
      "type": "function"
    },
    {
      "inputs": [
        {
          "internalType": "address payable",
          "name": "newGardenAddress",
          "type": "address"
        }
      ],
      "name": "configure",
      "outputs": [],
      "stateMutability": "nonpayable",
      "type": "function"
    },
    {
      "inputs": [
        {
          "internalType": "uint256",
          "name": "workIndex",
          "type": "uint256"
        },
        {
          "internalType": "address",
          "name": "workAddress",
          "type": "address"
        },
        {
          "internalType": "uint8",
          "name": "critique",
          "type": "uint8"
        }
      ],
      "name": "critiqueWork",
      "outputs": [],
      "stateMutability": "nonpayable",
      "type": "function"
    },
    {
      "inputs": [],
      "name": "owner",
      "outputs": [
        {
          "internalType": "address",
          "name": "result",
          "type": "address"
        }
      ],
      "stateMutability": "view",
      "type": "function"
    },
    {
      "inputs": [
        {
          "internalType": "address",
          "name": "pendingOwner",
          "type": "address"
        }
      ],
      "name": "ownershipHandoverExpiresAt",
      "outputs": [
        {
          "internalType": "uint256",
          "name": "result",
          "type": "uint256"
        }
      ],
      "stateMutability": "view",
      "type": "function"
    },
    {
      "inputs": [],
      "name": "renounceOwnership",
      "outputs": [],
      "stateMutability": "payable",
      "type": "function"
    },
    {
      "inputs": [],
      "name": "requestOwnershipHandover",
      "outputs": [],
      "stateMutability": "payable",
      "type": "function"
    },
    {
      "inputs": [],
      "name": "text",
      "outputs": [
        {
          "internalType": "string",
          "name": "",
          "type": "string"
        }
      ],
      "stateMutability": "view",
      "type": "function"
    },
    {
      "inputs": [],
      "name": "title",
      "outputs": [
        {
          "internalType": "string",
          "name": "",
          "type": "string"
        }
      ],
      "stateMutability": "view",
      "type": "function"
    },
    {
      "inputs": [
        {
          "internalType": "address",
          "name": "newOwner",
          "type": "address"
        }
      ],
      "name": "transferOwnership",
      "outputs": [],
      "stateMutability": "payable",
      "type": "function"
    },
    {
      "inputs": [],
      "name": "urls",
      "outputs": [
        {
          "internalType": "string[]",
          "name": "",
          "type": "string[]"
        }
      ],
      "stateMutability": "view",
      "type": "function"
    }
  ],
  "transactionHash": "0x58061fd875b64d92c1e6c02d89411785f9612ef456ab3d978c86011d007a1f27",
  "args": [],
  "numDeployments": 2,
  "solcInputHash": "1c7a33c2368feecec172da447792b304",
  "bytecode": "0x60806040526040518061020001604052806040518060400160405280600f81526020017f746f74616c6c7920617765736f6d65000000000000000000000000000000000081525081526020016040518060400160405280601281526020017f656e746972656c7920657863656c6c656e74000000000000000000000000000081525081526020016040518060400160405280601a81526020017f7472616e7363656e64656e746c792066617363696e6174696e6700000000000081525081526020016040518060400160405280601581526020017f636f6d706c6574656c7920696e7472696775696e67000000000000000000000081525081526020016040518060400160405280600d81526020017f646565706c79206d6f76696e670000000000000000000000000000000000000081525081526020016040518060400160405280601481526020017f70726f666f756e646c7920616666656374696e6700000000000000000000000081525081526020016040518060400160405280600e81526020017f67726f756e64627265616b696e6700000000000000000000000000000000000081525081526020016040518060400160405280600781526020017f736f20637574650000000000000000000000000000000000000000000000000081525081526020016040518060400160405280600c81526020017f746f7465732061646f726273000000000000000000000000000000000000000081525081526020016040518060400160405280601381526020017f737472696b696e676c792070726f666f756e640000000000000000000000000081525081526020016040518060400160405280601481526020017f747269756d7068616e746c7920736b696c66756c00000000000000000000000081525081526020016040518060400160405280600c81526020017f6120726576656c6174696f6e000000000000000000000000000000000000000081525081526020016040518060400160405280601581526020017f756e69676e6f7261626c79206272696c6c69616e74000000000000000000000081525081526020016040518060400160405280601181526020017f74686f756768742070726f766f6b696e6700000000000000000000000000000081525081526020016040518060400160405280601a81526020017f696e74656c6c65637475616c6c79207374696d756c6174696e6700000000000081525081526020016040518060400160405280601481526020017f76697375616c6c79207374696d756c6174696e6700000000000000000000000081525081525060009060106103ce9291906104d6565b503480156103db57600080fd5b506103eb336103f060201b60201c565b6108c5565b6103fe6104d160201b60201c565b15610479577fffffffffffffffffffffffffffffffffffffffffffffffffffffffff7487392780541561043957630dc149f06000526004601cfd5b8160601b60601c9150811560ff1b821781558160007f8be0079c531659141344cd1fd0a4f28419497f9722a3daafe3b4186f6b6457e0600080a3506104ce565b8060601b60601c9050807fffffffffffffffffffffffffffffffffffffffffffffffffffffffff74873927558060007f8be0079c531659141344cd1fd0a4f28419497f9722a3daafe3b4186f6b6457e0600080a35b50565b600090565b8260108101928215610511579160200282015b8281111561051057825182908161050091906107f3565b50916020019190600101906104e9565b5b50905061051e9190610522565b5090565b5b8082111561054257600081816105399190610546565b50600101610523565b5090565b5080546105529061060c565b6000825580601f106105645750610583565b601f0160209004906000526020600020908101906105829190610586565b5b50565b5b8082111561059f576000816000905550600101610587565b5090565b600081519050919050565b7f4e487b7100000000000000000000000000000000000000000000000000000000600052604160045260246000fd5b7f4e487b7100000000000000000000000000000000000000000000000000000000600052602260045260246000fd5b6000600282049050600182168061062457607f821691505b602082108103610637576106366105dd565b5b50919050565b60008190508160005260206000209050919050565b60006020601f8301049050919050565b600082821b905092915050565b60006008830261069f7fffffffffffffffffffffffffffffffffffffffffffffffffffffffffffffffff82610662565b6106a98683610662565b95508019841693508086168417925050509392505050565b6000819050919050565b6000819050919050565b60006106f06106eb6106e6846106c1565b6106cb565b6106c1565b9050919050565b6000819050919050565b61070a836106d5565b61071e610716826106f7565b84845461066f565b825550505050565b600090565b610733610726565b61073e818484610701565b505050565b5b818110156107625761075760008261072b565b600181019050610744565b5050565b601f8211156107a7576107788161063d565b61078184610652565b81016020851015610790578190505b6107a461079c85610652565b830182610743565b50505b505050565b600082821c905092915050565b60006107ca600019846008026107ac565b1980831691505092915050565b60006107e383836107b9565b9150826002028217905092915050565b6107fc826105a3565b67ffffffffffffffff811115610815576108146105ae565b5b61081f825461060c565b61082a828285610766565b600060209050601f83116001811461085d576000841561084b578287015190505b61085585826107d7565b8655506108bd565b601f19841661086b8661063d565b60005b828110156108935784890151825560018201915060208501945060208101905061086e565b868310156108b057848901516108ac601f8916826107b9565b8355505b6001600288020188555050505b505050505050565b611eff806108d46000396000f3fe6080604052600436106100dd5760003560e01c806375cb26721161007f578063da0321cd11610059578063da0321cd14610229578063f04e283e14610254578063f2fde38b14610270578063fee81cf41461028c576100dd565b806375cb2672146101ac5780638da5cb5b146101d5578063adcb3b7314610200576100dd565b80632c73dc4a116100bb5780632c73dc4a146101425780634a79d50c1461016d57806354d1f13d14610198578063715018a6146101a2576100dd565b80631f1bd692146100e2578063256929621461010d57806328411ae114610117575b600080fd5b3480156100ee57600080fd5b506100f76102c9565b6040516101049190611151565b60405180910390f35b6101156102d8565b005b34801561012357600080fd5b5061012c61032c565b604051610139919061127f565b60405180910390f35b34801561014e57600080fd5b506101576103dd565b604051610164919061127f565b60405180910390f35b34801561017957600080fd5b506101826103e2565b60405161018f9190611151565b60405180910390f35b6101a0610407565b005b6101aa610443565b005b3480156101b857600080fd5b506101d360048036038101906101ce9190611313565b610457565b005b3480156101e157600080fd5b506101ea610713565b6040516101f79190611361565b60405180910390f35b34801561020c57600080fd5b5061022760048036038101906102229190611417565b61073c565b005b34801561023557600080fd5b5061023e610982565b60405161024b9190611528565b60405180910390f35b61026e6004803603810190610269919061154a565b610a28565b005b61028a6004803603810190610285919061154a565b610a69565b005b34801561029857600080fd5b506102b360048036038101906102ae919061154a565b610a93565b6040516102c09190611586565b60405180910390f35b60606102d3610aae565b905090565b60006102e2610c6f565b67ffffffffffffffff164201905063389a75e1600c5233600052806020600c2055337fdbf36a107da19e49527a7176a1babf963b4b0ff8cde35ee35d6cd8f1f9ac7e1d600080a250565b60606000600167ffffffffffffffff81111561034b5761034a6115a1565b5b60405190808252806020026020018201604052801561037e57816020015b60608152602001906001900390816103695790505b5090506040518060400160405280601181526020017f52686561204d7965727320657420616c2e000000000000000000000000000000815250816000815181106103cb576103ca6115d0565b5b60200260200101819052508091505090565b606090565b60606040516020016103f390611625565b604051602081830303815290604052905090565b63389a75e1600c523360005260006020600c2055337ffa7b8eab7da67f412cc9575ed43464468f9bfbae89d1675917346ca6d8fe3c92600080a2565b61044b610c7a565b6104556000610cb2565b565b61045f610c7a565b80601160006101000a81548173ffffffffffffffffffffffffffffffffffffffff021916908373ffffffffffffffffffffffffffffffffffffffff1602179055506000601160009054906101000a900473ffffffffffffffffffffffffffffffffffffffff169050600033905060008273ffffffffffffffffffffffffffffffffffffffff166355735c5e6040518163ffffffff1660e01b8152600401600060405180830381865afa158015610519573d6000803e3d6000fd5b505050506040513d6000823e3d601f19601f82011682018060405250810190610542919061176c565b905060005b815181101561070c57600073ffffffffffffffffffffffffffffffffffffffff166010600084848151811061057f5761057e6115d0565b5b602002602001015173ffffffffffffffffffffffffffffffffffffffff1673ffffffffffffffffffffffffffffffffffffffff16815260200190815260200160002060000160009054906101000a900473ffffffffffffffffffffffffffffffffffffffff1673ffffffffffffffffffffffffffffffffffffffff16036106ff5760405180604001604052808473ffffffffffffffffffffffffffffffffffffffff16815260200160108361063491906117e4565b60ff1681525060106000848481518110610651576106506115d0565b5b602002602001015173ffffffffffffffffffffffffffffffffffffffff1673ffffffffffffffffffffffffffffffffffffffff16815260200190815260200160002060008201518160000160006101000a81548173ffffffffffffffffffffffffffffffffffffffff021916908373ffffffffffffffffffffffffffffffffffffffff16021790555060208201518160000160146101000a81548160ff021916908360ff1602179055509050505b8080600101915050610547565b5050505050565b60007fffffffffffffffffffffffffffffffffffffffffffffffffffffffff7487392754905090565b6000601160009054906101000a900473ffffffffffffffffffffffffffffffffffffffff1690508273ffffffffffffffffffffffffffffffffffffffff168173ffffffffffffffffffffffffffffffffffffffff166355735c5e6040518163ffffffff1660e01b8152600401600060405180830381865afa1580156107c5573d6000803e3d6000fd5b505050506040513d6000823e3d601f19601f820116820180604052508101906107ee919061176c565b8581518110610800576107ff6115d0565b5b602002602001015173ffffffffffffffffffffffffffffffffffffffff161461085e576040517f08c379a000000000000000000000000000000000000000000000000000000000815260040161085590611887565b60405180910390fd5b60108260ff16106108a4576040517f08c379a000000000000000000000000000000000000000000000000000000000815260040161089b90611919565b60405180910390fd5b60405180604001604052803373ffffffffffffffffffffffffffffffffffffffff1681526020018360ff16815250601060008573ffffffffffffffffffffffffffffffffffffffff1673ffffffffffffffffffffffffffffffffffffffff16815260200190815260200160002060008201518160000160006101000a81548173ffffffffffffffffffffffffffffffffffffffff021916908373ffffffffffffffffffffffffffffffffffffffff16021790555060208201518160000160146101000a81548160ff021916908360ff16021790555090505050505050565b60606000600167ffffffffffffffff8111156109a1576109a06115a1565b5b6040519080825280602002602001820160405280156109cf5781602001602082028036833780820191505090505b50905030816000815181106109e7576109e66115d0565b5b602002602001019073ffffffffffffffffffffffffffffffffffffffff16908173ffffffffffffffffffffffffffffffffffffffff16815250508091505090565b610a30610c7a565b63389a75e1600c52806000526020600c208054421115610a5857636f5e88186000526004601cfd5b6000815550610a6681610cb2565b50565b610a71610c7a565b8060601b610a8757637448fbae6000526004601cfd5b610a9081610cb2565b50565b600063389a75e1600c52816000526020600c20549050919050565b60606000601160009054906101000a900473ffffffffffffffffffffffffffffffffffffffff16905060008173ffffffffffffffffffffffffffffffffffffffff166355735c5e6040518163ffffffff1660e01b8152600401600060405180830381865afa158015610b24573d6000803e3d6000fd5b505050506040513d6000823e3d601f19601f82011682018060405250810190610b4d919061176c565b9050600060405180602001604052806000815250905060005b8251811015610c65576000838281518110610b8457610b836115d0565b5b602002602001015190506000601060008373ffffffffffffffffffffffffffffffffffffffff1673ffffffffffffffffffffffffffffffffffffffff1681526020019081526020016000209050600073ffffffffffffffffffffffffffffffffffffffff168160000160009054906101000a900473ffffffffffffffffffffffffffffffffffffffff1673ffffffffffffffffffffffffffffffffffffffff1614610c565783610c3383610d7a565b604051602001610c44929190611975565b60405160208183030381529060405293505b50508080600101915050610b66565b5080935050505090565b60006202a300905090565b7fffffffffffffffffffffffffffffffffffffffffffffffffffffffff74873927543314610cb0576382b429006000526004601cfd5b565b610cba610f99565b15610d20577fffffffffffffffffffffffffffffffffffffffffffffffffffffffff748739278160601b60601c91508181547f8be0079c531659141344cd1fd0a4f28419497f9722a3daafe3b4186f6b6457e0600080a3811560ff1b8217815550610d77565b7fffffffffffffffffffffffffffffffffffffffffffffffffffffffff748739278160601b60601c91508181547f8be0079c531659141344cd1fd0a4f28419497f9722a3daafe3b4186f6b6457e0600080a3818155505b50565b606060008290506000601060008573ffffffffffffffffffffffffffffffffffffffff1673ffffffffffffffffffffffffffffffffffffffff1681526020019081526020016000206040518060400160405290816000820160009054906101000a900473ffffffffffffffffffffffffffffffffffffffff1673ffffffffffffffffffffffffffffffffffffffff1673ffffffffffffffffffffffffffffffffffffffff1681526020016000820160149054906101000a900460ff1660ff1660ff16815250509050610e4f8160000151610f9e565b8273ffffffffffffffffffffffffffffffffffffffff16634a79d50c6040518163ffffffff1660e01b8152600401600060405180830381865afa158015610e9a573d6000803e3d6000fd5b505050506040513d6000823e3d601f19601f82011682018060405250810190610ec39190611a3f565b8373ffffffffffffffffffffffffffffffffffffffff166328411ae16040518163ffffffff1660e01b8152600401600060405180830381865afa158015610f0e573d6000803e3d6000fd5b505050506040513d6000823e3d601f19601f82011682018060405250810190610f379190611b69565b600081518110610f4a57610f496115d0565b5b60200260200101516000846020015160ff1660108110610f6d57610f6c6115d0565b5b01604051602001610f819493929190611e4c565b60405160208183030381529060405292505050919050565b600090565b6060610fa982611018565b905060ff6000190460061b60228201816022026028822016608860f01b60005b600115610fe85782811a82028182015260018101905060148103610fc9575b50838351166000511660011c8351188352602083019250838351166020511660011c835118835250505050919050565b60606110238261103e565b90506002815101613078825260028203915080825250919050565b60606040519050608081016040526f30313233343536373839616263646566600f526002810190506028815260208101600060288201528260601b925060005b6001156110ba57808101820184821a600f81165160018301538060041c518253600183019250601483036110b35750506110ba565b505061107e565b5050919050565b600081519050919050565b600082825260208201905092915050565b60005b838110156110fb5780820151818401526020810190506110e0565b60008484015250505050565b6000601f19601f8301169050919050565b6000611123826110c1565b61112d81856110cc565b935061113d8185602086016110dd565b61114681611107565b840191505092915050565b6000602082019050818103600083015261116b8184611118565b905092915050565b600081519050919050565b600082825260208201905092915050565b6000819050602082019050919050565b600082825260208201905092915050565b60006111bb826110c1565b6111c5818561119f565b93506111d58185602086016110dd565b6111de81611107565b840191505092915050565b60006111f583836111b0565b905092915050565b6000602082019050919050565b600061121582611173565b61121f818561117e565b9350836020820285016112318561118f565b8060005b8581101561126d578484038952815161124e85826111e9565b9450611259836111fd565b925060208a01995050600181019050611235565b50829750879550505050505092915050565b60006020820190508181036000830152611299818461120a565b905092915050565b6000604051905090565b600080fd5b600080fd5b600073ffffffffffffffffffffffffffffffffffffffff82169050919050565b60006112e0826112b5565b9050919050565b6112f0816112d5565b81146112fb57600080fd5b50565b60008135905061130d816112e7565b92915050565b600060208284031215611329576113286112ab565b5b6000611337848285016112fe565b91505092915050565b600061134b826112b5565b9050919050565b61135b81611340565b82525050565b60006020820190506113766000830184611352565b92915050565b6000819050919050565b61138f8161137c565b811461139a57600080fd5b50565b6000813590506113ac81611386565b92915050565b6113bb81611340565b81146113c657600080fd5b50565b6000813590506113d8816113b2565b92915050565b600060ff82169050919050565b6113f4816113de565b81146113ff57600080fd5b50565b600081359050611411816113eb565b92915050565b6000806000606084860312156114305761142f6112ab565b5b600061143e8682870161139d565b935050602061144f868287016113c9565b925050604061146086828701611402565b9150509250925092565b600081519050919050565b600082825260208201905092915050565b6000819050602082019050919050565b61149f81611340565b82525050565b60006114b18383611496565b60208301905092915050565b6000602082019050919050565b60006114d58261146a565b6114df8185611475565b93506114ea83611486565b8060005b8381101561151b57815161150288826114a5565b975061150d836114bd565b9250506001810190506114ee565b5085935050505092915050565b6000602082019050818103600083015261154281846114ca565b905092915050565b6000602082840312156115605761155f6112ab565b5b600061156e848285016113c9565b91505092915050565b6115808161137c565b82525050565b600060208201905061159b6000830184611577565b92915050565b7f4e487b7100000000000000000000000000000000000000000000000000000000600052604160045260246000fd5b7f4e487b7100000000000000000000000000000000000000000000000000000000600052603260045260246000fd5b7f4372697469717565206f6620546869732053686f770000000000000000000000815250565b6000611630826115ff565b601582019150819050919050565b600080fd5b61164c82611107565b810181811067ffffffffffffffff8211171561166b5761166a6115a1565b5b80604052505050565b600061167e6112a1565b905061168a8282611643565b919050565b600067ffffffffffffffff8211156116aa576116a96115a1565b5b602082029050602081019050919050565b600080fd5b6000815190506116cf816113b2565b92915050565b60006116e86116e38461168f565b611674565b9050808382526020820190506020840283018581111561170b5761170a6116bb565b5b835b81811015611734578061172088826116c0565b84526020840193505060208101905061170d565b5050509392505050565b600082601f8301126117535761175261163e565b5b81516117638482602086016116d5565b91505092915050565b600060208284031215611782576117816112ab565b5b600082015167ffffffffffffffff8111156117a05761179f6112b0565b5b6117ac8482850161173e565b91505092915050565b7f4e487b7100000000000000000000000000000000000000000000000000000000600052601260045260246000fd5b60006117ef8261137c565b91506117fa8361137c565b92508261180a576118096117b5565b5b828206905092915050565b7f696e76616c696420776f726b2028776173207468652067617264656e2063686160008201527f6e6765643f290000000000000000000000000000000000000000000000000000602082015250565b60006118716026836110cc565b915061187c82611815565b604082019050919050565b600060208201905081810360008301526118a081611864565b9050919050565b7f696e76616c696420637269746963616c206f70696e696f6e2028696e6469636560008201527f73207374617274206174207a65726f2900000000000000000000000000000000602082015250565b60006119036030836110cc565b915061190e826118a7565b604082019050919050565b60006020820190508181036000830152611932816118f6565b9050919050565b600081905092915050565b600061194f826110c1565b6119598185611939565b93506119698185602086016110dd565b80840191505092915050565b60006119818285611944565b915061198d8284611944565b91508190509392505050565b600080fd5b600067ffffffffffffffff8211156119b9576119b86115a1565b5b6119c282611107565b9050602081019050919050565b60006119e26119dd8461199e565b611674565b9050828152602081018484840111156119fe576119fd611999565b5b611a098482856110dd565b509392505050565b600082601f830112611a2657611a2561163e565b5b8151611a368482602086016119cf565b91505092915050565b600060208284031215611a5557611a546112ab565b5b600082015167ffffffffffffffff811115611a7357611a726112b0565b5b611a7f84828501611a11565b91505092915050565b600067ffffffffffffffff821115611aa357611aa26115a1565b5b602082029050602081019050919050565b6000611ac7611ac284611a88565b611674565b90508083825260208201905060208402830185811115611aea57611ae96116bb565b5b835b81811015611b3157805167ffffffffffffffff811115611b0f57611b0e61163e565b5b808601611b1c8982611a11565b85526020850194505050602081019050611aec565b5050509392505050565b600082601f830112611b5057611b4f61163e565b5b8151611b60848260208601611ab4565b91505092915050565b600060208284031215611b7f57611b7e6112ab565b5b600082015167ffffffffffffffff811115611b9d57611b9c6112b0565b5b611ba984828501611b3b565b91505092915050565b7f3c703e0000000000000000000000000000000000000000000000000000000000815250565b7f207468696e6b732074686174203c693e3c7370616e207374796c653d2277686960008201527f74652d73706163653a206e6f777261703b223e00000000000000000000000000602082015250565b6000611c34603383611939565b9150611c3f82611bd8565b603382019050919050565b7f3c2f7370616e3e3c2f693e203c7370616e207374796c653d2277686974652d7360008201527f706163653a206e6f777261703b223e6279200000000000000000000000000000602082015250565b6000611ca6603283611939565b9150611cb182611c4a565b603282019050919050565b7f3c2f7370616e3e206973203c7370616e207374796c653d2277686974652d737060008201527f6163653a206e6f777261703b223e000000000000000000000000000000000000602082015250565b6000611d18602e83611939565b9150611d2382611cbc565b602e82019050919050565b7f4e487b7100000000000000000000000000000000000000000000000000000000600052602260045260246000fd5b60006002820490506001821680611d7557607f821691505b602082108103611d8857611d87611d2e565b5b50919050565b60008190508160005260206000209050919050565b60008154611db081611d5d565b611dba8186611939565b94506001821660008114611dd55760018114611dea57611e1d565b60ff1983168652811515820286019350611e1d565b611df385611d8e565b60005b83811015611e1557815481890152600182019150602081019050611df6565b838801955050505b50505092915050565b7f2e3c2f7370616e3e3c2f703e0a00000000000000000000000000000000000000815250565b6000611e5782611bb2565b600382019150611e678287611944565b9150611e7282611c27565b9150611e7e8286611944565b9150611e8982611c99565b9150611e958285611944565b9150611ea082611d0b565b9150611eac8284611da3565b9150611eb782611e26565b600d820191508190509594505050505056fea2646970667358221220f2327135db0615eacacb28efa773ef22c9d792161cff27dabb417ee7eb02c36e64736f6c634300081b0033",
  "devdoc": {
    "errors": {
      "AlreadyInitialized()": [
        {
          "details": "Cannot double-initialize."
        }
      ],
      "NewOwnerIsZeroAddress()": [
        {
          "details": "The `newOwner` cannot be the zero address."
        }
      ],
      "NoHandoverRequest()": [
        {
          "details": "The `pendingOwner` does not have a valid handover request."
        }
      ],
      "Unauthorized()": [
        {
          "details": "The caller is not authorized to call the function."
        }
      ]
    },
    "events": {
      "OwnershipHandoverCanceled(address)": {
        "details": "The ownership handover to `pendingOwner` has been canceled."
      },
      "OwnershipHandoverRequested(address)": {
        "details": "An ownership handover to `pendingOwner` has been requested."
      },
      "OwnershipTransferred(address,address)": {
        "details": "The ownership is transferred from `oldOwner` to `newOwner`. This event is intentionally kept the same as OpenZeppelin's Ownable to be compatible with indexers and [EIP-173](https://eips.ethereum.org/EIPS/eip-173), despite it not being as lightweight as a single argument event."
      }
    },
    "kind": "dev",
    "methods": {
      "cancelOwnershipHandover()": {
        "details": "Cancels the two-step ownership handover to the caller, if any."
      },
      "completeOwnershipHandover(address)": {
        "details": "Allows the owner to complete the two-step ownership handover to `pendingOwner`. Reverts if there is no existing ownership handover requested by `pendingOwner`."
      },
      "owner()": {
        "details": "Returns the owner of the contract."
      },
      "ownershipHandoverExpiresAt(address)": {
        "details": "Returns the expiry timestamp for the two-step ownership handover to `pendingOwner`."
      },
      "renounceOwnership()": {
        "details": "Allows the owner to renounce their ownership."
      },
      "requestOwnershipHandover()": {
        "details": "Request a two-step ownership handover to the caller. The request will automatically expire in 48 hours (172800 seconds) by default."
      },
      "transferOwnership(address)": {
        "details": "Allows the owner to transfer the ownership to `newOwner`."
      }
    },
    "version": 1
  },
  "userdoc": {
    "kind": "user",
    "methods": {},
    "version": 1
  },
  "storageLayout": {
    "storage": [
      {
        "astId": 479,
        "contract": "contracts/ShowCritique.sol:ShowCritique",
        "label": "OPINIONS",
        "offset": 0,
        "slot": "0",
        "type": "t_array(t_string_storage)16_storage"
      },
      {
        "astId": 484,
        "contract": "contracts/ShowCritique.sol:ShowCritique",
        "label": "critiques",
        "offset": 0,
        "slot": "16",
        "type": "t_mapping(t_address,t_struct(Critique)455_storage)"
      },
      {
        "astId": 486,
        "contract": "contracts/ShowCritique.sol:ShowCritique",
        "label": "gardenAddress",
        "offset": 0,
        "slot": "17",
        "type": "t_address_payable"
      }
    ],
    "types": {
      "t_address": {
        "encoding": "inplace",
        "label": "address",
        "numberOfBytes": "20"
      },
      "t_address_payable": {
        "encoding": "inplace",
        "label": "address payable",
        "numberOfBytes": "20"
      },
      "t_array(t_string_storage)16_storage": {
        "base": "t_string_storage",
        "encoding": "inplace",
        "label": "string[16]",
        "numberOfBytes": "512"
      },
      "t_mapping(t_address,t_struct(Critique)455_storage)": {
        "encoding": "mapping",
        "key": "t_address",
        "label": "mapping(address => struct ShowCritique.Critique)",
        "numberOfBytes": "32",
        "value": "t_struct(Critique)455_storage"
      },
      "t_string_storage": {
        "encoding": "bytes",
        "label": "string",
        "numberOfBytes": "32"
      },
      "t_struct(Critique)455_storage": {
        "encoding": "inplace",
        "label": "struct ShowCritique.Critique",
        "members": [
          {
            "astId": 452,
            "contract": "contracts/ShowCritique.sol:ShowCritique",
            "label": "critic",
            "offset": 0,
            "slot": "0",
            "type": "t_address"
          },
          {
            "astId": 454,
            "contract": "contracts/ShowCritique.sol:ShowCritique",
            "label": "critique",
            "offset": 20,
            "slot": "0",
            "type": "t_uint8"
          }
        ],
        "numberOfBytes": "32"
      },
      "t_uint8": {
        "encoding": "inplace",
        "label": "uint8",
        "numberOfBytes": "1"
      }
    }
  }
}