{
  "address": "0xb1fb034c6671467deccca0ed3906bbb9636d4738",
  "abi": [
    {
      "inputs": [],
      "stateMutability": "nonpayable",
      "type": "constructor"
    },
    {
      "anonymous": false,
      "inputs": [
        {
          "indexed": true,
          "internalType": "address",
          "name": "who",
          "type": "address"
        },
        {
          "indexed": true,
          "internalType": "address",
          "name": "recepient",
          "type": "address"
        },
        {
          "indexed": false,
          "internalType": "uint256",
          "name": "value",
          "type": "uint256"
        }
      ],
      "name": "Signed",
      "type": "event"
    },
    {
      "inputs": [
        {
          "internalType": "address",
          "name": "",
          "type": "address"
        }
      ],
      "name": "contributionsMadeByAddress",
      "outputs": [
        {
          "internalType": "uint256",
          "name": "",
          "type": "uint256"
        }
      ],
      "stateMutability": "view",
      "type": "function"
    },
    {
      "inputs": [
        {
          "internalType": "address",
          "name": "",
          "type": "address"
        }
      ],
      "name": "contributionsReceivedByAddress",
      "outputs": [
        {
          "internalType": "uint256",
          "name": "",
          "type": "uint256"
        }
      ],
      "stateMutability": "view",
      "type": "function"
    },
    {
      "inputs": [],
      "name": "origin",
      "outputs": [
        {
          "internalType": "address",
          "name": "",
          "type": "address"
        }
      ],
      "stateMutability": "view",
      "type": "function"
    },
    {
      "inputs": [
        {
          "internalType": "address",
          "name": "",
          "type": "address"
        }
      ],
      "name": "registeredAddressIndex",
      "outputs": [
        {
          "internalType": "uint256",
          "name": "",
          "type": "uint256"
        }
      ],
      "stateMutability": "view",
      "type": "function"
    },
    {
      "inputs": [],
      "name": "registrationCount",
      "outputs": [
        {
          "internalType": "uint256",
          "name": "",
          "type": "uint256"
        }
      ],
      "stateMutability": "view",
      "type": "function"
    },
    {
      "inputs": [
        {
          "internalType": "address",
          "name": "_who",
          "type": "address"
        },
        {
          "internalType": "address",
          "name": "_recipient",
          "type": "address"
        }
      ],
      "name": "sign",
      "outputs": [],
      "stateMutability": "payable",
      "type": "function"
    },
    {
      "stateMutability": "payable",
      "type": "receive"
    }
  ],
  "transactionHash": "0x001ae2b102f50779aaaf417ab37923c6720faed98b661fb163257b2976efe3af",
  "args": [],
  "numDeployments": 1,
  "solcInputHash": "f18fa6e93d223df61289a0a0a415e623",
  "bytecode": "0x60a060405234801561001057600080fd5b503373ffffffffffffffffffffffffffffffffffffffff1660808173ffffffffffffffffffffffffffffffffffffffff16815250506100543061005960201b60201c565b61013a565b60008081548092919061006b906100f2565b9190505550600054600160008373ffffffffffffffffffffffffffffffffffffffff1673ffffffffffffffffffffffffffffffffffffffff1681526020019081526020016000208190555050565b7f4e487b7100000000000000000000000000000000000000000000000000000000600052601160045260246000fd5b6000819050919050565b60006100fd826100e8565b91507fffffffffffffffffffffffffffffffffffffffffffffffffffffffffffffffff820361012f5761012e6100b9565b5b600182019050919050565b60805161074f61015560003960006103cb015261074f6000f3fe6080604052600436106100595760003560e01c80630d3eafd61461006f5780638c114f711461009a578063938b5f32146100d75780639f7623b814610102578063c42cb89c1461011e578063fe5d005d1461015b5761006a565b3661006a576100683330610198565b005b600080fd5b34801561007b57600080fd5b506100846103ab565b6040516100919190610496565b60405180910390f35b3480156100a657600080fd5b506100c160048036038101906100bc9190610514565b6103b1565b6040516100ce9190610496565b60405180910390f35b3480156100e357600080fd5b506100ec6103c9565b6040516100f99190610550565b60405180910390f35b61011c6004803603810190610117919061056b565b610198565b005b34801561012a57600080fd5b5061014560048036038101906101409190610514565b6103ed565b6040516101529190610496565b60405180910390f35b34801561016757600080fd5b50610182600480360381019061017d9190610514565b610405565b60405161018f9190610496565b60405180910390f35b6000600160008373ffffffffffffffffffffffffffffffffffffffff1673ffffffffffffffffffffffffffffffffffffffff16815260200190815260200160002054036101e9576101e88261041d565b5b34600360008473ffffffffffffffffffffffffffffffffffffffff1673ffffffffffffffffffffffffffffffffffffffff168152602001908152602001600020600082825461023891906105da565b9250508190555034600260008373ffffffffffffffffffffffffffffffffffffffff1673ffffffffffffffffffffffffffffffffffffffff168152602001908152602001600020600082825461028e91906105da565b9250508190555060008173ffffffffffffffffffffffffffffffffffffffff16346040516102bb9061063f565b60006040518083038185875af1925050503d80600081146102f8576040519150601f19603f3d011682016040523d82523d6000602084013e6102fd565b606091505b5050905080610341576040517f08c379a0000000000000000000000000000000000000000000000000000000008152600401610338906106b1565b60405180910390fd5b8173ffffffffffffffffffffffffffffffffffffffff168373ffffffffffffffffffffffffffffffffffffffff167f87c381bc9fde4d800b96cb8c51c2de2f860fae851955c2cc063723d0bf1cacef3460405161039e9190610496565b60405180910390a3505050565b60005481565b60016020528060005260406000206000915090505481565b7f000000000000000000000000000000000000000000000000000000000000000081565b60026020528060005260406000206000915090505481565b60036020528060005260406000206000915090505481565b60008081548092919061042f906106d1565b9190505550600054600160008373ffffffffffffffffffffffffffffffffffffffff1673ffffffffffffffffffffffffffffffffffffffff1681526020019081526020016000208190555050565b6000819050919050565b6104908161047d565b82525050565b60006020820190506104ab6000830184610487565b92915050565b600080fd5b600073ffffffffffffffffffffffffffffffffffffffff82169050919050565b60006104e1826104b6565b9050919050565b6104f1816104d6565b81146104fc57600080fd5b50565b60008135905061050e816104e8565b92915050565b60006020828403121561052a576105296104b1565b5b6000610538848285016104ff565b91505092915050565b61054a816104d6565b82525050565b60006020820190506105656000830184610541565b92915050565b60008060408385031215610582576105816104b1565b5b6000610590858286016104ff565b92505060206105a1858286016104ff565b9150509250929050565b7f4e487b7100000000000000000000000000000000000000000000000000000000600052601160045260246000fd5b60006105e58261047d565b91506105f08361047d565b9250828201905080821115610608576106076105ab565b5b92915050565b600081905092915050565b50565b600061062960008361060e565b915061063482610619565b600082019050919050565b600061064a8261061c565b9150819050919050565b600082825260208201905092915050565b7f4661696c656420746f207369676e000000000000000000000000000000000000600082015250565b600061069b600e83610654565b91506106a682610665565b602082019050919050565b600060208201905081810360008301526106ca8161068e565b9050919050565b60006106dc8261047d565b91507fffffffffffffffffffffffffffffffffffffffffffffffffffffffffffffffff820361070e5761070d6105ab565b5b60018201905091905056fea264697066735822122024c754c8d9448cf57c5a5ee2efcda5023149397d6fb42d285d4e7889fa420efb64736f6c634300081c0033",
  "devdoc": {
    "kind": "dev",
    "methods": {},
    "version": 1
  },
  "userdoc": {
    "kind": "user",
    "methods": {},
    "version": 1
  },
  "storageLayout": {
    "storage": [
      {
        "astId": 9582,
        "contract": "contracts/s/SP.sol:SP",
        "label": "registrationCount",
        "offset": 0,
        "slot": "0",
        "type": "t_uint256"
      },
      {
        "astId": 9586,
        "contract": "contracts/s/SP.sol:SP",
        "label": "registeredAddressIndex",
        "offset": 0,
        "slot": "1",
        "type": "t_mapping(t_address,t_uint256)"
      },
      {
        "astId": 9590,
        "contract": "contracts/s/SP.sol:SP",
        "label": "contributionsReceivedByAddress",
        "offset": 0,
        "slot": "2",
        "type": "t_mapping(t_address,t_uint256)"
      },
      {
        "astId": 9594,
        "contract": "contracts/s/SP.sol:SP",
        "label": "contributionsMadeByAddress",
        "offset": 0,
        "slot": "3",
        "type": "t_mapping(t_address,t_uint256)"
      }
    ],
    "types": {
      "t_address": {
        "encoding": "inplace",
        "label": "address",
        "numberOfBytes": "20"
      },
      "t_mapping(t_address,t_uint256)": {
        "encoding": "mapping",
        "key": "t_address",
        "label": "mapping(address => uint256)",
        "numberOfBytes": "32",
        "value": "t_uint256"
      },
      "t_uint256": {
        "encoding": "inplace",
        "label": "uint256",
        "numberOfBytes": "32"
      }
    }
  }
}