{
  "address": "0xbA4b05EA138F241e7307dd862c6F4bC768B1C660",
  "abi": [
    {
      "inputs": [],
      "stateMutability": "nonpayable",
      "type": "constructor"
    },
    {
      "inputs": [],
      "name": "addresses",
      "outputs": [
        {
          "internalType": "address[]",
          "name": "",
          "type": "address[]"
        }
      ],
      "stateMutability": "view",
      "type": "function"
    },
    {
      "inputs": [],
      "name": "authors",
      "outputs": [
        {
          "internalType": "string[]",
          "name": "",
          "type": "string[]"
        }
      ],
      "stateMutability": "view",
      "type": "function"
    },
    {
      "inputs": [
        {
          "internalType": "bool",
          "name": "direction",
          "type": "bool"
        }
      ],
      "name": "begin",
      "outputs": [],
      "stateMutability": "nonpayable",
      "type": "function"
    },
    {
      "inputs": [],
      "name": "end",
      "outputs": [],
      "stateMutability": "nonpayable",
      "type": "function"
    },
    {
      "inputs": [],
      "name": "howFarHaveICome",
      "outputs": [
        {
          "internalType": "int256",
          "name": "",
          "type": "int256"
        }
      ],
      "stateMutability": "view",
      "type": "function"
    },
    {
      "inputs": [],
      "name": "journeyCompletedCount",
      "outputs": [
        {
          "internalType": "uint256",
          "name": "",
          "type": "uint256"
        }
      ],
      "stateMutability": "view",
      "type": "function"
    },
    {
      "inputs": [],
      "name": "journeyCount",
      "outputs": [
        {
          "internalType": "uint256",
          "name": "",
          "type": "uint256"
        }
      ],
      "stateMutability": "view",
      "type": "function"
    },
    {
      "inputs": [
        {
          "internalType": "uint256",
          "name": "",
          "type": "uint256"
        }
      ],
      "name": "journeys",
      "outputs": [
        {
          "internalType": "int48",
          "name": "fromBlock",
          "type": "int48"
        },
        {
          "internalType": "int48",
          "name": "toBlock",
          "type": "int48"
        },
        {
          "internalType": "bool",
          "name": "forward",
          "type": "bool"
        },
        {
          "internalType": "bool",
          "name": "active",
          "type": "bool"
        },
        {
          "internalType": "uint48",
          "name": "previousIndex",
          "type": "uint48"
        },
        {
          "internalType": "address",
          "name": "traveller",
          "type": "address"
        }
      ],
      "stateMutability": "view",
      "type": "function"
    },
    {
      "inputs": [
        {
          "internalType": "uint256",
          "name": "index",
          "type": "uint256"
        },
        {
          "internalType": "uint256",
          "name": "offset",
          "type": "uint256"
        },
        {
          "internalType": "uint256",
          "name": "limit",
          "type": "uint256"
        }
      ],
      "name": "landscape",
      "outputs": [
        {
          "internalType": "string",
          "name": "",
          "type": "string"
        }
      ],
      "stateMutability": "view",
      "type": "function"
    },
    {
      "inputs": [],
      "name": "text",
      "outputs": [
        {
          "internalType": "string",
          "name": "",
          "type": "string"
        }
      ],
      "stateMutability": "view",
      "type": "function"
    },
    {
      "inputs": [],
      "name": "title",
      "outputs": [
        {
          "internalType": "string",
          "name": "",
          "type": "string"
        }
      ],
      "stateMutability": "view",
      "type": "function"
    },
    {
      "inputs": [],
      "name": "urls",
      "outputs": [
        {
          "internalType": "string[]",
          "name": "",
          "type": "string[]"
        }
      ],
      "stateMutability": "view",
      "type": "function"
    },
    {
      "inputs": [],
      "name": "whereAmI",
      "outputs": [
        {
          "internalType": "int256",
          "name": "",
          "type": "int256"
        }
      ],
      "stateMutability": "view",
      "type": "function"
    }
  ],
  "transactionHash": "0x5c89087768db36f80175fe817747cc8f21ee3d4b083ae58bae05d9ecb997bee1",
  "args": [],
  "numDeployments": 2,
  "solcInputHash": "89851f3df9066fd32cc20484ace73a18",
  "bytecode": "0x608060405234801561001057600080fd5b5061002260013061002760201b60201c565b6104d3565b6000600360008373ffffffffffffffffffffffffffffffffffffffff1673ffffffffffffffffffffffffffffffffffffffff16815260200190815260200160002054905060008060008381526020019081526020016000206040518060c00160405290816000820160009054906101000a900460050b60050b60050b81526020016000820160069054906101000a900460050b60050b60050b815260200160008201600c9054906101000a900460ff1615151515815260200160008201600d9054906101000a900460ff1615151515815260200160008201600e9054906101000a900465ffffffffffff1665ffffffffffff1665ffffffffffff1681526020016001820160009054906101000a900473ffffffffffffffffffffffffffffffffffffffff1673ffffffffffffffffffffffffffffffffffffffff1673ffffffffffffffffffffffffffffffffffffffff168152505090506000151581606001511515146101c9576040517f08c379a00000000000000000000000000000000000000000000000000000000081526004016101c090610432565b60405180910390fd5b600160008154809291906101dc9061048b565b919050555060006040518060c001604052804360050b8152602001600060050b815260200186151581526020016001151581526020018465ffffffffffff1681526020018573ffffffffffffffffffffffffffffffffffffffff16815250905080600080600154815260200190815260200160002060008201518160000160006101000a81548165ffffffffffff021916908360050b65ffffffffffff16021790555060208201518160000160066101000a81548165ffffffffffff021916908360050b65ffffffffffff160217905550604082015181600001600c6101000a81548160ff021916908315150217905550606082015181600001600d6101000a81548160ff021916908315150217905550608082015181600001600e6101000a81548165ffffffffffff021916908365ffffffffffff16021790555060a08201518160010160006101000a81548173ffffffffffffffffffffffffffffffffffffffff021916908373ffffffffffffffffffffffffffffffffffffffff160217905550905050600154600360008673ffffffffffffffffffffffffffffffffffffffff1673ffffffffffffffffffffffffffffffffffffffff168152602001908152602001600020819055505050505050565b600082825260208201905092915050565b7f596f7520616c7265616479206861766520616e20616374697665206a6f75726e60008201527f6579000000000000000000000000000000000000000000000000000000000000602082015250565b600061041c6022836103af565b9150610427826103c0565b604082019050919050565b6000602082019050818103600083015261044b8161040f565b9050919050565b7f4e487b7100000000000000000000000000000000000000000000000000000000600052601160045260246000fd5b6000819050919050565b600061049682610481565b91507fffffffffffffffffffffffffffffffffffffffffffffffffffffffffffffffff82036104c8576104c7610452565b5b600182019050919050565b6122c5806104e26000396000f3fe608060405234801561001057600080fd5b50600436106100cf5760003560e01c80634a79d50c1161008c578063d4c6c86911610066578063d4c6c869146101f7578063da0321cd14610227578063e19f176014610245578063efbe1c1c14610263576100cf565b80634a79d50c146101885780638df5a9fa146101a6578063aa98ff4d146101db576100cf565b80631c9ff6bc146100d45780631f1bd692146100f2578063226c8aca1461011057806328411ae11461012e5780632c73dc4a1461014c57806332ae38481461016a575b600080fd5b6100dc61026d565b6040516100e991906114d9565b60405180910390f35b6100fa61042a565b6040516101079190611584565b60405180910390f35b6101186105ce565b60405161012591906115bf565b60405180910390f35b6101366105d4565b60405161014391906116e6565b60405180910390f35b610154610685565b60405161016191906116e6565b60405180910390f35b61017261068a565b60405161017f91906114d9565b60405180910390f35b61019061086e565b60405161019d9190611584565b60405180910390f35b6101c060048036038101906101bb9190611739565b61088e565b6040516101d2969594939291906117ff565b60405180910390f35b6101f560048036038101906101f0919061188c565b610930565b005b610211600480360381019061020c91906118b9565b61093d565b60405161021e9190611584565b60405180910390f35b61022f610e65565b60405161023c91906119ca565b60405180910390f35b61024d610f0b565b60405161025a91906115bf565b60405180910390f35b61026b610f11565b005b600080600360003373ffffffffffffffffffffffffffffffffffffffff1673ffffffffffffffffffffffffffffffffffffffff16815260200190815260200160002054905060008060008381526020019081526020016000206040518060c00160405290816000820160009054906101000a900460050b60050b60050b81526020016000820160069054906101000a900460050b60050b60050b815260200160008201600c9054906101000a900460ff1615151515815260200160008201600d9054906101000a900460ff1615151515815260200160008201600e9054906101000a900465ffffffffffff1665ffffffffffff1665ffffffffffff1681526020016001820160009054906101000a900473ffffffffffffffffffffffffffffffffffffffff1673ffffffffffffffffffffffffffffffffffffffff1673ffffffffffffffffffffffffffffffffffffffff16815250509050600115158160600151151514610410576040517f08c379a000000000000000000000000000000000000000000000000000000000815260040161040790611a38565b60405180910390fd5b806000015160050b436104239190611a87565b9250505090565b60606000806000600181526020019081526020016000206040518060c00160405290816000820160009054906101000a900460050b60050b60050b81526020016000820160069054906101000a900460050b60050b60050b815260200160008201600c9054906101000a900460ff1615151515815260200160008201600d9054906101000a900460ff1615151515815260200160008201600e9054906101000a900465ffffffffffff1665ffffffffffff1665ffffffffffff1681526020016001820160009054906101000a900473ffffffffffffffffffffffffffffffffffffffff1673ffffffffffffffffffffffffffffffffffffffff1673ffffffffffffffffffffffffffffffffffffffff1681525050905060006050826000015160050b436105579190611aca565b1161057457816000015160050b4361056f9190611aca565b610577565b60505b9050600081836000015160050b4361058f9190611aca565b6105999190611aca565b90506105a76001828461093d565b6040516020016105b79190611da2565b604051602081830303815290604052935050505090565b60025481565b60606000600167ffffffffffffffff8111156105f3576105f2611dd3565b5b60405190808252806020026020018201604052801561062657816020015b60608152602001906001900390816106115790505b5090506040518060400160405280601c81526020017f4c6f7563617320427261636f6e6e6965722028466967757265333129000000008152508160008151811061067357610672611e02565b5b60200260200101819052508091505090565b606090565b600080600360003373ffffffffffffffffffffffffffffffffffffffff1673ffffffffffffffffffffffffffffffffffffffff16815260200190815260200160002054905060008060008381526020019081526020016000206040518060c00160405290816000820160009054906101000a900460050b60050b60050b81526020016000820160069054906101000a900460050b60050b60050b815260200160008201600c9054906101000a900460ff1615151515815260200160008201600d9054906101000a900460ff1615151515815260200160008201600e9054906101000a900465ffffffffffff1665ffffffffffff1665ffffffffffff1681526020016001820160009054906101000a900473ffffffffffffffffffffffffffffffffffffffff1673ffffffffffffffffffffffffffffffffffffffff1673ffffffffffffffffffffffffffffffffffffffff1681525050905060011515816060015115151461082d576040517f08c379a000000000000000000000000000000000000000000000000000000000815260040161082490611a38565b60405180910390fd5b80604001511561084157439250505061086b565b806000015160050b436108549190611a87565b81600001516108639190611e31565b60050b925050505b90565b606060405180606001604052806025815260200161226b60259139905090565b60006020528060005260406000206000915090508060000160009054906101000a900460050b908060000160069054906101000a900460050b9080600001600c9054906101000a900460ff169080600001600d9054906101000a900460ff169080600001600e9054906101000a900465ffffffffffff16908060010160009054906101000a900473ffffffffffffffffffffffffffffffffffffffff16905086565b61093a8133611138565b50565b606060008060008681526020019081526020016000206040518060c00160405290816000820160009054906101000a900460050b60050b60050b81526020016000820160069054906101000a900460050b60050b60050b815260200160008201600c9054906101000a900460ff1615151515815260200160008201600d9054906101000a900460ff1615151515815260200160008201600e9054906101000a900465ffffffffffff1665ffffffffffff1665ffffffffffff1681526020016001820160009054906101000a900473ffffffffffffffffffffffffffffffffffffffff1673ffffffffffffffffffffffffffffffffffffffff1673ffffffffffffffffffffffffffffffffffffffff168152505090506000858260a0015173ffffffffffffffffffffffffffffffffffffffff16610a7a9190611e8f565b9050600086118015610a8e57506001548611155b610acd576040517f08c379a0000000000000000000000000000000000000000000000000000000008152600401610ac490611f0f565b60405180910390fd5b6060600060405180608001604052806040518060400160405280600181526020017f5f0000000000000000000000000000000000000000000000000000000000000081525081526020016040518060400160405280600181526020017f2d0000000000000000000000000000000000000000000000000000000000000081525081526020016040518060400160405280600281526020017fc2af00000000000000000000000000000000000000000000000000000000000081525081526020016040518060400160405280600281526020017fcb87000000000000000000000000000000000000000000000000000000000000815250815250905060008460000151905060008560400151610c145785600001518660600151610bf4578660200151610bf6565b435b610c009190611e31565b8660000151610c0f9190611e31565b610c2a565b8560600151610c27578560200151610c29565b435b5b905060008990505b600115610e545760008760400151610c695763ffffffff8016828560050b610c5a9190611a87565b610c649190611f5e565b610c8a565b63ffffffff8016828560050b610c7f9190611f8f565b610c899190611f5e565b5b90506000734793EbA079D073DF4B10E9A111C3E7eD4b0f5c1c63229d05888360008b604080518563ffffffff1660e01b8152600401610ccc9493929190612072565b602060405180830381865af4158015610ce9573d6000803e3d6000fd5b505050506040513d601f19601f82011682018060405250810190610d0d91906120cc565b9050602b8111610d1d5780610d20565b602b5b905060108111610d31576000610d3f565b601081610d3e9190611aca565b5b9050600b8111610d50576000610d5e565b600b81610d5d9190611aca565b5b9050868660046010600485610d7391906120f9565b610d7d919061213b565b610d879190611f5e565b60048110610d9857610d97611e02565b5b6020020151604051602001610dae92919061216c565b60405160208183030381529060405296508280610dca90612190565b93505088604001518015610e0357508360050b838660050b610dec9190611e8f565b1180610e0257508a8c610dff9190611e8f565b83115b5b80610e4157508860400151158015610e4057508360050b838660050b610e299190611a87565b1280610e3f57508a8c610e3c9190611e8f565b83115b5b5b15610e4d575050610e54565b5050610c32565b849750505050505050509392505050565b60606000600167ffffffffffffffff811115610e8457610e83611dd3565b5b604051908082528060200260200182016040528015610eb25781602001602082028036833780820191505090505b5090503081600081518110610eca57610ec9611e02565b5b602002602001019073ffffffffffffffffffffffffffffffffffffffff16908173ffffffffffffffffffffffffffffffffffffffff16815250508091505090565b60015481565b6000600360003373ffffffffffffffffffffffffffffffffffffffff1673ffffffffffffffffffffffffffffffffffffffff16815260200190815260200160002054905060008060008381526020019081526020016000206040518060c00160405290816000820160009054906101000a900460050b60050b60050b81526020016000820160069054906101000a900460050b60050b60050b815260200160008201600c9054906101000a900460ff1615151515815260200160008201600d9054906101000a900460ff1615151515815260200160008201600e9054906101000a900465ffffffffffff1665ffffffffffff1665ffffffffffff1681526020016001820160009054906101000a900473ffffffffffffffffffffffffffffffffffffffff1673ffffffffffffffffffffffffffffffffffffffff1673ffffffffffffffffffffffffffffffffffffffff168152505090506001151581606001511515146110b3576040517f08c379a00000000000000000000000000000000000000000000000000000000081526004016110aa90611a38565b60405180910390fd5b4360008084815260200190815260200160002060000160066101000a81548165ffffffffffff021916908360050b65ffffffffffff1602179055506000806000848152602001908152602001600020600001600d6101000a81548160ff0219169083151502179055506002600081548092919061112f90612190565b91905055505050565b6000600360008373ffffffffffffffffffffffffffffffffffffffff1673ffffffffffffffffffffffffffffffffffffffff16815260200190815260200160002054905060008060008381526020019081526020016000206040518060c00160405290816000820160009054906101000a900460050b60050b60050b81526020016000820160069054906101000a900460050b60050b60050b815260200160008201600c9054906101000a900460ff1615151515815260200160008201600d9054906101000a900460ff1615151515815260200160008201600e9054906101000a900465ffffffffffff1665ffffffffffff1665ffffffffffff1681526020016001820160009054906101000a900473ffffffffffffffffffffffffffffffffffffffff1673ffffffffffffffffffffffffffffffffffffffff1673ffffffffffffffffffffffffffffffffffffffff168152505090506000151581606001511515146112da576040517f08c379a00000000000000000000000000000000000000000000000000000000081526004016112d19061224a565b60405180910390fd5b600160008154809291906112ed90612190565b919050555060006040518060c001604052804360050b8152602001600060050b815260200186151581526020016001151581526020018465ffffffffffff1681526020018573ffffffffffffffffffffffffffffffffffffffff16815250905080600080600154815260200190815260200160002060008201518160000160006101000a81548165ffffffffffff021916908360050b65ffffffffffff16021790555060208201518160000160066101000a81548165ffffffffffff021916908360050b65ffffffffffff160217905550604082015181600001600c6101000a81548160ff021916908315150217905550606082015181600001600d6101000a81548160ff021916908315150217905550608082015181600001600e6101000a81548165ffffffffffff021916908365ffffffffffff16021790555060a08201518160010160006101000a81548173ffffffffffffffffffffffffffffffffffffffff021916908373ffffffffffffffffffffffffffffffffffffffff160217905550905050600154600360008673ffffffffffffffffffffffffffffffffffffffff1673ffffffffffffffffffffffffffffffffffffffff168152602001908152602001600020819055505050505050565b6000819050919050565b6114d3816114c0565b82525050565b60006020820190506114ee60008301846114ca565b92915050565b600081519050919050565b600082825260208201905092915050565b60005b8381101561152e578082015181840152602081019050611513565b60008484015250505050565b6000601f19601f8301169050919050565b6000611556826114f4565b61156081856114ff565b9350611570818560208601611510565b6115798161153a565b840191505092915050565b6000602082019050818103600083015261159e818461154b565b905092915050565b6000819050919050565b6115b9816115a6565b82525050565b60006020820190506115d460008301846115b0565b92915050565b600081519050919050565b600082825260208201905092915050565b6000819050602082019050919050565b600082825260208201905092915050565b6000611622826114f4565b61162c8185611606565b935061163c818560208601611510565b6116458161153a565b840191505092915050565b600061165c8383611617565b905092915050565b6000602082019050919050565b600061167c826115da565b61168681856115e5565b935083602082028501611698856115f6565b8060005b858110156116d457848403895281516116b58582611650565b94506116c083611664565b925060208a0199505060018101905061169c565b50829750879550505050505092915050565b600060208201905081810360008301526117008184611671565b905092915050565b600080fd5b611716816115a6565b811461172157600080fd5b50565b6000813590506117338161170d565b92915050565b60006020828403121561174f5761174e611708565b5b600061175d84828501611724565b91505092915050565b60008160050b9050919050565b61177c81611766565b82525050565b60008115159050919050565b61179781611782565b82525050565b600065ffffffffffff82169050919050565b6117b88161179d565b82525050565b600073ffffffffffffffffffffffffffffffffffffffff82169050919050565b60006117e9826117be565b9050919050565b6117f9816117de565b82525050565b600060c0820190506118146000830189611773565b6118216020830188611773565b61182e604083018761178e565b61183b606083018661178e565b61184860808301856117af565b61185560a08301846117f0565b979650505050505050565b61186981611782565b811461187457600080fd5b50565b60008135905061188681611860565b92915050565b6000602082840312156118a2576118a1611708565b5b60006118b084828501611877565b91505092915050565b6000806000606084860312156118d2576118d1611708565b5b60006118e086828701611724565b93505060206118f186828701611724565b925050604061190286828701611724565b9150509250925092565b600081519050919050565b600082825260208201905092915050565b6000819050602082019050919050565b611941816117de565b82525050565b60006119538383611938565b60208301905092915050565b6000602082019050919050565b60006119778261190c565b6119818185611917565b935061198c83611928565b8060005b838110156119bd5781516119a48882611947565b97506119af8361195f565b925050600181019050611990565b5085935050505092915050565b600060208201905081810360008301526119e4818461196c565b905092915050565b7f596f7520646f6e2774206861766520616e20616374697665206a6f75726e6579600082015250565b6000611a226020836114ff565b9150611a2d826119ec565b602082019050919050565b60006020820190508181036000830152611a5181611a15565b9050919050565b7f4e487b7100000000000000000000000000000000000000000000000000000000600052601160045260246000fd5b6000611a92826114c0565b9150611a9d836114c0565b9250828203905081811260008412168282136000851215161715611ac457611ac3611a58565b5b92915050565b6000611ad5826115a6565b9150611ae0836115a6565b9250828203905081811115611af857611af7611a58565b5b92915050565b600081905092915050565b7f5468697320636f6e74726163742069732061206d616368696e6520746861742060008201527f6c6179732074696d652e20497420657870616e6473206265796f6e642074686560208201527f20626f756e646172696573206f6620746865206d616368696e65206f6e20776860408201527f696368206974206f706572617465732e2041732074696d6520756e726176656c60608201527f732c2074726176656c6c657273206d61792075736520697420746f206a6f757260808201527f6e657920746f7761726420626f7468207468652066757475726520616e64207460a08201527f686520706173742e204f6e6365206f6e207468697320726f61642c207468656960c08201527f722070726573656e63652073696d756c74616e656f75736c792067656e65726160e08201527f74657320616e64206d61726b7320746865206c616e6473636170652e204e65776101008201527f206c616e6420697320646973636f7665726564207769746820657665727920626101208201527f6c6f636b206f662074696d652c20616e642077697468206561636820706173736101408201527f696e67206461792c20667261676d656e7473206f6620746865736520747261766101608201527f656c6c65727320617265206c65667420626568696e6420666f72206f746865726101808201527f7320746f2062656172207769746e6573732e00000000000000000000000000006101a082015250565b6000611d346101b283611afe565b9150611d3f82611b09565b6101b282019050919050565b7f3c62722f3e3c62722f3e3c62722f3e0000000000000000000000000000000000815250565b6000611d7c826114f4565b611d868185611afe565b9350611d96818560208601611510565b80840191505092915050565b6000611dad82611d26565b9150611db882611d4b565b600f82019150611dc88284611d71565b915081905092915050565b7f4e487b7100000000000000000000000000000000000000000000000000000000600052604160045260246000fd5b7f4e487b7100000000000000000000000000000000000000000000000000000000600052603260045260246000fd5b6000611e3c82611766565b9150611e4783611766565b92508282039050657fffffffffff81137fffffffffffffffffffffffffffffffffffffffffffffffffffff80000000000082121715611e8957611e88611a58565b5b92915050565b6000611e9a826115a6565b9150611ea5836115a6565b9250828201905080821115611ebd57611ebc611a58565b5b92915050565b7f496e76616c6964206a6f75726e657920696e6465780000000000000000000000600082015250565b6000611ef96015836114ff565b9150611f0482611ec3565b602082019050919050565b60006020820190508181036000830152611f2881611eec565b9050919050565b7f4e487b7100000000000000000000000000000000000000000000000000000000600052601260045260246000fd5b6000611f69826115a6565b9150611f74836115a6565b925082611f8457611f83611f2f565b5b828206905092915050565b6000611f9a826114c0565b9150611fa5836114c0565b925082820190508281121560008312168382126000841215161715611fcd57611fcc611a58565b5b92915050565b600063ffffffff82169050919050565b611fec81611fd3565b82525050565b6000819050919050565b6000819050919050565b600061202161201c61201784611ff2565b611ffc565b611fd3565b9050919050565b61203181612006565b82525050565b6000819050919050565b600061205c61205761205284612037565b611ffc565b611fd3565b9050919050565b61206c81612041565b82525050565b60006080820190506120876000830187611fe3565b6120946020830186612028565b6120a16040830185611fe3565b6120ae6060830184612063565b95945050505050565b6000815190506120c68161170d565b92915050565b6000602082840312156120e2576120e1611708565b5b60006120f0848285016120b7565b91505092915050565b6000612104826115a6565b915061210f836115a6565b925082820261211d816115a6565b9150828204841483151761213457612133611a58565b5b5092915050565b6000612146826115a6565b9150612151836115a6565b92508261216157612160611f2f565b5b828204905092915050565b60006121788285611d71565b91506121848284611d71565b91508190509392505050565b600061219b826115a6565b91507fffffffffffffffffffffffffffffffffffffffffffffffffffffffffffffffff82036121cd576121cc611a58565b5b600182019050919050565b7f596f7520616c7265616479206861766520616e20616374697665206a6f75726e60008201527f6579000000000000000000000000000000000000000000000000000000000000602082015250565b60006122346022836114ff565b915061223f826121d8565b604082019050919050565b6000602082019050818103600083015261226381612227565b905091905056fe4465617220476f642c204c61796572206f6620526f616473202854726176656c6c65727329a264697066735822122062aa7fa5820735cd004dde9dcea280c08ec9119f3c3a17ffea58e5d43a3e1c1f64736f6c634300081b0033",
  "deployedBytecode": "0x608060405234801561001057600080fd5b50600436106100cf5760003560e01c80634a79d50c1161008c578063d4c6c86911610066578063d4c6c869146101f7578063da0321cd14610227578063e19f176014610245578063efbe1c1c14610263576100cf565b80634a79d50c146101885780638df5a9fa146101a6578063aa98ff4d146101db576100cf565b80631c9ff6bc146100d45780631f1bd692146100f2578063226c8aca1461011057806328411ae11461012e5780632c73dc4a1461014c57806332ae38481461016a575b600080fd5b6100dc61026d565b6040516100e991906114d9565b60405180910390f35b6100fa61042a565b6040516101079190611584565b60405180910390f35b6101186105ce565b60405161012591906115bf565b60405180910390f35b6101366105d4565b60405161014391906116e6565b60405180910390f35b610154610685565b60405161016191906116e6565b60405180910390f35b61017261068a565b60405161017f91906114d9565b60405180910390f35b61019061086e565b60405161019d9190611584565b60405180910390f35b6101c060048036038101906101bb9190611739565b61088e565b6040516101d2969594939291906117ff565b60405180910390f35b6101f560048036038101906101f0919061188c565b610930565b005b610211600480360381019061020c91906118b9565b61093d565b60405161021e9190611584565b60405180910390f35b61022f610e65565b60405161023c91906119ca565b60405180910390f35b61024d610f0b565b60405161025a91906115bf565b60405180910390f35b61026b610f11565b005b600080600360003373ffffffffffffffffffffffffffffffffffffffff1673ffffffffffffffffffffffffffffffffffffffff16815260200190815260200160002054905060008060008381526020019081526020016000206040518060c00160405290816000820160009054906101000a900460050b60050b60050b81526020016000820160069054906101000a900460050b60050b60050b815260200160008201600c9054906101000a900460ff1615151515815260200160008201600d9054906101000a900460ff1615151515815260200160008201600e9054906101000a900465ffffffffffff1665ffffffffffff1665ffffffffffff1681526020016001820160009054906101000a900473ffffffffffffffffffffffffffffffffffffffff1673ffffffffffffffffffffffffffffffffffffffff1673ffffffffffffffffffffffffffffffffffffffff16815250509050600115158160600151151514610410576040517f08c379a000000000000000000000000000000000000000000000000000000000815260040161040790611a38565b60405180910390fd5b806000015160050b436104239190611a87565b9250505090565b60606000806000600181526020019081526020016000206040518060c00160405290816000820160009054906101000a900460050b60050b60050b81526020016000820160069054906101000a900460050b60050b60050b815260200160008201600c9054906101000a900460ff1615151515815260200160008201600d9054906101000a900460ff1615151515815260200160008201600e9054906101000a900465ffffffffffff1665ffffffffffff1665ffffffffffff1681526020016001820160009054906101000a900473ffffffffffffffffffffffffffffffffffffffff1673ffffffffffffffffffffffffffffffffffffffff1673ffffffffffffffffffffffffffffffffffffffff1681525050905060006050826000015160050b436105579190611aca565b1161057457816000015160050b4361056f9190611aca565b610577565b60505b9050600081836000015160050b4361058f9190611aca565b6105999190611aca565b90506105a76001828461093d565b6040516020016105b79190611da2565b604051602081830303815290604052935050505090565b60025481565b60606000600167ffffffffffffffff8111156105f3576105f2611dd3565b5b60405190808252806020026020018201604052801561062657816020015b60608152602001906001900390816106115790505b5090506040518060400160405280601c81526020017f4c6f7563617320427261636f6e6e6965722028466967757265333129000000008152508160008151811061067357610672611e02565b5b60200260200101819052508091505090565b606090565b600080600360003373ffffffffffffffffffffffffffffffffffffffff1673ffffffffffffffffffffffffffffffffffffffff16815260200190815260200160002054905060008060008381526020019081526020016000206040518060c00160405290816000820160009054906101000a900460050b60050b60050b81526020016000820160069054906101000a900460050b60050b60050b815260200160008201600c9054906101000a900460ff1615151515815260200160008201600d9054906101000a900460ff1615151515815260200160008201600e9054906101000a900465ffffffffffff1665ffffffffffff1665ffffffffffff1681526020016001820160009054906101000a900473ffffffffffffffffffffffffffffffffffffffff1673ffffffffffffffffffffffffffffffffffffffff1673ffffffffffffffffffffffffffffffffffffffff1681525050905060011515816060015115151461082d576040517f08c379a000000000000000000000000000000000000000000000000000000000815260040161082490611a38565b60405180910390fd5b80604001511561084157439250505061086b565b806000015160050b436108549190611a87565b81600001516108639190611e31565b60050b925050505b90565b606060405180606001604052806025815260200161226b60259139905090565b60006020528060005260406000206000915090508060000160009054906101000a900460050b908060000160069054906101000a900460050b9080600001600c9054906101000a900460ff169080600001600d9054906101000a900460ff169080600001600e9054906101000a900465ffffffffffff16908060010160009054906101000a900473ffffffffffffffffffffffffffffffffffffffff16905086565b61093a8133611138565b50565b606060008060008681526020019081526020016000206040518060c00160405290816000820160009054906101000a900460050b60050b60050b81526020016000820160069054906101000a900460050b60050b60050b815260200160008201600c9054906101000a900460ff1615151515815260200160008201600d9054906101000a900460ff1615151515815260200160008201600e9054906101000a900465ffffffffffff1665ffffffffffff1665ffffffffffff1681526020016001820160009054906101000a900473ffffffffffffffffffffffffffffffffffffffff1673ffffffffffffffffffffffffffffffffffffffff1673ffffffffffffffffffffffffffffffffffffffff168152505090506000858260a0015173ffffffffffffffffffffffffffffffffffffffff16610a7a9190611e8f565b9050600086118015610a8e57506001548611155b610acd576040517f08c379a0000000000000000000000000000000000000000000000000000000008152600401610ac490611f0f565b60405180910390fd5b6060600060405180608001604052806040518060400160405280600181526020017f5f0000000000000000000000000000000000000000000000000000000000000081525081526020016040518060400160405280600181526020017f2d0000000000000000000000000000000000000000000000000000000000000081525081526020016040518060400160405280600281526020017fc2af00000000000000000000000000000000000000000000000000000000000081525081526020016040518060400160405280600281526020017fcb87000000000000000000000000000000000000000000000000000000000000815250815250905060008460000151905060008560400151610c145785600001518660600151610bf4578660200151610bf6565b435b610c009190611e31565b8660000151610c0f9190611e31565b610c2a565b8560600151610c27578560200151610c29565b435b5b905060008990505b600115610e545760008760400151610c695763ffffffff8016828560050b610c5a9190611a87565b610c649190611f5e565b610c8a565b63ffffffff8016828560050b610c7f9190611f8f565b610c899190611f5e565b5b9050600073__$1b550baf8c794d785598f248d735640bfe$__63229d05888360008b604080518563ffffffff1660e01b8152600401610ccc9493929190612072565b602060405180830381865af4158015610ce9573d6000803e3d6000fd5b505050506040513d601f19601f82011682018060405250810190610d0d91906120cc565b9050602b8111610d1d5780610d20565b602b5b905060108111610d31576000610d3f565b601081610d3e9190611aca565b5b9050600b8111610d50576000610d5e565b600b81610d5d9190611aca565b5b9050868660046010600485610d7391906120f9565b610d7d919061213b565b610d879190611f5e565b60048110610d9857610d97611e02565b5b6020020151604051602001610dae92919061216c565b60405160208183030381529060405296508280610dca90612190565b93505088604001518015610e0357508360050b838660050b610dec9190611e8f565b1180610e0257508a8c610dff9190611e8f565b83115b5b80610e4157508860400151158015610e4057508360050b838660050b610e299190611a87565b1280610e3f57508a8c610e3c9190611e8f565b83115b5b5b15610e4d575050610e54565b5050610c32565b849750505050505050509392505050565b60606000600167ffffffffffffffff811115610e8457610e83611dd3565b5b604051908082528060200260200182016040528015610eb25781602001602082028036833780820191505090505b5090503081600081518110610eca57610ec9611e02565b5b602002602001019073ffffffffffffffffffffffffffffffffffffffff16908173ffffffffffffffffffffffffffffffffffffffff16815250508091505090565b60015481565b6000600360003373ffffffffffffffffffffffffffffffffffffffff1673ffffffffffffffffffffffffffffffffffffffff16815260200190815260200160002054905060008060008381526020019081526020016000206040518060c00160405290816000820160009054906101000a900460050b60050b60050b81526020016000820160069054906101000a900460050b60050b60050b815260200160008201600c9054906101000a900460ff1615151515815260200160008201600d9054906101000a900460ff1615151515815260200160008201600e9054906101000a900465ffffffffffff1665ffffffffffff1665ffffffffffff1681526020016001820160009054906101000a900473ffffffffffffffffffffffffffffffffffffffff1673ffffffffffffffffffffffffffffffffffffffff1673ffffffffffffffffffffffffffffffffffffffff168152505090506001151581606001511515146110b3576040517f08c379a00000000000000000000000000000000000000000000000000000000081526004016110aa90611a38565b60405180910390fd5b4360008084815260200190815260200160002060000160066101000a81548165ffffffffffff021916908360050b65ffffffffffff1602179055506000806000848152602001908152602001600020600001600d6101000a81548160ff0219169083151502179055506002600081548092919061112f90612190565b91905055505050565b6000600360008373ffffffffffffffffffffffffffffffffffffffff1673ffffffffffffffffffffffffffffffffffffffff16815260200190815260200160002054905060008060008381526020019081526020016000206040518060c00160405290816000820160009054906101000a900460050b60050b60050b81526020016000820160069054906101000a900460050b60050b60050b815260200160008201600c9054906101000a900460ff1615151515815260200160008201600d9054906101000a900460ff1615151515815260200160008201600e9054906101000a900465ffffffffffff1665ffffffffffff1665ffffffffffff1681526020016001820160009054906101000a900473ffffffffffffffffffffffffffffffffffffffff1673ffffffffffffffffffffffffffffffffffffffff1673ffffffffffffffffffffffffffffffffffffffff168152505090506000151581606001511515146112da576040517f08c379a00000000000000000000000000000000000000000000000000000000081526004016112d19061224a565b60405180910390fd5b600160008154809291906112ed90612190565b919050555060006040518060c001604052804360050b8152602001600060050b815260200186151581526020016001151581526020018465ffffffffffff1681526020018573ffffffffffffffffffffffffffffffffffffffff16815250905080600080600154815260200190815260200160002060008201518160000160006101000a81548165ffffffffffff021916908360050b65ffffffffffff16021790555060208201518160000160066101000a81548165ffffffffffff021916908360050b65ffffffffffff160217905550604082015181600001600c6101000a81548160ff021916908315150217905550606082015181600001600d6101000a81548160ff021916908315150217905550608082015181600001600e6101000a81548165ffffffffffff021916908365ffffffffffff16021790555060a08201518160010160006101000a81548173ffffffffffffffffffffffffffffffffffffffff021916908373ffffffffffffffffffffffffffffffffffffffff160217905550905050600154600360008673ffffffffffffffffffffffffffffffffffffffff1673ffffffffffffffffffffffffffffffffffffffff168152602001908152602001600020819055505050505050565b6000819050919050565b6114d3816114c0565b82525050565b60006020820190506114ee60008301846114ca565b92915050565b600081519050919050565b600082825260208201905092915050565b60005b8381101561152e578082015181840152602081019050611513565b60008484015250505050565b6000601f19601f8301169050919050565b6000611556826114f4565b61156081856114ff565b9350611570818560208601611510565b6115798161153a565b840191505092915050565b6000602082019050818103600083015261159e818461154b565b905092915050565b6000819050919050565b6115b9816115a6565b82525050565b60006020820190506115d460008301846115b0565b92915050565b600081519050919050565b600082825260208201905092915050565b6000819050602082019050919050565b600082825260208201905092915050565b6000611622826114f4565b61162c8185611606565b935061163c818560208601611510565b6116458161153a565b840191505092915050565b600061165c8383611617565b905092915050565b6000602082019050919050565b600061167c826115da565b61168681856115e5565b935083602082028501611698856115f6565b8060005b858110156116d457848403895281516116b58582611650565b94506116c083611664565b925060208a0199505060018101905061169c565b50829750879550505050505092915050565b600060208201905081810360008301526117008184611671565b905092915050565b600080fd5b611716816115a6565b811461172157600080fd5b50565b6000813590506117338161170d565b92915050565b60006020828403121561174f5761174e611708565b5b600061175d84828501611724565b91505092915050565b60008160050b9050919050565b61177c81611766565b82525050565b60008115159050919050565b61179781611782565b82525050565b600065ffffffffffff82169050919050565b6117b88161179d565b82525050565b600073ffffffffffffffffffffffffffffffffffffffff82169050919050565b60006117e9826117be565b9050919050565b6117f9816117de565b82525050565b600060c0820190506118146000830189611773565b6118216020830188611773565b61182e604083018761178e565b61183b606083018661178e565b61184860808301856117af565b61185560a08301846117f0565b979650505050505050565b61186981611782565b811461187457600080fd5b50565b60008135905061188681611860565b92915050565b6000602082840312156118a2576118a1611708565b5b60006118b084828501611877565b91505092915050565b6000806000606084860312156118d2576118d1611708565b5b60006118e086828701611724565b93505060206118f186828701611724565b925050604061190286828701611724565b9150509250925092565b600081519050919050565b600082825260208201905092915050565b6000819050602082019050919050565b611941816117de565b82525050565b60006119538383611938565b60208301905092915050565b6000602082019050919050565b60006119778261190c565b6119818185611917565b935061198c83611928565b8060005b838110156119bd5781516119a48882611947565b97506119af8361195f565b925050600181019050611990565b5085935050505092915050565b600060208201905081810360008301526119e4818461196c565b905092915050565b7f596f7520646f6e2774206861766520616e20616374697665206a6f75726e6579600082015250565b6000611a226020836114ff565b9150611a2d826119ec565b602082019050919050565b60006020820190508181036000830152611a5181611a15565b9050919050565b7f4e487b7100000000000000000000000000000000000000000000000000000000600052601160045260246000fd5b6000611a92826114c0565b9150611a9d836114c0565b9250828203905081811260008412168282136000851215161715611ac457611ac3611a58565b5b92915050565b6000611ad5826115a6565b9150611ae0836115a6565b9250828203905081811115611af857611af7611a58565b5b92915050565b600081905092915050565b7f5468697320636f6e74726163742069732061206d616368696e6520746861742060008201527f6c6179732074696d652e20497420657870616e6473206265796f6e642074686560208201527f20626f756e646172696573206f6620746865206d616368696e65206f6e20776860408201527f696368206974206f706572617465732e2041732074696d6520756e726176656c60608201527f732c2074726176656c6c657273206d61792075736520697420746f206a6f757260808201527f6e657920746f7761726420626f7468207468652066757475726520616e64207460a08201527f686520706173742e204f6e6365206f6e207468697320726f61642c207468656960c08201527f722070726573656e63652073696d756c74616e656f75736c792067656e65726160e08201527f74657320616e64206d61726b7320746865206c616e6473636170652e204e65776101008201527f206c616e6420697320646973636f7665726564207769746820657665727920626101208201527f6c6f636b206f662074696d652c20616e642077697468206561636820706173736101408201527f696e67206461792c20667261676d656e7473206f6620746865736520747261766101608201527f656c6c65727320617265206c65667420626568696e6420666f72206f746865726101808201527f7320746f2062656172207769746e6573732e00000000000000000000000000006101a082015250565b6000611d346101b283611afe565b9150611d3f82611b09565b6101b282019050919050565b7f3c62722f3e3c62722f3e3c62722f3e0000000000000000000000000000000000815250565b6000611d7c826114f4565b611d868185611afe565b9350611d96818560208601611510565b80840191505092915050565b6000611dad82611d26565b9150611db882611d4b565b600f82019150611dc88284611d71565b915081905092915050565b7f4e487b7100000000000000000000000000000000000000000000000000000000600052604160045260246000fd5b7f4e487b7100000000000000000000000000000000000000000000000000000000600052603260045260246000fd5b6000611e3c82611766565b9150611e4783611766565b92508282039050657fffffffffff81137fffffffffffffffffffffffffffffffffffffffffffffffffffff80000000000082121715611e8957611e88611a58565b5b92915050565b6000611e9a826115a6565b9150611ea5836115a6565b9250828201905080821115611ebd57611ebc611a58565b5b92915050565b7f496e76616c6964206a6f75726e657920696e6465780000000000000000000000600082015250565b6000611ef96015836114ff565b9150611f0482611ec3565b602082019050919050565b60006020820190508181036000830152611f2881611eec565b9050919050565b7f4e487b7100000000000000000000000000000000000000000000000000000000600052601260045260246000fd5b6000611f69826115a6565b9150611f74836115a6565b925082611f8457611f83611f2f565b5b828206905092915050565b6000611f9a826114c0565b9150611fa5836114c0565b925082820190508281121560008312168382126000841215161715611fcd57611fcc611a58565b5b92915050565b600063ffffffff82169050919050565b611fec81611fd3565b82525050565b6000819050919050565b6000819050919050565b600061202161201c61201784611ff2565b611ffc565b611fd3565b9050919050565b61203181612006565b82525050565b6000819050919050565b600061205c61205761205284612037565b611ffc565b611fd3565b9050919050565b61206c81612041565b82525050565b60006080820190506120876000830187611fe3565b6120946020830186612028565b6120a16040830185611fe3565b6120ae6060830184612063565b95945050505050565b6000815190506120c68161170d565b92915050565b6000602082840312156120e2576120e1611708565b5b60006120f0848285016120b7565b91505092915050565b6000612104826115a6565b915061210f836115a6565b925082820261211d816115a6565b9150828204841483151761213457612133611a58565b5b5092915050565b6000612146826115a6565b9150612151836115a6565b92508261216157612160611f2f565b5b828204905092915050565b60006121788285611d71565b91506121848284611d71565b91508190509392505050565b600061219b826115a6565b91507fffffffffffffffffffffffffffffffffffffffffffffffffffffffffffffffff82036121cd576121cc611a58565b5b600182019050919050565b7f596f7520616c7265616479206861766520616e20616374697665206a6f75726e60008201527f6579000000000000000000000000000000000000000000000000000000000000602082015250565b60006122346022836114ff565b915061223f826121d8565b604082019050919050565b6000602082019050818103600083015261226381612227565b905091905056fe4465617220476f642c204c61796572206f6620526f616473202854726176656c6c65727329a264697066735822122062aa7fa5820735cd004dde9dcea280c08ec9119f3c3a17ffea58e5d43a3e1c1f64736f6c634300081b0033",
  "libraries": {
    "Perlin": "0x4793EbA079D073DF4B10E9A111C3E7eD4b0f5c1c"
  },
  "devdoc": {
    "kind": "dev",
    "methods": {},
    "version": 1
  },
  "userdoc": {
    "kind": "user",
    "methods": {},
    "version": 1
  },
  "storageLayout": {
    "storage": [
      {
        "astId": 3663,
        "contract": "contracts/placeholders/Travel.sol:Travel",
        "label": "journeys",
        "offset": 0,
        "slot": "0",
        "type": "t_mapping(t_uint256,t_struct(Journey)3658_storage)"
      },
      {
        "astId": 3665,
        "contract": "contracts/placeholders/Travel.sol:Travel",
        "label": "journeyCount",
        "offset": 0,
        "slot": "1",
        "type": "t_uint256"
      },
      {
        "astId": 3667,
        "contract": "contracts/placeholders/Travel.sol:Travel",
        "label": "journeyCompletedCount",
        "offset": 0,
        "slot": "2",
        "type": "t_uint256"
      },
      {
        "astId": 3671,
        "contract": "contracts/placeholders/Travel.sol:Travel",
        "label": "travellerCurrentJourney",
        "offset": 0,
        "slot": "3",
        "type": "t_mapping(t_address,t_uint256)"
      }
    ],
    "types": {
      "t_address": {
        "encoding": "inplace",
        "label": "address",
        "numberOfBytes": "20"
      },
      "t_bool": {
        "encoding": "inplace",
        "label": "bool",
        "numberOfBytes": "1"
      },
      "t_int48": {
        "encoding": "inplace",
        "label": "int48",
        "numberOfBytes": "6"
      },
      "t_mapping(t_address,t_uint256)": {
        "encoding": "mapping",
        "key": "t_address",
        "label": "mapping(address => uint256)",
        "numberOfBytes": "32",
        "value": "t_uint256"
      },
      "t_mapping(t_uint256,t_struct(Journey)3658_storage)": {
        "encoding": "mapping",
        "key": "t_uint256",
        "label": "mapping(uint256 => struct Travel.Journey)",
        "numberOfBytes": "32",
        "value": "t_struct(Journey)3658_storage"
      },
      "t_struct(Journey)3658_storage": {
        "encoding": "inplace",
        "label": "struct Travel.Journey",
        "members": [
          {
            "astId": 3647,
            "contract": "contracts/placeholders/Travel.sol:Travel",
            "label": "fromBlock",
            "offset": 0,
            "slot": "0",
            "type": "t_int48"
          },
          {
            "astId": 3649,
            "contract": "contracts/placeholders/Travel.sol:Travel",
            "label": "toBlock",
            "offset": 6,
            "slot": "0",
            "type": "t_int48"
          },
          {
            "astId": 3651,
            "contract": "contracts/placeholders/Travel.sol:Travel",
            "label": "forward",
            "offset": 12,
            "slot": "0",
            "type": "t_bool"
          },
          {
            "astId": 3653,
            "contract": "contracts/placeholders/Travel.sol:Travel",
            "label": "active",
            "offset": 13,
            "slot": "0",
            "type": "t_bool"
          },
          {
            "astId": 3655,
            "contract": "contracts/placeholders/Travel.sol:Travel",
            "label": "previousIndex",
            "offset": 14,
            "slot": "0",
            "type": "t_uint48"
          },
          {
            "astId": 3657,
            "contract": "contracts/placeholders/Travel.sol:Travel",
            "label": "traveller",
            "offset": 0,
            "slot": "1",
            "type": "t_address"
          }
        ],
        "numberOfBytes": "64"
      },
      "t_uint256": {
        "encoding": "inplace",
        "label": "uint256",
        "numberOfBytes": "32"
      },
      "t_uint48": {
        "encoding": "inplace",
        "label": "uint48",
        "numberOfBytes": "6"
      }
    }
  }
}