{
  "address": "0x093f2244667F9646D783bf6C27486421243aF5c1",
  "abi": [
    {
      "inputs": [],
      "stateMutability": "nonpayable",
      "type": "constructor"
    },
    {
      "inputs": [],
      "name": "addresses",
      "outputs": [
        {
          "internalType": "address[]",
          "name": "",
          "type": "address[]"
        }
      ],
      "stateMutability": "view",
      "type": "function"
    },
    {
      "inputs": [],
      "name": "authors",
      "outputs": [
        {
          "internalType": "string[]",
          "name": "",
          "type": "string[]"
        }
      ],
      "stateMutability": "view",
      "type": "function"
    },
    {
      "inputs": [],
      "name": "begin",
      "outputs": [],
      "stateMutability": "nonpayable",
      "type": "function"
    },
    {
      "inputs": [
        {
          "internalType": "address",
          "name": "traveller",
          "type": "address"
        }
      ],
      "name": "begin",
      "outputs": [],
      "stateMutability": "nonpayable",
      "type": "function"
    },
    {
      "inputs": [
        {
          "internalType": "bool",
          "name": "direction",
          "type": "bool"
        }
      ],
      "name": "begin",
      "outputs": [],
      "stateMutability": "nonpayable",
      "type": "function"
    },
    {
      "inputs": [],
      "name": "end",
      "outputs": [],
      "stateMutability": "nonpayable",
      "type": "function"
    },
    {
      "inputs": [],
      "name": "howFarHaveICome",
      "outputs": [
        {
          "internalType": "int256",
          "name": "",
          "type": "int256"
        }
      ],
      "stateMutability": "view",
      "type": "function"
    },
    {
      "inputs": [],
      "name": "journeyCompletedCount",
      "outputs": [
        {
          "internalType": "uint256",
          "name": "",
          "type": "uint256"
        }
      ],
      "stateMutability": "view",
      "type": "function"
    },
    {
      "inputs": [],
      "name": "journeyCount",
      "outputs": [
        {
          "internalType": "uint256",
          "name": "",
          "type": "uint256"
        }
      ],
      "stateMutability": "view",
      "type": "function"
    },
    {
      "inputs": [
        {
          "internalType": "uint256",
          "name": "",
          "type": "uint256"
        }
      ],
      "name": "journeys",
      "outputs": [
        {
          "internalType": "int48",
          "name": "fromBlock",
          "type": "int48"
        },
        {
          "internalType": "int48",
          "name": "toBlock",
          "type": "int48"
        },
        {
          "internalType": "bool",
          "name": "forward",
          "type": "bool"
        },
        {
          "internalType": "bool",
          "name": "active",
          "type": "bool"
        },
        {
          "internalType": "uint48",
          "name": "previousIndex",
          "type": "uint48"
        },
        {
          "internalType": "address",
          "name": "traveller",
          "type": "address"
        }
      ],
      "stateMutability": "view",
      "type": "function"
    },
    {
      "inputs": [
        {
          "internalType": "uint256",
          "name": "index",
          "type": "uint256"
        },
        {
          "internalType": "uint256",
          "name": "offset",
          "type": "uint256"
        },
        {
          "internalType": "uint256",
          "name": "limit",
          "type": "uint256"
        }
      ],
      "name": "landscape",
      "outputs": [
        {
          "internalType": "string",
          "name": "",
          "type": "string"
        }
      ],
      "stateMutability": "view",
      "type": "function"
    },
    {
      "inputs": [],
      "name": "text",
      "outputs": [
        {
          "internalType": "string",
          "name": "",
          "type": "string"
        }
      ],
      "stateMutability": "view",
      "type": "function"
    },
    {
      "inputs": [],
      "name": "title",
      "outputs": [
        {
          "internalType": "string",
          "name": "",
          "type": "string"
        }
      ],
      "stateMutability": "view",
      "type": "function"
    },
    {
      "inputs": [],
      "name": "urls",
      "outputs": [
        {
          "internalType": "string[]",
          "name": "",
          "type": "string[]"
        }
      ],
      "stateMutability": "view",
      "type": "function"
    },
    {
      "inputs": [],
      "name": "whereAmI",
      "outputs": [
        {
          "internalType": "int256",
          "name": "",
          "type": "int256"
        }
      ],
      "stateMutability": "view",
      "type": "function"
    }
  ],
  "transactionHash": "0xc1640ff06ffc9125dc20844ed8b33b15530f16325e9e960d71b85aae1a6d2617",
  "args": [],
  "numDeployments": 3,
  "solcInputHash": "f18fa6e93d223df61289a0a0a415e623",
  "bytecode": "0x608060405234801561001057600080fd5b5061002230600161002760201b60201c565b6104d3565b6000600360008473ffffffffffffffffffffffffffffffffffffffff1673ffffffffffffffffffffffffffffffffffffffff16815260200190815260200160002054905060008060008381526020019081526020016000206040518060c00160405290816000820160009054906101000a900460050b60050b60050b81526020016000820160069054906101000a900460050b60050b60050b815260200160008201600c9054906101000a900460ff1615151515815260200160008201600d9054906101000a900460ff1615151515815260200160008201600e9054906101000a900465ffffffffffff1665ffffffffffff1665ffffffffffff1681526020016001820160009054906101000a900473ffffffffffffffffffffffffffffffffffffffff1673ffffffffffffffffffffffffffffffffffffffff1673ffffffffffffffffffffffffffffffffffffffff168152505090506000151581606001511515146101c9576040517f08c379a00000000000000000000000000000000000000000000000000000000081526004016101c090610432565b60405180910390fd5b600160008154809291906101dc9061048b565b919050555060006040518060c001604052804360050b8152602001600060050b815260200185151581526020016001151581526020018465ffffffffffff1681526020018673ffffffffffffffffffffffffffffffffffffffff16815250905080600080600154815260200190815260200160002060008201518160000160006101000a81548165ffffffffffff021916908360050b65ffffffffffff16021790555060208201518160000160066101000a81548165ffffffffffff021916908360050b65ffffffffffff160217905550604082015181600001600c6101000a81548160ff021916908315150217905550606082015181600001600d6101000a81548160ff021916908315150217905550608082015181600001600e6101000a81548165ffffffffffff021916908365ffffffffffff16021790555060a08201518160010160006101000a81548173ffffffffffffffffffffffffffffffffffffffff021916908373ffffffffffffffffffffffffffffffffffffffff160217905550905050600154600360008773ffffffffffffffffffffffffffffffffffffffff1673ffffffffffffffffffffffffffffffffffffffff168152602001908152602001600020819055505050505050565b600082825260208201905092915050565b7f596f7520616c7265616479206861766520616e20616374697665206a6f75726e60008201527f6579000000000000000000000000000000000000000000000000000000000000602082015250565b600061041c6022836103af565b9150610427826103c0565b604082019050919050565b6000602082019050818103600083015261044b8161040f565b9050919050565b7f4e487b7100000000000000000000000000000000000000000000000000000000600052601160045260246000fd5b6000819050919050565b600061049682610481565b91507fffffffffffffffffffffffffffffffffffffffffffffffffffffffffffffffff82036104c8576104c7610452565b5b600182019050919050565b612349806104e26000396000f3fe608060405234801561001057600080fd5b50600436106100f55760003560e01c80634a79d50c11610097578063d4c6c86911610066578063d4c6c86914610243578063da0321cd14610273578063e19f176014610291578063efbe1c1c146102af576100f5565b80634a79d50c146101b857806354abe9d0146101d65780638df5a9fa146101f2578063aa98ff4d14610227576100f5565b8063226c8aca116100d3578063226c8aca1461014057806328411ae11461015e5780632c73dc4a1461017c57806332ae38481461019a576100f5565b80631bce6ff3146100fa5780631c9ff6bc146101045780631f1bd69214610122575b600080fd5b6101026102b9565b005b61010c6102c6565b604051610119919061153f565b60405180910390f35b61012a610483565b60405161013791906115ea565b60405180910390f35b610148610627565b6040516101559190611625565b60405180910390f35b61016661062d565b604051610173919061174c565b60405180910390f35b6101846106de565b604051610191919061174c565b60405180910390f35b6101a26106e3565b6040516101af919061153f565b60405180910390f35b6101c06108c7565b6040516101cd91906115ea565b60405180910390f35b6101f060048036038101906101eb91906117d1565b6108e7565b005b61020c6004803603810190610207919061182a565b6108f5565b60405161021e969594939291906118be565b60405180910390f35b610241600480360381019061023c919061194b565b610997565b005b61025d60048036038101906102589190611978565b6109a4565b60405161026a91906115ea565b60405180910390f35b61027b610ecb565b6040516102889190611a89565b60405180910390f35b610299610f71565b6040516102a69190611625565b60405180910390f35b6102b7610f77565b005b6102c433600161119e565b565b600080600360003373ffffffffffffffffffffffffffffffffffffffff1673ffffffffffffffffffffffffffffffffffffffff16815260200190815260200160002054905060008060008381526020019081526020016000206040518060c00160405290816000820160009054906101000a900460050b60050b60050b81526020016000820160069054906101000a900460050b60050b60050b815260200160008201600c9054906101000a900460ff1615151515815260200160008201600d9054906101000a900460ff1615151515815260200160008201600e9054906101000a900465ffffffffffff1665ffffffffffff1665ffffffffffff1681526020016001820160009054906101000a900473ffffffffffffffffffffffffffffffffffffffff1673ffffffffffffffffffffffffffffffffffffffff1673ffffffffffffffffffffffffffffffffffffffff16815250509050600115158160600151151514610469576040517f08c379a000000000000000000000000000000000000000000000000000000000815260040161046090611af7565b60405180910390fd5b806000015160050b4361047c9190611b46565b9250505090565b60606000806000600181526020019081526020016000206040518060c00160405290816000820160009054906101000a900460050b60050b60050b81526020016000820160069054906101000a900460050b60050b60050b815260200160008201600c9054906101000a900460ff1615151515815260200160008201600d9054906101000a900460ff1615151515815260200160008201600e9054906101000a900465ffffffffffff1665ffffffffffff1665ffffffffffff1681526020016001820160009054906101000a900473ffffffffffffffffffffffffffffffffffffffff1673ffffffffffffffffffffffffffffffffffffffff1673ffffffffffffffffffffffffffffffffffffffff1681525050905060006050826000015160050b436105b09190611b89565b116105cd57816000015160050b436105c89190611b89565b6105d0565b60505b9050600081836000015160050b436105e89190611b89565b6105f29190611b89565b9050610600600182846109a4565b6040516020016106109190611e61565b604051602081830303815290604052935050505090565b60025481565b60606000600167ffffffffffffffff81111561064c5761064b611e92565b5b60405190808252806020026020018201604052801561067f57816020015b606081526020019060019003908161066a5790505b5090506040518060400160405280601c81526020017f4c6f7563617320427261636f6e6e696572202846696775726533312900000000815250816000815181106106cc576106cb611ec1565b5b60200260200101819052508091505090565b606090565b600080600360003373ffffffffffffffffffffffffffffffffffffffff1673ffffffffffffffffffffffffffffffffffffffff16815260200190815260200160002054905060008060008381526020019081526020016000206040518060c00160405290816000820160009054906101000a900460050b60050b60050b81526020016000820160069054906101000a900460050b60050b60050b815260200160008201600c9054906101000a900460ff1615151515815260200160008201600d9054906101000a900460ff1615151515815260200160008201600e9054906101000a900465ffffffffffff1665ffffffffffff1665ffffffffffff1681526020016001820160009054906101000a900473ffffffffffffffffffffffffffffffffffffffff1673ffffffffffffffffffffffffffffffffffffffff1673ffffffffffffffffffffffffffffffffffffffff16815250509050600115158160600151151514610886576040517f08c379a000000000000000000000000000000000000000000000000000000000815260040161087d90611af7565b60405180910390fd5b80604001511561089a5743925050506108c4565b806000015160050b436108ad9190611b46565b81600001516108bc9190611ef0565b60050b925050505b90565b60606040518060600160405280602581526020016122ef60259139905090565b6108f281600161119e565b50565b60006020528060005260406000206000915090508060000160009054906101000a900460050b908060000160069054906101000a900460050b9080600001600c9054906101000a900460ff169080600001600d9054906101000a900460ff169080600001600e9054906101000a900465ffffffffffff16908060010160009054906101000a900473ffffffffffffffffffffffffffffffffffffffff16905086565b6109a1338261119e565b50565b606060008060008681526020019081526020016000206040518060c00160405290816000820160009054906101000a900460050b60050b60050b81526020016000820160069054906101000a900460050b60050b60050b815260200160008201600c9054906101000a900460ff1615151515815260200160008201600d9054906101000a900460ff1615151515815260200160008201600e9054906101000a900465ffffffffffff1665ffffffffffff1665ffffffffffff1681526020016001820160009054906101000a900473ffffffffffffffffffffffffffffffffffffffff1673ffffffffffffffffffffffffffffffffffffffff1673ffffffffffffffffffffffffffffffffffffffff168152505090506000858260a0015173ffffffffffffffffffffffffffffffffffffffff16610ae19190611f4e565b9050600086118015610af557506001548611155b610b34576040517f08c379a0000000000000000000000000000000000000000000000000000000008152600401610b2b90611fce565b60405180910390fd5b6060600060405180608001604052806040518060400160405280600181526020017f5f0000000000000000000000000000000000000000000000000000000000000081525081526020016040518060400160405280600181526020017f2d0000000000000000000000000000000000000000000000000000000000000081525081526020016040518060400160405280600281526020017fc2af00000000000000000000000000000000000000000000000000000000000081525081526020016040518060400160405280600281526020017fcb87000000000000000000000000000000000000000000000000000000000000815250815250905060008460000151905060008560400151610c7b5785600001518660600151610c5b578660200151610c5d565b435b610c679190611ef0565b8660000151610c769190611ef0565b610c91565b8560600151610c8e578560200151610c90565b435b5b905060008990505b600115610eba5760008760400151610cd05763ffffffff8016828560050b610cc19190611b46565b610ccb919061201d565b610cf1565b63ffffffff8016828560050b610ce6919061204e565b610cf0919061201d565b5b9050600073ea7A817577231B8B08CC8EB3f9438FD118d00D3D63229d0588838f8b604080518563ffffffff1660e01b8152600401610d3294939291906120f6565b602060405180830381865af4158015610d4f573d6000803e3d6000fd5b505050506040513d601f19601f82011682018060405250810190610d739190612150565b9050602b8111610d835780610d86565b602b5b905060108111610d97576000610da5565b601081610da49190611b89565b5b9050600b8111610db6576000610dc4565b600b81610dc39190611b89565b5b9050868660046010600485610dd9919061217d565b610de391906121bf565b610ded919061201d565b60048110610dfe57610dfd611ec1565b5b6020020151604051602001610e149291906121f0565b60405160208183030381529060405296508280610e3090612214565b93505088604001518015610e6957508360050b838660050b610e529190611f4e565b1180610e6857508a8c610e659190611f4e565b83115b5b80610ea757508860400151158015610ea657508360050b838660050b610e8f9190611b46565b1280610ea557508a8c610ea29190611f4e565b83115b5b5b15610eb3575050610eba565b5050610c99565b849750505050505050509392505050565b60606000600167ffffffffffffffff811115610eea57610ee9611e92565b5b604051908082528060200260200182016040528015610f185781602001602082028036833780820191505090505b5090503081600081518110610f3057610f2f611ec1565b5b602002602001019073ffffffffffffffffffffffffffffffffffffffff16908173ffffffffffffffffffffffffffffffffffffffff16815250508091505090565b60015481565b6000600360003373ffffffffffffffffffffffffffffffffffffffff1673ffffffffffffffffffffffffffffffffffffffff16815260200190815260200160002054905060008060008381526020019081526020016000206040518060c00160405290816000820160009054906101000a900460050b60050b60050b81526020016000820160069054906101000a900460050b60050b60050b815260200160008201600c9054906101000a900460ff1615151515815260200160008201600d9054906101000a900460ff1615151515815260200160008201600e9054906101000a900465ffffffffffff1665ffffffffffff1665ffffffffffff1681526020016001820160009054906101000a900473ffffffffffffffffffffffffffffffffffffffff1673ffffffffffffffffffffffffffffffffffffffff1673ffffffffffffffffffffffffffffffffffffffff16815250509050600115158160600151151514611119576040517f08c379a000000000000000000000000000000000000000000000000000000000815260040161111090611af7565b60405180910390fd5b4360008084815260200190815260200160002060000160066101000a81548165ffffffffffff021916908360050b65ffffffffffff1602179055506000806000848152602001908152602001600020600001600d6101000a81548160ff0219169083151502179055506002600081548092919061119590612214565b91905055505050565b6000600360008473ffffffffffffffffffffffffffffffffffffffff1673ffffffffffffffffffffffffffffffffffffffff16815260200190815260200160002054905060008060008381526020019081526020016000206040518060c00160405290816000820160009054906101000a900460050b60050b60050b81526020016000820160069054906101000a900460050b60050b60050b815260200160008201600c9054906101000a900460ff1615151515815260200160008201600d9054906101000a900460ff1615151515815260200160008201600e9054906101000a900465ffffffffffff1665ffffffffffff1665ffffffffffff1681526020016001820160009054906101000a900473ffffffffffffffffffffffffffffffffffffffff1673ffffffffffffffffffffffffffffffffffffffff1673ffffffffffffffffffffffffffffffffffffffff16815250509050600015158160600151151514611340576040517f08c379a0000000000000000000000000000000000000000000000000000000008152600401611337906122ce565b60405180910390fd5b6001600081548092919061135390612214565b919050555060006040518060c001604052804360050b8152602001600060050b815260200185151581526020016001151581526020018465ffffffffffff1681526020018673ffffffffffffffffffffffffffffffffffffffff16815250905080600080600154815260200190815260200160002060008201518160000160006101000a81548165ffffffffffff021916908360050b65ffffffffffff16021790555060208201518160000160066101000a81548165ffffffffffff021916908360050b65ffffffffffff160217905550604082015181600001600c6101000a81548160ff021916908315150217905550606082015181600001600d6101000a81548160ff021916908315150217905550608082015181600001600e6101000a81548165ffffffffffff021916908365ffffffffffff16021790555060a08201518160010160006101000a81548173ffffffffffffffffffffffffffffffffffffffff021916908373ffffffffffffffffffffffffffffffffffffffff160217905550905050600154600360008773ffffffffffffffffffffffffffffffffffffffff1673ffffffffffffffffffffffffffffffffffffffff168152602001908152602001600020819055505050505050565b6000819050919050565b61153981611526565b82525050565b60006020820190506115546000830184611530565b92915050565b600081519050919050565b600082825260208201905092915050565b60005b83811015611594578082015181840152602081019050611579565b60008484015250505050565b6000601f19601f8301169050919050565b60006115bc8261155a565b6115c68185611565565b93506115d6818560208601611576565b6115df816115a0565b840191505092915050565b6000602082019050818103600083015261160481846115b1565b905092915050565b6000819050919050565b61161f8161160c565b82525050565b600060208201905061163a6000830184611616565b92915050565b600081519050919050565b600082825260208201905092915050565b6000819050602082019050919050565b600082825260208201905092915050565b60006116888261155a565b611692818561166c565b93506116a2818560208601611576565b6116ab816115a0565b840191505092915050565b60006116c2838361167d565b905092915050565b6000602082019050919050565b60006116e282611640565b6116ec818561164b565b9350836020820285016116fe8561165c565b8060005b8581101561173a578484038952815161171b85826116b6565b9450611726836116ca565b925060208a01995050600181019050611702565b50829750879550505050505092915050565b6000602082019050818103600083015261176681846116d7565b905092915050565b600080fd5b600073ffffffffffffffffffffffffffffffffffffffff82169050919050565b600061179e82611773565b9050919050565b6117ae81611793565b81146117b957600080fd5b50565b6000813590506117cb816117a5565b92915050565b6000602082840312156117e7576117e661176e565b5b60006117f5848285016117bc565b91505092915050565b6118078161160c565b811461181257600080fd5b50565b600081359050611824816117fe565b92915050565b6000602082840312156118405761183f61176e565b5b600061184e84828501611815565b91505092915050565b60008160050b9050919050565b61186d81611857565b82525050565b60008115159050919050565b61188881611873565b82525050565b600065ffffffffffff82169050919050565b6118a98161188e565b82525050565b6118b881611793565b82525050565b600060c0820190506118d36000830189611864565b6118e06020830188611864565b6118ed604083018761187f565b6118fa606083018661187f565b61190760808301856118a0565b61191460a08301846118af565b979650505050505050565b61192881611873565b811461193357600080fd5b50565b6000813590506119458161191f565b92915050565b6000602082840312156119615761196061176e565b5b600061196f84828501611936565b91505092915050565b6000806000606084860312156119915761199061176e565b5b600061199f86828701611815565b93505060206119b086828701611815565b92505060406119c186828701611815565b9150509250925092565b600081519050919050565b600082825260208201905092915050565b6000819050602082019050919050565b611a0081611793565b82525050565b6000611a1283836119f7565b60208301905092915050565b6000602082019050919050565b6000611a36826119cb565b611a4081856119d6565b9350611a4b836119e7565b8060005b83811015611a7c578151611a638882611a06565b9750611a6e83611a1e565b925050600181019050611a4f565b5085935050505092915050565b60006020820190508181036000830152611aa38184611a2b565b905092915050565b7f596f7520646f6e2774206861766520616e20616374697665206a6f75726e6579600082015250565b6000611ae1602083611565565b9150611aec82611aab565b602082019050919050565b60006020820190508181036000830152611b1081611ad4565b9050919050565b7f4e487b7100000000000000000000000000000000000000000000000000000000600052601160045260246000fd5b6000611b5182611526565b9150611b5c83611526565b9250828203905081811260008412168282136000851215161715611b8357611b82611b17565b5b92915050565b6000611b948261160c565b9150611b9f8361160c565b9250828203905081811115611bb757611bb6611b17565b5b92915050565b600081905092915050565b7f5468697320636f6e74726163742069732061206d616368696e6520746861742060008201527f6c6179732074696d652e20497420657870616e6473206265796f6e642074686560208201527f20626f756e646172696573206f6620746865206d616368696e65206f6e20776860408201527f696368206974206f706572617465732e2041732074696d6520756e726176656c60608201527f732c2074726176656c6c657273206d61792075736520697420746f206a6f757260808201527f6e657920746f7761726420626f7468207468652066757475726520616e64207460a08201527f686520706173742e204f6e6365206f6e207468697320726f61642c207468656960c08201527f722070726573656e63652073696d756c74616e656f75736c792067656e65726160e08201527f74657320616e64206d61726b7320746865206c616e6473636170652e204e65776101008201527f206c616e6420697320646973636f7665726564207769746820657665727920626101208201527f6c6f636b206f662074696d652c20616e642077697468206561636820706173736101408201527f696e67206461792c20667261676d656e7473206f6620746865736520747261766101608201527f656c6c65727320617265206c65667420626568696e6420666f72206f746865726101808201527f7320746f2062656172207769746e6573732e00000000000000000000000000006101a082015250565b6000611df36101b283611bbd565b9150611dfe82611bc8565b6101b282019050919050565b7f3c62722f3e3c62722f3e3c62722f3e0000000000000000000000000000000000815250565b6000611e3b8261155a565b611e458185611bbd565b9350611e55818560208601611576565b80840191505092915050565b6000611e6c82611de5565b9150611e7782611e0a565b600f82019150611e878284611e30565b915081905092915050565b7f4e487b7100000000000000000000000000000000000000000000000000000000600052604160045260246000fd5b7f4e487b7100000000000000000000000000000000000000000000000000000000600052603260045260246000fd5b6000611efb82611857565b9150611f0683611857565b92508282039050657fffffffffff81137fffffffffffffffffffffffffffffffffffffffffffffffffffff80000000000082121715611f4857611f47611b17565b5b92915050565b6000611f598261160c565b9150611f648361160c565b9250828201905080821115611f7c57611f7b611b17565b5b92915050565b7f496e76616c6964206a6f75726e657920696e6465780000000000000000000000600082015250565b6000611fb8601583611565565b9150611fc382611f82565b602082019050919050565b60006020820190508181036000830152611fe781611fab565b9050919050565b7f4e487b7100000000000000000000000000000000000000000000000000000000600052601260045260246000fd5b60006120288261160c565b91506120338361160c565b92508261204357612042611fee565b5b828206905092915050565b600061205982611526565b915061206483611526565b92508282019050828112156000831216838212600084121516171561208c5761208b611b17565b5b92915050565b600063ffffffff82169050919050565b6120ab81612092565b82525050565b6000819050919050565b6000819050919050565b60006120e06120db6120d6846120b1565b6120bb565b612092565b9050919050565b6120f0816120c5565b82525050565b600060808201905061210b60008301876120a2565b61211860208301866120a2565b61212560408301856120a2565b61213260608301846120e7565b95945050505050565b60008151905061214a816117fe565b92915050565b6000602082840312156121665761216561176e565b5b60006121748482850161213b565b91505092915050565b60006121888261160c565b91506121938361160c565b92508282026121a18161160c565b915082820484148315176121b8576121b7611b17565b5b5092915050565b60006121ca8261160c565b91506121d58361160c565b9250826121e5576121e4611fee565b5b828204905092915050565b60006121fc8285611e30565b91506122088284611e30565b91508190509392505050565b600061221f8261160c565b91507fffffffffffffffffffffffffffffffffffffffffffffffffffffffffffffffff820361225157612250611b17565b5b600182019050919050565b7f596f7520616c7265616479206861766520616e20616374697665206a6f75726e60008201527f6579000000000000000000000000000000000000000000000000000000000000602082015250565b60006122b8602283611565565b91506122c38261225c565b604082019050919050565b600060208201905081810360008301526122e7816122ab565b905091905056fe4465617220476f642c204c61796572206f6620526f616473202854726176656c6c65727329a2646970667358221220a32610d6f201a0bb0a8521b25534f9bda5e6ba82359fa45c000c447a7dcabef364736f6c634300081c0033",
  "deployedBytecode": "0x608060405234801561001057600080fd5b50600436106100f55760003560e01c80634a79d50c11610097578063d4c6c86911610066578063d4c6c86914610243578063da0321cd14610273578063e19f176014610291578063efbe1c1c146102af576100f5565b80634a79d50c146101b857806354abe9d0146101d65780638df5a9fa146101f2578063aa98ff4d14610227576100f5565b8063226c8aca116100d3578063226c8aca1461014057806328411ae11461015e5780632c73dc4a1461017c57806332ae38481461019a576100f5565b80631bce6ff3146100fa5780631c9ff6bc146101045780631f1bd69214610122575b600080fd5b6101026102b9565b005b61010c6102c6565b604051610119919061153f565b60405180910390f35b61012a610483565b60405161013791906115ea565b60405180910390f35b610148610627565b6040516101559190611625565b60405180910390f35b61016661062d565b604051610173919061174c565b60405180910390f35b6101846106de565b604051610191919061174c565b60405180910390f35b6101a26106e3565b6040516101af919061153f565b60405180910390f35b6101c06108c7565b6040516101cd91906115ea565b60405180910390f35b6101f060048036038101906101eb91906117d1565b6108e7565b005b61020c6004803603810190610207919061182a565b6108f5565b60405161021e969594939291906118be565b60405180910390f35b610241600480360381019061023c919061194b565b610997565b005b61025d60048036038101906102589190611978565b6109a4565b60405161026a91906115ea565b60405180910390f35b61027b610ecb565b6040516102889190611a89565b60405180910390f35b610299610f71565b6040516102a69190611625565b60405180910390f35b6102b7610f77565b005b6102c433600161119e565b565b600080600360003373ffffffffffffffffffffffffffffffffffffffff1673ffffffffffffffffffffffffffffffffffffffff16815260200190815260200160002054905060008060008381526020019081526020016000206040518060c00160405290816000820160009054906101000a900460050b60050b60050b81526020016000820160069054906101000a900460050b60050b60050b815260200160008201600c9054906101000a900460ff1615151515815260200160008201600d9054906101000a900460ff1615151515815260200160008201600e9054906101000a900465ffffffffffff1665ffffffffffff1665ffffffffffff1681526020016001820160009054906101000a900473ffffffffffffffffffffffffffffffffffffffff1673ffffffffffffffffffffffffffffffffffffffff1673ffffffffffffffffffffffffffffffffffffffff16815250509050600115158160600151151514610469576040517f08c379a000000000000000000000000000000000000000000000000000000000815260040161046090611af7565b60405180910390fd5b806000015160050b4361047c9190611b46565b9250505090565b60606000806000600181526020019081526020016000206040518060c00160405290816000820160009054906101000a900460050b60050b60050b81526020016000820160069054906101000a900460050b60050b60050b815260200160008201600c9054906101000a900460ff1615151515815260200160008201600d9054906101000a900460ff1615151515815260200160008201600e9054906101000a900465ffffffffffff1665ffffffffffff1665ffffffffffff1681526020016001820160009054906101000a900473ffffffffffffffffffffffffffffffffffffffff1673ffffffffffffffffffffffffffffffffffffffff1673ffffffffffffffffffffffffffffffffffffffff1681525050905060006050826000015160050b436105b09190611b89565b116105cd57816000015160050b436105c89190611b89565b6105d0565b60505b9050600081836000015160050b436105e89190611b89565b6105f29190611b89565b9050610600600182846109a4565b6040516020016106109190611e61565b604051602081830303815290604052935050505090565b60025481565b60606000600167ffffffffffffffff81111561064c5761064b611e92565b5b60405190808252806020026020018201604052801561067f57816020015b606081526020019060019003908161066a5790505b5090506040518060400160405280601c81526020017f4c6f7563617320427261636f6e6e696572202846696775726533312900000000815250816000815181106106cc576106cb611ec1565b5b60200260200101819052508091505090565b606090565b600080600360003373ffffffffffffffffffffffffffffffffffffffff1673ffffffffffffffffffffffffffffffffffffffff16815260200190815260200160002054905060008060008381526020019081526020016000206040518060c00160405290816000820160009054906101000a900460050b60050b60050b81526020016000820160069054906101000a900460050b60050b60050b815260200160008201600c9054906101000a900460ff1615151515815260200160008201600d9054906101000a900460ff1615151515815260200160008201600e9054906101000a900465ffffffffffff1665ffffffffffff1665ffffffffffff1681526020016001820160009054906101000a900473ffffffffffffffffffffffffffffffffffffffff1673ffffffffffffffffffffffffffffffffffffffff1673ffffffffffffffffffffffffffffffffffffffff16815250509050600115158160600151151514610886576040517f08c379a000000000000000000000000000000000000000000000000000000000815260040161087d90611af7565b60405180910390fd5b80604001511561089a5743925050506108c4565b806000015160050b436108ad9190611b46565b81600001516108bc9190611ef0565b60050b925050505b90565b60606040518060600160405280602581526020016122ef60259139905090565b6108f281600161119e565b50565b60006020528060005260406000206000915090508060000160009054906101000a900460050b908060000160069054906101000a900460050b9080600001600c9054906101000a900460ff169080600001600d9054906101000a900460ff169080600001600e9054906101000a900465ffffffffffff16908060010160009054906101000a900473ffffffffffffffffffffffffffffffffffffffff16905086565b6109a1338261119e565b50565b606060008060008681526020019081526020016000206040518060c00160405290816000820160009054906101000a900460050b60050b60050b81526020016000820160069054906101000a900460050b60050b60050b815260200160008201600c9054906101000a900460ff1615151515815260200160008201600d9054906101000a900460ff1615151515815260200160008201600e9054906101000a900465ffffffffffff1665ffffffffffff1665ffffffffffff1681526020016001820160009054906101000a900473ffffffffffffffffffffffffffffffffffffffff1673ffffffffffffffffffffffffffffffffffffffff1673ffffffffffffffffffffffffffffffffffffffff168152505090506000858260a0015173ffffffffffffffffffffffffffffffffffffffff16610ae19190611f4e565b9050600086118015610af557506001548611155b610b34576040517f08c379a0000000000000000000000000000000000000000000000000000000008152600401610b2b90611fce565b60405180910390fd5b6060600060405180608001604052806040518060400160405280600181526020017f5f0000000000000000000000000000000000000000000000000000000000000081525081526020016040518060400160405280600181526020017f2d0000000000000000000000000000000000000000000000000000000000000081525081526020016040518060400160405280600281526020017fc2af00000000000000000000000000000000000000000000000000000000000081525081526020016040518060400160405280600281526020017fcb87000000000000000000000000000000000000000000000000000000000000815250815250905060008460000151905060008560400151610c7b5785600001518660600151610c5b578660200151610c5d565b435b610c679190611ef0565b8660000151610c769190611ef0565b610c91565b8560600151610c8e578560200151610c90565b435b5b905060008990505b600115610eba5760008760400151610cd05763ffffffff8016828560050b610cc19190611b46565b610ccb919061201d565b610cf1565b63ffffffff8016828560050b610ce6919061204e565b610cf0919061201d565b5b9050600073__$1b550baf8c794d785598f248d735640bfe$__63229d0588838f8b604080518563ffffffff1660e01b8152600401610d3294939291906120f6565b602060405180830381865af4158015610d4f573d6000803e3d6000fd5b505050506040513d601f19601f82011682018060405250810190610d739190612150565b9050602b8111610d835780610d86565b602b5b905060108111610d97576000610da5565b601081610da49190611b89565b5b9050600b8111610db6576000610dc4565b600b81610dc39190611b89565b5b9050868660046010600485610dd9919061217d565b610de391906121bf565b610ded919061201d565b60048110610dfe57610dfd611ec1565b5b6020020151604051602001610e149291906121f0565b60405160208183030381529060405296508280610e3090612214565b93505088604001518015610e6957508360050b838660050b610e529190611f4e565b1180610e6857508a8c610e659190611f4e565b83115b5b80610ea757508860400151158015610ea657508360050b838660050b610e8f9190611b46565b1280610ea557508a8c610ea29190611f4e565b83115b5b5b15610eb3575050610eba565b5050610c99565b849750505050505050509392505050565b60606000600167ffffffffffffffff811115610eea57610ee9611e92565b5b604051908082528060200260200182016040528015610f185781602001602082028036833780820191505090505b5090503081600081518110610f3057610f2f611ec1565b5b602002602001019073ffffffffffffffffffffffffffffffffffffffff16908173ffffffffffffffffffffffffffffffffffffffff16815250508091505090565b60015481565b6000600360003373ffffffffffffffffffffffffffffffffffffffff1673ffffffffffffffffffffffffffffffffffffffff16815260200190815260200160002054905060008060008381526020019081526020016000206040518060c00160405290816000820160009054906101000a900460050b60050b60050b81526020016000820160069054906101000a900460050b60050b60050b815260200160008201600c9054906101000a900460ff1615151515815260200160008201600d9054906101000a900460ff1615151515815260200160008201600e9054906101000a900465ffffffffffff1665ffffffffffff1665ffffffffffff1681526020016001820160009054906101000a900473ffffffffffffffffffffffffffffffffffffffff1673ffffffffffffffffffffffffffffffffffffffff1673ffffffffffffffffffffffffffffffffffffffff16815250509050600115158160600151151514611119576040517f08c379a000000000000000000000000000000000000000000000000000000000815260040161111090611af7565b60405180910390fd5b4360008084815260200190815260200160002060000160066101000a81548165ffffffffffff021916908360050b65ffffffffffff1602179055506000806000848152602001908152602001600020600001600d6101000a81548160ff0219169083151502179055506002600081548092919061119590612214565b91905055505050565b6000600360008473ffffffffffffffffffffffffffffffffffffffff1673ffffffffffffffffffffffffffffffffffffffff16815260200190815260200160002054905060008060008381526020019081526020016000206040518060c00160405290816000820160009054906101000a900460050b60050b60050b81526020016000820160069054906101000a900460050b60050b60050b815260200160008201600c9054906101000a900460ff1615151515815260200160008201600d9054906101000a900460ff1615151515815260200160008201600e9054906101000a900465ffffffffffff1665ffffffffffff1665ffffffffffff1681526020016001820160009054906101000a900473ffffffffffffffffffffffffffffffffffffffff1673ffffffffffffffffffffffffffffffffffffffff1673ffffffffffffffffffffffffffffffffffffffff16815250509050600015158160600151151514611340576040517f08c379a0000000000000000000000000000000000000000000000000000000008152600401611337906122ce565b60405180910390fd5b6001600081548092919061135390612214565b919050555060006040518060c001604052804360050b8152602001600060050b815260200185151581526020016001151581526020018465ffffffffffff1681526020018673ffffffffffffffffffffffffffffffffffffffff16815250905080600080600154815260200190815260200160002060008201518160000160006101000a81548165ffffffffffff021916908360050b65ffffffffffff16021790555060208201518160000160066101000a81548165ffffffffffff021916908360050b65ffffffffffff160217905550604082015181600001600c6101000a81548160ff021916908315150217905550606082015181600001600d6101000a81548160ff021916908315150217905550608082015181600001600e6101000a81548165ffffffffffff021916908365ffffffffffff16021790555060a08201518160010160006101000a81548173ffffffffffffffffffffffffffffffffffffffff021916908373ffffffffffffffffffffffffffffffffffffffff160217905550905050600154600360008773ffffffffffffffffffffffffffffffffffffffff1673ffffffffffffffffffffffffffffffffffffffff168152602001908152602001600020819055505050505050565b6000819050919050565b61153981611526565b82525050565b60006020820190506115546000830184611530565b92915050565b600081519050919050565b600082825260208201905092915050565b60005b83811015611594578082015181840152602081019050611579565b60008484015250505050565b6000601f19601f8301169050919050565b60006115bc8261155a565b6115c68185611565565b93506115d6818560208601611576565b6115df816115a0565b840191505092915050565b6000602082019050818103600083015261160481846115b1565b905092915050565b6000819050919050565b61161f8161160c565b82525050565b600060208201905061163a6000830184611616565b92915050565b600081519050919050565b600082825260208201905092915050565b6000819050602082019050919050565b600082825260208201905092915050565b60006116888261155a565b611692818561166c565b93506116a2818560208601611576565b6116ab816115a0565b840191505092915050565b60006116c2838361167d565b905092915050565b6000602082019050919050565b60006116e282611640565b6116ec818561164b565b9350836020820285016116fe8561165c565b8060005b8581101561173a578484038952815161171b85826116b6565b9450611726836116ca565b925060208a01995050600181019050611702565b50829750879550505050505092915050565b6000602082019050818103600083015261176681846116d7565b905092915050565b600080fd5b600073ffffffffffffffffffffffffffffffffffffffff82169050919050565b600061179e82611773565b9050919050565b6117ae81611793565b81146117b957600080fd5b50565b6000813590506117cb816117a5565b92915050565b6000602082840312156117e7576117e661176e565b5b60006117f5848285016117bc565b91505092915050565b6118078161160c565b811461181257600080fd5b50565b600081359050611824816117fe565b92915050565b6000602082840312156118405761183f61176e565b5b600061184e84828501611815565b91505092915050565b60008160050b9050919050565b61186d81611857565b82525050565b60008115159050919050565b61188881611873565b82525050565b600065ffffffffffff82169050919050565b6118a98161188e565b82525050565b6118b881611793565b82525050565b600060c0820190506118d36000830189611864565b6118e06020830188611864565b6118ed604083018761187f565b6118fa606083018661187f565b61190760808301856118a0565b61191460a08301846118af565b979650505050505050565b61192881611873565b811461193357600080fd5b50565b6000813590506119458161191f565b92915050565b6000602082840312156119615761196061176e565b5b600061196f84828501611936565b91505092915050565b6000806000606084860312156119915761199061176e565b5b600061199f86828701611815565b93505060206119b086828701611815565b92505060406119c186828701611815565b9150509250925092565b600081519050919050565b600082825260208201905092915050565b6000819050602082019050919050565b611a0081611793565b82525050565b6000611a1283836119f7565b60208301905092915050565b6000602082019050919050565b6000611a36826119cb565b611a4081856119d6565b9350611a4b836119e7565b8060005b83811015611a7c578151611a638882611a06565b9750611a6e83611a1e565b925050600181019050611a4f565b5085935050505092915050565b60006020820190508181036000830152611aa38184611a2b565b905092915050565b7f596f7520646f6e2774206861766520616e20616374697665206a6f75726e6579600082015250565b6000611ae1602083611565565b9150611aec82611aab565b602082019050919050565b60006020820190508181036000830152611b1081611ad4565b9050919050565b7f4e487b7100000000000000000000000000000000000000000000000000000000600052601160045260246000fd5b6000611b5182611526565b9150611b5c83611526565b9250828203905081811260008412168282136000851215161715611b8357611b82611b17565b5b92915050565b6000611b948261160c565b9150611b9f8361160c565b9250828203905081811115611bb757611bb6611b17565b5b92915050565b600081905092915050565b7f5468697320636f6e74726163742069732061206d616368696e6520746861742060008201527f6c6179732074696d652e20497420657870616e6473206265796f6e642074686560208201527f20626f756e646172696573206f6620746865206d616368696e65206f6e20776860408201527f696368206974206f706572617465732e2041732074696d6520756e726176656c60608201527f732c2074726176656c6c657273206d61792075736520697420746f206a6f757260808201527f6e657920746f7761726420626f7468207468652066757475726520616e64207460a08201527f686520706173742e204f6e6365206f6e207468697320726f61642c207468656960c08201527f722070726573656e63652073696d756c74616e656f75736c792067656e65726160e08201527f74657320616e64206d61726b7320746865206c616e6473636170652e204e65776101008201527f206c616e6420697320646973636f7665726564207769746820657665727920626101208201527f6c6f636b206f662074696d652c20616e642077697468206561636820706173736101408201527f696e67206461792c20667261676d656e7473206f6620746865736520747261766101608201527f656c6c65727320617265206c65667420626568696e6420666f72206f746865726101808201527f7320746f2062656172207769746e6573732e00000000000000000000000000006101a082015250565b6000611df36101b283611bbd565b9150611dfe82611bc8565b6101b282019050919050565b7f3c62722f3e3c62722f3e3c62722f3e0000000000000000000000000000000000815250565b6000611e3b8261155a565b611e458185611bbd565b9350611e55818560208601611576565b80840191505092915050565b6000611e6c82611de5565b9150611e7782611e0a565b600f82019150611e878284611e30565b915081905092915050565b7f4e487b7100000000000000000000000000000000000000000000000000000000600052604160045260246000fd5b7f4e487b7100000000000000000000000000000000000000000000000000000000600052603260045260246000fd5b6000611efb82611857565b9150611f0683611857565b92508282039050657fffffffffff81137fffffffffffffffffffffffffffffffffffffffffffffffffffff80000000000082121715611f4857611f47611b17565b5b92915050565b6000611f598261160c565b9150611f648361160c565b9250828201905080821115611f7c57611f7b611b17565b5b92915050565b7f496e76616c6964206a6f75726e657920696e6465780000000000000000000000600082015250565b6000611fb8601583611565565b9150611fc382611f82565b602082019050919050565b60006020820190508181036000830152611fe781611fab565b9050919050565b7f4e487b7100000000000000000000000000000000000000000000000000000000600052601260045260246000fd5b60006120288261160c565b91506120338361160c565b92508261204357612042611fee565b5b828206905092915050565b600061205982611526565b915061206483611526565b92508282019050828112156000831216838212600084121516171561208c5761208b611b17565b5b92915050565b600063ffffffff82169050919050565b6120ab81612092565b82525050565b6000819050919050565b6000819050919050565b60006120e06120db6120d6846120b1565b6120bb565b612092565b9050919050565b6120f0816120c5565b82525050565b600060808201905061210b60008301876120a2565b61211860208301866120a2565b61212560408301856120a2565b61213260608301846120e7565b95945050505050565b60008151905061214a816117fe565b92915050565b6000602082840312156121665761216561176e565b5b60006121748482850161213b565b91505092915050565b60006121888261160c565b91506121938361160c565b92508282026121a18161160c565b915082820484148315176121b8576121b7611b17565b5b5092915050565b60006121ca8261160c565b91506121d58361160c565b9250826121e5576121e4611fee565b5b828204905092915050565b60006121fc8285611e30565b91506122088284611e30565b91508190509392505050565b600061221f8261160c565b91507fffffffffffffffffffffffffffffffffffffffffffffffffffffffffffffffff820361225157612250611b17565b5b600182019050919050565b7f596f7520616c7265616479206861766520616e20616374697665206a6f75726e60008201527f6579000000000000000000000000000000000000000000000000000000000000602082015250565b60006122b8602283611565565b91506122c38261225c565b604082019050919050565b600060208201905081810360008301526122e7816122ab565b905091905056fe4465617220476f642c204c61796572206f6620526f616473202854726176656c6c65727329a2646970667358221220a32610d6f201a0bb0a8521b25534f9bda5e6ba82359fa45c000c447a7dcabef364736f6c634300081c0033",
  "libraries": {
    "Perlin": "0xea7A817577231B8B08CC8EB3f9438FD118d00D3D"
  },
  "devdoc": {
    "kind": "dev",
    "methods": {},
    "version": 1
  },
  "userdoc": {
    "kind": "user",
    "methods": {},
    "version": 1
  },
  "storageLayout": {
    "storage": [
      {
        "astId": 8977,
        "contract": "contracts/placeholders/Travel.sol:Travel",
        "label": "journeys",
        "offset": 0,
        "slot": "0",
        "type": "t_mapping(t_uint256,t_struct(Journey)8972_storage)"
      },
      {
        "astId": 8979,
        "contract": "contracts/placeholders/Travel.sol:Travel",
        "label": "journeyCount",
        "offset": 0,
        "slot": "1",
        "type": "t_uint256"
      },
      {
        "astId": 8981,
        "contract": "contracts/placeholders/Travel.sol:Travel",
        "label": "journeyCompletedCount",
        "offset": 0,
        "slot": "2",
        "type": "t_uint256"
      },
      {
        "astId": 8985,
        "contract": "contracts/placeholders/Travel.sol:Travel",
        "label": "travellerCurrentJourney",
        "offset": 0,
        "slot": "3",
        "type": "t_mapping(t_address,t_uint256)"
      }
    ],
    "types": {
      "t_address": {
        "encoding": "inplace",
        "label": "address",
        "numberOfBytes": "20"
      },
      "t_bool": {
        "encoding": "inplace",
        "label": "bool",
        "numberOfBytes": "1"
      },
      "t_int48": {
        "encoding": "inplace",
        "label": "int48",
        "numberOfBytes": "6"
      },
      "t_mapping(t_address,t_uint256)": {
        "encoding": "mapping",
        "key": "t_address",
        "label": "mapping(address => uint256)",
        "numberOfBytes": "32",
        "value": "t_uint256"
      },
      "t_mapping(t_uint256,t_struct(Journey)8972_storage)": {
        "encoding": "mapping",
        "key": "t_uint256",
        "label": "mapping(uint256 => struct Travel.Journey)",
        "numberOfBytes": "32",
        "value": "t_struct(Journey)8972_storage"
      },
      "t_struct(Journey)8972_storage": {
        "encoding": "inplace",
        "label": "struct Travel.Journey",
        "members": [
          {
            "astId": 8961,
            "contract": "contracts/placeholders/Travel.sol:Travel",
            "label": "fromBlock",
            "offset": 0,
            "slot": "0",
            "type": "t_int48"
          },
          {
            "astId": 8963,
            "contract": "contracts/placeholders/Travel.sol:Travel",
            "label": "toBlock",
            "offset": 6,
            "slot": "0",
            "type": "t_int48"
          },
          {
            "astId": 8965,
            "contract": "contracts/placeholders/Travel.sol:Travel",
            "label": "forward",
            "offset": 12,
            "slot": "0",
            "type": "t_bool"
          },
          {
            "astId": 8967,
            "contract": "contracts/placeholders/Travel.sol:Travel",
            "label": "active",
            "offset": 13,
            "slot": "0",
            "type": "t_bool"
          },
          {
            "astId": 8969,
            "contract": "contracts/placeholders/Travel.sol:Travel",
            "label": "previousIndex",
            "offset": 14,
            "slot": "0",
            "type": "t_uint48"
          },
          {
            "astId": 8971,
            "contract": "contracts/placeholders/Travel.sol:Travel",
            "label": "traveller",
            "offset": 0,
            "slot": "1",
            "type": "t_address"
          }
        ],
        "numberOfBytes": "64"
      },
      "t_uint256": {
        "encoding": "inplace",
        "label": "uint256",
        "numberOfBytes": "32"
      },
      "t_uint48": {
        "encoding": "inplace",
        "label": "uint48",
        "numberOfBytes": "6"
      }
    }
  }
}