{
  "address": "0xAF917a633cccb33e3F4C083f618F388bFcC192D1",
  "abi": [
    {
      "inputs": [],
      "stateMutability": "nonpayable",
      "type": "constructor"
    },
    {
      "inputs": [],
      "name": "AlreadyInitialized",
      "type": "error"
    },
    {
      "inputs": [],
      "name": "NewOwnerIsZeroAddress",
      "type": "error"
    },
    {
      "inputs": [],
      "name": "NoHandoverRequest",
      "type": "error"
    },
    {
      "inputs": [],
      "name": "Unauthorized",
      "type": "error"
    },
    {
      "anonymous": false,
      "inputs": [
        {
          "indexed": true,
          "internalType": "address",
          "name": "pendingOwner",
          "type": "address"
        }
      ],
      "name": "OwnershipHandoverCanceled",
      "type": "event"
    },
    {
      "anonymous": false,
      "inputs": [
        {
          "indexed": true,
          "internalType": "address",
          "name": "pendingOwner",
          "type": "address"
        }
      ],
      "name": "OwnershipHandoverRequested",
      "type": "event"
    },
    {
      "anonymous": false,
      "inputs": [
        {
          "indexed": true,
          "internalType": "address",
          "name": "oldOwner",
          "type": "address"
        },
        {
          "indexed": true,
          "internalType": "address",
          "name": "newOwner",
          "type": "address"
        }
      ],
      "name": "OwnershipTransferred",
      "type": "event"
    },
    {
      "inputs": [],
      "name": "cancelOwnershipHandover",
      "outputs": [],
      "stateMutability": "payable",
      "type": "function"
    },
    {
      "inputs": [
        {
          "internalType": "address",
          "name": "pendingOwner",
          "type": "address"
        }
      ],
      "name": "completeOwnershipHandover",
      "outputs": [],
      "stateMutability": "payable",
      "type": "function"
    },
    {
      "inputs": [],
      "name": "garden",
      "outputs": [
        {
          "internalType": "address",
          "name": "",
          "type": "address"
        }
      ],
      "stateMutability": "view",
      "type": "function"
    },
    {
      "inputs": [],
      "name": "html",
      "outputs": [
        {
          "internalType": "string",
          "name": "",
          "type": "string"
        }
      ],
      "stateMutability": "view",
      "type": "function"
    },
    {
      "inputs": [],
      "name": "owner",
      "outputs": [
        {
          "internalType": "address",
          "name": "result",
          "type": "address"
        }
      ],
      "stateMutability": "view",
      "type": "function"
    },
    {
      "inputs": [
        {
          "internalType": "address",
          "name": "pendingOwner",
          "type": "address"
        }
      ],
      "name": "ownershipHandoverExpiresAt",
      "outputs": [
        {
          "internalType": "uint256",
          "name": "result",
          "type": "uint256"
        }
      ],
      "stateMutability": "view",
      "type": "function"
    },
    {
      "inputs": [],
      "name": "renderer",
      "outputs": [
        {
          "internalType": "address",
          "name": "",
          "type": "address"
        }
      ],
      "stateMutability": "view",
      "type": "function"
    },
    {
      "inputs": [],
      "name": "renounceOwnership",
      "outputs": [],
      "stateMutability": "payable",
      "type": "function"
    },
    {
      "inputs": [
        {
          "internalType": "string[]",
          "name": "resource",
          "type": "string[]"
        },
        {
          "components": [
            {
              "internalType": "string",
              "name": "key",
              "type": "string"
            },
            {
              "internalType": "string",
              "name": "value",
              "type": "string"
            }
          ],
          "internalType": "struct KeyValue[]",
          "name": "params",
          "type": "tuple[]"
        }
      ],
      "name": "request",
      "outputs": [
        {
          "internalType": "uint256",
          "name": "statusCode",
          "type": "uint256"
        },
        {
          "internalType": "string",
          "name": "body",
          "type": "string"
        },
        {
          "components": [
            {
              "internalType": "string",
              "name": "key",
              "type": "string"
            },
            {
              "internalType": "string",
              "name": "value",
              "type": "string"
            }
          ],
          "internalType": "struct KeyValue[]",
          "name": "headers",
          "type": "tuple[]"
        }
      ],
      "stateMutability": "view",
      "type": "function"
    },
    {
      "inputs": [],
      "name": "requestOwnershipHandover",
      "outputs": [],
      "stateMutability": "payable",
      "type": "function"
    },
    {
      "inputs": [],
      "name": "resolveMode",
      "outputs": [
        {
          "internalType": "bytes32",
          "name": "",
          "type": "bytes32"
        }
      ],
      "stateMutability": "pure",
      "type": "function"
    },
    {
      "inputs": [
        {
          "internalType": "address",
          "name": "_renderer",
          "type": "address"
        }
      ],
      "name": "setRenderer",
      "outputs": [],
      "stateMutability": "nonpayable",
      "type": "function"
    },
    {
      "inputs": [
        {
          "internalType": "address",
          "name": "newOwner",
          "type": "address"
        }
      ],
      "name": "transferOwnership",
      "outputs": [],
      "stateMutability": "payable",
      "type": "function"
    }
  ],
  "transactionHash": "0xba260a7d4ea56d43f7c6a0c80dcb78a24ab5af6601944f3623261f319b562787",
  "args": [],
  "numDeployments": 3,
  "solcInputHash": "324ae35969ed3552b44c13c83d765958",
  "bytecode": "0x608060405234801561001057600080fd5b506100203361002560201b60201c565b61010b565b61003361010660201b60201c565b156100ae577fffffffffffffffffffffffffffffffffffffffffffffffffffffffff7487392780541561006e57630dc149f06000526004601cfd5b8160601b60601c9150811560ff1b821781558160007f8be0079c531659141344cd1fd0a4f28419497f9722a3daafe3b4186f6b6457e0600080a350610103565b8060601b60601c9050807fffffffffffffffffffffffffffffffffffffffffffffffffffffffff74873927558060007f8be0079c531659141344cd1fd0a4f28419497f9722a3daafe3b4186f6b6457e0600080a35b50565b600090565b6112668061011a6000396000f3fe6080604052600436106100c25760003560e01c8063715018a61161007f578063dd473fae11610059578063dd473fae146101f9578063f04e283e14610224578063f2fde38b14610240578063fee81cf41461025c576100c2565b8063715018a6146101995780638ada6b0f146101a35780638da5cb5b146101ce576100c2565b80631374c460146100c7578063256929621461010657806333c34ac31461011057806354d1f13d1461013b57806356ba88b81461014557806356d3163d14610170575b600080fd5b3480156100d357600080fd5b506100ee60048036038101906100e99190610abf565b610299565b6040516100fd93929190610d1f565b60405180910390f35b61010e61034e565b005b34801561011c57600080fd5b506101256103a2565b6040516101329190610d64565b60405180910390f35b61014361043f565b005b34801561015157600080fd5b5061015a61047b565b6040516101679190610dc7565b60405180910390f35b34801561017c57600080fd5b5061019760048036038101906101929190610e0e565b61049f565b005b6101a16104eb565b005b3480156101af57600080fd5b506101b86104ff565b6040516101c59190610dc7565b60405180910390f35b3480156101da57600080fd5b506101e3610525565b6040516101f09190610dc7565b60405180910390f35b34801561020557600080fd5b5061020e61054e565b60405161021b9190610e54565b60405180910390f35b61023e60048036038101906102399190610e0e565b610576565b005b61025a60048036038101906102559190610e0e565b6105b7565b005b34801561026857600080fd5b50610283600480360381019061027e9190610e0e565b6105e1565b6040516102909190610e6f565b60405180910390f35b6000606080600160009054906101000a900473ffffffffffffffffffffffffffffffffffffffff1673ffffffffffffffffffffffffffffffffffffffff16631374c46086866040518363ffffffff1660e01b81526004016102fb929190610f4c565b600060405180830381865afa158015610318573d6000803e3d6000fd5b505050506040513d6000823e3d601f19601f82011682018060405250810190610341919061115c565b9250925092509250925092565b60006103586105fc565b67ffffffffffffffff164201905063389a75e1600c5233600052806020600c2055337fdbf36a107da19e49527a7176a1babf963b4b0ff8cde35ee35d6cd8f1f9ac7e1d600080a250565b6060600160009054906101000a900473ffffffffffffffffffffffffffffffffffffffff1673ffffffffffffffffffffffffffffffffffffffff166333c34ac36040518163ffffffff1660e01b8152600401600060405180830381865afa158015610411573d6000803e3d6000fd5b505050506040513d6000823e3d601f19601f8201168201806040525081019061043a91906111e7565b905090565b63389a75e1600c523360005260006020600c2055337ffa7b8eab7da67f412cc9575ed43464468f9bfbae89d1675917346ca6d8fe3c92600080a2565b60008054906101000a900473ffffffffffffffffffffffffffffffffffffffff1681565b6104a7610607565b80600160006101000a81548173ffffffffffffffffffffffffffffffffffffffff021916908373ffffffffffffffffffffffffffffffffffffffff16021790555050565b6104f3610607565b6104fd600061063f565b565b600160009054906101000a900473ffffffffffffffffffffffffffffffffffffffff1681565b60007fffffffffffffffffffffffffffffffffffffffffffffffffffffffff7487392754905090565b60007f3532313900000000000000000000000000000000000000000000000000000000905090565b61057e610607565b63389a75e1600c52806000526020600c2080544211156105a657636f5e88186000526004601cfd5b60008155506105b48161063f565b50565b6105bf610607565b8060601b6105d557637448fbae6000526004601cfd5b6105de8161063f565b50565b600063389a75e1600c52816000526020600c20549050919050565b60006202a300905090565b7fffffffffffffffffffffffffffffffffffffffffffffffffffffffff7487392754331461063d576382b429006000526004601cfd5b565b610647610707565b156106ad577fffffffffffffffffffffffffffffffffffffffffffffffffffffffff748739278160601b60601c91508181547f8be0079c531659141344cd1fd0a4f28419497f9722a3daafe3b4186f6b6457e0600080a3811560ff1b8217815550610704565b7fffffffffffffffffffffffffffffffffffffffffffffffffffffffff748739278160601b60601c91508181547f8be0079c531659141344cd1fd0a4f28419497f9722a3daafe3b4186f6b6457e0600080a3818155505b50565b600090565b6000604051905090565b600080fd5b600080fd5b600080fd5b6000601f19601f8301169050919050565b7f4e487b7100000000000000000000000000000000000000000000000000000000600052604160045260246000fd5b61076e82610725565b810181811067ffffffffffffffff8211171561078d5761078c610736565b5b80604052505050565b60006107a061070c565b90506107ac8282610765565b919050565b600067ffffffffffffffff8211156107cc576107cb610736565b5b602082029050602081019050919050565b600080fd5b600080fd5b600067ffffffffffffffff82111561080257610801610736565b5b61080b82610725565b9050602081019050919050565b82818337600083830152505050565b600061083a610835846107e7565b610796565b905082815260208101848484011115610856576108556107e2565b5b610861848285610818565b509392505050565b600082601f83011261087e5761087d610720565b5b813561088e848260208601610827565b91505092915050565b60006108aa6108a5846107b1565b610796565b905080838252602082019050602084028301858111156108cd576108cc6107dd565b5b835b8181101561091457803567ffffffffffffffff8111156108f2576108f1610720565b5b8086016108ff8982610869565b855260208501945050506020810190506108cf565b5050509392505050565b600082601f83011261093357610932610720565b5b8135610943848260208601610897565b91505092915050565b600067ffffffffffffffff82111561096757610966610736565b5b602082029050602081019050919050565b600080fd5b600080fd5b60006040828403121561099857610997610978565b5b6109a26040610796565b9050600082013567ffffffffffffffff8111156109c2576109c161097d565b5b6109ce84828501610869565b600083015250602082013567ffffffffffffffff8111156109f2576109f161097d565b5b6109fe84828501610869565b60208301525092915050565b6000610a1d610a188461094c565b610796565b90508083825260208201905060208402830185811115610a4057610a3f6107dd565b5b835b81811015610a8757803567ffffffffffffffff811115610a6557610a64610720565b5b808601610a728982610982565b85526020850194505050602081019050610a42565b5050509392505050565b600082601f830112610aa657610aa5610720565b5b8135610ab6848260208601610a0a565b91505092915050565b60008060408385031215610ad657610ad5610716565b5b600083013567ffffffffffffffff811115610af457610af361071b565b5b610b008582860161091e565b925050602083013567ffffffffffffffff811115610b2157610b2061071b565b5b610b2d85828601610a91565b9150509250929050565b6000819050919050565b610b4a81610b37565b82525050565b600081519050919050565b600082825260208201905092915050565b60005b83811015610b8a578082015181840152602081019050610b6f565b60008484015250505050565b6000610ba182610b50565b610bab8185610b5b565b9350610bbb818560208601610b6c565b610bc481610725565b840191505092915050565b600081519050919050565b600082825260208201905092915050565b6000819050602082019050919050565b600082825260208201905092915050565b6000610c1782610b50565b610c218185610bfb565b9350610c31818560208601610b6c565b610c3a81610725565b840191505092915050565b60006040830160008301518482036000860152610c628282610c0c565b91505060208301518482036020860152610c7c8282610c0c565b9150508091505092915050565b6000610c958383610c45565b905092915050565b6000602082019050919050565b6000610cb582610bcf565b610cbf8185610bda565b935083602082028501610cd185610beb565b8060005b85811015610d0d5784840389528151610cee8582610c89565b9450610cf983610c9d565b925060208a01995050600181019050610cd5565b50829750879550505050505092915050565b6000606082019050610d346000830186610b41565b8181036020830152610d468185610b96565b90508181036040830152610d5a8184610caa565b9050949350505050565b60006020820190508181036000830152610d7e8184610b96565b905092915050565b600073ffffffffffffffffffffffffffffffffffffffff82169050919050565b6000610db182610d86565b9050919050565b610dc181610da6565b82525050565b6000602082019050610ddc6000830184610db8565b92915050565b610deb81610da6565b8114610df657600080fd5b50565b600081359050610e0881610de2565b92915050565b600060208284031215610e2457610e23610716565b5b6000610e3284828501610df9565b91505092915050565b6000819050919050565b610e4e81610e3b565b82525050565b6000602082019050610e696000830184610e45565b92915050565b6000602082019050610e846000830184610b41565b92915050565b600081519050919050565b600082825260208201905092915050565b6000819050602082019050919050565b6000610ec28383610c0c565b905092915050565b6000602082019050919050565b6000610ee282610e8a565b610eec8185610e95565b935083602082028501610efe85610ea6565b8060005b85811015610f3a5784840389528151610f1b8582610eb6565b9450610f2683610eca565b925060208a01995050600181019050610f02565b50829750879550505050505092915050565b60006040820190508181036000830152610f668185610ed7565b90508181036020830152610f7a8184610caa565b90509392505050565b610f8c81610b37565b8114610f9757600080fd5b50565b600081519050610fa981610f83565b92915050565b6000610fc2610fbd846107e7565b610796565b905082815260208101848484011115610fde57610fdd6107e2565b5b610fe9848285610b6c565b509392505050565b600082601f83011261100657611005610720565b5b8151611016848260208601610faf565b91505092915050565b60006040828403121561103557611034610978565b5b61103f6040610796565b9050600082015167ffffffffffffffff81111561105f5761105e61097d565b5b61106b84828501610ff1565b600083015250602082015167ffffffffffffffff81111561108f5761108e61097d565b5b61109b84828501610ff1565b60208301525092915050565b60006110ba6110b58461094c565b610796565b905080838252602082019050602084028301858111156110dd576110dc6107dd565b5b835b8181101561112457805167ffffffffffffffff81111561110257611101610720565b5b80860161110f898261101f565b855260208501945050506020810190506110df565b5050509392505050565b600082601f83011261114357611142610720565b5b81516111538482602086016110a7565b91505092915050565b60008060006060848603121561117557611174610716565b5b600061118386828701610f9a565b935050602084015167ffffffffffffffff8111156111a4576111a361071b565b5b6111b086828701610ff1565b925050604084015167ffffffffffffffff8111156111d1576111d061071b565b5b6111dd8682870161112e565b9150509250925092565b6000602082840312156111fd576111fc610716565b5b600082015167ffffffffffffffff81111561121b5761121a61071b565b5b61122784828501610ff1565b9150509291505056fea26469706673582212203f268e5bda22f2981902fe244f91baab2ef502c5266d8e51709ffff1e7bba26764736f6c634300081c0033",
  "devdoc": {
    "errors": {
      "AlreadyInitialized()": [
        {
          "details": "Cannot double-initialize."
        }
      ],
      "NewOwnerIsZeroAddress()": [
        {
          "details": "The `newOwner` cannot be the zero address."
        }
      ],
      "NoHandoverRequest()": [
        {
          "details": "The `pendingOwner` does not have a valid handover request."
        }
      ],
      "Unauthorized()": [
        {
          "details": "The caller is not authorized to call the function."
        }
      ]
    },
    "events": {
      "OwnershipHandoverCanceled(address)": {
        "details": "The ownership handover to `pendingOwner` has been canceled."
      },
      "OwnershipHandoverRequested(address)": {
        "details": "An ownership handover to `pendingOwner` has been requested."
      },
      "OwnershipTransferred(address,address)": {
        "details": "The ownership is transferred from `oldOwner` to `newOwner`. This event is intentionally kept the same as OpenZeppelin's Ownable to be compatible with indexers and [EIP-173](https://eips.ethereum.org/EIPS/eip-173), despite it not being as lightweight as a single argument event."
      }
    },
    "kind": "dev",
    "methods": {
      "cancelOwnershipHandover()": {
        "details": "Cancels the two-step ownership handover to the caller, if any."
      },
      "completeOwnershipHandover(address)": {
        "details": "Allows the owner to complete the two-step ownership handover to `pendingOwner`. Reverts if there is no existing ownership handover requested by `pendingOwner`."
      },
      "owner()": {
        "details": "Returns the owner of the contract."
      },
      "ownershipHandoverExpiresAt(address)": {
        "details": "Returns the expiry timestamp for the two-step ownership handover to `pendingOwner`."
      },
      "renounceOwnership()": {
        "details": "Allows the owner to renounce their ownership."
      },
      "request(string[],(string,string)[])": {
        "params": {
          "params": "The query parameters. (e.g. \"?asdf=1234&foo=bar\" turns in to `[{ key: \"asdf\", value: \"1234\" }, { key: \"foo\", value: \"bar\" }]`)",
          "resource": "The resource to request (e.g. \"/asdf/1234\" turns in to `[\"asdf\", \"1234\"]`)"
        },
        "returns": {
          "body": "               The body of the response",
          "headers": "            A list of header names (e.g. [{ key: \"Content-Type\", value: \"application/json\" }])",
          "statusCode": "         The HTTP status code (e.g. 200)"
        }
      },
      "requestOwnershipHandover()": {
        "details": "Request a two-step ownership handover to the caller. The request will automatically expire in 48 hours (172800 seconds) by default."
      },
      "resolveMode()": {
        "returns": {
          "_0": "resolveMode         The mode of the resolver (e.g. 5219)"
        }
      },
      "transferOwnership(address)": {
        "details": "Allows the owner to transfer the ownership to `newOwner`."
      }
    },
    "version": 1
  },
  "userdoc": {
    "kind": "user",
    "methods": {
      "request(string[],(string,string)[])": {
        "notice": "Send an HTTP GET-like request to this contract"
      },
      "resolveMode()": {
        "notice": "returns the resolve mode of the contract"
      }
    },
    "version": 1
  },
  "storageLayout": {
    "storage": [
      {
        "astId": 1411,
        "contract": "contracts/Web.sol:Web",
        "label": "garden",
        "offset": 0,
        "slot": "0",
        "type": "t_address"
      },
      {
        "astId": 1413,
        "contract": "contracts/Web.sol:Web",
        "label": "renderer",
        "offset": 0,
        "slot": "1",
        "type": "t_address"
      }
    ],
    "types": {
      "t_address": {
        "encoding": "inplace",
        "label": "address",
        "numberOfBytes": "20"
      }
    }
  }
}