{
  "address": "0x25caAfEB0E101989A6E2eD191920672c14d17934",
  "abi": [
    {
      "inputs": [],
      "stateMutability": "nonpayable",
      "type": "constructor"
    },
    {
      "inputs": [],
      "name": "AlreadyInitialized",
      "type": "error"
    },
    {
      "inputs": [],
      "name": "NewOwnerIsZeroAddress",
      "type": "error"
    },
    {
      "inputs": [],
      "name": "NoHandoverRequest",
      "type": "error"
    },
    {
      "inputs": [],
      "name": "Unauthorized",
      "type": "error"
    },
    {
      "anonymous": false,
      "inputs": [
        {
          "indexed": true,
          "internalType": "address",
          "name": "pendingOwner",
          "type": "address"
        }
      ],
      "name": "OwnershipHandoverCanceled",
      "type": "event"
    },
    {
      "anonymous": false,
      "inputs": [
        {
          "indexed": true,
          "internalType": "address",
          "name": "pendingOwner",
          "type": "address"
        }
      ],
      "name": "OwnershipHandoverRequested",
      "type": "event"
    },
    {
      "anonymous": false,
      "inputs": [
        {
          "indexed": true,
          "internalType": "address",
          "name": "oldOwner",
          "type": "address"
        },
        {
          "indexed": true,
          "internalType": "address",
          "name": "newOwner",
          "type": "address"
        }
      ],
      "name": "OwnershipTransferred",
      "type": "event"
    },
    {
      "inputs": [],
      "name": "cancelOwnershipHandover",
      "outputs": [],
      "stateMutability": "payable",
      "type": "function"
    },
    {
      "inputs": [
        {
          "internalType": "address",
          "name": "pendingOwner",
          "type": "address"
        }
      ],
      "name": "completeOwnershipHandover",
      "outputs": [],
      "stateMutability": "payable",
      "type": "function"
    },
    {
      "inputs": [],
      "name": "garden",
      "outputs": [
        {
          "internalType": "address",
          "name": "",
          "type": "address"
        }
      ],
      "stateMutability": "view",
      "type": "function"
    },
    {
      "inputs": [],
      "name": "html",
      "outputs": [
        {
          "internalType": "string",
          "name": "",
          "type": "string"
        }
      ],
      "stateMutability": "view",
      "type": "function"
    },
    {
      "inputs": [],
      "name": "owner",
      "outputs": [
        {
          "internalType": "address",
          "name": "result",
          "type": "address"
        }
      ],
      "stateMutability": "view",
      "type": "function"
    },
    {
      "inputs": [
        {
          "internalType": "address",
          "name": "pendingOwner",
          "type": "address"
        }
      ],
      "name": "ownershipHandoverExpiresAt",
      "outputs": [
        {
          "internalType": "uint256",
          "name": "result",
          "type": "uint256"
        }
      ],
      "stateMutability": "view",
      "type": "function"
    },
    {
      "inputs": [],
      "name": "renderer",
      "outputs": [
        {
          "internalType": "address",
          "name": "",
          "type": "address"
        }
      ],
      "stateMutability": "view",
      "type": "function"
    },
    {
      "inputs": [],
      "name": "renounceOwnership",
      "outputs": [],
      "stateMutability": "payable",
      "type": "function"
    },
    {
      "inputs": [
        {
          "internalType": "string[]",
          "name": "resource",
          "type": "string[]"
        },
        {
          "components": [
            {
              "internalType": "string",
              "name": "key",
              "type": "string"
            },
            {
              "internalType": "string",
              "name": "value",
              "type": "string"
            }
          ],
          "internalType": "struct KeyValue[]",
          "name": "params",
          "type": "tuple[]"
        }
      ],
      "name": "request",
      "outputs": [
        {
          "internalType": "uint256",
          "name": "statusCode",
          "type": "uint256"
        },
        {
          "internalType": "string",
          "name": "body",
          "type": "string"
        },
        {
          "components": [
            {
              "internalType": "string",
              "name": "key",
              "type": "string"
            },
            {
              "internalType": "string",
              "name": "value",
              "type": "string"
            }
          ],
          "internalType": "struct KeyValue[]",
          "name": "headers",
          "type": "tuple[]"
        }
      ],
      "stateMutability": "view",
      "type": "function"
    },
    {
      "inputs": [],
      "name": "requestOwnershipHandover",
      "outputs": [],
      "stateMutability": "payable",
      "type": "function"
    },
    {
      "inputs": [],
      "name": "resolveMode",
      "outputs": [
        {
          "internalType": "bytes32",
          "name": "",
          "type": "bytes32"
        }
      ],
      "stateMutability": "view",
      "type": "function"
    },
    {
      "inputs": [
        {
          "internalType": "address",
          "name": "_renderer",
          "type": "address"
        }
      ],
      "name": "setRenderer",
      "outputs": [],
      "stateMutability": "nonpayable",
      "type": "function"
    },
    {
      "inputs": [
        {
          "internalType": "address",
          "name": "newOwner",
          "type": "address"
        }
      ],
      "name": "transferOwnership",
      "outputs": [],
      "stateMutability": "payable",
      "type": "function"
    }
  ],
  "transactionHash": "0xda28dd3ad241d62d0cd2ccafdf88f366549a80f2846b1f5f38441922c835195a",
  "args": [],
  "numDeployments": 11,
  "solcInputHash": "b94c221b38b10597ad2b1d28b66b398c",
  "bytecode": "0x608060405234801561001057600080fd5b506100203361002560201b60201c565b61010b565b61003361010660201b60201c565b156100ae577fffffffffffffffffffffffffffffffffffffffffffffffffffffffff7487392780541561006e57630dc149f06000526004601cfd5b8160601b60601c9150811560ff1b821781558160007f8be0079c531659141344cd1fd0a4f28419497f9722a3daafe3b4186f6b6457e0600080a350610103565b8060601b60601c9050807fffffffffffffffffffffffffffffffffffffffffffffffffffffffff74873927558060007f8be0079c531659141344cd1fd0a4f28419497f9722a3daafe3b4186f6b6457e0600080a35b50565b600090565b61132f8061011a6000396000f3fe6080604052600436106100c25760003560e01c8063715018a61161007f578063dd473fae11610059578063dd473fae146101f9578063f04e283e14610224578063f2fde38b14610240578063fee81cf41461025c576100c2565b8063715018a6146101995780638ada6b0f146101a35780638da5cb5b146101ce576100c2565b80631374c460146100c7578063256929621461010657806333c34ac31461011057806354d1f13d1461013b57806356ba88b81461014557806356d3163d14610170575b600080fd5b3480156100d357600080fd5b506100ee60048036038101906100e99190610b2f565b610299565b6040516100fd93929190610d8f565b60405180910390f35b61010e61034e565b005b34801561011c57600080fd5b506101256103a2565b6040516101329190610dd4565b60405180910390f35b61014361043f565b005b34801561015157600080fd5b5061015a61047b565b6040516101679190610e37565b60405180910390f35b34801561017c57600080fd5b5061019760048036038101906101929190610e7e565b61049f565b005b6101a16104eb565b005b3480156101af57600080fd5b506101b86104ff565b6040516101c59190610e37565b60405180910390f35b3480156101da57600080fd5b506101e3610525565b6040516101f09190610e37565b60405180910390f35b34801561020557600080fd5b5061020e61054e565b60405161021b9190610ec4565b60405180910390f35b61023e60048036038101906102399190610e7e565b6105e6565b005b61025a60048036038101906102559190610e7e565b610627565b005b34801561026857600080fd5b50610283600480360381019061027e9190610e7e565b610651565b6040516102909190610edf565b60405180910390f35b6000606080600160009054906101000a900473ffffffffffffffffffffffffffffffffffffffff1673ffffffffffffffffffffffffffffffffffffffff16631374c46086866040518363ffffffff1660e01b81526004016102fb929190610fbc565b600060405180830381865afa158015610318573d6000803e3d6000fd5b505050506040513d6000823e3d601f19601f8201168201806040525081019061034191906111cc565b9250925092509250925092565b600061035861066c565b67ffffffffffffffff164201905063389a75e1600c5233600052806020600c2055337fdbf36a107da19e49527a7176a1babf963b4b0ff8cde35ee35d6cd8f1f9ac7e1d600080a250565b6060600160009054906101000a900473ffffffffffffffffffffffffffffffffffffffff1673ffffffffffffffffffffffffffffffffffffffff166333c34ac36040518163ffffffff1660e01b8152600401600060405180830381865afa158015610411573d6000803e3d6000fd5b505050506040513d6000823e3d601f19601f8201168201806040525081019061043a9190611257565b905090565b63389a75e1600c523360005260006020600c2055337ffa7b8eab7da67f412cc9575ed43464468f9bfbae89d1675917346ca6d8fe3c92600080a2565b60008054906101000a900473ffffffffffffffffffffffffffffffffffffffff1681565b6104a7610677565b80600160006101000a81548173ffffffffffffffffffffffffffffffffffffffff021916908373ffffffffffffffffffffffffffffffffffffffff16021790555050565b6104f3610677565b6104fd60006106af565b565b600160009054906101000a900473ffffffffffffffffffffffffffffffffffffffff1681565b60007fffffffffffffffffffffffffffffffffffffffffffffffffffffffff7487392754905090565b6000600160009054906101000a900473ffffffffffffffffffffffffffffffffffffffff1673ffffffffffffffffffffffffffffffffffffffff1663dd473fae6040518163ffffffff1660e01b8152600401602060405180830381865afa1580156105bd573d6000803e3d6000fd5b505050506040513d601f19601f820116820180604052508101906105e191906112cc565b905090565b6105ee610677565b63389a75e1600c52806000526020600c20805442111561061657636f5e88186000526004601cfd5b6000815550610624816106af565b50565b61062f610677565b8060601b61064557637448fbae6000526004601cfd5b61064e816106af565b50565b600063389a75e1600c52816000526020600c20549050919050565b60006202a300905090565b7fffffffffffffffffffffffffffffffffffffffffffffffffffffffff748739275433146106ad576382b429006000526004601cfd5b565b6106b7610777565b1561071d577fffffffffffffffffffffffffffffffffffffffffffffffffffffffff748739278160601b60601c91508181547f8be0079c531659141344cd1fd0a4f28419497f9722a3daafe3b4186f6b6457e0600080a3811560ff1b8217815550610774565b7fffffffffffffffffffffffffffffffffffffffffffffffffffffffff748739278160601b60601c91508181547f8be0079c531659141344cd1fd0a4f28419497f9722a3daafe3b4186f6b6457e0600080a3818155505b50565b600090565b6000604051905090565b600080fd5b600080fd5b600080fd5b6000601f19601f8301169050919050565b7f4e487b7100000000000000000000000000000000000000000000000000000000600052604160045260246000fd5b6107de82610795565b810181811067ffffffffffffffff821117156107fd576107fc6107a6565b5b80604052505050565b600061081061077c565b905061081c82826107d5565b919050565b600067ffffffffffffffff82111561083c5761083b6107a6565b5b602082029050602081019050919050565b600080fd5b600080fd5b600067ffffffffffffffff821115610872576108716107a6565b5b61087b82610795565b9050602081019050919050565b82818337600083830152505050565b60006108aa6108a584610857565b610806565b9050828152602081018484840111156108c6576108c5610852565b5b6108d1848285610888565b509392505050565b600082601f8301126108ee576108ed610790565b5b81356108fe848260208601610897565b91505092915050565b600061091a61091584610821565b610806565b9050808382526020820190506020840283018581111561093d5761093c61084d565b5b835b8181101561098457803567ffffffffffffffff81111561096257610961610790565b5b80860161096f89826108d9565b8552602085019450505060208101905061093f565b5050509392505050565b600082601f8301126109a3576109a2610790565b5b81356109b3848260208601610907565b91505092915050565b600067ffffffffffffffff8211156109d7576109d66107a6565b5b602082029050602081019050919050565b600080fd5b600080fd5b600060408284031215610a0857610a076109e8565b5b610a126040610806565b9050600082013567ffffffffffffffff811115610a3257610a316109ed565b5b610a3e848285016108d9565b600083015250602082013567ffffffffffffffff811115610a6257610a616109ed565b5b610a6e848285016108d9565b60208301525092915050565b6000610a8d610a88846109bc565b610806565b90508083825260208201905060208402830185811115610ab057610aaf61084d565b5b835b81811015610af757803567ffffffffffffffff811115610ad557610ad4610790565b5b808601610ae289826109f2565b85526020850194505050602081019050610ab2565b5050509392505050565b600082601f830112610b1657610b15610790565b5b8135610b26848260208601610a7a565b91505092915050565b60008060408385031215610b4657610b45610786565b5b600083013567ffffffffffffffff811115610b6457610b6361078b565b5b610b708582860161098e565b925050602083013567ffffffffffffffff811115610b9157610b9061078b565b5b610b9d85828601610b01565b9150509250929050565b6000819050919050565b610bba81610ba7565b82525050565b600081519050919050565b600082825260208201905092915050565b60005b83811015610bfa578082015181840152602081019050610bdf565b60008484015250505050565b6000610c1182610bc0565b610c1b8185610bcb565b9350610c2b818560208601610bdc565b610c3481610795565b840191505092915050565b600081519050919050565b600082825260208201905092915050565b6000819050602082019050919050565b600082825260208201905092915050565b6000610c8782610bc0565b610c918185610c6b565b9350610ca1818560208601610bdc565b610caa81610795565b840191505092915050565b60006040830160008301518482036000860152610cd28282610c7c565b91505060208301518482036020860152610cec8282610c7c565b9150508091505092915050565b6000610d058383610cb5565b905092915050565b6000602082019050919050565b6000610d2582610c3f565b610d2f8185610c4a565b935083602082028501610d4185610c5b565b8060005b85811015610d7d5784840389528151610d5e8582610cf9565b9450610d6983610d0d565b925060208a01995050600181019050610d45565b50829750879550505050505092915050565b6000606082019050610da46000830186610bb1565b8181036020830152610db68185610c06565b90508181036040830152610dca8184610d1a565b9050949350505050565b60006020820190508181036000830152610dee8184610c06565b905092915050565b600073ffffffffffffffffffffffffffffffffffffffff82169050919050565b6000610e2182610df6565b9050919050565b610e3181610e16565b82525050565b6000602082019050610e4c6000830184610e28565b92915050565b610e5b81610e16565b8114610e6657600080fd5b50565b600081359050610e7881610e52565b92915050565b600060208284031215610e9457610e93610786565b5b6000610ea284828501610e69565b91505092915050565b6000819050919050565b610ebe81610eab565b82525050565b6000602082019050610ed96000830184610eb5565b92915050565b6000602082019050610ef46000830184610bb1565b92915050565b600081519050919050565b600082825260208201905092915050565b6000819050602082019050919050565b6000610f328383610c7c565b905092915050565b6000602082019050919050565b6000610f5282610efa565b610f5c8185610f05565b935083602082028501610f6e85610f16565b8060005b85811015610faa5784840389528151610f8b8582610f26565b9450610f9683610f3a565b925060208a01995050600181019050610f72565b50829750879550505050505092915050565b60006040820190508181036000830152610fd68185610f47565b90508181036020830152610fea8184610d1a565b90509392505050565b610ffc81610ba7565b811461100757600080fd5b50565b60008151905061101981610ff3565b92915050565b600061103261102d84610857565b610806565b90508281526020810184848401111561104e5761104d610852565b5b611059848285610bdc565b509392505050565b600082601f83011261107657611075610790565b5b815161108684826020860161101f565b91505092915050565b6000604082840312156110a5576110a46109e8565b5b6110af6040610806565b9050600082015167ffffffffffffffff8111156110cf576110ce6109ed565b5b6110db84828501611061565b600083015250602082015167ffffffffffffffff8111156110ff576110fe6109ed565b5b61110b84828501611061565b60208301525092915050565b600061112a611125846109bc565b610806565b9050808382526020820190506020840283018581111561114d5761114c61084d565b5b835b8181101561119457805167ffffffffffffffff81111561117257611171610790565b5b80860161117f898261108f565b8552602085019450505060208101905061114f565b5050509392505050565b600082601f8301126111b3576111b2610790565b5b81516111c3848260208601611117565b91505092915050565b6000806000606084860312156111e5576111e4610786565b5b60006111f38682870161100a565b935050602084015167ffffffffffffffff8111156112145761121361078b565b5b61122086828701611061565b925050604084015167ffffffffffffffff8111156112415761124061078b565b5b61124d8682870161119e565b9150509250925092565b60006020828403121561126d5761126c610786565b5b600082015167ffffffffffffffff81111561128b5761128a61078b565b5b61129784828501611061565b91505092915050565b6112a981610eab565b81146112b457600080fd5b50565b6000815190506112c6816112a0565b92915050565b6000602082840312156112e2576112e1610786565b5b60006112f0848285016112b7565b9150509291505056fea26469706673582212205c6384faaf14b4d710a75951d20e5d81ee714630c85caed9b6a9205a63607e7b64736f6c634300081c0033",
  "devdoc": {
    "errors": {
      "AlreadyInitialized()": [
        {
          "details": "Cannot double-initialize."
        }
      ],
      "NewOwnerIsZeroAddress()": [
        {
          "details": "The `newOwner` cannot be the zero address."
        }
      ],
      "NoHandoverRequest()": [
        {
          "details": "The `pendingOwner` does not have a valid handover request."
        }
      ],
      "Unauthorized()": [
        {
          "details": "The caller is not authorized to call the function."
        }
      ]
    },
    "events": {
      "OwnershipHandoverCanceled(address)": {
        "details": "The ownership handover to `pendingOwner` has been canceled."
      },
      "OwnershipHandoverRequested(address)": {
        "details": "An ownership handover to `pendingOwner` has been requested."
      },
      "OwnershipTransferred(address,address)": {
        "details": "The ownership is transferred from `oldOwner` to `newOwner`. This event is intentionally kept the same as OpenZeppelin's Ownable to be compatible with indexers and [EIP-173](https://eips.ethereum.org/EIPS/eip-173), despite it not being as lightweight as a single argument event."
      }
    },
    "kind": "dev",
    "methods": {
      "cancelOwnershipHandover()": {
        "details": "Cancels the two-step ownership handover to the caller, if any."
      },
      "completeOwnershipHandover(address)": {
        "details": "Allows the owner to complete the two-step ownership handover to `pendingOwner`. Reverts if there is no existing ownership handover requested by `pendingOwner`."
      },
      "owner()": {
        "details": "Returns the owner of the contract."
      },
      "ownershipHandoverExpiresAt(address)": {
        "details": "Returns the expiry timestamp for the two-step ownership handover to `pendingOwner`."
      },
      "renounceOwnership()": {
        "details": "Allows the owner to renounce their ownership."
      },
      "request(string[],(string,string)[])": {
        "params": {
          "params": "The query parameters. (e.g. \"?asdf=1234&foo=bar\" turns in to `[{ key: \"asdf\", value: \"1234\" }, { key: \"foo\", value: \"bar\" }]`)",
          "resource": "The resource to request (e.g. \"/asdf/1234\" turns in to `[\"asdf\", \"1234\"]`)"
        },
        "returns": {
          "body": "               The body of the response",
          "headers": "            A list of header names (e.g. [{ key: \"Content-Type\", value: \"application/json\" }])",
          "statusCode": "         The HTTP status code (e.g. 200)"
        }
      },
      "requestOwnershipHandover()": {
        "details": "Request a two-step ownership handover to the caller. The request will automatically expire in 48 hours (172800 seconds) by default."
      },
      "resolveMode()": {
        "returns": {
          "_0": "resolveMode         The mode of the resolver (e.g. 5219)"
        }
      },
      "transferOwnership(address)": {
        "details": "Allows the owner to transfer the ownership to `newOwner`."
      }
    },
    "version": 1
  },
  "userdoc": {
    "kind": "user",
    "methods": {
      "request(string[],(string,string)[])": {
        "notice": "Send an HTTP GET-like request to this contract"
      },
      "resolveMode()": {
        "notice": "returns the resolve mode of the contract"
      }
    },
    "version": 1
  },
  "storageLayout": {
    "storage": [
      {
        "astId": 20,
        "contract": "contracts/Web.sol:Web",
        "label": "garden",
        "offset": 0,
        "slot": "0",
        "type": "t_address"
      },
      {
        "astId": 22,
        "contract": "contracts/Web.sol:Web",
        "label": "renderer",
        "offset": 0,
        "slot": "1",
        "type": "t_address"
      }
    ],
    "types": {
      "t_address": {
        "encoding": "inplace",
        "label": "address",
        "numberOfBytes": "20"
      }
    }
  }
}