{
  "address": "0x4C2c0b77A1987C2Ccc6C3fdCedf2886C40B82365",
  "abi": [
    {
      "inputs": [
        {
          "internalType": "address",
          "name": "garden",
          "type": "address"
        },
        {
          "internalType": "address",
          "name": "essayContract",
          "type": "address"
        }
      ],
      "name": "html",
      "outputs": [
        {
          "internalType": "string",
          "name": "html",
          "type": "string"
        }
      ],
      "stateMutability": "view",
      "type": "function"
    }
  ],
  "transactionHash": "0x67873ed66ee464c8300050f84ed92ccc9abaa198fa7e8eb94aa15b1b9cbc9ea4",
  "args": [],
  "numDeployments": 1,
  "solcInputHash": "65f9223aec37e3a1e659d53883f14acb",
  "bytecode": "0x6110ee610052600b82828239805160001a6073146045577f4e487b7100000000000000000000000000000000000000000000000000000000600052600060045260246000fd5b30600052607381538281f3fe73000000000000000000000000000000000000000030146080604052600436106100355760003560e01c806329d556c61461003a575b600080fd5b610054600480360381019061004f9190610625565b61006a565b60405161006191906106f5565b60405180910390f35b6060808373ffffffffffffffffffffffffffffffffffffffff16634a79d50c6040518163ffffffff1660e01b8152600401600060405180830381865afa1580156100b8573d6000803e3d6000fd5b505050506040513d6000823e3d601f19601f820116820180604052508101906100e1919061083d565b8373ffffffffffffffffffffffffffffffffffffffff166333c34ac36040518163ffffffff1660e01b8152600401600060405180830381865afa15801561012c573d6000803e3d6000fd5b505050506040513d6000823e3d601f19601f82011682018060405250810190610155919061083d565b61015e86610490565b8673ffffffffffffffffffffffffffffffffffffffff16634a79d50c6040518163ffffffff1660e01b8152600401600060405180830381865afa1580156101a9573d6000803e3d6000fd5b505050506040513d6000823e3d601f19601f820116820180604052508101906101d2919061083d565b6040516020016101e6959493929190610c9e565b604051602081830303815290604052905060008273ffffffffffffffffffffffffffffffffffffffff16634a79d50c6040518163ffffffff1660e01b8152600401600060405180830381865afa158015610244573d6000803e3d6000fd5b505050506040513d6000823e3d601f19601f8201168201806040525081019061026d919061083d565b8373ffffffffffffffffffffffffffffffffffffffff166328411ae16040518163ffffffff1660e01b8152600401600060405180830381865afa1580156102b8573d6000803e3d6000fd5b505050506040513d6000823e3d601f19601f820116820180604052508101906102e19190610edc565b6000815181106102f4576102f3610f25565b5b60200260200101518573ffffffffffffffffffffffffffffffffffffffff16634a79d50c6040518163ffffffff1660e01b8152600401600060405180830381865afa158015610347573d6000803e3d6000fd5b505050506040513d6000823e3d601f19601f82011682018060405250810190610370919061083d565b60405160200161038293929190611012565b6040516020818303038152906040529050732c93e46dAd12ae0854D75057C527cD536e7Ed72363263c9253838673ffffffffffffffffffffffffffffffffffffffff16634a79d50c6040518163ffffffff1660e01b8152600401600060405180830381865afa1580156103f9573d6000803e3d6000fd5b505050506040513d6000823e3d601f19601f82011682018060405250810190610422919061083d565b846040518463ffffffff1660e01b81526004016104419392919061106c565b600060405180830381865af415801561045e573d6000803e3d6000fd5b505050506040513d6000823e3d601f19601f82011682018060405250810190610487919061083d565b91505092915050565b606061049b8261050a565b905060ff6000190460061b60228201816022026028822016608860f01b60005b6001156104da5782811a820281820152600181019050601481036104bb575b50838351166000511660011c8351188352602083019250838351166020511660011c835118835250505050919050565b606061051582610530565b90506002815101613078825260028203915080825250919050565b60606040519050608081016040526f30313233343536373839616263646566600f526002810190506028815260208101600060288201528260601b925060005b6001156105ac57808101820184821a600f81165160018301538060041c518253600183019250601483036105a55750506105ac565b5050610570565b5050919050565b6000604051905090565b600080fd5b600080fd5b600073ffffffffffffffffffffffffffffffffffffffff82169050919050565b60006105f2826105c7565b9050919050565b610602816105e7565b811461060d57600080fd5b50565b60008135905061061f816105f9565b92915050565b6000806040838503121561063c5761063b6105bd565b5b600061064a85828601610610565b925050602061065b85828601610610565b9150509250929050565b600081519050919050565b600082825260208201905092915050565b60005b8381101561069f578082015181840152602081019050610684565b60008484015250505050565b6000601f19601f8301169050919050565b60006106c782610665565b6106d18185610670565b93506106e1818560208601610681565b6106ea816106ab565b840191505092915050565b6000602082019050818103600083015261070f81846106bc565b905092915050565b600080fd5b600080fd5b7f4e487b7100000000000000000000000000000000000000000000000000000000600052604160045260246000fd5b610759826106ab565b810181811067ffffffffffffffff8211171561077857610777610721565b5b80604052505050565b600061078b6105b3565b90506107978282610750565b919050565b600067ffffffffffffffff8211156107b7576107b6610721565b5b6107c0826106ab565b9050602081019050919050565b60006107e06107db8461079c565b610781565b9050828152602081018484840111156107fc576107fb61071c565b5b610807848285610681565b509392505050565b600082601f83011261082457610823610717565b5b81516108348482602086016107cd565b91505092915050565b600060208284031215610853576108526105bd565b5b600082015167ffffffffffffffff811115610871576108706105c2565b5b61087d8482850161080f565b91505092915050565b600081905092915050565b600061089c82610665565b6108a68185610886565b93506108b6818560208601610681565b80840191505092915050565b7f3c64697620636c6173733d2263206573736179223e3c64697620636c6173733d60008201527f2277223e3c64697620636c6173733d22732067223e0000000000000000000000602082015250565b600061091e603583610886565b9150610929826108c2565b603582019050919050565b7f3c703e3c693e54686973207465787420776173207075626c697368656420617360008201527f2070617274206f662074686520636f6e74726163742073686f773a203c61206860208201527f7265663d222f22207374796c653d22646973706c61793a20626c6f636b223e00604082015250565b60006109b6605f83610886565b91506109c182610934565b605f82019050919050565b7f3c2f613e3c2f693e3c2f703e0000000000000000000000000000000000000000815250565b7f3c62723e3c62723e3c62723e0000000000000000000000000000000000000000815250565b7fe29a980000000000000000000000000000000000000000000000000000000000815250565b7f3c62723e3c62723e3c62723e3c62723e00000000000000000000000000000000815250565b7f3c61727469636c653e0000000000000000000000000000000000000000000000815250565b7f3c2f61727469636c653e00000000000000000000000000000000000000000000815250565b7f3c703e0000000000000000000000000000000000000000000000000000000000815250565b7f203c2f703e000000000000000000000000000000000000000000000000000000815250565b7f3c62723e3c62723e000000000000000000000000000000000000000000000000815250565b7f3c703e3c693e54686973207465787420776173207075626c697368656420617360008201527f2070617274206f66207468652073686f77203c6120687265663d222f2220737460208201527f796c653d22646973706c61793a20626c6f636b223e0000000000000000000000604082015250565b6000610ba4605583610886565b9150610baf82610b22565b605582019050919050565b7f3c62723e00000000000000000000000000000000000000000000000000000000815250565b7f3c2f6469763e3c2f6469763e3c2f6469763e0000000000000000000000000000815250565b7f3c64697620636c6173733d2266223e3c6120687265663d222f22207374796c6560008201527f3d22746578742d6465636f726174696f6e3a206e6f6e653b223ee29a983c2f6160208201527f3e3c2f6469763e00000000000000000000000000000000000000000000000000604082015250565b6000610c88604783610886565b9150610c9382610c06565b604782019050919050565b6000610caa8288610891565b9150610cb582610911565b9150610cc0826109a9565b9150610ccc8287610891565b9150610cd7826109cc565b600c82019150610ce6826109f2565b600c82019150610cf582610a18565b600382019150610d0482610a3e565b601082019150610d1382610a64565b600982019150610d238286610891565b9150610d2e82610a8a565b600a82019150610d3d82610a3e565b601082019150610d4c82610a18565b600382019150610d5b826109f2565b600c82019150610d6a82610ab0565b600382019150610d7a8285610891565b9150610d8582610ad6565b600582019150610d9482610afc565b600882019150610da382610b97565b9150610daf8284610891565b9150610dba826109cc565b600c82019150610dc982610bba565b600482019150610dd882610be0565b601282019150610de782610c7b565b91508190509695505050505050565b600067ffffffffffffffff821115610e1157610e10610721565b5b602082029050602081019050919050565b600080fd5b6000610e3a610e3584610df6565b610781565b90508083825260208201905060208402830185811115610e5d57610e5c610e22565b5b835b81811015610ea457805167ffffffffffffffff811115610e8257610e81610717565b5b808601610e8f898261080f565b85526020850194505050602081019050610e5f565b5050509392505050565b600082601f830112610ec357610ec2610717565b5b8151610ed3848260208601610e27565b91505092915050565b600060208284031215610ef257610ef16105bd565b5b600082015167ffffffffffffffff811115610f1057610f0f6105c2565b5b610f1c84828501610eae565b91505092915050565b7f4e487b7100000000000000000000000000000000000000000000000000000000600052603260045260246000fd5b7f5468652065737361792022000000000000000000000000000000000000000000815250565b7f22207772697474656e2062792000000000000000000000000000000000000000815250565b7f20776173207075626c69736865642061732070617274206f662074686520636f60008201527f6e74726163742073686f773a2000000000000000000000000000000000000000602082015250565b6000610ffc602d83610886565b915061100782610fa0565b602d82019050919050565b600061101d82610f54565b600b8201915061102d8286610891565b915061103882610f7a565b600d820191506110488285610891565b915061105382610fef565b915061105f8284610891565b9150819050949350505050565b6000606082019050818103600083015261108681866106bc565b9050818103602083015261109a81856106bc565b905081810360408301526110ae81846106bc565b905094935050505056fea26469706673582212204114e9b357f29a4e38be098b772f712411d8f89547b0aa7ecefcedb9991cfe0e64736f6c634300081c0033",
  "deployedBytecode": "0x73000000000000000000000000000000000000000030146080604052600436106100355760003560e01c806329d556c61461003a575b600080fd5b610054600480360381019061004f9190610625565b61006a565b60405161006191906106f5565b60405180910390f35b6060808373ffffffffffffffffffffffffffffffffffffffff16634a79d50c6040518163ffffffff1660e01b8152600401600060405180830381865afa1580156100b8573d6000803e3d6000fd5b505050506040513d6000823e3d601f19601f820116820180604052508101906100e1919061083d565b8373ffffffffffffffffffffffffffffffffffffffff166333c34ac36040518163ffffffff1660e01b8152600401600060405180830381865afa15801561012c573d6000803e3d6000fd5b505050506040513d6000823e3d601f19601f82011682018060405250810190610155919061083d565b61015e86610490565b8673ffffffffffffffffffffffffffffffffffffffff16634a79d50c6040518163ffffffff1660e01b8152600401600060405180830381865afa1580156101a9573d6000803e3d6000fd5b505050506040513d6000823e3d601f19601f820116820180604052508101906101d2919061083d565b6040516020016101e6959493929190610c9e565b604051602081830303815290604052905060008273ffffffffffffffffffffffffffffffffffffffff16634a79d50c6040518163ffffffff1660e01b8152600401600060405180830381865afa158015610244573d6000803e3d6000fd5b505050506040513d6000823e3d601f19601f8201168201806040525081019061026d919061083d565b8373ffffffffffffffffffffffffffffffffffffffff166328411ae16040518163ffffffff1660e01b8152600401600060405180830381865afa1580156102b8573d6000803e3d6000fd5b505050506040513d6000823e3d601f19601f820116820180604052508101906102e19190610edc565b6000815181106102f4576102f3610f25565b5b60200260200101518573ffffffffffffffffffffffffffffffffffffffff16634a79d50c6040518163ffffffff1660e01b8152600401600060405180830381865afa158015610347573d6000803e3d6000fd5b505050506040513d6000823e3d601f19601f82011682018060405250810190610370919061083d565b60405160200161038293929190611012565b604051602081830303815290604052905073__$ebc4e0f7c7fc55df3c7791afc37f4e281c$__63263c9253838673ffffffffffffffffffffffffffffffffffffffff16634a79d50c6040518163ffffffff1660e01b8152600401600060405180830381865afa1580156103f9573d6000803e3d6000fd5b505050506040513d6000823e3d601f19601f82011682018060405250810190610422919061083d565b846040518463ffffffff1660e01b81526004016104419392919061106c565b600060405180830381865af415801561045e573d6000803e3d6000fd5b505050506040513d6000823e3d601f19601f82011682018060405250810190610487919061083d565b91505092915050565b606061049b8261050a565b905060ff6000190460061b60228201816022026028822016608860f01b60005b6001156104da5782811a820281820152600181019050601481036104bb575b50838351166000511660011c8351188352602083019250838351166020511660011c835118835250505050919050565b606061051582610530565b90506002815101613078825260028203915080825250919050565b60606040519050608081016040526f30313233343536373839616263646566600f526002810190506028815260208101600060288201528260601b925060005b6001156105ac57808101820184821a600f81165160018301538060041c518253600183019250601483036105a55750506105ac565b5050610570565b5050919050565b6000604051905090565b600080fd5b600080fd5b600073ffffffffffffffffffffffffffffffffffffffff82169050919050565b60006105f2826105c7565b9050919050565b610602816105e7565b811461060d57600080fd5b50565b60008135905061061f816105f9565b92915050565b6000806040838503121561063c5761063b6105bd565b5b600061064a85828601610610565b925050602061065b85828601610610565b9150509250929050565b600081519050919050565b600082825260208201905092915050565b60005b8381101561069f578082015181840152602081019050610684565b60008484015250505050565b6000601f19601f8301169050919050565b60006106c782610665565b6106d18185610670565b93506106e1818560208601610681565b6106ea816106ab565b840191505092915050565b6000602082019050818103600083015261070f81846106bc565b905092915050565b600080fd5b600080fd5b7f4e487b7100000000000000000000000000000000000000000000000000000000600052604160045260246000fd5b610759826106ab565b810181811067ffffffffffffffff8211171561077857610777610721565b5b80604052505050565b600061078b6105b3565b90506107978282610750565b919050565b600067ffffffffffffffff8211156107b7576107b6610721565b5b6107c0826106ab565b9050602081019050919050565b60006107e06107db8461079c565b610781565b9050828152602081018484840111156107fc576107fb61071c565b5b610807848285610681565b509392505050565b600082601f83011261082457610823610717565b5b81516108348482602086016107cd565b91505092915050565b600060208284031215610853576108526105bd565b5b600082015167ffffffffffffffff811115610871576108706105c2565b5b61087d8482850161080f565b91505092915050565b600081905092915050565b600061089c82610665565b6108a68185610886565b93506108b6818560208601610681565b80840191505092915050565b7f3c64697620636c6173733d2263206573736179223e3c64697620636c6173733d60008201527f2277223e3c64697620636c6173733d22732067223e0000000000000000000000602082015250565b600061091e603583610886565b9150610929826108c2565b603582019050919050565b7f3c703e3c693e54686973207465787420776173207075626c697368656420617360008201527f2070617274206f662074686520636f6e74726163742073686f773a203c61206860208201527f7265663d222f22207374796c653d22646973706c61793a20626c6f636b223e00604082015250565b60006109b6605f83610886565b91506109c182610934565b605f82019050919050565b7f3c2f613e3c2f693e3c2f703e0000000000000000000000000000000000000000815250565b7f3c62723e3c62723e3c62723e0000000000000000000000000000000000000000815250565b7fe29a980000000000000000000000000000000000000000000000000000000000815250565b7f3c62723e3c62723e3c62723e3c62723e00000000000000000000000000000000815250565b7f3c61727469636c653e0000000000000000000000000000000000000000000000815250565b7f3c2f61727469636c653e00000000000000000000000000000000000000000000815250565b7f3c703e0000000000000000000000000000000000000000000000000000000000815250565b7f203c2f703e000000000000000000000000000000000000000000000000000000815250565b7f3c62723e3c62723e000000000000000000000000000000000000000000000000815250565b7f3c703e3c693e54686973207465787420776173207075626c697368656420617360008201527f2070617274206f66207468652073686f77203c6120687265663d222f2220737460208201527f796c653d22646973706c61793a20626c6f636b223e0000000000000000000000604082015250565b6000610ba4605583610886565b9150610baf82610b22565b605582019050919050565b7f3c62723e00000000000000000000000000000000000000000000000000000000815250565b7f3c2f6469763e3c2f6469763e3c2f6469763e0000000000000000000000000000815250565b7f3c64697620636c6173733d2266223e3c6120687265663d222f22207374796c6560008201527f3d22746578742d6465636f726174696f6e3a206e6f6e653b223ee29a983c2f6160208201527f3e3c2f6469763e00000000000000000000000000000000000000000000000000604082015250565b6000610c88604783610886565b9150610c9382610c06565b604782019050919050565b6000610caa8288610891565b9150610cb582610911565b9150610cc0826109a9565b9150610ccc8287610891565b9150610cd7826109cc565b600c82019150610ce6826109f2565b600c82019150610cf582610a18565b600382019150610d0482610a3e565b601082019150610d1382610a64565b600982019150610d238286610891565b9150610d2e82610a8a565b600a82019150610d3d82610a3e565b601082019150610d4c82610a18565b600382019150610d5b826109f2565b600c82019150610d6a82610ab0565b600382019150610d7a8285610891565b9150610d8582610ad6565b600582019150610d9482610afc565b600882019150610da382610b97565b9150610daf8284610891565b9150610dba826109cc565b600c82019150610dc982610bba565b600482019150610dd882610be0565b601282019150610de782610c7b565b91508190509695505050505050565b600067ffffffffffffffff821115610e1157610e10610721565b5b602082029050602081019050919050565b600080fd5b6000610e3a610e3584610df6565b610781565b90508083825260208201905060208402830185811115610e5d57610e5c610e22565b5b835b81811015610ea457805167ffffffffffffffff811115610e8257610e81610717565b5b808601610e8f898261080f565b85526020850194505050602081019050610e5f565b5050509392505050565b600082601f830112610ec357610ec2610717565b5b8151610ed3848260208601610e27565b91505092915050565b600060208284031215610ef257610ef16105bd565b5b600082015167ffffffffffffffff811115610f1057610f0f6105c2565b5b610f1c84828501610eae565b91505092915050565b7f4e487b7100000000000000000000000000000000000000000000000000000000600052603260045260246000fd5b7f5468652065737361792022000000000000000000000000000000000000000000815250565b7f22207772697474656e2062792000000000000000000000000000000000000000815250565b7f20776173207075626c69736865642061732070617274206f662074686520636f60008201527f6e74726163742073686f773a2000000000000000000000000000000000000000602082015250565b6000610ffc602d83610886565b915061100782610fa0565b602d82019050919050565b600061101d82610f54565b600b8201915061102d8286610891565b915061103882610f7a565b600d820191506110488285610891565b915061105382610fef565b915061105f8284610891565b9150819050949350505050565b6000606082019050818103600083015261108681866106bc565b9050818103602083015261109a81856106bc565b905081810360408301526110ae81846106bc565b905094935050505056fea26469706673582212204114e9b357f29a4e38be098b772f712411d8f89547b0aa7ecefcedb9991cfe0e64736f6c634300081c0033",
  "libraries": {
    "GardenHTML": "0x2c93e46dAd12ae0854D75057C527cD536e7Ed723"
  },
  "devdoc": {
    "kind": "dev",
    "methods": {},
    "version": 1
  },
  "userdoc": {
    "kind": "user",
    "methods": {},
    "version": 1
  },
  "storageLayout": {
    "storage": [],
    "types": null
  }
}